{
  "contractName": "AccountManager",
  "abi": [
    {
      "anonymous": false,
      "inputs": [
        {
          "indexed": true,
          "internalType": "address",
          "name": "previousOwner",
          "type": "address"
        },
        {
          "indexed": true,
          "internalType": "address",
          "name": "newOwner",
          "type": "address"
        }
      ],
      "name": "OwnershipTransferred",
      "type": "event"
    },
    {
      "inputs": [],
      "name": "owner",
      "outputs": [
        {
          "internalType": "address",
          "name": "",
          "type": "address"
        }
      ],
      "stateMutability": "view",
      "type": "function",
      "constant": true
    },
    {
      "inputs": [],
      "name": "renounceOwnership",
      "outputs": [],
      "stateMutability": "nonpayable",
      "type": "function"
    },
    {
      "inputs": [
        {
          "internalType": "address",
          "name": "newOwner",
          "type": "address"
        }
      ],
      "name": "transferOwnership",
      "outputs": [],
      "stateMutability": "nonpayable",
      "type": "function"
    },
    {
      "inputs": [],
      "name": "getPasswordMaster",
      "outputs": [
        {
          "internalType": "string",
          "name": "",
          "type": "string"
        }
      ],
      "stateMutability": "view",
      "type": "function",
      "constant": true
    },
    {
      "inputs": [
        {
          "internalType": "string",
          "name": "name",
          "type": "string"
        },
        {
          "internalType": "string",
          "name": "pubKey",
          "type": "string"
        },
        {
          "internalType": "string",
          "name": "passwordMaster",
          "type": "string"
        }
      ],
      "name": "addUser",
      "outputs": [
        {
          "components": [
            {
              "internalType": "string",
              "name": "name",
              "type": "string"
            },
            {
              "internalType": "string",
              "name": "publicKey",
              "type": "string"
            },
            {
              "internalType": "bool",
              "name": "isAuthority",
              "type": "bool"
            },
            {
              "internalType": "bool",
              "name": "exist",
              "type": "bool"
            }
          ],
          "internalType": "struct AccountManager.User",
          "name": "",
          "type": "tuple"
        }
      ],
      "stateMutability": "nonpayable",
      "type": "function"
    },
    {
      "inputs": [
        {
          "internalType": "string",
          "name": "passwordMaster",
          "type": "string"
        },
        {
          "internalType": "address",
          "name": "authorityAddress",
          "type": "address"
        },
        {
          "internalType": "string",
          "name": "name",
          "type": "string"
        },
        {
          "internalType": "string",
          "name": "pubKey",
          "type": "string"
        }
      ],
      "name": "addAuthority",
      "outputs": [
        {
          "components": [
            {
              "internalType": "string",
              "name": "name",
              "type": "string"
            },
            {
              "internalType": "string",
              "name": "publicKey",
              "type": "string"
            },
            {
              "internalType": "bool",
              "name": "isAuthority",
              "type": "bool"
            },
            {
              "internalType": "bool",
              "name": "exist",
              "type": "bool"
            }
          ],
          "internalType": "struct AccountManager.User",
          "name": "",
          "type": "tuple"
        }
      ],
      "stateMutability": "nonpayable",
      "type": "function"
    },
    {
      "inputs": [
        {
          "internalType": "address",
          "name": "userAddress",
          "type": "address"
        }
      ],
      "name": "getUser",
      "outputs": [
        {
          "components": [
            {
              "internalType": "string",
              "name": "name",
              "type": "string"
            },
            {
              "internalType": "string",
              "name": "publicKey",
              "type": "string"
            },
            {
              "internalType": "bool",
              "name": "isAuthority",
              "type": "bool"
            },
            {
              "internalType": "bool",
              "name": "exist",
              "type": "bool"
            }
          ],
          "internalType": "struct AccountManager.User",
          "name": "",
          "type": "tuple"
        }
      ],
      "stateMutability": "view",
      "type": "function",
      "constant": true
    },
    {
      "inputs": [
        {
          "internalType": "string",
          "name": "name",
          "type": "string"
        }
      ],
      "name": "setUser",
      "outputs": [
        {
          "components": [
            {
              "internalType": "string",
              "name": "name",
              "type": "string"
            },
            {
              "internalType": "string",
              "name": "publicKey",
              "type": "string"
            },
            {
              "internalType": "bool",
              "name": "isAuthority",
              "type": "bool"
            },
            {
              "internalType": "bool",
              "name": "exist",
              "type": "bool"
            }
          ],
          "internalType": "struct AccountManager.User",
          "name": "",
          "type": "tuple"
        }
      ],
      "stateMutability": "nonpayable",
      "type": "function"
    },
    {
      "inputs": [],
      "name": "delUser",
      "outputs": [],
      "stateMutability": "nonpayable",
      "type": "function"
    },
    {
      "inputs": [
        {
          "internalType": "address",
          "name": "userAddress",
          "type": "address"
        }
      ],
      "name": "isAuthority",
      "outputs": [
        {
          "internalType": "bool",
          "name": "",
          "type": "bool"
        }
      ],
      "stateMutability": "view",
      "type": "function",
      "constant": true
    },
    {
      "inputs": [
        {
          "internalType": "address",
          "name": "userAddress",
          "type": "address"
        }
      ],
      "name": "checkIfUserExist",
      "outputs": [
        {
          "internalType": "bool",
          "name": "",
          "type": "bool"
        }
      ],
      "stateMutability": "view",
      "type": "function",
      "constant": true
    }
  ],
  "bytecode": "0x608060405234801561001057600080fd5b5061002d61002261003260201b60201c565b61003a60201b60201c565b6100fe565b600033905090565b60008060009054906101000a900473ffffffffffffffffffffffffffffffffffffffff169050816000806101000a81548173ffffffffffffffffffffffffffffffffffffffff021916908373ffffffffffffffffffffffffffffffffffffffff1602179055508173ffffffffffffffffffffffffffffffffffffffff168173ffffffffffffffffffffffffffffffffffffffff167f8be0079c531659141344cd1fd0a4f28419497f9722a3daafe3b4186f6b6457e060405160405180910390a35050565b61224d806200010e6000396000f3fe608060405234801561001057600080fd5b50600436106100a95760003560e01c80638da5cb5b116100715780638da5cb5b1461014057806395c5fed41461015e578063a1abffee1461018e578063bacf99da146101be578063d0020fad146101ee578063f2fde38b1461021e576100a9565b806310edb2cb146100ae5780632330f247146100cc5780636f77926b146100fc578063715018a61461012c578063899478a614610136575b600080fd5b6100b661023a565b6040516100c39190611cca565b60405180910390f35b6100e660048036038101906100e191906118be565b610398565b6040516100f39190611caf565b60405180910390f35b610116600480360381019061011191906118be565b6104f4565b6040516101239190611dcc565b60405180910390f35b6101346107aa565b005b61013e610832565b005b61014861099a565b6040516101559190611c94565b60405180910390f35b610178600480360381019061017391906119ef565b6109c3565b6040516101859190611dcc565b60405180910390f35b6101a860048036038101906101a391906118be565b610cf7565b6040516101b59190611caf565b60405180910390f35b6101d860048036038101906101d39190611934565b610d50565b6040516101e59190611dcc565b60405180910390f35b610208600480360381019061020391906118eb565b611173565b6040516102159190611dcc565b60405180910390f35b610238600480360381019061023391906118be565b61137d565b005b60606000600260003373ffffffffffffffffffffffffffffffffffffffff1673ffffffffffffffffffffffffffffffffffffffff168152602001908152602001600020805461028890611ef1565b905014156102cb576040517f08c379a00000000000000000000000000000000000000000000000000000000081526004016102c290611dac565b60405180910390fd5b600260003373ffffffffffffffffffffffffffffffffffffffff1673ffffffffffffffffffffffffffffffffffffffff168152602001908152602001600020805461031590611ef1565b80601f016020809104026020016040519081016040528092919081815260200182805461034190611ef1565b801561038e5780601f106103635761010080835404028352916020019161038e565b820191906000526020600020905b81548152906001019060200180831161037157829003601f168201915b5050505050905090565b600081600073ffffffffffffffffffffffffffffffffffffffff168173ffffffffffffffffffffffffffffffffffffffff16141561040b576040517f08c379a000000000000000000000000000000000000000000000000000000000815260040161040290611d6c565b60405180910390fd5b82600160008273ffffffffffffffffffffffffffffffffffffffff1673ffffffffffffffffffffffffffffffffffffffff16815260200190815260200160002060020160019054906101000a900460ff1661049b576040517f08c379a000000000000000000000000000000000000000000000000000000000815260040161049290611d4c565b60405180910390fd5b600160008573ffffffffffffffffffffffffffffffffffffffff1673ffffffffffffffffffffffffffffffffffffffff16815260200190815260200160002060020160009054906101000a900460ff1692505050919050565b6104fc61172a565b81600073ffffffffffffffffffffffffffffffffffffffff168173ffffffffffffffffffffffffffffffffffffffff16141561056d576040517f08c379a000000000000000000000000000000000000000000000000000000000815260040161056490611d6c565b60405180910390fd5b82600160008273ffffffffffffffffffffffffffffffffffffffff1673ffffffffffffffffffffffffffffffffffffffff16815260200190815260200160002060020160019054906101000a900460ff166105fd576040517f08c379a00000000000000000000000000000000000000000000000000000000081526004016105f490611d4c565b60405180910390fd5b600160008573ffffffffffffffffffffffffffffffffffffffff1673ffffffffffffffffffffffffffffffffffffffff16815260200190815260200160002060405180608001604052908160008201805461065790611ef1565b80601f016020809104026020016040519081016040528092919081815260200182805461068390611ef1565b80156106d05780601f106106a5576101008083540402835291602001916106d0565b820191906000526020600020905b8154815290600101906020018083116106b357829003601f168201915b505050505081526020016001820180546106e990611ef1565b80601f016020809104026020016040519081016040528092919081815260200182805461071590611ef1565b80156107625780601f1061073757610100808354040283529160200191610762565b820191906000526020600020905b81548152906001019060200180831161074557829003601f168201915b505050505081526020016002820160009054906101000a900460ff161515151581526020016002820160019054906101000a900460ff16151515158152505092505050919050565b6107b2611475565b73ffffffffffffffffffffffffffffffffffffffff166107d061099a565b73ffffffffffffffffffffffffffffffffffffffff1614610826576040517f08c379a000000000000000000000000000000000000000000000000000000000815260040161081d90611d8c565b60405180910390fd5b610830600061147d565b565b33600160008273ffffffffffffffffffffffffffffffffffffffff1673ffffffffffffffffffffffffffffffffffffffff16815260200190815260200160002060020160019054906101000a900460ff166108c2576040517f08c379a00000000000000000000000000000000000000000000000000000000081526004016108b990611d4c565b60405180910390fd5b600260003373ffffffffffffffffffffffffffffffffffffffff1673ffffffffffffffffffffffffffffffffffffffff168152602001908152602001600020600061090d9190611756565b600160003373ffffffffffffffffffffffffffffffffffffffff1673ffffffffffffffffffffffffffffffffffffffff1681526020019081526020016000206000808201600061095d9190611756565b60018201600061096d9190611756565b6002820160006101000a81549060ff02191690556002820160016101000a81549060ff0219169055505050565b60008060009054906101000a900473ffffffffffffffffffffffffffffffffffffffff16905090565b6109cb61172a565b33600160008273ffffffffffffffffffffffffffffffffffffffff1673ffffffffffffffffffffffffffffffffffffffff16815260200190815260200160002060020160019054906101000a900460ff1615610a5c576040517f08c379a0000000000000000000000000000000000000000000000000000000008152600401610a5390611d0c565b60405180910390fd5b604051806080016040528086815260200185815260200160001515815260200160011515815250600160003373ffffffffffffffffffffffffffffffffffffffff1673ffffffffffffffffffffffffffffffffffffffff1681526020019081526020016000206000820151816000019080519060200190610ade929190611796565b506020820151816001019080519060200190610afb929190611796565b5060408201518160020160006101000a81548160ff02191690831515021790555060608201518160020160016101000a81548160ff021916908315150217905550905050610b493384611541565b600160003373ffffffffffffffffffffffffffffffffffffffff1673ffffffffffffffffffffffffffffffffffffffff168152602001908152602001600020604051806080016040529081600082018054610ba390611ef1565b80601f0160208091040260200160405190810160405280929190818152602001828054610bcf90611ef1565b8015610c1c5780601f10610bf157610100808354040283529160200191610c1c565b820191906000526020600020905b815481529060010190602001808311610bff57829003601f168201915b50505050508152602001600182018054610c3590611ef1565b80601f0160208091040260200160405190810160405280929190818152602001828054610c6190611ef1565b8015610cae5780601f10610c8357610100808354040283529160200191610cae565b820191906000526020600020905b815481529060010190602001808311610c9157829003601f168201915b505050505081526020016002820160009054906101000a900460ff161515151581526020016002820160019054906101000a900460ff1615151515815250509150509392505050565b6000600160008373ffffffffffffffffffffffffffffffffffffffff1673ffffffffffffffffffffffffffffffffffffffff16815260200190815260200160002060020160019054906101000a900460ff169050919050565b610d5861172a565b610d60611475565b73ffffffffffffffffffffffffffffffffffffffff16610d7e61099a565b73ffffffffffffffffffffffffffffffffffffffff1614610dd4576040517f08c379a0000000000000000000000000000000000000000000000000000000008152600401610dcb90611d8c565b60405180910390fd5b83600073ffffffffffffffffffffffffffffffffffffffff168173ffffffffffffffffffffffffffffffffffffffff161415610e45576040517f08c379a0000000000000000000000000000000000000000000000000000000008152600401610e3c90611d6c565b60405180910390fd5b84600160008273ffffffffffffffffffffffffffffffffffffffff1673ffffffffffffffffffffffffffffffffffffffff16815260200190815260200160002060020160019054906101000a900460ff1615610ed6576040517f08c379a0000000000000000000000000000000000000000000000000000000008152600401610ecd90611d0c565b60405180910390fd5b604051806080016040528086815260200185815260200160011515815260200160011515815250600160008873ffffffffffffffffffffffffffffffffffffffff1673ffffffffffffffffffffffffffffffffffffffff1681526020019081526020016000206000820151816000019080519060200190610f58929190611796565b506020820151816001019080519060200190610f75929190611796565b5060408201518160020160006101000a81548160ff02191690831515021790555060608201518160020160016101000a81548160ff021916908315150217905550905050610fc38688611541565b600160008773ffffffffffffffffffffffffffffffffffffffff1673ffffffffffffffffffffffffffffffffffffffff16815260200190815260200160002060405180608001604052908160008201805461101d90611ef1565b80601f016020809104026020016040519081016040528092919081815260200182805461104990611ef1565b80156110965780601f1061106b57610100808354040283529160200191611096565b820191906000526020600020905b81548152906001019060200180831161107957829003601f168201915b505050505081526020016001820180546110af90611ef1565b80601f01602080910402602001604051908101604052809291908181526020018280546110db90611ef1565b80156111285780601f106110fd57610100808354040283529160200191611128565b820191906000526020600020905b81548152906001019060200180831161110b57829003601f168201915b505050505081526020016002820160009054906101000a900460ff161515151581526020016002820160019054906101000a900460ff16151515158152505092505050949350505050565b61117b61172a565b81600160003373ffffffffffffffffffffffffffffffffffffffff1673ffffffffffffffffffffffffffffffffffffffff16815260200190815260200160002060000190805190602001906111d1929190611796565b50600160003373ffffffffffffffffffffffffffffffffffffffff1673ffffffffffffffffffffffffffffffffffffffff16815260200190815260200160002060405180608001604052908160008201805461122c90611ef1565b80601f016020809104026020016040519081016040528092919081815260200182805461125890611ef1565b80156112a55780601f1061127a576101008083540402835291602001916112a5565b820191906000526020600020905b81548152906001019060200180831161128857829003601f168201915b505050505081526020016001820180546112be90611ef1565b80601f01602080910402602001604051908101604052809291908181526020018280546112ea90611ef1565b80156113375780601f1061130c57610100808354040283529160200191611337565b820191906000526020600020905b81548152906001019060200180831161131a57829003601f168201915b505050505081526020016002820160009054906101000a900460ff161515151581526020016002820160019054906101000a900460ff1615151515815250509050919050565b611385611475565b73ffffffffffffffffffffffffffffffffffffffff166113a361099a565b73ffffffffffffffffffffffffffffffffffffffff16146113f9576040517f08c379a00000000000000000000000000000000000000000000000000000000081526004016113f090611d8c565b60405180910390fd5b600073ffffffffffffffffffffffffffffffffffffffff168173ffffffffffffffffffffffffffffffffffffffff161415611469576040517f08c379a000000000000000000000000000000000000000000000000000000000815260040161146090611cec565b60405180910390fd5b6114728161147d565b50565b600033905090565b60008060009054906101000a900473ffffffffffffffffffffffffffffffffffffffff169050816000806101000a81548173ffffffffffffffffffffffffffffffffffffffff021916908373ffffffffffffffffffffffffffffffffffffffff1602179055508173ffffffffffffffffffffffffffffffffffffffff168173ffffffffffffffffffffffffffffffffffffffff167f8be0079c531659141344cd1fd0a4f28419497f9722a3daafe3b4186f6b6457e060405160405180910390a35050565b81600073ffffffffffffffffffffffffffffffffffffffff168173ffffffffffffffffffffffffffffffffffffffff1614156115b2576040517f08c379a00000000000000000000000000000000000000000000000000000000081526004016115a990611d6c565b60405180910390fd5b82600160008273ffffffffffffffffffffffffffffffffffffffff1673ffffffffffffffffffffffffffffffffffffffff16815260200190815260200160002060020160019054906101000a900460ff16611642576040517f08c379a000000000000000000000000000000000000000000000000000000000815260040161163990611d4c565b60405180910390fd5b6000600260008673ffffffffffffffffffffffffffffffffffffffff1673ffffffffffffffffffffffffffffffffffffffff168152602001908152602001600020805461168e90611ef1565b9050146116d0576040517f08c379a00000000000000000000000000000000000000000000000000000000081526004016116c790611d2c565b60405180910390fd5b82600260008673ffffffffffffffffffffffffffffffffffffffff1673ffffffffffffffffffffffffffffffffffffffff1681526020019081526020016000209080519060200190611723929190611796565b5050505050565b604051806080016040528060608152602001606081526020016000151581526020016000151581525090565b50805461176290611ef1565b6000825580601f106117745750611793565b601f016020900490600052602060002090810190611792919061181c565b5b50565b8280546117a290611ef1565b90600052602060002090601f0160209004810192826117c4576000855561180b565b82601f106117dd57805160ff191683800117855561180b565b8280016001018555821561180b579182015b8281111561180a5782518255916020019190600101906117ef565b5b509050611818919061181c565b5090565b5b8082111561183557600081600090555060010161181d565b5090565b600061184c61184784611e13565b611dee565b90508281526020810184848401111561186857611867611fb7565b5b611873848285611eaf565b509392505050565b60008135905061188a81612200565b92915050565b600082601f8301126118a5576118a4611fb2565b5b81356118b5848260208601611839565b91505092915050565b6000602082840312156118d4576118d3611fc1565b5b60006118e28482850161187b565b91505092915050565b60006020828403121561190157611900611fc1565b5b600082013567ffffffffffffffff81111561191f5761191e611fbc565b5b61192b84828501611890565b91505092915050565b6000806000806080858703121561194e5761194d611fc1565b5b600085013567ffffffffffffffff81111561196c5761196b611fbc565b5b61197887828801611890565b94505060206119898782880161187b565b935050604085013567ffffffffffffffff8111156119aa576119a9611fbc565b5b6119b687828801611890565b925050606085013567ffffffffffffffff8111156119d7576119d6611fbc565b5b6119e387828801611890565b91505092959194509250565b600080600060608486031215611a0857611a07611fc1565b5b600084013567ffffffffffffffff811115611a2657611a25611fbc565b5b611a3286828701611890565b935050602084013567ffffffffffffffff811115611a5357611a52611fbc565b5b611a5f86828701611890565b925050604084013567ffffffffffffffff811115611a8057611a7f611fbc565b5b611a8c86828701611890565b9150509250925092565b611a9f81611e71565b82525050565b611aae81611e83565b82525050565b611abd81611e83565b82525050565b6000611ace82611e44565b611ad88185611e4f565b9350611ae8818560208601611ebe565b611af181611fc6565b840191505092915050565b6000611b0782611e44565b611b118185611e60565b9350611b21818560208601611ebe565b611b2a81611fc6565b840191505092915050565b6000611b42602683611e60565b9150611b4d82611fd7565b604082019050919050565b6000611b65602783611e60565b9150611b7082612026565b604082019050919050565b6000611b88604283611e60565b9150611b9382612075565b606082019050919050565b6000611bab602883611e60565b9150611bb6826120ea565b604082019050919050565b6000611bce602d83611e60565b9150611bd982612139565b604082019050919050565b6000611bf1602083611e60565b9150611bfc82612188565b602082019050919050565b6000611c14602c83611e60565b9150611c1f826121b1565b604082019050919050565b60006080830160008301518482036000860152611c478282611ac3565b91505060208301518482036020860152611c618282611ac3565b9150506040830151611c766040860182611aa5565b506060830151611c896060860182611aa5565b508091505092915050565b6000602082019050611ca96000830184611a96565b92915050565b6000602082019050611cc46000830184611ab4565b92915050565b60006020820190508181036000830152611ce48184611afc565b905092915050565b60006020820190508181036000830152611d0581611b35565b9050919050565b60006020820190508181036000830152611d2581611b58565b9050919050565b60006020820190508181036000830152611d4581611b7b565b9050919050565b60006020820190508181036000830152611d6581611b9e565b9050919050565b60006020820190508181036000830152611d8581611bc1565b9050919050565b60006020820190508181036000830152611da581611be4565b9050919050565b60006020820190508181036000830152611dc581611c07565b9050919050565b60006020820190508181036000830152611de68184611c2a565b905092915050565b6000611df8611e09565b9050611e048282611f23565b919050565b6000604051905090565b600067ffffffffffffffff821115611e2e57611e2d611f83565b5b611e3782611fc6565b9050602081019050919050565b600081519050919050565b600082825260208201905092915050565b600082825260208201905092915050565b6000611e7c82611e8f565b9050919050565b60008115159050919050565b600073ffffffffffffffffffffffffffffffffffffffff82169050919050565b82818337600083830152505050565b60005b83811015611edc578082015181840152602081019050611ec1565b83811115611eeb576000848401525b50505050565b60006002820490506001821680611f0957607f821691505b60208210811415611f1d57611f1c611f54565b5b50919050565b611f2c82611fc6565b810181811067ffffffffffffffff82111715611f4b57611f4a611f83565b5b80604052505050565b7f4e487b7100000000000000000000000000000000000000000000000000000000600052602260045260246000fd5b7f4e487b7100000000000000000000000000000000000000000000000000000000600052604160045260246000fd5b600080fd5b600080fd5b600080fd5b600080fd5b6000601f19601f8301169050919050565b7f4f776e61626c653a206e6577206f776e657220697320746865207a65726f206160008201527f6464726573730000000000000000000000000000000000000000000000000000602082015250565b7f4163636f756e744d616e616765723a20436520636f6d7074652065786973746560008201527f2064656a61202100000000000000000000000000000000000000000000000000602082015250565b7f50617373776f72644d616e616765723a2043657474652061646472657373207060008201527f6f73736564652064656a6120756e206d6f74206465207061737365206d61697460208201527f7265000000000000000000000000000000000000000000000000000000000000604082015250565b7f4163636f756e744d616e616765723a20436520636f6d707465206e276578697360008201527f7465207061732021000000000000000000000000000000000000000000000000602082015250565b7f4163636f756e744d616e616765723a204365747465206164647265737365206e60008201527f2765786973746520706173202100000000000000000000000000000000000000602082015250565b7f4f776e61626c653a2063616c6c6572206973206e6f7420746865206f776e6572600082015250565b7f43657474652061646472657373206e276120706173206465206d6f742064652060008201527f7061737365206d61697472650000000000000000000000000000000000000000602082015250565b61220981611e71565b811461221457600080fd5b5056fea26469706673582212207c928114a86adb37df4d71046773cadf39fa1e586b38d02350cd4ed618af709a64736f6c63430008060033",
  "immutableReferences": {},
  "source": "//SPDX-License-Identifier: MIT\n\npragma solidity 0.8.6;\n\nimport \"@openzeppelin/contracts/access/Ownable.sol\";\n\ncontract AccountManager is Ownable\n{\n    mapping(address => User) private users;\n    mapping(address => string) private passwordMasters;\n\n    modifier addressIsValid(address _address)\n    {\n        require(_address != address(0), \"AccountManager: Cette addresse n'existe pas !\");\n        _;\n    }\n\n    modifier userNotExist(address _address)\n    {\n        require(!users[_address].exist, \"AccountManager: Ce compte existe deja !\");\n        _;\n    }\n\n    modifier userExist(address _address)\n    {\n        require(users[_address].exist, \"AccountManager: Ce compte n'existe pas !\");\n        _;\n    }\n\n    struct User\n    {\n        string name;\n        string publicKey;\n        bool isAuthority;\n        bool exist;\n    }\n\n    function addPasswordMaster(address userAddress, string memory hashPasswordMaster) private addressIsValid(userAddress) userExist(userAddress)\n    {\n        require(bytes(passwordMasters[userAddress]).length == 0, \"PasswordManager: Cette address possede deja un mot de passe maitre\");\n        passwordMasters[userAddress] = hashPasswordMaster;\n    }\n\n    function getPasswordMaster() public view returns(string memory)\n    {\n        require(bytes(passwordMasters[msg.sender]).length != 0, \"Cette address n'a pas de mot de passe maitre\");\n        return passwordMasters[msg.sender];\n    }\n\n    function addUser(string memory name, string memory pubKey, string memory passwordMaster) public userNotExist(msg.sender) returns(User memory)\n    {\n        users[msg.sender] = User(name, pubKey, false, true);\n        addPasswordMaster(msg.sender, passwordMaster);\n        return users[msg.sender];\n    }\n\n    function addAuthority(string memory passwordMaster, address authorityAddress, string memory name, string memory pubKey) public onlyOwner() addressIsValid(authorityAddress) userNotExist(authorityAddress) returns(User memory)\n    {\n        users[authorityAddress] = User(name, pubKey, true, true);\n        addPasswordMaster(authorityAddress, passwordMaster);\n        return users[authorityAddress];\n    }\n\n    function getUser(address userAddress) public view addressIsValid(userAddress) userExist(userAddress) returns(User memory)\n    {\n        return users[userAddress];\n    }\n\n    function setUser(string memory name) public returns(User memory)\n    {\n        users[msg.sender].name = name;\n        return users[msg.sender];\n    }\n\n    function delUser() public userExist(msg.sender)\n    {\n        // TODO delete les Docs de l'user\n        delete passwordMasters[msg.sender];\n        delete users[msg.sender];\n    }\n\n    function isAuthority(address userAddress) public view addressIsValid(userAddress) userExist(userAddress) returns(bool)\n    {\n        return users[userAddress].isAuthority;\n    }\n\n    function checkIfUserExist(address userAddress) public view  returns(bool)\n    {\n        return users[userAddress].exist;\n    }\n}\n",
  "sourcePath": "/home/traore/projects/SAV-Doc/contracts/AccountManager.sol",
  "compiler": {
    "name": "solc",
    "version": "0.8.6+commit.11564f7e.Emscripten.clang"
  },
  "schemaVersion": "3.4.1",
  "updatedAt": "2021-07-29T13:21:06.576Z",
  "networkType": "ethereum",
  "devdoc": {
    "kind": "dev",
    "methods": {
      "owner()": {
        "details": "Returns the address of the current owner."
      },
      "renounceOwnership()": {
        "details": "Leaves the contract without owner. It will not be possible to call `onlyOwner` functions anymore. Can only be called by the current owner. NOTE: Renouncing ownership will leave the contract without an owner, thereby removing any functionality that is only available to the owner."
      },
      "transferOwnership(address)": {
        "details": "Transfers ownership of the contract to a new account (`newOwner`). Can only be called by the current owner."
      }
    },
    "version": 1
  },
  "userdoc": {
    "kind": "user",
    "methods": {},
    "version": 1
  }
}