{
  "contractName": "AccountManager",
  "abi": [
    {
      "anonymous": false,
      "inputs": [
        {
          "indexed": true,
          "internalType": "address",
          "name": "previousOwner",
          "type": "address"
        },
        {
          "indexed": true,
          "internalType": "address",
          "name": "newOwner",
          "type": "address"
        }
      ],
      "name": "OwnershipTransferred",
      "type": "event"
    },
    {
      "inputs": [],
      "name": "owner",
      "outputs": [
        {
          "internalType": "address",
          "name": "",
          "type": "address"
        }
      ],
      "stateMutability": "view",
      "type": "function",
      "constant": true
    },
    {
      "inputs": [],
      "name": "renounceOwnership",
      "outputs": [],
      "stateMutability": "nonpayable",
      "type": "function"
    },
    {
      "inputs": [
        {
          "internalType": "address",
          "name": "newOwner",
          "type": "address"
        }
      ],
      "name": "transferOwnership",
      "outputs": [],
      "stateMutability": "nonpayable",
      "type": "function"
    },
    {
      "inputs": [
        {
          "internalType": "address",
          "name": "addressUser",
          "type": "address"
        }
      ],
      "name": "getPasswordMaster",
      "outputs": [
        {
          "internalType": "string",
          "name": "",
          "type": "string"
        }
      ],
      "stateMutability": "view",
      "type": "function",
      "constant": true
    },
    {
      "inputs": [
        {
          "internalType": "address",
          "name": "userAddress",
          "type": "address"
        },
        {
          "internalType": "string",
          "name": "name",
          "type": "string"
        },
        {
          "internalType": "string",
          "name": "pubKey",
          "type": "string"
        },
        {
          "internalType": "string",
          "name": "passwordMaster",
          "type": "string"
        }
      ],
      "name": "addUser",
      "outputs": [
        {
          "components": [
            {
              "internalType": "string",
              "name": "name",
              "type": "string"
            },
            {
              "internalType": "string",
              "name": "publicKey",
              "type": "string"
            },
            {
              "internalType": "bool",
              "name": "isAuthority",
              "type": "bool"
            },
            {
              "internalType": "bool",
              "name": "exist",
              "type": "bool"
            }
          ],
          "internalType": "struct SaveDocStruct.User",
          "name": "",
          "type": "tuple"
        }
      ],
      "stateMutability": "nonpayable",
      "type": "function"
    },
    {
      "inputs": [
        {
          "internalType": "address",
          "name": "authorityAddress",
          "type": "address"
        },
        {
          "internalType": "string",
          "name": "name",
          "type": "string"
        },
        {
          "internalType": "string",
          "name": "pubKey",
          "type": "string"
        },
        {
          "internalType": "string",
          "name": "passwordMaster",
          "type": "string"
        }
      ],
      "name": "addAuthority",
      "outputs": [
        {
          "components": [
            {
              "internalType": "string",
              "name": "name",
              "type": "string"
            },
            {
              "internalType": "string",
              "name": "publicKey",
              "type": "string"
            },
            {
              "internalType": "bool",
              "name": "isAuthority",
              "type": "bool"
            },
            {
              "internalType": "bool",
              "name": "exist",
              "type": "bool"
            }
          ],
          "internalType": "struct SaveDocStruct.User",
          "name": "",
          "type": "tuple"
        }
      ],
      "stateMutability": "nonpayable",
      "type": "function"
    },
    {
      "inputs": [
        {
          "internalType": "address",
          "name": "userAddress",
          "type": "address"
        }
      ],
      "name": "getUser",
      "outputs": [
        {
          "components": [
            {
              "internalType": "string",
              "name": "name",
              "type": "string"
            },
            {
              "internalType": "string",
              "name": "publicKey",
              "type": "string"
            },
            {
              "internalType": "bool",
              "name": "isAuthority",
              "type": "bool"
            },
            {
              "internalType": "bool",
              "name": "exist",
              "type": "bool"
            }
          ],
          "internalType": "struct SaveDocStruct.User",
          "name": "",
          "type": "tuple"
        }
      ],
      "stateMutability": "view",
      "type": "function",
      "constant": true
    },
    {
      "inputs": [
        {
          "internalType": "address",
          "name": "addressUser",
          "type": "address"
        },
        {
          "internalType": "string",
          "name": "name",
          "type": "string"
        }
      ],
      "name": "setUser",
      "outputs": [
        {
          "components": [
            {
              "internalType": "string",
              "name": "name",
              "type": "string"
            },
            {
              "internalType": "string",
              "name": "publicKey",
              "type": "string"
            },
            {
              "internalType": "bool",
              "name": "isAuthority",
              "type": "bool"
            },
            {
              "internalType": "bool",
              "name": "exist",
              "type": "bool"
            }
          ],
          "internalType": "struct SaveDocStruct.User",
          "name": "",
          "type": "tuple"
        }
      ],
      "stateMutability": "nonpayable",
      "type": "function"
    },
    {
      "inputs": [
        {
          "internalType": "address",
          "name": "addressUser",
          "type": "address"
        }
      ],
      "name": "delUser",
      "outputs": [],
      "stateMutability": "nonpayable",
      "type": "function"
    },
    {
      "inputs": [
        {
          "internalType": "address",
          "name": "userAddress",
          "type": "address"
        }
      ],
      "name": "isAuthority",
      "outputs": [
        {
          "internalType": "bool",
          "name": "",
          "type": "bool"
        }
      ],
      "stateMutability": "view",
      "type": "function",
      "constant": true
    },
    {
      "inputs": [
        {
          "internalType": "address",
          "name": "userAddress",
          "type": "address"
        }
      ],
      "name": "checkIfUserExist",
      "outputs": [
        {
          "internalType": "bool",
          "name": "",
          "type": "bool"
        }
      ],
      "stateMutability": "view",
      "type": "function",
      "constant": true
    }
  ],
  "bytecode": "0x60806040523480156200001157600080fd5b5062000032620000266200003860201b60201c565b6200004060201b60201c565b62000104565b600033905090565b60008060009054906101000a900473ffffffffffffffffffffffffffffffffffffffff169050816000806101000a81548173ffffffffffffffffffffffffffffffffffffffff021916908373ffffffffffffffffffffffffffffffffffffffff1602179055508173ffffffffffffffffffffffffffffffffffffffff168173ffffffffffffffffffffffffffffffffffffffff167f8be0079c531659141344cd1fd0a4f28419497f9722a3daafe3b4186f6b6457e060405160405180910390a35050565b6124df80620001146000396000f3fe608060405234801561001057600080fd5b50600436106100a95760003560e01c80638da5cb5b116100715780638da5cb5b14610178578063a1abffee14610196578063c6361c22146101c6578063d1d6bc9c146101f6578063f2fde38b14610226578063f849f37914610242576100a9565b80632330f247146100ae5780633f1a51b8146100de5780636e2db3b01461010e5780636f77926b1461013e578063715018a61461016e575b600080fd5b6100c860048036038101906100c39190611be4565b61025e565b6040516100d59190611f41565b60405180910390f35b6100f860048036038101906100f39190611c11565b6103ba565b604051610105919061205e565b60405180910390f35b61012860048036038101906101239190611be4565b6106d2565b6040516101359190611f5c565b60405180910390f35b61015860048036038101906101539190611be4565b6108ae565b604051610165919061205e565b60405180910390f35b610176610be0565b005b610180610c68565b60405161018d9190611f26565b60405180910390f35b6101b060048036038101906101ab9190611be4565b610c91565b6040516101bd9190611f41565b60405180910390f35b6101e060048036038101906101db9190611c6d565b610cea565b6040516101ed919061205e565b60405180910390f35b610210600480360381019061020b9190611c6d565b61109b565b60405161021d919061205e565b60405180910390f35b610240600480360381019061023b9190611be4565b6114be565b005b61025c60048036038101906102579190611be4565b6115b6565b005b600081600073ffffffffffffffffffffffffffffffffffffffff168173ffffffffffffffffffffffffffffffffffffffff1614156102d1576040517f08c379a00000000000000000000000000000000000000000000000000000000081526004016102c890611ffe565b60405180910390fd5b82600160008273ffffffffffffffffffffffffffffffffffffffff1673ffffffffffffffffffffffffffffffffffffffff16815260200190815260200160002060020160019054906101000a900460ff16610361576040517f08c379a000000000000000000000000000000000000000000000000000000000815260040161035890611fde565b60405180910390fd5b600160008573ffffffffffffffffffffffffffffffffffffffff1673ffffffffffffffffffffffffffffffffffffffff16815260200190815260200160002060020160009054906101000a900460ff1692505050919050565b6103c2611a50565b6103ca61179b565b73ffffffffffffffffffffffffffffffffffffffff166103e8610c68565b73ffffffffffffffffffffffffffffffffffffffff161461043e576040517f08c379a00000000000000000000000000000000000000000000000000000000081526004016104359061201e565b60405180910390fd5b82600160008273ffffffffffffffffffffffffffffffffffffffff1673ffffffffffffffffffffffffffffffffffffffff16815260200190815260200160002060020160019054906101000a900460ff166104ce576040517f08c379a00000000000000000000000000000000000000000000000000000000081526004016104c590611fde565b60405180910390fd5b82600160008673ffffffffffffffffffffffffffffffffffffffff1673ffffffffffffffffffffffffffffffffffffffff1681526020019081526020016000206000019080519060200190610524929190611a7c565b50600160008573ffffffffffffffffffffffffffffffffffffffff1673ffffffffffffffffffffffffffffffffffffffff16815260200190815260200160002060405180608001604052908160008201805461057f90612183565b80601f01602080910402602001604051908101604052809291908181526020018280546105ab90612183565b80156105f85780601f106105cd576101008083540402835291602001916105f8565b820191906000526020600020905b8154815290600101906020018083116105db57829003601f168201915b5050505050815260200160018201805461061190612183565b80601f016020809104026020016040519081016040528092919081815260200182805461063d90612183565b801561068a5780601f1061065f5761010080835404028352916020019161068a565b820191906000526020600020905b81548152906001019060200180831161066d57829003601f168201915b505050505081526020016002820160009054906101000a900460ff161515151581526020016002820160019054906101000a900460ff16151515158152505091505092915050565b60606106dc61179b565b73ffffffffffffffffffffffffffffffffffffffff166106fa610c68565b73ffffffffffffffffffffffffffffffffffffffff1614610750576040517f08c379a00000000000000000000000000000000000000000000000000000000081526004016107479061201e565b60405180910390fd5b6000600260008473ffffffffffffffffffffffffffffffffffffffff1673ffffffffffffffffffffffffffffffffffffffff168152602001908152602001600020805461079c90612183565b905014156107df576040517f08c379a00000000000000000000000000000000000000000000000000000000081526004016107d69061203e565b60405180910390fd5b600260008373ffffffffffffffffffffffffffffffffffffffff1673ffffffffffffffffffffffffffffffffffffffff168152602001908152602001600020805461082990612183565b80601f016020809104026020016040519081016040528092919081815260200182805461085590612183565b80156108a25780601f10610877576101008083540402835291602001916108a2565b820191906000526020600020905b81548152906001019060200180831161088557829003601f168201915b50505050509050919050565b6108b6611a50565b81600073ffffffffffffffffffffffffffffffffffffffff168173ffffffffffffffffffffffffffffffffffffffff161415610927576040517f08c379a000000000000000000000000000000000000000000000000000000000815260040161091e90611ffe565b60405180910390fd5b61092f61179b565b73ffffffffffffffffffffffffffffffffffffffff1661094d610c68565b73ffffffffffffffffffffffffffffffffffffffff16146109a3576040517f08c379a000000000000000000000000000000000000000000000000000000000815260040161099a9061201e565b60405180910390fd5b82600160008273ffffffffffffffffffffffffffffffffffffffff1673ffffffffffffffffffffffffffffffffffffffff16815260200190815260200160002060020160019054906101000a900460ff16610a33576040517f08c379a0000000000000000000000000000000000000000000000000000000008152600401610a2a90611fde565b60405180910390fd5b600160008573ffffffffffffffffffffffffffffffffffffffff1673ffffffffffffffffffffffffffffffffffffffff168152602001908152602001600020604051806080016040529081600082018054610a8d90612183565b80601f0160208091040260200160405190810160405280929190818152602001828054610ab990612183565b8015610b065780601f10610adb57610100808354040283529160200191610b06565b820191906000526020600020905b815481529060010190602001808311610ae957829003601f168201915b50505050508152602001600182018054610b1f90612183565b80601f0160208091040260200160405190810160405280929190818152602001828054610b4b90612183565b8015610b985780601f10610b6d57610100808354040283529160200191610b98565b820191906000526020600020905b815481529060010190602001808311610b7b57829003601f168201915b505050505081526020016002820160009054906101000a900460ff161515151581526020016002820160019054906101000a900460ff16151515158152505092505050919050565b610be861179b565b73ffffffffffffffffffffffffffffffffffffffff16610c06610c68565b73ffffffffffffffffffffffffffffffffffffffff1614610c5c576040517f08c379a0000000000000000000000000000000000000000000000000000000008152600401610c539061201e565b60405180910390fd5b610c6660006117a3565b565b60008060009054906101000a900473ffffffffffffffffffffffffffffffffffffffff16905090565b6000600160008373ffffffffffffffffffffffffffffffffffffffff1673ffffffffffffffffffffffffffffffffffffffff16815260200190815260200160002060020160019054906101000a900460ff169050919050565b610cf2611a50565b610cfa61179b565b73ffffffffffffffffffffffffffffffffffffffff16610d18610c68565b73ffffffffffffffffffffffffffffffffffffffff1614610d6e576040517f08c379a0000000000000000000000000000000000000000000000000000000008152600401610d659061201e565b60405180910390fd5b84600160008273ffffffffffffffffffffffffffffffffffffffff1673ffffffffffffffffffffffffffffffffffffffff16815260200190815260200160002060020160019054906101000a900460ff1615610dff576040517f08c379a0000000000000000000000000000000000000000000000000000000008152600401610df690611f9e565b60405180910390fd5b604051806080016040528086815260200185815260200160001515815260200160011515815250600160008873ffffffffffffffffffffffffffffffffffffffff1673ffffffffffffffffffffffffffffffffffffffff1681526020019081526020016000206000820151816000019080519060200190610e81929190611a7c565b506020820151816001019080519060200190610e9e929190611a7c565b5060408201518160020160006101000a81548160ff02191690831515021790555060608201518160020160016101000a81548160ff021916908315150217905550905050610eec8684611867565b600160008773ffffffffffffffffffffffffffffffffffffffff1673ffffffffffffffffffffffffffffffffffffffff168152602001908152602001600020604051806080016040529081600082018054610f4690612183565b80601f0160208091040260200160405190810160405280929190818152602001828054610f7290612183565b8015610fbf5780601f10610f9457610100808354040283529160200191610fbf565b820191906000526020600020905b815481529060010190602001808311610fa257829003601f168201915b50505050508152602001600182018054610fd890612183565b80601f016020809104026020016040519081016040528092919081815260200182805461100490612183565b80156110515780601f1061102657610100808354040283529160200191611051565b820191906000526020600020905b81548152906001019060200180831161103457829003601f168201915b505050505081526020016002820160009054906101000a900460ff161515151581526020016002820160019054906101000a900460ff161515151581525050915050949350505050565b6110a3611a50565b6110ab61179b565b73ffffffffffffffffffffffffffffffffffffffff166110c9610c68565b73ffffffffffffffffffffffffffffffffffffffff161461111f576040517f08c379a00000000000000000000000000000000000000000000000000000000081526004016111169061201e565b60405180910390fd5b84600073ffffffffffffffffffffffffffffffffffffffff168173ffffffffffffffffffffffffffffffffffffffff161415611190576040517f08c379a000000000000000000000000000000000000000000000000000000000815260040161118790611ffe565b60405180910390fd5b85600160008273ffffffffffffffffffffffffffffffffffffffff1673ffffffffffffffffffffffffffffffffffffffff16815260200190815260200160002060020160019054906101000a900460ff1615611221576040517f08c379a000000000000000000000000000000000000000000000000000000000815260040161121890611f9e565b60405180910390fd5b604051806080016040528087815260200186815260200160011515815260200160011515815250600160008973ffffffffffffffffffffffffffffffffffffffff1673ffffffffffffffffffffffffffffffffffffffff16815260200190815260200160002060008201518160000190805190602001906112a3929190611a7c565b5060208201518160010190805190602001906112c0929190611a7c565b5060408201518160020160006101000a81548160ff02191690831515021790555060608201518160020160016101000a81548160ff02191690831515021790555090505061130e8785611867565b600160008873ffffffffffffffffffffffffffffffffffffffff1673ffffffffffffffffffffffffffffffffffffffff16815260200190815260200160002060405180608001604052908160008201805461136890612183565b80601f016020809104026020016040519081016040528092919081815260200182805461139490612183565b80156113e15780601f106113b6576101008083540402835291602001916113e1565b820191906000526020600020905b8154815290600101906020018083116113c457829003601f168201915b505050505081526020016001820180546113fa90612183565b80601f016020809104026020016040519081016040528092919081815260200182805461142690612183565b80156114735780601f1061144857610100808354040283529160200191611473565b820191906000526020600020905b81548152906001019060200180831161145657829003601f168201915b505050505081526020016002820160009054906101000a900460ff161515151581526020016002820160019054906101000a900460ff16151515158152505092505050949350505050565b6114c661179b565b73ffffffffffffffffffffffffffffffffffffffff166114e4610c68565b73ffffffffffffffffffffffffffffffffffffffff161461153a576040517f08c379a00000000000000000000000000000000000000000000000000000000081526004016115319061201e565b60405180910390fd5b600073ffffffffffffffffffffffffffffffffffffffff168173ffffffffffffffffffffffffffffffffffffffff1614156115aa576040517f08c379a00000000000000000000000000000000000000000000000000000000081526004016115a190611f7e565b60405180910390fd5b6115b3816117a3565b50565b6115be61179b565b73ffffffffffffffffffffffffffffffffffffffff166115dc610c68565b73ffffffffffffffffffffffffffffffffffffffff1614611632576040517f08c379a00000000000000000000000000000000000000000000000000000000081526004016116299061201e565b60405180910390fd5b80600160008273ffffffffffffffffffffffffffffffffffffffff1673ffffffffffffffffffffffffffffffffffffffff16815260200190815260200160002060020160019054906101000a900460ff166116c2576040517f08c379a00000000000000000000000000000000000000000000000000000000081526004016116b990611fde565b60405180910390fd5b600260008373ffffffffffffffffffffffffffffffffffffffff1673ffffffffffffffffffffffffffffffffffffffff168152602001908152602001600020600061170d9190611b02565b600160008373ffffffffffffffffffffffffffffffffffffffff1673ffffffffffffffffffffffffffffffffffffffff1681526020019081526020016000206000808201600061175d9190611b02565b60018201600061176d9190611b02565b6002820160006101000a81549060ff02191690556002820160016101000a81549060ff021916905550505050565b600033905090565b60008060009054906101000a900473ffffffffffffffffffffffffffffffffffffffff169050816000806101000a81548173ffffffffffffffffffffffffffffffffffffffff021916908373ffffffffffffffffffffffffffffffffffffffff1602179055508173ffffffffffffffffffffffffffffffffffffffff168173ffffffffffffffffffffffffffffffffffffffff167f8be0079c531659141344cd1fd0a4f28419497f9722a3daafe3b4186f6b6457e060405160405180910390a35050565b81600073ffffffffffffffffffffffffffffffffffffffff168173ffffffffffffffffffffffffffffffffffffffff1614156118d8576040517f08c379a00000000000000000000000000000000000000000000000000000000081526004016118cf90611ffe565b60405180910390fd5b82600160008273ffffffffffffffffffffffffffffffffffffffff1673ffffffffffffffffffffffffffffffffffffffff16815260200190815260200160002060020160019054906101000a900460ff16611968576040517f08c379a000000000000000000000000000000000000000000000000000000000815260040161195f90611fde565b60405180910390fd5b6000600260008673ffffffffffffffffffffffffffffffffffffffff1673ffffffffffffffffffffffffffffffffffffffff16815260200190815260200160002080546119b490612183565b9050146119f6576040517f08c379a00000000000000000000000000000000000000000000000000000000081526004016119ed90611fbe565b60405180910390fd5b82600260008673ffffffffffffffffffffffffffffffffffffffff1673ffffffffffffffffffffffffffffffffffffffff1681526020019081526020016000209080519060200190611a49929190611a7c565b5050505050565b604051806080016040528060608152602001606081526020016000151581526020016000151581525090565b828054611a8890612183565b90600052602060002090601f016020900481019282611aaa5760008555611af1565b82601f10611ac357805160ff1916838001178555611af1565b82800160010185558215611af1579182015b82811115611af0578251825591602001919060010190611ad5565b5b509050611afe9190611b42565b5090565b508054611b0e90612183565b6000825580601f10611b205750611b3f565b601f016020900490600052602060002090810190611b3e9190611b42565b5b50565b5b80821115611b5b576000816000905550600101611b43565b5090565b6000611b72611b6d846120a5565b612080565b905082815260208101848484011115611b8e57611b8d612249565b5b611b99848285612141565b509392505050565b600081359050611bb081612492565b92915050565b600082601f830112611bcb57611bca612244565b5b8135611bdb848260208601611b5f565b91505092915050565b600060208284031215611bfa57611bf9612253565b5b6000611c0884828501611ba1565b91505092915050565b60008060408385031215611c2857611c27612253565b5b6000611c3685828601611ba1565b925050602083013567ffffffffffffffff811115611c5757611c5661224e565b5b611c6385828601611bb6565b9150509250929050565b60008060008060808587031215611c8757611c86612253565b5b6000611c9587828801611ba1565b945050602085013567ffffffffffffffff811115611cb657611cb561224e565b5b611cc287828801611bb6565b935050604085013567ffffffffffffffff811115611ce357611ce261224e565b5b611cef87828801611bb6565b925050606085013567ffffffffffffffff811115611d1057611d0f61224e565b5b611d1c87828801611bb6565b91505092959194509250565b611d3181612103565b82525050565b611d4081612115565b82525050565b611d4f81612115565b82525050565b6000611d60826120d6565b611d6a81856120e1565b9350611d7a818560208601612150565b611d8381612258565b840191505092915050565b6000611d99826120d6565b611da381856120f2565b9350611db3818560208601612150565b611dbc81612258565b840191505092915050565b6000611dd46026836120f2565b9150611ddf82612269565b604082019050919050565b6000611df76027836120f2565b9150611e02826122b8565b604082019050919050565b6000611e1a6042836120f2565b9150611e2582612307565b606082019050919050565b6000611e3d6028836120f2565b9150611e488261237c565b604082019050919050565b6000611e60602d836120f2565b9150611e6b826123cb565b604082019050919050565b6000611e836020836120f2565b9150611e8e8261241a565b602082019050919050565b6000611ea6602c836120f2565b9150611eb182612443565b604082019050919050565b60006080830160008301518482036000860152611ed98282611d55565b91505060208301518482036020860152611ef38282611d55565b9150506040830151611f086040860182611d37565b506060830151611f1b6060860182611d37565b508091505092915050565b6000602082019050611f3b6000830184611d28565b92915050565b6000602082019050611f566000830184611d46565b92915050565b60006020820190508181036000830152611f768184611d8e565b905092915050565b60006020820190508181036000830152611f9781611dc7565b9050919050565b60006020820190508181036000830152611fb781611dea565b9050919050565b60006020820190508181036000830152611fd781611e0d565b9050919050565b60006020820190508181036000830152611ff781611e30565b9050919050565b6000602082019050818103600083015261201781611e53565b9050919050565b6000602082019050818103600083015261203781611e76565b9050919050565b6000602082019050818103600083015261205781611e99565b9050919050565b600060208201905081810360008301526120788184611ebc565b905092915050565b600061208a61209b565b905061209682826121b5565b919050565b6000604051905090565b600067ffffffffffffffff8211156120c0576120bf612215565b5b6120c982612258565b9050602081019050919050565b600081519050919050565b600082825260208201905092915050565b600082825260208201905092915050565b600061210e82612121565b9050919050565b60008115159050919050565b600073ffffffffffffffffffffffffffffffffffffffff82169050919050565b82818337600083830152505050565b60005b8381101561216e578082015181840152602081019050612153565b8381111561217d576000848401525b50505050565b6000600282049050600182168061219b57607f821691505b602082108114156121af576121ae6121e6565b5b50919050565b6121be82612258565b810181811067ffffffffffffffff821117156121dd576121dc612215565b5b80604052505050565b7f4e487b7100000000000000000000000000000000000000000000000000000000600052602260045260246000fd5b7f4e487b7100000000000000000000000000000000000000000000000000000000600052604160045260246000fd5b600080fd5b600080fd5b600080fd5b600080fd5b6000601f19601f8301169050919050565b7f4f776e61626c653a206e6577206f776e657220697320746865207a65726f206160008201527f6464726573730000000000000000000000000000000000000000000000000000602082015250565b7f4163636f756e744d616e616765723a20436520636f6d7074652065786973746560008201527f2064656a61202100000000000000000000000000000000000000000000000000602082015250565b7f50617373776f72644d616e616765723a2043657474652061646472657373207060008201527f6f73736564652064656a6120756e206d6f74206465207061737365206d61697460208201527f7265000000000000000000000000000000000000000000000000000000000000604082015250565b7f4163636f756e744d616e616765723a20436520636f6d707465206e276578697360008201527f7465207061732021000000000000000000000000000000000000000000000000602082015250565b7f4163636f756e744d616e616765723a204365747465206164647265737365206e60008201527f2765786973746520706173202100000000000000000000000000000000000000602082015250565b7f4f776e61626c653a2063616c6c6572206973206e6f7420746865206f776e6572600082015250565b7f43657474652061646472657373206e276120706173206465206d6f742064652060008201527f7061737365206d61697472650000000000000000000000000000000000000000602082015250565b61249b81612103565b81146124a657600080fd5b5056fea2646970667358221220c115a58c9e44440022325ab551de6d871b373f7f84c8b35e3c7038413009420964736f6c63430008060033",
  "immutableReferences": {},
  "source": "// SPDX-License-Identifier: MIT\npragma solidity 0.8.6;\n\nimport \"@openzeppelin/contracts/access/Ownable.sol\";\nimport \"./SaveDocStruct.sol\";\n\n/**\n * @title Account manager for SAV Doc contract\n * @dev All functions are called by the SaveDoc contract\n */\ncontract AccountManager is Ownable, SaveDocStruct\n{\n    mapping(address => User) private users;\n    mapping(address => string) private passwordMasters;\n\n    /**\n     * @dev modifier to check if `_address` is valid (!== address(0))\n     * @param _address address of user\n     */\n    modifier addressIsValid(address _address)\n    {\n        require(_address != address(0), \"AccountManager: Cette addresse n'existe pas !\");\n        _;\n    }\n\n    /**\n     * @dev modifier to check if `_address` is not registered\n     * @param _address address of user\n     */\n    modifier userNotExist(address _address)\n    {\n        require(!users[_address].exist, \"AccountManager: Ce compte existe deja !\");\n        _;\n    }\n\n    /**\n     * @dev modifier to check if `_address` is registered\n     * @param _address address of user\n     */\n    modifier userExist(address _address)\n    {\n        require(users[_address].exist, \"AccountManager: Ce compte n'existe pas !\");\n        _;\n    }\n\n    /**\n     * @dev Set the user's master password\n     * @param userAddress address of user\n     * @param hashPasswordMaster password master hashed\n     */\n    function addPasswordMaster(address userAddress, string memory hashPasswordMaster) private addressIsValid(userAddress) userExist(userAddress)\n    {\n        require(bytes(passwordMasters[userAddress]).length == 0, \"PasswordManager: Cette address possede deja un mot de passe maitre\");\n        passwordMasters[userAddress] = hashPasswordMaster;\n    }\n\n    /**\n     * @dev Get the user's master password\n     * @param addressUser owner of password master\n     * @return password master of 'addressUser'\n     */\n    function getPasswordMaster(address addressUser) external view onlyOwner() returns(string memory)\n    {\n        require(bytes(passwordMasters[addressUser]).length != 0, \"Cette address n'a pas de mot de passe maitre\");\n        return passwordMasters[addressUser];\n    }\n\n    /**\n     * @dev Create an user\n     * @param userAddress address of user\n     * @param name username of 'userAddress'\n     * @param pubKey public key of 'userAddress'\n     * @param passwordMaster password master of 'userAddress'\n     * @return created user\n     */\n    function addUser(address userAddress, string memory name, string memory pubKey, string memory passwordMaster) external onlyOwner() userNotExist(userAddress) returns(User memory)\n    {\n        users[userAddress] = User(name, pubKey, false, true);\n        addPasswordMaster(userAddress, passwordMaster);\n        return users[userAddress];\n    }\n\n    /**\n     * @dev Create an authority\n     * @param authorityAddress address of authority\n     * @param name username of 'authorityAddress'\n     * @param pubKey public key of 'authorityAddress'\n     * @param passwordMaster password master of 'authorityAddress'\n     * @return created authority\n     */\n    function addAuthority(address authorityAddress, string memory name, string memory pubKey, string memory passwordMaster) public onlyOwner() addressIsValid(authorityAddress) userNotExist(authorityAddress) returns(User memory)\n    {\n        users[authorityAddress] = User(name, pubKey, true, true);\n        addPasswordMaster(authorityAddress, passwordMaster);\n        return users[authorityAddress];\n    }\n\n    /**\n     * @dev Get User by address\n     * @param userAddress address of user\n     * @return user\n     */\n    function getUser(address userAddress) public view addressIsValid(userAddress) onlyOwner() userExist(userAddress) returns(User memory)\n    {\n        return users[userAddress];\n    }\n\n    /**\n     * @dev Set user's informations (name)\n     * @param addressUser address of user\n     * @param name new username of 'userAddress'\n     * @return updated user\n     */\n    function setUser(address addressUser, string memory name) public onlyOwner() userExist(addressUser) returns(User memory)\n    {\n        users[addressUser].name = name;\n        return users[addressUser];\n    }\n\n    /**\n     * @dev Delete User by address\n     * @param addressUser address of user\n     */\n    function delUser(address addressUser) public onlyOwner() userExist(addressUser)\n    {\n        delete passwordMasters[addressUser];\n        delete users[addressUser];\n    }\n\n    /**\n     * @notice check if user is an authority\n     * @dev check if user is an authority\n     * @param userAddress address of user\n     * @return true if user is an authority\n     */\n    function isAuthority(address userAddress) public view addressIsValid(userAddress) userExist(userAddress) returns(bool)\n    {\n        return users[userAddress].isAuthority;\n    }\n\n    /**\n     * @notice check if user exists\n     * @dev check if user exists\n     * @param userAddress address of user\n     * @return true if user exists\n     */\n    function checkIfUserExist(address userAddress) public view  returns(bool)\n    {\n        return users[userAddress].exist;\n    }\n}\n",
  "sourcePath": "/home/oumar/projects/SAV-Doc/contracts/AccountManager.sol",
  "compiler": {
    "name": "solc",
    "version": "0.8.6+commit.11564f7e.Emscripten.clang"
  },
  "schemaVersion": "3.4.1",
  "updatedAt": "2021-08-09T19:29:38.740Z",
  "networkType": "ethereum",
  "devdoc": {
    "details": "All functions are called by the SaveDoc contract",
    "kind": "dev",
    "methods": {
      "addAuthority(address,string,string,string)": {
        "details": "Create an authority",
        "params": {
          "authorityAddress": "address of authority",
          "name": "username of 'authorityAddress'",
          "passwordMaster": "password master of 'authorityAddress'",
          "pubKey": "public key of 'authorityAddress'"
        },
        "returns": {
          "_0": "created authority"
        }
      },
      "addUser(address,string,string,string)": {
        "details": "Create an user",
        "params": {
          "name": "username of 'userAddress'",
          "passwordMaster": "password master of 'userAddress'",
          "pubKey": "public key of 'userAddress'",
          "userAddress": "address of user"
        },
        "returns": {
          "_0": "created user"
        }
      },
      "checkIfUserExist(address)": {
        "details": "check if user exists",
        "params": {
          "userAddress": "address of user"
        },
        "returns": {
          "_0": "true if user exists"
        }
      },
      "delUser(address)": {
        "details": "Delete User by address",
        "params": {
          "addressUser": "address of user"
        }
      },
      "getPasswordMaster(address)": {
        "details": "Get the user's master password",
        "params": {
          "addressUser": "owner of password master"
        },
        "returns": {
          "_0": "password master of 'addressUser'"
        }
      },
      "getUser(address)": {
        "details": "Get User by address",
        "params": {
          "userAddress": "address of user"
        },
        "returns": {
          "_0": "user"
        }
      },
      "isAuthority(address)": {
        "details": "check if user is an authority",
        "params": {
          "userAddress": "address of user"
        },
        "returns": {
          "_0": "true if user is an authority"
        }
      },
      "owner()": {
        "details": "Returns the address of the current owner."
      },
      "renounceOwnership()": {
        "details": "Leaves the contract without owner. It will not be possible to call `onlyOwner` functions anymore. Can only be called by the current owner. NOTE: Renouncing ownership will leave the contract without an owner, thereby removing any functionality that is only available to the owner."
      },
      "setUser(address,string)": {
        "details": "Set user's informations (name)",
        "params": {
          "addressUser": "address of user",
          "name": "new username of 'userAddress'"
        },
        "returns": {
          "_0": "updated user"
        }
      },
      "transferOwnership(address)": {
        "details": "Transfers ownership of the contract to a new account (`newOwner`). Can only be called by the current owner."
      }
    },
    "title": "Account manager for SAV Doc contract",
    "version": 1
  },
  "userdoc": {
    "kind": "user",
    "methods": {
      "checkIfUserExist(address)": {
        "notice": "check if user exists"
      },
      "isAuthority(address)": {
        "notice": "check if user is an authority"
      }
    },
    "version": 1
  }
}