{
  "contractName": "AccountManager",
  "abi": [
    {
      "anonymous": false,
      "inputs": [
        {
          "indexed": true,
          "internalType": "address",
          "name": "previousOwner",
          "type": "address"
        },
        {
          "indexed": true,
          "internalType": "address",
          "name": "newOwner",
          "type": "address"
        }
      ],
      "name": "OwnershipTransferred",
      "type": "event"
    },
    {
      "inputs": [],
      "name": "owner",
      "outputs": [
        {
          "internalType": "address",
          "name": "",
          "type": "address"
        }
      ],
      "stateMutability": "view",
      "type": "function"
    },
    {
      "inputs": [],
      "name": "renounceOwnership",
      "outputs": [],
      "stateMutability": "nonpayable",
      "type": "function"
    },
    {
      "inputs": [
        {
          "internalType": "address",
          "name": "newOwner",
          "type": "address"
        }
      ],
      "name": "transferOwnership",
      "outputs": [],
      "stateMutability": "nonpayable",
      "type": "function"
    },
    {
      "inputs": [
        {
          "internalType": "address",
          "name": "_address",
          "type": "address"
        },
        {
          "internalType": "string",
          "name": "name",
          "type": "string"
        },
        {
          "internalType": "string",
          "name": "pubKey",
          "type": "string"
        }
      ],
      "name": "addUser",
      "outputs": [
        {
          "components": [
            {
              "internalType": "string",
              "name": "name",
              "type": "string"
            },
            {
              "internalType": "string",
              "name": "publicKey",
              "type": "string"
            },
            {
              "internalType": "bool",
              "name": "isAuthority",
              "type": "bool"
            },
            {
              "internalType": "bool",
              "name": "exist",
              "type": "bool"
            }
          ],
          "internalType": "struct AccountManager.User",
          "name": "",
          "type": "tuple"
        }
      ],
      "stateMutability": "nonpayable",
      "type": "function"
    },
    {
      "inputs": [
        {
          "internalType": "address",
          "name": "_address",
          "type": "address"
        },
        {
          "internalType": "string",
          "name": "name",
          "type": "string"
        },
        {
          "internalType": "string",
          "name": "pubKey",
          "type": "string"
        }
      ],
      "name": "addAuthority",
      "outputs": [
        {
          "components": [
            {
              "internalType": "string",
              "name": "name",
              "type": "string"
            },
            {
              "internalType": "string",
              "name": "publicKey",
              "type": "string"
            },
            {
              "internalType": "bool",
              "name": "isAuthority",
              "type": "bool"
            },
            {
              "internalType": "bool",
              "name": "exist",
              "type": "bool"
            }
          ],
          "internalType": "struct AccountManager.User",
          "name": "",
          "type": "tuple"
        }
      ],
      "stateMutability": "nonpayable",
      "type": "function"
    },
    {
      "inputs": [
        {
          "internalType": "address",
          "name": "_address",
          "type": "address"
        }
      ],
      "name": "getUser",
      "outputs": [
        {
          "components": [
            {
              "internalType": "string",
              "name": "name",
              "type": "string"
            },
            {
              "internalType": "string",
              "name": "publicKey",
              "type": "string"
            },
            {
              "internalType": "bool",
              "name": "isAuthority",
              "type": "bool"
            },
            {
              "internalType": "bool",
              "name": "exist",
              "type": "bool"
            }
          ],
          "internalType": "struct AccountManager.User",
          "name": "",
          "type": "tuple"
        }
      ],
      "stateMutability": "view",
      "type": "function"
    },
    {
      "inputs": [
        {
          "internalType": "address",
          "name": "_address",
          "type": "address"
        }
      ],
      "name": "delUser",
      "outputs": [
        {
          "internalType": "bool",
          "name": "",
          "type": "bool"
        }
      ],
      "stateMutability": "nonpayable",
      "type": "function"
    },
    {
      "inputs": [
        {
          "internalType": "address",
          "name": "_address",
          "type": "address"
        }
      ],
      "name": "isAuthority",
      "outputs": [
        {
          "internalType": "bool",
          "name": "",
          "type": "bool"
        }
      ],
      "stateMutability": "view",
      "type": "function"
    }
  ],
  "bytecode": "0x608060405234801561001057600080fd5b5061002d61002261003260201b60201c565b61003a60201b60201c565b6100fe565b600033905090565b60008060009054906101000a900473ffffffffffffffffffffffffffffffffffffffff169050816000806101000a81548173ffffffffffffffffffffffffffffffffffffffff021916908373ffffffffffffffffffffffffffffffffffffffff1602179055508173ffffffffffffffffffffffffffffffffffffffff168173ffffffffffffffffffffffffffffffffffffffff167f8be0079c531659141344cd1fd0a4f28419497f9722a3daafe3b4186f6b6457e060405160405180910390a35050565b61129f8061010d6000396000f3fe608060405234801561001057600080fd5b50600436106100885760003560e01c8063d7554a681161005b578063d7554a6814610115578063da2c092b14610145578063f2fde38b14610175578063f849f3791461019157610088565b80632330f2471461008d5780636f77926b146100bd578063715018a6146100ed5780638da5cb5b146100f7575b600080fd5b6100a760048036038101906100a29190610d1f565b6101c1565b6040516100b49190610f2b565b60405180910390f35b6100d760048036038101906100d29190610d1f565b61021a565b6040516100e49190610fa6565b60405180910390f35b6100f56103cd565b005b6100ff610455565b60405161010c9190610f10565b60405180910390f35b61012f600480360381019061012a9190610d4c565b61047e565b60405161013c9190610fa6565b60405180910390f35b61015f600480360381019061015a9190610d4c565b61065b565b60405161016c9190610fa6565b60405180910390f35b61018f600480360381019061018a9190610d1f565b610844565b005b6101ab60048036038101906101a69190610d1f565b61093c565b6040516101b89190610f2b565b60405180910390f35b6000600160008373ffffffffffffffffffffffffffffffffffffffff1673ffffffffffffffffffffffffffffffffffffffff16815260200190815260200160002060020160009054906101000a900460ff169050919050565b610222610b8b565b600160008373ffffffffffffffffffffffffffffffffffffffff1673ffffffffffffffffffffffffffffffffffffffff16815260200190815260200160002060405180608001604052908160008201805461027c906110cb565b80601f01602080910402602001604051908101604052809291908181526020018280546102a8906110cb565b80156102f55780601f106102ca576101008083540402835291602001916102f5565b820191906000526020600020905b8154815290600101906020018083116102d857829003601f168201915b5050505050815260200160018201805461030e906110cb565b80601f016020809104026020016040519081016040528092919081815260200182805461033a906110cb565b80156103875780601f1061035c57610100808354040283529160200191610387565b820191906000526020600020905b81548152906001019060200180831161036a57829003601f168201915b505050505081526020016002820160009054906101000a900460ff161515151581526020016002820160019054906101000a900460ff1615151515815250509050919050565b6103d5610abf565b73ffffffffffffffffffffffffffffffffffffffff166103f3610455565b73ffffffffffffffffffffffffffffffffffffffff1614610449576040517f08c379a000000000000000000000000000000000000000000000000000000000815260040161044090610f66565b60405180910390fd5b6104536000610ac7565b565b60008060009054906101000a900473ffffffffffffffffffffffffffffffffffffffff16905090565b610486610b8b565b83600073ffffffffffffffffffffffffffffffffffffffff168173ffffffffffffffffffffffffffffffffffffffff1614156104f7576040517f08c379a00000000000000000000000000000000000000000000000000000000081526004016104ee90610f86565b60405180910390fd5b600073ffffffffffffffffffffffffffffffffffffffff168573ffffffffffffffffffffffffffffffffffffffff161415610567576040517f08c379a000000000000000000000000000000000000000000000000000000000815260040161055e90610f86565b60405180910390fd5b6000604051806080016040528086815260200185815260200160001515815260200160011515815250905080600160008873ffffffffffffffffffffffffffffffffffffffff1673ffffffffffffffffffffffffffffffffffffffff16815260200190815260200160002060008201518160000190805190602001906105ee929190610bb7565b50602082015181600101908051906020019061060b929190610bb7565b5060408201518160020160006101000a81548160ff02191690831515021790555060608201518160020160016101000a81548160ff02191690831515021790555090505080925050509392505050565b610663610b8b565b61066b610abf565b73ffffffffffffffffffffffffffffffffffffffff16610689610455565b73ffffffffffffffffffffffffffffffffffffffff16146106df576040517f08c379a00000000000000000000000000000000000000000000000000000000081526004016106d690610f66565b60405180910390fd5b83600073ffffffffffffffffffffffffffffffffffffffff168173ffffffffffffffffffffffffffffffffffffffff161415610750576040517f08c379a000000000000000000000000000000000000000000000000000000000815260040161074790610f86565b60405180910390fd5b6000604051806080016040528086815260200185815260200160011515815260200160011515815250905080600160008873ffffffffffffffffffffffffffffffffffffffff1673ffffffffffffffffffffffffffffffffffffffff16815260200190815260200160002060008201518160000190805190602001906107d7929190610bb7565b5060208201518160010190805190602001906107f4929190610bb7565b5060408201518160020160006101000a81548160ff02191690831515021790555060608201518160020160016101000a81548160ff02191690831515021790555090505080925050509392505050565b61084c610abf565b73ffffffffffffffffffffffffffffffffffffffff1661086a610455565b73ffffffffffffffffffffffffffffffffffffffff16146108c0576040517f08c379a00000000000000000000000000000000000000000000000000000000081526004016108b790610f66565b60405180910390fd5b600073ffffffffffffffffffffffffffffffffffffffff168173ffffffffffffffffffffffffffffffffffffffff161415610930576040517f08c379a000000000000000000000000000000000000000000000000000000000815260040161092790610f46565b60405180910390fd5b61093981610ac7565b50565b6000610946610abf565b73ffffffffffffffffffffffffffffffffffffffff16610964610455565b73ffffffffffffffffffffffffffffffffffffffff16146109ba576040517f08c379a00000000000000000000000000000000000000000000000000000000081526004016109b190610f66565b60405180910390fd5b81600073ffffffffffffffffffffffffffffffffffffffff168173ffffffffffffffffffffffffffffffffffffffff161415610a2b576040517f08c379a0000000000000000000000000000000000000000000000000000000008152600401610a2290610f86565b60405180910390fd5b600160008473ffffffffffffffffffffffffffffffffffffffff1673ffffffffffffffffffffffffffffffffffffffff16815260200190815260200160002060008082016000610a7b9190610c3d565b600182016000610a8b9190610c3d565b6002820160006101000a81549060ff02191690556002820160016101000a81549060ff021916905550506001915050919050565b600033905090565b60008060009054906101000a900473ffffffffffffffffffffffffffffffffffffffff169050816000806101000a81548173ffffffffffffffffffffffffffffffffffffffff021916908373ffffffffffffffffffffffffffffffffffffffff1602179055508173ffffffffffffffffffffffffffffffffffffffff168173ffffffffffffffffffffffffffffffffffffffff167f8be0079c531659141344cd1fd0a4f28419497f9722a3daafe3b4186f6b6457e060405160405180910390a35050565b604051806080016040528060608152602001606081526020016000151581526020016000151581525090565b828054610bc3906110cb565b90600052602060002090601f016020900481019282610be55760008555610c2c565b82601f10610bfe57805160ff1916838001178555610c2c565b82800160010185558215610c2c579182015b82811115610c2b578251825591602001919060010190610c10565b5b509050610c399190610c7d565b5090565b508054610c49906110cb565b6000825580601f10610c5b5750610c7a565b601f016020900490600052602060002090810190610c799190610c7d565b5b50565b5b80821115610c96576000816000905550600101610c7e565b5090565b6000610cad610ca884610fed565b610fc8565b905082815260208101848484011115610cc957610cc8611191565b5b610cd4848285611089565b509392505050565b600081359050610ceb81611252565b92915050565b600082601f830112610d0657610d0561118c565b5b8135610d16848260208601610c9a565b91505092915050565b600060208284031215610d3557610d3461119b565b5b6000610d4384828501610cdc565b91505092915050565b600080600060608486031215610d6557610d6461119b565b5b6000610d7386828701610cdc565b935050602084013567ffffffffffffffff811115610d9457610d93611196565b5b610da086828701610cf1565b925050604084013567ffffffffffffffff811115610dc157610dc0611196565b5b610dcd86828701610cf1565b9150509250925092565b610de08161104b565b82525050565b610def8161105d565b82525050565b610dfe8161105d565b82525050565b6000610e0f8261101e565b610e198185611029565b9350610e29818560208601611098565b610e32816111a0565b840191505092915050565b6000610e4a60268361103a565b9150610e55826111b1565b604082019050919050565b6000610e6d60208361103a565b9150610e7882611200565b602082019050919050565b6000610e90601d8361103a565b9150610e9b82611229565b602082019050919050565b60006080830160008301518482036000860152610ec38282610e04565b91505060208301518482036020860152610edd8282610e04565b9150506040830151610ef26040860182610de6565b506060830151610f056060860182610de6565b508091505092915050565b6000602082019050610f256000830184610dd7565b92915050565b6000602082019050610f406000830184610df5565b92915050565b60006020820190508181036000830152610f5f81610e3d565b9050919050565b60006020820190508181036000830152610f7f81610e60565b9050919050565b60006020820190508181036000830152610f9f81610e83565b9050919050565b60006020820190508181036000830152610fc08184610ea6565b905092915050565b6000610fd2610fe3565b9050610fde82826110fd565b919050565b6000604051905090565b600067ffffffffffffffff8211156110085761100761115d565b5b611011826111a0565b9050602081019050919050565b600081519050919050565b600082825260208201905092915050565b600082825260208201905092915050565b600061105682611069565b9050919050565b60008115159050919050565b600073ffffffffffffffffffffffffffffffffffffffff82169050919050565b82818337600083830152505050565b60005b838110156110b657808201518184015260208101905061109b565b838111156110c5576000848401525b50505050565b600060028204905060018216806110e357607f821691505b602082108114156110f7576110f661112e565b5b50919050565b611106826111a0565b810181811067ffffffffffffffff821117156111255761112461115d565b5b80604052505050565b7f4e487b7100000000000000000000000000000000000000000000000000000000600052602260045260246000fd5b7f4e487b7100000000000000000000000000000000000000000000000000000000600052604160045260246000fd5b600080fd5b600080fd5b600080fd5b600080fd5b6000601f19601f8301169050919050565b7f4f776e61626c653a206e6577206f776e657220697320746865207a65726f206160008201527f6464726573730000000000000000000000000000000000000000000000000000602082015250565b7f4f776e61626c653a2063616c6c6572206973206e6f7420746865206f776e6572600082015250565b7f4365747465206164647265737365206e27657869737465207061732021000000600082015250565b61125b8161104b565b811461126657600080fd5b5056fea2646970667358221220bba54e7ce407351e6072bf66ddf181e845695d1e9c54cd42c02b06a66f05c7b664736f6c63430008060033",
  "immutableReferences": {},
  "source": "//SPDX-License-Identifier: MIT\n\npragma solidity 0.8.6;\n\nimport \"@openzeppelin/contracts/access/Ownable.sol\";\n\ncontract AccountManager is Ownable\n{\n    mapping(address => User) users;\n\n    modifier checkAddressValid(address _address)\n    {\n        require(_address != address(0), \"Cette addresse n'existe pas !\");\n        _;\n    }\n\n    modifier onlyAuthority(address _address)\n    {\n        User memory user = getUser(_address);\n        require(user.isAuthority, \"Vous n'avez pas le droit d'utiliser cette fonction\");\n        _;\n\n    }\n\n    modifier userExist(address _address)\n    {\n        User memory user = users[_address];\n        require(user.exist, \"Ce compte n'existe pas !\");\n        _;\n    }\n\n    struct User\n    {\n        string name;\n        string publicKey;\n        bool isAuthority;\n        bool exist;\n    }\n\n\n    function addUser(address _address, string memory name, string memory pubKey) public checkAddressValid(_address) returns(User memory)\n    {\n        require(_address != address(0), \"Cette addresse n'existe pas !\");\n        User memory user = User(name, pubKey, false, true);\n\n        users[_address] = user;\n        return user;\n    }\n\n    function addAuthority(address _address, string memory name, string memory pubKey) public onlyOwner() checkAddressValid(_address) returns(User memory)\n    {\n        User memory user = User(name, pubKey, true, true);\n\n        users[_address] = user;\n        return user;\n    }\n\n    function getUser(address _address) public view returns(User memory)\n    {\n        return users[_address];\n    }\n\n    function delUser(address _address) public onlyOwner() checkAddressValid(_address) returns(bool)\n    {\n        delete users[_address];\n        return true;\n    }\n\n    function isAuthority(address _address) view public returns(bool)\n    {\n        return users[_address].isAuthority;\n    }\n}\n",
  "sourcePath": "/home/oumar/projects/SAV-Doc/contracts/AccountManager.sol",
  "compiler": {
    "name": "solc",
    "version": "0.8.6+commit.11564f7e.Emscripten.clang"
  },
  "schemaVersion": "3.4.1",
  "updatedAt": "2021-07-22T16:46:17.779Z",
  "devdoc": {
    "kind": "dev",
    "methods": {
      "owner()": {
        "details": "Returns the address of the current owner."
      },
      "renounceOwnership()": {
        "details": "Leaves the contract without owner. It will not be possible to call `onlyOwner` functions anymore. Can only be called by the current owner. NOTE: Renouncing ownership will leave the contract without an owner, thereby removing any functionality that is only available to the owner."
      },
      "transferOwnership(address)": {
        "details": "Transfers ownership of the contract to a new account (`newOwner`). Can only be called by the current owner."
      }
    },
    "version": 1
  },
  "userdoc": {
    "kind": "user",
    "methods": {},
    "version": 1
  }
}