{
  "contractName": "AccountManager",
  "abi": [
    {
      "anonymous": false,
      "inputs": [
        {
          "indexed": true,
          "internalType": "address",
          "name": "previousOwner",
          "type": "address"
        },
        {
          "indexed": true,
          "internalType": "address",
          "name": "newOwner",
          "type": "address"
        }
      ],
      "name": "OwnershipTransferred",
      "type": "event"
    },
    {
      "inputs": [],
      "name": "owner",
      "outputs": [
        {
          "internalType": "address",
          "name": "",
          "type": "address"
        }
      ],
      "stateMutability": "view",
      "type": "function",
      "constant": true
    },
    {
      "inputs": [],
      "name": "renounceOwnership",
      "outputs": [],
      "stateMutability": "nonpayable",
      "type": "function"
    },
    {
      "inputs": [
        {
          "internalType": "address",
          "name": "newOwner",
          "type": "address"
        }
      ],
      "name": "transferOwnership",
      "outputs": [],
      "stateMutability": "nonpayable",
      "type": "function"
    },
    {
      "inputs": [
        {
          "internalType": "address",
          "name": "addressUser",
          "type": "address"
        }
      ],
      "name": "getPasswordMaster",
      "outputs": [
        {
          "internalType": "string",
          "name": "",
          "type": "string"
        }
      ],
      "stateMutability": "view",
      "type": "function",
      "constant": true
    },
    {
      "inputs": [
        {
          "internalType": "address",
          "name": "userAddress",
          "type": "address"
        },
        {
          "internalType": "string",
          "name": "name",
          "type": "string"
        },
        {
          "internalType": "string",
          "name": "pubKey",
          "type": "string"
        },
        {
          "internalType": "string",
          "name": "passwordMaster",
          "type": "string"
        }
      ],
      "name": "addUser",
      "outputs": [
        {
          "components": [
            {
              "internalType": "string",
              "name": "name",
              "type": "string"
            },
            {
              "internalType": "string",
              "name": "publicKey",
              "type": "string"
            },
            {
              "internalType": "bool",
              "name": "isAuthority",
              "type": "bool"
            },
            {
              "internalType": "bool",
              "name": "exist",
              "type": "bool"
            }
          ],
          "internalType": "struct SaveDocStruct.User",
          "name": "",
          "type": "tuple"
        }
      ],
      "stateMutability": "nonpayable",
      "type": "function"
    },
    {
      "inputs": [
        {
          "internalType": "string",
          "name": "passwordMaster",
          "type": "string"
        },
        {
          "internalType": "address",
          "name": "authorityAddress",
          "type": "address"
        },
        {
          "internalType": "string",
          "name": "name",
          "type": "string"
        },
        {
          "internalType": "string",
          "name": "pubKey",
          "type": "string"
        }
      ],
      "name": "addAuthority",
      "outputs": [
        {
          "components": [
            {
              "internalType": "string",
              "name": "name",
              "type": "string"
            },
            {
              "internalType": "string",
              "name": "publicKey",
              "type": "string"
            },
            {
              "internalType": "bool",
              "name": "isAuthority",
              "type": "bool"
            },
            {
              "internalType": "bool",
              "name": "exist",
              "type": "bool"
            }
          ],
          "internalType": "struct SaveDocStruct.User",
          "name": "",
          "type": "tuple"
        }
      ],
      "stateMutability": "nonpayable",
      "type": "function"
    },
    {
      "inputs": [
        {
          "internalType": "address",
          "name": "userAddress",
          "type": "address"
        }
      ],
      "name": "getUser",
      "outputs": [
        {
          "components": [
            {
              "internalType": "string",
              "name": "name",
              "type": "string"
            },
            {
              "internalType": "string",
              "name": "publicKey",
              "type": "string"
            },
            {
              "internalType": "bool",
              "name": "isAuthority",
              "type": "bool"
            },
            {
              "internalType": "bool",
              "name": "exist",
              "type": "bool"
            }
          ],
          "internalType": "struct SaveDocStruct.User",
          "name": "",
          "type": "tuple"
        }
      ],
      "stateMutability": "view",
      "type": "function",
      "constant": true
    },
    {
      "inputs": [
        {
          "internalType": "address",
          "name": "addressUser",
          "type": "address"
        },
        {
          "internalType": "string",
          "name": "name",
          "type": "string"
        }
      ],
      "name": "setUser",
      "outputs": [
        {
          "components": [
            {
              "internalType": "string",
              "name": "name",
              "type": "string"
            },
            {
              "internalType": "string",
              "name": "publicKey",
              "type": "string"
            },
            {
              "internalType": "bool",
              "name": "isAuthority",
              "type": "bool"
            },
            {
              "internalType": "bool",
              "name": "exist",
              "type": "bool"
            }
          ],
          "internalType": "struct SaveDocStruct.User",
          "name": "",
          "type": "tuple"
        }
      ],
      "stateMutability": "nonpayable",
      "type": "function"
    },
    {
      "inputs": [
        {
          "internalType": "address",
          "name": "addressUser",
          "type": "address"
        }
      ],
      "name": "delUser",
      "outputs": [],
      "stateMutability": "nonpayable",
      "type": "function"
    },
    {
      "inputs": [
        {
          "internalType": "address",
          "name": "userAddress",
          "type": "address"
        }
      ],
      "name": "isAuthority",
      "outputs": [
        {
          "internalType": "bool",
          "name": "",
          "type": "bool"
        }
      ],
      "stateMutability": "view",
      "type": "function",
      "constant": true
    },
    {
      "inputs": [
        {
          "internalType": "address",
          "name": "userAddress",
          "type": "address"
        }
      ],
      "name": "checkIfUserExist",
      "outputs": [
        {
          "internalType": "bool",
          "name": "",
          "type": "bool"
        }
      ],
      "stateMutability": "view",
      "type": "function",
      "constant": true
    }
  ],
  "bytecode": "0x60806040523480156200001157600080fd5b5062000032620000266200003860201b60201c565b6200004060201b60201c565b62000104565b600033905090565b60008060009054906101000a900473ffffffffffffffffffffffffffffffffffffffff169050816000806101000a81548173ffffffffffffffffffffffffffffffffffffffff021916908373ffffffffffffffffffffffffffffffffffffffff1602179055508173ffffffffffffffffffffffffffffffffffffffff168173ffffffffffffffffffffffffffffffffffffffff167f8be0079c531659141344cd1fd0a4f28419497f9722a3daafe3b4186f6b6457e060405160405180910390a35050565b61259a80620001146000396000f3fe608060405234801561001057600080fd5b50600436106100a95760003560e01c80638da5cb5b116100715780638da5cb5b14610178578063a1abffee14610196578063bacf99da146101c6578063c6361c22146101f6578063f2fde38b14610226578063f849f37914610242576100a9565b80632330f247146100ae5780633f1a51b8146100de5780636e2db3b01461010e5780636f77926b1461013e578063715018a61461016e575b600080fd5b6100c860048036038101906100c39190611be4565b61025e565b6040516100d59190611ffc565b60405180910390f35b6100f860048036038101906100f39190611c11565b6103ba565b6040516101059190612119565b60405180910390f35b61012860048036038101906101239190611be4565b6106d2565b6040516101359190612017565b60405180910390f35b61015860048036038101906101539190611be4565b6108ae565b6040516101659190612119565b60405180910390f35b610176610be0565b005b610180610c68565b60405161018d9190611fe1565b60405180910390f35b6101b060048036038101906101ab9190611be4565b610c91565b6040516101bd9190611ffc565b60405180910390f35b6101e060048036038101906101db9190611d28565b610cea565b6040516101ed9190612119565b60405180910390f35b610210600480360381019061020b9190611c6d565b61110d565b60405161021d9190612119565b60405180910390f35b610240600480360381019061023b9190611be4565b6114be565b005b61025c60048036038101906102579190611be4565b6115b6565b005b600081600073ffffffffffffffffffffffffffffffffffffffff168173ffffffffffffffffffffffffffffffffffffffff1614156102d1576040517f08c379a00000000000000000000000000000000000000000000000000000000081526004016102c8906120b9565b60405180910390fd5b82600160008273ffffffffffffffffffffffffffffffffffffffff1673ffffffffffffffffffffffffffffffffffffffff16815260200190815260200160002060020160019054906101000a900460ff16610361576040517f08c379a000000000000000000000000000000000000000000000000000000000815260040161035890612099565b60405180910390fd5b600160008573ffffffffffffffffffffffffffffffffffffffff1673ffffffffffffffffffffffffffffffffffffffff16815260200190815260200160002060020160009054906101000a900460ff1692505050919050565b6103c2611a50565b6103ca61179b565b73ffffffffffffffffffffffffffffffffffffffff166103e8610c68565b73ffffffffffffffffffffffffffffffffffffffff161461043e576040517f08c379a0000000000000000000000000000000000000000000000000000000008152600401610435906120d9565b60405180910390fd5b82600160008273ffffffffffffffffffffffffffffffffffffffff1673ffffffffffffffffffffffffffffffffffffffff16815260200190815260200160002060020160019054906101000a900460ff166104ce576040517f08c379a00000000000000000000000000000000000000000000000000000000081526004016104c590612099565b60405180910390fd5b82600160008673ffffffffffffffffffffffffffffffffffffffff1673ffffffffffffffffffffffffffffffffffffffff1681526020019081526020016000206000019080519060200190610524929190611a7c565b50600160008573ffffffffffffffffffffffffffffffffffffffff1673ffffffffffffffffffffffffffffffffffffffff16815260200190815260200160002060405180608001604052908160008201805461057f9061223e565b80601f01602080910402602001604051908101604052809291908181526020018280546105ab9061223e565b80156105f85780601f106105cd576101008083540402835291602001916105f8565b820191906000526020600020905b8154815290600101906020018083116105db57829003601f168201915b505050505081526020016001820180546106119061223e565b80601f016020809104026020016040519081016040528092919081815260200182805461063d9061223e565b801561068a5780601f1061065f5761010080835404028352916020019161068a565b820191906000526020600020905b81548152906001019060200180831161066d57829003601f168201915b505050505081526020016002820160009054906101000a900460ff161515151581526020016002820160019054906101000a900460ff16151515158152505091505092915050565b60606106dc61179b565b73ffffffffffffffffffffffffffffffffffffffff166106fa610c68565b73ffffffffffffffffffffffffffffffffffffffff1614610750576040517f08c379a0000000000000000000000000000000000000000000000000000000008152600401610747906120d9565b60405180910390fd5b6000600260008473ffffffffffffffffffffffffffffffffffffffff1673ffffffffffffffffffffffffffffffffffffffff168152602001908152602001600020805461079c9061223e565b905014156107df576040517f08c379a00000000000000000000000000000000000000000000000000000000081526004016107d6906120f9565b60405180910390fd5b600260008373ffffffffffffffffffffffffffffffffffffffff1673ffffffffffffffffffffffffffffffffffffffff16815260200190815260200160002080546108299061223e565b80601f01602080910402602001604051908101604052809291908181526020018280546108559061223e565b80156108a25780601f10610877576101008083540402835291602001916108a2565b820191906000526020600020905b81548152906001019060200180831161088557829003601f168201915b50505050509050919050565b6108b6611a50565b81600073ffffffffffffffffffffffffffffffffffffffff168173ffffffffffffffffffffffffffffffffffffffff161415610927576040517f08c379a000000000000000000000000000000000000000000000000000000000815260040161091e906120b9565b60405180910390fd5b61092f61179b565b73ffffffffffffffffffffffffffffffffffffffff1661094d610c68565b73ffffffffffffffffffffffffffffffffffffffff16146109a3576040517f08c379a000000000000000000000000000000000000000000000000000000000815260040161099a906120d9565b60405180910390fd5b82600160008273ffffffffffffffffffffffffffffffffffffffff1673ffffffffffffffffffffffffffffffffffffffff16815260200190815260200160002060020160019054906101000a900460ff16610a33576040517f08c379a0000000000000000000000000000000000000000000000000000000008152600401610a2a90612099565b60405180910390fd5b600160008573ffffffffffffffffffffffffffffffffffffffff1673ffffffffffffffffffffffffffffffffffffffff168152602001908152602001600020604051806080016040529081600082018054610a8d9061223e565b80601f0160208091040260200160405190810160405280929190818152602001828054610ab99061223e565b8015610b065780601f10610adb57610100808354040283529160200191610b06565b820191906000526020600020905b815481529060010190602001808311610ae957829003601f168201915b50505050508152602001600182018054610b1f9061223e565b80601f0160208091040260200160405190810160405280929190818152602001828054610b4b9061223e565b8015610b985780601f10610b6d57610100808354040283529160200191610b98565b820191906000526020600020905b815481529060010190602001808311610b7b57829003601f168201915b505050505081526020016002820160009054906101000a900460ff161515151581526020016002820160019054906101000a900460ff16151515158152505092505050919050565b610be861179b565b73ffffffffffffffffffffffffffffffffffffffff16610c06610c68565b73ffffffffffffffffffffffffffffffffffffffff1614610c5c576040517f08c379a0000000000000000000000000000000000000000000000000000000008152600401610c53906120d9565b60405180910390fd5b610c6660006117a3565b565b60008060009054906101000a900473ffffffffffffffffffffffffffffffffffffffff16905090565b6000600160008373ffffffffffffffffffffffffffffffffffffffff1673ffffffffffffffffffffffffffffffffffffffff16815260200190815260200160002060020160019054906101000a900460ff169050919050565b610cf2611a50565b610cfa61179b565b73ffffffffffffffffffffffffffffffffffffffff16610d18610c68565b73ffffffffffffffffffffffffffffffffffffffff1614610d6e576040517f08c379a0000000000000000000000000000000000000000000000000000000008152600401610d65906120d9565b60405180910390fd5b83600073ffffffffffffffffffffffffffffffffffffffff168173ffffffffffffffffffffffffffffffffffffffff161415610ddf576040517f08c379a0000000000000000000000000000000000000000000000000000000008152600401610dd6906120b9565b60405180910390fd5b84600160008273ffffffffffffffffffffffffffffffffffffffff1673ffffffffffffffffffffffffffffffffffffffff16815260200190815260200160002060020160019054906101000a900460ff1615610e70576040517f08c379a0000000000000000000000000000000000000000000000000000000008152600401610e6790612059565b60405180910390fd5b604051806080016040528086815260200185815260200160011515815260200160011515815250600160008873ffffffffffffffffffffffffffffffffffffffff1673ffffffffffffffffffffffffffffffffffffffff1681526020019081526020016000206000820151816000019080519060200190610ef2929190611a7c565b506020820151816001019080519060200190610f0f929190611a7c565b5060408201518160020160006101000a81548160ff02191690831515021790555060608201518160020160016101000a81548160ff021916908315150217905550905050610f5d8688611867565b600160008773ffffffffffffffffffffffffffffffffffffffff1673ffffffffffffffffffffffffffffffffffffffff168152602001908152602001600020604051806080016040529081600082018054610fb79061223e565b80601f0160208091040260200160405190810160405280929190818152602001828054610fe39061223e565b80156110305780601f1061100557610100808354040283529160200191611030565b820191906000526020600020905b81548152906001019060200180831161101357829003601f168201915b505050505081526020016001820180546110499061223e565b80601f01602080910402602001604051908101604052809291908181526020018280546110759061223e565b80156110c25780601f10611097576101008083540402835291602001916110c2565b820191906000526020600020905b8154815290600101906020018083116110a557829003601f168201915b505050505081526020016002820160009054906101000a900460ff161515151581526020016002820160019054906101000a900460ff16151515158152505092505050949350505050565b611115611a50565b61111d61179b565b73ffffffffffffffffffffffffffffffffffffffff1661113b610c68565b73ffffffffffffffffffffffffffffffffffffffff1614611191576040517f08c379a0000000000000000000000000000000000000000000000000000000008152600401611188906120d9565b60405180910390fd5b84600160008273ffffffffffffffffffffffffffffffffffffffff1673ffffffffffffffffffffffffffffffffffffffff16815260200190815260200160002060020160019054906101000a900460ff1615611222576040517f08c379a000000000000000000000000000000000000000000000000000000000815260040161121990612059565b60405180910390fd5b604051806080016040528086815260200185815260200160001515815260200160011515815250600160008873ffffffffffffffffffffffffffffffffffffffff1673ffffffffffffffffffffffffffffffffffffffff16815260200190815260200160002060008201518160000190805190602001906112a4929190611a7c565b5060208201518160010190805190602001906112c1929190611a7c565b5060408201518160020160006101000a81548160ff02191690831515021790555060608201518160020160016101000a81548160ff02191690831515021790555090505061130f8684611867565b600160008773ffffffffffffffffffffffffffffffffffffffff1673ffffffffffffffffffffffffffffffffffffffff1681526020019081526020016000206040518060800160405290816000820180546113699061223e565b80601f01602080910402602001604051908101604052809291908181526020018280546113959061223e565b80156113e25780601f106113b7576101008083540402835291602001916113e2565b820191906000526020600020905b8154815290600101906020018083116113c557829003601f168201915b505050505081526020016001820180546113fb9061223e565b80601f01602080910402602001604051908101604052809291908181526020018280546114279061223e565b80156114745780601f1061144957610100808354040283529160200191611474565b820191906000526020600020905b81548152906001019060200180831161145757829003601f168201915b505050505081526020016002820160009054906101000a900460ff161515151581526020016002820160019054906101000a900460ff161515151581525050915050949350505050565b6114c661179b565b73ffffffffffffffffffffffffffffffffffffffff166114e4610c68565b73ffffffffffffffffffffffffffffffffffffffff161461153a576040517f08c379a0000000000000000000000000000000000000000000000000000000008152600401611531906120d9565b60405180910390fd5b600073ffffffffffffffffffffffffffffffffffffffff168173ffffffffffffffffffffffffffffffffffffffff1614156115aa576040517f08c379a00000000000000000000000000000000000000000000000000000000081526004016115a190612039565b60405180910390fd5b6115b3816117a3565b50565b6115be61179b565b73ffffffffffffffffffffffffffffffffffffffff166115dc610c68565b73ffffffffffffffffffffffffffffffffffffffff1614611632576040517f08c379a0000000000000000000000000000000000000000000000000000000008152600401611629906120d9565b60405180910390fd5b80600160008273ffffffffffffffffffffffffffffffffffffffff1673ffffffffffffffffffffffffffffffffffffffff16815260200190815260200160002060020160019054906101000a900460ff166116c2576040517f08c379a00000000000000000000000000000000000000000000000000000000081526004016116b990612099565b60405180910390fd5b600260008373ffffffffffffffffffffffffffffffffffffffff1673ffffffffffffffffffffffffffffffffffffffff168152602001908152602001600020600061170d9190611b02565b600160008373ffffffffffffffffffffffffffffffffffffffff1673ffffffffffffffffffffffffffffffffffffffff1681526020019081526020016000206000808201600061175d9190611b02565b60018201600061176d9190611b02565b6002820160006101000a81549060ff02191690556002820160016101000a81549060ff021916905550505050565b600033905090565b60008060009054906101000a900473ffffffffffffffffffffffffffffffffffffffff169050816000806101000a81548173ffffffffffffffffffffffffffffffffffffffff021916908373ffffffffffffffffffffffffffffffffffffffff1602179055508173ffffffffffffffffffffffffffffffffffffffff168173ffffffffffffffffffffffffffffffffffffffff167f8be0079c531659141344cd1fd0a4f28419497f9722a3daafe3b4186f6b6457e060405160405180910390a35050565b81600073ffffffffffffffffffffffffffffffffffffffff168173ffffffffffffffffffffffffffffffffffffffff1614156118d8576040517f08c379a00000000000000000000000000000000000000000000000000000000081526004016118cf906120b9565b60405180910390fd5b82600160008273ffffffffffffffffffffffffffffffffffffffff1673ffffffffffffffffffffffffffffffffffffffff16815260200190815260200160002060020160019054906101000a900460ff16611968576040517f08c379a000000000000000000000000000000000000000000000000000000000815260040161195f90612099565b60405180910390fd5b6000600260008673ffffffffffffffffffffffffffffffffffffffff1673ffffffffffffffffffffffffffffffffffffffff16815260200190815260200160002080546119b49061223e565b9050146119f6576040517f08c379a00000000000000000000000000000000000000000000000000000000081526004016119ed90612079565b60405180910390fd5b82600260008673ffffffffffffffffffffffffffffffffffffffff1673ffffffffffffffffffffffffffffffffffffffff1681526020019081526020016000209080519060200190611a49929190611a7c565b5050505050565b604051806080016040528060608152602001606081526020016000151581526020016000151581525090565b828054611a889061223e565b90600052602060002090601f016020900481019282611aaa5760008555611af1565b82601f10611ac357805160ff1916838001178555611af1565b82800160010185558215611af1579182015b82811115611af0578251825591602001919060010190611ad5565b5b509050611afe9190611b42565b5090565b508054611b0e9061223e565b6000825580601f10611b205750611b3f565b601f016020900490600052602060002090810190611b3e9190611b42565b5b50565b5b80821115611b5b576000816000905550600101611b43565b5090565b6000611b72611b6d84612160565b61213b565b905082815260208101848484011115611b8e57611b8d612304565b5b611b998482856121fc565b509392505050565b600081359050611bb08161254d565b92915050565b600082601f830112611bcb57611bca6122ff565b5b8135611bdb848260208601611b5f565b91505092915050565b600060208284031215611bfa57611bf961230e565b5b6000611c0884828501611ba1565b91505092915050565b60008060408385031215611c2857611c2761230e565b5b6000611c3685828601611ba1565b925050602083013567ffffffffffffffff811115611c5757611c56612309565b5b611c6385828601611bb6565b9150509250929050565b60008060008060808587031215611c8757611c8661230e565b5b6000611c9587828801611ba1565b945050602085013567ffffffffffffffff811115611cb657611cb5612309565b5b611cc287828801611bb6565b935050604085013567ffffffffffffffff811115611ce357611ce2612309565b5b611cef87828801611bb6565b925050606085013567ffffffffffffffff811115611d1057611d0f612309565b5b611d1c87828801611bb6565b91505092959194509250565b60008060008060808587031215611d4257611d4161230e565b5b600085013567ffffffffffffffff811115611d6057611d5f612309565b5b611d6c87828801611bb6565b9450506020611d7d87828801611ba1565b935050604085013567ffffffffffffffff811115611d9e57611d9d612309565b5b611daa87828801611bb6565b925050606085013567ffffffffffffffff811115611dcb57611dca612309565b5b611dd787828801611bb6565b91505092959194509250565b611dec816121be565b82525050565b611dfb816121d0565b82525050565b611e0a816121d0565b82525050565b6000611e1b82612191565b611e25818561219c565b9350611e3581856020860161220b565b611e3e81612313565b840191505092915050565b6000611e5482612191565b611e5e81856121ad565b9350611e6e81856020860161220b565b611e7781612313565b840191505092915050565b6000611e8f6026836121ad565b9150611e9a82612324565b604082019050919050565b6000611eb26027836121ad565b9150611ebd82612373565b604082019050919050565b6000611ed56042836121ad565b9150611ee0826123c2565b606082019050919050565b6000611ef86028836121ad565b9150611f0382612437565b604082019050919050565b6000611f1b602d836121ad565b9150611f2682612486565b604082019050919050565b6000611f3e6020836121ad565b9150611f49826124d5565b602082019050919050565b6000611f61602c836121ad565b9150611f6c826124fe565b604082019050919050565b60006080830160008301518482036000860152611f948282611e10565b91505060208301518482036020860152611fae8282611e10565b9150506040830151611fc36040860182611df2565b506060830151611fd66060860182611df2565b508091505092915050565b6000602082019050611ff66000830184611de3565b92915050565b60006020820190506120116000830184611e01565b92915050565b600060208201905081810360008301526120318184611e49565b905092915050565b6000602082019050818103600083015261205281611e82565b9050919050565b6000602082019050818103600083015261207281611ea5565b9050919050565b6000602082019050818103600083015261209281611ec8565b9050919050565b600060208201905081810360008301526120b281611eeb565b9050919050565b600060208201905081810360008301526120d281611f0e565b9050919050565b600060208201905081810360008301526120f281611f31565b9050919050565b6000602082019050818103600083015261211281611f54565b9050919050565b600060208201905081810360008301526121338184611f77565b905092915050565b6000612145612156565b90506121518282612270565b919050565b6000604051905090565b600067ffffffffffffffff82111561217b5761217a6122d0565b5b61218482612313565b9050602081019050919050565b600081519050919050565b600082825260208201905092915050565b600082825260208201905092915050565b60006121c9826121dc565b9050919050565b60008115159050919050565b600073ffffffffffffffffffffffffffffffffffffffff82169050919050565b82818337600083830152505050565b60005b8381101561222957808201518184015260208101905061220e565b83811115612238576000848401525b50505050565b6000600282049050600182168061225657607f821691505b6020821081141561226a576122696122a1565b5b50919050565b61227982612313565b810181811067ffffffffffffffff82111715612298576122976122d0565b5b80604052505050565b7f4e487b7100000000000000000000000000000000000000000000000000000000600052602260045260246000fd5b7f4e487b7100000000000000000000000000000000000000000000000000000000600052604160045260246000fd5b600080fd5b600080fd5b600080fd5b600080fd5b6000601f19601f8301169050919050565b7f4f776e61626c653a206e6577206f776e657220697320746865207a65726f206160008201527f6464726573730000000000000000000000000000000000000000000000000000602082015250565b7f4163636f756e744d616e616765723a20436520636f6d7074652065786973746560008201527f2064656a61202100000000000000000000000000000000000000000000000000602082015250565b7f50617373776f72644d616e616765723a2043657474652061646472657373207060008201527f6f73736564652064656a6120756e206d6f74206465207061737365206d61697460208201527f7265000000000000000000000000000000000000000000000000000000000000604082015250565b7f4163636f756e744d616e616765723a20436520636f6d707465206e276578697360008201527f7465207061732021000000000000000000000000000000000000000000000000602082015250565b7f4163636f756e744d616e616765723a204365747465206164647265737365206e60008201527f2765786973746520706173202100000000000000000000000000000000000000602082015250565b7f4f776e61626c653a2063616c6c6572206973206e6f7420746865206f776e6572600082015250565b7f43657474652061646472657373206e276120706173206465206d6f742064652060008201527f7061737365206d61697472650000000000000000000000000000000000000000602082015250565b612556816121be565b811461256157600080fd5b5056fea264697066735822122067ddfde532968c5c1dcb0366d4b97f75bc6a6bbbc4f83ecbc17554ee94c1838b64736f6c63430008060033",
  "immutableReferences": {},
  "source": "//SPDX-License-Identifier: MIT\n\npragma solidity 0.8.6;\n\nimport \"@openzeppelin/contracts/access/Ownable.sol\";\nimport \"./SaveDocStruct.sol\";\n\ncontract AccountManager is Ownable, SaveDocStruct\n{\n    mapping(address => User) private users;\n    mapping(address => string) private passwordMasters;\n\n    modifier addressIsValid(address _address)\n    {\n        require(_address != address(0), \"AccountManager: Cette addresse n'existe pas !\");\n        _;\n    }\n\n    modifier userNotExist(address _address)\n    {\n        require(!users[_address].exist, \"AccountManager: Ce compte existe deja !\");\n        _;\n    }\n\n    modifier userExist(address _address)\n    {\n        require(users[_address].exist, \"AccountManager: Ce compte n'existe pas !\");\n        _;\n    }\n\n\n    function addPasswordMaster(address userAddress, string memory hashPasswordMaster) private addressIsValid(userAddress) userExist(userAddress)\n    {\n        require(bytes(passwordMasters[userAddress]).length == 0, \"PasswordManager: Cette address possede deja un mot de passe maitre\");\n        passwordMasters[userAddress] = hashPasswordMaster;\n    }\n\n    function getPasswordMaster(address addressUser) external view onlyOwner() returns(string memory)\n    {\n        require(bytes(passwordMasters[addressUser]).length != 0, \"Cette address n'a pas de mot de passe maitre\");\n        return passwordMasters[addressUser];\n    }\n\n    function addUser(address userAddress, string memory name, string memory pubKey, string memory passwordMaster) external onlyOwner() userNotExist(userAddress) returns(User memory)\n    {\n        users[userAddress] = User(name, pubKey, false, true);\n        addPasswordMaster(userAddress, passwordMaster);\n        return users[userAddress];\n    }\n\n    function addAuthority(string memory passwordMaster, address authorityAddress, string memory name, string memory pubKey) public onlyOwner() addressIsValid(authorityAddress) userNotExist(authorityAddress) returns(User memory)\n    {\n        users[authorityAddress] = User(name, pubKey, true, true);\n        addPasswordMaster(authorityAddress, passwordMaster);\n        return users[authorityAddress];\n    }\n\n    function getUser(address userAddress) public view addressIsValid(userAddress) onlyOwner() userExist(userAddress) returns(User memory)\n    {\n        return users[userAddress];\n    }\n\n    function setUser(address addressUser, string memory name) public onlyOwner() userExist(addressUser) returns(User memory)\n    {\n        users[addressUser].name = name;\n        return users[addressUser];\n    }\n\n    function delUser(address addressUser) public onlyOwner() userExist(addressUser)\n    {\n        delete passwordMasters[addressUser];\n        delete users[addressUser];\n    }\n\n    function isAuthority(address userAddress) public view addressIsValid(userAddress) userExist(userAddress) returns(bool)\n    {\n        return users[userAddress].isAuthority;\n    }\n\n    function checkIfUserExist(address userAddress) public view  returns(bool)\n    {\n        return users[userAddress].exist;\n    }\n}\n",
  "sourcePath": "/home/traore/projects/SAV-Doc/contracts/AccountManager.sol",
  "compiler": {
    "name": "solc",
    "version": "0.8.6+commit.11564f7e.Emscripten.clang"
  },
  "schemaVersion": "3.4.1",
  "updatedAt": "2021-08-02T10:19:15.925Z",
  "networkType": "ethereum",
  "devdoc": {
    "kind": "dev",
    "methods": {
      "owner()": {
        "details": "Returns the address of the current owner."
      },
      "renounceOwnership()": {
        "details": "Leaves the contract without owner. It will not be possible to call `onlyOwner` functions anymore. Can only be called by the current owner. NOTE: Renouncing ownership will leave the contract without an owner, thereby removing any functionality that is only available to the owner."
      },
      "transferOwnership(address)": {
        "details": "Transfers ownership of the contract to a new account (`newOwner`). Can only be called by the current owner."
      }
    },
    "version": 1
  },
  "userdoc": {
    "kind": "user",
    "methods": {},
    "version": 1
  }
}