{
  "contractName": "DocManager",
  "abi": [
    {
      "inputs": [
        {
          "internalType": "contract SaveDocToken",
          "name": "_saveDocToken",
          "type": "address"
        },
        {
          "internalType": "contract AccountManager",
          "name": "_accountManager",
          "type": "address"
        }
      ],
      "stateMutability": "nonpayable",
      "type": "constructor"
    },
    {
      "anonymous": false,
      "inputs": [
        {
          "indexed": true,
          "internalType": "address",
          "name": "previousOwner",
          "type": "address"
        },
        {
          "indexed": true,
          "internalType": "address",
          "name": "newOwner",
          "type": "address"
        }
      ],
      "name": "OwnershipTransferred",
      "type": "event"
    },
    {
      "inputs": [],
      "name": "owner",
      "outputs": [
        {
          "internalType": "address",
          "name": "",
          "type": "address"
        }
      ],
      "stateMutability": "view",
      "type": "function",
      "constant": true
    },
    {
      "inputs": [],
      "name": "renounceOwnership",
      "outputs": [],
      "stateMutability": "nonpayable",
      "type": "function"
    },
    {
      "inputs": [
        {
          "internalType": "address",
          "name": "newOwner",
          "type": "address"
        }
      ],
      "name": "transferOwnership",
      "outputs": [],
      "stateMutability": "nonpayable",
      "type": "function"
    },
    {
      "inputs": [
        {
          "internalType": "address",
          "name": "ownerNFT",
          "type": "address"
        },
        {
          "internalType": "enum NFT.TypeDoc",
          "name": "typeNft",
          "type": "uint8"
        },
        {
          "internalType": "uint256",
          "name": "tokenID",
          "type": "uint256"
        }
      ],
      "name": "getIndexNFT",
      "outputs": [
        {
          "internalType": "uint256",
          "name": "",
          "type": "uint256"
        }
      ],
      "stateMutability": "view",
      "type": "function",
      "constant": true
    },
    {
      "inputs": [
        {
          "internalType": "address",
          "name": "ownerNFT",
          "type": "address"
        },
        {
          "internalType": "uint256",
          "name": "tokenID",
          "type": "uint256"
        },
        {
          "internalType": "string",
          "name": "tokenName",
          "type": "string"
        },
        {
          "internalType": "string",
          "name": "tokenMime",
          "type": "string"
        },
        {
          "internalType": "uint256",
          "name": "tokenLength",
          "type": "uint256"
        },
        {
          "internalType": "string",
          "name": "filePath",
          "type": "string"
        },
        {
          "internalType": "string",
          "name": "passwordEncrypted",
          "type": "string"
        },
        {
          "internalType": "string",
          "name": "hashNFT",
          "type": "string"
        }
      ],
      "name": "createDoc",
      "outputs": [
        {
          "components": [
            {
              "internalType": "uint256",
              "name": "tokenID",
              "type": "uint256"
            },
            {
              "internalType": "uint256",
              "name": "fileSize",
              "type": "uint256"
            },
            {
              "internalType": "string",
              "name": "filename",
              "type": "string"
            },
            {
              "internalType": "string",
              "name": "fileMimeType",
              "type": "string"
            },
            {
              "internalType": "uint256",
              "name": "dateAdd",
              "type": "uint256"
            },
            {
              "internalType": "string",
              "name": "filePath",
              "type": "string"
            },
            {
              "internalType": "address[]",
              "name": "certifying",
              "type": "address[]"
            },
            {
              "internalType": "string",
              "name": "tokenURI",
              "type": "string"
            },
            {
              "internalType": "string",
              "name": "passwordEncrypted",
              "type": "string"
            },
            {
              "internalType": "enum NFT.TypeDoc",
              "name": "typeNft",
              "type": "uint8"
            }
          ],
          "internalType": "struct NFT.Document",
          "name": "",
          "type": "tuple"
        }
      ],
      "stateMutability": "nonpayable",
      "type": "function"
    },
    {
      "inputs": [],
      "name": "getDocs",
      "outputs": [
        {
          "components": [
            {
              "internalType": "uint256",
              "name": "tokenID",
              "type": "uint256"
            },
            {
              "internalType": "uint256",
              "name": "fileSize",
              "type": "uint256"
            },
            {
              "internalType": "string",
              "name": "filename",
              "type": "string"
            },
            {
              "internalType": "string",
              "name": "fileMimeType",
              "type": "string"
            },
            {
              "internalType": "uint256",
              "name": "dateAdd",
              "type": "uint256"
            },
            {
              "internalType": "string",
              "name": "filePath",
              "type": "string"
            },
            {
              "internalType": "address[]",
              "name": "certifying",
              "type": "address[]"
            },
            {
              "internalType": "string",
              "name": "tokenURI",
              "type": "string"
            },
            {
              "internalType": "string",
              "name": "passwordEncrypted",
              "type": "string"
            },
            {
              "internalType": "enum NFT.TypeDoc",
              "name": "typeNft",
              "type": "uint8"
            }
          ],
          "internalType": "struct NFT.Document[]",
          "name": "",
          "type": "tuple[]"
        }
      ],
      "stateMutability": "view",
      "type": "function",
      "constant": true
    },
    {
      "inputs": [
        {
          "internalType": "address",
          "name": "ownerDoc",
          "type": "address"
        },
        {
          "internalType": "uint256",
          "name": "tokenID",
          "type": "uint256"
        },
        {
          "internalType": "bool",
          "name": "isCopyDoc",
          "type": "bool"
        }
      ],
      "name": "deleteDoc",
      "outputs": [
        {
          "internalType": "bool",
          "name": "",
          "type": "bool"
        }
      ],
      "stateMutability": "nonpayable",
      "type": "function"
    },
    {
      "inputs": [],
      "name": "deleteAllDocs",
      "outputs": [],
      "stateMutability": "nonpayable",
      "type": "function"
    },
    {
      "inputs": [
        {
          "internalType": "address",
          "name": "provider",
          "type": "address"
        },
        {
          "internalType": "address",
          "name": "ownerCopyNFT",
          "type": "address"
        },
        {
          "internalType": "uint256",
          "name": "tokenID",
          "type": "uint256"
        },
        {
          "internalType": "string",
          "name": "tokenURI",
          "type": "string"
        },
        {
          "internalType": "enum NFT.TypeDoc",
          "name": "typeNft",
          "type": "uint8"
        }
      ],
      "name": "createCopyDoc",
      "outputs": [],
      "stateMutability": "nonpayable",
      "type": "function"
    },
    {
      "inputs": [],
      "name": "getAllCopyShared",
      "outputs": [
        {
          "components": [
            {
              "internalType": "uint256",
              "name": "tokenID",
              "type": "uint256"
            },
            {
              "internalType": "uint256",
              "name": "fileSize",
              "type": "uint256"
            },
            {
              "internalType": "string",
              "name": "filename",
              "type": "string"
            },
            {
              "internalType": "string",
              "name": "fileMimeType",
              "type": "string"
            },
            {
              "internalType": "uint256",
              "name": "dateAdd",
              "type": "uint256"
            },
            {
              "internalType": "string",
              "name": "filePath",
              "type": "string"
            },
            {
              "internalType": "address[]",
              "name": "certifying",
              "type": "address[]"
            },
            {
              "internalType": "string",
              "name": "tokenURI",
              "type": "string"
            },
            {
              "internalType": "string",
              "name": "passwordEncrypted",
              "type": "string"
            },
            {
              "internalType": "enum NFT.TypeDoc",
              "name": "typeNft",
              "type": "uint8"
            }
          ],
          "internalType": "struct NFT.Document[]",
          "name": "",
          "type": "tuple[]"
        }
      ],
      "stateMutability": "view",
      "type": "function",
      "constant": true
    },
    {
      "inputs": [],
      "name": "getAllCopyPendingTransfer",
      "outputs": [
        {
          "components": [
            {
              "internalType": "uint256",
              "name": "tokenID",
              "type": "uint256"
            },
            {
              "internalType": "uint256",
              "name": "fileSize",
              "type": "uint256"
            },
            {
              "internalType": "string",
              "name": "filename",
              "type": "string"
            },
            {
              "internalType": "string",
              "name": "fileMimeType",
              "type": "string"
            },
            {
              "internalType": "uint256",
              "name": "dateAdd",
              "type": "uint256"
            },
            {
              "internalType": "string",
              "name": "filePath",
              "type": "string"
            },
            {
              "internalType": "address[]",
              "name": "certifying",
              "type": "address[]"
            },
            {
              "internalType": "string",
              "name": "tokenURI",
              "type": "string"
            },
            {
              "internalType": "string",
              "name": "passwordEncrypted",
              "type": "string"
            },
            {
              "internalType": "enum NFT.TypeDoc",
              "name": "typeNft",
              "type": "uint8"
            }
          ],
          "internalType": "struct NFT.Document[]",
          "name": "",
          "type": "tuple[]"
        }
      ],
      "stateMutability": "view",
      "type": "function",
      "constant": true
    },
    {
      "inputs": [],
      "name": "getAllCopyCertified",
      "outputs": [
        {
          "components": [
            {
              "internalType": "uint256",
              "name": "tokenID",
              "type": "uint256"
            },
            {
              "internalType": "uint256",
              "name": "fileSize",
              "type": "uint256"
            },
            {
              "internalType": "string",
              "name": "filename",
              "type": "string"
            },
            {
              "internalType": "string",
              "name": "fileMimeType",
              "type": "string"
            },
            {
              "internalType": "uint256",
              "name": "dateAdd",
              "type": "uint256"
            },
            {
              "internalType": "string",
              "name": "filePath",
              "type": "string"
            },
            {
              "internalType": "address[]",
              "name": "certifying",
              "type": "address[]"
            },
            {
              "internalType": "string",
              "name": "tokenURI",
              "type": "string"
            },
            {
              "internalType": "string",
              "name": "passwordEncrypted",
              "type": "string"
            },
            {
              "internalType": "enum NFT.TypeDoc",
              "name": "typeNft",
              "type": "uint8"
            }
          ],
          "internalType": "struct NFT.Document[]",
          "name": "",
          "type": "tuple[]"
        }
      ],
      "stateMutability": "view",
      "type": "function",
      "constant": true
    },
    {
      "inputs": [
        {
          "internalType": "address",
          "name": "ownerNFT",
          "type": "address"
        },
        {
          "internalType": "enum NFT.TypeDoc",
          "name": "typeNft",
          "type": "uint8"
        },
        {
          "internalType": "uint256",
          "name": "index",
          "type": "uint256"
        }
      ],
      "name": "delCopyDoc",
      "outputs": [],
      "stateMutability": "nonpayable",
      "type": "function"
    },
    {
      "inputs": [
        {
          "internalType": "address",
          "name": "ownerNFT",
          "type": "address"
        }
      ],
      "name": "delAllCopyNFT",
      "outputs": [],
      "stateMutability": "nonpayable",
      "type": "function"
    },
    {
      "inputs": [
        {
          "internalType": "address",
          "name": "certifying",
          "type": "address"
        },
        {
          "internalType": "address",
          "name": "dest",
          "type": "address"
        },
        {
          "internalType": "uint256",
          "name": "tokenID",
          "type": "uint256"
        },
        {
          "internalType": "string",
          "name": "hashNFT",
          "type": "string"
        }
      ],
      "name": "certify",
      "outputs": [],
      "stateMutability": "nonpayable",
      "type": "function"
    },
    {
      "inputs": [
        {
          "internalType": "address",
          "name": "ownerCopyNFT",
          "type": "address"
        },
        {
          "internalType": "enum NFT.TypeDoc",
          "name": "typeNft",
          "type": "uint8"
        },
        {
          "internalType": "string",
          "name": "passwordEncrypted",
          "type": "string"
        },
        {
          "internalType": "uint256",
          "name": "tokenID",
          "type": "uint256"
        }
      ],
      "name": "copyDocToOriginal",
      "outputs": [],
      "stateMutability": "nonpayable",
      "type": "function"
    },
    {
      "inputs": [
        {
          "internalType": "uint256",
          "name": "tokenID",
          "type": "uint256"
        }
      ],
      "name": "getOwnerToken",
      "outputs": [
        {
          "internalType": "address",
          "name": "",
          "type": "address"
        }
      ],
      "stateMutability": "view",
      "type": "function",
      "constant": true
    },
    {
      "inputs": [
        {
          "internalType": "string",
          "name": "hashNFT",
          "type": "string"
        }
      ],
      "name": "isOfficielDoc",
      "outputs": [
        {
          "internalType": "bool",
          "name": "",
          "type": "bool"
        }
      ],
      "stateMutability": "view",
      "type": "function",
      "constant": true
    }
  ],
  "bytecode": "0x60806040523480156200001157600080fd5b5060405162005c8038038062005c808339818101604052810190620000379190620001db565b620000576200004b620000e160201b60201c565b620000e960201b60201c565b81600260006101000a81548173ffffffffffffffffffffffffffffffffffffffff021916908373ffffffffffffffffffffffffffffffffffffffff16021790555080600360006101000a81548173ffffffffffffffffffffffffffffffffffffffff021916908373ffffffffffffffffffffffffffffffffffffffff1602179055505050620002b7565b600033905090565b60008060009054906101000a900473ffffffffffffffffffffffffffffffffffffffff169050816000806101000a81548173ffffffffffffffffffffffffffffffffffffffff021916908373ffffffffffffffffffffffffffffffffffffffff1602179055508173ffffffffffffffffffffffffffffffffffffffff168173ffffffffffffffffffffffffffffffffffffffff167f8be0079c531659141344cd1fd0a4f28419497f9722a3daafe3b4186f6b6457e060405160405180910390a35050565b600081519050620001be8162000283565b92915050565b600081519050620001d5816200029d565b92915050565b60008060408385031215620001f557620001f46200027e565b5b60006200020585828601620001c4565b92505060206200021885828601620001ad565b9150509250929050565b60006200022f826200025e565b9050919050565b6000620002438262000222565b9050919050565b6000620002578262000222565b9050919050565b600073ffffffffffffffffffffffffffffffffffffffff82169050919050565b600080fd5b6200028e8162000236565b81146200029a57600080fd5b50565b620002a8816200024a565b8114620002b457600080fd5b50565b6159b980620002c76000396000f3fe608060405234801561001057600080fd5b50600436106101165760003560e01c8063715018a6116100a25780639643062c116100715780639643062c146102bb578063a543a717146102eb578063b5b4cb351461031b578063d09ef69314610337578063f2fde38b1461034157610116565b8063715018a61461024557806374d90f8f1461024f5780637cc24f2d1461026d5780638da5cb5b1461029d57610116565b806339f22016116100e957806339f22016146101b75780634531817d146101d5578063493712d6146101f15780635359954b1461020d57806371499a7b1461022957610116565b80630bbe3e991461011b57806314676a1b1461013957806319b0de6214610169578063352aebd214610199575b600080fd5b61012361035d565b60405161013091906151ec565b60405180910390f35b610153600480360381019061014e9190614ad0565b6107f0565b604051610160919061520e565b60405180910390f35b610183600480360381019061017e9190614c92565b610e24565b604051610190919061520e565b60405180910390f35b6101a1610e59565b6040516101ae91906151ec565b60405180910390f35b6101bf6112ec565b6040516101cc91906151ec565b60405180910390f35b6101ef60048036038101906101ea9190614a7d565b611780565b005b61020b60048036038101906102069190614886565b611faf565b005b610227600480360381019061022291906149fa565b6121b0565b005b610243600480360381019061023e9190614963565b6129d1565b005b61024d613456565b005b6102576134de565b60405161026491906151ec565b60405180910390f35b61028760048036038101906102829190614a7d565b613972565b604051610294919061532b565b60405180910390f35b6102a5613bf6565b6040516102b291906151d1565b60405180910390f35b6102d560048036038101906102d09190614b23565b613c1f565b6040516102e29190615309565b60405180910390f35b61030560048036038101906103009190614cdb565b613e93565b60405161031291906151d1565b60405180910390f35b610335600480360381019061033091906148e0565b613f47565b005b61033f6141b9565b005b61035b60048036038101906103569190614886565b61423b565b005b6060600460003373ffffffffffffffffffffffffffffffffffffffff1673ffffffffffffffffffffffffffffffffffffffff16815260200190815260200160002060006003808111156103b3576103b261562d565b5b60038111156103c5576103c461562d565b5b8152602001908152602001600020805480602002602001604051908101604052809291908181526020016000905b828210156107e757838290600052602060002090600a020160405180610140016040529081600082015481526020016001820154815260200160028201805461043b90615552565b80601f016020809104026020016040519081016040528092919081815260200182805461046790615552565b80156104b45780601f10610489576101008083540402835291602001916104b4565b820191906000526020600020905b81548152906001019060200180831161049757829003601f168201915b505050505081526020016003820180546104cd90615552565b80601f01602080910402602001604051908101604052809291908181526020018280546104f990615552565b80156105465780601f1061051b57610100808354040283529160200191610546565b820191906000526020600020905b81548152906001019060200180831161052957829003601f168201915b505050505081526020016004820154815260200160058201805461056990615552565b80601f016020809104026020016040519081016040528092919081815260200182805461059590615552565b80156105e25780601f106105b7576101008083540402835291602001916105e2565b820191906000526020600020905b8154815290600101906020018083116105c557829003601f168201915b505050505081526020016006820180548060200260200160405190810160405280929190818152602001828054801561067057602002820191906000526020600020905b8160009054906101000a900473ffffffffffffffffffffffffffffffffffffffff1673ffffffffffffffffffffffffffffffffffffffff1681526020019060010190808311610626575b5050505050815260200160078201805461068990615552565b80601f01602080910402602001604051908101604052809291908181526020018280546106b590615552565b80156107025780601f106106d757610100808354040283529160200191610702565b820191906000526020600020905b8154815290600101906020018083116106e557829003601f168201915b5050505050815260200160088201805461071b90615552565b80601f016020809104026020016040519081016040528092919081815260200182805461074790615552565b80156107945780601f1061076957610100808354040283529160200191610794565b820191906000526020600020905b81548152906001019060200180831161077757829003601f168201915b505050505081526020016009820160009054906101000a900460ff1660038111156107c2576107c161562d565b5b60038111156107d4576107d361562d565b5b81525050815260200190600101906103f3565b50505050905090565b60006107fa614333565b73ffffffffffffffffffffffffffffffffffffffff16610818613bf6565b73ffffffffffffffffffffffffffffffffffffffff161461086e576040517f08c379a000000000000000000000000000000000000000000000000000000000815260040161086590615289565b60405180910390fd5b82848073ffffffffffffffffffffffffffffffffffffffff16600260009054906101000a900473ffffffffffffffffffffffffffffffffffffffff1673ffffffffffffffffffffffffffffffffffffffff16636352211e846040518263ffffffff1660e01b81526004016108e2919061532b565b60206040518083038186803b1580156108fa57600080fd5b505afa15801561090e573d6000803e3d6000fd5b505050506040513d601f19601f8201168201806040525081019061093291906148b3565b73ffffffffffffffffffffffffffffffffffffffff1614610988576040517f08c379a000000000000000000000000000000000000000000000000000000000815260040161097f906152a9565b60405180910390fd5b600061099687600088613972565b9050600460008873ffffffffffffffffffffffffffffffffffffffff1673ffffffffffffffffffffffffffffffffffffffff16815260200190815260200160002060008060038111156109ec576109eb61562d565b5b60038111156109fe576109fd61562d565b5b81526020019081526020016000206001600460008a73ffffffffffffffffffffffffffffffffffffffff1673ffffffffffffffffffffffffffffffffffffffff1681526020019081526020016000206000806003811115610a6257610a6161562d565b5b6003811115610a7457610a7361562d565b5b815260200190815260200160002080549050610a90919061546f565b81548110610aa157610aa06156ba565b5b90600052602060002090600a0201600460008973ffffffffffffffffffffffffffffffffffffffff1673ffffffffffffffffffffffffffffffffffffffff1681526020019081526020016000206000806003811115610b0357610b0261562d565b5b6003811115610b1557610b1461562d565b5b81526020019081526020016000208281548110610b3557610b346156ba565b5b90600052602060002090600a020160008201548160000155600182015481600101556002820181600201908054610b6b90615552565b610b769291906143ff565b506003820181600301908054610b8b90615552565b610b969291906143ff565b50600482015481600401556005820181600501908054610bb590615552565b610bc09291906143ff565b506006820181600601908054610bd792919061448c565b506007820181600701908054610bec90615552565b610bf79291906143ff565b506008820181600801908054610c0c90615552565b610c179291906143ff565b506009820160009054906101000a900460ff168160090160006101000a81548160ff02191690836003811115610c5057610c4f61562d565b5b0217905550905050600460008873ffffffffffffffffffffffffffffffffffffffff1673ffffffffffffffffffffffffffffffffffffffff1681526020019081526020016000206000806003811115610cac57610cab61562d565b5b6003811115610cbe57610cbd61562d565b5b8152602001908152602001600020805480610cdc57610cdb61568b565b5b60019003818190600052602060002090600a02016000808201600090556001820160009055600282016000610d1191906144de565b600382016000610d2191906144de565b6004820160009055600582016000610d3991906144de565b600682016000610d49919061451e565b600782016000610d5991906144de565b600882016000610d6991906144de565b6009820160006101000a81549060ff02191690555050905584610e1657600260009054906101000a900473ffffffffffffffffffffffffffffffffffffffff1673ffffffffffffffffffffffffffffffffffffffff1663fcd3533c87336040518363ffffffff1660e01b8152600401610de3929190615346565b600060405180830381600087803b158015610dfd57600080fd5b505af1158015610e11573d6000803e3d6000fd5b505050505b600193505050509392505050565b6000600182604051610e3691906151ba565b908152602001604051809103902060009054906101000a900460ff169050919050565b6060600460003373ffffffffffffffffffffffffffffffffffffffff1673ffffffffffffffffffffffffffffffffffffffff1681526020019081526020016000206000806003811115610eaf57610eae61562d565b5b6003811115610ec157610ec061562d565b5b8152602001908152602001600020805480602002602001604051908101604052809291908181526020016000905b828210156112e357838290600052602060002090600a0201604051806101400160405290816000820154815260200160018201548152602001600282018054610f3790615552565b80601f0160208091040260200160405190810160405280929190818152602001828054610f6390615552565b8015610fb05780601f10610f8557610100808354040283529160200191610fb0565b820191906000526020600020905b815481529060010190602001808311610f9357829003601f168201915b50505050508152602001600382018054610fc990615552565b80601f0160208091040260200160405190810160405280929190818152602001828054610ff590615552565b80156110425780601f1061101757610100808354040283529160200191611042565b820191906000526020600020905b81548152906001019060200180831161102557829003601f168201915b505050505081526020016004820154815260200160058201805461106590615552565b80601f016020809104026020016040519081016040528092919081815260200182805461109190615552565b80156110de5780601f106110b3576101008083540402835291602001916110de565b820191906000526020600020905b8154815290600101906020018083116110c157829003601f168201915b505050505081526020016006820180548060200260200160405190810160405280929190818152602001828054801561116c57602002820191906000526020600020905b8160009054906101000a900473ffffffffffffffffffffffffffffffffffffffff1673ffffffffffffffffffffffffffffffffffffffff1681526020019060010190808311611122575b5050505050815260200160078201805461118590615552565b80601f01602080910402602001604051908101604052809291908181526020018280546111b190615552565b80156111fe5780601f106111d3576101008083540402835291602001916111fe565b820191906000526020600020905b8154815290600101906020018083116111e157829003601f168201915b5050505050815260200160088201805461121790615552565b80601f016020809104026020016040519081016040528092919081815260200182805461124390615552565b80156112905780601f1061126557610100808354040283529160200191611290565b820191906000526020600020905b81548152906001019060200180831161127357829003601f168201915b505050505081526020016009820160009054906101000a900460ff1660038111156112be576112bd61562d565b5b60038111156112d0576112cf61562d565b5b8152505081526020019060010190610eef565b50505050905090565b6060600460003373ffffffffffffffffffffffffffffffffffffffff1673ffffffffffffffffffffffffffffffffffffffff1681526020019081526020016000206000600160038111156113435761134261562d565b5b60038111156113555761135461562d565b5b8152602001908152602001600020805480602002602001604051908101604052809291908181526020016000905b8282101561177757838290600052602060002090600a02016040518061014001604052908160008201548152602001600182015481526020016002820180546113cb90615552565b80601f01602080910402602001604051908101604052809291908181526020018280546113f790615552565b80156114445780601f1061141957610100808354040283529160200191611444565b820191906000526020600020905b81548152906001019060200180831161142757829003601f168201915b5050505050815260200160038201805461145d90615552565b80601f016020809104026020016040519081016040528092919081815260200182805461148990615552565b80156114d65780601f106114ab576101008083540402835291602001916114d6565b820191906000526020600020905b8154815290600101906020018083116114b957829003601f168201915b50505050508152602001600482015481526020016005820180546114f990615552565b80601f016020809104026020016040519081016040528092919081815260200182805461152590615552565b80156115725780601f1061154757610100808354040283529160200191611572565b820191906000526020600020905b81548152906001019060200180831161155557829003601f168201915b505050505081526020016006820180548060200260200160405190810160405280929190818152602001828054801561160057602002820191906000526020600020905b8160009054906101000a900473ffffffffffffffffffffffffffffffffffffffff1673ffffffffffffffffffffffffffffffffffffffff16815260200190600101908083116115b6575b5050505050815260200160078201805461161990615552565b80601f016020809104026020016040519081016040528092919081815260200182805461164590615552565b80156116925780601f1061166757610100808354040283529160200191611692565b820191906000526020600020905b81548152906001019060200180831161167557829003601f168201915b505050505081526020016008820180546116ab90615552565b80601f01602080910402602001604051908101604052809291908181526020018280546116d790615552565b80156117245780601f106116f957610100808354040283529160200191611724565b820191906000526020600020905b81548152906001019060200180831161170757829003601f168201915b505050505081526020016009820160009054906101000a900460ff1660038111156117525761175161562d565b5b60038111156117645761176361562d565b5b8152505081526020019060010190611383565b50505050905090565b611788614333565b73ffffffffffffffffffffffffffffffffffffffff166117a6613bf6565b73ffffffffffffffffffffffffffffffffffffffff16146117fc576040517f08c379a00000000000000000000000000000000000000000000000000000000081526004016117f390615289565b60405180910390fd5b61180461453f565b600460008573ffffffffffffffffffffffffffffffffffffffff1673ffffffffffffffffffffffffffffffffffffffff16815260200190815260200160002060008460038111156118585761185761562d565b5b600381111561186a5761186961562d565b5b81526020019081526020016000206001600460008773ffffffffffffffffffffffffffffffffffffffff1673ffffffffffffffffffffffffffffffffffffffff16815260200190815260200160002060008660038111156118ce576118cd61562d565b5b60038111156118e0576118df61562d565b5b8152602001908152602001600020805490506118fc919061546f565b8154811061190d5761190c6156ba565b5b90600052602060002090600a020160405180610140016040529081600082015481526020016001820154815260200160028201805461194b90615552565b80601f016020809104026020016040519081016040528092919081815260200182805461197790615552565b80156119c45780601f10611999576101008083540402835291602001916119c4565b820191906000526020600020905b8154815290600101906020018083116119a757829003601f168201915b505050505081526020016003820180546119dd90615552565b80601f0160208091040260200160405190810160405280929190818152602001828054611a0990615552565b8015611a565780601f10611a2b57610100808354040283529160200191611a56565b820191906000526020600020905b815481529060010190602001808311611a3957829003601f168201915b5050505050815260200160048201548152602001600582018054611a7990615552565b80601f0160208091040260200160405190810160405280929190818152602001828054611aa590615552565b8015611af25780601f10611ac757610100808354040283529160200191611af2565b820191906000526020600020905b815481529060010190602001808311611ad557829003601f168201915b5050505050815260200160068201805480602002602001604051908101604052809291908181526020018280548015611b8057602002820191906000526020600020905b8160009054906101000a900473ffffffffffffffffffffffffffffffffffffffff1673ffffffffffffffffffffffffffffffffffffffff1681526020019060010190808311611b36575b50505050508152602001600782018054611b9990615552565b80601f0160208091040260200160405190810160405280929190818152602001828054611bc590615552565b8015611c125780601f10611be757610100808354040283529160200191611c12565b820191906000526020600020905b815481529060010190602001808311611bf557829003601f168201915b50505050508152602001600882018054611c2b90615552565b80601f0160208091040260200160405190810160405280929190818152602001828054611c5790615552565b8015611ca45780601f10611c7957610100808354040283529160200191611ca4565b820191906000526020600020905b815481529060010190602001808311611c8757829003601f168201915b505050505081526020016009820160009054906101000a900460ff166003811115611cd257611cd161562d565b5b6003811115611ce457611ce361562d565b5b81525050905080600460008673ffffffffffffffffffffffffffffffffffffffff1673ffffffffffffffffffffffffffffffffffffffff1681526020019081526020016000206000856003811115611d3f57611d3e61562d565b5b6003811115611d5157611d5061562d565b5b81526020019081526020016000208381548110611d7157611d706156ba565b5b90600052602060002090600a020160008201518160000155602082015181600101556040820151816002019080519060200190611daf9291906145a4565b506060820151816003019080519060200190611dcc9291906145a4565b506080820151816004015560a0820151816005019080519060200190611df39291906145a4565b5060c0820151816006019080519060200190611e1092919061462a565b5060e0820151816007019080519060200190611e2d9291906145a4565b50610100820151816008019080519060200190611e4b9291906145a4565b506101208201518160090160006101000a81548160ff02191690836003811115611e7857611e7761562d565b5b0217905550905050600460008573ffffffffffffffffffffffffffffffffffffffff1673ffffffffffffffffffffffffffffffffffffffff1681526020019081526020016000206000846003811115611ed457611ed361562d565b5b6003811115611ee657611ee561562d565b5b8152602001908152602001600020805480611f0457611f0361568b565b5b60019003818190600052602060002090600a02016000808201600090556001820160009055600282016000611f3991906144de565b600382016000611f4991906144de565b6004820160009055600582016000611f6191906144de565b600682016000611f71919061451e565b600782016000611f8191906144de565b600882016000611f9191906144de565b6009820160006101000a81549060ff02191690555050905550505050565b611fb7614333565b73ffffffffffffffffffffffffffffffffffffffff16611fd5613bf6565b73ffffffffffffffffffffffffffffffffffffffff161461202b576040517f08c379a000000000000000000000000000000000000000000000000000000000815260040161202290615289565b60405180910390fd5b600460008273ffffffffffffffffffffffffffffffffffffffff1673ffffffffffffffffffffffffffffffffffffffff1681526020019081526020016000206000600160038111156120805761207f61562d565b5b60038111156120925761209161562d565b5b815260200190815260200160002060006120ac91906146b4565b600460008273ffffffffffffffffffffffffffffffffffffffff1673ffffffffffffffffffffffffffffffffffffffff1681526020019081526020016000206000600260038111156121015761210061562d565b5b60038111156121135761211261562d565b5b8152602001908152602001600020600061212d91906146b4565b600460008273ffffffffffffffffffffffffffffffffffffffff1673ffffffffffffffffffffffffffffffffffffffff16815260200190815260200160002060006003808111156121815761218061562d565b5b60038111156121935761219261562d565b5b815260200190815260200160002060006121ad91906146b4565b50565b80848073ffffffffffffffffffffffffffffffffffffffff16600260009054906101000a900473ffffffffffffffffffffffffffffffffffffffff1673ffffffffffffffffffffffffffffffffffffffff16636352211e846040518263ffffffff1660e01b8152600401612224919061532b565b60206040518083038186803b15801561223c57600080fd5b505afa158015612250573d6000803e3d6000fd5b505050506040513d601f19601f8201168201806040525081019061227491906148b3565b73ffffffffffffffffffffffffffffffffffffffff16146122ca576040517f08c379a00000000000000000000000000000000000000000000000000000000081526004016122c1906152a9565b60405180910390fd5b6122d2614333565b73ffffffffffffffffffffffffffffffffffffffff166122f0613bf6565b73ffffffffffffffffffffffffffffffffffffffff1614612346576040517f08c379a000000000000000000000000000000000000000000000000000000000815260040161233d90615289565b60405180910390fd5b61234e61453f565b600061235b888887613972565b9050600460008973ffffffffffffffffffffffffffffffffffffffff1673ffffffffffffffffffffffffffffffffffffffff16815260200190815260200160002060008860038111156123b1576123b061562d565b5b60038111156123c3576123c261562d565b5b815260200190815260200160002081815481106123e3576123e26156ba565b5b90600052602060002090600a020160405180610140016040529081600082015481526020016001820154815260200160028201805461242190615552565b80601f016020809104026020016040519081016040528092919081815260200182805461244d90615552565b801561249a5780601f1061246f5761010080835404028352916020019161249a565b820191906000526020600020905b81548152906001019060200180831161247d57829003601f168201915b505050505081526020016003820180546124b390615552565b80601f01602080910402602001604051908101604052809291908181526020018280546124df90615552565b801561252c5780601f106125015761010080835404028352916020019161252c565b820191906000526020600020905b81548152906001019060200180831161250f57829003601f168201915b505050505081526020016004820154815260200160058201805461254f90615552565b80601f016020809104026020016040519081016040528092919081815260200182805461257b90615552565b80156125c85780601f1061259d576101008083540402835291602001916125c8565b820191906000526020600020905b8154815290600101906020018083116125ab57829003601f168201915b505050505081526020016006820180548060200260200160405190810160405280929190818152602001828054801561265657602002820191906000526020600020905b8160009054906101000a900473ffffffffffffffffffffffffffffffffffffffff1673ffffffffffffffffffffffffffffffffffffffff168152602001906001019080831161260c575b5050505050815260200160078201805461266f90615552565b80601f016020809104026020016040519081016040528092919081815260200182805461269b90615552565b80156126e85780601f106126bd576101008083540402835291602001916126e8565b820191906000526020600020905b8154815290600101906020018083116126cb57829003601f168201915b5050505050815260200160088201805461270190615552565b80601f016020809104026020016040519081016040528092919081815260200182805461272d90615552565b801561277a5780601f1061274f5761010080835404028352916020019161277a565b820191906000526020600020905b81548152906001019060200180831161275d57829003601f168201915b505050505081526020016009820160009054906101000a900460ff1660038111156127a8576127a761562d565b5b60038111156127ba576127b961562d565b5b815250509150604051806020016040528060008152508260e00181905250600082610120019060038111156127f2576127f161562d565b5b908160038111156128065761280561562d565b5b815250504282608001818152505085826101000181905250600460008973ffffffffffffffffffffffffffffffffffffffff1673ffffffffffffffffffffffffffffffffffffffff16815260200190815260200160002060008060038111156128725761287161562d565b5b60038111156128845761288361562d565b5b81526020019081526020016000208290806001815401808255809150506001900390600052602060002090600a0201600090919091909150600082015181600001556020820151816001015560408201518160020190805190602001906128ec9291906145a4565b5060608201518160030190805190602001906129099291906145a4565b506080820151816004015560a08201518160050190805190602001906129309291906145a4565b5060c082015181600601908051906020019061294d92919061462a565b5060e082015181600701908051906020019061296a9291906145a4565b506101008201518160080190805190602001906129889291906145a4565b506101208201518160090160006101000a81548160ff021916908360038111156129b5576129b461562d565b5b021790555050506129c7888883611780565b5050505050505050565b6129d9614333565b73ffffffffffffffffffffffffffffffffffffffff166129f7613bf6565b73ffffffffffffffffffffffffffffffffffffffff1614612a4d576040517f08c379a0000000000000000000000000000000000000000000000000000000008152600401612a4490615289565b60405180910390fd5b84848073ffffffffffffffffffffffffffffffffffffffff168273ffffffffffffffffffffffffffffffffffffffff161415612abe576040517f08c379a0000000000000000000000000000000000000000000000000000000008152600401612ab590615269565b60405180910390fd5b84878073ffffffffffffffffffffffffffffffffffffffff16600260009054906101000a900473ffffffffffffffffffffffffffffffffffffffff1673ffffffffffffffffffffffffffffffffffffffff16636352211e846040518263ffffffff1660e01b8152600401612b32919061532b565b60206040518083038186803b158015612b4a57600080fd5b505afa158015612b5e573d6000803e3d6000fd5b505050506040513d601f19601f82011682018060405250810190612b8291906148b3565b73ffffffffffffffffffffffffffffffffffffffff1614612bd8576040517f08c379a0000000000000000000000000000000000000000000000000000000008152600401612bcf906152a9565b60405180910390fd5b88600360009054906101000a900473ffffffffffffffffffffffffffffffffffffffff1673ffffffffffffffffffffffffffffffffffffffff1663a1abffee826040518263ffffffff1660e01b8152600401612c3491906151d1565b60206040518083038186803b158015612c4c57600080fd5b505afa158015612c60573d6000803e3d6000fd5b505050506040513d601f19601f82011682018060405250810190612c849190614c65565b612cc3576040517f08c379a0000000000000000000000000000000000000000000000000000000008152600401612cba90615249565b60405180910390fd5b88600360009054906101000a900473ffffffffffffffffffffffffffffffffffffffff1673ffffffffffffffffffffffffffffffffffffffff1663a1abffee826040518263ffffffff1660e01b8152600401612d1f91906151d1565b60206040518083038186803b158015612d3757600080fd5b505afa158015612d4b573d6000803e3d6000fd5b505050506040513d601f19601f82011682018060405250810190612d6f9190614c65565b612dae576040517f08c379a0000000000000000000000000000000000000000000000000000000008152600401612da590615249565b60405180910390fd5b612db661453f565b612dbe61453f565b600460008e73ffffffffffffffffffffffffffffffffffffffff1673ffffffffffffffffffffffffffffffffffffffff1681526020019081526020016000206000806003811115612e1257612e1161562d565b5b6003811115612e2457612e2361562d565b5b8152602001908152602001600020612e3e8e60008e613972565b81548110612e4f57612e4e6156ba565b5b90600052602060002090600a0201604051806101400160405290816000820154815260200160018201548152602001600282018054612e8d90615552565b80601f0160208091040260200160405190810160405280929190818152602001828054612eb990615552565b8015612f065780601f10612edb57610100808354040283529160200191612f06565b820191906000526020600020905b815481529060010190602001808311612ee957829003601f168201915b50505050508152602001600382018054612f1f90615552565b80601f0160208091040260200160405190810160405280929190818152602001828054612f4b90615552565b8015612f985780601f10612f6d57610100808354040283529160200191612f98565b820191906000526020600020905b815481529060010190602001808311612f7b57829003601f168201915b5050505050815260200160048201548152602001600582018054612fbb90615552565b80601f0160208091040260200160405190810160405280929190818152602001828054612fe790615552565b80156130345780601f1061300957610100808354040283529160200191613034565b820191906000526020600020905b81548152906001019060200180831161301757829003601f168201915b50505050508152602001600682018054806020026020016040519081016040528092919081815260200182805480156130c257602002820191906000526020600020905b8160009054906101000a900473ffffffffffffffffffffffffffffffffffffffff1673ffffffffffffffffffffffffffffffffffffffff1681526020019060010190808311613078575b505050505081526020016007820180546130db90615552565b80601f016020809104026020016040519081016040528092919081815260200182805461310790615552565b80156131545780601f1061312957610100808354040283529160200191613154565b820191906000526020600020905b81548152906001019060200180831161313757829003601f168201915b5050505050815260200160088201805461316d90615552565b80601f016020809104026020016040519081016040528092919081815260200182805461319990615552565b80156131e65780601f106131bb576101008083540402835291602001916131e6565b820191906000526020600020905b8154815290600101906020018083116131c957829003601f168201915b505050505081526020016009820160009054906101000a900460ff1660038111156132145761321361562d565b5b60038111156132265761322561562d565b5b8152505091506040518061014001604052808c81526020018360200151815260200183604001518152602001836060015181526020014281526020018360a0015181526020018360c0015181526020018b81526020016040518060200160405280600081525081526020018a60038111156132a4576132a361562d565b5b8152509050600460008d73ffffffffffffffffffffffffffffffffffffffff1673ffffffffffffffffffffffffffffffffffffffff16815260200190815260200160002060008a60038111156132fd576132fc61562d565b5b600381111561330f5761330e61562d565b5b81526020019081526020016000208190806001815401808255809150506001900390600052602060002090600a0201600090919091909150600082015181600001556020820151816001015560408201518160020190805190602001906133779291906145a4565b5060608201518160030190805190602001906133949291906145a4565b506080820151816004015560a08201518160050190805190602001906133bb9291906145a4565b5060c08201518160060190805190602001906133d892919061462a565b5060e08201518160070190805190602001906133f59291906145a4565b506101008201518160080190805190602001906134139291906145a4565b506101208201518160090160006101000a81548160ff021916908360038111156134405761343f61562d565b5b0217905550505050505050505050505050505050565b61345e614333565b73ffffffffffffffffffffffffffffffffffffffff1661347c613bf6565b73ffffffffffffffffffffffffffffffffffffffff16146134d2576040517f08c379a00000000000000000000000000000000000000000000000000000000081526004016134c990615289565b60405180910390fd5b6134dc600061433b565b565b6060600460003373ffffffffffffffffffffffffffffffffffffffff1673ffffffffffffffffffffffffffffffffffffffff1681526020019081526020016000206000600260038111156135355761353461562d565b5b60038111156135475761354661562d565b5b8152602001908152602001600020805480602002602001604051908101604052809291908181526020016000905b8282101561396957838290600052602060002090600a02016040518061014001604052908160008201548152602001600182015481526020016002820180546135bd90615552565b80601f01602080910402602001604051908101604052809291908181526020018280546135e990615552565b80156136365780601f1061360b57610100808354040283529160200191613636565b820191906000526020600020905b81548152906001019060200180831161361957829003601f168201915b5050505050815260200160038201805461364f90615552565b80601f016020809104026020016040519081016040528092919081815260200182805461367b90615552565b80156136c85780601f1061369d576101008083540402835291602001916136c8565b820191906000526020600020905b8154815290600101906020018083116136ab57829003601f168201915b50505050508152602001600482015481526020016005820180546136eb90615552565b80601f016020809104026020016040519081016040528092919081815260200182805461371790615552565b80156137645780601f1061373957610100808354040283529160200191613764565b820191906000526020600020905b81548152906001019060200180831161374757829003601f168201915b50505050508152602001600682018054806020026020016040519081016040528092919081815260200182805480156137f257602002820191906000526020600020905b8160009054906101000a900473ffffffffffffffffffffffffffffffffffffffff1673ffffffffffffffffffffffffffffffffffffffff16815260200190600101908083116137a8575b5050505050815260200160078201805461380b90615552565b80601f016020809104026020016040519081016040528092919081815260200182805461383790615552565b80156138845780601f1061385957610100808354040283529160200191613884565b820191906000526020600020905b81548152906001019060200180831161386757829003601f168201915b5050505050815260200160088201805461389d90615552565b80601f01602080910402602001604051908101604052809291908181526020018280546138c990615552565b80156139165780601f106138eb57610100808354040283529160200191613916565b820191906000526020600020905b8154815290600101906020018083116138f957829003601f168201915b505050505081526020016009820160009054906101000a900460ff1660038111156139445761394361562d565b5b60038111156139565761395561562d565b5b8152505081526020019060010190613575565b50505050905090565b600061397c614333565b73ffffffffffffffffffffffffffffffffffffffff1661399a613bf6565b73ffffffffffffffffffffffffffffffffffffffff16146139f0576040517f08c379a00000000000000000000000000000000000000000000000000000000081526004016139e790615289565b60405180910390fd5b60008060005b600460008873ffffffffffffffffffffffffffffffffffffffff1673ffffffffffffffffffffffffffffffffffffffff1681526020019081526020016000206000876003811115613a4a57613a4961562d565b5b6003811115613a5c57613a5b61562d565b5b815260200190815260200160002080549050811015613ba957600460008873ffffffffffffffffffffffffffffffffffffffff1673ffffffffffffffffffffffffffffffffffffffff1681526020019081526020016000206000876003811115613ac957613ac861562d565b5b6003811115613adb57613ada61562d565b5b81526020019081526020016000208181548110613afb57613afa6156ba565b5b90600052602060002090600a020160000154851415613b965780915060019250600460008873ffffffffffffffffffffffffffffffffffffffff1673ffffffffffffffffffffffffffffffffffffffff1681526020019081526020016000206000876003811115613b6f57613b6e61562d565b5b6003811115613b8157613b8061562d565b5b81526020019081526020016000208054905090505b8080613ba1906155b5565b9150506139f6565b5081613bea576040517f08c379a0000000000000000000000000000000000000000000000000000000008152600401613be1906152c9565b60405180910390fd5b80925050509392505050565b60008060009054906101000a900473ffffffffffffffffffffffffffffffffffffffff16905090565b613c2761453f565b613c3082610e24565b15613c70576040517f08c379a0000000000000000000000000000000000000000000000000000000008152600401613c67906152e9565b60405180910390fd5b613c7861453f565b60606040518061014001604052808b81526020018881526020018a815260200189815260200142815260200187815260200182815260200160405180602001604052806000815250815260200186815260200160006003811115613cdf57613cde61562d565b5b8152509150600460008c73ffffffffffffffffffffffffffffffffffffffff1673ffffffffffffffffffffffffffffffffffffffff1681526020019081526020016000206000806003811115613d3857613d3761562d565b5b6003811115613d4a57613d4961562d565b5b81526020019081526020016000208290806001815401808255809150506001900390600052602060002090600a020160009091909190915060008201518160000155602082015181600101556040820151816002019080519060200190613db29291906145a4565b506060820151816003019080519060200190613dcf9291906145a4565b506080820151816004015560a0820151816005019080519060200190613df69291906145a4565b5060c0820151816006019080519060200190613e1392919061462a565b5060e0820151816007019080519060200190613e309291906145a4565b50610100820151816008019080519060200190613e4e9291906145a4565b506101208201518160090160006101000a81548160ff02191690836003811115613e7b57613e7a61562d565b5b02179055505050819250505098975050505050505050565b6000600260009054906101000a900473ffffffffffffffffffffffffffffffffffffffff1673ffffffffffffffffffffffffffffffffffffffff16636352211e836040518263ffffffff1660e01b8152600401613ef0919061532b565b60206040518083038186803b158015613f0857600080fd5b505afa158015613f1c573d6000803e3d6000fd5b505050506040513d601f19601f82011682018060405250810190613f4091906148b3565b9050919050565b613f4f614333565b73ffffffffffffffffffffffffffffffffffffffff16613f6d613bf6565b73ffffffffffffffffffffffffffffffffffffffff1614613fc3576040517f08c379a0000000000000000000000000000000000000000000000000000000008152600401613fba90615289565b60405180910390fd5b6000600360009054906101000a900473ffffffffffffffffffffffffffffffffffffffff1673ffffffffffffffffffffffffffffffffffffffff16632330f247866040518263ffffffff1660e01b815260040161402091906151d1565b60206040518083038186803b15801561403857600080fd5b505afa15801561404c573d6000803e3d6000fd5b505050506040513d601f19601f820116820180604052508101906140709190614c65565b156140ac576001808360405161408691906151ba565b908152602001604051809103902060006101000a81548160ff0219169083151502179055505b6140b884600085613972565b9050600460008573ffffffffffffffffffffffffffffffffffffffff1673ffffffffffffffffffffffffffffffffffffffff168152602001908152602001600020600080600381111561410e5761410d61562d565b5b60038111156141205761411f61562d565b5b815260200190815260200160002081815481106141405761413f6156ba565b5b90600052602060002090600a0201600601859080600181540180825580915050600190039060005260206000200160009091909190916101000a81548173ffffffffffffffffffffffffffffffffffffffff021916908373ffffffffffffffffffffffffffffffffffffffff1602179055505050505050565b600460003373ffffffffffffffffffffffffffffffffffffffff1673ffffffffffffffffffffffffffffffffffffffff168152602001908152602001600020600080600381111561420d5761420c61562d565b5b600381111561421f5761421e61562d565b5b8152602001908152602001600020600061423991906146b4565b565b614243614333565b73ffffffffffffffffffffffffffffffffffffffff16614261613bf6565b73ffffffffffffffffffffffffffffffffffffffff16146142b7576040517f08c379a00000000000000000000000000000000000000000000000000000000081526004016142ae90615289565b60405180910390fd5b600073ffffffffffffffffffffffffffffffffffffffff168173ffffffffffffffffffffffffffffffffffffffff161415614327576040517f08c379a000000000000000000000000000000000000000000000000000000000815260040161431e90615229565b60405180910390fd5b6143308161433b565b50565b600033905090565b60008060009054906101000a900473ffffffffffffffffffffffffffffffffffffffff169050816000806101000a81548173ffffffffffffffffffffffffffffffffffffffff021916908373ffffffffffffffffffffffffffffffffffffffff1602179055508173ffffffffffffffffffffffffffffffffffffffff168173ffffffffffffffffffffffffffffffffffffffff167f8be0079c531659141344cd1fd0a4f28419497f9722a3daafe3b4186f6b6457e060405160405180910390a35050565b82805461440b90615552565b90600052602060002090601f01602090048101928261442d576000855561447b565b82601f1061443e578054855561447b565b8280016001018555821561447b57600052602060002091601f016020900482015b8281111561447a57825482559160010191906001019061445f565b5b50905061448891906146d8565b5090565b8280548282559060005260206000209081019282156144cd5760005260206000209182015b828111156144cc5782548255916001019190600101906144b1565b5b5090506144da91906146d8565b5090565b5080546144ea90615552565b6000825580601f106144fc575061451b565b601f01602090049060005260206000209081019061451a91906146d8565b5b50565b508054600082559060005260206000209081019061453c91906146d8565b50565b6040518061014001604052806000815260200160008152602001606081526020016060815260200160008152602001606081526020016060815260200160608152602001606081526020016000600381111561459e5761459d61562d565b5b81525090565b8280546145b090615552565b90600052602060002090601f0160209004810192826145d25760008555614619565b82601f106145eb57805160ff1916838001178555614619565b82800160010185558215614619579182015b828111156146185782518255916020019190600101906145fd565b5b50905061462691906146d8565b5090565b8280548282559060005260206000209081019282156146a3579160200282015b828111156146a25782518260006101000a81548173ffffffffffffffffffffffffffffffffffffffff021916908373ffffffffffffffffffffffffffffffffffffffff1602179055509160200191906001019061464a565b5b5090506146b091906146d8565b5090565b50805460008255600a02906000526020600020908101906146d591906146f5565b50565b5b808211156146f15760008160009055506001016146d9565b5090565b5b8082111561479457600080820160009055600182016000905560028201600061471f91906144de565b60038201600061472f91906144de565b600482016000905560058201600061474791906144de565b600682016000614757919061451e565b60078201600061476791906144de565b60088201600061477791906144de565b6009820160006101000a81549060ff021916905550600a016146f6565b5090565b60006147ab6147a684615394565b61536f565b9050828152602081018484840111156147c7576147c661571d565b5b6147d2848285615510565b509392505050565b6000813590506147e98161592e565b92915050565b6000815190506147fe8161592e565b92915050565b60008135905061481381615945565b92915050565b60008151905061482881615945565b92915050565b60008135905061483d8161595c565b92915050565b600082601f83011261485857614857615718565b5b8135614868848260208601614798565b91505092915050565b6000813590506148808161596c565b92915050565b60006020828403121561489c5761489b615727565b5b60006148aa848285016147da565b91505092915050565b6000602082840312156148c9576148c8615727565b5b60006148d7848285016147ef565b91505092915050565b600080600080608085870312156148fa576148f9615727565b5b6000614908878288016147da565b9450506020614919878288016147da565b935050604061492a87828801614871565b925050606085013567ffffffffffffffff81111561494b5761494a615722565b5b61495787828801614843565b91505092959194509250565b600080600080600060a0868803121561497f5761497e615727565b5b600061498d888289016147da565b955050602061499e888289016147da565b94505060406149af88828901614871565b935050606086013567ffffffffffffffff8111156149d0576149cf615722565b5b6149dc88828901614843565b92505060806149ed8882890161482e565b9150509295509295909350565b60008060008060808587031215614a1457614a13615727565b5b6000614a22878288016147da565b9450506020614a338782880161482e565b935050604085013567ffffffffffffffff811115614a5457614a53615722565b5b614a6087828801614843565b9250506060614a7187828801614871565b91505092959194509250565b600080600060608486031215614a9657614a95615727565b5b6000614aa4868287016147da565b9350506020614ab58682870161482e565b9250506040614ac686828701614871565b9150509250925092565b600080600060608486031215614ae957614ae8615727565b5b6000614af7868287016147da565b9350506020614b0886828701614871565b9250506040614b1986828701614804565b9150509250925092565b600080600080600080600080610100898b031215614b4457614b43615727565b5b6000614b528b828c016147da565b9850506020614b638b828c01614871565b975050604089013567ffffffffffffffff811115614b8457614b83615722565b5b614b908b828c01614843565b965050606089013567ffffffffffffffff811115614bb157614bb0615722565b5b614bbd8b828c01614843565b9550506080614bce8b828c01614871565b94505060a089013567ffffffffffffffff811115614bef57614bee615722565b5b614bfb8b828c01614843565b93505060c089013567ffffffffffffffff811115614c1c57614c1b615722565b5b614c288b828c01614843565b92505060e089013567ffffffffffffffff811115614c4957614c48615722565b5b614c558b828c01614843565b9150509295985092959890939650565b600060208284031215614c7b57614c7a615727565b5b6000614c8984828501614819565b91505092915050565b600060208284031215614ca857614ca7615727565b5b600082013567ffffffffffffffff811115614cc657614cc5615722565b5b614cd284828501614843565b91505092915050565b600060208284031215614cf157614cf0615727565b5b6000614cff84828501614871565b91505092915050565b6000614d148383614d34565b60208301905092915050565b6000614d2c8383614fa2565b905092915050565b614d3d816154a3565b82525050565b614d4c816154a3565b82525050565b6000614d5d826153e5565b614d678185615420565b9350614d72836153c5565b8060005b83811015614da3578151614d8a8882614d08565b9750614d9583615406565b925050600181019050614d76565b5085935050505092915050565b6000614dbb826153f0565b614dc58185615431565b935083602082028501614dd7856153d5565b8060005b85811015614e135784840389528151614df48582614d20565b9450614dff83615413565b925060208a01995050600181019050614ddb565b50829750879550505050505092915050565b614e2e816154b5565b82525050565b614e3d816154fe565b82525050565b6000614e4e826153fb565b614e588185615442565b9350614e6881856020860161551f565b614e718161572c565b840191505092915050565b6000614e87826153fb565b614e918185615464565b9350614ea181856020860161551f565b80840191505092915050565b6000614eba602683615453565b9150614ec58261573d565b604082019050919050565b6000614edd602b83615453565b9150614ee88261578c565b604082019050919050565b6000614f00603c83615453565b9150614f0b826157db565b604082019050919050565b6000614f23602083615453565b9150614f2e8261582a565b602082019050919050565b6000614f46602e83615453565b9150614f5182615853565b604082019050919050565b6000614f69602083615453565b9150614f74826158a2565b602082019050919050565b6000614f8c603783615453565b9150614f97826158cb565b604082019050919050565b600061014083016000830151614fbb600086018261519c565b506020830151614fce602086018261519c565b5060408301518482036040860152614fe68282614e43565b915050606083015184820360608601526150008282614e43565b9150506080830151615015608086018261519c565b5060a083015184820360a086015261502d8282614e43565b91505060c083015184820360c08601526150478282614d52565b91505060e083015184820360e08601526150618282614e43565b91505061010083015184820361010086015261507d8282614e43565b915050610120830151615094610120860182614e34565b508091505092915050565b6000610140830160008301516150b8600086018261519c565b5060208301516150cb602086018261519c565b50604083015184820360408601526150e38282614e43565b915050606083015184820360608601526150fd8282614e43565b9150506080830151615112608086018261519c565b5060a083015184820360a086015261512a8282614e43565b91505060c083015184820360c08601526151448282614d52565b91505060e083015184820360e086015261515e8282614e43565b91505061010083015184820361010086015261517a8282614e43565b915050610120830151615191610120860182614e34565b508091505092915050565b6151a5816154f4565b82525050565b6151b4816154f4565b82525050565b60006151c68284614e7c565b915081905092915050565b60006020820190506151e66000830184614d43565b92915050565b600060208201905081810360008301526152068184614db0565b905092915050565b60006020820190506152236000830184614e25565b92915050565b6000602082019050818103600083015261524281614ead565b9050919050565b6000602082019050818103600083015261526281614ed0565b9050919050565b6000602082019050818103600083015261528281614ef3565b9050919050565b600060208201905081810360008301526152a281614f16565b9050919050565b600060208201905081810360008301526152c281614f39565b9050919050565b600060208201905081810360008301526152e281614f5c565b9050919050565b6000602082019050818103600083015261530281614f7f565b9050919050565b60006020820190508181036000830152615323818461509f565b905092915050565b600060208201905061534060008301846151ab565b92915050565b600060408201905061535b60008301856151ab565b6153686020830184614d43565b9392505050565b600061537961538a565b90506153858282615584565b919050565b6000604051905090565b600067ffffffffffffffff8211156153af576153ae6156e9565b5b6153b88261572c565b9050602081019050919050565b6000819050602082019050919050565b6000819050602082019050919050565b600081519050919050565b600081519050919050565b600081519050919050565b6000602082019050919050565b6000602082019050919050565b600082825260208201905092915050565b600082825260208201905092915050565b600082825260208201905092915050565b600082825260208201905092915050565b600081905092915050565b600061547a826154f4565b9150615485836154f4565b925082821015615498576154976155fe565b5b828203905092915050565b60006154ae826154d4565b9050919050565b60008115159050919050565b60008190506154cf8261591a565b919050565b600073ffffffffffffffffffffffffffffffffffffffff82169050919050565b6000819050919050565b6000615509826154c1565b9050919050565b82818337600083830152505050565b60005b8381101561553d578082015181840152602081019050615522565b8381111561554c576000848401525b50505050565b6000600282049050600182168061556a57607f821691505b6020821081141561557e5761557d61565c565b5b50919050565b61558d8261572c565b810181811067ffffffffffffffff821117156155ac576155ab6156e9565b5b80604052505050565b60006155c0826154f4565b91507fffffffffffffffffffffffffffffffffffffffffffffffffffffffffffffffff8214156155f3576155f26155fe565b5b600182019050919050565b7f4e487b7100000000000000000000000000000000000000000000000000000000600052601160045260246000fd5b7f4e487b7100000000000000000000000000000000000000000000000000000000600052602160045260246000fd5b7f4e487b7100000000000000000000000000000000000000000000000000000000600052602260045260246000fd5b7f4e487b7100000000000000000000000000000000000000000000000000000000600052603160045260246000fd5b7f4e487b7100000000000000000000000000000000000000000000000000000000600052603260045260246000fd5b7f4e487b7100000000000000000000000000000000000000000000000000000000600052604160045260246000fd5b600080fd5b600080fd5b600080fd5b600080fd5b6000601f19601f8301169050919050565b7f4f776e61626c653a206e6577206f776e657220697320746865207a65726f206160008201527f6464726573730000000000000000000000000000000000000000000000000000602082015250565b7f446f634d616e616765723a204365747465207574696c69736174657572206e2760008201527f657869737465207061732e000000000000000000000000000000000000000000602082015250565b7f536176654d79446f633a204c276164647265737320736f75726365206574206460008201527f652064657374696e6174696f6e20736f6e74206964656e746971756500000000602082015250565b7f4f776e61626c653a2063616c6c6572206973206e6f7420746865206f776e6572600082015250565b7f546f6b656e4d616e616765723a20436574204e4654206e6520766f757320617060008201527f7061727469656e74207061732021000000000000000000000000000000000000602082015250565b7f436574204e4654206e6520766f75732061707061727469656e74207061732021600082015250565b7f546f6b656e4d616e616765723a20436520646f63756d656e7420636f7272657360008201527f706f6e64206120756e204e4654206f6666696369656c2e000000000000000000602082015250565b6004811061592b5761592a61562d565b5b50565b615937816154a3565b811461594257600080fd5b50565b61594e816154b5565b811461595957600080fd5b50565b6004811061596957600080fd5b50565b615975816154f4565b811461598057600080fd5b5056fea2646970667358221220337b7d5d3db2471da66c241f2a493d5180eecdbc789fadb15c012cabdc25d6b564736f6c63430008060033",
  "immutableReferences": {},
  "source": "//SPDX-License-Identifier: MIT\n\npragma solidity 0.8.6;\n\nimport \"@openzeppelin/contracts/access/Ownable.sol\";\nimport \"./SaveDocToken.sol\";\nimport \"./AccountManager.sol\";\nimport \"./NFT.sol\";\n\ncontract DocManager is Ownable, NFT\n{\n    mapping(string => bool) hashDocs;\n    SaveDocToken private saveDocToken;\n    AccountManager private accountManager;\n    mapping(address => mapping(TypeDoc => Document[])) private documents;\n\n    constructor(SaveDocToken _saveDocToken, AccountManager _accountManager)\n    {\n        saveDocToken = _saveDocToken;\n        accountManager = _accountManager;\n    }\n\n    modifier userExist(address addressUser)\n    {\n        require(accountManager.checkIfUserExist(addressUser), \"DocManager: Cette utilisateur n'existe pas.\");\n        _;\n    }\n\n    modifier isMyToken(uint256 tokenID, address ownerNFT)\n    {\n        require(saveDocToken.ownerOf(tokenID) == ownerNFT, \"TokenManager: Cet NFT ne vous appartient pas !\");\n        _;\n    }\n\n    modifier addressesAreDifferent(address from, address to)\n    {\n        require(from != to, \"SaveMyDoc: L'address source et de destination sont identique\");\n        _;\n    }\n\n    function getIndexNFT(address ownerNFT, TypeDoc typeNft, uint tokenID) public view onlyOwner() returns(uint)\n    {\n        bool found;\n        uint256 index;\n        // Document[] memory nft;\n\n        // if (isCopy)\n        // {\n        //     nft = documents[ownerNFT][typeNft];\n        // }\n        // else\n        // {\n        //     nft = documents[ownerNFT][TypeDoc.Original];\n        // }\n\n        for (uint256 i = 0; i < documents[ownerNFT][typeNft].length; i++)\n        {\n            if (tokenID == documents[ownerNFT][typeNft][i].tokenID)\n            {\n                index = i;\n                found = true;\n                i = documents[ownerNFT][typeNft].length;\n            }\n        }\n\n        require(found, \"Cet NFT ne vous appartient pas !\");\n        return index;\n    }\n\n    function createDoc(address ownerNFT, uint256 tokenID, string memory tokenName, string memory tokenMime, uint256 tokenLength, string memory filePath, string memory passwordEncrypted, string memory hashNFT) public returns (Document memory)\n    {\n        //check que l'utilisateur existe\n       require(!isOfficielDoc(hashNFT), \"TokenManager: Ce document correspond a un NFT officiel.\");\n       Document memory nft;\n       address[] memory certifyings;\n\n       nft = Document(tokenID, tokenLength, tokenName, tokenMime, block.timestamp, filePath, certifyings, \"\", passwordEncrypted, TypeDoc.Original);\n\n       documents[ownerNFT][TypeDoc.Original].push(nft);\n       return nft;\n    }\n\n    // function createNFTCertified(string memory tokenName, string memory tokenURI, string memory tokenMime, uint256 tokenLength, string memory filePath, string memory passwordEncrypted) public returns(Nft memory)\n    // {\n    //   uint256 tokenID;\n    //   Nft memory nft;\n    //   address[] memory certifyings;\n\n    //   certifyings[0] = msg.sender;\n    //   tokenID = saveMyDocToken.addItem(ownerNFT, tokenURI);\n    //   nft = Nft(tokenID, tokenLength, tokenName, tokenMime, block.timestamp, filePath, certifyings , \"\", passwordEncrypted, TypeNFT.Original, true);\n\n    //   balance[ownerNFT].push(nft);\n\n    //   return nft;\n    // }\n\n    function getDocs() public view returns(Document[] memory)\n    {\n        //check que l'utilisateur existe\n      return documents[msg.sender][TypeDoc.Original];\n    }\n\n    function deleteDoc(address ownerDoc, uint256 tokenID, bool isCopyDoc) external onlyOwner() isMyToken(tokenID, ownerDoc) returns(bool)\n    {\n        uint256 index = getIndexNFT(ownerDoc, TypeDoc.Original, tokenID);\n\n        documents[ownerDoc][TypeDoc.Original][index] = documents[ownerDoc][TypeDoc.Original][documents[ownerDoc][TypeDoc.Original].length - 1];\n        documents[ownerDoc][TypeDoc.Original].pop();\n\n        if (!isCopyDoc)\n        {\n            saveDocToken.burn(tokenID, msg.sender);\n        }\n        return true;\n    }\n\n    // TODO how burn tokens\n    function deleteAllDocs() public\n    {\n        delete documents[msg.sender][TypeDoc.Original];\n    }\n\n    function createCopyDoc(address provider, address ownerCopyNFT, uint256 tokenID, string memory tokenURI, TypeDoc typeNft) onlyOwner() addressesAreDifferent(provider, ownerCopyNFT) isMyToken(tokenID, provider) userExist(provider) userExist(ownerCopyNFT) public\n    {\n        //TODO\n        // check qu'une copie avec le meme tokenID n'exite pas deja\n        Document memory nft;\n        Document memory nftCopy;\n\n        nft = documents[provider][TypeDoc.Original][getIndexNFT(provider, TypeDoc.Original, tokenID)];\n        nftCopy = Document(tokenID, nft.fileSize, nft.filename, nft.fileMimeType, block.timestamp, nft.filePath, nft.certifying, tokenURI, \"\", typeNft);\n        documents[ownerCopyNFT][typeNft].push(nftCopy);\n    }\n\n    function getAllCopyShared() public view returns(Document[] memory)\n    {\n        // check si user exist\n        return documents[msg.sender][TypeDoc.CopyShared];\n    }\n\n    function getAllCopyPendingTransfer() public view returns(Document[] memory)\n    {\n        // check si user exist\n        return documents[msg.sender][TypeDoc.CopyPendingTransfer];\n    }\n\n    function getAllCopyCertified() public view returns(Document[] memory)\n    {\n        // check si user exist\n        return documents[msg.sender][TypeDoc.CopyCertified];\n    }\n\n    function delCopyDoc(address ownerNFT, TypeDoc typeNft, uint256 index) public onlyOwner()\n    {\n        // check si user exist\n        Document memory substitute;\n\n        substitute = documents[ownerNFT][typeNft][documents[ownerNFT][typeNft].length - 1];\n        documents[ownerNFT][typeNft][index] = substitute;\n        documents[ownerNFT][typeNft].pop();\n    }\n\n    function delAllCopyNFT(address ownerNFT) public onlyOwner()\n    {\n        // check si user exist\n        delete documents[ownerNFT][TypeDoc.CopyShared];\n        delete documents[ownerNFT][TypeDoc.CopyCertified];\n        delete documents[ownerNFT][TypeDoc.CopyPendingTransfer];\n    }\n\n    function certify(address certifying, address dest, uint256 tokenID, string memory hashNFT) onlyOwner() public\n    {\n        uint256 index;\n\n        if (accountManager.isAuthority(certifying))\n        {\n            hashDocs[hashNFT] = true;\n        }\n        index = getIndexNFT(dest, TypeDoc.Original, tokenID);\n        documents[dest][TypeDoc.Original][index].certifying.push(certifying);\n    }\n\n    function copyDocToOriginal(address ownerCopyNFT, TypeDoc typeNft, string memory passwordEncrypted, uint256 tokenID) public isMyToken(tokenID, ownerCopyNFT) onlyOwner()\n    {\n        Document memory newNFT;\n        uint256 index;\n\n        index = getIndexNFT(ownerCopyNFT, typeNft, tokenID);\n        newNFT = documents[ownerCopyNFT][typeNft][index];\n        newNFT.tokenURI = \"\";\n        newNFT.typeNft = TypeDoc.Original;\n        newNFT.dateAdd = block.timestamp;\n        newNFT.passwordEncrypted = passwordEncrypted;\n        documents[ownerCopyNFT][TypeDoc.Original].push(newNFT);\n        delCopyDoc(ownerCopyNFT, typeNft, index);\n    }\n\n    function getOwnerToken(uint256 tokenID) public view returns(address)\n    {\n        return saveDocToken.ownerOf(tokenID);\n    }\n\n    function isOfficielDoc(string memory hashNFT) public view returns(bool)\n    {\n        return hashDocs[hashNFT];\n    }\n}\n",
  "sourcePath": "/home/traore/projects/SAV-Doc/contracts/DocManager.sol",
  "compiler": {
    "name": "solc",
    "version": "0.8.6+commit.11564f7e.Emscripten.clang"
  },
  "schemaVersion": "3.4.1",
  "updatedAt": "2021-07-29T13:21:06.592Z",
  "networkType": "ethereum",
  "devdoc": {
    "kind": "dev",
    "methods": {
      "owner()": {
        "details": "Returns the address of the current owner."
      },
      "renounceOwnership()": {
        "details": "Leaves the contract without owner. It will not be possible to call `onlyOwner` functions anymore. Can only be called by the current owner. NOTE: Renouncing ownership will leave the contract without an owner, thereby removing any functionality that is only available to the owner."
      },
      "transferOwnership(address)": {
        "details": "Transfers ownership of the contract to a new account (`newOwner`). Can only be called by the current owner."
      }
    },
    "version": 1
  },
  "userdoc": {
    "kind": "user",
    "methods": {},
    "version": 1
  }
}