{
  "contractName": "DocManager",
  "abi": [
    {
      "anonymous": false,
      "inputs": [
        {
          "indexed": true,
          "internalType": "address",
          "name": "previousOwner",
          "type": "address"
        },
        {
          "indexed": true,
          "internalType": "address",
          "name": "newOwner",
          "type": "address"
        }
      ],
      "name": "OwnershipTransferred",
      "type": "event"
    },
    {
      "inputs": [],
      "name": "owner",
      "outputs": [
        {
          "internalType": "address",
          "name": "",
          "type": "address"
        }
      ],
      "stateMutability": "view",
      "type": "function",
      "constant": true
    },
    {
      "inputs": [],
      "name": "renounceOwnership",
      "outputs": [],
      "stateMutability": "nonpayable",
      "type": "function"
    },
    {
      "inputs": [
        {
          "internalType": "address",
          "name": "newOwner",
          "type": "address"
        }
      ],
      "name": "transferOwnership",
      "outputs": [],
      "stateMutability": "nonpayable",
      "type": "function"
    },
    {
      "inputs": [
        {
          "internalType": "address",
          "name": "ownerNFT",
          "type": "address"
        },
        {
          "internalType": "enum SaveDocStruct.TypeDoc",
          "name": "typeNft",
          "type": "uint8"
        },
        {
          "internalType": "uint256",
          "name": "tokenID",
          "type": "uint256"
        }
      ],
      "name": "getIndexNFT",
      "outputs": [
        {
          "internalType": "uint256",
          "name": "",
          "type": "uint256"
        }
      ],
      "stateMutability": "view",
      "type": "function",
      "constant": true
    },
    {
      "inputs": [
        {
          "internalType": "address",
          "name": "ownerNFT",
          "type": "address"
        },
        {
          "internalType": "uint256",
          "name": "tokenID",
          "type": "uint256"
        },
        {
          "internalType": "string",
          "name": "tokenName",
          "type": "string"
        },
        {
          "internalType": "string",
          "name": "tokenMime",
          "type": "string"
        },
        {
          "internalType": "uint256",
          "name": "tokenLength",
          "type": "uint256"
        },
        {
          "internalType": "string",
          "name": "filePath",
          "type": "string"
        },
        {
          "internalType": "string",
          "name": "passwordEncrypted",
          "type": "string"
        },
        {
          "internalType": "string",
          "name": "hashNFT",
          "type": "string"
        }
      ],
      "name": "createDoc",
      "outputs": [
        {
          "components": [
            {
              "internalType": "uint256",
              "name": "tokenID",
              "type": "uint256"
            },
            {
              "internalType": "uint256",
              "name": "fileSize",
              "type": "uint256"
            },
            {
              "internalType": "string",
              "name": "filename",
              "type": "string"
            },
            {
              "internalType": "string",
              "name": "fileMimeType",
              "type": "string"
            },
            {
              "internalType": "uint256",
              "name": "dateAdd",
              "type": "uint256"
            },
            {
              "internalType": "string",
              "name": "filePath",
              "type": "string"
            },
            {
              "internalType": "address[]",
              "name": "certifying",
              "type": "address[]"
            },
            {
              "internalType": "string",
              "name": "tokenURI",
              "type": "string"
            },
            {
              "internalType": "string",
              "name": "passwordEncrypted",
              "type": "string"
            },
            {
              "internalType": "enum SaveDocStruct.TypeDoc",
              "name": "typeNft",
              "type": "uint8"
            }
          ],
          "internalType": "struct SaveDocStruct.Document",
          "name": "",
          "type": "tuple"
        }
      ],
      "stateMutability": "nonpayable",
      "type": "function"
    },
    {
      "inputs": [
        {
          "internalType": "address",
          "name": "addressUser",
          "type": "address"
        }
      ],
      "name": "getDocs",
      "outputs": [
        {
          "components": [
            {
              "internalType": "uint256",
              "name": "tokenID",
              "type": "uint256"
            },
            {
              "internalType": "uint256",
              "name": "fileSize",
              "type": "uint256"
            },
            {
              "internalType": "string",
              "name": "filename",
              "type": "string"
            },
            {
              "internalType": "string",
              "name": "fileMimeType",
              "type": "string"
            },
            {
              "internalType": "uint256",
              "name": "dateAdd",
              "type": "uint256"
            },
            {
              "internalType": "string",
              "name": "filePath",
              "type": "string"
            },
            {
              "internalType": "address[]",
              "name": "certifying",
              "type": "address[]"
            },
            {
              "internalType": "string",
              "name": "tokenURI",
              "type": "string"
            },
            {
              "internalType": "string",
              "name": "passwordEncrypted",
              "type": "string"
            },
            {
              "internalType": "enum SaveDocStruct.TypeDoc",
              "name": "typeNft",
              "type": "uint8"
            }
          ],
          "internalType": "struct SaveDocStruct.Document[]",
          "name": "",
          "type": "tuple[]"
        }
      ],
      "stateMutability": "view",
      "type": "function",
      "constant": true
    },
    {
      "inputs": [
        {
          "internalType": "address",
          "name": "ownerDoc",
          "type": "address"
        },
        {
          "internalType": "uint256",
          "name": "tokenID",
          "type": "uint256"
        }
      ],
      "name": "deleteDoc",
      "outputs": [
        {
          "internalType": "bool",
          "name": "",
          "type": "bool"
        }
      ],
      "stateMutability": "nonpayable",
      "type": "function"
    },
    {
      "inputs": [
        {
          "internalType": "address",
          "name": "addressUser",
          "type": "address"
        }
      ],
      "name": "deleteAllDocs",
      "outputs": [],
      "stateMutability": "nonpayable",
      "type": "function"
    },
    {
      "inputs": [
        {
          "internalType": "address",
          "name": "provider",
          "type": "address"
        },
        {
          "internalType": "address",
          "name": "ownerCopyNFT",
          "type": "address"
        },
        {
          "internalType": "uint256",
          "name": "tokenID",
          "type": "uint256"
        },
        {
          "internalType": "string",
          "name": "tokenURI",
          "type": "string"
        },
        {
          "internalType": "enum SaveDocStruct.TypeDoc",
          "name": "typeNft",
          "type": "uint8"
        }
      ],
      "name": "createCopyDoc",
      "outputs": [],
      "stateMutability": "nonpayable",
      "type": "function"
    },
    {
      "inputs": [
        {
          "internalType": "address",
          "name": "addressUser",
          "type": "address"
        }
      ],
      "name": "getAllCopyShared",
      "outputs": [
        {
          "components": [
            {
              "internalType": "uint256",
              "name": "tokenID",
              "type": "uint256"
            },
            {
              "internalType": "uint256",
              "name": "fileSize",
              "type": "uint256"
            },
            {
              "internalType": "string",
              "name": "filename",
              "type": "string"
            },
            {
              "internalType": "string",
              "name": "fileMimeType",
              "type": "string"
            },
            {
              "internalType": "uint256",
              "name": "dateAdd",
              "type": "uint256"
            },
            {
              "internalType": "string",
              "name": "filePath",
              "type": "string"
            },
            {
              "internalType": "address[]",
              "name": "certifying",
              "type": "address[]"
            },
            {
              "internalType": "string",
              "name": "tokenURI",
              "type": "string"
            },
            {
              "internalType": "string",
              "name": "passwordEncrypted",
              "type": "string"
            },
            {
              "internalType": "enum SaveDocStruct.TypeDoc",
              "name": "typeNft",
              "type": "uint8"
            }
          ],
          "internalType": "struct SaveDocStruct.Document[]",
          "name": "",
          "type": "tuple[]"
        }
      ],
      "stateMutability": "view",
      "type": "function",
      "constant": true
    },
    {
      "inputs": [
        {
          "internalType": "address",
          "name": "addressUser",
          "type": "address"
        }
      ],
      "name": "getAllCopyPendingTransfer",
      "outputs": [
        {
          "components": [
            {
              "internalType": "uint256",
              "name": "tokenID",
              "type": "uint256"
            },
            {
              "internalType": "uint256",
              "name": "fileSize",
              "type": "uint256"
            },
            {
              "internalType": "string",
              "name": "filename",
              "type": "string"
            },
            {
              "internalType": "string",
              "name": "fileMimeType",
              "type": "string"
            },
            {
              "internalType": "uint256",
              "name": "dateAdd",
              "type": "uint256"
            },
            {
              "internalType": "string",
              "name": "filePath",
              "type": "string"
            },
            {
              "internalType": "address[]",
              "name": "certifying",
              "type": "address[]"
            },
            {
              "internalType": "string",
              "name": "tokenURI",
              "type": "string"
            },
            {
              "internalType": "string",
              "name": "passwordEncrypted",
              "type": "string"
            },
            {
              "internalType": "enum SaveDocStruct.TypeDoc",
              "name": "typeNft",
              "type": "uint8"
            }
          ],
          "internalType": "struct SaveDocStruct.Document[]",
          "name": "",
          "type": "tuple[]"
        }
      ],
      "stateMutability": "view",
      "type": "function",
      "constant": true
    },
    {
      "inputs": [
        {
          "internalType": "address",
          "name": "addressUser",
          "type": "address"
        }
      ],
      "name": "getAllCopyCertified",
      "outputs": [
        {
          "components": [
            {
              "internalType": "uint256",
              "name": "tokenID",
              "type": "uint256"
            },
            {
              "internalType": "uint256",
              "name": "fileSize",
              "type": "uint256"
            },
            {
              "internalType": "string",
              "name": "filename",
              "type": "string"
            },
            {
              "internalType": "string",
              "name": "fileMimeType",
              "type": "string"
            },
            {
              "internalType": "uint256",
              "name": "dateAdd",
              "type": "uint256"
            },
            {
              "internalType": "string",
              "name": "filePath",
              "type": "string"
            },
            {
              "internalType": "address[]",
              "name": "certifying",
              "type": "address[]"
            },
            {
              "internalType": "string",
              "name": "tokenURI",
              "type": "string"
            },
            {
              "internalType": "string",
              "name": "passwordEncrypted",
              "type": "string"
            },
            {
              "internalType": "enum SaveDocStruct.TypeDoc",
              "name": "typeNft",
              "type": "uint8"
            }
          ],
          "internalType": "struct SaveDocStruct.Document[]",
          "name": "",
          "type": "tuple[]"
        }
      ],
      "stateMutability": "view",
      "type": "function",
      "constant": true
    },
    {
      "inputs": [
        {
          "internalType": "address",
          "name": "ownerCopyNFT",
          "type": "address"
        },
        {
          "internalType": "enum SaveDocStruct.TypeDoc",
          "name": "typeDocSc",
          "type": "uint8"
        },
        {
          "internalType": "enum SaveDocStruct.TypeDoc",
          "name": "typeDocDst",
          "type": "uint8"
        },
        {
          "internalType": "uint256",
          "name": "tokenID",
          "type": "uint256"
        },
        {
          "internalType": "string",
          "name": "passwordEncrypted",
          "type": "string"
        }
      ],
      "name": "convertTypeDoc",
      "outputs": [],
      "stateMutability": "nonpayable",
      "type": "function"
    },
    {
      "inputs": [
        {
          "internalType": "address",
          "name": "ownerNFT",
          "type": "address"
        },
        {
          "internalType": "enum SaveDocStruct.TypeDoc",
          "name": "typeNft",
          "type": "uint8"
        },
        {
          "internalType": "uint256",
          "name": "index",
          "type": "uint256"
        }
      ],
      "name": "delCopyDoc",
      "outputs": [],
      "stateMutability": "nonpayable",
      "type": "function"
    },
    {
      "inputs": [
        {
          "internalType": "address",
          "name": "ownerNFT",
          "type": "address"
        }
      ],
      "name": "delAllCopyDoc",
      "outputs": [],
      "stateMutability": "nonpayable",
      "type": "function"
    },
    {
      "inputs": [
        {
          "internalType": "address",
          "name": "certifying",
          "type": "address"
        },
        {
          "internalType": "bool",
          "name": "isAuthority",
          "type": "bool"
        },
        {
          "internalType": "address",
          "name": "dest",
          "type": "address"
        },
        {
          "internalType": "uint256",
          "name": "tokenID",
          "type": "uint256"
        },
        {
          "internalType": "string",
          "name": "hashNFT",
          "type": "string"
        }
      ],
      "name": "certify",
      "outputs": [],
      "stateMutability": "nonpayable",
      "type": "function"
    }
  ],
  "bytecode": "0x60806040523480156200001157600080fd5b5062000032620000266200003860201b60201c565b6200004060201b60201c565b62000104565b600033905090565b60008060009054906101000a900473ffffffffffffffffffffffffffffffffffffffff169050816000806101000a81548173ffffffffffffffffffffffffffffffffffffffff021916908373ffffffffffffffffffffffffffffffffffffffff1602179055508173ffffffffffffffffffffffffffffffffffffffff168173ffffffffffffffffffffffffffffffffffffffff167f8be0079c531659141344cd1fd0a4f28419497f9722a3daafe3b4186f6b6457e060405160405180910390a35050565b6154fc80620001146000396000f3fe608060405234801561001057600080fd5b50600436106101005760003560e01c806389ed5fa011610097578063bbed945711610066578063bbed9457146102a9578063bd53176b146102d9578063d83e2027146102f5578063f2fde38b1461032557610100565b806389ed5fa01461020f5780638c6acc511461023f5780638da5cb5b1461025b5780639643062c1461027957610100565b80635d1e7927116100d35780635d1e79271461019d57806371499a7b146101b9578063715018a6146101d55780637cc24f2d146101df57610100565b806304e5b45c14610105578063219e657b146101355780634531817d1461016557806351685f3514610181575b600080fd5b61011f600480360381019061011a919061453f565b610341565b60405161012c9190614dc7565b60405180910390f35b61014f600480360381019061014a919061453f565b610852565b60405161015c9190614dc7565b60405180910390f35b61017f600480360381019061017a9190614731565b610d63565b005b61019b6004803603810190610196919061453f565b611592565b005b6101b760048036038101906101b29190614603565b611793565b005b6101d360048036038101906101ce919061456c565b61195c565b005b6101dd6120ed565b005b6101f960048036038101906101f49190614731565b612175565b6040516102069190614ee6565b60405180910390f35b61022960048036038101906102249190614784565b6123f9565b6040516102369190614de9565b60405180910390f35b6102596004803603810190610254919061469a565b61287b565b005b610263613031565b6040516102709190614dac565b60405180910390f35b610293600480360381019061028e91906147c4565b61305a565b6040516102a09190614ec4565b60405180910390f35b6102c360048036038101906102be919061453f565b61334a565b6040516102d09190614dc7565b60405180910390f35b6102f360048036038101906102ee919061453f565b61385c565b005b61030f600480360381019061030a919061453f565b61395b565b60405161031c9190614dc7565b60405180910390f35b61033f600480360381019061033a919061453f565b613e6d565b005b606061034b613f65565b73ffffffffffffffffffffffffffffffffffffffff16610369613031565b73ffffffffffffffffffffffffffffffffffffffff16146103bf576040517f08c379a00000000000000000000000000000000000000000000000000000000081526004016103b690614e64565b60405180910390fd5b600260008373ffffffffffffffffffffffffffffffffffffffff1673ffffffffffffffffffffffffffffffffffffffff1681526020019081526020016000206000600380811115610413576104126151bf565b5b6003811115610425576104246151bf565b5b8152602001908152602001600020805480602002602001604051908101604052809291908181526020016000905b8282101561084757838290600052602060002090600a020160405180610140016040529081600082015481526020016001820154815260200160028201805461049b906150e4565b80601f01602080910402602001604051908101604052809291908181526020018280546104c7906150e4565b80156105145780601f106104e957610100808354040283529160200191610514565b820191906000526020600020905b8154815290600101906020018083116104f757829003601f168201915b5050505050815260200160038201805461052d906150e4565b80601f0160208091040260200160405190810160405280929190818152602001828054610559906150e4565b80156105a65780601f1061057b576101008083540402835291602001916105a6565b820191906000526020600020905b81548152906001019060200180831161058957829003601f168201915b50505050508152602001600482015481526020016005820180546105c9906150e4565b80601f01602080910402602001604051908101604052809291908181526020018280546105f5906150e4565b80156106425780601f1061061757610100808354040283529160200191610642565b820191906000526020600020905b81548152906001019060200180831161062557829003601f168201915b50505050508152602001600682018054806020026020016040519081016040528092919081815260200182805480156106d057602002820191906000526020600020905b8160009054906101000a900473ffffffffffffffffffffffffffffffffffffffff1673ffffffffffffffffffffffffffffffffffffffff1681526020019060010190808311610686575b505050505081526020016007820180546106e9906150e4565b80601f0160208091040260200160405190810160405280929190818152602001828054610715906150e4565b80156107625780601f1061073757610100808354040283529160200191610762565b820191906000526020600020905b81548152906001019060200180831161074557829003601f168201915b5050505050815260200160088201805461077b906150e4565b80601f01602080910402602001604051908101604052809291908181526020018280546107a7906150e4565b80156107f45780601f106107c9576101008083540402835291602001916107f4565b820191906000526020600020905b8154815290600101906020018083116107d757829003601f168201915b505050505081526020016009820160009054906101000a900460ff166003811115610822576108216151bf565b5b6003811115610834576108336151bf565b5b8152505081526020019060010190610453565b505050509050919050565b606061085c613f65565b73ffffffffffffffffffffffffffffffffffffffff1661087a613031565b73ffffffffffffffffffffffffffffffffffffffff16146108d0576040517f08c379a00000000000000000000000000000000000000000000000000000000081526004016108c790614e64565b60405180910390fd5b600260008373ffffffffffffffffffffffffffffffffffffffff1673ffffffffffffffffffffffffffffffffffffffff1681526020019081526020016000206000806003811115610924576109236151bf565b5b6003811115610936576109356151bf565b5b8152602001908152602001600020805480602002602001604051908101604052809291908181526020016000905b82821015610d5857838290600052602060002090600a02016040518061014001604052908160008201548152602001600182015481526020016002820180546109ac906150e4565b80601f01602080910402602001604051908101604052809291908181526020018280546109d8906150e4565b8015610a255780601f106109fa57610100808354040283529160200191610a25565b820191906000526020600020905b815481529060010190602001808311610a0857829003601f168201915b50505050508152602001600382018054610a3e906150e4565b80601f0160208091040260200160405190810160405280929190818152602001828054610a6a906150e4565b8015610ab75780601f10610a8c57610100808354040283529160200191610ab7565b820191906000526020600020905b815481529060010190602001808311610a9a57829003601f168201915b5050505050815260200160048201548152602001600582018054610ada906150e4565b80601f0160208091040260200160405190810160405280929190818152602001828054610b06906150e4565b8015610b535780601f10610b2857610100808354040283529160200191610b53565b820191906000526020600020905b815481529060010190602001808311610b3657829003601f168201915b5050505050815260200160068201805480602002602001604051908101604052809291908181526020018280548015610be157602002820191906000526020600020905b8160009054906101000a900473ffffffffffffffffffffffffffffffffffffffff1673ffffffffffffffffffffffffffffffffffffffff1681526020019060010190808311610b97575b50505050508152602001600782018054610bfa906150e4565b80601f0160208091040260200160405190810160405280929190818152602001828054610c26906150e4565b8015610c735780601f10610c4857610100808354040283529160200191610c73565b820191906000526020600020905b815481529060010190602001808311610c5657829003601f168201915b50505050508152602001600882018054610c8c906150e4565b80601f0160208091040260200160405190810160405280929190818152602001828054610cb8906150e4565b8015610d055780601f10610cda57610100808354040283529160200191610d05565b820191906000526020600020905b815481529060010190602001808311610ce857829003601f168201915b505050505081526020016009820160009054906101000a900460ff166003811115610d3357610d326151bf565b5b6003811115610d4557610d446151bf565b5b8152505081526020019060010190610964565b505050509050919050565b610d6b613f65565b73ffffffffffffffffffffffffffffffffffffffff16610d89613031565b73ffffffffffffffffffffffffffffffffffffffff1614610ddf576040517f08c379a0000000000000000000000000000000000000000000000000000000008152600401610dd690614e64565b60405180910390fd5b610de76140e2565b600260008573ffffffffffffffffffffffffffffffffffffffff1673ffffffffffffffffffffffffffffffffffffffff1681526020019081526020016000206000846003811115610e3b57610e3a6151bf565b5b6003811115610e4d57610e4c6151bf565b5b81526020019081526020016000206001600260008773ffffffffffffffffffffffffffffffffffffffff1673ffffffffffffffffffffffffffffffffffffffff1681526020019081526020016000206000866003811115610eb157610eb06151bf565b5b6003811115610ec357610ec26151bf565b5b815260200190815260200160002080549050610edf9190615001565b81548110610ef057610eef61524c565b5b90600052602060002090600a0201604051806101400160405290816000820154815260200160018201548152602001600282018054610f2e906150e4565b80601f0160208091040260200160405190810160405280929190818152602001828054610f5a906150e4565b8015610fa75780601f10610f7c57610100808354040283529160200191610fa7565b820191906000526020600020905b815481529060010190602001808311610f8a57829003601f168201915b50505050508152602001600382018054610fc0906150e4565b80601f0160208091040260200160405190810160405280929190818152602001828054610fec906150e4565b80156110395780601f1061100e57610100808354040283529160200191611039565b820191906000526020600020905b81548152906001019060200180831161101c57829003601f168201915b505050505081526020016004820154815260200160058201805461105c906150e4565b80601f0160208091040260200160405190810160405280929190818152602001828054611088906150e4565b80156110d55780601f106110aa576101008083540402835291602001916110d5565b820191906000526020600020905b8154815290600101906020018083116110b857829003601f168201915b505050505081526020016006820180548060200260200160405190810160405280929190818152602001828054801561116357602002820191906000526020600020905b8160009054906101000a900473ffffffffffffffffffffffffffffffffffffffff1673ffffffffffffffffffffffffffffffffffffffff1681526020019060010190808311611119575b5050505050815260200160078201805461117c906150e4565b80601f01602080910402602001604051908101604052809291908181526020018280546111a8906150e4565b80156111f55780601f106111ca576101008083540402835291602001916111f5565b820191906000526020600020905b8154815290600101906020018083116111d857829003601f168201915b5050505050815260200160088201805461120e906150e4565b80601f016020809104026020016040519081016040528092919081815260200182805461123a906150e4565b80156112875780601f1061125c57610100808354040283529160200191611287565b820191906000526020600020905b81548152906001019060200180831161126a57829003601f168201915b505050505081526020016009820160009054906101000a900460ff1660038111156112b5576112b46151bf565b5b60038111156112c7576112c66151bf565b5b81525050905080600260008673ffffffffffffffffffffffffffffffffffffffff1673ffffffffffffffffffffffffffffffffffffffff1681526020019081526020016000206000856003811115611322576113216151bf565b5b6003811115611334576113336151bf565b5b815260200190815260200160002083815481106113545761135361524c565b5b90600052602060002090600a020160008201518160000155602082015181600101556040820151816002019080519060200190611392929190614147565b5060608201518160030190805190602001906113af929190614147565b506080820151816004015560a08201518160050190805190602001906113d6929190614147565b5060c08201518160060190805190602001906113f39291906141cd565b5060e0820151816007019080519060200190611410929190614147565b5061010082015181600801908051906020019061142e929190614147565b506101208201518160090160006101000a81548160ff0219169083600381111561145b5761145a6151bf565b5b0217905550905050600260008573ffffffffffffffffffffffffffffffffffffffff1673ffffffffffffffffffffffffffffffffffffffff16815260200190815260200160002060008460038111156114b7576114b66151bf565b5b60038111156114c9576114c86151bf565b5b81526020019081526020016000208054806114e7576114e661521d565b5b60019003818190600052602060002090600a0201600080820160009055600182016000905560028201600061151c9190614257565b60038201600061152c9190614257565b60048201600090556005820160006115449190614257565b6006820160006115549190614297565b6007820160006115649190614257565b6008820160006115749190614257565b6009820160006101000a81549060ff02191690555050905550505050565b61159a613f65565b73ffffffffffffffffffffffffffffffffffffffff166115b8613031565b73ffffffffffffffffffffffffffffffffffffffff161461160e576040517f08c379a000000000000000000000000000000000000000000000000000000000815260040161160590614e64565b60405180910390fd5b600260008273ffffffffffffffffffffffffffffffffffffffff1673ffffffffffffffffffffffffffffffffffffffff168152602001908152602001600020600060016003811115611663576116626151bf565b5b6003811115611675576116746151bf565b5b8152602001908152602001600020600061168f91906142b8565b600260008273ffffffffffffffffffffffffffffffffffffffff1673ffffffffffffffffffffffffffffffffffffffff1681526020019081526020016000206000600260038111156116e4576116e36151bf565b5b60038111156116f6576116f56151bf565b5b8152602001908152602001600020600061171091906142b8565b600260008273ffffffffffffffffffffffffffffffffffffffff1673ffffffffffffffffffffffffffffffffffffffff1681526020019081526020016000206000600380811115611764576117636151bf565b5b6003811115611776576117756151bf565b5b8152602001908152602001600020600061179091906142b8565b50565b61179b613f65565b73ffffffffffffffffffffffffffffffffffffffff166117b9613031565b73ffffffffffffffffffffffffffffffffffffffff161461180f576040517f08c379a000000000000000000000000000000000000000000000000000000000815260040161180690614e64565b60405180910390fd5b6000841561184e57600180836040516118289190614d95565b908152602001604051809103902060006101000a81548160ff0219169083151502179055505b61185a84600085612175565b9050600260008573ffffffffffffffffffffffffffffffffffffffff1673ffffffffffffffffffffffffffffffffffffffff16815260200190815260200160002060008060038111156118b0576118af6151bf565b5b60038111156118c2576118c16151bf565b5b815260200190815260200160002081815481106118e2576118e161524c565b5b90600052602060002090600a0201600601869080600181540180825580915050600190039060005260206000200160009091909190916101000a81548173ffffffffffffffffffffffffffffffffffffffff021916908373ffffffffffffffffffffffffffffffffffffffff160217905550505050505050565b611964613f65565b73ffffffffffffffffffffffffffffffffffffffff16611982613031565b73ffffffffffffffffffffffffffffffffffffffff16146119d8576040517f08c379a00000000000000000000000000000000000000000000000000000000081526004016119cf90614e64565b60405180910390fd5b84848073ffffffffffffffffffffffffffffffffffffffff168273ffffffffffffffffffffffffffffffffffffffff161415611a49576040517f08c379a0000000000000000000000000000000000000000000000000000000008152600401611a4090614e44565b60405180910390fd5b611a516140e2565b611a596140e2565b600260008a73ffffffffffffffffffffffffffffffffffffffff1673ffffffffffffffffffffffffffffffffffffffff1681526020019081526020016000206000806003811115611aad57611aac6151bf565b5b6003811115611abf57611abe6151bf565b5b8152602001908152602001600020611ad98a60008a612175565b81548110611aea57611ae961524c565b5b90600052602060002090600a0201604051806101400160405290816000820154815260200160018201548152602001600282018054611b28906150e4565b80601f0160208091040260200160405190810160405280929190818152602001828054611b54906150e4565b8015611ba15780601f10611b7657610100808354040283529160200191611ba1565b820191906000526020600020905b815481529060010190602001808311611b8457829003601f168201915b50505050508152602001600382018054611bba906150e4565b80601f0160208091040260200160405190810160405280929190818152602001828054611be6906150e4565b8015611c335780601f10611c0857610100808354040283529160200191611c33565b820191906000526020600020905b815481529060010190602001808311611c1657829003601f168201915b5050505050815260200160048201548152602001600582018054611c56906150e4565b80601f0160208091040260200160405190810160405280929190818152602001828054611c82906150e4565b8015611ccf5780601f10611ca457610100808354040283529160200191611ccf565b820191906000526020600020905b815481529060010190602001808311611cb257829003601f168201915b5050505050815260200160068201805480602002602001604051908101604052809291908181526020018280548015611d5d57602002820191906000526020600020905b8160009054906101000a900473ffffffffffffffffffffffffffffffffffffffff1673ffffffffffffffffffffffffffffffffffffffff1681526020019060010190808311611d13575b50505050508152602001600782018054611d76906150e4565b80601f0160208091040260200160405190810160405280929190818152602001828054611da2906150e4565b8015611def5780601f10611dc457610100808354040283529160200191611def565b820191906000526020600020905b815481529060010190602001808311611dd257829003601f168201915b50505050508152602001600882018054611e08906150e4565b80601f0160208091040260200160405190810160405280929190818152602001828054611e34906150e4565b8015611e815780601f10611e5657610100808354040283529160200191611e81565b820191906000526020600020905b815481529060010190602001808311611e6457829003601f168201915b505050505081526020016009820160009054906101000a900460ff166003811115611eaf57611eae6151bf565b5b6003811115611ec157611ec06151bf565b5b8152505091506040518061014001604052808881526020018360200151815260200183604001518152602001836060015181526020014281526020018360a0015181526020018360c001518152602001878152602001604051806020016040528060008152508152602001866003811115611f3f57611f3e6151bf565b5b8152509050600260008973ffffffffffffffffffffffffffffffffffffffff1673ffffffffffffffffffffffffffffffffffffffff1681526020019081526020016000206000866003811115611f9857611f976151bf565b5b6003811115611faa57611fa96151bf565b5b81526020019081526020016000208190806001815401808255809150506001900390600052602060002090600a020160009091909190915060008201518160000155602082015181600101556040820151816002019080519060200190612012929190614147565b50606082015181600301908051906020019061202f929190614147565b506080820151816004015560a0820151816005019080519060200190612056929190614147565b5060c08201518160060190805190602001906120739291906141cd565b5060e0820151816007019080519060200190612090929190614147565b506101008201518160080190805190602001906120ae929190614147565b506101208201518160090160006101000a81548160ff021916908360038111156120db576120da6151bf565b5b02179055505050505050505050505050565b6120f5613f65565b73ffffffffffffffffffffffffffffffffffffffff16612113613031565b73ffffffffffffffffffffffffffffffffffffffff1614612169576040517f08c379a000000000000000000000000000000000000000000000000000000000815260040161216090614e64565b60405180910390fd5b6121736000613f6d565b565b600061217f613f65565b73ffffffffffffffffffffffffffffffffffffffff1661219d613031565b73ffffffffffffffffffffffffffffffffffffffff16146121f3576040517f08c379a00000000000000000000000000000000000000000000000000000000081526004016121ea90614e64565b60405180910390fd5b60008060005b600260008873ffffffffffffffffffffffffffffffffffffffff1673ffffffffffffffffffffffffffffffffffffffff168152602001908152602001600020600087600381111561224d5761224c6151bf565b5b600381111561225f5761225e6151bf565b5b8152602001908152602001600020805490508110156123ac57600260008873ffffffffffffffffffffffffffffffffffffffff1673ffffffffffffffffffffffffffffffffffffffff16815260200190815260200160002060008760038111156122cc576122cb6151bf565b5b60038111156122de576122dd6151bf565b5b815260200190815260200160002081815481106122fe576122fd61524c565b5b90600052602060002090600a0201600001548514156123995780915060019250600260008873ffffffffffffffffffffffffffffffffffffffff1673ffffffffffffffffffffffffffffffffffffffff1681526020019081526020016000206000876003811115612372576123716151bf565b5b6003811115612384576123836151bf565b5b81526020019081526020016000208054905090505b80806123a490615147565b9150506121f9565b50816123ed576040517f08c379a00000000000000000000000000000000000000000000000000000000081526004016123e490614e84565b60405180910390fd5b80925050509392505050565b6000612403613f65565b73ffffffffffffffffffffffffffffffffffffffff16612421613031565b73ffffffffffffffffffffffffffffffffffffffff1614612477576040517f08c379a000000000000000000000000000000000000000000000000000000000815260040161246e90614e64565b60405180910390fd5b600061248584600085612175565b9050600260008573ffffffffffffffffffffffffffffffffffffffff1673ffffffffffffffffffffffffffffffffffffffff16815260200190815260200160002060008060038111156124db576124da6151bf565b5b60038111156124ed576124ec6151bf565b5b81526020019081526020016000206001600260008773ffffffffffffffffffffffffffffffffffffffff1673ffffffffffffffffffffffffffffffffffffffff1681526020019081526020016000206000806003811115612551576125506151bf565b5b6003811115612563576125626151bf565b5b81526020019081526020016000208054905061257f9190615001565b815481106125905761258f61524c565b5b90600052602060002090600a0201600260008673ffffffffffffffffffffffffffffffffffffffff1673ffffffffffffffffffffffffffffffffffffffff16815260200190815260200160002060008060038111156125f2576125f16151bf565b5b6003811115612604576126036151bf565b5b815260200190815260200160002082815481106126245761262361524c565b5b90600052602060002090600a02016000820154816000015560018201548160010155600282018160020190805461265a906150e4565b6126659291906142dc565b50600382018160030190805461267a906150e4565b6126859291906142dc565b506004820154816004015560058201816005019080546126a4906150e4565b6126af9291906142dc565b5060068201816006019080546126c6929190614369565b5060078201816007019080546126db906150e4565b6126e69291906142dc565b5060088201816008019080546126fb906150e4565b6127069291906142dc565b506009820160009054906101000a900460ff168160090160006101000a81548160ff0219169083600381111561273f5761273e6151bf565b5b0217905550905050600260008573ffffffffffffffffffffffffffffffffffffffff1673ffffffffffffffffffffffffffffffffffffffff168152602001908152602001600020600080600381111561279b5761279a6151bf565b5b60038111156127ad576127ac6151bf565b5b81526020019081526020016000208054806127cb576127ca61521d565b5b60019003818190600052602060002090600a020160008082016000905560018201600090556002820160006128009190614257565b6003820160006128109190614257565b60048201600090556005820160006128289190614257565b6006820160006128389190614297565b6007820160006128489190614257565b6008820160006128589190614257565b6009820160006101000a81549060ff021916905550509055600191505092915050565b612883613f65565b73ffffffffffffffffffffffffffffffffffffffff166128a1613031565b73ffffffffffffffffffffffffffffffffffffffff16146128f7576040517f08c379a00000000000000000000000000000000000000000000000000000000081526004016128ee90614e64565b60405180910390fd5b600081511415801561292d575060006003811115612918576129176151bf565b5b83600381111561292b5761292a6151bf565b5b145b61296c576040517f08c379a000000000000000000000000000000000000000000000000000000000815260040161296390614e04565b60405180910390fd5b6129746140e2565b6000612981878786612175565b9050600260008873ffffffffffffffffffffffffffffffffffffffff1673ffffffffffffffffffffffffffffffffffffffff16815260200190815260200160002060008760038111156129d7576129d66151bf565b5b60038111156129e9576129e86151bf565b5b81526020019081526020016000208181548110612a0957612a0861524c565b5b90600052602060002090600a0201604051806101400160405290816000820154815260200160018201548152602001600282018054612a47906150e4565b80601f0160208091040260200160405190810160405280929190818152602001828054612a73906150e4565b8015612ac05780601f10612a9557610100808354040283529160200191612ac0565b820191906000526020600020905b815481529060010190602001808311612aa357829003601f168201915b50505050508152602001600382018054612ad9906150e4565b80601f0160208091040260200160405190810160405280929190818152602001828054612b05906150e4565b8015612b525780601f10612b2757610100808354040283529160200191612b52565b820191906000526020600020905b815481529060010190602001808311612b3557829003601f168201915b5050505050815260200160048201548152602001600582018054612b75906150e4565b80601f0160208091040260200160405190810160405280929190818152602001828054612ba1906150e4565b8015612bee5780601f10612bc357610100808354040283529160200191612bee565b820191906000526020600020905b815481529060010190602001808311612bd157829003601f168201915b5050505050815260200160068201805480602002602001604051908101604052809291908181526020018280548015612c7c57602002820191906000526020600020905b8160009054906101000a900473ffffffffffffffffffffffffffffffffffffffff1673ffffffffffffffffffffffffffffffffffffffff1681526020019060010190808311612c32575b50505050508152602001600782018054612c95906150e4565b80601f0160208091040260200160405190810160405280929190818152602001828054612cc1906150e4565b8015612d0e5780601f10612ce357610100808354040283529160200191612d0e565b820191906000526020600020905b815481529060010190602001808311612cf157829003601f168201915b50505050508152602001600882018054612d27906150e4565b80601f0160208091040260200160405190810160405280929190818152602001828054612d53906150e4565b8015612da05780601f10612d7557610100808354040283529160200191612da0565b820191906000526020600020905b815481529060010190602001808311612d8357829003601f168201915b505050505081526020016009820160009054906101000a900460ff166003811115612dce57612dcd6151bf565b5b6003811115612de057612ddf6151bf565b5b815250509150848261012001906003811115612dff57612dfe6151bf565b5b90816003811115612e1357612e126151bf565b5b815250506000835114158015612e4d575060006003811115612e3857612e376151bf565b5b856003811115612e4b57612e4a6151bf565b5b145b15612e7f57604051806020016040528060008152508260e0018190525042826080018181525050828261010001819052505b600260008873ffffffffffffffffffffffffffffffffffffffff1673ffffffffffffffffffffffffffffffffffffffff1681526020019081526020016000206000866003811115612ed357612ed26151bf565b5b6003811115612ee557612ee46151bf565b5b81526020019081526020016000208290806001815401808255809150506001900390600052602060002090600a020160009091909190915060008201518160000155602082015181600101556040820151816002019080519060200190612f4d929190614147565b506060820151816003019080519060200190612f6a929190614147565b506080820151816004015560a0820151816005019080519060200190612f91929190614147565b5060c0820151816006019080519060200190612fae9291906141cd565b5060e0820151816007019080519060200190612fcb929190614147565b50610100820151816008019080519060200190612fe9929190614147565b506101208201518160090160006101000a81548160ff02191690836003811115613016576130156151bf565b5b02179055505050613028878783610d63565b50505050505050565b60008060009054906101000a900473ffffffffffffffffffffffffffffffffffffffff16905090565b6130626140e2565b61306a613f65565b73ffffffffffffffffffffffffffffffffffffffff16613088613031565b73ffffffffffffffffffffffffffffffffffffffff16146130de576040517f08c379a00000000000000000000000000000000000000000000000000000000081526004016130d590614e64565b60405180910390fd5b6130e782614031565b15613127576040517f08c379a000000000000000000000000000000000000000000000000000000000815260040161311e90614ea4565b60405180910390fd5b61312f6140e2565b60606040518061014001604052808b81526020018881526020018a815260200189815260200142815260200187815260200182815260200160405180602001604052806000815250815260200186815260200160006003811115613196576131956151bf565b5b8152509150600260008c73ffffffffffffffffffffffffffffffffffffffff1673ffffffffffffffffffffffffffffffffffffffff16815260200190815260200160002060008060038111156131ef576131ee6151bf565b5b6003811115613201576132006151bf565b5b81526020019081526020016000208290806001815401808255809150506001900390600052602060002090600a020160009091909190915060008201518160000155602082015181600101556040820151816002019080519060200190613269929190614147565b506060820151816003019080519060200190613286929190614147565b506080820151816004015560a08201518160050190805190602001906132ad929190614147565b5060c08201518160060190805190602001906132ca9291906141cd565b5060e08201518160070190805190602001906132e7929190614147565b50610100820151816008019080519060200190613305929190614147565b506101208201518160090160006101000a81548160ff02191690836003811115613332576133316151bf565b5b02179055505050819250505098975050505050505050565b6060613354613f65565b73ffffffffffffffffffffffffffffffffffffffff16613372613031565b73ffffffffffffffffffffffffffffffffffffffff16146133c8576040517f08c379a00000000000000000000000000000000000000000000000000000000081526004016133bf90614e64565b60405180910390fd5b600260008373ffffffffffffffffffffffffffffffffffffffff1673ffffffffffffffffffffffffffffffffffffffff16815260200190815260200160002060006002600381111561341d5761341c6151bf565b5b600381111561342f5761342e6151bf565b5b8152602001908152602001600020805480602002602001604051908101604052809291908181526020016000905b8282101561385157838290600052602060002090600a02016040518061014001604052908160008201548152602001600182015481526020016002820180546134a5906150e4565b80601f01602080910402602001604051908101604052809291908181526020018280546134d1906150e4565b801561351e5780601f106134f35761010080835404028352916020019161351e565b820191906000526020600020905b81548152906001019060200180831161350157829003601f168201915b50505050508152602001600382018054613537906150e4565b80601f0160208091040260200160405190810160405280929190818152602001828054613563906150e4565b80156135b05780601f10613585576101008083540402835291602001916135b0565b820191906000526020600020905b81548152906001019060200180831161359357829003601f168201915b50505050508152602001600482015481526020016005820180546135d3906150e4565b80601f01602080910402602001604051908101604052809291908181526020018280546135ff906150e4565b801561364c5780601f106136215761010080835404028352916020019161364c565b820191906000526020600020905b81548152906001019060200180831161362f57829003601f168201915b50505050508152602001600682018054806020026020016040519081016040528092919081815260200182805480156136da57602002820191906000526020600020905b8160009054906101000a900473ffffffffffffffffffffffffffffffffffffffff1673ffffffffffffffffffffffffffffffffffffffff1681526020019060010190808311613690575b505050505081526020016007820180546136f3906150e4565b80601f016020809104026020016040519081016040528092919081815260200182805461371f906150e4565b801561376c5780601f106137415761010080835404028352916020019161376c565b820191906000526020600020905b81548152906001019060200180831161374f57829003601f168201915b50505050508152602001600882018054613785906150e4565b80601f01602080910402602001604051908101604052809291908181526020018280546137b1906150e4565b80156137fe5780601f106137d3576101008083540402835291602001916137fe565b820191906000526020600020905b8154815290600101906020018083116137e157829003601f168201915b505050505081526020016009820160009054906101000a900460ff16600381111561382c5761382b6151bf565b5b600381111561383e5761383d6151bf565b5b815250508152602001906001019061345d565b505050509050919050565b613864613f65565b73ffffffffffffffffffffffffffffffffffffffff16613882613031565b73ffffffffffffffffffffffffffffffffffffffff16146138d8576040517f08c379a00000000000000000000000000000000000000000000000000000000081526004016138cf90614e64565b60405180910390fd5b600260008273ffffffffffffffffffffffffffffffffffffffff1673ffffffffffffffffffffffffffffffffffffffff168152602001908152602001600020600080600381111561392c5761392b6151bf565b5b600381111561393e5761393d6151bf565b5b8152602001908152602001600020600061395891906142b8565b50565b6060613965613f65565b73ffffffffffffffffffffffffffffffffffffffff16613983613031565b73ffffffffffffffffffffffffffffffffffffffff16146139d9576040517f08c379a00000000000000000000000000000000000000000000000000000000081526004016139d090614e64565b60405180910390fd5b600260008373ffffffffffffffffffffffffffffffffffffffff1673ffffffffffffffffffffffffffffffffffffffff168152602001908152602001600020600060016003811115613a2e57613a2d6151bf565b5b6003811115613a4057613a3f6151bf565b5b8152602001908152602001600020805480602002602001604051908101604052809291908181526020016000905b82821015613e6257838290600052602060002090600a0201604051806101400160405290816000820154815260200160018201548152602001600282018054613ab6906150e4565b80601f0160208091040260200160405190810160405280929190818152602001828054613ae2906150e4565b8015613b2f5780601f10613b0457610100808354040283529160200191613b2f565b820191906000526020600020905b815481529060010190602001808311613b1257829003601f168201915b50505050508152602001600382018054613b48906150e4565b80601f0160208091040260200160405190810160405280929190818152602001828054613b74906150e4565b8015613bc15780601f10613b9657610100808354040283529160200191613bc1565b820191906000526020600020905b815481529060010190602001808311613ba457829003601f168201915b5050505050815260200160048201548152602001600582018054613be4906150e4565b80601f0160208091040260200160405190810160405280929190818152602001828054613c10906150e4565b8015613c5d5780601f10613c3257610100808354040283529160200191613c5d565b820191906000526020600020905b815481529060010190602001808311613c4057829003601f168201915b5050505050815260200160068201805480602002602001604051908101604052809291908181526020018280548015613ceb57602002820191906000526020600020905b8160009054906101000a900473ffffffffffffffffffffffffffffffffffffffff1673ffffffffffffffffffffffffffffffffffffffff1681526020019060010190808311613ca1575b50505050508152602001600782018054613d04906150e4565b80601f0160208091040260200160405190810160405280929190818152602001828054613d30906150e4565b8015613d7d5780601f10613d5257610100808354040283529160200191613d7d565b820191906000526020600020905b815481529060010190602001808311613d6057829003601f168201915b50505050508152602001600882018054613d96906150e4565b80601f0160208091040260200160405190810160405280929190818152602001828054613dc2906150e4565b8015613e0f5780601f10613de457610100808354040283529160200191613e0f565b820191906000526020600020905b815481529060010190602001808311613df257829003601f168201915b505050505081526020016009820160009054906101000a900460ff166003811115613e3d57613e3c6151bf565b5b6003811115613e4f57613e4e6151bf565b5b8152505081526020019060010190613a6e565b505050509050919050565b613e75613f65565b73ffffffffffffffffffffffffffffffffffffffff16613e93613031565b73ffffffffffffffffffffffffffffffffffffffff1614613ee9576040517f08c379a0000000000000000000000000000000000000000000000000000000008152600401613ee090614e64565b60405180910390fd5b600073ffffffffffffffffffffffffffffffffffffffff168173ffffffffffffffffffffffffffffffffffffffff161415613f59576040517f08c379a0000000000000000000000000000000000000000000000000000000008152600401613f5090614e24565b60405180910390fd5b613f6281613f6d565b50565b600033905090565b60008060009054906101000a900473ffffffffffffffffffffffffffffffffffffffff169050816000806101000a81548173ffffffffffffffffffffffffffffffffffffffff021916908373ffffffffffffffffffffffffffffffffffffffff1602179055508173ffffffffffffffffffffffffffffffffffffffff168173ffffffffffffffffffffffffffffffffffffffff167f8be0079c531659141344cd1fd0a4f28419497f9722a3daafe3b4186f6b6457e060405160405180910390a35050565b600061403b613f65565b73ffffffffffffffffffffffffffffffffffffffff16614059613031565b73ffffffffffffffffffffffffffffffffffffffff16146140af576040517f08c379a00000000000000000000000000000000000000000000000000000000081526004016140a690614e64565b60405180910390fd5b6001826040516140bf9190614d95565b908152602001604051809103902060009054906101000a900460ff169050919050565b60405180610140016040528060008152602001600081526020016060815260200160608152602001600081526020016060815260200160608152602001606081526020016060815260200160006003811115614141576141406151bf565b5b81525090565b828054614153906150e4565b90600052602060002090601f01602090048101928261417557600085556141bc565b82601f1061418e57805160ff19168380011785556141bc565b828001600101855582156141bc579182015b828111156141bb5782518255916020019190600101906141a0565b5b5090506141c991906143bb565b5090565b828054828255906000526020600020908101928215614246579160200282015b828111156142455782518260006101000a81548173ffffffffffffffffffffffffffffffffffffffff021916908373ffffffffffffffffffffffffffffffffffffffff160217905550916020019190600101906141ed565b5b50905061425391906143bb565b5090565b508054614263906150e4565b6000825580601f106142755750614294565b601f01602090049060005260206000209081019061429391906143bb565b5b50565b50805460008255906000526020600020908101906142b591906143bb565b50565b50805460008255600a02906000526020600020908101906142d991906143d8565b50565b8280546142e8906150e4565b90600052602060002090601f01602090048101928261430a5760008555614358565b82601f1061431b5780548555614358565b8280016001018555821561435857600052602060002091601f016020900482015b8281111561435757825482559160010191906001019061433c565b5b50905061436591906143bb565b5090565b8280548282559060005260206000209081019282156143aa5760005260206000209182015b828111156143a957825482559160010191906001019061438e565b5b5090506143b791906143bb565b5090565b5b808211156143d45760008160009055506001016143bc565b5090565b5b808211156144775760008082016000905560018201600090556002820160006144029190614257565b6003820160006144129190614257565b600482016000905560058201600061442a9190614257565b60068201600061443a9190614297565b60078201600061444a9190614257565b60088201600061445a9190614257565b6009820160006101000a81549060ff021916905550600a016143d9565b5090565b600061448e61448984614f26565b614f01565b9050828152602081018484840111156144aa576144a96152af565b5b6144b58482856150a2565b509392505050565b6000813590506144cc81615471565b92915050565b6000813590506144e181615488565b92915050565b6000813590506144f68161549f565b92915050565b600082601f830112614511576145106152aa565b5b813561452184826020860161447b565b91505092915050565b600081359050614539816154af565b92915050565b600060208284031215614555576145546152b9565b5b6000614563848285016144bd565b91505092915050565b600080600080600060a08688031215614588576145876152b9565b5b6000614596888289016144bd565b95505060206145a7888289016144bd565b94505060406145b88882890161452a565b935050606086013567ffffffffffffffff8111156145d9576145d86152b4565b5b6145e5888289016144fc565b92505060806145f6888289016144e7565b9150509295509295909350565b600080600080600060a0868803121561461f5761461e6152b9565b5b600061462d888289016144bd565b955050602061463e888289016144d2565b945050604061464f888289016144bd565b93505060606146608882890161452a565b925050608086013567ffffffffffffffff811115614681576146806152b4565b5b61468d888289016144fc565b9150509295509295909350565b600080600080600060a086880312156146b6576146b56152b9565b5b60006146c4888289016144bd565b95505060206146d5888289016144e7565b94505060406146e6888289016144e7565b93505060606146f78882890161452a565b925050608086013567ffffffffffffffff811115614718576147176152b4565b5b614724888289016144fc565b9150509295509295909350565b60008060006060848603121561474a576147496152b9565b5b6000614758868287016144bd565b9350506020614769868287016144e7565b925050604061477a8682870161452a565b9150509250925092565b6000806040838503121561479b5761479a6152b9565b5b60006147a9858286016144bd565b92505060206147ba8582860161452a565b9150509250929050565b600080600080600080600080610100898b0312156147e5576147e46152b9565b5b60006147f38b828c016144bd565b98505060206148048b828c0161452a565b975050604089013567ffffffffffffffff811115614825576148246152b4565b5b6148318b828c016144fc565b965050606089013567ffffffffffffffff811115614852576148516152b4565b5b61485e8b828c016144fc565b955050608061486f8b828c0161452a565b94505060a089013567ffffffffffffffff8111156148905761488f6152b4565b5b61489c8b828c016144fc565b93505060c089013567ffffffffffffffff8111156148bd576148bc6152b4565b5b6148c98b828c016144fc565b92505060e089013567ffffffffffffffff8111156148ea576148e96152b4565b5b6148f68b828c016144fc565b9150509295985092959890939650565b60006149128383614932565b60208301905092915050565b600061492a8383614b7d565b905092915050565b61493b81615035565b82525050565b61494a81615035565b82525050565b600061495b82614f77565b6149658185614fb2565b935061497083614f57565b8060005b838110156149a15781516149888882614906565b975061499383614f98565b925050600181019050614974565b5085935050505092915050565b60006149b982614f82565b6149c38185614fc3565b9350836020820285016149d585614f67565b8060005b85811015614a1157848403895281516149f2858261491e565b94506149fd83614fa5565b925060208a019950506001810190506149d9565b50829750879550505050505092915050565b614a2c81615047565b82525050565b614a3b81615090565b82525050565b6000614a4c82614f8d565b614a568185614fd4565b9350614a668185602086016150b1565b614a6f816152be565b840191505092915050565b6000614a8582614f8d565b614a8f8185614ff6565b9350614a9f8185602086016150b1565b80840191505092915050565b6000614ab8603583614fe5565b9150614ac3826152cf565b604082019050919050565b6000614adb602683614fe5565b9150614ae68261531e565b604082019050919050565b6000614afe603c83614fe5565b9150614b098261536d565b604082019050919050565b6000614b21602083614fe5565b9150614b2c826153bc565b602082019050919050565b6000614b44602083614fe5565b9150614b4f826153e5565b602082019050919050565b6000614b67603783614fe5565b9150614b728261540e565b604082019050919050565b600061014083016000830151614b966000860182614d77565b506020830151614ba96020860182614d77565b5060408301518482036040860152614bc18282614a41565b91505060608301518482036060860152614bdb8282614a41565b9150506080830151614bf06080860182614d77565b5060a083015184820360a0860152614c088282614a41565b91505060c083015184820360c0860152614c228282614950565b91505060e083015184820360e0860152614c3c8282614a41565b915050610100830151848203610100860152614c588282614a41565b915050610120830151614c6f610120860182614a32565b508091505092915050565b600061014083016000830151614c936000860182614d77565b506020830151614ca66020860182614d77565b5060408301518482036040860152614cbe8282614a41565b91505060608301518482036060860152614cd88282614a41565b9150506080830151614ced6080860182614d77565b5060a083015184820360a0860152614d058282614a41565b91505060c083015184820360c0860152614d1f8282614950565b91505060e083015184820360e0860152614d398282614a41565b915050610100830151848203610100860152614d558282614a41565b915050610120830151614d6c610120860182614a32565b508091505092915050565b614d8081615086565b82525050565b614d8f81615086565b82525050565b6000614da18284614a7a565b915081905092915050565b6000602082019050614dc16000830184614941565b92915050565b60006020820190508181036000830152614de181846149ae565b905092915050565b6000602082019050614dfe6000830184614a23565b92915050565b60006020820190508181036000830152614e1d81614aab565b9050919050565b60006020820190508181036000830152614e3d81614ace565b9050919050565b60006020820190508181036000830152614e5d81614af1565b9050919050565b60006020820190508181036000830152614e7d81614b14565b9050919050565b60006020820190508181036000830152614e9d81614b37565b9050919050565b60006020820190508181036000830152614ebd81614b5a565b9050919050565b60006020820190508181036000830152614ede8184614c7a565b905092915050565b6000602082019050614efb6000830184614d86565b92915050565b6000614f0b614f1c565b9050614f178282615116565b919050565b6000604051905090565b600067ffffffffffffffff821115614f4157614f4061527b565b5b614f4a826152be565b9050602081019050919050565b6000819050602082019050919050565b6000819050602082019050919050565b600081519050919050565b600081519050919050565b600081519050919050565b6000602082019050919050565b6000602082019050919050565b600082825260208201905092915050565b600082825260208201905092915050565b600082825260208201905092915050565b600082825260208201905092915050565b600081905092915050565b600061500c82615086565b915061501783615086565b92508282101561502a57615029615190565b5b828203905092915050565b600061504082615066565b9050919050565b60008115159050919050565b60008190506150618261545d565b919050565b600073ffffffffffffffffffffffffffffffffffffffff82169050919050565b6000819050919050565b600061509b82615053565b9050919050565b82818337600083830152505050565b60005b838110156150cf5780820151818401526020810190506150b4565b838111156150de576000848401525b50505050565b600060028204905060018216806150fc57607f821691505b602082108114156151105761510f6151ee565b5b50919050565b61511f826152be565b810181811067ffffffffffffffff8211171561513e5761513d61527b565b5b80604052505050565b600061515282615086565b91507fffffffffffffffffffffffffffffffffffffffffffffffffffffffffffffffff82141561518557615184615190565b5b600182019050919050565b7f4e487b7100000000000000000000000000000000000000000000000000000000600052601160045260246000fd5b7f4e487b7100000000000000000000000000000000000000000000000000000000600052602160045260246000fd5b7f4e487b7100000000000000000000000000000000000000000000000000000000600052602260045260246000fd5b7f4e487b7100000000000000000000000000000000000000000000000000000000600052603160045260246000fd5b7f4e487b7100000000000000000000000000000000000000000000000000000000600052603260045260246000fd5b7f4e487b7100000000000000000000000000000000000000000000000000000000600052604160045260246000fd5b600080fd5b600080fd5b600080fd5b600080fd5b6000601f19601f8301169050919050565b7f446f634d616e616765723a20566f7573206e6520706f7576657a20706173206360008201527f6f6e76657274697220636520646f63756d6d656e740000000000000000000000602082015250565b7f4f776e61626c653a206e6577206f776e657220697320746865207a65726f206160008201527f6464726573730000000000000000000000000000000000000000000000000000602082015250565b7f536176654d79446f633a204c276164647265737320736f75726365206574206460008201527f652064657374696e6174696f6e20736f6e74206964656e746971756500000000602082015250565b7f4f776e61626c653a2063616c6c6572206973206e6f7420746865206f776e6572600082015250565b7f436574204e4654206e6520766f75732061707061727469656e74207061732021600082015250565b7f546f6b656e4d616e616765723a20436520646f63756d656e7420636f7272657360008201527f706f6e64206120756e204e4654206f6666696369656c2e000000000000000000602082015250565b6004811061546e5761546d6151bf565b5b50565b61547a81615035565b811461548557600080fd5b50565b61549181615047565b811461549c57600080fd5b50565b600481106154ac57600080fd5b50565b6154b881615086565b81146154c357600080fd5b5056fea26469706673582212201239ab0afd07536d258455ccbc9c713c5f31554285a0bfae925d7f8dc7b4b07b64736f6c63430008060033",
  "immutableReferences": {},
  "source": "//SPDX-License-Identifier: MIT\n\npragma solidity 0.8.6;\n\nimport \"@openzeppelin/contracts/access/Ownable.sol\";\nimport \"./SaveDocStruct.sol\";\n\ncontract DocManager is Ownable, SaveDocStruct\n{\n    mapping(string => bool) hashDocs;\n    mapping(address => mapping(TypeDoc => Document[])) private documents;\n\n\n    modifier addressesAreDifferent(address from, address to)\n    {\n        require(from != to, \"SaveMyDoc: L'address source et de destination sont identique\");\n        _;\n    }\n\n    function getIndexNFT(address ownerNFT, TypeDoc typeNft, uint tokenID) public view onlyOwner() returns(uint)\n    {\n        bool found;\n        uint256 index;\n\n        for (uint256 i = 0; i < documents[ownerNFT][typeNft].length; i++)\n        {\n            if (tokenID == documents[ownerNFT][typeNft][i].tokenID)\n            {\n                index = i;\n                found = true;\n                i = documents[ownerNFT][typeNft].length;\n            }\n        }\n\n        require(found, \"Cet NFT ne vous appartient pas !\");\n        return index;\n    }\n\n    function createDoc(address ownerNFT, uint256 tokenID, string memory tokenName, string memory tokenMime, uint256 tokenLength, string memory filePath, string memory passwordEncrypted, string memory hashNFT)onlyOwner() external returns (Document memory)\n    {\n        //check que l'utilisateur existe\n       require(!isOfficielDoc(hashNFT), \"TokenManager: Ce document correspond a un NFT officiel.\");\n       Document memory nft;\n       address[] memory certifyings;\n\n       nft = Document(tokenID, tokenLength, tokenName, tokenMime, block.timestamp, filePath, certifyings, \"\", passwordEncrypted, TypeDoc.Original);\n\n       documents[ownerNFT][TypeDoc.Original].push(nft);\n       return nft;\n    }\n\n/*    function createNFTCertified(string memory tokenName, string memory tokenURI, string memory tokenMime, uint256 tokenLength, string memory filePath, string memory passwordEncrypted) public returns(Document memory)\n    {\n       uint256 tokenID;\n       Nft memory nft;\n       address[] memory certifyings;\n\n       certifyings[0] = msg.sender;\n       tokenID = saveMyDocToken.addItem(ownerNFT, tokenURI);\n       nft = Nft(tokenID, tokenLength, tokenName, tokenMime, block.timestamp, filePath, certifyings , \"\", passwordEncrypted, TypeNFT.Original, true);\n\n       balance[ownerNFT].push(nft);\n\n       return nft;\n     }*/\n\n    function getDocs(address addressUser) external view onlyOwner() returns(Document[] memory)\n\n    {\n        //check que l'utilisateur existe\n      return documents[addressUser][TypeDoc.Original];\n    }\n\n    function deleteDoc(address ownerDoc, uint256 tokenID) external onlyOwner() returns(bool)\n    {\n        uint256 index = getIndexNFT(ownerDoc, TypeDoc.Original, tokenID);\n\n        documents[ownerDoc][TypeDoc.Original][index] = documents[ownerDoc][TypeDoc.Original][documents[ownerDoc][TypeDoc.Original].length - 1];\n        documents[ownerDoc][TypeDoc.Original].pop();\n        return true;\n    }\n\n    // TODO how burn tokens\n    function deleteAllDocs(address addressUser) external onlyOwner()\n    {\n        delete documents[addressUser][TypeDoc.Original];\n    }\n\n    function createCopyDoc(address provider, address ownerCopyNFT, uint256 tokenID, string memory tokenURI, TypeDoc typeNft) onlyOwner() addressesAreDifferent(provider, ownerCopyNFT) external\n    {\n        //TODO\n        // check qu'une copie avec le meme tokenID n'exite pas deja\n        Document memory nft;\n        Document memory nftCopy;\n\n        nft = documents[provider][TypeDoc.Original][getIndexNFT(provider, TypeDoc.Original, tokenID)];\n        nftCopy = Document(tokenID, nft.fileSize, nft.filename, nft.fileMimeType, block.timestamp, nft.filePath, nft.certifying, tokenURI, \"\", typeNft);\n        documents[ownerCopyNFT][typeNft].push(nftCopy);\n    }\n\n    function getAllCopyShared(address addressUser) public view onlyOwner() returns(Document[] memory)\n    {\n        // check si user exist\n        return documents[addressUser][TypeDoc.CopyShared];\n    }\n\n    function getAllCopyPendingTransfer(address addressUser) public view onlyOwner() returns(Document[] memory)\n    {\n        // check si user exist\n        return documents[addressUser][TypeDoc.CopyPendingTransfer];\n    }\n\n    function getAllCopyCertified(address addressUser) public view onlyOwner() returns(Document[] memory)\n    {\n        // check si user exist\n        return documents[addressUser][TypeDoc.CopyCertified];\n    }\n\n    function convertTypeDoc(address ownerCopyNFT, TypeDoc typeDocSc, TypeDoc typeDocDst, uint256 tokenID, string memory passwordEncrypted) external onlyOwner()\n    {\n        require(bytes(passwordEncrypted).length != 0 && typeDocDst == TypeDoc.Original, \"DocManager: Vous ne pouvez pas convertir ce documment\");\n        Document memory doc;\n        uint256 index;\n\n        index = getIndexNFT(ownerCopyNFT, typeDocSc, tokenID);\n        doc = documents[ownerCopyNFT][typeDocSc][index];\n        doc.typeNft = typeDocDst;\n\n        if (bytes(passwordEncrypted).length != 0 && typeDocDst == TypeDoc.Original)\n        {\n            doc.tokenURI = \"\";\n            doc.dateAdd = block.timestamp;\n            doc.passwordEncrypted = passwordEncrypted;\n        }\n\n        documents[ownerCopyNFT][typeDocDst].push(doc);\n        delCopyDoc(ownerCopyNFT, typeDocSc, index);\n    }\n\n    function delCopyDoc(address ownerNFT, TypeDoc typeNft, uint256 index) public onlyOwner()\n    {\n        // check si user exist\n        Document memory substitute;\n\n        substitute = documents[ownerNFT][typeNft][documents[ownerNFT][typeNft].length - 1];\n        documents[ownerNFT][typeNft][index] = substitute;\n        documents[ownerNFT][typeNft].pop();\n    }\n\n    function delAllCopyDoc(address ownerNFT) external onlyOwner()\n    {\n        // check si user exist\n        delete documents[ownerNFT][TypeDoc.CopyShared];\n        delete documents[ownerNFT][TypeDoc.CopyCertified];\n        delete documents[ownerNFT][TypeDoc.CopyPendingTransfer];\n    }\n\n    function certify(address certifying, bool isAuthority, address dest, uint256 tokenID, string memory hashNFT) onlyOwner() external\n    {\n        // check certifiant existe\n        uint256 index;\n\n        if (isAuthority)\n        {\n            hashDocs[hashNFT] = true;\n        }\n        index = getIndexNFT(dest, TypeDoc.Original, tokenID);\n        documents[dest][TypeDoc.Original][index].certifying.push(certifying);\n    }\n\n    function isOfficielDoc(string memory hashNFT) private onlyOwner() view returns(bool)\n    {\n        return hashDocs[hashNFT];\n    }\n}\n",
  "sourcePath": "/home/oumar/projects/SAV-Doc/contracts/DocManager.sol",
  "compiler": {
    "name": "solc",
    "version": "0.8.6+commit.11564f7e.Emscripten.clang"
  },
  "schemaVersion": "3.4.1",
  "updatedAt": "2021-08-01T09:53:24.045Z",
  "networkType": "ethereum",
  "devdoc": {
    "kind": "dev",
    "methods": {
      "owner()": {
        "details": "Returns the address of the current owner."
      },
      "renounceOwnership()": {
        "details": "Leaves the contract without owner. It will not be possible to call `onlyOwner` functions anymore. Can only be called by the current owner. NOTE: Renouncing ownership will leave the contract without an owner, thereby removing any functionality that is only available to the owner."
      },
      "transferOwnership(address)": {
        "details": "Transfers ownership of the contract to a new account (`newOwner`). Can only be called by the current owner."
      }
    },
    "version": 1
  },
  "userdoc": {
    "kind": "user",
    "methods": {},
    "version": 1
  }
}