{
  "contractName": "DocManager",
  "abi": [
    {
      "inputs": [
        {
          "internalType": "contract SaveDocToken",
          "name": "_saveDocToken",
          "type": "address"
        },
        {
          "internalType": "contract AccountManager",
          "name": "_accountManager",
          "type": "address"
        }
      ],
      "stateMutability": "nonpayable",
      "type": "constructor"
    },
    {
      "anonymous": false,
      "inputs": [
        {
          "indexed": true,
          "internalType": "address",
          "name": "previousOwner",
          "type": "address"
        },
        {
          "indexed": true,
          "internalType": "address",
          "name": "newOwner",
          "type": "address"
        }
      ],
      "name": "OwnershipTransferred",
      "type": "event"
    },
    {
      "inputs": [],
      "name": "owner",
      "outputs": [
        {
          "internalType": "address",
          "name": "",
          "type": "address"
        }
      ],
      "stateMutability": "view",
      "type": "function",
      "constant": true
    },
    {
      "inputs": [],
      "name": "renounceOwnership",
      "outputs": [],
      "stateMutability": "nonpayable",
      "type": "function"
    },
    {
      "inputs": [
        {
          "internalType": "address",
          "name": "newOwner",
          "type": "address"
        }
      ],
      "name": "transferOwnership",
      "outputs": [],
      "stateMutability": "nonpayable",
      "type": "function"
    },
    {
      "inputs": [
        {
          "internalType": "address",
          "name": "ownerNFT",
          "type": "address"
        },
        {
          "internalType": "enum NFT.TypeDoc",
          "name": "typeNft",
          "type": "uint8"
        },
        {
          "internalType": "uint256",
          "name": "tokenID",
          "type": "uint256"
        }
      ],
      "name": "getIndexNFT",
      "outputs": [
        {
          "internalType": "uint256",
          "name": "",
          "type": "uint256"
        }
      ],
      "stateMutability": "view",
      "type": "function",
      "constant": true
    },
    {
      "inputs": [
        {
          "internalType": "address",
          "name": "ownerNFT",
          "type": "address"
        },
        {
          "internalType": "string",
          "name": "tokenName",
          "type": "string"
        },
        {
          "internalType": "string",
          "name": "tokenURI",
          "type": "string"
        },
        {
          "internalType": "string",
          "name": "tokenMime",
          "type": "string"
        },
        {
          "internalType": "uint256",
          "name": "tokenLength",
          "type": "uint256"
        },
        {
          "internalType": "string",
          "name": "filePath",
          "type": "string"
        },
        {
          "internalType": "string",
          "name": "passwordEncrypted",
          "type": "string"
        },
        {
          "internalType": "string",
          "name": "hashNFT",
          "type": "string"
        }
      ],
      "name": "createDoc",
      "outputs": [
        {
          "components": [
            {
              "internalType": "uint256",
              "name": "tokenID",
              "type": "uint256"
            },
            {
              "internalType": "uint256",
              "name": "fileSize",
              "type": "uint256"
            },
            {
              "internalType": "string",
              "name": "filename",
              "type": "string"
            },
            {
              "internalType": "string",
              "name": "fileMimeType",
              "type": "string"
            },
            {
              "internalType": "uint256",
              "name": "dateAdd",
              "type": "uint256"
            },
            {
              "internalType": "string",
              "name": "filePath",
              "type": "string"
            },
            {
              "internalType": "address[]",
              "name": "certifying",
              "type": "address[]"
            },
            {
              "internalType": "string",
              "name": "tokenURI",
              "type": "string"
            },
            {
              "internalType": "string",
              "name": "passwordEncrypted",
              "type": "string"
            },
            {
              "internalType": "enum NFT.TypeDoc",
              "name": "typeNft",
              "type": "uint8"
            }
          ],
          "internalType": "struct NFT.Document",
          "name": "",
          "type": "tuple"
        }
      ],
      "stateMutability": "nonpayable",
      "type": "function"
    },
    {
      "inputs": [],
      "name": "getDocs",
      "outputs": [
        {
          "components": [
            {
              "internalType": "uint256",
              "name": "tokenID",
              "type": "uint256"
            },
            {
              "internalType": "uint256",
              "name": "fileSize",
              "type": "uint256"
            },
            {
              "internalType": "string",
              "name": "filename",
              "type": "string"
            },
            {
              "internalType": "string",
              "name": "fileMimeType",
              "type": "string"
            },
            {
              "internalType": "uint256",
              "name": "dateAdd",
              "type": "uint256"
            },
            {
              "internalType": "string",
              "name": "filePath",
              "type": "string"
            },
            {
              "internalType": "address[]",
              "name": "certifying",
              "type": "address[]"
            },
            {
              "internalType": "string",
              "name": "tokenURI",
              "type": "string"
            },
            {
              "internalType": "string",
              "name": "passwordEncrypted",
              "type": "string"
            },
            {
              "internalType": "enum NFT.TypeDoc",
              "name": "typeNft",
              "type": "uint8"
            }
          ],
          "internalType": "struct NFT.Document[]",
          "name": "",
          "type": "tuple[]"
        }
      ],
      "stateMutability": "view",
      "type": "function",
      "constant": true
    },
    {
      "inputs": [
        {
          "internalType": "address",
          "name": "ownerDoc",
          "type": "address"
        },
        {
          "internalType": "uint256",
          "name": "tokenID",
          "type": "uint256"
        },
        {
          "internalType": "bool",
          "name": "isCopyDoc",
          "type": "bool"
        }
      ],
      "name": "deleteDoc",
      "outputs": [
        {
          "internalType": "bool",
          "name": "",
          "type": "bool"
        }
      ],
      "stateMutability": "nonpayable",
      "type": "function"
    },
    {
      "inputs": [],
      "name": "deleteAllDocs",
      "outputs": [],
      "stateMutability": "nonpayable",
      "type": "function"
    },
    {
      "inputs": [
        {
          "internalType": "address",
          "name": "provider",
          "type": "address"
        },
        {
          "internalType": "address",
          "name": "ownerCopyNFT",
          "type": "address"
        },
        {
          "internalType": "uint256",
          "name": "tokenID",
          "type": "uint256"
        },
        {
          "internalType": "string",
          "name": "tokenURI",
          "type": "string"
        },
        {
          "internalType": "enum NFT.TypeDoc",
          "name": "typeNft",
          "type": "uint8"
        }
      ],
      "name": "createCopyDoc",
      "outputs": [],
      "stateMutability": "nonpayable",
      "type": "function"
    },
    {
      "inputs": [],
      "name": "getAllCopyShared",
      "outputs": [
        {
          "components": [
            {
              "internalType": "uint256",
              "name": "tokenID",
              "type": "uint256"
            },
            {
              "internalType": "uint256",
              "name": "fileSize",
              "type": "uint256"
            },
            {
              "internalType": "string",
              "name": "filename",
              "type": "string"
            },
            {
              "internalType": "string",
              "name": "fileMimeType",
              "type": "string"
            },
            {
              "internalType": "uint256",
              "name": "dateAdd",
              "type": "uint256"
            },
            {
              "internalType": "string",
              "name": "filePath",
              "type": "string"
            },
            {
              "internalType": "address[]",
              "name": "certifying",
              "type": "address[]"
            },
            {
              "internalType": "string",
              "name": "tokenURI",
              "type": "string"
            },
            {
              "internalType": "string",
              "name": "passwordEncrypted",
              "type": "string"
            },
            {
              "internalType": "enum NFT.TypeDoc",
              "name": "typeNft",
              "type": "uint8"
            }
          ],
          "internalType": "struct NFT.Document[]",
          "name": "",
          "type": "tuple[]"
        }
      ],
      "stateMutability": "view",
      "type": "function",
      "constant": true
    },
    {
      "inputs": [],
      "name": "getAllCopyPendingTransfer",
      "outputs": [
        {
          "components": [
            {
              "internalType": "uint256",
              "name": "tokenID",
              "type": "uint256"
            },
            {
              "internalType": "uint256",
              "name": "fileSize",
              "type": "uint256"
            },
            {
              "internalType": "string",
              "name": "filename",
              "type": "string"
            },
            {
              "internalType": "string",
              "name": "fileMimeType",
              "type": "string"
            },
            {
              "internalType": "uint256",
              "name": "dateAdd",
              "type": "uint256"
            },
            {
              "internalType": "string",
              "name": "filePath",
              "type": "string"
            },
            {
              "internalType": "address[]",
              "name": "certifying",
              "type": "address[]"
            },
            {
              "internalType": "string",
              "name": "tokenURI",
              "type": "string"
            },
            {
              "internalType": "string",
              "name": "passwordEncrypted",
              "type": "string"
            },
            {
              "internalType": "enum NFT.TypeDoc",
              "name": "typeNft",
              "type": "uint8"
            }
          ],
          "internalType": "struct NFT.Document[]",
          "name": "",
          "type": "tuple[]"
        }
      ],
      "stateMutability": "view",
      "type": "function",
      "constant": true
    },
    {
      "inputs": [],
      "name": "getAllCopyCertified",
      "outputs": [
        {
          "components": [
            {
              "internalType": "uint256",
              "name": "tokenID",
              "type": "uint256"
            },
            {
              "internalType": "uint256",
              "name": "fileSize",
              "type": "uint256"
            },
            {
              "internalType": "string",
              "name": "filename",
              "type": "string"
            },
            {
              "internalType": "string",
              "name": "fileMimeType",
              "type": "string"
            },
            {
              "internalType": "uint256",
              "name": "dateAdd",
              "type": "uint256"
            },
            {
              "internalType": "string",
              "name": "filePath",
              "type": "string"
            },
            {
              "internalType": "address[]",
              "name": "certifying",
              "type": "address[]"
            },
            {
              "internalType": "string",
              "name": "tokenURI",
              "type": "string"
            },
            {
              "internalType": "string",
              "name": "passwordEncrypted",
              "type": "string"
            },
            {
              "internalType": "enum NFT.TypeDoc",
              "name": "typeNft",
              "type": "uint8"
            }
          ],
          "internalType": "struct NFT.Document[]",
          "name": "",
          "type": "tuple[]"
        }
      ],
      "stateMutability": "view",
      "type": "function",
      "constant": true
    },
    {
      "inputs": [
        {
          "internalType": "address",
          "name": "ownerNFT",
          "type": "address"
        },
        {
          "internalType": "enum NFT.TypeDoc",
          "name": "typeNft",
          "type": "uint8"
        },
        {
          "internalType": "uint256",
          "name": "index",
          "type": "uint256"
        }
      ],
      "name": "delCopyDoc",
      "outputs": [],
      "stateMutability": "nonpayable",
      "type": "function"
    },
    {
      "inputs": [
        {
          "internalType": "address",
          "name": "ownerNFT",
          "type": "address"
        }
      ],
      "name": "delAllCopyNFT",
      "outputs": [],
      "stateMutability": "nonpayable",
      "type": "function"
    },
    {
      "inputs": [
        {
          "internalType": "address",
          "name": "certifying",
          "type": "address"
        },
        {
          "internalType": "address",
          "name": "dest",
          "type": "address"
        },
        {
          "internalType": "uint256",
          "name": "tokenID",
          "type": "uint256"
        },
        {
          "internalType": "string",
          "name": "hashNFT",
          "type": "string"
        }
      ],
      "name": "certify",
      "outputs": [],
      "stateMutability": "nonpayable",
      "type": "function"
    },
    {
      "inputs": [
        {
          "internalType": "address",
          "name": "ownerCopyNFT",
          "type": "address"
        },
        {
          "internalType": "enum NFT.TypeDoc",
          "name": "typeNft",
          "type": "uint8"
        },
        {
          "internalType": "string",
          "name": "passwordEncrypted",
          "type": "string"
        },
        {
          "internalType": "uint256",
          "name": "tokenID",
          "type": "uint256"
        }
      ],
      "name": "copyDocToOriginal",
      "outputs": [],
      "stateMutability": "nonpayable",
      "type": "function"
    },
    {
      "inputs": [
        {
          "internalType": "uint256",
          "name": "tokenID",
          "type": "uint256"
        }
      ],
      "name": "getOwnerToken",
      "outputs": [
        {
          "internalType": "address",
          "name": "",
          "type": "address"
        }
      ],
      "stateMutability": "view",
      "type": "function",
      "constant": true
    },
    {
      "inputs": [
        {
          "internalType": "string",
          "name": "hashNFT",
          "type": "string"
        }
      ],
      "name": "isOfficielDoc",
      "outputs": [
        {
          "internalType": "bool",
          "name": "",
          "type": "bool"
        }
      ],
      "stateMutability": "view",
      "type": "function",
      "constant": true
    }
  ],
  "bytecode": "0x60806040523480156200001157600080fd5b5060405162005dfb38038062005dfb8339818101604052810190620000379190620001db565b620000576200004b620000e160201b60201c565b620000e960201b60201c565b81600260006101000a81548173ffffffffffffffffffffffffffffffffffffffff021916908373ffffffffffffffffffffffffffffffffffffffff16021790555080600360006101000a81548173ffffffffffffffffffffffffffffffffffffffff021916908373ffffffffffffffffffffffffffffffffffffffff1602179055505050620002b7565b600033905090565b60008060009054906101000a900473ffffffffffffffffffffffffffffffffffffffff169050816000806101000a81548173ffffffffffffffffffffffffffffffffffffffff021916908373ffffffffffffffffffffffffffffffffffffffff1602179055508173ffffffffffffffffffffffffffffffffffffffff168173ffffffffffffffffffffffffffffffffffffffff167f8be0079c531659141344cd1fd0a4f28419497f9722a3daafe3b4186f6b6457e060405160405180910390a35050565b600081519050620001be8162000283565b92915050565b600081519050620001d5816200029d565b92915050565b60008060408385031215620001f557620001f46200027e565b5b60006200020585828601620001c4565b92505060206200021885828601620001ad565b9150509250929050565b60006200022f826200025e565b9050919050565b6000620002438262000222565b9050919050565b6000620002578262000222565b9050919050565b600073ffffffffffffffffffffffffffffffffffffffff82169050919050565b600080fd5b6200028e8162000236565b81146200029a57600080fd5b50565b620002a8816200024a565b8114620002b457600080fd5b50565b615b3480620002c76000396000f3fe608060405234801561001057600080fd5b50600436106101165760003560e01c8063715018a6116100a25780638da5cb5b116100715780638da5cb5b146102cd578063a543a717146102eb578063b5b4cb351461031b578063d09ef69314610337578063f2fde38b1461034157610116565b8063715018a61461024557806374d90f8f1461024f5780637cc24f2d1461026d5780637d8ea61a1461029d57610116565b806339f22016116100e957806339f22016146101b75780634531817d146101d5578063493712d6146101f15780635359954b1461020d57806371499a7b1461022957610116565b80630bbe3e991461011b57806314676a1b1461013957806319b0de6214610169578063352aebd214610199575b600080fd5b61012361035d565b6040516101309190615367565b60405180910390f35b610153600480360381019061014e9190614cf7565b6107f0565b6040516101609190615389565b60405180910390f35b610183600480360381019061017e9190614d77565b610e24565b6040516101909190615389565b60405180910390f35b6101a1610e59565b6040516101ae9190615367565b60405180910390f35b6101bf6112ec565b6040516101cc9190615367565b60405180910390f35b6101ef60048036038101906101ea9190614b46565b611780565b005b61020b6004803603810190610206919061494f565b611faf565b005b61022760048036038101906102229190614ac3565b6121b0565b005b610243600480360381019061023e9190614a2c565b6129d1565b005b61024d613456565b005b6102576134de565b6040516102649190615367565b60405180910390f35b61028760048036038101906102829190614b46565b613972565b60405161029491906154a6565b60405180910390f35b6102b760048036038101906102b29190614b99565b613bf6565b6040516102c49190615484565b60405180910390f35b6102d5613f1e565b6040516102e2919061531c565b60405180910390f35b61030560048036038101906103009190614dc0565b613f47565b604051610312919061531c565b60405180910390f35b610335600480360381019061033091906149a9565b613ffb565b005b61033f61426d565b005b61035b6004803603810190610356919061494f565b6142ef565b005b6060600460003373ffffffffffffffffffffffffffffffffffffffff1673ffffffffffffffffffffffffffffffffffffffff16815260200190815260200160002060006003808111156103b3576103b26157a8565b5b60038111156103c5576103c46157a8565b5b8152602001908152602001600020805480602002602001604051908101604052809291908181526020016000905b828210156107e757838290600052602060002090600a020160405180610140016040529081600082015481526020016001820154815260200160028201805461043b906156cd565b80601f0160208091040260200160405190810160405280929190818152602001828054610467906156cd565b80156104b45780601f10610489576101008083540402835291602001916104b4565b820191906000526020600020905b81548152906001019060200180831161049757829003601f168201915b505050505081526020016003820180546104cd906156cd565b80601f01602080910402602001604051908101604052809291908181526020018280546104f9906156cd565b80156105465780601f1061051b57610100808354040283529160200191610546565b820191906000526020600020905b81548152906001019060200180831161052957829003601f168201915b5050505050815260200160048201548152602001600582018054610569906156cd565b80601f0160208091040260200160405190810160405280929190818152602001828054610595906156cd565b80156105e25780601f106105b7576101008083540402835291602001916105e2565b820191906000526020600020905b8154815290600101906020018083116105c557829003601f168201915b505050505081526020016006820180548060200260200160405190810160405280929190818152602001828054801561067057602002820191906000526020600020905b8160009054906101000a900473ffffffffffffffffffffffffffffffffffffffff1673ffffffffffffffffffffffffffffffffffffffff1681526020019060010190808311610626575b50505050508152602001600782018054610689906156cd565b80601f01602080910402602001604051908101604052809291908181526020018280546106b5906156cd565b80156107025780601f106106d757610100808354040283529160200191610702565b820191906000526020600020905b8154815290600101906020018083116106e557829003601f168201915b5050505050815260200160088201805461071b906156cd565b80601f0160208091040260200160405190810160405280929190818152602001828054610747906156cd565b80156107945780601f1061076957610100808354040283529160200191610794565b820191906000526020600020905b81548152906001019060200180831161077757829003601f168201915b505050505081526020016009820160009054906101000a900460ff1660038111156107c2576107c16157a8565b5b60038111156107d4576107d36157a8565b5b81525050815260200190600101906103f3565b50505050905090565b60006107fa6143e7565b73ffffffffffffffffffffffffffffffffffffffff16610818613f1e565b73ffffffffffffffffffffffffffffffffffffffff161461086e576040517f08c379a000000000000000000000000000000000000000000000000000000000815260040161086590615404565b60405180910390fd5b82848073ffffffffffffffffffffffffffffffffffffffff16600260009054906101000a900473ffffffffffffffffffffffffffffffffffffffff1673ffffffffffffffffffffffffffffffffffffffff16636352211e846040518263ffffffff1660e01b81526004016108e291906154a6565b60206040518083038186803b1580156108fa57600080fd5b505afa15801561090e573d6000803e3d6000fd5b505050506040513d601f19601f82011682018060405250810190610932919061497c565b73ffffffffffffffffffffffffffffffffffffffff1614610988576040517f08c379a000000000000000000000000000000000000000000000000000000000815260040161097f90615424565b60405180910390fd5b600061099687600088613972565b9050600460008873ffffffffffffffffffffffffffffffffffffffff1673ffffffffffffffffffffffffffffffffffffffff16815260200190815260200160002060008060038111156109ec576109eb6157a8565b5b60038111156109fe576109fd6157a8565b5b81526020019081526020016000206001600460008a73ffffffffffffffffffffffffffffffffffffffff1673ffffffffffffffffffffffffffffffffffffffff1681526020019081526020016000206000806003811115610a6257610a616157a8565b5b6003811115610a7457610a736157a8565b5b815260200190815260200160002080549050610a9091906155ea565b81548110610aa157610aa0615835565b5b90600052602060002090600a0201600460008973ffffffffffffffffffffffffffffffffffffffff1673ffffffffffffffffffffffffffffffffffffffff1681526020019081526020016000206000806003811115610b0357610b026157a8565b5b6003811115610b1557610b146157a8565b5b81526020019081526020016000208281548110610b3557610b34615835565b5b90600052602060002090600a020160008201548160000155600182015481600101556002820181600201908054610b6b906156cd565b610b769291906144b3565b506003820181600301908054610b8b906156cd565b610b969291906144b3565b50600482015481600401556005820181600501908054610bb5906156cd565b610bc09291906144b3565b506006820181600601908054610bd7929190614540565b506007820181600701908054610bec906156cd565b610bf79291906144b3565b506008820181600801908054610c0c906156cd565b610c179291906144b3565b506009820160009054906101000a900460ff168160090160006101000a81548160ff02191690836003811115610c5057610c4f6157a8565b5b0217905550905050600460008873ffffffffffffffffffffffffffffffffffffffff1673ffffffffffffffffffffffffffffffffffffffff1681526020019081526020016000206000806003811115610cac57610cab6157a8565b5b6003811115610cbe57610cbd6157a8565b5b8152602001908152602001600020805480610cdc57610cdb615806565b5b60019003818190600052602060002090600a02016000808201600090556001820160009055600282016000610d119190614592565b600382016000610d219190614592565b6004820160009055600582016000610d399190614592565b600682016000610d4991906145d2565b600782016000610d599190614592565b600882016000610d699190614592565b6009820160006101000a81549060ff02191690555050905584610e1657600260009054906101000a900473ffffffffffffffffffffffffffffffffffffffff1673ffffffffffffffffffffffffffffffffffffffff1663fcd3533c87336040518363ffffffff1660e01b8152600401610de39291906154c1565b600060405180830381600087803b158015610dfd57600080fd5b505af1158015610e11573d6000803e3d6000fd5b505050505b600193505050509392505050565b6000600182604051610e369190615305565b908152602001604051809103902060009054906101000a900460ff169050919050565b6060600460003373ffffffffffffffffffffffffffffffffffffffff1673ffffffffffffffffffffffffffffffffffffffff1681526020019081526020016000206000806003811115610eaf57610eae6157a8565b5b6003811115610ec157610ec06157a8565b5b8152602001908152602001600020805480602002602001604051908101604052809291908181526020016000905b828210156112e357838290600052602060002090600a0201604051806101400160405290816000820154815260200160018201548152602001600282018054610f37906156cd565b80601f0160208091040260200160405190810160405280929190818152602001828054610f63906156cd565b8015610fb05780601f10610f8557610100808354040283529160200191610fb0565b820191906000526020600020905b815481529060010190602001808311610f9357829003601f168201915b50505050508152602001600382018054610fc9906156cd565b80601f0160208091040260200160405190810160405280929190818152602001828054610ff5906156cd565b80156110425780601f1061101757610100808354040283529160200191611042565b820191906000526020600020905b81548152906001019060200180831161102557829003601f168201915b5050505050815260200160048201548152602001600582018054611065906156cd565b80601f0160208091040260200160405190810160405280929190818152602001828054611091906156cd565b80156110de5780601f106110b3576101008083540402835291602001916110de565b820191906000526020600020905b8154815290600101906020018083116110c157829003601f168201915b505050505081526020016006820180548060200260200160405190810160405280929190818152602001828054801561116c57602002820191906000526020600020905b8160009054906101000a900473ffffffffffffffffffffffffffffffffffffffff1673ffffffffffffffffffffffffffffffffffffffff1681526020019060010190808311611122575b50505050508152602001600782018054611185906156cd565b80601f01602080910402602001604051908101604052809291908181526020018280546111b1906156cd565b80156111fe5780601f106111d3576101008083540402835291602001916111fe565b820191906000526020600020905b8154815290600101906020018083116111e157829003601f168201915b50505050508152602001600882018054611217906156cd565b80601f0160208091040260200160405190810160405280929190818152602001828054611243906156cd565b80156112905780601f1061126557610100808354040283529160200191611290565b820191906000526020600020905b81548152906001019060200180831161127357829003601f168201915b505050505081526020016009820160009054906101000a900460ff1660038111156112be576112bd6157a8565b5b60038111156112d0576112cf6157a8565b5b8152505081526020019060010190610eef565b50505050905090565b6060600460003373ffffffffffffffffffffffffffffffffffffffff1673ffffffffffffffffffffffffffffffffffffffff168152602001908152602001600020600060016003811115611343576113426157a8565b5b6003811115611355576113546157a8565b5b8152602001908152602001600020805480602002602001604051908101604052809291908181526020016000905b8282101561177757838290600052602060002090600a02016040518061014001604052908160008201548152602001600182015481526020016002820180546113cb906156cd565b80601f01602080910402602001604051908101604052809291908181526020018280546113f7906156cd565b80156114445780601f1061141957610100808354040283529160200191611444565b820191906000526020600020905b81548152906001019060200180831161142757829003601f168201915b5050505050815260200160038201805461145d906156cd565b80601f0160208091040260200160405190810160405280929190818152602001828054611489906156cd565b80156114d65780601f106114ab576101008083540402835291602001916114d6565b820191906000526020600020905b8154815290600101906020018083116114b957829003601f168201915b50505050508152602001600482015481526020016005820180546114f9906156cd565b80601f0160208091040260200160405190810160405280929190818152602001828054611525906156cd565b80156115725780601f1061154757610100808354040283529160200191611572565b820191906000526020600020905b81548152906001019060200180831161155557829003601f168201915b505050505081526020016006820180548060200260200160405190810160405280929190818152602001828054801561160057602002820191906000526020600020905b8160009054906101000a900473ffffffffffffffffffffffffffffffffffffffff1673ffffffffffffffffffffffffffffffffffffffff16815260200190600101908083116115b6575b50505050508152602001600782018054611619906156cd565b80601f0160208091040260200160405190810160405280929190818152602001828054611645906156cd565b80156116925780601f1061166757610100808354040283529160200191611692565b820191906000526020600020905b81548152906001019060200180831161167557829003601f168201915b505050505081526020016008820180546116ab906156cd565b80601f01602080910402602001604051908101604052809291908181526020018280546116d7906156cd565b80156117245780601f106116f957610100808354040283529160200191611724565b820191906000526020600020905b81548152906001019060200180831161170757829003601f168201915b505050505081526020016009820160009054906101000a900460ff166003811115611752576117516157a8565b5b6003811115611764576117636157a8565b5b8152505081526020019060010190611383565b50505050905090565b6117886143e7565b73ffffffffffffffffffffffffffffffffffffffff166117a6613f1e565b73ffffffffffffffffffffffffffffffffffffffff16146117fc576040517f08c379a00000000000000000000000000000000000000000000000000000000081526004016117f390615404565b60405180910390fd5b6118046145f3565b600460008573ffffffffffffffffffffffffffffffffffffffff1673ffffffffffffffffffffffffffffffffffffffff1681526020019081526020016000206000846003811115611858576118576157a8565b5b600381111561186a576118696157a8565b5b81526020019081526020016000206001600460008773ffffffffffffffffffffffffffffffffffffffff1673ffffffffffffffffffffffffffffffffffffffff16815260200190815260200160002060008660038111156118ce576118cd6157a8565b5b60038111156118e0576118df6157a8565b5b8152602001908152602001600020805490506118fc91906155ea565b8154811061190d5761190c615835565b5b90600052602060002090600a020160405180610140016040529081600082015481526020016001820154815260200160028201805461194b906156cd565b80601f0160208091040260200160405190810160405280929190818152602001828054611977906156cd565b80156119c45780601f10611999576101008083540402835291602001916119c4565b820191906000526020600020905b8154815290600101906020018083116119a757829003601f168201915b505050505081526020016003820180546119dd906156cd565b80601f0160208091040260200160405190810160405280929190818152602001828054611a09906156cd565b8015611a565780601f10611a2b57610100808354040283529160200191611a56565b820191906000526020600020905b815481529060010190602001808311611a3957829003601f168201915b5050505050815260200160048201548152602001600582018054611a79906156cd565b80601f0160208091040260200160405190810160405280929190818152602001828054611aa5906156cd565b8015611af25780601f10611ac757610100808354040283529160200191611af2565b820191906000526020600020905b815481529060010190602001808311611ad557829003601f168201915b5050505050815260200160068201805480602002602001604051908101604052809291908181526020018280548015611b8057602002820191906000526020600020905b8160009054906101000a900473ffffffffffffffffffffffffffffffffffffffff1673ffffffffffffffffffffffffffffffffffffffff1681526020019060010190808311611b36575b50505050508152602001600782018054611b99906156cd565b80601f0160208091040260200160405190810160405280929190818152602001828054611bc5906156cd565b8015611c125780601f10611be757610100808354040283529160200191611c12565b820191906000526020600020905b815481529060010190602001808311611bf557829003601f168201915b50505050508152602001600882018054611c2b906156cd565b80601f0160208091040260200160405190810160405280929190818152602001828054611c57906156cd565b8015611ca45780601f10611c7957610100808354040283529160200191611ca4565b820191906000526020600020905b815481529060010190602001808311611c8757829003601f168201915b505050505081526020016009820160009054906101000a900460ff166003811115611cd257611cd16157a8565b5b6003811115611ce457611ce36157a8565b5b81525050905080600460008673ffffffffffffffffffffffffffffffffffffffff1673ffffffffffffffffffffffffffffffffffffffff1681526020019081526020016000206000856003811115611d3f57611d3e6157a8565b5b6003811115611d5157611d506157a8565b5b81526020019081526020016000208381548110611d7157611d70615835565b5b90600052602060002090600a020160008201518160000155602082015181600101556040820151816002019080519060200190611daf929190614658565b506060820151816003019080519060200190611dcc929190614658565b506080820151816004015560a0820151816005019080519060200190611df3929190614658565b5060c0820151816006019080519060200190611e109291906146de565b5060e0820151816007019080519060200190611e2d929190614658565b50610100820151816008019080519060200190611e4b929190614658565b506101208201518160090160006101000a81548160ff02191690836003811115611e7857611e776157a8565b5b0217905550905050600460008573ffffffffffffffffffffffffffffffffffffffff1673ffffffffffffffffffffffffffffffffffffffff1681526020019081526020016000206000846003811115611ed457611ed36157a8565b5b6003811115611ee657611ee56157a8565b5b8152602001908152602001600020805480611f0457611f03615806565b5b60019003818190600052602060002090600a02016000808201600090556001820160009055600282016000611f399190614592565b600382016000611f499190614592565b6004820160009055600582016000611f619190614592565b600682016000611f7191906145d2565b600782016000611f819190614592565b600882016000611f919190614592565b6009820160006101000a81549060ff02191690555050905550505050565b611fb76143e7565b73ffffffffffffffffffffffffffffffffffffffff16611fd5613f1e565b73ffffffffffffffffffffffffffffffffffffffff161461202b576040517f08c379a000000000000000000000000000000000000000000000000000000000815260040161202290615404565b60405180910390fd5b600460008273ffffffffffffffffffffffffffffffffffffffff1673ffffffffffffffffffffffffffffffffffffffff1681526020019081526020016000206000600160038111156120805761207f6157a8565b5b6003811115612092576120916157a8565b5b815260200190815260200160002060006120ac9190614768565b600460008273ffffffffffffffffffffffffffffffffffffffff1673ffffffffffffffffffffffffffffffffffffffff168152602001908152602001600020600060026003811115612101576121006157a8565b5b6003811115612113576121126157a8565b5b8152602001908152602001600020600061212d9190614768565b600460008273ffffffffffffffffffffffffffffffffffffffff1673ffffffffffffffffffffffffffffffffffffffff1681526020019081526020016000206000600380811115612181576121806157a8565b5b6003811115612193576121926157a8565b5b815260200190815260200160002060006121ad9190614768565b50565b80848073ffffffffffffffffffffffffffffffffffffffff16600260009054906101000a900473ffffffffffffffffffffffffffffffffffffffff1673ffffffffffffffffffffffffffffffffffffffff16636352211e846040518263ffffffff1660e01b815260040161222491906154a6565b60206040518083038186803b15801561223c57600080fd5b505afa158015612250573d6000803e3d6000fd5b505050506040513d601f19601f82011682018060405250810190612274919061497c565b73ffffffffffffffffffffffffffffffffffffffff16146122ca576040517f08c379a00000000000000000000000000000000000000000000000000000000081526004016122c190615424565b60405180910390fd5b6122d26143e7565b73ffffffffffffffffffffffffffffffffffffffff166122f0613f1e565b73ffffffffffffffffffffffffffffffffffffffff1614612346576040517f08c379a000000000000000000000000000000000000000000000000000000000815260040161233d90615404565b60405180910390fd5b61234e6145f3565b600061235b888887613972565b9050600460008973ffffffffffffffffffffffffffffffffffffffff1673ffffffffffffffffffffffffffffffffffffffff16815260200190815260200160002060008860038111156123b1576123b06157a8565b5b60038111156123c3576123c26157a8565b5b815260200190815260200160002081815481106123e3576123e2615835565b5b90600052602060002090600a0201604051806101400160405290816000820154815260200160018201548152602001600282018054612421906156cd565b80601f016020809104026020016040519081016040528092919081815260200182805461244d906156cd565b801561249a5780601f1061246f5761010080835404028352916020019161249a565b820191906000526020600020905b81548152906001019060200180831161247d57829003601f168201915b505050505081526020016003820180546124b3906156cd565b80601f01602080910402602001604051908101604052809291908181526020018280546124df906156cd565b801561252c5780601f106125015761010080835404028352916020019161252c565b820191906000526020600020905b81548152906001019060200180831161250f57829003601f168201915b505050505081526020016004820154815260200160058201805461254f906156cd565b80601f016020809104026020016040519081016040528092919081815260200182805461257b906156cd565b80156125c85780601f1061259d576101008083540402835291602001916125c8565b820191906000526020600020905b8154815290600101906020018083116125ab57829003601f168201915b505050505081526020016006820180548060200260200160405190810160405280929190818152602001828054801561265657602002820191906000526020600020905b8160009054906101000a900473ffffffffffffffffffffffffffffffffffffffff1673ffffffffffffffffffffffffffffffffffffffff168152602001906001019080831161260c575b5050505050815260200160078201805461266f906156cd565b80601f016020809104026020016040519081016040528092919081815260200182805461269b906156cd565b80156126e85780601f106126bd576101008083540402835291602001916126e8565b820191906000526020600020905b8154815290600101906020018083116126cb57829003601f168201915b50505050508152602001600882018054612701906156cd565b80601f016020809104026020016040519081016040528092919081815260200182805461272d906156cd565b801561277a5780601f1061274f5761010080835404028352916020019161277a565b820191906000526020600020905b81548152906001019060200180831161275d57829003601f168201915b505050505081526020016009820160009054906101000a900460ff1660038111156127a8576127a76157a8565b5b60038111156127ba576127b96157a8565b5b815250509150604051806020016040528060008152508260e00181905250600082610120019060038111156127f2576127f16157a8565b5b90816003811115612806576128056157a8565b5b815250504282608001818152505085826101000181905250600460008973ffffffffffffffffffffffffffffffffffffffff1673ffffffffffffffffffffffffffffffffffffffff1681526020019081526020016000206000806003811115612872576128716157a8565b5b6003811115612884576128836157a8565b5b81526020019081526020016000208290806001815401808255809150506001900390600052602060002090600a0201600090919091909150600082015181600001556020820151816001015560408201518160020190805190602001906128ec929190614658565b506060820151816003019080519060200190612909929190614658565b506080820151816004015560a0820151816005019080519060200190612930929190614658565b5060c082015181600601908051906020019061294d9291906146de565b5060e082015181600701908051906020019061296a929190614658565b50610100820151816008019080519060200190612988929190614658565b506101208201518160090160006101000a81548160ff021916908360038111156129b5576129b46157a8565b5b021790555050506129c7888883611780565b5050505050505050565b6129d96143e7565b73ffffffffffffffffffffffffffffffffffffffff166129f7613f1e565b73ffffffffffffffffffffffffffffffffffffffff1614612a4d576040517f08c379a0000000000000000000000000000000000000000000000000000000008152600401612a4490615404565b60405180910390fd5b84848073ffffffffffffffffffffffffffffffffffffffff168273ffffffffffffffffffffffffffffffffffffffff161415612abe576040517f08c379a0000000000000000000000000000000000000000000000000000000008152600401612ab5906153e4565b60405180910390fd5b84878073ffffffffffffffffffffffffffffffffffffffff16600260009054906101000a900473ffffffffffffffffffffffffffffffffffffffff1673ffffffffffffffffffffffffffffffffffffffff16636352211e846040518263ffffffff1660e01b8152600401612b3291906154a6565b60206040518083038186803b158015612b4a57600080fd5b505afa158015612b5e573d6000803e3d6000fd5b505050506040513d601f19601f82011682018060405250810190612b82919061497c565b73ffffffffffffffffffffffffffffffffffffffff1614612bd8576040517f08c379a0000000000000000000000000000000000000000000000000000000008152600401612bcf90615424565b60405180910390fd5b88600360009054906101000a900473ffffffffffffffffffffffffffffffffffffffff1673ffffffffffffffffffffffffffffffffffffffff1663a1abffee826040518263ffffffff1660e01b8152600401612c34919061531c565b60206040518083038186803b158015612c4c57600080fd5b505afa158015612c60573d6000803e3d6000fd5b505050506040513d601f19601f82011682018060405250810190612c849190614d4a565b612cc3576040517f08c379a0000000000000000000000000000000000000000000000000000000008152600401612cba906153c4565b60405180910390fd5b88600360009054906101000a900473ffffffffffffffffffffffffffffffffffffffff1673ffffffffffffffffffffffffffffffffffffffff1663a1abffee826040518263ffffffff1660e01b8152600401612d1f919061531c565b60206040518083038186803b158015612d3757600080fd5b505afa158015612d4b573d6000803e3d6000fd5b505050506040513d601f19601f82011682018060405250810190612d6f9190614d4a565b612dae576040517f08c379a0000000000000000000000000000000000000000000000000000000008152600401612da5906153c4565b60405180910390fd5b612db66145f3565b612dbe6145f3565b600460008e73ffffffffffffffffffffffffffffffffffffffff1673ffffffffffffffffffffffffffffffffffffffff1681526020019081526020016000206000806003811115612e1257612e116157a8565b5b6003811115612e2457612e236157a8565b5b8152602001908152602001600020612e3e8e60008e613972565b81548110612e4f57612e4e615835565b5b90600052602060002090600a0201604051806101400160405290816000820154815260200160018201548152602001600282018054612e8d906156cd565b80601f0160208091040260200160405190810160405280929190818152602001828054612eb9906156cd565b8015612f065780601f10612edb57610100808354040283529160200191612f06565b820191906000526020600020905b815481529060010190602001808311612ee957829003601f168201915b50505050508152602001600382018054612f1f906156cd565b80601f0160208091040260200160405190810160405280929190818152602001828054612f4b906156cd565b8015612f985780601f10612f6d57610100808354040283529160200191612f98565b820191906000526020600020905b815481529060010190602001808311612f7b57829003601f168201915b5050505050815260200160048201548152602001600582018054612fbb906156cd565b80601f0160208091040260200160405190810160405280929190818152602001828054612fe7906156cd565b80156130345780601f1061300957610100808354040283529160200191613034565b820191906000526020600020905b81548152906001019060200180831161301757829003601f168201915b50505050508152602001600682018054806020026020016040519081016040528092919081815260200182805480156130c257602002820191906000526020600020905b8160009054906101000a900473ffffffffffffffffffffffffffffffffffffffff1673ffffffffffffffffffffffffffffffffffffffff1681526020019060010190808311613078575b505050505081526020016007820180546130db906156cd565b80601f0160208091040260200160405190810160405280929190818152602001828054613107906156cd565b80156131545780601f1061312957610100808354040283529160200191613154565b820191906000526020600020905b81548152906001019060200180831161313757829003601f168201915b5050505050815260200160088201805461316d906156cd565b80601f0160208091040260200160405190810160405280929190818152602001828054613199906156cd565b80156131e65780601f106131bb576101008083540402835291602001916131e6565b820191906000526020600020905b8154815290600101906020018083116131c957829003601f168201915b505050505081526020016009820160009054906101000a900460ff166003811115613214576132136157a8565b5b6003811115613226576132256157a8565b5b8152505091506040518061014001604052808c81526020018360200151815260200183604001518152602001836060015181526020014281526020018360a0015181526020018360c0015181526020018b81526020016040518060200160405280600081525081526020018a60038111156132a4576132a36157a8565b5b8152509050600460008d73ffffffffffffffffffffffffffffffffffffffff1673ffffffffffffffffffffffffffffffffffffffff16815260200190815260200160002060008a60038111156132fd576132fc6157a8565b5b600381111561330f5761330e6157a8565b5b81526020019081526020016000208190806001815401808255809150506001900390600052602060002090600a020160009091909190915060008201518160000155602082015181600101556040820151816002019080519060200190613377929190614658565b506060820151816003019080519060200190613394929190614658565b506080820151816004015560a08201518160050190805190602001906133bb929190614658565b5060c08201518160060190805190602001906133d89291906146de565b5060e08201518160070190805190602001906133f5929190614658565b50610100820151816008019080519060200190613413929190614658565b506101208201518160090160006101000a81548160ff021916908360038111156134405761343f6157a8565b5b0217905550505050505050505050505050505050565b61345e6143e7565b73ffffffffffffffffffffffffffffffffffffffff1661347c613f1e565b73ffffffffffffffffffffffffffffffffffffffff16146134d2576040517f08c379a00000000000000000000000000000000000000000000000000000000081526004016134c990615404565b60405180910390fd5b6134dc60006143ef565b565b6060600460003373ffffffffffffffffffffffffffffffffffffffff1673ffffffffffffffffffffffffffffffffffffffff168152602001908152602001600020600060026003811115613535576135346157a8565b5b6003811115613547576135466157a8565b5b8152602001908152602001600020805480602002602001604051908101604052809291908181526020016000905b8282101561396957838290600052602060002090600a02016040518061014001604052908160008201548152602001600182015481526020016002820180546135bd906156cd565b80601f01602080910402602001604051908101604052809291908181526020018280546135e9906156cd565b80156136365780601f1061360b57610100808354040283529160200191613636565b820191906000526020600020905b81548152906001019060200180831161361957829003601f168201915b5050505050815260200160038201805461364f906156cd565b80601f016020809104026020016040519081016040528092919081815260200182805461367b906156cd565b80156136c85780601f1061369d576101008083540402835291602001916136c8565b820191906000526020600020905b8154815290600101906020018083116136ab57829003601f168201915b50505050508152602001600482015481526020016005820180546136eb906156cd565b80601f0160208091040260200160405190810160405280929190818152602001828054613717906156cd565b80156137645780601f1061373957610100808354040283529160200191613764565b820191906000526020600020905b81548152906001019060200180831161374757829003601f168201915b50505050508152602001600682018054806020026020016040519081016040528092919081815260200182805480156137f257602002820191906000526020600020905b8160009054906101000a900473ffffffffffffffffffffffffffffffffffffffff1673ffffffffffffffffffffffffffffffffffffffff16815260200190600101908083116137a8575b5050505050815260200160078201805461380b906156cd565b80601f0160208091040260200160405190810160405280929190818152602001828054613837906156cd565b80156138845780601f1061385957610100808354040283529160200191613884565b820191906000526020600020905b81548152906001019060200180831161386757829003601f168201915b5050505050815260200160088201805461389d906156cd565b80601f01602080910402602001604051908101604052809291908181526020018280546138c9906156cd565b80156139165780601f106138eb57610100808354040283529160200191613916565b820191906000526020600020905b8154815290600101906020018083116138f957829003601f168201915b505050505081526020016009820160009054906101000a900460ff166003811115613944576139436157a8565b5b6003811115613956576139556157a8565b5b8152505081526020019060010190613575565b50505050905090565b600061397c6143e7565b73ffffffffffffffffffffffffffffffffffffffff1661399a613f1e565b73ffffffffffffffffffffffffffffffffffffffff16146139f0576040517f08c379a00000000000000000000000000000000000000000000000000000000081526004016139e790615404565b60405180910390fd5b60008060005b600460008873ffffffffffffffffffffffffffffffffffffffff1673ffffffffffffffffffffffffffffffffffffffff1681526020019081526020016000206000876003811115613a4a57613a496157a8565b5b6003811115613a5c57613a5b6157a8565b5b815260200190815260200160002080549050811015613ba957600460008873ffffffffffffffffffffffffffffffffffffffff1673ffffffffffffffffffffffffffffffffffffffff1681526020019081526020016000206000876003811115613ac957613ac86157a8565b5b6003811115613adb57613ada6157a8565b5b81526020019081526020016000208181548110613afb57613afa615835565b5b90600052602060002090600a020160000154851415613b965780915060019250600460008873ffffffffffffffffffffffffffffffffffffffff1673ffffffffffffffffffffffffffffffffffffffff1681526020019081526020016000206000876003811115613b6f57613b6e6157a8565b5b6003811115613b8157613b806157a8565b5b81526020019081526020016000208054905090505b8080613ba190615730565b9150506139f6565b5081613bea576040517f08c379a0000000000000000000000000000000000000000000000000000000008152600401613be190615444565b60405180910390fd5b80925050509392505050565b613bfe6145f3565b613c0782610e24565b15613c47576040517f08c379a0000000000000000000000000000000000000000000000000000000008152600401613c3e90615464565b60405180910390fd5b6000613c516145f3565b6060600260009054906101000a900473ffffffffffffffffffffffffffffffffffffffff1673ffffffffffffffffffffffffffffffffffffffff1663d0def5218d8c6040518363ffffffff1660e01b8152600401613cb0929190615337565b602060405180830381600087803b158015613cca57600080fd5b505af1158015613cde573d6000803e3d6000fd5b505050506040513d601f19601f82011682018060405250810190613d029190614ded565b92506040518061014001604052808481526020018981526020018c81526020018a815260200142815260200188815260200182815260200160405180602001604052806000815250815260200187815260200160006003811115613d6957613d686157a8565b5b8152509150600460008d73ffffffffffffffffffffffffffffffffffffffff1673ffffffffffffffffffffffffffffffffffffffff1681526020019081526020016000206000806003811115613dc257613dc16157a8565b5b6003811115613dd457613dd36157a8565b5b81526020019081526020016000208290806001815401808255809150506001900390600052602060002090600a020160009091909190915060008201518160000155602082015181600101556040820151816002019080519060200190613e3c929190614658565b506060820151816003019080519060200190613e59929190614658565b506080820151816004015560a0820151816005019080519060200190613e80929190614658565b5060c0820151816006019080519060200190613e9d9291906146de565b5060e0820151816007019080519060200190613eba929190614658565b50610100820151816008019080519060200190613ed8929190614658565b506101208201518160090160006101000a81548160ff02191690836003811115613f0557613f046157a8565b5b0217905550505081935050505098975050505050505050565b60008060009054906101000a900473ffffffffffffffffffffffffffffffffffffffff16905090565b6000600260009054906101000a900473ffffffffffffffffffffffffffffffffffffffff1673ffffffffffffffffffffffffffffffffffffffff16636352211e836040518263ffffffff1660e01b8152600401613fa491906154a6565b60206040518083038186803b158015613fbc57600080fd5b505afa158015613fd0573d6000803e3d6000fd5b505050506040513d601f19601f82011682018060405250810190613ff4919061497c565b9050919050565b6140036143e7565b73ffffffffffffffffffffffffffffffffffffffff16614021613f1e565b73ffffffffffffffffffffffffffffffffffffffff1614614077576040517f08c379a000000000000000000000000000000000000000000000000000000000815260040161406e90615404565b60405180910390fd5b6000600360009054906101000a900473ffffffffffffffffffffffffffffffffffffffff1673ffffffffffffffffffffffffffffffffffffffff16632330f247866040518263ffffffff1660e01b81526004016140d4919061531c565b60206040518083038186803b1580156140ec57600080fd5b505afa158015614100573d6000803e3d6000fd5b505050506040513d601f19601f820116820180604052508101906141249190614d4a565b15614160576001808360405161413a9190615305565b908152602001604051809103902060006101000a81548160ff0219169083151502179055505b61416c84600085613972565b9050600460008573ffffffffffffffffffffffffffffffffffffffff1673ffffffffffffffffffffffffffffffffffffffff16815260200190815260200160002060008060038111156141c2576141c16157a8565b5b60038111156141d4576141d36157a8565b5b815260200190815260200160002081815481106141f4576141f3615835565b5b90600052602060002090600a0201600601859080600181540180825580915050600190039060005260206000200160009091909190916101000a81548173ffffffffffffffffffffffffffffffffffffffff021916908373ffffffffffffffffffffffffffffffffffffffff1602179055505050505050565b600460003373ffffffffffffffffffffffffffffffffffffffff1673ffffffffffffffffffffffffffffffffffffffff16815260200190815260200160002060008060038111156142c1576142c06157a8565b5b60038111156142d3576142d26157a8565b5b815260200190815260200160002060006142ed9190614768565b565b6142f76143e7565b73ffffffffffffffffffffffffffffffffffffffff16614315613f1e565b73ffffffffffffffffffffffffffffffffffffffff161461436b576040517f08c379a000000000000000000000000000000000000000000000000000000000815260040161436290615404565b60405180910390fd5b600073ffffffffffffffffffffffffffffffffffffffff168173ffffffffffffffffffffffffffffffffffffffff1614156143db576040517f08c379a00000000000000000000000000000000000000000000000000000000081526004016143d2906153a4565b60405180910390fd5b6143e4816143ef565b50565b600033905090565b60008060009054906101000a900473ffffffffffffffffffffffffffffffffffffffff169050816000806101000a81548173ffffffffffffffffffffffffffffffffffffffff021916908373ffffffffffffffffffffffffffffffffffffffff1602179055508173ffffffffffffffffffffffffffffffffffffffff168173ffffffffffffffffffffffffffffffffffffffff167f8be0079c531659141344cd1fd0a4f28419497f9722a3daafe3b4186f6b6457e060405160405180910390a35050565b8280546144bf906156cd565b90600052602060002090601f0160209004810192826144e1576000855561452f565b82601f106144f2578054855561452f565b8280016001018555821561452f57600052602060002091601f016020900482015b8281111561452e578254825591600101919060010190614513565b5b50905061453c919061478c565b5090565b8280548282559060005260206000209081019282156145815760005260206000209182015b82811115614580578254825591600101919060010190614565565b5b50905061458e919061478c565b5090565b50805461459e906156cd565b6000825580601f106145b057506145cf565b601f0160209004906000526020600020908101906145ce919061478c565b5b50565b50805460008255906000526020600020908101906145f0919061478c565b50565b60405180610140016040528060008152602001600081526020016060815260200160608152602001600081526020016060815260200160608152602001606081526020016060815260200160006003811115614652576146516157a8565b5b81525090565b828054614664906156cd565b90600052602060002090601f01602090048101928261468657600085556146cd565b82601f1061469f57805160ff19168380011785556146cd565b828001600101855582156146cd579182015b828111156146cc5782518255916020019190600101906146b1565b5b5090506146da919061478c565b5090565b828054828255906000526020600020908101928215614757579160200282015b828111156147565782518260006101000a81548173ffffffffffffffffffffffffffffffffffffffff021916908373ffffffffffffffffffffffffffffffffffffffff160217905550916020019190600101906146fe565b5b509050614764919061478c565b5090565b50805460008255600a029060005260206000209081019061478991906147a9565b50565b5b808211156147a557600081600090555060010161478d565b5090565b5b808211156148485760008082016000905560018201600090556002820160006147d39190614592565b6003820160006147e39190614592565b60048201600090556005820160006147fb9190614592565b60068201600061480b91906145d2565b60078201600061481b9190614592565b60088201600061482b9190614592565b6009820160006101000a81549060ff021916905550600a016147aa565b5090565b600061485f61485a8461550f565b6154ea565b90508281526020810184848401111561487b5761487a615898565b5b61488684828561568b565b509392505050565b60008135905061489d81615aa9565b92915050565b6000815190506148b281615aa9565b92915050565b6000813590506148c781615ac0565b92915050565b6000815190506148dc81615ac0565b92915050565b6000813590506148f181615ad7565b92915050565b600082601f83011261490c5761490b615893565b5b813561491c84826020860161484c565b91505092915050565b60008135905061493481615ae7565b92915050565b60008151905061494981615ae7565b92915050565b600060208284031215614965576149646158a2565b5b60006149738482850161488e565b91505092915050565b600060208284031215614992576149916158a2565b5b60006149a0848285016148a3565b91505092915050565b600080600080608085870312156149c3576149c26158a2565b5b60006149d18782880161488e565b94505060206149e28782880161488e565b93505060406149f387828801614925565b925050606085013567ffffffffffffffff811115614a1457614a1361589d565b5b614a20878288016148f7565b91505092959194509250565b600080600080600060a08688031215614a4857614a476158a2565b5b6000614a568882890161488e565b9550506020614a678882890161488e565b9450506040614a7888828901614925565b935050606086013567ffffffffffffffff811115614a9957614a9861589d565b5b614aa5888289016148f7565b9250506080614ab6888289016148e2565b9150509295509295909350565b60008060008060808587031215614add57614adc6158a2565b5b6000614aeb8782880161488e565b9450506020614afc878288016148e2565b935050604085013567ffffffffffffffff811115614b1d57614b1c61589d565b5b614b29878288016148f7565b9250506060614b3a87828801614925565b91505092959194509250565b600080600060608486031215614b5f57614b5e6158a2565b5b6000614b6d8682870161488e565b9350506020614b7e868287016148e2565b9250506040614b8f86828701614925565b9150509250925092565b600080600080600080600080610100898b031215614bba57614bb96158a2565b5b6000614bc88b828c0161488e565b985050602089013567ffffffffffffffff811115614be957614be861589d565b5b614bf58b828c016148f7565b975050604089013567ffffffffffffffff811115614c1657614c1561589d565b5b614c228b828c016148f7565b965050606089013567ffffffffffffffff811115614c4357614c4261589d565b5b614c4f8b828c016148f7565b9550506080614c608b828c01614925565b94505060a089013567ffffffffffffffff811115614c8157614c8061589d565b5b614c8d8b828c016148f7565b93505060c089013567ffffffffffffffff811115614cae57614cad61589d565b5b614cba8b828c016148f7565b92505060e089013567ffffffffffffffff811115614cdb57614cda61589d565b5b614ce78b828c016148f7565b9150509295985092959890939650565b600080600060608486031215614d1057614d0f6158a2565b5b6000614d1e8682870161488e565b9350506020614d2f86828701614925565b9250506040614d40868287016148b8565b9150509250925092565b600060208284031215614d6057614d5f6158a2565b5b6000614d6e848285016148cd565b91505092915050565b600060208284031215614d8d57614d8c6158a2565b5b600082013567ffffffffffffffff811115614dab57614daa61589d565b5b614db7848285016148f7565b91505092915050565b600060208284031215614dd657614dd56158a2565b5b6000614de484828501614925565b91505092915050565b600060208284031215614e0357614e026158a2565b5b6000614e118482850161493a565b91505092915050565b6000614e268383614e46565b60208301905092915050565b6000614e3e83836150ed565b905092915050565b614e4f8161561e565b82525050565b614e5e8161561e565b82525050565b6000614e6f82615560565b614e79818561559b565b9350614e8483615540565b8060005b83811015614eb5578151614e9c8882614e1a565b9750614ea783615581565b925050600181019050614e88565b5085935050505092915050565b6000614ecd8261556b565b614ed781856155ac565b935083602082028501614ee985615550565b8060005b85811015614f255784840389528151614f068582614e32565b9450614f118361558e565b925060208a01995050600181019050614eed565b50829750879550505050505092915050565b614f4081615630565b82525050565b614f4f81615679565b82525050565b6000614f6082615576565b614f6a81856155bd565b9350614f7a81856020860161569a565b614f83816158a7565b840191505092915050565b6000614f9982615576565b614fa381856155ce565b9350614fb381856020860161569a565b614fbc816158a7565b840191505092915050565b6000614fd282615576565b614fdc81856155df565b9350614fec81856020860161569a565b80840191505092915050565b60006150056026836155ce565b9150615010826158b8565b604082019050919050565b6000615028602b836155ce565b915061503382615907565b604082019050919050565b600061504b603c836155ce565b915061505682615956565b604082019050919050565b600061506e6020836155ce565b9150615079826159a5565b602082019050919050565b6000615091602e836155ce565b915061509c826159ce565b604082019050919050565b60006150b46020836155ce565b91506150bf82615a1d565b602082019050919050565b60006150d76037836155ce565b91506150e282615a46565b604082019050919050565b60006101408301600083015161510660008601826152e7565b50602083015161511960208601826152e7565b50604083015184820360408601526151318282614f55565b9150506060830151848203606086015261514b8282614f55565b915050608083015161516060808601826152e7565b5060a083015184820360a08601526151788282614f55565b91505060c083015184820360c08601526151928282614e64565b91505060e083015184820360e08601526151ac8282614f55565b9150506101008301518482036101008601526151c88282614f55565b9150506101208301516151df610120860182614f46565b508091505092915050565b60006101408301600083015161520360008601826152e7565b50602083015161521660208601826152e7565b506040830151848203604086015261522e8282614f55565b915050606083015184820360608601526152488282614f55565b915050608083015161525d60808601826152e7565b5060a083015184820360a08601526152758282614f55565b91505060c083015184820360c086015261528f8282614e64565b91505060e083015184820360e08601526152a98282614f55565b9150506101008301518482036101008601526152c58282614f55565b9150506101208301516152dc610120860182614f46565b508091505092915050565b6152f08161566f565b82525050565b6152ff8161566f565b82525050565b60006153118284614fc7565b915081905092915050565b60006020820190506153316000830184614e55565b92915050565b600060408201905061534c6000830185614e55565b818103602083015261535e8184614f8e565b90509392505050565b600060208201905081810360008301526153818184614ec2565b905092915050565b600060208201905061539e6000830184614f37565b92915050565b600060208201905081810360008301526153bd81614ff8565b9050919050565b600060208201905081810360008301526153dd8161501b565b9050919050565b600060208201905081810360008301526153fd8161503e565b9050919050565b6000602082019050818103600083015261541d81615061565b9050919050565b6000602082019050818103600083015261543d81615084565b9050919050565b6000602082019050818103600083015261545d816150a7565b9050919050565b6000602082019050818103600083015261547d816150ca565b9050919050565b6000602082019050818103600083015261549e81846151ea565b905092915050565b60006020820190506154bb60008301846152f6565b92915050565b60006040820190506154d660008301856152f6565b6154e36020830184614e55565b9392505050565b60006154f4615505565b905061550082826156ff565b919050565b6000604051905090565b600067ffffffffffffffff82111561552a57615529615864565b5b615533826158a7565b9050602081019050919050565b6000819050602082019050919050565b6000819050602082019050919050565b600081519050919050565b600081519050919050565b600081519050919050565b6000602082019050919050565b6000602082019050919050565b600082825260208201905092915050565b600082825260208201905092915050565b600082825260208201905092915050565b600082825260208201905092915050565b600081905092915050565b60006155f58261566f565b91506156008361566f565b92508282101561561357615612615779565b5b828203905092915050565b60006156298261564f565b9050919050565b60008115159050919050565b600081905061564a82615a95565b919050565b600073ffffffffffffffffffffffffffffffffffffffff82169050919050565b6000819050919050565b60006156848261563c565b9050919050565b82818337600083830152505050565b60005b838110156156b857808201518184015260208101905061569d565b838111156156c7576000848401525b50505050565b600060028204905060018216806156e557607f821691505b602082108114156156f9576156f86157d7565b5b50919050565b615708826158a7565b810181811067ffffffffffffffff8211171561572757615726615864565b5b80604052505050565b600061573b8261566f565b91507fffffffffffffffffffffffffffffffffffffffffffffffffffffffffffffffff82141561576e5761576d615779565b5b600182019050919050565b7f4e487b7100000000000000000000000000000000000000000000000000000000600052601160045260246000fd5b7f4e487b7100000000000000000000000000000000000000000000000000000000600052602160045260246000fd5b7f4e487b7100000000000000000000000000000000000000000000000000000000600052602260045260246000fd5b7f4e487b7100000000000000000000000000000000000000000000000000000000600052603160045260246000fd5b7f4e487b7100000000000000000000000000000000000000000000000000000000600052603260045260246000fd5b7f4e487b7100000000000000000000000000000000000000000000000000000000600052604160045260246000fd5b600080fd5b600080fd5b600080fd5b600080fd5b6000601f19601f8301169050919050565b7f4f776e61626c653a206e6577206f776e657220697320746865207a65726f206160008201527f6464726573730000000000000000000000000000000000000000000000000000602082015250565b7f446f634d616e616765723a204365747465207574696c69736174657572206e2760008201527f657869737465207061732e000000000000000000000000000000000000000000602082015250565b7f536176654d79446f633a204c276164647265737320736f75726365206574206460008201527f652064657374696e6174696f6e20736f6e74206964656e746971756500000000602082015250565b7f4f776e61626c653a2063616c6c6572206973206e6f7420746865206f776e6572600082015250565b7f546f6b656e4d616e616765723a20436574204e4654206e6520766f757320617060008201527f7061727469656e74207061732021000000000000000000000000000000000000602082015250565b7f436574204e4654206e6520766f75732061707061727469656e74207061732021600082015250565b7f546f6b656e4d616e616765723a20436520646f63756d656e7420636f7272657360008201527f706f6e64206120756e204e4654206f6666696369656c2e000000000000000000602082015250565b60048110615aa657615aa56157a8565b5b50565b615ab28161561e565b8114615abd57600080fd5b50565b615ac981615630565b8114615ad457600080fd5b50565b60048110615ae457600080fd5b50565b615af08161566f565b8114615afb57600080fd5b5056fea2646970667358221220f02d6e6983f44b5c3d667bc8228b714d7997dfde751093d0801f5322ccee508364736f6c63430008060033",
  "immutableReferences": {},
  "source": "//SPDX-License-Identifier: MIT\n\npragma solidity 0.8.6;\n\nimport \"@openzeppelin/contracts/access/Ownable.sol\";\nimport \"./SaveDocToken.sol\";\nimport \"./AccountManager.sol\";\nimport \"./NFT.sol\";\n\ncontract DocManager is Ownable, NFT\n{\n    mapping(string => bool) hashDocs;\n    SaveDocToken private saveDocToken;\n    AccountManager private accountManager;\n    mapping(address => mapping(TypeDoc => Document[])) private documents;\n\n    constructor(SaveDocToken _saveDocToken, AccountManager _accountManager)\n    {\n        saveDocToken = _saveDocToken;\n        accountManager = _accountManager;\n    }\n\n    modifier userExist(address addressUser)\n    {\n        require(accountManager.checkIfUserExist(addressUser), \"DocManager: Cette utilisateur n'existe pas.\");\n        _;\n    }\n\n    modifier isMyToken(uint256 tokenID, address ownerNFT)\n    {\n        require(saveDocToken.ownerOf(tokenID) == ownerNFT, \"TokenManager: Cet NFT ne vous appartient pas !\");\n        _;\n    }\n\n    modifier addressesAreDifferent(address from, address to)\n    {\n        require(from != to, \"SaveMyDoc: L'address source et de destination sont identique\");\n        _;\n    }\n\n    function getIndexNFT(address ownerNFT, TypeDoc typeNft, uint tokenID) public view onlyOwner() returns(uint)\n    {\n        bool found;\n        uint256 index;\n        // Document[] memory nft;\n\n        // if (isCopy)\n        // {\n        //     nft = documents[ownerNFT][typeNft];\n        // }\n        // else\n        // {\n        //     nft = documents[ownerNFT][TypeDoc.Original];\n        // }\n\n        for (uint256 i = 0; i < documents[ownerNFT][typeNft].length; i++)\n        {\n            if (tokenID == documents[ownerNFT][typeNft][i].tokenID)\n            {\n                index = i;\n                found = true;\n                i = documents[ownerNFT][typeNft].length;\n            }\n        }\n\n        require(found, \"Cet NFT ne vous appartient pas !\");\n        return index;\n    }\n\n    function createDoc(address ownerNFT, string memory tokenName, string memory tokenURI, string memory tokenMime, uint256 tokenLength, string memory filePath, string memory passwordEncrypted, string memory hashNFT) public returns (Document memory)\n    {\n        //check que l'utilisateur existe\n       require(!isOfficielDoc(hashNFT), \"TokenManager: Ce document correspond a un NFT officiel.\");\n       uint256 tokenID;\n       Document memory nft;\n       address[] memory certifyings;\n\n\n       tokenID = saveDocToken.mint(ownerNFT, tokenURI);\n       nft = Document(tokenID, tokenLength, tokenName, tokenMime, block.timestamp, filePath, certifyings, \"\", passwordEncrypted, TypeDoc.Original);\n\n       documents[ownerNFT][TypeDoc.Original].push(nft);\n       return nft;\n    }\n\n    // function createNFTCertified(string memory tokenName, string memory tokenURI, string memory tokenMime, uint256 tokenLength, string memory filePath, string memory passwordEncrypted) public returns(Nft memory)\n    // {\n    //   uint256 tokenID;\n    //   Nft memory nft;\n    //   address[] memory certifyings;\n\n    //   certifyings[0] = msg.sender;\n    //   tokenID = saveMyDocToken.addItem(ownerNFT, tokenURI);\n    //   nft = Nft(tokenID, tokenLength, tokenName, tokenMime, block.timestamp, filePath, certifyings , \"\", passwordEncrypted, TypeNFT.Original, true);\n\n    //   balance[ownerNFT].push(nft);\n\n    //   return nft;\n    // }\n\n    function getDocs() public view returns(Document[] memory)\n    {\n        //check que l'utilisateur existe\n      return documents[msg.sender][TypeDoc.Original];\n    }\n\n    function deleteDoc(address ownerDoc, uint256 tokenID, bool isCopyDoc) external onlyOwner() isMyToken(tokenID, ownerDoc) returns(bool)\n    {\n        uint256 index = getIndexNFT(ownerDoc, TypeDoc.Original, tokenID);\n\n        documents[ownerDoc][TypeDoc.Original][index] = documents[ownerDoc][TypeDoc.Original][documents[ownerDoc][TypeDoc.Original].length - 1];\n        documents[ownerDoc][TypeDoc.Original].pop();\n\n        if (!isCopyDoc)\n        {\n            saveDocToken.burn(tokenID, msg.sender);\n        }\n        return true;\n    }\n\n    // TODO how burn tokens\n    function deleteAllDocs() public\n    {\n        delete documents[msg.sender][TypeDoc.Original];\n    }\n\n    function createCopyDoc(address provider, address ownerCopyNFT, uint256 tokenID, string memory tokenURI, TypeDoc typeNft) onlyOwner() addressesAreDifferent(provider, ownerCopyNFT) isMyToken(tokenID, provider) userExist(provider) userExist(ownerCopyNFT) public\n    {\n        //TODO\n        // check qu'une copie avec le meme tokenID n'exite pas deja\n        Document memory nft;\n        Document memory nftCopy;\n\n        nft = documents[provider][TypeDoc.Original][getIndexNFT(provider, TypeDoc.Original, tokenID)];\n        nftCopy = Document(tokenID, nft.fileSize, nft.filename, nft.fileMimeType, block.timestamp, nft.filePath, nft.certifying, tokenURI, \"\", typeNft);\n        documents[ownerCopyNFT][typeNft].push(nftCopy);\n    }\n\n    function getAllCopyShared() public view returns(Document[] memory)\n    {\n        // check si user exist\n        return documents[msg.sender][TypeDoc.CopyShared];\n    }\n\n    function getAllCopyPendingTransfer() public view returns(Document[] memory)\n    {\n        // check si user exist\n        return documents[msg.sender][TypeDoc.CopyPendingTransfer];\n    }\n\n    function getAllCopyCertified() public view returns(Document[] memory)\n    {\n        // check si user exist\n        return documents[msg.sender][TypeDoc.CopyCertified];\n    }\n\n    function delCopyDoc(address ownerNFT, TypeDoc typeNft, uint256 index) public onlyOwner()\n    {\n        // check si user exist\n        Document memory substitute;\n\n        substitute = documents[ownerNFT][typeNft][documents[ownerNFT][typeNft].length - 1];\n        documents[ownerNFT][typeNft][index] = substitute;\n        documents[ownerNFT][typeNft].pop();\n    }\n\n    function delAllCopyNFT(address ownerNFT) public onlyOwner()\n    {\n        // check si user exist\n        delete documents[ownerNFT][TypeDoc.CopyShared];\n        delete documents[ownerNFT][TypeDoc.CopyCertified];\n        delete documents[ownerNFT][TypeDoc.CopyPendingTransfer];\n    }\n\n    function certify(address certifying, address dest, uint256 tokenID, string memory hashNFT) onlyOwner() public\n    {\n        uint256 index;\n\n        if (accountManager.isAuthority(certifying))\n        {\n            hashDocs[hashNFT] = true;\n        }\n        index = getIndexNFT(dest, TypeDoc.Original, tokenID);\n        documents[dest][TypeDoc.Original][index].certifying.push(certifying);\n    }\n\n    function copyDocToOriginal(address ownerCopyNFT, TypeDoc typeNft, string memory passwordEncrypted, uint256 tokenID) public isMyToken(tokenID, ownerCopyNFT) onlyOwner()\n    {\n        Document memory newNFT;\n        uint256 index;\n\n        index = getIndexNFT(ownerCopyNFT, typeNft, tokenID);\n        newNFT = documents[ownerCopyNFT][typeNft][index];\n        newNFT.tokenURI = \"\";\n        newNFT.typeNft = TypeDoc.Original;\n        newNFT.dateAdd = block.timestamp;\n        newNFT.passwordEncrypted = passwordEncrypted;\n        documents[ownerCopyNFT][TypeDoc.Original].push(newNFT);\n        delCopyDoc(ownerCopyNFT, typeNft, index);\n    }\n\n    function getOwnerToken(uint256 tokenID) public view returns(address)\n    {\n        return saveDocToken.ownerOf(tokenID);\n    }\n\n    function isOfficielDoc(string memory hashNFT) public view returns(bool)\n    {\n        return hashDocs[hashNFT];\n    }\n}\n",
  "sourcePath": "/home/traore/projects/SAV-Doc/contracts/DocManager.sol",
  "compiler": {
    "name": "solc",
    "version": "0.8.6+commit.11564f7e.Emscripten.clang"
  },
  "schemaVersion": "3.4.1",
  "updatedAt": "2021-07-29T07:46:22.886Z",
  "networkType": "ethereum",
  "devdoc": {
    "kind": "dev",
    "methods": {
      "owner()": {
        "details": "Returns the address of the current owner."
      },
      "renounceOwnership()": {
        "details": "Leaves the contract without owner. It will not be possible to call `onlyOwner` functions anymore. Can only be called by the current owner. NOTE: Renouncing ownership will leave the contract without an owner, thereby removing any functionality that is only available to the owner."
      },
      "transferOwnership(address)": {
        "details": "Transfers ownership of the contract to a new account (`newOwner`). Can only be called by the current owner."
      }
    },
    "version": 1
  },
  "userdoc": {
    "kind": "user",
    "methods": {},
    "version": 1
  }
}