{
  "contractName": "DocManager",
  "abi": [
    {
      "anonymous": false,
      "inputs": [
        {
          "indexed": true,
          "internalType": "address",
          "name": "previousOwner",
          "type": "address"
        },
        {
          "indexed": true,
          "internalType": "address",
          "name": "newOwner",
          "type": "address"
        }
      ],
      "name": "OwnershipTransferred",
      "type": "event"
    },
    {
      "inputs": [],
      "name": "owner",
      "outputs": [
        {
          "internalType": "address",
          "name": "",
          "type": "address"
        }
      ],
      "stateMutability": "view",
      "type": "function"
    },
    {
      "inputs": [],
      "name": "renounceOwnership",
      "outputs": [],
      "stateMutability": "nonpayable",
      "type": "function"
    },
    {
      "inputs": [
        {
          "internalType": "address",
          "name": "newOwner",
          "type": "address"
        }
      ],
      "name": "transferOwnership",
      "outputs": [],
      "stateMutability": "nonpayable",
      "type": "function"
    },
    {
      "inputs": [
        {
          "internalType": "address",
          "name": "ownerNFT",
          "type": "address"
        },
        {
          "internalType": "enum SaveDocStruct.TypeDoc",
          "name": "typeNft",
          "type": "uint8"
        },
        {
          "internalType": "uint256",
          "name": "tokenID",
          "type": "uint256"
        }
      ],
      "name": "getIndexNFT",
      "outputs": [
        {
          "internalType": "int256",
          "name": "",
          "type": "int256"
        }
      ],
      "stateMutability": "view",
      "type": "function"
    },
    {
      "inputs": [
        {
          "internalType": "address",
          "name": "ownerNFT",
          "type": "address"
        },
        {
          "internalType": "uint256",
          "name": "tokenID",
          "type": "uint256"
        },
        {
          "internalType": "string",
          "name": "tokenName",
          "type": "string"
        },
        {
          "internalType": "string",
          "name": "tokenMime",
          "type": "string"
        },
        {
          "internalType": "uint256",
          "name": "tokenLength",
          "type": "uint256"
        },
        {
          "internalType": "string",
          "name": "filePath",
          "type": "string"
        },
        {
          "internalType": "string",
          "name": "passwordEncrypted",
          "type": "string"
        },
        {
          "internalType": "string",
          "name": "hashNFT",
          "type": "string"
        }
      ],
      "name": "createDoc",
      "outputs": [
        {
          "components": [
            {
              "internalType": "uint256",
              "name": "tokenID",
              "type": "uint256"
            },
            {
              "internalType": "uint256",
              "name": "fileSize",
              "type": "uint256"
            },
            {
              "internalType": "string",
              "name": "filename",
              "type": "string"
            },
            {
              "internalType": "string",
              "name": "fileMimeType",
              "type": "string"
            },
            {
              "internalType": "uint256",
              "name": "dateAdd",
              "type": "uint256"
            },
            {
              "internalType": "string",
              "name": "filePath",
              "type": "string"
            },
            {
              "internalType": "address[]",
              "name": "certifying",
              "type": "address[]"
            },
            {
              "internalType": "string",
              "name": "tokenURI",
              "type": "string"
            },
            {
              "internalType": "string",
              "name": "passwordEncrypted",
              "type": "string"
            },
            {
              "internalType": "enum SaveDocStruct.TypeDoc",
              "name": "typeNft",
              "type": "uint8"
            }
          ],
          "internalType": "struct SaveDocStruct.Document",
          "name": "",
          "type": "tuple"
        }
      ],
      "stateMutability": "nonpayable",
      "type": "function"
    },
    {
      "inputs": [
        {
          "internalType": "address",
          "name": "addressUser",
          "type": "address"
        }
      ],
      "name": "getDocs",
      "outputs": [
        {
          "components": [
            {
              "internalType": "uint256",
              "name": "tokenID",
              "type": "uint256"
            },
            {
              "internalType": "uint256",
              "name": "fileSize",
              "type": "uint256"
            },
            {
              "internalType": "string",
              "name": "filename",
              "type": "string"
            },
            {
              "internalType": "string",
              "name": "fileMimeType",
              "type": "string"
            },
            {
              "internalType": "uint256",
              "name": "dateAdd",
              "type": "uint256"
            },
            {
              "internalType": "string",
              "name": "filePath",
              "type": "string"
            },
            {
              "internalType": "address[]",
              "name": "certifying",
              "type": "address[]"
            },
            {
              "internalType": "string",
              "name": "tokenURI",
              "type": "string"
            },
            {
              "internalType": "string",
              "name": "passwordEncrypted",
              "type": "string"
            },
            {
              "internalType": "enum SaveDocStruct.TypeDoc",
              "name": "typeNft",
              "type": "uint8"
            }
          ],
          "internalType": "struct SaveDocStruct.Document[]",
          "name": "",
          "type": "tuple[]"
        }
      ],
      "stateMutability": "view",
      "type": "function"
    },
    {
      "inputs": [
        {
          "internalType": "address",
          "name": "ownerDoc",
          "type": "address"
        },
        {
          "internalType": "uint256",
          "name": "tokenID",
          "type": "uint256"
        }
      ],
      "name": "deleteDoc",
      "outputs": [
        {
          "internalType": "bool",
          "name": "",
          "type": "bool"
        }
      ],
      "stateMutability": "nonpayable",
      "type": "function"
    },
    {
      "inputs": [
        {
          "internalType": "address",
          "name": "addressUser",
          "type": "address"
        }
      ],
      "name": "deleteAllDocs",
      "outputs": [],
      "stateMutability": "nonpayable",
      "type": "function"
    },
    {
      "inputs": [
        {
          "internalType": "address",
          "name": "provider",
          "type": "address"
        },
        {
          "internalType": "address",
          "name": "ownerCopyNFT",
          "type": "address"
        },
        {
          "internalType": "uint256",
          "name": "tokenID",
          "type": "uint256"
        },
        {
          "internalType": "string",
          "name": "tokenURI",
          "type": "string"
        },
        {
          "internalType": "enum SaveDocStruct.TypeDoc",
          "name": "typeNft",
          "type": "uint8"
        }
      ],
      "name": "createCopyDoc",
      "outputs": [],
      "stateMutability": "nonpayable",
      "type": "function"
    },
    {
      "inputs": [
        {
          "internalType": "address",
          "name": "addressUser",
          "type": "address"
        }
      ],
      "name": "getAllCopyShared",
      "outputs": [
        {
          "components": [
            {
              "internalType": "uint256",
              "name": "tokenID",
              "type": "uint256"
            },
            {
              "internalType": "uint256",
              "name": "fileSize",
              "type": "uint256"
            },
            {
              "internalType": "string",
              "name": "filename",
              "type": "string"
            },
            {
              "internalType": "string",
              "name": "fileMimeType",
              "type": "string"
            },
            {
              "internalType": "uint256",
              "name": "dateAdd",
              "type": "uint256"
            },
            {
              "internalType": "string",
              "name": "filePath",
              "type": "string"
            },
            {
              "internalType": "address[]",
              "name": "certifying",
              "type": "address[]"
            },
            {
              "internalType": "string",
              "name": "tokenURI",
              "type": "string"
            },
            {
              "internalType": "string",
              "name": "passwordEncrypted",
              "type": "string"
            },
            {
              "internalType": "enum SaveDocStruct.TypeDoc",
              "name": "typeNft",
              "type": "uint8"
            }
          ],
          "internalType": "struct SaveDocStruct.Document[]",
          "name": "",
          "type": "tuple[]"
        }
      ],
      "stateMutability": "view",
      "type": "function"
    },
    {
      "inputs": [
        {
          "internalType": "address",
          "name": "addressUser",
          "type": "address"
        }
      ],
      "name": "getAllCopyPendingTransfer",
      "outputs": [
        {
          "components": [
            {
              "internalType": "uint256",
              "name": "tokenID",
              "type": "uint256"
            },
            {
              "internalType": "uint256",
              "name": "fileSize",
              "type": "uint256"
            },
            {
              "internalType": "string",
              "name": "filename",
              "type": "string"
            },
            {
              "internalType": "string",
              "name": "fileMimeType",
              "type": "string"
            },
            {
              "internalType": "uint256",
              "name": "dateAdd",
              "type": "uint256"
            },
            {
              "internalType": "string",
              "name": "filePath",
              "type": "string"
            },
            {
              "internalType": "address[]",
              "name": "certifying",
              "type": "address[]"
            },
            {
              "internalType": "string",
              "name": "tokenURI",
              "type": "string"
            },
            {
              "internalType": "string",
              "name": "passwordEncrypted",
              "type": "string"
            },
            {
              "internalType": "enum SaveDocStruct.TypeDoc",
              "name": "typeNft",
              "type": "uint8"
            }
          ],
          "internalType": "struct SaveDocStruct.Document[]",
          "name": "",
          "type": "tuple[]"
        }
      ],
      "stateMutability": "view",
      "type": "function"
    },
    {
      "inputs": [
        {
          "internalType": "address",
          "name": "addressUser",
          "type": "address"
        }
      ],
      "name": "getAllCopyCertified",
      "outputs": [
        {
          "components": [
            {
              "internalType": "uint256",
              "name": "tokenID",
              "type": "uint256"
            },
            {
              "internalType": "uint256",
              "name": "fileSize",
              "type": "uint256"
            },
            {
              "internalType": "string",
              "name": "filename",
              "type": "string"
            },
            {
              "internalType": "string",
              "name": "fileMimeType",
              "type": "string"
            },
            {
              "internalType": "uint256",
              "name": "dateAdd",
              "type": "uint256"
            },
            {
              "internalType": "string",
              "name": "filePath",
              "type": "string"
            },
            {
              "internalType": "address[]",
              "name": "certifying",
              "type": "address[]"
            },
            {
              "internalType": "string",
              "name": "tokenURI",
              "type": "string"
            },
            {
              "internalType": "string",
              "name": "passwordEncrypted",
              "type": "string"
            },
            {
              "internalType": "enum SaveDocStruct.TypeDoc",
              "name": "typeNft",
              "type": "uint8"
            }
          ],
          "internalType": "struct SaveDocStruct.Document[]",
          "name": "",
          "type": "tuple[]"
        }
      ],
      "stateMutability": "view",
      "type": "function"
    },
    {
      "inputs": [
        {
          "internalType": "address",
          "name": "ownerCopyNFT",
          "type": "address"
        },
        {
          "internalType": "enum SaveDocStruct.TypeDoc",
          "name": "typeDocSc",
          "type": "uint8"
        },
        {
          "internalType": "enum SaveDocStruct.TypeDoc",
          "name": "typeDocDst",
          "type": "uint8"
        },
        {
          "internalType": "uint256",
          "name": "tokenID",
          "type": "uint256"
        },
        {
          "internalType": "string",
          "name": "passwordEncrypted",
          "type": "string"
        }
      ],
      "name": "convertTypeDoc",
      "outputs": [],
      "stateMutability": "nonpayable",
      "type": "function"
    },
    {
      "inputs": [
        {
          "internalType": "address",
          "name": "ownerNFT",
          "type": "address"
        },
        {
          "internalType": "enum SaveDocStruct.TypeDoc",
          "name": "typeNft",
          "type": "uint8"
        },
        {
          "internalType": "uint256",
          "name": "index",
          "type": "uint256"
        }
      ],
      "name": "delCopyDoc",
      "outputs": [],
      "stateMutability": "nonpayable",
      "type": "function"
    },
    {
      "inputs": [
        {
          "internalType": "address",
          "name": "ownerNFT",
          "type": "address"
        }
      ],
      "name": "delAllCopyDoc",
      "outputs": [],
      "stateMutability": "nonpayable",
      "type": "function"
    },
    {
      "inputs": [
        {
          "internalType": "address",
          "name": "certifying",
          "type": "address"
        },
        {
          "internalType": "bool",
          "name": "isAuthority",
          "type": "bool"
        },
        {
          "internalType": "address",
          "name": "applicant",
          "type": "address"
        },
        {
          "internalType": "uint256",
          "name": "tokenID",
          "type": "uint256"
        },
        {
          "internalType": "string",
          "name": "hashNFT",
          "type": "string"
        }
      ],
      "name": "certify",
      "outputs": [],
      "stateMutability": "nonpayable",
      "type": "function"
    }
  ],
  "bytecode": "0x60806040523480156200001157600080fd5b5062000032620000266200003860201b60201c565b6200004060201b60201c565b62000104565b600033905090565b60008060009054906101000a900473ffffffffffffffffffffffffffffffffffffffff169050816000806101000a81548173ffffffffffffffffffffffffffffffffffffffff021916908373ffffffffffffffffffffffffffffffffffffffff1602179055508173ffffffffffffffffffffffffffffffffffffffff168173ffffffffffffffffffffffffffffffffffffffff167f8be0079c531659141344cd1fd0a4f28419497f9722a3daafe3b4186f6b6457e060405160405180910390a35050565b61591b80620001146000396000f3fe608060405234801561001057600080fd5b50600436106101005760003560e01c806389ed5fa011610097578063bbed945711610066578063bbed9457146102a9578063bd53176b146102d9578063d83e2027146102f5578063f2fde38b1461032557610100565b806389ed5fa01461020f5780638c6acc511461023f5780638da5cb5b1461025b5780639643062c1461027957610100565b80635d1e7927116100d35780635d1e79271461019d57806371499a7b146101b9578063715018a6146101d55780637cc24f2d146101df57610100565b806304e5b45c14610105578063219e657b146101355780634531817d1461016557806351685f3514610181575b600080fd5b61011f600480360381019061011a9190614778565b610341565b60405161012c9190615069565b60405180910390f35b61014f600480360381019061014a9190614778565b610852565b60405161015c9190615069565b60405180910390f35b61017f600480360381019061017a919061496a565b610d63565b005b61019b60048036038101906101969190614778565b611592565b005b6101b760048036038101906101b2919061483c565b611793565b005b6101d360048036038101906101ce91906147a5565b611a5d565b005b6101dd612256565b005b6101f960048036038101906101f4919061496a565b6122de565b60405161020691906150a6565b60405180910390f35b610229600480360381019061022491906149bd565b612545565b604051610236919061508b565b60405180910390f35b610259600480360381019061025491906148d3565b612a29565b005b61026361326a565b604051610270919061504e565b60405180910390f35b610293600480360381019061028e91906149fd565b613293565b6040516102a091906151e1565b60405180910390f35b6102c360048036038101906102be9190614778565b613583565b6040516102d09190615069565b60405180910390f35b6102f360048036038101906102ee9190614778565b613a95565b005b61030f600480360381019061030a9190614778565b613b94565b60405161031c9190615069565b60405180910390f35b61033f600480360381019061033a9190614778565b6140a6565b005b606061034b61419e565b73ffffffffffffffffffffffffffffffffffffffff1661036961326a565b73ffffffffffffffffffffffffffffffffffffffff16146103bf576040517f08c379a00000000000000000000000000000000000000000000000000000000081526004016103b6906151a1565b60405180910390fd5b600260008373ffffffffffffffffffffffffffffffffffffffff1673ffffffffffffffffffffffffffffffffffffffff1681526020019081526020016000206000600380811115610413576104126154cb565b5b6003811115610425576104246154cb565b5b8152602001908152602001600020805480602002602001604051908101604052809291908181526020016000905b8282101561084757838290600052602060002090600a020160405180610140016040529081600082015481526020016001820154815260200160028201805461049b906153f0565b80601f01602080910402602001604051908101604052809291908181526020018280546104c7906153f0565b80156105145780601f106104e957610100808354040283529160200191610514565b820191906000526020600020905b8154815290600101906020018083116104f757829003601f168201915b5050505050815260200160038201805461052d906153f0565b80601f0160208091040260200160405190810160405280929190818152602001828054610559906153f0565b80156105a65780601f1061057b576101008083540402835291602001916105a6565b820191906000526020600020905b81548152906001019060200180831161058957829003601f168201915b50505050508152602001600482015481526020016005820180546105c9906153f0565b80601f01602080910402602001604051908101604052809291908181526020018280546105f5906153f0565b80156106425780601f1061061757610100808354040283529160200191610642565b820191906000526020600020905b81548152906001019060200180831161062557829003601f168201915b50505050508152602001600682018054806020026020016040519081016040528092919081815260200182805480156106d057602002820191906000526020600020905b8160009054906101000a900473ffffffffffffffffffffffffffffffffffffffff1673ffffffffffffffffffffffffffffffffffffffff1681526020019060010190808311610686575b505050505081526020016007820180546106e9906153f0565b80601f0160208091040260200160405190810160405280929190818152602001828054610715906153f0565b80156107625780601f1061073757610100808354040283529160200191610762565b820191906000526020600020905b81548152906001019060200180831161074557829003601f168201915b5050505050815260200160088201805461077b906153f0565b80601f01602080910402602001604051908101604052809291908181526020018280546107a7906153f0565b80156107f45780601f106107c9576101008083540402835291602001916107f4565b820191906000526020600020905b8154815290600101906020018083116107d757829003601f168201915b505050505081526020016009820160009054906101000a900460ff166003811115610822576108216154cb565b5b6003811115610834576108336154cb565b5b8152505081526020019060010190610453565b505050509050919050565b606061085c61419e565b73ffffffffffffffffffffffffffffffffffffffff1661087a61326a565b73ffffffffffffffffffffffffffffffffffffffff16146108d0576040517f08c379a00000000000000000000000000000000000000000000000000000000081526004016108c7906151a1565b60405180910390fd5b600260008373ffffffffffffffffffffffffffffffffffffffff1673ffffffffffffffffffffffffffffffffffffffff1681526020019081526020016000206000806003811115610924576109236154cb565b5b6003811115610936576109356154cb565b5b8152602001908152602001600020805480602002602001604051908101604052809291908181526020016000905b82821015610d5857838290600052602060002090600a02016040518061014001604052908160008201548152602001600182015481526020016002820180546109ac906153f0565b80601f01602080910402602001604051908101604052809291908181526020018280546109d8906153f0565b8015610a255780601f106109fa57610100808354040283529160200191610a25565b820191906000526020600020905b815481529060010190602001808311610a0857829003601f168201915b50505050508152602001600382018054610a3e906153f0565b80601f0160208091040260200160405190810160405280929190818152602001828054610a6a906153f0565b8015610ab75780601f10610a8c57610100808354040283529160200191610ab7565b820191906000526020600020905b815481529060010190602001808311610a9a57829003601f168201915b5050505050815260200160048201548152602001600582018054610ada906153f0565b80601f0160208091040260200160405190810160405280929190818152602001828054610b06906153f0565b8015610b535780601f10610b2857610100808354040283529160200191610b53565b820191906000526020600020905b815481529060010190602001808311610b3657829003601f168201915b5050505050815260200160068201805480602002602001604051908101604052809291908181526020018280548015610be157602002820191906000526020600020905b8160009054906101000a900473ffffffffffffffffffffffffffffffffffffffff1673ffffffffffffffffffffffffffffffffffffffff1681526020019060010190808311610b97575b50505050508152602001600782018054610bfa906153f0565b80601f0160208091040260200160405190810160405280929190818152602001828054610c26906153f0565b8015610c735780601f10610c4857610100808354040283529160200191610c73565b820191906000526020600020905b815481529060010190602001808311610c5657829003601f168201915b50505050508152602001600882018054610c8c906153f0565b80601f0160208091040260200160405190810160405280929190818152602001828054610cb8906153f0565b8015610d055780601f10610cda57610100808354040283529160200191610d05565b820191906000526020600020905b815481529060010190602001808311610ce857829003601f168201915b505050505081526020016009820160009054906101000a900460ff166003811115610d3357610d326154cb565b5b6003811115610d4557610d446154cb565b5b8152505081526020019060010190610964565b505050509050919050565b610d6b61419e565b73ffffffffffffffffffffffffffffffffffffffff16610d8961326a565b73ffffffffffffffffffffffffffffffffffffffff1614610ddf576040517f08c379a0000000000000000000000000000000000000000000000000000000008152600401610dd6906151a1565b60405180910390fd5b610de761431b565b600260008573ffffffffffffffffffffffffffffffffffffffff1673ffffffffffffffffffffffffffffffffffffffff1681526020019081526020016000206000846003811115610e3b57610e3a6154cb565b5b6003811115610e4d57610e4c6154cb565b5b81526020019081526020016000206001600260008773ffffffffffffffffffffffffffffffffffffffff1673ffffffffffffffffffffffffffffffffffffffff1681526020019081526020016000206000866003811115610eb157610eb06154cb565b5b6003811115610ec357610ec26154cb565b5b815260200190815260200160002080549050610edf9190615303565b81548110610ef057610eef615558565b5b90600052602060002090600a0201604051806101400160405290816000820154815260200160018201548152602001600282018054610f2e906153f0565b80601f0160208091040260200160405190810160405280929190818152602001828054610f5a906153f0565b8015610fa75780601f10610f7c57610100808354040283529160200191610fa7565b820191906000526020600020905b815481529060010190602001808311610f8a57829003601f168201915b50505050508152602001600382018054610fc0906153f0565b80601f0160208091040260200160405190810160405280929190818152602001828054610fec906153f0565b80156110395780601f1061100e57610100808354040283529160200191611039565b820191906000526020600020905b81548152906001019060200180831161101c57829003601f168201915b505050505081526020016004820154815260200160058201805461105c906153f0565b80601f0160208091040260200160405190810160405280929190818152602001828054611088906153f0565b80156110d55780601f106110aa576101008083540402835291602001916110d5565b820191906000526020600020905b8154815290600101906020018083116110b857829003601f168201915b505050505081526020016006820180548060200260200160405190810160405280929190818152602001828054801561116357602002820191906000526020600020905b8160009054906101000a900473ffffffffffffffffffffffffffffffffffffffff1673ffffffffffffffffffffffffffffffffffffffff1681526020019060010190808311611119575b5050505050815260200160078201805461117c906153f0565b80601f01602080910402602001604051908101604052809291908181526020018280546111a8906153f0565b80156111f55780601f106111ca576101008083540402835291602001916111f5565b820191906000526020600020905b8154815290600101906020018083116111d857829003601f168201915b5050505050815260200160088201805461120e906153f0565b80601f016020809104026020016040519081016040528092919081815260200182805461123a906153f0565b80156112875780601f1061125c57610100808354040283529160200191611287565b820191906000526020600020905b81548152906001019060200180831161126a57829003601f168201915b505050505081526020016009820160009054906101000a900460ff1660038111156112b5576112b46154cb565b5b60038111156112c7576112c66154cb565b5b81525050905080600260008673ffffffffffffffffffffffffffffffffffffffff1673ffffffffffffffffffffffffffffffffffffffff1681526020019081526020016000206000856003811115611322576113216154cb565b5b6003811115611334576113336154cb565b5b8152602001908152602001600020838154811061135457611353615558565b5b90600052602060002090600a020160008201518160000155602082015181600101556040820151816002019080519060200190611392929190614380565b5060608201518160030190805190602001906113af929190614380565b506080820151816004015560a08201518160050190805190602001906113d6929190614380565b5060c08201518160060190805190602001906113f3929190614406565b5060e0820151816007019080519060200190611410929190614380565b5061010082015181600801908051906020019061142e929190614380565b506101208201518160090160006101000a81548160ff0219169083600381111561145b5761145a6154cb565b5b0217905550905050600260008573ffffffffffffffffffffffffffffffffffffffff1673ffffffffffffffffffffffffffffffffffffffff16815260200190815260200160002060008460038111156114b7576114b66154cb565b5b60038111156114c9576114c86154cb565b5b81526020019081526020016000208054806114e7576114e6615529565b5b60019003818190600052602060002090600a0201600080820160009055600182016000905560028201600061151c9190614490565b60038201600061152c9190614490565b60048201600090556005820160006115449190614490565b60068201600061155491906144d0565b6007820160006115649190614490565b6008820160006115749190614490565b6009820160006101000a81549060ff02191690555050905550505050565b61159a61419e565b73ffffffffffffffffffffffffffffffffffffffff166115b861326a565b73ffffffffffffffffffffffffffffffffffffffff161461160e576040517f08c379a0000000000000000000000000000000000000000000000000000000008152600401611605906151a1565b60405180910390fd5b600260008273ffffffffffffffffffffffffffffffffffffffff1673ffffffffffffffffffffffffffffffffffffffff168152602001908152602001600020600060016003811115611663576116626154cb565b5b6003811115611675576116746154cb565b5b8152602001908152602001600020600061168f91906144f1565b600260008273ffffffffffffffffffffffffffffffffffffffff1673ffffffffffffffffffffffffffffffffffffffff1681526020019081526020016000206000600260038111156116e4576116e36154cb565b5b60038111156116f6576116f56154cb565b5b8152602001908152602001600020600061171091906144f1565b600260008273ffffffffffffffffffffffffffffffffffffffff1673ffffffffffffffffffffffffffffffffffffffff1681526020019081526020016000206000600380811115611764576117636154cb565b5b6003811115611776576117756154cb565b5b8152602001908152602001600020600061179091906144f1565b50565b61179b61419e565b73ffffffffffffffffffffffffffffffffffffffff166117b961326a565b73ffffffffffffffffffffffffffffffffffffffff161461180f576040517f08c379a0000000000000000000000000000000000000000000000000000000008152600401611806906151a1565b60405180910390fd5b60008061181e856000866122de565b90507fffffffffffffffffffffffffffffffffffffffffffffffffffffffffffffffff8113611882576040517f08c379a0000000000000000000000000000000000000000000000000000000008152600401611879906150c1565b60405180910390fd5b85156118bf57600180846040516118999190615037565b908152602001604051809103902060006101000a81548160ff0219169083151502179055505b600260008673ffffffffffffffffffffffffffffffffffffffff1673ffffffffffffffffffffffffffffffffffffffff1681526020019081526020016000206000806003811115611913576119126154cb565b5b6003811115611925576119246154cb565b5b8152602001908152602001600020818154811061194557611944615558565b5b90600052602060002090600a0201600601805490509150600260008673ffffffffffffffffffffffffffffffffffffffff1673ffffffffffffffffffffffffffffffffffffffff16815260200190815260200160002060008060038111156119b0576119af6154cb565b5b60038111156119c2576119c16154cb565b5b815260200190815260200160002081815481106119e2576119e1615558565b5b90600052602060002090600a0201600601879080600181540180825580915050600190039060005260206000200160009091909190916101000a81548173ffffffffffffffffffffffffffffffffffffffff021916908373ffffffffffffffffffffffffffffffffffffffff16021790555050505050505050565b611a6561419e565b73ffffffffffffffffffffffffffffffffffffffff16611a8361326a565b73ffffffffffffffffffffffffffffffffffffffff1614611ad9576040517f08c379a0000000000000000000000000000000000000000000000000000000008152600401611ad0906151a1565b60405180910390fd5b84848073ffffffffffffffffffffffffffffffffffffffff168273ffffffffffffffffffffffffffffffffffffffff161415611b4a576040517f08c379a0000000000000000000000000000000000000000000000000000000008152600401611b4190615181565b60405180910390fd5b6000611b58886000886122de565b90507fffffffffffffffffffffffffffffffffffffffffffffffffffffffffffffffff8114611bbc576040517f08c379a0000000000000000000000000000000000000000000000000000000008152600401611bb390615101565b60405180910390fd5b611bc461431b565b611bcc61431b565b600260008b73ffffffffffffffffffffffffffffffffffffffff1673ffffffffffffffffffffffffffffffffffffffff1681526020019081526020016000206000806003811115611c2057611c1f6154cb565b5b6003811115611c3257611c316154cb565b5b81526020019081526020016000208381548110611c5257611c51615558565b5b90600052602060002090600a0201604051806101400160405290816000820154815260200160018201548152602001600282018054611c90906153f0565b80601f0160208091040260200160405190810160405280929190818152602001828054611cbc906153f0565b8015611d095780601f10611cde57610100808354040283529160200191611d09565b820191906000526020600020905b815481529060010190602001808311611cec57829003601f168201915b50505050508152602001600382018054611d22906153f0565b80601f0160208091040260200160405190810160405280929190818152602001828054611d4e906153f0565b8015611d9b5780601f10611d7057610100808354040283529160200191611d9b565b820191906000526020600020905b815481529060010190602001808311611d7e57829003601f168201915b5050505050815260200160048201548152602001600582018054611dbe906153f0565b80601f0160208091040260200160405190810160405280929190818152602001828054611dea906153f0565b8015611e375780601f10611e0c57610100808354040283529160200191611e37565b820191906000526020600020905b815481529060010190602001808311611e1a57829003601f168201915b5050505050815260200160068201805480602002602001604051908101604052809291908181526020018280548015611ec557602002820191906000526020600020905b8160009054906101000a900473ffffffffffffffffffffffffffffffffffffffff1673ffffffffffffffffffffffffffffffffffffffff1681526020019060010190808311611e7b575b50505050508152602001600782018054611ede906153f0565b80601f0160208091040260200160405190810160405280929190818152602001828054611f0a906153f0565b8015611f575780601f10611f2c57610100808354040283529160200191611f57565b820191906000526020600020905b815481529060010190602001808311611f3a57829003601f168201915b50505050508152602001600882018054611f70906153f0565b80601f0160208091040260200160405190810160405280929190818152602001828054611f9c906153f0565b8015611fe95780601f10611fbe57610100808354040283529160200191611fe9565b820191906000526020600020905b815481529060010190602001808311611fcc57829003601f168201915b505050505081526020016009820160009054906101000a900460ff166003811115612017576120166154cb565b5b6003811115612029576120286154cb565b5b8152505091506040518061014001604052808981526020018360200151815260200183604001518152602001836060015181526020014281526020018360a0015181526020018360c0015181526020018881526020016040518060200160405280600081525081526020018760038111156120a7576120a66154cb565b5b8152509050600260008a73ffffffffffffffffffffffffffffffffffffffff1673ffffffffffffffffffffffffffffffffffffffff1681526020019081526020016000206000876003811115612100576120ff6154cb565b5b6003811115612112576121116154cb565b5b81526020019081526020016000208190806001815401808255809150506001900390600052602060002090600a02016000909190919091506000820151816000015560208201518160010155604082015181600201908051906020019061217a929190614380565b506060820151816003019080519060200190612197929190614380565b506080820151816004015560a08201518160050190805190602001906121be929190614380565b5060c08201518160060190805190602001906121db929190614406565b5060e08201518160070190805190602001906121f8929190614380565b50610100820151816008019080519060200190612216929190614380565b506101208201518160090160006101000a81548160ff02191690836003811115612243576122426154cb565b5b0217905550505050505050505050505050565b61225e61419e565b73ffffffffffffffffffffffffffffffffffffffff1661227c61326a565b73ffffffffffffffffffffffffffffffffffffffff16146122d2576040517f08c379a00000000000000000000000000000000000000000000000000000000081526004016122c9906151a1565b60405180910390fd5b6122dc60006141a6565b565b60006122e861419e565b73ffffffffffffffffffffffffffffffffffffffff1661230661326a565b73ffffffffffffffffffffffffffffffffffffffff161461235c576040517f08c379a0000000000000000000000000000000000000000000000000000000008152600401612353906151a1565b60405180910390fd5b6000807fffffffffffffffffffffffffffffffffffffffffffffffffffffffffffffffff905060005b600260008873ffffffffffffffffffffffffffffffffffffffff1673ffffffffffffffffffffffffffffffffffffffff16815260200190815260200160002060008760038111156123d9576123d86154cb565b5b60038111156123eb576123ea6154cb565b5b81526020019081526020016000208054905081101561253857600260008873ffffffffffffffffffffffffffffffffffffffff1673ffffffffffffffffffffffffffffffffffffffff1681526020019081526020016000206000876003811115612458576124576154cb565b5b600381111561246a576124696154cb565b5b8152602001908152602001600020818154811061248a57612489615558565b5b90600052602060002090600a0201600001548514156125255780915060019250600260008873ffffffffffffffffffffffffffffffffffffffff1673ffffffffffffffffffffffffffffffffffffffff16815260200190815260200160002060008760038111156124fe576124fd6154cb565b5b60038111156125105761250f6154cb565b5b81526020019081526020016000208054905090505b808061253090615453565b915050612385565b5080925050509392505050565b600061254f61419e565b73ffffffffffffffffffffffffffffffffffffffff1661256d61326a565b73ffffffffffffffffffffffffffffffffffffffff16146125c3576040517f08c379a00000000000000000000000000000000000000000000000000000000081526004016125ba906151a1565b60405180910390fd5b60006125d1846000856122de565b90507fffffffffffffffffffffffffffffffffffffffffffffffffffffffffffffffff8113612635576040517f08c379a000000000000000000000000000000000000000000000000000000000815260040161262c906150c1565b60405180910390fd5b600260008573ffffffffffffffffffffffffffffffffffffffff1673ffffffffffffffffffffffffffffffffffffffff1681526020019081526020016000206000806003811115612689576126886154cb565b5b600381111561269b5761269a6154cb565b5b81526020019081526020016000206001600260008773ffffffffffffffffffffffffffffffffffffffff1673ffffffffffffffffffffffffffffffffffffffff16815260200190815260200160002060008060038111156126ff576126fe6154cb565b5b6003811115612711576127106154cb565b5b81526020019081526020016000208054905061272d9190615303565b8154811061273e5761273d615558565b5b90600052602060002090600a0201600260008673ffffffffffffffffffffffffffffffffffffffff1673ffffffffffffffffffffffffffffffffffffffff16815260200190815260200160002060008060038111156127a05761279f6154cb565b5b60038111156127b2576127b16154cb565b5b815260200190815260200160002082815481106127d2576127d1615558565b5b90600052602060002090600a020160008201548160000155600182015481600101556002820181600201908054612808906153f0565b612813929190614515565b506003820181600301908054612828906153f0565b612833929190614515565b50600482015481600401556005820181600501908054612852906153f0565b61285d929190614515565b5060068201816006019080546128749291906145a2565b506007820181600701908054612889906153f0565b612894929190614515565b5060088201816008019080546128a9906153f0565b6128b4929190614515565b506009820160009054906101000a900460ff168160090160006101000a81548160ff021916908360038111156128ed576128ec6154cb565b5b0217905550905050600260008573ffffffffffffffffffffffffffffffffffffffff1673ffffffffffffffffffffffffffffffffffffffff1681526020019081526020016000206000806003811115612949576129486154cb565b5b600381111561295b5761295a6154cb565b5b815260200190815260200160002080548061297957612978615529565b5b60019003818190600052602060002090600a020160008082016000905560018201600090556002820160006129ae9190614490565b6003820160006129be9190614490565b60048201600090556005820160006129d69190614490565b6006820160006129e691906144d0565b6007820160006129f69190614490565b600882016000612a069190614490565b6009820160006101000a81549060ff021916905550509055600191505092915050565b612a3161419e565b73ffffffffffffffffffffffffffffffffffffffff16612a4f61326a565b73ffffffffffffffffffffffffffffffffffffffff1614612aa5576040517f08c379a0000000000000000000000000000000000000000000000000000000008152600401612a9c906151a1565b60405180910390fd5b6000612ab28686856122de565b9050612abc61431b565b846003811115612acf57612ace6154cb565b5b866003811115612ae257612ae16154cb565b5b1415612b23576040517f08c379a0000000000000000000000000000000000000000000000000000000008152600401612b1a906151c1565b60405180910390fd5b7fffffffffffffffffffffffffffffffffffffffffffffffffffffffffffffffff8213612b85576040517f08c379a0000000000000000000000000000000000000000000000000000000008152600401612b7c90615141565b60405180910390fd5b600260008873ffffffffffffffffffffffffffffffffffffffff1673ffffffffffffffffffffffffffffffffffffffff1681526020019081526020016000206000876003811115612bd957612bd86154cb565b5b6003811115612beb57612bea6154cb565b5b81526020019081526020016000208281548110612c0b57612c0a615558565b5b90600052602060002090600a0201604051806101400160405290816000820154815260200160018201548152602001600282018054612c49906153f0565b80601f0160208091040260200160405190810160405280929190818152602001828054612c75906153f0565b8015612cc25780601f10612c9757610100808354040283529160200191612cc2565b820191906000526020600020905b815481529060010190602001808311612ca557829003601f168201915b50505050508152602001600382018054612cdb906153f0565b80601f0160208091040260200160405190810160405280929190818152602001828054612d07906153f0565b8015612d545780601f10612d2957610100808354040283529160200191612d54565b820191906000526020600020905b815481529060010190602001808311612d3757829003601f168201915b5050505050815260200160048201548152602001600582018054612d77906153f0565b80601f0160208091040260200160405190810160405280929190818152602001828054612da3906153f0565b8015612df05780601f10612dc557610100808354040283529160200191612df0565b820191906000526020600020905b815481529060010190602001808311612dd357829003601f168201915b5050505050815260200160068201805480602002602001604051908101604052809291908181526020018280548015612e7e57602002820191906000526020600020905b8160009054906101000a900473ffffffffffffffffffffffffffffffffffffffff1673ffffffffffffffffffffffffffffffffffffffff1681526020019060010190808311612e34575b50505050508152602001600782018054612e97906153f0565b80601f0160208091040260200160405190810160405280929190818152602001828054612ec3906153f0565b8015612f105780601f10612ee557610100808354040283529160200191612f10565b820191906000526020600020905b815481529060010190602001808311612ef357829003601f168201915b50505050508152602001600882018054612f29906153f0565b80601f0160208091040260200160405190810160405280929190818152602001828054612f55906153f0565b8015612fa25780601f10612f7757610100808354040283529160200191612fa2565b820191906000526020600020905b815481529060010190602001808311612f8557829003601f168201915b505050505081526020016009820160009054906101000a900460ff166003811115612fd057612fcf6154cb565b5b6003811115612fe257612fe16154cb565b5b815250509050848161012001906003811115613001576130006154cb565b5b90816003811115613015576130146154cb565b5b815250506000600381111561302d5761302c6154cb565b5b8560038111156130405761303f6154cb565b5b14156130b85760008351141561308b576040517f08c379a000000000000000000000000000000000000000000000000000000000815260040161308290615161565b60405180910390fd5b604051806020016040528060008152508160e0018190525042816080018181525050828161010001819052505b600260008873ffffffffffffffffffffffffffffffffffffffff1673ffffffffffffffffffffffffffffffffffffffff168152602001908152602001600020600086600381111561310c5761310b6154cb565b5b600381111561311e5761311d6154cb565b5b81526020019081526020016000208190806001815401808255809150506001900390600052602060002090600a020160009091909190915060008201518160000155602082015181600101556040820151816002019080519060200190613186929190614380565b5060608201518160030190805190602001906131a3929190614380565b506080820151816004015560a08201518160050190805190602001906131ca929190614380565b5060c08201518160060190805190602001906131e7929190614406565b5060e0820151816007019080519060200190613204929190614380565b50610100820151816008019080519060200190613222929190614380565b506101208201518160090160006101000a81548160ff0219169083600381111561324f5761324e6154cb565b5b02179055505050613261878784610d63565b50505050505050565b60008060009054906101000a900473ffffffffffffffffffffffffffffffffffffffff16905090565b61329b61431b565b6132a361419e565b73ffffffffffffffffffffffffffffffffffffffff166132c161326a565b73ffffffffffffffffffffffffffffffffffffffff1614613317576040517f08c379a000000000000000000000000000000000000000000000000000000000815260040161330e906151a1565b60405180910390fd5b6133208261426a565b15613360576040517f08c379a000000000000000000000000000000000000000000000000000000000815260040161335790615121565b60405180910390fd5b61336861431b565b60606040518061014001604052808b81526020018881526020018a8152602001898152602001428152602001878152602001828152602001604051806020016040528060008152508152602001868152602001600060038111156133cf576133ce6154cb565b5b8152509150600260008c73ffffffffffffffffffffffffffffffffffffffff1673ffffffffffffffffffffffffffffffffffffffff1681526020019081526020016000206000806003811115613428576134276154cb565b5b600381111561343a576134396154cb565b5b81526020019081526020016000208290806001815401808255809150506001900390600052602060002090600a0201600090919091909150600082015181600001556020820151816001015560408201518160020190805190602001906134a2929190614380565b5060608201518160030190805190602001906134bf929190614380565b506080820151816004015560a08201518160050190805190602001906134e6929190614380565b5060c0820151816006019080519060200190613503929190614406565b5060e0820151816007019080519060200190613520929190614380565b5061010082015181600801908051906020019061353e929190614380565b506101208201518160090160006101000a81548160ff0219169083600381111561356b5761356a6154cb565b5b02179055505050819250505098975050505050505050565b606061358d61419e565b73ffffffffffffffffffffffffffffffffffffffff166135ab61326a565b73ffffffffffffffffffffffffffffffffffffffff1614613601576040517f08c379a00000000000000000000000000000000000000000000000000000000081526004016135f8906151a1565b60405180910390fd5b600260008373ffffffffffffffffffffffffffffffffffffffff1673ffffffffffffffffffffffffffffffffffffffff168152602001908152602001600020600060026003811115613656576136556154cb565b5b6003811115613668576136676154cb565b5b8152602001908152602001600020805480602002602001604051908101604052809291908181526020016000905b82821015613a8a57838290600052602060002090600a02016040518061014001604052908160008201548152602001600182015481526020016002820180546136de906153f0565b80601f016020809104026020016040519081016040528092919081815260200182805461370a906153f0565b80156137575780601f1061372c57610100808354040283529160200191613757565b820191906000526020600020905b81548152906001019060200180831161373a57829003601f168201915b50505050508152602001600382018054613770906153f0565b80601f016020809104026020016040519081016040528092919081815260200182805461379c906153f0565b80156137e95780601f106137be576101008083540402835291602001916137e9565b820191906000526020600020905b8154815290600101906020018083116137cc57829003601f168201915b505050505081526020016004820154815260200160058201805461380c906153f0565b80601f0160208091040260200160405190810160405280929190818152602001828054613838906153f0565b80156138855780601f1061385a57610100808354040283529160200191613885565b820191906000526020600020905b81548152906001019060200180831161386857829003601f168201915b505050505081526020016006820180548060200260200160405190810160405280929190818152602001828054801561391357602002820191906000526020600020905b8160009054906101000a900473ffffffffffffffffffffffffffffffffffffffff1673ffffffffffffffffffffffffffffffffffffffff16815260200190600101908083116138c9575b5050505050815260200160078201805461392c906153f0565b80601f0160208091040260200160405190810160405280929190818152602001828054613958906153f0565b80156139a55780601f1061397a576101008083540402835291602001916139a5565b820191906000526020600020905b81548152906001019060200180831161398857829003601f168201915b505050505081526020016008820180546139be906153f0565b80601f01602080910402602001604051908101604052809291908181526020018280546139ea906153f0565b8015613a375780601f10613a0c57610100808354040283529160200191613a37565b820191906000526020600020905b815481529060010190602001808311613a1a57829003601f168201915b505050505081526020016009820160009054906101000a900460ff166003811115613a6557613a646154cb565b5b6003811115613a7757613a766154cb565b5b8152505081526020019060010190613696565b505050509050919050565b613a9d61419e565b73ffffffffffffffffffffffffffffffffffffffff16613abb61326a565b73ffffffffffffffffffffffffffffffffffffffff1614613b11576040517f08c379a0000000000000000000000000000000000000000000000000000000008152600401613b08906151a1565b60405180910390fd5b600260008273ffffffffffffffffffffffffffffffffffffffff1673ffffffffffffffffffffffffffffffffffffffff1681526020019081526020016000206000806003811115613b6557613b646154cb565b5b6003811115613b7757613b766154cb565b5b81526020019081526020016000206000613b9191906144f1565b50565b6060613b9e61419e565b73ffffffffffffffffffffffffffffffffffffffff16613bbc61326a565b73ffffffffffffffffffffffffffffffffffffffff1614613c12576040517f08c379a0000000000000000000000000000000000000000000000000000000008152600401613c09906151a1565b60405180910390fd5b600260008373ffffffffffffffffffffffffffffffffffffffff1673ffffffffffffffffffffffffffffffffffffffff168152602001908152602001600020600060016003811115613c6757613c666154cb565b5b6003811115613c7957613c786154cb565b5b8152602001908152602001600020805480602002602001604051908101604052809291908181526020016000905b8282101561409b57838290600052602060002090600a0201604051806101400160405290816000820154815260200160018201548152602001600282018054613cef906153f0565b80601f0160208091040260200160405190810160405280929190818152602001828054613d1b906153f0565b8015613d685780601f10613d3d57610100808354040283529160200191613d68565b820191906000526020600020905b815481529060010190602001808311613d4b57829003601f168201915b50505050508152602001600382018054613d81906153f0565b80601f0160208091040260200160405190810160405280929190818152602001828054613dad906153f0565b8015613dfa5780601f10613dcf57610100808354040283529160200191613dfa565b820191906000526020600020905b815481529060010190602001808311613ddd57829003601f168201915b5050505050815260200160048201548152602001600582018054613e1d906153f0565b80601f0160208091040260200160405190810160405280929190818152602001828054613e49906153f0565b8015613e965780601f10613e6b57610100808354040283529160200191613e96565b820191906000526020600020905b815481529060010190602001808311613e7957829003601f168201915b5050505050815260200160068201805480602002602001604051908101604052809291908181526020018280548015613f2457602002820191906000526020600020905b8160009054906101000a900473ffffffffffffffffffffffffffffffffffffffff1673ffffffffffffffffffffffffffffffffffffffff1681526020019060010190808311613eda575b50505050508152602001600782018054613f3d906153f0565b80601f0160208091040260200160405190810160405280929190818152602001828054613f69906153f0565b8015613fb65780601f10613f8b57610100808354040283529160200191613fb6565b820191906000526020600020905b815481529060010190602001808311613f9957829003601f168201915b50505050508152602001600882018054613fcf906153f0565b80601f0160208091040260200160405190810160405280929190818152602001828054613ffb906153f0565b80156140485780601f1061401d57610100808354040283529160200191614048565b820191906000526020600020905b81548152906001019060200180831161402b57829003601f168201915b505050505081526020016009820160009054906101000a900460ff166003811115614076576140756154cb565b5b6003811115614088576140876154cb565b5b8152505081526020019060010190613ca7565b505050509050919050565b6140ae61419e565b73ffffffffffffffffffffffffffffffffffffffff166140cc61326a565b73ffffffffffffffffffffffffffffffffffffffff1614614122576040517f08c379a0000000000000000000000000000000000000000000000000000000008152600401614119906151a1565b60405180910390fd5b600073ffffffffffffffffffffffffffffffffffffffff168173ffffffffffffffffffffffffffffffffffffffff161415614192576040517f08c379a0000000000000000000000000000000000000000000000000000000008152600401614189906150e1565b60405180910390fd5b61419b816141a6565b50565b600033905090565b60008060009054906101000a900473ffffffffffffffffffffffffffffffffffffffff169050816000806101000a81548173ffffffffffffffffffffffffffffffffffffffff021916908373ffffffffffffffffffffffffffffffffffffffff1602179055508173ffffffffffffffffffffffffffffffffffffffff168173ffffffffffffffffffffffffffffffffffffffff167f8be0079c531659141344cd1fd0a4f28419497f9722a3daafe3b4186f6b6457e060405160405180910390a35050565b600061427461419e565b73ffffffffffffffffffffffffffffffffffffffff1661429261326a565b73ffffffffffffffffffffffffffffffffffffffff16146142e8576040517f08c379a00000000000000000000000000000000000000000000000000000000081526004016142df906151a1565b60405180910390fd5b6001826040516142f89190615037565b908152602001604051809103902060009054906101000a900460ff169050919050565b6040518061014001604052806000815260200160008152602001606081526020016060815260200160008152602001606081526020016060815260200160608152602001606081526020016000600381111561437a576143796154cb565b5b81525090565b82805461438c906153f0565b90600052602060002090601f0160209004810192826143ae57600085556143f5565b82601f106143c757805160ff19168380011785556143f5565b828001600101855582156143f5579182015b828111156143f45782518255916020019190600101906143d9565b5b50905061440291906145f4565b5090565b82805482825590600052602060002090810192821561447f579160200282015b8281111561447e5782518260006101000a81548173ffffffffffffffffffffffffffffffffffffffff021916908373ffffffffffffffffffffffffffffffffffffffff16021790555091602001919060010190614426565b5b50905061448c91906145f4565b5090565b50805461449c906153f0565b6000825580601f106144ae57506144cd565b601f0160209004906000526020600020908101906144cc91906145f4565b5b50565b50805460008255906000526020600020908101906144ee91906145f4565b50565b50805460008255600a02906000526020600020908101906145129190614611565b50565b828054614521906153f0565b90600052602060002090601f0160209004810192826145435760008555614591565b82601f106145545780548555614591565b8280016001018555821561459157600052602060002091601f016020900482015b82811115614590578254825591600101919060010190614575565b5b50905061459e91906145f4565b5090565b8280548282559060005260206000209081019282156145e35760005260206000209182015b828111156145e25782548255916001019190600101906145c7565b5b5090506145f091906145f4565b5090565b5b8082111561460d5760008160009055506001016145f5565b5090565b5b808211156146b057600080820160009055600182016000905560028201600061463b9190614490565b60038201600061464b9190614490565b60048201600090556005820160006146639190614490565b60068201600061467391906144d0565b6007820160006146839190614490565b6008820160006146939190614490565b6009820160006101000a81549060ff021916905550600a01614612565b5090565b60006146c76146c284615228565b615203565b9050828152602081018484840111156146e3576146e26155bb565b5b6146ee8482856153ae565b509392505050565b60008135905061470581615890565b92915050565b60008135905061471a816158a7565b92915050565b60008135905061472f816158be565b92915050565b600082601f83011261474a576147496155b6565b5b813561475a8482602086016146b4565b91505092915050565b600081359050614772816158ce565b92915050565b60006020828403121561478e5761478d6155c5565b5b600061479c848285016146f6565b91505092915050565b600080600080600060a086880312156147c1576147c06155c5565b5b60006147cf888289016146f6565b95505060206147e0888289016146f6565b94505060406147f188828901614763565b935050606086013567ffffffffffffffff811115614812576148116155c0565b5b61481e88828901614735565b925050608061482f88828901614720565b9150509295509295909350565b600080600080600060a08688031215614858576148576155c5565b5b6000614866888289016146f6565b95505060206148778882890161470b565b9450506040614888888289016146f6565b935050606061489988828901614763565b925050608086013567ffffffffffffffff8111156148ba576148b96155c0565b5b6148c688828901614735565b9150509295509295909350565b600080600080600060a086880312156148ef576148ee6155c5565b5b60006148fd888289016146f6565b955050602061490e88828901614720565b945050604061491f88828901614720565b935050606061493088828901614763565b925050608086013567ffffffffffffffff811115614951576149506155c0565b5b61495d88828901614735565b9150509295509295909350565b600080600060608486031215614983576149826155c5565b5b6000614991868287016146f6565b93505060206149a286828701614720565b92505060406149b386828701614763565b9150509250925092565b600080604083850312156149d4576149d36155c5565b5b60006149e2858286016146f6565b92505060206149f385828601614763565b9150509250929050565b600080600080600080600080610100898b031215614a1e57614a1d6155c5565b5b6000614a2c8b828c016146f6565b9850506020614a3d8b828c01614763565b975050604089013567ffffffffffffffff811115614a5e57614a5d6155c0565b5b614a6a8b828c01614735565b965050606089013567ffffffffffffffff811115614a8b57614a8a6155c0565b5b614a978b828c01614735565b9550506080614aa88b828c01614763565b94505060a089013567ffffffffffffffff811115614ac957614ac86155c0565b5b614ad58b828c01614735565b93505060c089013567ffffffffffffffff811115614af657614af56155c0565b5b614b028b828c01614735565b92505060e089013567ffffffffffffffff811115614b2357614b226155c0565b5b614b2f8b828c01614735565b9150509295985092959890939650565b6000614b4b8383614b6b565b60208301905092915050565b6000614b638383614e2e565b905092915050565b614b7481615337565b82525050565b614b8381615337565b82525050565b6000614b9482615279565b614b9e81856152b4565b9350614ba983615259565b8060005b83811015614bda578151614bc18882614b3f565b9750614bcc8361529a565b925050600181019050614bad565b5085935050505092915050565b6000614bf282615284565b614bfc81856152c5565b935083602082028501614c0e85615269565b8060005b85811015614c4a5784840389528151614c2b8582614b57565b9450614c36836152a7565b925060208a01995050600181019050614c12565b50829750879550505050505092915050565b614c6581615349565b82525050565b614c748161539c565b82525050565b614c8381615368565b82525050565b6000614c948261528f565b614c9e81856152d6565b9350614cae8185602086016153bd565b614cb7816155ca565b840191505092915050565b6000614ccd8261528f565b614cd781856152f8565b9350614ce78185602086016153bd565b80840191505092915050565b6000614d00602c836152e7565b9150614d0b826155db565b604082019050919050565b6000614d236026836152e7565b9150614d2e8261562a565b604082019050919050565b6000614d466036836152e7565b9150614d5182615679565b604082019050919050565b6000614d696035836152e7565b9150614d74826156c8565b604082019050919050565b6000614d8c603c836152e7565b9150614d9782615717565b604082019050919050565b6000614daf602c836152e7565b9150614dba82615766565b604082019050919050565b6000614dd2603d836152e7565b9150614ddd826157b5565b604082019050919050565b6000614df56020836152e7565b9150614e0082615804565b602082019050919050565b6000614e18603b836152e7565b9150614e238261582d565b604082019050919050565b600061014083016000830151614e476000860182615028565b506020830151614e5a6020860182615028565b5060408301518482036040860152614e728282614c89565b91505060608301518482036060860152614e8c8282614c89565b9150506080830151614ea16080860182615028565b5060a083015184820360a0860152614eb98282614c89565b91505060c083015184820360c0860152614ed38282614b89565b91505060e083015184820360e0860152614eed8282614c89565b915050610100830151848203610100860152614f098282614c89565b915050610120830151614f20610120860182614c6b565b508091505092915050565b600061014083016000830151614f446000860182615028565b506020830151614f576020860182615028565b5060408301518482036040860152614f6f8282614c89565b91505060608301518482036060860152614f898282614c89565b9150506080830151614f9e6080860182615028565b5060a083015184820360a0860152614fb68282614c89565b91505060c083015184820360c0860152614fd08282614b89565b91505060e083015184820360e0860152614fea8282614c89565b9150506101008301518482036101008601526150068282614c89565b91505061012083015161501d610120860182614c6b565b508091505092915050565b61503181615392565b82525050565b60006150438284614cc2565b915081905092915050565b60006020820190506150636000830184614b7a565b92915050565b600060208201905081810360008301526150838184614be7565b905092915050565b60006020820190506150a06000830184614c5c565b92915050565b60006020820190506150bb6000830184614c7a565b92915050565b600060208201905081810360008301526150da81614cf3565b9050919050565b600060208201905081810360008301526150fa81614d16565b9050919050565b6000602082019050818103600083015261511a81614d39565b9050919050565b6000602082019050818103600083015261513a81614d5c565b9050919050565b6000602082019050818103600083015261515a81614d7f565b9050919050565b6000602082019050818103600083015261517a81614da2565b9050919050565b6000602082019050818103600083015261519a81614dc5565b9050919050565b600060208201905081810360008301526151ba81614de8565b9050919050565b600060208201905081810360008301526151da81614e0b565b9050919050565b600060208201905081810360008301526151fb8184614f2b565b905092915050565b600061520d61521e565b90506152198282615422565b919050565b6000604051905090565b600067ffffffffffffffff82111561524357615242615587565b5b61524c826155ca565b9050602081019050919050565b6000819050602082019050919050565b6000819050602082019050919050565b600081519050919050565b600081519050919050565b600081519050919050565b6000602082019050919050565b6000602082019050919050565b600082825260208201905092915050565b600082825260208201905092915050565b600082825260208201905092915050565b600082825260208201905092915050565b600081905092915050565b600061530e82615392565b915061531983615392565b92508282101561532c5761532b61549c565b5b828203905092915050565b600061534282615372565b9050919050565b60008115159050919050565b60008190506153638261587c565b919050565b6000819050919050565b600073ffffffffffffffffffffffffffffffffffffffff82169050919050565b6000819050919050565b60006153a782615355565b9050919050565b82818337600083830152505050565b60005b838110156153db5780820151818401526020810190506153c0565b838111156153ea576000848401525b50505050565b6000600282049050600182168061540857607f821691505b6020821081141561541c5761541b6154fa565b5b50919050565b61542b826155ca565b810181811067ffffffffffffffff8211171561544a57615449615587565b5b80604052505050565b600061545e82615392565b91507fffffffffffffffffffffffffffffffffffffffffffffffffffffffffffffffff8214156154915761549061549c565b5b600182019050919050565b7f4e487b7100000000000000000000000000000000000000000000000000000000600052601160045260246000fd5b7f4e487b7100000000000000000000000000000000000000000000000000000000600052602160045260246000fd5b7f4e487b7100000000000000000000000000000000000000000000000000000000600052602260045260246000fd5b7f4e487b7100000000000000000000000000000000000000000000000000000000600052603160045260246000fd5b7f4e487b7100000000000000000000000000000000000000000000000000000000600052603260045260246000fd5b7f4e487b7100000000000000000000000000000000000000000000000000000000600052604160045260246000fd5b600080fd5b600080fd5b600080fd5b600080fd5b6000601f19601f8301169050919050565b7f446f634d616e616765723a20436574204e4654206e6520766f7573206170706160008201527f727469656e742070617320210000000000000000000000000000000000000000602082015250565b7f4f776e61626c653a206e6577206f776e657220697320746865207a65726f206160008201527f6464726573730000000000000000000000000000000000000000000000000000602082015250565b7f446f634d616e616765723a204c652064657374696e6169726520612064656a6160008201527f20756e6520636f70696520647520646f63756d656e7400000000000000000000602082015250565b7f446f634d616e616765723a20436520646f63756d656e7420636f72726573706f60008201527f6e64206120756e204e4654206f6666696369656c2e0000000000000000000000602082015250565b7f446f634d616e616765723a20566f7573206e276176657a20706173206465206360008201527f6f70696520646520646f63756d656e74206120636f6e76657274697200000000602082015250565b7f446f634d616e616765723a204c652070617373776f726420647520646f63756d60008201527f656e742065737420766964650000000000000000000000000000000000000000602082015250565b7f446f634d616e616765723a204c276164647265737320736f757263652065742060008201527f64652064657374696e6174696f6e20736f6e74206964656e7469717565000000602082015250565b7f4f776e61626c653a2063616c6c6572206973206e6f7420746865206f776e6572600082015250565b7f446f634d616e616765723a204c65207479706520736f7572636520657420646560008201527f2064657374696e6174696f6e20736f6e74206964656e74697175650000000000602082015250565b6004811061588d5761588c6154cb565b5b50565b61589981615337565b81146158a457600080fd5b50565b6158b081615349565b81146158bb57600080fd5b50565b600481106158cb57600080fd5b50565b6158d781615392565b81146158e257600080fd5b5056fea264697066735822122056ed3410e4d24c08ddc1564a8c69e7ad61abbb338624b66c955a3253e96d4c3164736f6c63430008060033",
  "immutableReferences": {},
  "source": "//SPDX-License-Identifier: MIT\n\npragma solidity 0.8.6;\n\nimport \"@openzeppelin/contracts/access/Ownable.sol\";\nimport \"./SaveDocStruct.sol\";\n\ncontract DocManager is Ownable, SaveDocStruct\n{\n    mapping(string => bool) hashDocs;\n    mapping(address => mapping(TypeDoc => Document[])) private documents;\n\n    modifier addressesAreDifferent(address from, address to)\n    {\n        require(from != to, \"DocManager: L'address source et de destination sont identique\");\n        _;\n    }\n\n    function getIndexNFT(address ownerNFT, TypeDoc typeNft, uint tokenID) public view onlyOwner() returns(int256)\n    {\n        bool found;\n        int256 index = -1;\n\n        for (uint256 i = 0; i < documents[ownerNFT][typeNft].length; i++)\n        {\n            if (tokenID == documents[ownerNFT][typeNft][i].tokenID)\n            {\n                index = int256(i);\n                found = true;\n                i = documents[ownerNFT][typeNft].length;\n            }\n        }\n        return index;\n    }\n\n    function createDoc(address ownerNFT, uint256 tokenID, string memory tokenName, string memory tokenMime, uint256 tokenLength, string memory filePath, string memory passwordEncrypted, string memory hashNFT) onlyOwner() external returns (Document memory)\n    {\n       require(!isOfficielDoc(hashNFT), \"DocManager: Ce document correspond a un NFT officiel.\");\n       Document memory nft;\n       address[] memory certifyings;\n\n       nft = Document(tokenID, tokenLength, tokenName, tokenMime, block.timestamp, filePath, certifyings, \"\", passwordEncrypted, TypeDoc.Original);\n\n       documents[ownerNFT][TypeDoc.Original].push(nft);\n       return nft;\n    }\n\n    function getDocs(address addressUser) external view onlyOwner() returns(Document[] memory)\n    {\n      return documents[addressUser][TypeDoc.Original];\n    }\n\n    // TODO delete hash si dans hashDocs\n    function deleteDoc(address ownerDoc, uint256 tokenID) external onlyOwner() returns(bool)\n    {\n        int index = getIndexNFT(ownerDoc, TypeDoc.Original, tokenID);\n        require(index > -1, \"DocManager: Cet NFT ne vous appartient pas !\");\n\n        documents[ownerDoc][TypeDoc.Original][uint256(index)] = documents[ownerDoc][TypeDoc.Original][documents[ownerDoc][TypeDoc.Original].length - 1];\n        documents[ownerDoc][TypeDoc.Original].pop();\n        return true;\n    }\n\n    // TODO how burn tokens\n    function deleteAllDocs(address addressUser) external onlyOwner()\n    {\n        delete documents[addressUser][TypeDoc.Original];\n    }\n\n    function createCopyDoc(address provider, address ownerCopyNFT, uint256 tokenID, string memory tokenURI, TypeDoc typeNft) onlyOwner() addressesAreDifferent(provider, ownerCopyNFT) external\n    {\n        int index = getIndexNFT(provider, TypeDoc.Original, tokenID);\n        require(index == -1, \"DocManager: Le destinaire a deja une copie du document\");\n        Document memory nft;\n        Document memory nftCopy;\n\n        nft = documents[provider][TypeDoc.Original][uint256(index)];\n        nftCopy = Document(tokenID, nft.fileSize, nft.filename, nft.fileMimeType, block.timestamp, nft.filePath, nft.certifying, tokenURI, \"\", typeNft);\n        documents[ownerCopyNFT][typeNft].push(nftCopy);\n    }\n\n    function getAllCopyShared(address addressUser) public view onlyOwner() returns(Document[] memory)\n    {\n        return documents[addressUser][TypeDoc.CopyShared];\n    }\n\n    function getAllCopyPendingTransfer(address addressUser) public view onlyOwner() returns(Document[] memory)\n    {\n        return documents[addressUser][TypeDoc.CopyPendingTransfer];\n    }\n\n    function getAllCopyCertified(address addressUser) public view onlyOwner() returns(Document[] memory)\n    {\n        return documents[addressUser][TypeDoc.CopyCertified];\n    }\n\n    function convertTypeDoc(address ownerCopyNFT, TypeDoc typeDocSc, TypeDoc typeDocDst, uint256 tokenID, string memory passwordEncrypted) external onlyOwner()\n    {\n        int index = getIndexNFT(ownerCopyNFT, typeDocSc, tokenID);\n        Document memory doc;\n\n        require(typeDocSc != typeDocDst, \"DocManager: Le type source et de destination sont identique\");\n        require(index > -1, \"DocManager: Vous n'avez pas de copie de document a convertir\");\n\n        doc = documents[ownerCopyNFT][typeDocSc][uint256(index)];\n        doc.typeNft = typeDocDst;\n\n        if (typeDocDst == TypeDoc.Original)\n        {\n            require(bytes(passwordEncrypted).length != 0, \"DocManager: Le password du document est vide\");\n            doc.tokenURI = \"\";\n            doc.dateAdd = block.timestamp;\n            doc.passwordEncrypted = passwordEncrypted;\n        }\n        documents[ownerCopyNFT][typeDocDst].push(doc);\n        delCopyDoc(ownerCopyNFT, typeDocSc, uint256(index));\n    }\n\n    function delCopyDoc(address ownerNFT, TypeDoc typeNft, uint256 index) public onlyOwner()\n    {\n        Document memory substitute;\n\n        substitute = documents[ownerNFT][typeNft][documents[ownerNFT][typeNft].length - 1];\n        documents[ownerNFT][typeNft][index] = substitute;\n        documents[ownerNFT][typeNft].pop();\n    }\n\n    function delAllCopyDoc(address ownerNFT) external onlyOwner()\n    {\n        delete documents[ownerNFT][TypeDoc.CopyShared];\n        delete documents[ownerNFT][TypeDoc.CopyCertified];\n        delete documents[ownerNFT][TypeDoc.CopyPendingTransfer];\n    }\n\n    //TODO check si document dja certifi\n    function certify(address certifying, bool isAuthority, address applicant, uint256 tokenID, string memory hashNFT) onlyOwner() external\n    {\n        uint256 length;\n        int index = getIndexNFT(applicant, TypeDoc.Original, tokenID);\n        require(index > -1, \"DocManager: Cet NFT ne vous appartient pas !\");\n\n        if (isAuthority)\n        {\n            hashDocs[hashNFT] = true;\n        }\n\n        length = documents[applicant][TypeDoc.Original][uint256(index)].certifying.length;\n        documents[applicant][TypeDoc.Original][uint256(index)].certifying.push(certifying);\n    }\n\n    function isOfficielDoc(string memory hashNFT) private onlyOwner() view returns(bool)\n    {\n        return hashDocs[hashNFT];\n    }\n}\n",
  "sourcePath": "/home/jg/Alyra/SAV-Doc/contracts/DocManager.sol",
  "compiler": {
    "name": "solc",
    "version": "0.8.6+commit.11564f7e.Emscripten.clang"
  },
  "schemaVersion": "3.4.1",
  "updatedAt": "2021-08-09T09:41:36.106Z",
  "devdoc": {
    "kind": "dev",
    "methods": {
      "owner()": {
        "details": "Returns the address of the current owner."
      },
      "renounceOwnership()": {
        "details": "Leaves the contract without owner. It will not be possible to call `onlyOwner` functions anymore. Can only be called by the current owner. NOTE: Renouncing ownership will leave the contract without an owner, thereby removing any functionality that is only available to the owner."
      },
      "transferOwnership(address)": {
        "details": "Transfers ownership of the contract to a new account (`newOwner`). Can only be called by the current owner."
      }
    },
    "version": 1
  },
  "userdoc": {
    "kind": "user",
    "methods": {},
    "version": 1
  }
}