{
  "contractName": "PasswordManager",
  "abi": [
    {
      "inputs": [
        {
          "internalType": "uint256",
          "name": "tokenID",
          "type": "uint256"
        },
        {
          "internalType": "string",
          "name": "encryptedPassword",
          "type": "string"
        }
      ],
      "name": "addEncryptedPasswords",
      "outputs": [
        {
          "internalType": "bool",
          "name": "",
          "type": "bool"
        }
      ],
      "stateMutability": "nonpayable",
      "type": "function"
    },
    {
      "inputs": [
        {
          "internalType": "uint256",
          "name": "tokenID",
          "type": "uint256"
        }
      ],
      "name": "getEncryptedPassword",
      "outputs": [
        {
          "internalType": "string",
          "name": "",
          "type": "string"
        }
      ],
      "stateMutability": "view",
      "type": "function"
    },
    {
      "inputs": [
        {
          "internalType": "uint256",
          "name": "tokenID",
          "type": "uint256"
        }
      ],
      "name": "delEncryptedPassword",
      "outputs": [
        {
          "internalType": "bool",
          "name": "",
          "type": "bool"
        }
      ],
      "stateMutability": "nonpayable",
      "type": "function"
    },
    {
      "inputs": [
        {
          "internalType": "string",
          "name": "hashPasswordMaster",
          "type": "string"
        }
      ],
      "name": "addPasswordMaster",
      "outputs": [
        {
          "internalType": "bool",
          "name": "",
          "type": "bool"
        }
      ],
      "stateMutability": "nonpayable",
      "type": "function"
    },
    {
      "inputs": [],
      "name": "getPasswordMaster",
      "outputs": [
        {
          "internalType": "string",
          "name": "",
          "type": "string"
        }
      ],
      "stateMutability": "view",
      "type": "function"
    }
  ],
  "bytecode": "0x608060405234801561001057600080fd5b5061098a806100206000396000f3fe608060405234801561001057600080fd5b50600436106100575760003560e01c806310edb2cb1461005c578063254e9c8a1461007a578063282c4254146100aa57806351ca6bd5146100da57806377266f551461010a575b600080fd5b61006461013a565b6040516100719190610722565b60405180910390f35b610094600480360381019061008f9190610613565b610209565b6040516100a19190610722565b60405180910390f35b6100c460048036038101906100bf9190610640565b6102ea565b6040516100d19190610707565b60405180910390f35b6100f460048036038101906100ef91906105ca565b61039d565b6040516101019190610707565b60405180910390f35b610124600480360381019061011f9190610613565b6103fc565b6040516101319190610707565b60405180910390f35b6060600160003373ffffffffffffffffffffffffffffffffffffffff1673ffffffffffffffffffffffffffffffffffffffff16815260200190815260200160002080546101869061082e565b80601f01602080910402602001604051908101604052809291908181526020018280546101b29061082e565b80156101ff5780601f106101d4576101008083540402835291602001916101ff565b820191906000526020600020905b8154815290600101906020018083116101e257829003601f168201915b5050505050905090565b60606000803373ffffffffffffffffffffffffffffffffffffffff1673ffffffffffffffffffffffffffffffffffffffff168152602001908152602001600020600083815260200190815260200160002080546102659061082e565b80601f01602080910402602001604051908101604052809291908181526020018280546102919061082e565b80156102de5780601f106102b3576101008083540402835291602001916102de565b820191906000526020600020905b8154815290600101906020018083116102c157829003601f168201915b50505050509050919050565b60008083141561032f576040517f08c379a000000000000000000000000000000000000000000000000000000000815260040161032690610744565b60405180910390fd5b816000803373ffffffffffffffffffffffffffffffffffffffff1673ffffffffffffffffffffffffffffffffffffffff16815260200190815260200160002060008581526020019081526020016000209080519060200190610392929190610462565b506001905092915050565b600081600160003373ffffffffffffffffffffffffffffffffffffffff1673ffffffffffffffffffffffffffffffffffffffff16815260200190815260200160002090805190602001906103f2929190610462565b5060019050919050565b60008060003373ffffffffffffffffffffffffffffffffffffffff1673ffffffffffffffffffffffffffffffffffffffff1681526020019081526020016000206000838152602001908152602001600020600061045991906104e8565b60019050919050565b82805461046e9061082e565b90600052602060002090601f01602090048101928261049057600085556104d7565b82601f106104a957805160ff19168380011785556104d7565b828001600101855582156104d7579182015b828111156104d65782518255916020019190600101906104bb565b5b5090506104e49190610528565b5090565b5080546104f49061082e565b6000825580601f106105065750610525565b601f0160209004906000526020600020908101906105249190610528565b5b50565b5b80821115610541576000816000905550600101610529565b5090565b600061055861055384610789565b610764565b905082815260208101848484011115610574576105736108f4565b5b61057f8482856107ec565b509392505050565b600082601f83011261059c5761059b6108ef565b5b81356105ac848260208601610545565b91505092915050565b6000813590506105c48161093d565b92915050565b6000602082840312156105e0576105df6108fe565b5b600082013567ffffffffffffffff8111156105fe576105fd6108f9565b5b61060a84828501610587565b91505092915050565b600060208284031215610629576106286108fe565b5b6000610637848285016105b5565b91505092915050565b60008060408385031215610657576106566108fe565b5b6000610665858286016105b5565b925050602083013567ffffffffffffffff811115610686576106856108f9565b5b61069285828601610587565b9150509250929050565b6106a5816107d6565b82525050565b60006106b6826107ba565b6106c081856107c5565b93506106d08185602086016107fb565b6106d981610903565b840191505092915050565b60006106f16017836107c5565b91506106fc82610914565b602082019050919050565b600060208201905061071c600083018461069c565b92915050565b6000602082019050818103600083015261073c81846106ab565b905092915050565b6000602082019050818103600083015261075d816106e4565b9050919050565b600061076e61077f565b905061077a8282610860565b919050565b6000604051905090565b600067ffffffffffffffff8211156107a4576107a36108c0565b5b6107ad82610903565b9050602081019050919050565b600081519050919050565b600082825260208201905092915050565b60008115159050919050565b6000819050919050565b82818337600083830152505050565b60005b838110156108195780820151818401526020810190506107fe565b83811115610828576000848401525b50505050565b6000600282049050600182168061084657607f821691505b6020821081141561085a57610859610891565b5b50919050565b61086982610903565b810181811067ffffffffffffffff82111715610888576108876108c0565b5b80604052505050565b7f4e487b7100000000000000000000000000000000000000000000000000000000600052602260045260246000fd5b7f4e487b7100000000000000000000000000000000000000000000000000000000600052604160045260246000fd5b600080fd5b600080fd5b600080fd5b600080fd5b6000601f19601f8301169050919050565b7f436520746f6b656e206e27657869737465207061732021000000000000000000600082015250565b610946816107e2565b811461095157600080fd5b5056fea26469706673582212201ecc41635bbadb2aac3ea9cbfffb77fc041bd4430f75864641c5fc5f18ae0b4164736f6c63430008060033",
  "immutableReferences": {},
  "source": "//SPDX-License-Identifier: MIT\n\npragma solidity 0.8.6;\n\ncontract PasswordManager\n{\n    mapping(address => mapping(uint256 => string)) private encryptedPasswords;\n    mapping(address => string) passwordMasters;\n\n    function addEncryptedPasswords(uint256 tokenID, string memory encryptedPassword) public returns(bool)\n    {\n        require(tokenID != 0, \"Ce token n'existe pas !\");\n        encryptedPasswords[msg.sender][tokenID] = encryptedPassword;\n        return true;\n    }\n\n    function getEncryptedPassword(uint256 tokenID) public view returns(string memory)\n    {\n        return encryptedPasswords[msg.sender][tokenID];\n    }\n\n    function delEncryptedPassword(uint256 tokenID) public returns(bool)\n    {\n        delete encryptedPasswords[msg.sender][tokenID];\n        return true;\n    }\n\n    function addPasswordMaster(string memory hashPasswordMaster) public returns(bool)\n    {\n        passwordMasters[msg.sender] = hashPasswordMaster;\n        return true;\n    }\n\n    function getPasswordMaster() public view returns(string memory)\n    {\n        return passwordMasters[msg.sender];\n    }\n\n    function transfertPassword(address to, uint256 tokenID) internal returns(bool)\n    {\n        encryptedPasswords[to][tokenID] = encryptedPasswords[msg.sender][tokenID];\n        delEncryptedPassword(tokenID);\n\n        return true;\n    }\n}\n",
  "sourcePath": "/home/traore/projects/SAV-Doc/contracts/PasswordManager.sol",
  "compiler": {
    "name": "solc",
    "version": "0.8.6+commit.11564f7e.Emscripten.clang"
  },
  "schemaVersion": "3.4.1",
  "updatedAt": "2021-07-22T11:59:25.441Z",
  "devdoc": {
    "kind": "dev",
    "methods": {},
    "version": 1
  },
  "userdoc": {
    "kind": "user",
    "methods": {},
    "version": 1
  }
}