{
  "contractName": "SaveDocToken",
  "abi": [
    {
      "inputs": [],
      "stateMutability": "nonpayable",
      "type": "constructor"
    },
    {
      "anonymous": false,
      "inputs": [
        {
          "indexed": true,
          "internalType": "address",
          "name": "owner",
          "type": "address"
        },
        {
          "indexed": true,
          "internalType": "address",
          "name": "approved",
          "type": "address"
        },
        {
          "indexed": true,
          "internalType": "uint256",
          "name": "tokenId",
          "type": "uint256"
        }
      ],
      "name": "Approval",
      "type": "event"
    },
    {
      "anonymous": false,
      "inputs": [
        {
          "indexed": true,
          "internalType": "address",
          "name": "owner",
          "type": "address"
        },
        {
          "indexed": true,
          "internalType": "address",
          "name": "operator",
          "type": "address"
        },
        {
          "indexed": false,
          "internalType": "bool",
          "name": "approved",
          "type": "bool"
        }
      ],
      "name": "ApprovalForAll",
      "type": "event"
    },
    {
      "anonymous": false,
      "inputs": [
        {
          "indexed": true,
          "internalType": "address",
          "name": "previousOwner",
          "type": "address"
        },
        {
          "indexed": true,
          "internalType": "address",
          "name": "newOwner",
          "type": "address"
        }
      ],
      "name": "OwnershipTransferred",
      "type": "event"
    },
    {
      "anonymous": false,
      "inputs": [
        {
          "indexed": true,
          "internalType": "address",
          "name": "from",
          "type": "address"
        },
        {
          "indexed": true,
          "internalType": "address",
          "name": "to",
          "type": "address"
        },
        {
          "indexed": true,
          "internalType": "uint256",
          "name": "tokenId",
          "type": "uint256"
        }
      ],
      "name": "Transfer",
      "type": "event"
    },
    {
      "inputs": [
        {
          "internalType": "address",
          "name": "to",
          "type": "address"
        },
        {
          "internalType": "uint256",
          "name": "tokenId",
          "type": "uint256"
        }
      ],
      "name": "approve",
      "outputs": [],
      "stateMutability": "nonpayable",
      "type": "function"
    },
    {
      "inputs": [
        {
          "internalType": "address",
          "name": "owner",
          "type": "address"
        }
      ],
      "name": "balanceOf",
      "outputs": [
        {
          "internalType": "uint256",
          "name": "",
          "type": "uint256"
        }
      ],
      "stateMutability": "view",
      "type": "function",
      "constant": true
    },
    {
      "inputs": [
        {
          "internalType": "uint256",
          "name": "tokenId",
          "type": "uint256"
        }
      ],
      "name": "getApproved",
      "outputs": [
        {
          "internalType": "address",
          "name": "",
          "type": "address"
        }
      ],
      "stateMutability": "view",
      "type": "function",
      "constant": true
    },
    {
      "inputs": [
        {
          "internalType": "address",
          "name": "owner",
          "type": "address"
        },
        {
          "internalType": "address",
          "name": "operator",
          "type": "address"
        }
      ],
      "name": "isApprovedForAll",
      "outputs": [
        {
          "internalType": "bool",
          "name": "",
          "type": "bool"
        }
      ],
      "stateMutability": "view",
      "type": "function",
      "constant": true
    },
    {
      "inputs": [],
      "name": "name",
      "outputs": [
        {
          "internalType": "string",
          "name": "",
          "type": "string"
        }
      ],
      "stateMutability": "view",
      "type": "function",
      "constant": true
    },
    {
      "inputs": [],
      "name": "owner",
      "outputs": [
        {
          "internalType": "address",
          "name": "",
          "type": "address"
        }
      ],
      "stateMutability": "view",
      "type": "function",
      "constant": true
    },
    {
      "inputs": [
        {
          "internalType": "uint256",
          "name": "tokenId",
          "type": "uint256"
        }
      ],
      "name": "ownerOf",
      "outputs": [
        {
          "internalType": "address",
          "name": "",
          "type": "address"
        }
      ],
      "stateMutability": "view",
      "type": "function",
      "constant": true
    },
    {
      "inputs": [],
      "name": "renounceOwnership",
      "outputs": [],
      "stateMutability": "nonpayable",
      "type": "function"
    },
    {
      "inputs": [
        {
          "internalType": "address",
          "name": "from",
          "type": "address"
        },
        {
          "internalType": "address",
          "name": "to",
          "type": "address"
        },
        {
          "internalType": "uint256",
          "name": "tokenId",
          "type": "uint256"
        }
      ],
      "name": "safeTransferFrom",
      "outputs": [],
      "stateMutability": "nonpayable",
      "type": "function"
    },
    {
      "inputs": [
        {
          "internalType": "address",
          "name": "from",
          "type": "address"
        },
        {
          "internalType": "address",
          "name": "to",
          "type": "address"
        },
        {
          "internalType": "uint256",
          "name": "tokenId",
          "type": "uint256"
        },
        {
          "internalType": "bytes",
          "name": "_data",
          "type": "bytes"
        }
      ],
      "name": "safeTransferFrom",
      "outputs": [],
      "stateMutability": "nonpayable",
      "type": "function"
    },
    {
      "inputs": [
        {
          "internalType": "address",
          "name": "operator",
          "type": "address"
        },
        {
          "internalType": "bool",
          "name": "approved",
          "type": "bool"
        }
      ],
      "name": "setApprovalForAll",
      "outputs": [],
      "stateMutability": "nonpayable",
      "type": "function"
    },
    {
      "inputs": [
        {
          "internalType": "bytes4",
          "name": "interfaceId",
          "type": "bytes4"
        }
      ],
      "name": "supportsInterface",
      "outputs": [
        {
          "internalType": "bool",
          "name": "",
          "type": "bool"
        }
      ],
      "stateMutability": "view",
      "type": "function",
      "constant": true
    },
    {
      "inputs": [],
      "name": "symbol",
      "outputs": [
        {
          "internalType": "string",
          "name": "",
          "type": "string"
        }
      ],
      "stateMutability": "view",
      "type": "function",
      "constant": true
    },
    {
      "inputs": [
        {
          "internalType": "uint256",
          "name": "tokenId",
          "type": "uint256"
        }
      ],
      "name": "tokenURI",
      "outputs": [
        {
          "internalType": "string",
          "name": "",
          "type": "string"
        }
      ],
      "stateMutability": "view",
      "type": "function",
      "constant": true
    },
    {
      "inputs": [
        {
          "internalType": "address",
          "name": "from",
          "type": "address"
        },
        {
          "internalType": "address",
          "name": "to",
          "type": "address"
        },
        {
          "internalType": "uint256",
          "name": "tokenId",
          "type": "uint256"
        }
      ],
      "name": "transferFrom",
      "outputs": [],
      "stateMutability": "nonpayable",
      "type": "function"
    },
    {
      "inputs": [
        {
          "internalType": "address",
          "name": "newOwner",
          "type": "address"
        }
      ],
      "name": "transferOwnership",
      "outputs": [],
      "stateMutability": "nonpayable",
      "type": "function"
    },
    {
      "inputs": [
        {
          "internalType": "address",
          "name": "owner",
          "type": "address"
        },
        {
          "internalType": "string",
          "name": "tokenURI",
          "type": "string"
        }
      ],
      "name": "mint",
      "outputs": [
        {
          "internalType": "uint256",
          "name": "",
          "type": "uint256"
        }
      ],
      "stateMutability": "nonpayable",
      "type": "function"
    },
    {
      "inputs": [
        {
          "internalType": "uint256",
          "name": "tokenID",
          "type": "uint256"
        },
        {
          "internalType": "string",
          "name": "tokenURI",
          "type": "string"
        },
        {
          "internalType": "address",
          "name": "ownerToken",
          "type": "address"
        }
      ],
      "name": "setTokenURI",
      "outputs": [],
      "stateMutability": "nonpayable",
      "type": "function"
    },
    {
      "inputs": [
        {
          "internalType": "uint256",
          "name": "tokenID",
          "type": "uint256"
        },
        {
          "internalType": "address",
          "name": "ownerToken",
          "type": "address"
        }
      ],
      "name": "burn",
      "outputs": [],
      "stateMutability": "nonpayable",
      "type": "function"
    }
  ],
  "bytecode": "0x60806040523480156200001157600080fd5b506040518060400160405280600781526020017f53617665446f63000000000000000000000000000000000000000000000000008152506040518060400160405280600381526020017f5344540000000000000000000000000000000000000000000000000000000000815250816000908051906020019062000096929190620001a6565b508060019080519060200190620000af929190620001a6565b505050620000d2620000c6620000d860201b60201c565b620000e060201b60201c565b620002bb565b600033905090565b6000600760009054906101000a900473ffffffffffffffffffffffffffffffffffffffff16905081600760006101000a81548173ffffffffffffffffffffffffffffffffffffffff021916908373ffffffffffffffffffffffffffffffffffffffff1602179055508173ffffffffffffffffffffffffffffffffffffffff168173ffffffffffffffffffffffffffffffffffffffff167f8be0079c531659141344cd1fd0a4f28419497f9722a3daafe3b4186f6b6457e060405160405180910390a35050565b828054620001b49062000256565b90600052602060002090601f016020900481019282620001d8576000855562000224565b82601f10620001f357805160ff191683800117855562000224565b8280016001018555821562000224579182015b828111156200022357825182559160200191906001019062000206565b5b50905062000233919062000237565b5090565b5b808211156200025257600081600090555060010162000238565b5090565b600060028204905060018216806200026f57607f821691505b602082108114156200028657620002856200028c565b5b50919050565b7f4e487b7100000000000000000000000000000000000000000000000000000000600052602260045260246000fd5b61359e80620002cb6000396000f3fe608060405234801561001057600080fd5b50600436106101215760003560e01c8063715018a6116100ad578063c87b56dd11610071578063c87b56dd146102f2578063d0def52114610322578063e985e9c514610352578063f2fde38b14610382578063fcd3533c1461039e57610121565b8063715018a6146102745780638da5cb5b1461027e57806395d89b411461029c578063a22cb465146102ba578063b88d4fde146102d657610121565b806323b872dd116100f457806323b872dd146101c05780632682b0e4146101dc57806342842e0e146101f85780636352211e1461021457806370a082311461024457610121565b806301ffc9a71461012657806306fdde0314610156578063081812fc14610174578063095ea7b3146101a4575b600080fd5b610140600480360381019061013b91906123bd565b6103ba565b60405161014d91906128e7565b60405180910390f35b61015e61049c565b60405161016b9190612902565b60405180910390f35b61018e60048036038101906101899190612417565b61052e565b60405161019b9190612880565b60405180910390f35b6101be60048036038101906101b9919061237d565b6105b3565b005b6101da60048036038101906101d5919061220b565b6106cb565b005b6101f660048036038101906101f19190612484565b61072b565b005b610212600480360381019061020d919061220b565b61082c565b005b61022e60048036038101906102299190612417565b61084c565b60405161023b9190612880565b60405180910390f35b61025e6004803603810190610259919061219e565b6108fe565b60405161026b9190612b84565b60405180910390f35b61027c6109b6565b005b610286610a3e565b6040516102939190612880565b60405180910390f35b6102a4610a68565b6040516102b19190612902565b60405180910390f35b6102d460048036038101906102cf91906122e1565b610afa565b005b6102f060048036038101906102eb919061225e565b610c7b565b005b61030c60048036038101906103079190612417565b610cdd565b6040516103199190612902565b60405180910390f35b61033c60048036038101906103379190612321565b610e2f565b6040516103499190612b84565b60405180910390f35b61036c600480360381019061036791906121cb565b610ee3565b60405161037991906128e7565b60405180910390f35b61039c6004803603810190610397919061219e565b610f77565b005b6103b860048036038101906103b39190612444565b61106f565b005b60007f80ac58cd000000000000000000000000000000000000000000000000000000007bffffffffffffffffffffffffffffffffffffffffffffffffffffffff1916827bffffffffffffffffffffffffffffffffffffffffffffffffffffffff1916148061048557507f5b5e139f000000000000000000000000000000000000000000000000000000007bffffffffffffffffffffffffffffffffffffffffffffffffffffffff1916827bffffffffffffffffffffffffffffffffffffffffffffffffffffffff1916145b8061049557506104948261116e565b5b9050919050565b6060600080546104ab90612dda565b80601f01602080910402602001604051908101604052809291908181526020018280546104d790612dda565b80156105245780601f106104f957610100808354040283529160200191610524565b820191906000526020600020905b81548152906001019060200180831161050757829003601f168201915b5050505050905090565b6000610539826111d8565b610578576040517f08c379a000000000000000000000000000000000000000000000000000000000815260040161056f90612ac4565b60405180910390fd5b6004600083815260200190815260200160002060009054906101000a900473ffffffffffffffffffffffffffffffffffffffff169050919050565b60006105be8261084c565b90508073ffffffffffffffffffffffffffffffffffffffff168373ffffffffffffffffffffffffffffffffffffffff16141561062f576040517f08c379a000000000000000000000000000000000000000000000000000000000815260040161062690612b44565b60405180910390fd5b8073ffffffffffffffffffffffffffffffffffffffff1661064e611244565b73ffffffffffffffffffffffffffffffffffffffff16148061067d575061067c81610677611244565b610ee3565b5b6106bc576040517f08c379a00000000000000000000000000000000000000000000000000000000081526004016106b390612a04565b60405180910390fd5b6106c6838361124c565b505050565b6106dc6106d6611244565b82611305565b61071b576040517f08c379a000000000000000000000000000000000000000000000000000000000815260040161071290612b64565b60405180910390fd5b6107268383836113e3565b505050565b610733611244565b73ffffffffffffffffffffffffffffffffffffffff16610751610a3e565b73ffffffffffffffffffffffffffffffffffffffff16146107a7576040517f08c379a000000000000000000000000000000000000000000000000000000000815260040161079e90612ae4565b60405180910390fd5b8073ffffffffffffffffffffffffffffffffffffffff166107c78461084c565b73ffffffffffffffffffffffffffffffffffffffff161461081d576040517f08c379a000000000000000000000000000000000000000000000000000000000815260040161081490612924565b60405180910390fd5b610827838361163f565b505050565b61084783838360405180602001604052806000815250610c7b565b505050565b6000806002600084815260200190815260200160002060009054906101000a900473ffffffffffffffffffffffffffffffffffffffff169050600073ffffffffffffffffffffffffffffffffffffffff168173ffffffffffffffffffffffffffffffffffffffff1614156108f5576040517f08c379a00000000000000000000000000000000000000000000000000000000081526004016108ec90612a44565b60405180910390fd5b80915050919050565b60008073ffffffffffffffffffffffffffffffffffffffff168273ffffffffffffffffffffffffffffffffffffffff16141561096f576040517f08c379a000000000000000000000000000000000000000000000000000000000815260040161096690612a24565b60405180910390fd5b600360008373ffffffffffffffffffffffffffffffffffffffff1673ffffffffffffffffffffffffffffffffffffffff168152602001908152602001600020549050919050565b6109be611244565b73ffffffffffffffffffffffffffffffffffffffff166109dc610a3e565b73ffffffffffffffffffffffffffffffffffffffff1614610a32576040517f08c379a0000000000000000000000000000000000000000000000000000000008152600401610a2990612ae4565b60405180910390fd5b610a3c60006116b3565b565b6000600760009054906101000a900473ffffffffffffffffffffffffffffffffffffffff16905090565b606060018054610a7790612dda565b80601f0160208091040260200160405190810160405280929190818152602001828054610aa390612dda565b8015610af05780601f10610ac557610100808354040283529160200191610af0565b820191906000526020600020905b815481529060010190602001808311610ad357829003601f168201915b5050505050905090565b610b02611244565b73ffffffffffffffffffffffffffffffffffffffff168273ffffffffffffffffffffffffffffffffffffffff161415610b70576040517f08c379a0000000000000000000000000000000000000000000000000000000008152600401610b67906129c4565b60405180910390fd5b8060056000610b7d611244565b73ffffffffffffffffffffffffffffffffffffffff1673ffffffffffffffffffffffffffffffffffffffff16815260200190815260200160002060008473ffffffffffffffffffffffffffffffffffffffff1673ffffffffffffffffffffffffffffffffffffffff16815260200190815260200160002060006101000a81548160ff0219169083151502179055508173ffffffffffffffffffffffffffffffffffffffff16610c2a611244565b73ffffffffffffffffffffffffffffffffffffffff167f17307eab39ab6107e8899845ad3d59bd9653f200f220920489ca2b5937696c3183604051610c6f91906128e7565b60405180910390a35050565b610c8c610c86611244565b83611305565b610ccb576040517f08c379a0000000000000000000000000000000000000000000000000000000008152600401610cc290612b64565b60405180910390fd5b610cd784848484611779565b50505050565b6060610ce8826111d8565b610d27576040517f08c379a0000000000000000000000000000000000000000000000000000000008152600401610d1e90612aa4565b60405180910390fd5b6000600660008481526020019081526020016000208054610d4790612dda565b80601f0160208091040260200160405190810160405280929190818152602001828054610d7390612dda565b8015610dc05780601f10610d9557610100808354040283529160200191610dc0565b820191906000526020600020905b815481529060010190602001808311610da357829003601f168201915b505050505090506000610dd16117d5565b9050600081511415610de7578192505050610e2a565b600082511115610e1c578082604051602001610e0492919061285c565b60405160208183030381529060405292505050610e2a565b610e25846117ec565b925050505b919050565b6000610e39611244565b73ffffffffffffffffffffffffffffffffffffffff16610e57610a3e565b73ffffffffffffffffffffffffffffffffffffffff1614610ead576040517f08c379a0000000000000000000000000000000000000000000000000000000008152600401610ea490612ae4565b60405180910390fd5b610eb76008611893565b6000610ec360086118a9565b9050610ecf84826118b7565b610ed9818461163f565b8091505092915050565b6000600560008473ffffffffffffffffffffffffffffffffffffffff1673ffffffffffffffffffffffffffffffffffffffff16815260200190815260200160002060008373ffffffffffffffffffffffffffffffffffffffff1673ffffffffffffffffffffffffffffffffffffffff16815260200190815260200160002060009054906101000a900460ff16905092915050565b610f7f611244565b73ffffffffffffffffffffffffffffffffffffffff16610f9d610a3e565b73ffffffffffffffffffffffffffffffffffffffff1614610ff3576040517f08c379a0000000000000000000000000000000000000000000000000000000008152600401610fea90612ae4565b60405180910390fd5b600073ffffffffffffffffffffffffffffffffffffffff168173ffffffffffffffffffffffffffffffffffffffff161415611063576040517f08c379a000000000000000000000000000000000000000000000000000000000815260040161105a90612964565b60405180910390fd5b61106c816116b3565b50565b611077611244565b73ffffffffffffffffffffffffffffffffffffffff16611095610a3e565b73ffffffffffffffffffffffffffffffffffffffff16146110eb576040517f08c379a00000000000000000000000000000000000000000000000000000000081526004016110e290612ae4565b60405180910390fd5b8073ffffffffffffffffffffffffffffffffffffffff1661110b8361084c565b73ffffffffffffffffffffffffffffffffffffffff1614611161576040517f08c379a000000000000000000000000000000000000000000000000000000000815260040161115890612924565b60405180910390fd5b61116a826118d5565b5050565b60007f01ffc9a7000000000000000000000000000000000000000000000000000000007bffffffffffffffffffffffffffffffffffffffffffffffffffffffff1916827bffffffffffffffffffffffffffffffffffffffffffffffffffffffff1916149050919050565b60008073ffffffffffffffffffffffffffffffffffffffff166002600084815260200190815260200160002060009054906101000a900473ffffffffffffffffffffffffffffffffffffffff1673ffffffffffffffffffffffffffffffffffffffff1614159050919050565b600033905090565b816004600083815260200190815260200160002060006101000a81548173ffffffffffffffffffffffffffffffffffffffff021916908373ffffffffffffffffffffffffffffffffffffffff160217905550808273ffffffffffffffffffffffffffffffffffffffff166112bf8361084c565b73ffffffffffffffffffffffffffffffffffffffff167f8c5be1e5ebec7d5bd14f71427d1e84f3dd0314c0f7b2291e5b200ac8c7c3b92560405160405180910390a45050565b6000611310826111d8565b61134f576040517f08c379a0000000000000000000000000000000000000000000000000000000008152600401611346906129e4565b60405180910390fd5b600061135a8361084c565b90508073ffffffffffffffffffffffffffffffffffffffff168473ffffffffffffffffffffffffffffffffffffffff1614806113c957508373ffffffffffffffffffffffffffffffffffffffff166113b18461052e565b73ffffffffffffffffffffffffffffffffffffffff16145b806113da57506113d98185610ee3565b5b91505092915050565b8273ffffffffffffffffffffffffffffffffffffffff166114038261084c565b73ffffffffffffffffffffffffffffffffffffffff1614611459576040517f08c379a000000000000000000000000000000000000000000000000000000000815260040161145090612b04565b60405180910390fd5b600073ffffffffffffffffffffffffffffffffffffffff168273ffffffffffffffffffffffffffffffffffffffff1614156114c9576040517f08c379a00000000000000000000000000000000000000000000000000000000081526004016114c0906129a4565b60405180910390fd5b6114d4838383611928565b6114df60008261124c565b6001600360008573ffffffffffffffffffffffffffffffffffffffff1673ffffffffffffffffffffffffffffffffffffffff168152602001908152602001600020600082825461152f9190612cf0565b925050819055506001600360008473ffffffffffffffffffffffffffffffffffffffff1673ffffffffffffffffffffffffffffffffffffffff16815260200190815260200160002060008282546115869190612c69565b92505081905550816002600083815260200190815260200160002060006101000a81548173ffffffffffffffffffffffffffffffffffffffff021916908373ffffffffffffffffffffffffffffffffffffffff160217905550808273ffffffffffffffffffffffffffffffffffffffff168473ffffffffffffffffffffffffffffffffffffffff167fddf252ad1be2c89b69c2b068fc378daa952ba7f163c4a11628f55a4df523b3ef60405160405180910390a4505050565b611648826111d8565b611687576040517f08c379a000000000000000000000000000000000000000000000000000000000815260040161167e90612a64565b60405180910390fd5b806006600084815260200190815260200160002090805190602001906116ae929190611f72565b505050565b6000600760009054906101000a900473ffffffffffffffffffffffffffffffffffffffff16905081600760006101000a81548173ffffffffffffffffffffffffffffffffffffffff021916908373ffffffffffffffffffffffffffffffffffffffff1602179055508173ffffffffffffffffffffffffffffffffffffffff168173ffffffffffffffffffffffffffffffffffffffff167f8be0079c531659141344cd1fd0a4f28419497f9722a3daafe3b4186f6b6457e060405160405180910390a35050565b6117848484846113e3565b6117908484848461192d565b6117cf576040517f08c379a00000000000000000000000000000000000000000000000000000000081526004016117c690612944565b60405180910390fd5b50505050565b606060405180602001604052806000815250905090565b60606117f7826111d8565b611836576040517f08c379a000000000000000000000000000000000000000000000000000000000815260040161182d90612b24565b60405180910390fd5b60006118406117d5565b90506000815111611860576040518060200160405280600081525061188b565b8061186a84611ac4565b60405160200161187b92919061285c565b6040516020818303038152906040525b915050919050565b6001816000016000828254019250508190555050565b600081600001549050919050565b6118d1828260405180602001604052806000815250611c25565b5050565b6118de81611c80565b60006006600083815260200190815260200160002080546118fe90612dda565b905014611925576006600082815260200190815260200160002060006119249190611ff8565b5b50565b505050565b600061194e8473ffffffffffffffffffffffffffffffffffffffff16611d91565b15611ab7578373ffffffffffffffffffffffffffffffffffffffff1663150b7a02611977611244565b8786866040518563ffffffff1660e01b8152600401611999949392919061289b565b602060405180830381600087803b1580156119b357600080fd5b505af19250505080156119e457506040513d601f19601f820116820180604052508101906119e191906123ea565b60015b611a67573d8060008114611a14576040519150601f19603f3d011682016040523d82523d6000602084013e611a19565b606091505b50600081511415611a5f576040517f08c379a0000000000000000000000000000000000000000000000000000000008152600401611a5690612944565b60405180910390fd5b805181602001fd5b63150b7a0260e01b7bffffffffffffffffffffffffffffffffffffffffffffffffffffffff1916817bffffffffffffffffffffffffffffffffffffffffffffffffffffffff191614915050611abc565b600190505b949350505050565b60606000821415611b0c576040518060400160405280600181526020017f30000000000000000000000000000000000000000000000000000000000000008152509050611c20565b600082905060005b60008214611b3e578080611b2790612e3d565b915050600a82611b379190612cbf565b9150611b14565b60008167ffffffffffffffff811115611b5a57611b59612f73565b5b6040519080825280601f01601f191660200182016040528015611b8c5781602001600182028036833780820191505090505b5090505b60008514611c1957600182611ba59190612cf0565b9150600a85611bb49190612e86565b6030611bc09190612c69565b60f81b818381518110611bd657611bd5612f44565b5b60200101907effffffffffffffffffffffffffffffffffffffffffffffffffffffffffffff1916908160001a905350600a85611c129190612cbf565b9450611b90565b8093505050505b919050565b611c2f8383611da4565b611c3c600084848461192d565b611c7b576040517f08c379a0000000000000000000000000000000000000000000000000000000008152600401611c7290612944565b60405180910390fd5b505050565b6000611c8b8261084c565b9050611c9981600084611928565b611ca460008361124c565b6001600360008373ffffffffffffffffffffffffffffffffffffffff1673ffffffffffffffffffffffffffffffffffffffff1681526020019081526020016000206000828254611cf49190612cf0565b925050819055506002600083815260200190815260200160002060006101000a81549073ffffffffffffffffffffffffffffffffffffffff021916905581600073ffffffffffffffffffffffffffffffffffffffff168273ffffffffffffffffffffffffffffffffffffffff167fddf252ad1be2c89b69c2b068fc378daa952ba7f163c4a11628f55a4df523b3ef60405160405180910390a45050565b600080823b905060008111915050919050565b600073ffffffffffffffffffffffffffffffffffffffff168273ffffffffffffffffffffffffffffffffffffffff161415611e14576040517f08c379a0000000000000000000000000000000000000000000000000000000008152600401611e0b90612a84565b60405180910390fd5b611e1d816111d8565b15611e5d576040517f08c379a0000000000000000000000000000000000000000000000000000000008152600401611e5490612984565b60405180910390fd5b611e6960008383611928565b6001600360008473ffffffffffffffffffffffffffffffffffffffff1673ffffffffffffffffffffffffffffffffffffffff1681526020019081526020016000206000828254611eb99190612c69565b92505081905550816002600083815260200190815260200160002060006101000a81548173ffffffffffffffffffffffffffffffffffffffff021916908373ffffffffffffffffffffffffffffffffffffffff160217905550808273ffffffffffffffffffffffffffffffffffffffff16600073ffffffffffffffffffffffffffffffffffffffff167fddf252ad1be2c89b69c2b068fc378daa952ba7f163c4a11628f55a4df523b3ef60405160405180910390a45050565b828054611f7e90612dda565b90600052602060002090601f016020900481019282611fa05760008555611fe7565b82601f10611fb957805160ff1916838001178555611fe7565b82800160010185558215611fe7579182015b82811115611fe6578251825591602001919060010190611fcb565b5b509050611ff49190612038565b5090565b50805461200490612dda565b6000825580601f106120165750612035565b601f0160209004906000526020600020908101906120349190612038565b5b50565b5b80821115612051576000816000905550600101612039565b5090565b600061206861206384612bc4565b612b9f565b90508281526020810184848401111561208457612083612fa7565b5b61208f848285612d98565b509392505050565b60006120aa6120a584612bf5565b612b9f565b9050828152602081018484840111156120c6576120c5612fa7565b5b6120d1848285612d98565b509392505050565b6000813590506120e88161350c565b92915050565b6000813590506120fd81613523565b92915050565b6000813590506121128161353a565b92915050565b6000815190506121278161353a565b92915050565b600082601f83011261214257612141612fa2565b5b8135612152848260208601612055565b91505092915050565b600082601f8301126121705761216f612fa2565b5b8135612180848260208601612097565b91505092915050565b60008135905061219881613551565b92915050565b6000602082840312156121b4576121b3612fb1565b5b60006121c2848285016120d9565b91505092915050565b600080604083850312156121e2576121e1612fb1565b5b60006121f0858286016120d9565b9250506020612201858286016120d9565b9150509250929050565b60008060006060848603121561222457612223612fb1565b5b6000612232868287016120d9565b9350506020612243868287016120d9565b925050604061225486828701612189565b9150509250925092565b6000806000806080858703121561227857612277612fb1565b5b6000612286878288016120d9565b9450506020612297878288016120d9565b93505060406122a887828801612189565b925050606085013567ffffffffffffffff8111156122c9576122c8612fac565b5b6122d58782880161212d565b91505092959194509250565b600080604083850312156122f8576122f7612fb1565b5b6000612306858286016120d9565b9250506020612317858286016120ee565b9150509250929050565b6000806040838503121561233857612337612fb1565b5b6000612346858286016120d9565b925050602083013567ffffffffffffffff81111561236757612366612fac565b5b6123738582860161215b565b9150509250929050565b6000806040838503121561239457612393612fb1565b5b60006123a2858286016120d9565b92505060206123b385828601612189565b9150509250929050565b6000602082840312156123d3576123d2612fb1565b5b60006123e184828501612103565b91505092915050565b600060208284031215612400576123ff612fb1565b5b600061240e84828501612118565b91505092915050565b60006020828403121561242d5761242c612fb1565b5b600061243b84828501612189565b91505092915050565b6000806040838503121561245b5761245a612fb1565b5b600061246985828601612189565b925050602061247a858286016120d9565b9150509250929050565b60008060006060848603121561249d5761249c612fb1565b5b60006124ab86828701612189565b935050602084013567ffffffffffffffff8111156124cc576124cb612fac565b5b6124d88682870161215b565b92505060406124e9868287016120d9565b9150509250925092565b6124fc81612d24565b82525050565b61250b81612d36565b82525050565b600061251c82612c26565b6125268185612c3c565b9350612536818560208601612da7565b61253f81612fb6565b840191505092915050565b600061255582612c31565b61255f8185612c4d565b935061256f818560208601612da7565b61257881612fb6565b840191505092915050565b600061258e82612c31565b6125988185612c5e565b93506125a8818560208601612da7565b80840191505092915050565b60006125c1602e83612c4d565b91506125cc82612fc7565b604082019050919050565b60006125e4603283612c4d565b91506125ef82613016565b604082019050919050565b6000612607602683612c4d565b915061261282613065565b604082019050919050565b600061262a601c83612c4d565b9150612635826130b4565b602082019050919050565b600061264d602483612c4d565b9150612658826130dd565b604082019050919050565b6000612670601983612c4d565b915061267b8261312c565b602082019050919050565b6000612693602c83612c4d565b915061269e82613155565b604082019050919050565b60006126b6603883612c4d565b91506126c1826131a4565b604082019050919050565b60006126d9602a83612c4d565b91506126e4826131f3565b604082019050919050565b60006126fc602983612c4d565b915061270782613242565b604082019050919050565b600061271f602e83612c4d565b915061272a82613291565b604082019050919050565b6000612742602083612c4d565b915061274d826132e0565b602082019050919050565b6000612765603183612c4d565b915061277082613309565b604082019050919050565b6000612788602c83612c4d565b915061279382613358565b604082019050919050565b60006127ab602083612c4d565b91506127b6826133a7565b602082019050919050565b60006127ce602983612c4d565b91506127d9826133d0565b604082019050919050565b60006127f1602f83612c4d565b91506127fc8261341f565b604082019050919050565b6000612814602183612c4d565b915061281f8261346e565b604082019050919050565b6000612837603183612c4d565b9150612842826134bd565b604082019050919050565b61285681612d8e565b82525050565b60006128688285612583565b91506128748284612583565b91508190509392505050565b600060208201905061289560008301846124f3565b92915050565b60006080820190506128b060008301876124f3565b6128bd60208301866124f3565b6128ca604083018561284d565b81810360608301526128dc8184612511565b905095945050505050565b60006020820190506128fc6000830184612502565b92915050565b6000602082019050818103600083015261291c818461254a565b905092915050565b6000602082019050818103600083015261293d816125b4565b9050919050565b6000602082019050818103600083015261295d816125d7565b9050919050565b6000602082019050818103600083015261297d816125fa565b9050919050565b6000602082019050818103600083015261299d8161261d565b9050919050565b600060208201905081810360008301526129bd81612640565b9050919050565b600060208201905081810360008301526129dd81612663565b9050919050565b600060208201905081810360008301526129fd81612686565b9050919050565b60006020820190508181036000830152612a1d816126a9565b9050919050565b60006020820190508181036000830152612a3d816126cc565b9050919050565b60006020820190508181036000830152612a5d816126ef565b9050919050565b60006020820190508181036000830152612a7d81612712565b9050919050565b60006020820190508181036000830152612a9d81612735565b9050919050565b60006020820190508181036000830152612abd81612758565b9050919050565b60006020820190508181036000830152612add8161277b565b9050919050565b60006020820190508181036000830152612afd8161279e565b9050919050565b60006020820190508181036000830152612b1d816127c1565b9050919050565b60006020820190508181036000830152612b3d816127e4565b9050919050565b60006020820190508181036000830152612b5d81612807565b9050919050565b60006020820190508181036000830152612b7d8161282a565b9050919050565b6000602082019050612b99600083018461284d565b92915050565b6000612ba9612bba565b9050612bb58282612e0c565b919050565b6000604051905090565b600067ffffffffffffffff821115612bdf57612bde612f73565b5b612be882612fb6565b9050602081019050919050565b600067ffffffffffffffff821115612c1057612c0f612f73565b5b612c1982612fb6565b9050602081019050919050565b600081519050919050565b600081519050919050565b600082825260208201905092915050565b600082825260208201905092915050565b600081905092915050565b6000612c7482612d8e565b9150612c7f83612d8e565b9250827fffffffffffffffffffffffffffffffffffffffffffffffffffffffffffffffff03821115612cb457612cb3612eb7565b5b828201905092915050565b6000612cca82612d8e565b9150612cd583612d8e565b925082612ce557612ce4612ee6565b5b828204905092915050565b6000612cfb82612d8e565b9150612d0683612d8e565b925082821015612d1957612d18612eb7565b5b828203905092915050565b6000612d2f82612d6e565b9050919050565b60008115159050919050565b60007fffffffff0000000000000000000000000000000000000000000000000000000082169050919050565b600073ffffffffffffffffffffffffffffffffffffffff82169050919050565b6000819050919050565b82818337600083830152505050565b60005b83811015612dc5578082015181840152602081019050612daa565b83811115612dd4576000848401525b50505050565b60006002820490506001821680612df257607f821691505b60208210811415612e0657612e05612f15565b5b50919050565b612e1582612fb6565b810181811067ffffffffffffffff82111715612e3457612e33612f73565b5b80604052505050565b6000612e4882612d8e565b91507fffffffffffffffffffffffffffffffffffffffffffffffffffffffffffffffff821415612e7b57612e7a612eb7565b5b600182019050919050565b6000612e9182612d8e565b9150612e9c83612d8e565b925082612eac57612eab612ee6565b5b828206905092915050565b7f4e487b7100000000000000000000000000000000000000000000000000000000600052601160045260246000fd5b7f4e487b7100000000000000000000000000000000000000000000000000000000600052601260045260246000fd5b7f4e487b7100000000000000000000000000000000000000000000000000000000600052602260045260246000fd5b7f4e487b7100000000000000000000000000000000000000000000000000000000600052603260045260246000fd5b7f4e487b7100000000000000000000000000000000000000000000000000000000600052604160045260246000fd5b600080fd5b600080fd5b600080fd5b600080fd5b6000601f19601f8301169050919050565b7f53617665446f63546f6b656e3a20436574204e4654206e6520766f757320617060008201527f7061727469656e74207061732021000000000000000000000000000000000000602082015250565b7f4552433732313a207472616e7366657220746f206e6f6e20455243373231526560008201527f63656976657220696d706c656d656e7465720000000000000000000000000000602082015250565b7f4f776e61626c653a206e6577206f776e657220697320746865207a65726f206160008201527f6464726573730000000000000000000000000000000000000000000000000000602082015250565b7f4552433732313a20746f6b656e20616c7265616479206d696e74656400000000600082015250565b7f4552433732313a207472616e7366657220746f20746865207a65726f2061646460008201527f7265737300000000000000000000000000000000000000000000000000000000602082015250565b7f4552433732313a20617070726f766520746f2063616c6c657200000000000000600082015250565b7f4552433732313a206f70657261746f7220717565727920666f72206e6f6e657860008201527f697374656e7420746f6b656e0000000000000000000000000000000000000000602082015250565b7f4552433732313a20617070726f76652063616c6c6572206973206e6f74206f7760008201527f6e6572206e6f7220617070726f76656420666f7220616c6c0000000000000000602082015250565b7f4552433732313a2062616c616e636520717565727920666f7220746865207a6560008201527f726f206164647265737300000000000000000000000000000000000000000000602082015250565b7f4552433732313a206f776e657220717565727920666f72206e6f6e657869737460008201527f656e7420746f6b656e0000000000000000000000000000000000000000000000602082015250565b7f45524337323155524953746f726167653a2055524920736574206f66206e6f6e60008201527f6578697374656e7420746f6b656e000000000000000000000000000000000000602082015250565b7f4552433732313a206d696e7420746f20746865207a65726f2061646472657373600082015250565b7f45524337323155524953746f726167653a2055524920717565727920666f722060008201527f6e6f6e6578697374656e7420746f6b656e000000000000000000000000000000602082015250565b7f4552433732313a20617070726f76656420717565727920666f72206e6f6e657860008201527f697374656e7420746f6b656e0000000000000000000000000000000000000000602082015250565b7f4f776e61626c653a2063616c6c6572206973206e6f7420746865206f776e6572600082015250565b7f4552433732313a207472616e73666572206f6620746f6b656e2074686174206960008201527f73206e6f74206f776e0000000000000000000000000000000000000000000000602082015250565b7f4552433732314d657461646174613a2055524920717565727920666f72206e6f60008201527f6e6578697374656e7420746f6b656e0000000000000000000000000000000000602082015250565b7f4552433732313a20617070726f76616c20746f2063757272656e74206f776e6560008201527f7200000000000000000000000000000000000000000000000000000000000000602082015250565b7f4552433732313a207472616e736665722063616c6c6572206973206e6f74206f60008201527f776e6572206e6f7220617070726f766564000000000000000000000000000000602082015250565b61351581612d24565b811461352057600080fd5b50565b61352c81612d36565b811461353757600080fd5b50565b61354381612d42565b811461354e57600080fd5b50565b61355a81612d8e565b811461356557600080fd5b5056fea2646970667358221220843878dc029f5dee59da16dccbb56c55d0abe26bec446faede46ced27f8da53364736f6c63430008060033",
  "immutableReferences": {},
  "source": "//SPDX-License-Identifier: MIT\n\npragma solidity 0.8.6;\n\nimport \"@openzeppelin/contracts/token/ERC721/extensions/ERC721URIStorage.sol\";\nimport \"@openzeppelin/contracts/access/Ownable.sol\";\nimport \"@openzeppelin/contracts/utils/Counters.sol\";\n\ncontract SaveDocToken is ERC721URIStorage, Ownable\n{\n    using Counters for Counters.Counter;\n    Counters.Counter private _tokenIDs;\n\n    constructor() ERC721(\"SaveDoc\", \"SDT\") {}\n\n    function mint(address owner, string memory tokenURI) external onlyOwner() returns(uint)\n    {\n        _tokenIDs.increment();\n        uint256 newItemID = _tokenIDs.current();\n        _safeMint(owner, newItemID);\n        _setTokenURI(newItemID, tokenURI);\n\n        return newItemID;\n    }\n\n    function setTokenURI(uint256 tokenID, string memory tokenURI, address ownerToken) onlyOwner() external\n    {\n        require(ownerOf(tokenID) == ownerToken, \"SaveDocToken: Cet NFT ne vous appartient pas !\");\n\n        _setTokenURI(tokenID, tokenURI);\n    }\n\n    function burn(uint256 tokenID, address ownerToken) onlyOwner() external\n    {\n        require(ownerOf(tokenID) == ownerToken, \"SaveDocToken: Cet NFT ne vous appartient pas !\");\n        _burn(tokenID);\n    }\n}\n",
  "sourcePath": "/home/oumar/projects/SAV-Doc/contracts/SaveDocToken.sol",
  "compiler": {
    "name": "solc",
    "version": "0.8.6+commit.11564f7e.Emscripten.clang"
  },
  "schemaVersion": "3.4.1",
  "updatedAt": "2021-07-31T14:30:07.271Z",
  "networkType": "ethereum",
  "devdoc": {
    "kind": "dev",
    "methods": {
      "approve(address,uint256)": {
        "details": "See {IERC721-approve}."
      },
      "balanceOf(address)": {
        "details": "See {IERC721-balanceOf}."
      },
      "getApproved(uint256)": {
        "details": "See {IERC721-getApproved}."
      },
      "isApprovedForAll(address,address)": {
        "details": "See {IERC721-isApprovedForAll}."
      },
      "name()": {
        "details": "See {IERC721Metadata-name}."
      },
      "owner()": {
        "details": "Returns the address of the current owner."
      },
      "ownerOf(uint256)": {
        "details": "See {IERC721-ownerOf}."
      },
      "renounceOwnership()": {
        "details": "Leaves the contract without owner. It will not be possible to call `onlyOwner` functions anymore. Can only be called by the current owner. NOTE: Renouncing ownership will leave the contract without an owner, thereby removing any functionality that is only available to the owner."
      },
      "safeTransferFrom(address,address,uint256)": {
        "details": "See {IERC721-safeTransferFrom}."
      },
      "safeTransferFrom(address,address,uint256,bytes)": {
        "details": "See {IERC721-safeTransferFrom}."
      },
      "setApprovalForAll(address,bool)": {
        "details": "See {IERC721-setApprovalForAll}."
      },
      "supportsInterface(bytes4)": {
        "details": "See {IERC165-supportsInterface}."
      },
      "symbol()": {
        "details": "See {IERC721Metadata-symbol}."
      },
      "tokenURI(uint256)": {
        "details": "See {IERC721Metadata-tokenURI}."
      },
      "transferFrom(address,address,uint256)": {
        "details": "See {IERC721-transferFrom}."
      },
      "transferOwnership(address)": {
        "details": "Transfers ownership of the contract to a new account (`newOwner`). Can only be called by the current owner."
      }
    },
    "version": 1
  },
  "userdoc": {
    "kind": "user",
    "methods": {},
    "version": 1
  }
}