{
  "contractName": "SaveDoc",
  "abi": [
    {
      "inputs": [
        {
          "internalType": "contract DocManager",
          "name": "_docManager",
          "type": "address"
        },
        {
          "internalType": "contract SaveDocToken",
          "name": "_saveDocToken",
          "type": "address"
        },
        {
          "internalType": "contract AccountManager",
          "name": "_accountManager",
          "type": "address"
        }
      ],
      "stateMutability": "nonpayable",
      "type": "constructor"
    },
    {
      "anonymous": false,
      "inputs": [
        {
          "indexed": false,
          "internalType": "address",
          "name": "certifying",
          "type": "address"
        },
        {
          "indexed": false,
          "internalType": "address",
          "name": "applicant",
          "type": "address"
        },
        {
          "indexed": false,
          "internalType": "uint256",
          "name": "tokenID",
          "type": "uint256"
        },
        {
          "indexed": false,
          "internalType": "bool",
          "name": "keepCopy",
          "type": "bool"
        }
      ],
      "name": "AcceptCertificationRequest",
      "type": "event"
    },
    {
      "anonymous": false,
      "inputs": [
        {
          "indexed": false,
          "internalType": "address",
          "name": "newOwner",
          "type": "address"
        },
        {
          "indexed": false,
          "internalType": "uint256",
          "name": "tokenID",
          "type": "uint256"
        }
      ],
      "name": "AcceptTransferDoc",
      "type": "event"
    },
    {
      "anonymous": false,
      "inputs": [
        {
          "indexed": false,
          "internalType": "address",
          "name": "user",
          "type": "address"
        },
        {
          "indexed": false,
          "internalType": "string",
          "name": "newUsername",
          "type": "string"
        }
      ],
      "name": "ChangeUsername",
      "type": "event"
    },
    {
      "anonymous": false,
      "inputs": [
        {
          "indexed": false,
          "internalType": "address",
          "name": "ownerDoc",
          "type": "address"
        },
        {
          "indexed": false,
          "internalType": "uint256",
          "name": "tokenID",
          "type": "uint256"
        },
        {
          "indexed": false,
          "internalType": "bool",
          "name": "forTransfer",
          "type": "bool"
        }
      ],
      "name": "DeleteDocumment",
      "type": "event"
    },
    {
      "anonymous": false,
      "inputs": [
        {
          "indexed": false,
          "internalType": "address",
          "name": "ownerDoc",
          "type": "address"
        },
        {
          "indexed": false,
          "internalType": "uint256",
          "name": "tokenID",
          "type": "uint256"
        }
      ],
      "name": "DeleteMyDocCopy",
      "type": "event"
    },
    {
      "anonymous": false,
      "inputs": [
        {
          "indexed": true,
          "internalType": "address",
          "name": "previousOwner",
          "type": "address"
        },
        {
          "indexed": true,
          "internalType": "address",
          "name": "newOwner",
          "type": "address"
        }
      ],
      "name": "OwnershipTransferred",
      "type": "event"
    },
    {
      "anonymous": false,
      "inputs": [
        {
          "indexed": false,
          "internalType": "address",
          "name": "certifying",
          "type": "address"
        },
        {
          "indexed": false,
          "internalType": "address",
          "name": "applicant",
          "type": "address"
        },
        {
          "indexed": false,
          "internalType": "uint256",
          "name": "tokenID",
          "type": "uint256"
        }
      ],
      "name": "RejectCertificationRequest",
      "type": "event"
    },
    {
      "anonymous": false,
      "inputs": [
        {
          "indexed": false,
          "internalType": "address",
          "name": "applicant",
          "type": "address"
        },
        {
          "indexed": false,
          "internalType": "uint256",
          "name": "tokenID",
          "type": "uint256"
        }
      ],
      "name": "RequestCertification",
      "type": "event"
    },
    {
      "anonymous": false,
      "inputs": [
        {
          "indexed": false,
          "internalType": "address",
          "name": "user",
          "type": "address"
        },
        {
          "indexed": false,
          "internalType": "uint256",
          "name": "tokenID",
          "type": "uint256"
        }
      ],
      "name": "SecureDocument",
      "type": "event"
    },
    {
      "anonymous": false,
      "inputs": [
        {
          "indexed": false,
          "internalType": "address",
          "name": "from",
          "type": "address"
        },
        {
          "indexed": false,
          "internalType": "address",
          "name": "to",
          "type": "address"
        },
        {
          "indexed": false,
          "internalType": "uint256",
          "name": "tokenID",
          "type": "uint256"
        }
      ],
      "name": "ShareDoc",
      "type": "event"
    },
    {
      "anonymous": false,
      "inputs": [
        {
          "indexed": false,
          "internalType": "address",
          "name": "newUser",
          "type": "address"
        },
        {
          "indexed": false,
          "internalType": "string",
          "name": "name",
          "type": "string"
        },
        {
          "indexed": false,
          "internalType": "string",
          "name": "pubkey",
          "type": "string"
        }
      ],
      "name": "Subscribe",
      "type": "event"
    },
    {
      "anonymous": false,
      "inputs": [
        {
          "indexed": false,
          "internalType": "address",
          "name": "newUser",
          "type": "address"
        },
        {
          "indexed": false,
          "internalType": "string",
          "name": "pubkey",
          "type": "string"
        }
      ],
      "name": "SubscribeAuthority",
      "type": "event"
    },
    {
      "anonymous": false,
      "inputs": [
        {
          "indexed": false,
          "internalType": "address",
          "name": "from",
          "type": "address"
        },
        {
          "indexed": false,
          "internalType": "address",
          "name": "to",
          "type": "address"
        },
        {
          "indexed": false,
          "internalType": "uint256",
          "name": "tokenID",
          "type": "uint256"
        }
      ],
      "name": "TransferDocument",
      "type": "event"
    },
    {
      "anonymous": false,
      "inputs": [
        {
          "indexed": false,
          "internalType": "address",
          "name": "user",
          "type": "address"
        }
      ],
      "name": "Unsubcribe",
      "type": "event"
    },
    {
      "inputs": [],
      "name": "owner",
      "outputs": [
        {
          "internalType": "address",
          "name": "",
          "type": "address"
        }
      ],
      "stateMutability": "view",
      "type": "function",
      "constant": true
    },
    {
      "inputs": [],
      "name": "renounceOwnership",
      "outputs": [],
      "stateMutability": "nonpayable",
      "type": "function"
    },
    {
      "inputs": [
        {
          "internalType": "address",
          "name": "newOwner",
          "type": "address"
        }
      ],
      "name": "transferOwnership",
      "outputs": [],
      "stateMutability": "nonpayable",
      "type": "function"
    },
    {
      "inputs": [
        {
          "internalType": "string",
          "name": "name",
          "type": "string"
        },
        {
          "internalType": "string",
          "name": "pubKey",
          "type": "string"
        },
        {
          "internalType": "string",
          "name": "passwordMaster",
          "type": "string"
        }
      ],
      "name": "subscribe",
      "outputs": [],
      "stateMutability": "nonpayable",
      "type": "function"
    },
    {
      "inputs": [
        {
          "internalType": "address",
          "name": "authority",
          "type": "address"
        },
        {
          "internalType": "string",
          "name": "name",
          "type": "string"
        },
        {
          "internalType": "string",
          "name": "pubKey",
          "type": "string"
        },
        {
          "internalType": "string",
          "name": "passwordMaster",
          "type": "string"
        }
      ],
      "name": "subscribeAuthority",
      "outputs": [],
      "stateMutability": "nonpayable",
      "type": "function"
    },
    {
      "inputs": [],
      "name": "viewMyProfil",
      "outputs": [
        {
          "components": [
            {
              "internalType": "string",
              "name": "name",
              "type": "string"
            },
            {
              "internalType": "string",
              "name": "publicKey",
              "type": "string"
            },
            {
              "internalType": "bool",
              "name": "isAuthority",
              "type": "bool"
            },
            {
              "internalType": "bool",
              "name": "exist",
              "type": "bool"
            }
          ],
          "internalType": "struct SaveDocStruct.User",
          "name": "",
          "type": "tuple"
        }
      ],
      "stateMutability": "view",
      "type": "function",
      "constant": true
    },
    {
      "inputs": [
        {
          "internalType": "address",
          "name": "_address",
          "type": "address"
        }
      ],
      "name": "viewProfil",
      "outputs": [
        {
          "components": [
            {
              "internalType": "string",
              "name": "name",
              "type": "string"
            },
            {
              "internalType": "string",
              "name": "publicKey",
              "type": "string"
            },
            {
              "internalType": "bool",
              "name": "isAuthority",
              "type": "bool"
            },
            {
              "internalType": "bool",
              "name": "exist",
              "type": "bool"
            }
          ],
          "internalType": "struct SaveDocStruct.User",
          "name": "",
          "type": "tuple"
        }
      ],
      "stateMutability": "view",
      "type": "function",
      "constant": true
    },
    {
      "inputs": [],
      "name": "getMyPasswordMaster",
      "outputs": [
        {
          "internalType": "string",
          "name": "",
          "type": "string"
        }
      ],
      "stateMutability": "view",
      "type": "function",
      "constant": true
    },
    {
      "inputs": [
        {
          "internalType": "string",
          "name": "name",
          "type": "string"
        }
      ],
      "name": "changeMyName",
      "outputs": [],
      "stateMutability": "nonpayable",
      "type": "function"
    },
    {
      "inputs": [],
      "name": "unsubscribe",
      "outputs": [],
      "stateMutability": "nonpayable",
      "type": "function"
    },
    {
      "inputs": [
        {
          "internalType": "string",
          "name": "tokenName",
          "type": "string"
        },
        {
          "internalType": "string",
          "name": "tokenURI",
          "type": "string"
        },
        {
          "internalType": "string",
          "name": "tokenMime",
          "type": "string"
        },
        {
          "internalType": "uint256",
          "name": "tokenLength",
          "type": "uint256"
        },
        {
          "internalType": "string",
          "name": "filePath",
          "type": "string"
        },
        {
          "internalType": "string",
          "name": "passwordEncrypted",
          "type": "string"
        },
        {
          "internalType": "string",
          "name": "hashNFT",
          "type": "string"
        }
      ],
      "name": "secureDocument",
      "outputs": [
        {
          "components": [
            {
              "internalType": "uint256",
              "name": "tokenID",
              "type": "uint256"
            },
            {
              "internalType": "uint256",
              "name": "fileSize",
              "type": "uint256"
            },
            {
              "internalType": "string",
              "name": "filename",
              "type": "string"
            },
            {
              "internalType": "string",
              "name": "fileMimeType",
              "type": "string"
            },
            {
              "internalType": "uint256",
              "name": "dateAdd",
              "type": "uint256"
            },
            {
              "internalType": "string",
              "name": "filePath",
              "type": "string"
            },
            {
              "internalType": "address[]",
              "name": "certifying",
              "type": "address[]"
            },
            {
              "internalType": "string",
              "name": "tokenURI",
              "type": "string"
            },
            {
              "internalType": "string",
              "name": "passwordEncrypted",
              "type": "string"
            },
            {
              "internalType": "enum SaveDocStruct.TypeDoc",
              "name": "typeNft",
              "type": "uint8"
            }
          ],
          "internalType": "struct SaveDocStruct.Document",
          "name": "",
          "type": "tuple"
        }
      ],
      "stateMutability": "nonpayable",
      "type": "function"
    },
    {
      "inputs": [
        {
          "internalType": "uint256",
          "name": "tokenID",
          "type": "uint256"
        },
        {
          "internalType": "bool",
          "name": "forTransfer",
          "type": "bool"
        }
      ],
      "name": "delMyDocument",
      "outputs": [],
      "stateMutability": "nonpayable",
      "type": "function"
    },
    {
      "inputs": [
        {
          "internalType": "uint256",
          "name": "tokenID",
          "type": "uint256"
        }
      ],
      "name": "getTokenURI",
      "outputs": [
        {
          "internalType": "string",
          "name": "",
          "type": "string"
        }
      ],
      "stateMutability": "view",
      "type": "function",
      "constant": true
    },
    {
      "inputs": [
        {
          "internalType": "address",
          "name": "to",
          "type": "address"
        },
        {
          "internalType": "uint256",
          "name": "tokenID",
          "type": "uint256"
        },
        {
          "internalType": "string",
          "name": "tokenURITmp",
          "type": "string"
        }
      ],
      "name": "transferDoc",
      "outputs": [],
      "stateMutability": "nonpayable",
      "type": "function"
    },
    {
      "inputs": [
        {
          "internalType": "uint256",
          "name": "tokenID",
          "type": "uint256"
        },
        {
          "internalType": "address",
          "name": "to",
          "type": "address"
        },
        {
          "internalType": "string",
          "name": "tokenURI",
          "type": "string"
        }
      ],
      "name": "shareDoc",
      "outputs": [],
      "stateMutability": "nonpayable",
      "type": "function"
    },
    {
      "inputs": [
        {
          "internalType": "uint256",
          "name": "tokenID",
          "type": "uint256"
        },
        {
          "internalType": "string",
          "name": "newTokenURI",
          "type": "string"
        },
        {
          "internalType": "string",
          "name": "passwordEncrypted",
          "type": "string"
        }
      ],
      "name": "acceptNewDoc",
      "outputs": [],
      "stateMutability": "nonpayable",
      "type": "function"
    },
    {
      "inputs": [
        {
          "internalType": "uint256",
          "name": "tokenID",
          "type": "uint256"
        }
      ],
      "name": "delCopyDocShared",
      "outputs": [],
      "stateMutability": "nonpayable",
      "type": "function"
    },
    {
      "inputs": [
        {
          "internalType": "uint256",
          "name": "_tokenID",
          "type": "uint256"
        },
        {
          "internalType": "string",
          "name": "_tokenURI",
          "type": "string"
        },
        {
          "internalType": "address",
          "name": "_certifying",
          "type": "address"
        }
      ],
      "name": "requestCertification",
      "outputs": [],
      "stateMutability": "nonpayable",
      "type": "function"
    },
    {
      "inputs": [],
      "name": "viewMyDocs",
      "outputs": [
        {
          "components": [
            {
              "internalType": "uint256",
              "name": "tokenID",
              "type": "uint256"
            },
            {
              "internalType": "uint256",
              "name": "fileSize",
              "type": "uint256"
            },
            {
              "internalType": "string",
              "name": "filename",
              "type": "string"
            },
            {
              "internalType": "string",
              "name": "fileMimeType",
              "type": "string"
            },
            {
              "internalType": "uint256",
              "name": "dateAdd",
              "type": "uint256"
            },
            {
              "internalType": "string",
              "name": "filePath",
              "type": "string"
            },
            {
              "internalType": "address[]",
              "name": "certifying",
              "type": "address[]"
            },
            {
              "internalType": "string",
              "name": "tokenURI",
              "type": "string"
            },
            {
              "internalType": "string",
              "name": "passwordEncrypted",
              "type": "string"
            },
            {
              "internalType": "enum SaveDocStruct.TypeDoc",
              "name": "typeNft",
              "type": "uint8"
            }
          ],
          "internalType": "struct SaveDocStruct.Document[]",
          "name": "",
          "type": "tuple[]"
        }
      ],
      "stateMutability": "view",
      "type": "function",
      "constant": true
    },
    {
      "inputs": [],
      "name": "viewMyCopyDocs",
      "outputs": [
        {
          "components": [
            {
              "internalType": "uint256",
              "name": "tokenID",
              "type": "uint256"
            },
            {
              "internalType": "uint256",
              "name": "fileSize",
              "type": "uint256"
            },
            {
              "internalType": "string",
              "name": "filename",
              "type": "string"
            },
            {
              "internalType": "string",
              "name": "fileMimeType",
              "type": "string"
            },
            {
              "internalType": "uint256",
              "name": "dateAdd",
              "type": "uint256"
            },
            {
              "internalType": "string",
              "name": "filePath",
              "type": "string"
            },
            {
              "internalType": "address[]",
              "name": "certifying",
              "type": "address[]"
            },
            {
              "internalType": "string",
              "name": "tokenURI",
              "type": "string"
            },
            {
              "internalType": "string",
              "name": "passwordEncrypted",
              "type": "string"
            },
            {
              "internalType": "enum SaveDocStruct.TypeDoc",
              "name": "typeNft",
              "type": "uint8"
            }
          ],
          "internalType": "struct SaveDocStruct.Document[]",
          "name": "",
          "type": "tuple[]"
        }
      ],
      "stateMutability": "view",
      "type": "function",
      "constant": true
    },
    {
      "inputs": [],
      "name": "viewDocPendingTransfer",
      "outputs": [
        {
          "components": [
            {
              "internalType": "uint256",
              "name": "tokenID",
              "type": "uint256"
            },
            {
              "internalType": "uint256",
              "name": "fileSize",
              "type": "uint256"
            },
            {
              "internalType": "string",
              "name": "filename",
              "type": "string"
            },
            {
              "internalType": "string",
              "name": "fileMimeType",
              "type": "string"
            },
            {
              "internalType": "uint256",
              "name": "dateAdd",
              "type": "uint256"
            },
            {
              "internalType": "string",
              "name": "filePath",
              "type": "string"
            },
            {
              "internalType": "address[]",
              "name": "certifying",
              "type": "address[]"
            },
            {
              "internalType": "string",
              "name": "tokenURI",
              "type": "string"
            },
            {
              "internalType": "string",
              "name": "passwordEncrypted",
              "type": "string"
            },
            {
              "internalType": "enum SaveDocStruct.TypeDoc",
              "name": "typeNft",
              "type": "uint8"
            }
          ],
          "internalType": "struct SaveDocStruct.Document[]",
          "name": "",
          "type": "tuple[]"
        }
      ],
      "stateMutability": "view",
      "type": "function",
      "constant": true
    },
    {
      "inputs": [],
      "name": "viewDocCertified",
      "outputs": [
        {
          "components": [
            {
              "internalType": "uint256",
              "name": "tokenID",
              "type": "uint256"
            },
            {
              "internalType": "uint256",
              "name": "fileSize",
              "type": "uint256"
            },
            {
              "internalType": "string",
              "name": "filename",
              "type": "string"
            },
            {
              "internalType": "string",
              "name": "fileMimeType",
              "type": "string"
            },
            {
              "internalType": "uint256",
              "name": "dateAdd",
              "type": "uint256"
            },
            {
              "internalType": "string",
              "name": "filePath",
              "type": "string"
            },
            {
              "internalType": "address[]",
              "name": "certifying",
              "type": "address[]"
            },
            {
              "internalType": "string",
              "name": "tokenURI",
              "type": "string"
            },
            {
              "internalType": "string",
              "name": "passwordEncrypted",
              "type": "string"
            },
            {
              "internalType": "enum SaveDocStruct.TypeDoc",
              "name": "typeNft",
              "type": "uint8"
            }
          ],
          "internalType": "struct SaveDocStruct.Document[]",
          "name": "",
          "type": "tuple[]"
        }
      ],
      "stateMutability": "view",
      "type": "function",
      "constant": true
    },
    {
      "inputs": [
        {
          "internalType": "uint256",
          "name": "_tokenID",
          "type": "uint256"
        },
        {
          "internalType": "string",
          "name": "_hashNFT",
          "type": "string"
        },
        {
          "internalType": "bool",
          "name": "_keepCopyDoc",
          "type": "bool"
        }
      ],
      "name": "acceptCertificationRequest",
      "outputs": [],
      "stateMutability": "nonpayable",
      "type": "function"
    },
    {
      "inputs": [
        {
          "internalType": "uint256",
          "name": "_tokenID",
          "type": "uint256"
        }
      ],
      "name": "rejectCertificationRequest",
      "outputs": [],
      "stateMutability": "nonpayable",
      "type": "function"
    }
  ],
  "bytecode": "0x60806040523480156200001157600080fd5b506040516200526838038062005268833981810160405281019062000037919062000234565b620000576200004b6200012360201b60201c565b6200012b60201b60201c565b82600360006101000a81548173ffffffffffffffffffffffffffffffffffffffff021916908373ffffffffffffffffffffffffffffffffffffffff16021790555081600260006101000a81548173ffffffffffffffffffffffffffffffffffffffff021916908373ffffffffffffffffffffffffffffffffffffffff16021790555080600460006101000a81548173ffffffffffffffffffffffffffffffffffffffff021916908373ffffffffffffffffffffffffffffffffffffffff16021790555050505062000353565b600033905090565b60008060009054906101000a900473ffffffffffffffffffffffffffffffffffffffff169050816000806101000a81548173ffffffffffffffffffffffffffffffffffffffff021916908373ffffffffffffffffffffffffffffffffffffffff1602179055508173ffffffffffffffffffffffffffffffffffffffff168173ffffffffffffffffffffffffffffffffffffffff167f8be0079c531659141344cd1fd0a4f28419497f9722a3daafe3b4186f6b6457e060405160405180910390a35050565b600081519050620002008162000305565b92915050565b60008151905062000217816200031f565b92915050565b6000815190506200022e8162000339565b92915050565b60008060006060848603121562000250576200024f62000300565b5b6000620002608682870162000206565b935050602062000273868287016200021d565b92505060406200028686828701620001ef565b9150509250925092565b60006200029d82620002e0565b9050919050565b6000620002b18262000290565b9050919050565b6000620002c58262000290565b9050919050565b6000620002d98262000290565b9050919050565b600073ffffffffffffffffffffffffffffffffffffffff82169050919050565b600080fd5b6200031081620002a4565b81146200031c57600080fd5b50565b6200032a81620002b8565b81146200033657600080fd5b50565b6200034481620002cc565b81146200035057600080fd5b50565b614f0580620003636000396000f3fe608060405234801561001057600080fd5b50600436106101585760003560e01c80638fde68c5116100c3578063caed55601161007c578063caed556014610377578063cfba8f91146103a7578063f260d415146103c5578063f2fde38b146103e1578063f42a119e146103fd578063fcae44841461041957610158565b80638fde68c5146102b757806393eeaef0146102d3578063940c1bc8146102ef578063b79962521461031f578063bf5665991461033d578063c991607e1461035957610158565b80635c1ef442116101155780635c1ef4421461021b5780636fbf73fd14610237578063715018a61461025557806375ece0dc1461025f5780638a5fd6061461027d5780638da5cb5b1461029957610158565b80631060a4771461015d5780632d5dbeb1146101795780632e81cdda14610195578063357c2f54146101b15780633bb3a24d146101cf57806345f0abfe146101ff575b600080fd5b61017760048036038101906101729190613de6565b610423565b005b610193600480360381019061018e9190613e55565b6107f7565b005b6101af60048036038101906101aa9190613c6e565b610a77565b005b6101b9610d8b565b6040516101c69190614826565b60405180910390f35b6101e960048036038101906101e49190613c6e565b610e42565b6040516101f69190614848565b60405180910390f35b61021960048036038101906102149190613cc8565b611015565b005b61023560048036038101906102309190613d37565b6112f1565b005b61023f61158f565b60405161024c9190614826565b60405180910390f35b61025d611646565b005b6102676116ce565b6040516102749190614826565b60405180910390f35b61029760048036038101906102929190613d77565b611785565b005b6102a1611d1f565b6040516102ae9190614422565b60405180910390f35b6102d160048036038101906102cc91906137b9565b611d48565b005b6102ed60048036038101906102e89190613c6e565b611ebc565b005b61030960048036038101906103049190613a92565b612039565b604051610316919061492a565b60405180910390f35b6103276122f3565b6040516103349190614826565b60405180910390f35b61035760048036038101906103529190613959565b6123aa565b005b61036161249b565b60405161036e919061494c565b60405180910390f35b610391600480360381019061038c919061375f565b612558565b60405161039e919061494c565b60405180910390f35b6103af612617565b6040516103bc9190614848565b60405180910390f35b6103df60048036038101906103da91906139eb565b6126ce565b005b6103fb60048036038101906103f6919061375f565b6127c7565b005b61041760048036038101906104129190613874565b6128bf565b005b610421612c37565b005b3383600160008373ffffffffffffffffffffffffffffffffffffffff1673ffffffffffffffffffffffffffffffffffffffff168152602001908152602001600020600082815260200190815260200160002060020160009054906101000a900460ff166104c5576040517f08c379a00000000000000000000000000000000000000000000000000000000081526004016104bc9061490a565b60405180910390fd5b6000600160003373ffffffffffffffffffffffffffffffffffffffff1673ffffffffffffffffffffffffffffffffffffffff16815260200190815260200160002060008781526020019081526020016000206040518060600160405290816000820160009054906101000a900473ffffffffffffffffffffffffffffffffffffffff1673ffffffffffffffffffffffffffffffffffffffff1673ffffffffffffffffffffffffffffffffffffffff168152602001600182015481526020016002820160009054906101000a900460ff16151515158152505090506105b28160000151826020015187612f03565b6105c033826020015161304d565b831561066457600360009054906101000a900473ffffffffffffffffffffffffffffffffffffffff1673ffffffffffffffffffffffffffffffffffffffff16638c6acc51336002600185602001516040518563ffffffff1660e01b815260040161062d94939291906145c7565b600060405180830381600087803b15801561064757600080fd5b505af115801561065b573d6000803e3d6000fd5b505050506107aa565b600360009054906101000a900473ffffffffffffffffffffffffffffffffffffffff1673ffffffffffffffffffffffffffffffffffffffff16634531817d336002600360009054906101000a900473ffffffffffffffffffffffffffffffffffffffff1673ffffffffffffffffffffffffffffffffffffffff16637cc24f2d33600288602001516040518463ffffffff1660e01b81526004016107099392919061461f565b60206040518083038186803b15801561072157600080fd5b505afa158015610735573d6000803e3d6000fd5b505050506040513d601f19601f820116820180604052508101906107599190613c9b565b6040518463ffffffff1660e01b81526004016107779392919061461f565b600060405180830381600087803b15801561079157600080fd5b505af11580156107a5573d6000803e3d6000fd5b505050505b7ff0f8c7ba94a353f8e6a599551096a917b2c8e83503b929a736d549ca8b3fb1843382600001518360200151876040516107e79493929190614474565b60405180910390a1505050505050565b823373ffffffffffffffffffffffffffffffffffffffff16600260009054906101000a900473ffffffffffffffffffffffffffffffffffffffff1673ffffffffffffffffffffffffffffffffffffffff16636352211e836040518263ffffffff1660e01b815260040161086a919061496e565b60206040518083038186803b15801561088257600080fd5b505afa158015610896573d6000803e3d6000fd5b505050506040513d601f19601f820116820180604052508101906108ba919061378c565b73ffffffffffffffffffffffffffffffffffffffff1614610910576040517f08c379a0000000000000000000000000000000000000000000000000000000008152600401610907906148ea565b60405180910390fd5b600360009054906101000a900473ffffffffffffffffffffffffffffffffffffffff1673ffffffffffffffffffffffffffffffffffffffff16638c6acc51336003600088876040518663ffffffff1660e01b815260040161097595949392919061456d565b600060405180830381600087803b15801561098f57600080fd5b505af11580156109a3573d6000803e3d6000fd5b50505050600260009054906101000a900473ffffffffffffffffffffffffffffffffffffffff1673ffffffffffffffffffffffffffffffffffffffff16632682b0e48585336040518463ffffffff1660e01b8152600401610a06939291906149b2565b600060405180830381600087803b158015610a2057600080fd5b505af1158015610a34573d6000803e3d6000fd5b505050507f41398dd25cfa0774990db425ab8dc3865eb456073501bdeb839bb236a135dba53385604051610a69929190614725565b60405180910390a150505050565b3381600160008373ffffffffffffffffffffffffffffffffffffffff1673ffffffffffffffffffffffffffffffffffffffff168152602001908152602001600020600082815260200190815260200160002060020160009054906101000a900460ff16610b19576040517f08c379a0000000000000000000000000000000000000000000000000000000008152600401610b109061490a565b60405180910390fd5b6000600160003373ffffffffffffffffffffffffffffffffffffffff1673ffffffffffffffffffffffffffffffffffffffff16815260200190815260200160002060008581526020019081526020016000206040518060600160405290816000820160009054906101000a900473ffffffffffffffffffffffffffffffffffffffff1673ffffffffffffffffffffffffffffffffffffffff1673ffffffffffffffffffffffffffffffffffffffff168152602001600182015481526020016002820160009054906101000a900460ff1615151515815250509050610bfd338561304d565b600360009054906101000a900473ffffffffffffffffffffffffffffffffffffffff1673ffffffffffffffffffffffffffffffffffffffff16634531817d336002600360009054906101000a900473ffffffffffffffffffffffffffffffffffffffff1673ffffffffffffffffffffffffffffffffffffffff16637cc24f2d33600288602001516040518463ffffffff1660e01b8152600401610ca29392919061461f565b60206040518083038186803b158015610cba57600080fd5b505afa158015610cce573d6000803e3d6000fd5b505050506040513d601f19601f82011682018060405250810190610cf29190613c9b565b6040518463ffffffff1660e01b8152600401610d109392919061461f565b600060405180830381600087803b158015610d2a57600080fd5b505af1158015610d3e573d6000803e3d6000fd5b505050507fa912d4fcf92fbf5ee375612c5bc2e36a389d851e05a910bf21e0beda6c8d89693382600001518360200151604051610d7d9392919061443d565b60405180910390a150505050565b6060600360009054906101000a900473ffffffffffffffffffffffffffffffffffffffff1673ffffffffffffffffffffffffffffffffffffffff166304e5b45c336040518263ffffffff1660e01b8152600401610de89190614422565b60006040518083038186803b158015610e0057600080fd5b505afa158015610e14573d6000803e3d6000fd5b505050506040513d6000823e3d601f19601f82011682018060405250810190610e3d91906138e3565b905090565b6060813373ffffffffffffffffffffffffffffffffffffffff16600260009054906101000a900473ffffffffffffffffffffffffffffffffffffffff1673ffffffffffffffffffffffffffffffffffffffff16636352211e836040518263ffffffff1660e01b8152600401610eb7919061496e565b60206040518083038186803b158015610ecf57600080fd5b505afa158015610ee3573d6000803e3d6000fd5b505050506040513d601f19601f82011682018060405250810190610f07919061378c565b73ffffffffffffffffffffffffffffffffffffffff1614610f5d576040517f08c379a0000000000000000000000000000000000000000000000000000000008152600401610f54906148ea565b60405180910390fd5b600260009054906101000a900473ffffffffffffffffffffffffffffffffffffffff1673ffffffffffffffffffffffffffffffffffffffff1663c87b56dd846040518263ffffffff1660e01b8152600401610fb8919061496e565b60006040518083038186803b158015610fd057600080fd5b505afa158015610fe4573d6000803e3d6000fd5b505050506040513d6000823e3d601f19601f8201168201806040525081019061100d91906139a2565b915050919050565b823373ffffffffffffffffffffffffffffffffffffffff16600260009054906101000a900473ffffffffffffffffffffffffffffffffffffffff1673ffffffffffffffffffffffffffffffffffffffff16636352211e836040518263ffffffff1660e01b8152600401611088919061496e565b60206040518083038186803b1580156110a057600080fd5b505afa1580156110b4573d6000803e3d6000fd5b505050506040513d601f19601f820116820180604052508101906110d8919061378c565b73ffffffffffffffffffffffffffffffffffffffff161461112e576040517f08c379a0000000000000000000000000000000000000000000000000000000008152600401611125906148ea565b60405180910390fd5b82600460009054906101000a900473ffffffffffffffffffffffffffffffffffffffff1673ffffffffffffffffffffffffffffffffffffffff1663a1abffee826040518263ffffffff1660e01b815260040161118a9190614422565b60206040518083038186803b1580156111a257600080fd5b505afa1580156111b6573d6000803e3d6000fd5b505050506040513d601f19601f820116820180604052508101906111da919061392c565b611219576040517f08c379a0000000000000000000000000000000000000000000000000000000008152600401611210906148aa565b60405180910390fd5b600360009054906101000a900473ffffffffffffffffffffffffffffffffffffffff1673ffffffffffffffffffffffffffffffffffffffff166371499a7b3386888760016040518663ffffffff1660e01b815260040161127d9594939291906144b9565b600060405180830381600087803b15801561129757600080fd5b505af11580156112ab573d6000803e3d6000fd5b505050507f30ef45173d7b3f0134eb34eed874d331ff64fe422f3a8881a8353f7fe27a98fd3385876040516112e29392919061443d565b60405180910390a15050505050565b813373ffffffffffffffffffffffffffffffffffffffff16600260009054906101000a900473ffffffffffffffffffffffffffffffffffffffff1673ffffffffffffffffffffffffffffffffffffffff16636352211e836040518263ffffffff1660e01b8152600401611364919061496e565b60206040518083038186803b15801561137c57600080fd5b505afa158015611390573d6000803e3d6000fd5b505050506040513d601f19601f820116820180604052508101906113b4919061378c565b73ffffffffffffffffffffffffffffffffffffffff161461140a576040517f08c379a0000000000000000000000000000000000000000000000000000000008152600401611401906148ea565b60405180910390fd5b600360009054906101000a900473ffffffffffffffffffffffffffffffffffffffff1673ffffffffffffffffffffffffffffffffffffffff166389ed5fa033856040518363ffffffff1660e01b8152600401611467929190614725565b602060405180830381600087803b15801561148157600080fd5b505af1158015611495573d6000803e3d6000fd5b505050506040513d601f19601f820116820180604052508101906114b9919061392c565b508161154f57600260009054906101000a900473ffffffffffffffffffffffffffffffffffffffff1673ffffffffffffffffffffffffffffffffffffffff1663fcd3533c84336040518363ffffffff1660e01b815260040161151c929190614989565b600060405180830381600087803b15801561153657600080fd5b505af115801561154a573d6000803e3d6000fd5b505050505b7f25d4d887d1cdf2f4a7386b7e0d00aa319d66a6963a77083e69758fc3cb1ccebf3384846040516115829392919061474e565b60405180910390a1505050565b6060600360009054906101000a900473ffffffffffffffffffffffffffffffffffffffff1673ffffffffffffffffffffffffffffffffffffffff1663219e657b336040518263ffffffff1660e01b81526004016115ec9190614422565b60006040518083038186803b15801561160457600080fd5b505afa158015611618573d6000803e3d6000fd5b505050506040513d6000823e3d601f19601f8201168201806040525081019061164191906138e3565b905090565b61164e6130e7565b73ffffffffffffffffffffffffffffffffffffffff1661166c611d1f565b73ffffffffffffffffffffffffffffffffffffffff16146116c2576040517f08c379a00000000000000000000000000000000000000000000000000000000081526004016116b9906148ca565b60405180910390fd5b6116cc60006130ef565b565b6060600360009054906101000a900473ffffffffffffffffffffffffffffffffffffffff1673ffffffffffffffffffffffffffffffffffffffff1663bbed9457336040518263ffffffff1660e01b815260040161172b9190614422565b60006040518083038186803b15801561174357600080fd5b505afa158015611757573d6000803e3d6000fd5b505050506040513d6000823e3d601f19601f8201168201806040525081019061178091906138e3565b905090565b823373ffffffffffffffffffffffffffffffffffffffff16600260009054906101000a900473ffffffffffffffffffffffffffffffffffffffff1673ffffffffffffffffffffffffffffffffffffffff16636352211e836040518263ffffffff1660e01b81526004016117f8919061496e565b60206040518083038186803b15801561181057600080fd5b505afa158015611824573d6000803e3d6000fd5b505050506040513d601f19601f82011682018060405250810190611848919061378c565b73ffffffffffffffffffffffffffffffffffffffff161461189e576040517f08c379a0000000000000000000000000000000000000000000000000000000008152600401611895906148ea565b60405180910390fd5b81600460009054906101000a900473ffffffffffffffffffffffffffffffffffffffff1673ffffffffffffffffffffffffffffffffffffffff1663a1abffee826040518263ffffffff1660e01b81526004016118fa9190614422565b60206040518083038186803b15801561191257600080fd5b505afa158015611926573d6000803e3d6000fd5b505050506040513d601f19601f8201168201806040525081019061194a919061392c565b611989576040517f08c379a0000000000000000000000000000000000000000000000000000000008152600401611980906148aa565b60405180910390fd5b8285600160008373ffffffffffffffffffffffffffffffffffffffff1673ffffffffffffffffffffffffffffffffffffffff168152602001908152602001600020600082815260200190815260200160002060020160009054906101000a900460ff1615611a2c576040517f08c379a0000000000000000000000000000000000000000000000000000000008152600401611a239061488a565b60405180910390fd5b600360009054906101000a900473ffffffffffffffffffffffffffffffffffffffff1673ffffffffffffffffffffffffffffffffffffffff166371499a7b33878a8a60026040518663ffffffff1660e01b8152600401611a909594939291906144b9565b600060405180830381600087803b158015611aaa57600080fd5b505af1158015611abe573d6000803e3d6000fd5b5050505033600160008773ffffffffffffffffffffffffffffffffffffffff1673ffffffffffffffffffffffffffffffffffffffff168152602001908152602001600020600089815260200190815260200160002060000160006101000a81548173ffffffffffffffffffffffffffffffffffffffff021916908373ffffffffffffffffffffffffffffffffffffffff16021790555086600160008773ffffffffffffffffffffffffffffffffffffffff1673ffffffffffffffffffffffffffffffffffffffff16815260200190815260200160002060008981526020019081526020016000206001018190555060018060008773ffffffffffffffffffffffffffffffffffffffff1673ffffffffffffffffffffffffffffffffffffffff168152602001908152602001600020600089815260200190815260200160002060020160006101000a81548160ff0219169083151502179055507fdcd8480bd34c91f1f2adc92afe46034c8808591541fd4d1fa5cbdcb152cc8fec600160008773ffffffffffffffffffffffffffffffffffffffff1673ffffffffffffffffffffffffffffffffffffffff168152602001908152602001600020600089815260200190815260200160002060000160009054906101000a900473ffffffffffffffffffffffffffffffffffffffff16600160008873ffffffffffffffffffffffffffffffffffffffff1673ffffffffffffffffffffffffffffffffffffffff16815260200190815260200160002060008a815260200190815260200160002060010154604051611d0e929190614725565b60405180910390a150505050505050565b60008060009054906101000a900473ffffffffffffffffffffffffffffffffffffffff16905090565b611d506130e7565b73ffffffffffffffffffffffffffffffffffffffff16611d6e611d1f565b73ffffffffffffffffffffffffffffffffffffffff1614611dc4576040517f08c379a0000000000000000000000000000000000000000000000000000000008152600401611dbb906148ca565b60405180910390fd5b600460009054906101000a900473ffffffffffffffffffffffffffffffffffffffff1673ffffffffffffffffffffffffffffffffffffffff1663c6361c22858585856040518563ffffffff1660e01b8152600401611e2594939291906146cb565b600060405180830381600087803b158015611e3f57600080fd5b505af1158015611e53573d6000803e3d6000fd5b505050506040513d6000823e3d601f19601f82011682018060405250810190611e7c9190613c25565b507f8d9024430453f128ca4f7678ee38e6a2024a5f36fa204933588a69b8fe8cc0c08483604051611eae929190614656565b60405180910390a150505050565b600360009054906101000a900473ffffffffffffffffffffffffffffffffffffffff1673ffffffffffffffffffffffffffffffffffffffff16634531817d336001600360009054906101000a900473ffffffffffffffffffffffffffffffffffffffff1673ffffffffffffffffffffffffffffffffffffffff16637cc24f2d336001886040518463ffffffff1660e01b8152600401611f5d9392919061461f565b60206040518083038186803b158015611f7557600080fd5b505afa158015611f89573d6000803e3d6000fd5b505050506040513d601f19601f82011682018060405250810190611fad9190613c9b565b6040518463ffffffff1660e01b8152600401611fcb9392919061461f565b600060405180830381600087803b158015611fe557600080fd5b505af1158015611ff9573d6000803e3d6000fd5b505050507fa19d981f41b819741b3955b6e01294e09d0e45d35bebad9b435a433adde2d558338260405161202e929190614725565b60405180910390a150565b6120416131b3565b33600460009054906101000a900473ffffffffffffffffffffffffffffffffffffffff1673ffffffffffffffffffffffffffffffffffffffff1663a1abffee826040518263ffffffff1660e01b815260040161209d9190614422565b60206040518083038186803b1580156120b557600080fd5b505afa1580156120c9573d6000803e3d6000fd5b505050506040513d601f19601f820116820180604052508101906120ed919061392c565b61212c576040517f08c379a0000000000000000000000000000000000000000000000000000000008152600401612123906148aa565b60405180910390fd5b60006121366131b3565b600260009054906101000a900473ffffffffffffffffffffffffffffffffffffffff1673ffffffffffffffffffffffffffffffffffffffff1663d0def521338c6040518363ffffffff1660e01b8152600401612193929190614656565b602060405180830381600087803b1580156121ad57600080fd5b505af11580156121c1573d6000803e3d6000fd5b505050506040513d601f19601f820116820180604052508101906121e59190613c9b565b9150600360009054906101000a900473ffffffffffffffffffffffffffffffffffffffff1673ffffffffffffffffffffffffffffffffffffffff16639643062c33848e8d8d8d8d8d6040518963ffffffff1660e01b8152600401612250989796959493929190614785565b600060405180830381600087803b15801561226a57600080fd5b505af115801561227e573d6000803e3d6000fd5b505050506040513d6000823e3d601f19601f820116820180604052508101906122a79190613bdc565b90507fba21b505ffad1eade4edf87dec4f6dae4552ba705cb5188e82041dc02171a78533836040516122da929190614725565b60405180910390a1809350505050979650505050505050565b6060600360009054906101000a900473ffffffffffffffffffffffffffffffffffffffff1673ffffffffffffffffffffffffffffffffffffffff1663d83e2027336040518263ffffffff1660e01b81526004016123509190614422565b60006040518083038186803b15801561236857600080fd5b505afa15801561237c573d6000803e3d6000fd5b505050506040513d6000823e3d601f19601f820116820180604052508101906123a591906138e3565b905090565b600460009054906101000a900473ffffffffffffffffffffffffffffffffffffffff1673ffffffffffffffffffffffffffffffffffffffff16633f1a51b833836040518363ffffffff1660e01b8152600401612407929190614656565b600060405180830381600087803b15801561242157600080fd5b505af1158015612435573d6000803e3d6000fd5b505050506040513d6000823e3d601f19601f8201168201806040525081019061245e9190613c25565b507f3510d9fd1bdaa96909e4f9fcd057c39ee3ee4647521258d952d64974a8e052a83382604051612490929190614656565b60405180910390a150565b6124a3613218565b600460009054906101000a900473ffffffffffffffffffffffffffffffffffffffff1673ffffffffffffffffffffffffffffffffffffffff16636f77926b336040518263ffffffff1660e01b81526004016124fe9190614422565b60006040518083038186803b15801561251657600080fd5b505afa15801561252a573d6000803e3d6000fd5b505050506040513d6000823e3d601f19601f820116820180604052508101906125539190613c25565b905090565b612560613218565b600460009054906101000a900473ffffffffffffffffffffffffffffffffffffffff1673ffffffffffffffffffffffffffffffffffffffff16636f77926b836040518263ffffffff1660e01b81526004016125bb9190614422565b60006040518083038186803b1580156125d357600080fd5b505afa1580156125e7573d6000803e3d6000fd5b505050506040513d6000823e3d601f19601f820116820180604052508101906126109190613c25565b9050919050565b6060600460009054906101000a900473ffffffffffffffffffffffffffffffffffffffff1673ffffffffffffffffffffffffffffffffffffffff16636e2db3b0336040518263ffffffff1660e01b81526004016126749190614422565b60006040518083038186803b15801561268c57600080fd5b505afa1580156126a0573d6000803e3d6000fd5b505050506040513d6000823e3d601f19601f820116820180604052508101906126c991906139a2565b905090565b600460009054906101000a900473ffffffffffffffffffffffffffffffffffffffff1673ffffffffffffffffffffffffffffffffffffffff1663c6361c22338585856040518563ffffffff1660e01b815260040161272f94939291906146cb565b600060405180830381600087803b15801561274957600080fd5b505af115801561275d573d6000803e3d6000fd5b505050506040513d6000823e3d601f19601f820116820180604052508101906127869190613c25565b507ff9e22d0d90b1c23a58ab3faeb23fd4ac8ad47eccb5a435427069e65a22fb00d53384846040516127ba93929190614686565b60405180910390a1505050565b6127cf6130e7565b73ffffffffffffffffffffffffffffffffffffffff166127ed611d1f565b73ffffffffffffffffffffffffffffffffffffffff1614612843576040517f08c379a000000000000000000000000000000000000000000000000000000000815260040161283a906148ca565b60405180910390fd5b600073ffffffffffffffffffffffffffffffffffffffff168173ffffffffffffffffffffffffffffffffffffffff1614156128b3576040517f08c379a00000000000000000000000000000000000000000000000000000000081526004016128aa9061486a565b60405180910390fd5b6128bc816130ef565b50565b813373ffffffffffffffffffffffffffffffffffffffff16600260009054906101000a900473ffffffffffffffffffffffffffffffffffffffff1673ffffffffffffffffffffffffffffffffffffffff16636352211e836040518263ffffffff1660e01b8152600401612932919061496e565b60206040518083038186803b15801561294a57600080fd5b505afa15801561295e573d6000803e3d6000fd5b505050506040513d601f19601f82011682018060405250810190612982919061378c565b73ffffffffffffffffffffffffffffffffffffffff16146129d8576040517f08c379a00000000000000000000000000000000000000000000000000000000081526004016129cf906148ea565b60405180910390fd5b83600460009054906101000a900473ffffffffffffffffffffffffffffffffffffffff1673ffffffffffffffffffffffffffffffffffffffff1663a1abffee826040518263ffffffff1660e01b8152600401612a349190614422565b60206040518083038186803b158015612a4c57600080fd5b505afa158015612a60573d6000803e3d6000fd5b505050506040513d601f19601f82011682018060405250810190612a84919061392c565b612ac3576040517f08c379a0000000000000000000000000000000000000000000000000000000008152600401612aba906148aa565b60405180910390fd5b600360009054906101000a900473ffffffffffffffffffffffffffffffffffffffff1673ffffffffffffffffffffffffffffffffffffffff166371499a7b3387878760036040518663ffffffff1660e01b8152600401612b279594939291906144b9565b600060405180830381600087803b158015612b4157600080fd5b505af1158015612b55573d6000803e3d6000fd5b50505050600260009054906101000a900473ffffffffffffffffffffffffffffffffffffffff1673ffffffffffffffffffffffffffffffffffffffff166323b872dd3387876040518463ffffffff1660e01b8152600401612bb89392919061443d565b600060405180830381600087803b158015612bd257600080fd5b505af1158015612be6573d6000803e3d6000fd5b50505050612bf58460016112f1565b7f34f581da021a47386a4d5676be80c680ca6596579bd9f513f3d272b0460359fa338686604051612c289392919061443d565b60405180910390a15050505050565b33600460009054906101000a900473ffffffffffffffffffffffffffffffffffffffff1673ffffffffffffffffffffffffffffffffffffffff1663a1abffee826040518263ffffffff1660e01b8152600401612c939190614422565b60206040518083038186803b158015612cab57600080fd5b505afa158015612cbf573d6000803e3d6000fd5b505050506040513d601f19601f82011682018060405250810190612ce3919061392c565b612d22576040517f08c379a0000000000000000000000000000000000000000000000000000000008152600401612d19906148aa565b60405180910390fd5b600360009054906101000a900473ffffffffffffffffffffffffffffffffffffffff1673ffffffffffffffffffffffffffffffffffffffff1663bd53176b336040518263ffffffff1660e01b8152600401612d7d9190614422565b600060405180830381600087803b158015612d9757600080fd5b505af1158015612dab573d6000803e3d6000fd5b50505050600360009054906101000a900473ffffffffffffffffffffffffffffffffffffffff1673ffffffffffffffffffffffffffffffffffffffff166351685f35336040518263ffffffff1660e01b8152600401612e0a9190614422565b600060405180830381600087803b158015612e2457600080fd5b505af1158015612e38573d6000803e3d6000fd5b50505050600460009054906101000a900473ffffffffffffffffffffffffffffffffffffffff1673ffffffffffffffffffffffffffffffffffffffff1663f849f379336040518263ffffffff1660e01b8152600401612e979190614422565b600060405180830381600087803b158015612eb157600080fd5b505af1158015612ec5573d6000803e3d6000fd5b505050507fe5ca53020b6c0ff2116f624b9ca44e320913151f07ce0ac7186a67a5f6885e3633604051612ef89190614422565b60405180910390a150565b6000600460009054906101000a900473ffffffffffffffffffffffffffffffffffffffff1673ffffffffffffffffffffffffffffffffffffffff16632330f247336040518263ffffffff1660e01b8152600401612f609190614422565b60206040518083038186803b158015612f7857600080fd5b505afa158015612f8c573d6000803e3d6000fd5b505050506040513d601f19601f82011682018060405250810190612fb0919061392c565b9050600360009054906101000a900473ffffffffffffffffffffffffffffffffffffffff1673ffffffffffffffffffffffffffffffffffffffff16635d1e792733838787876040518663ffffffff1660e01b8152600401613015959493929190614513565b600060405180830381600087803b15801561302f57600080fd5b505af1158015613043573d6000803e3d6000fd5b5050505050505050565b600160008373ffffffffffffffffffffffffffffffffffffffff1673ffffffffffffffffffffffffffffffffffffffff1681526020019081526020016000206000828152602001908152602001600020600080820160006101000a81549073ffffffffffffffffffffffffffffffffffffffff021916905560018201600090556002820160006101000a81549060ff021916905550505050565b600033905090565b60008060009054906101000a900473ffffffffffffffffffffffffffffffffffffffff169050816000806101000a81548173ffffffffffffffffffffffffffffffffffffffff021916908373ffffffffffffffffffffffffffffffffffffffff1602179055508173ffffffffffffffffffffffffffffffffffffffff168173ffffffffffffffffffffffffffffffffffffffff167f8be0079c531659141344cd1fd0a4f28419497f9722a3daafe3b4186f6b6457e060405160405180910390a35050565b6040518061014001604052806000815260200160008152602001606081526020016060815260200160008152602001606081526020016060815260200160608152602001606081526020016000600381111561321257613211614c1d565b5b81525090565b604051806080016040528060608152602001606081526020016000151581526020016000151581525090565b600061325761325284614a15565b6149f0565b9050808382526020820190508285602086028201111561327a57613279614c8a565b5b60005b858110156132aa578161329088826133db565b84526020840193506020830192505060018101905061327d565b5050509392505050565b60006132c76132c284614a41565b6149f0565b905080838252602082019050828560208602820111156132ea576132e9614c8a565b5b60005b8581101561333857815167ffffffffffffffff8111156133105761330f614c7b565b5b80860161331d89826134e7565b855260208501945060208401935050506001810190506132ed565b5050509392505050565b600061335561335084614a6d565b6149f0565b90508281526020810184848401111561337157613370614c8f565b5b61337c848285614baa565b509392505050565b600061339761339284614a6d565b6149f0565b9050828152602081018484840111156133b3576133b2614c8f565b5b6133be848285614bb9565b509392505050565b6000813590506133d581614e7a565b92915050565b6000815190506133ea81614e7a565b92915050565b600082601f83011261340557613404614c7b565b5b8151613415848260208601613244565b91505092915050565b600082601f83011261343357613432614c7b565b5b81516134438482602086016132b4565b91505092915050565b60008135905061345b81614e91565b92915050565b60008151905061347081614e91565b92915050565b60008151905061348581614ea8565b92915050565b600082601f8301126134a05761349f614c7b565b5b81356134b0848260208601613342565b91505092915050565b600082601f8301126134ce576134cd614c7b565b5b81516134de848260208601613384565b91505092915050565b600061014082840312156134fe576134fd614c80565b5b6135096101406149f0565b905060006135198482850161374a565b600083015250602061352d8482850161374a565b602083015250604082015167ffffffffffffffff81111561355157613550614c85565b5b61355d848285016134b9565b604083015250606082015167ffffffffffffffff81111561358157613580614c85565b5b61358d848285016134b9565b60608301525060806135a18482850161374a565b60808301525060a082015167ffffffffffffffff8111156135c5576135c4614c85565b5b6135d1848285016134b9565b60a08301525060c082015167ffffffffffffffff8111156135f5576135f4614c85565b5b613601848285016133f0565b60c08301525060e082015167ffffffffffffffff81111561362557613624614c85565b5b613631848285016134b9565b60e08301525061010082015167ffffffffffffffff81111561365657613655614c85565b5b613662848285016134b9565b6101008301525061012061367884828501613476565b6101208301525092915050565b60006080828403121561369b5761369a614c80565b5b6136a560806149f0565b9050600082015167ffffffffffffffff8111156136c5576136c4614c85565b5b6136d1848285016134b9565b600083015250602082015167ffffffffffffffff8111156136f5576136f4614c85565b5b613701848285016134b9565b602083015250604061371584828501613461565b604083015250606061372984828501613461565b60608301525092915050565b60008135905061374481614eb8565b92915050565b60008151905061375981614eb8565b92915050565b60006020828403121561377557613774614c99565b5b6000613783848285016133c6565b91505092915050565b6000602082840312156137a2576137a1614c99565b5b60006137b0848285016133db565b91505092915050565b600080600080608085870312156137d3576137d2614c99565b5b60006137e1878288016133c6565b945050602085013567ffffffffffffffff81111561380257613801614c94565b5b61380e8782880161348b565b935050604085013567ffffffffffffffff81111561382f5761382e614c94565b5b61383b8782880161348b565b925050606085013567ffffffffffffffff81111561385c5761385b614c94565b5b6138688782880161348b565b91505092959194509250565b60008060006060848603121561388d5761388c614c99565b5b600061389b868287016133c6565b93505060206138ac86828701613735565b925050604084013567ffffffffffffffff8111156138cd576138cc614c94565b5b6138d98682870161348b565b9150509250925092565b6000602082840312156138f9576138f8614c99565b5b600082015167ffffffffffffffff81111561391757613916614c94565b5b6139238482850161341e565b91505092915050565b60006020828403121561394257613941614c99565b5b600061395084828501613461565b91505092915050565b60006020828403121561396f5761396e614c99565b5b600082013567ffffffffffffffff81111561398d5761398c614c94565b5b6139998482850161348b565b91505092915050565b6000602082840312156139b8576139b7614c99565b5b600082015167ffffffffffffffff8111156139d6576139d5614c94565b5b6139e2848285016134b9565b91505092915050565b600080600060608486031215613a0457613a03614c99565b5b600084013567ffffffffffffffff811115613a2257613a21614c94565b5b613a2e8682870161348b565b935050602084013567ffffffffffffffff811115613a4f57613a4e614c94565b5b613a5b8682870161348b565b925050604084013567ffffffffffffffff811115613a7c57613a7b614c94565b5b613a888682870161348b565b9150509250925092565b600080600080600080600060e0888a031215613ab157613ab0614c99565b5b600088013567ffffffffffffffff811115613acf57613ace614c94565b5b613adb8a828b0161348b565b975050602088013567ffffffffffffffff811115613afc57613afb614c94565b5b613b088a828b0161348b565b965050604088013567ffffffffffffffff811115613b2957613b28614c94565b5b613b358a828b0161348b565b9550506060613b468a828b01613735565b945050608088013567ffffffffffffffff811115613b6757613b66614c94565b5b613b738a828b0161348b565b93505060a088013567ffffffffffffffff811115613b9457613b93614c94565b5b613ba08a828b0161348b565b92505060c088013567ffffffffffffffff811115613bc157613bc0614c94565b5b613bcd8a828b0161348b565b91505092959891949750929550565b600060208284031215613bf257613bf1614c99565b5b600082015167ffffffffffffffff811115613c1057613c0f614c94565b5b613c1c848285016134e7565b91505092915050565b600060208284031215613c3b57613c3a614c99565b5b600082015167ffffffffffffffff811115613c5957613c58614c94565b5b613c6584828501613685565b91505092915050565b600060208284031215613c8457613c83614c99565b5b6000613c9284828501613735565b91505092915050565b600060208284031215613cb157613cb0614c99565b5b6000613cbf8482850161374a565b91505092915050565b600080600060608486031215613ce157613ce0614c99565b5b6000613cef86828701613735565b9350506020613d00868287016133c6565b925050604084013567ffffffffffffffff811115613d2157613d20614c94565b5b613d2d8682870161348b565b9150509250925092565b60008060408385031215613d4e57613d4d614c99565b5b6000613d5c85828601613735565b9250506020613d6d8582860161344c565b9150509250929050565b600080600060608486031215613d9057613d8f614c99565b5b6000613d9e86828701613735565b935050602084013567ffffffffffffffff811115613dbf57613dbe614c94565b5b613dcb8682870161348b565b9250506040613ddc868287016133c6565b9150509250925092565b600080600060608486031215613dff57613dfe614c99565b5b6000613e0d86828701613735565b935050602084013567ffffffffffffffff811115613e2e57613e2d614c94565b5b613e3a8682870161348b565b9250506040613e4b8682870161344c565b9150509250925092565b600080600060608486031215613e6e57613e6d614c99565b5b6000613e7c86828701613735565b935050602084013567ffffffffffffffff811115613e9d57613e9c614c94565b5b613ea98682870161348b565b925050604084013567ffffffffffffffff811115613eca57613ec9614c94565b5b613ed68682870161348b565b9150509250925092565b6000613eec8383613f0c565b60208301905092915050565b6000613f0483836141a0565b905092915050565b613f1581614b3d565b82525050565b613f2481614b3d565b82525050565b6000613f3582614abe565b613f3f8185614af9565b9350613f4a83614a9e565b8060005b83811015613f7b578151613f628882613ee0565b9750613f6d83614adf565b925050600181019050613f4e565b5085935050505092915050565b6000613f9382614ac9565b613f9d8185614b0a565b935083602082028501613faf85614aae565b8060005b85811015613feb5784840389528151613fcc8582613ef8565b9450613fd783614aec565b925060208a01995050600181019050613fb3565b50829750879550505050505092915050565b61400681614b4f565b82525050565b61401581614b4f565b82525050565b61402481614b98565b82525050565b61403381614b98565b82525050565b600061404482614ad4565b61404e8185614b1b565b935061405e818560208601614bb9565b61406781614c9e565b840191505092915050565b600061407d82614ad4565b6140878185614b2c565b9350614097818560208601614bb9565b6140a081614c9e565b840191505092915050565b60006140b8602683614b2c565b91506140c382614caf565b604082019050919050565b60006140db602b83614b2c565b91506140e682614cfe565b604082019050919050565b60006140fe602b83614b2c565b915061410982614d4d565b604082019050919050565b6000614121602083614b2c565b915061412c82614d9c565b602082019050919050565b6000614144602e83614b2c565b915061414f82614dc5565b604082019050919050565b6000614167603183614b2c565b915061417282614e14565b604082019050919050565b600061418a600083614b2c565b915061419582614e63565b600082019050919050565b6000610140830160008301516141b96000860182614404565b5060208301516141cc6020860182614404565b50604083015184820360408601526141e48282614039565b915050606083015184820360608601526141fe8282614039565b91505060808301516142136080860182614404565b5060a083015184820360a086015261422b8282614039565b91505060c083015184820360c08601526142458282613f2a565b91505060e083015184820360e086015261425f8282614039565b91505061010083015184820361010086015261427b8282614039565b91505061012083015161429261012086018261401b565b508091505092915050565b6000610140830160008301516142b66000860182614404565b5060208301516142c96020860182614404565b50604083015184820360408601526142e18282614039565b915050606083015184820360608601526142fb8282614039565b91505060808301516143106080860182614404565b5060a083015184820360a08601526143288282614039565b91505060c083015184820360c08601526143428282613f2a565b91505060e083015184820360e086015261435c8282614039565b9150506101008301518482036101008601526143788282614039565b91505061012083015161438f61012086018261401b565b508091505092915050565b600060808301600083015184820360008601526143b78282614039565b915050602083015184820360208601526143d18282614039565b91505060408301516143e66040860182613ffd565b5060608301516143f96060860182613ffd565b508091505092915050565b61440d81614b8e565b82525050565b61441c81614b8e565b82525050565b60006020820190506144376000830184613f1b565b92915050565b60006060820190506144526000830186613f1b565b61445f6020830185613f1b565b61446c6040830184614413565b949350505050565b60006080820190506144896000830187613f1b565b6144966020830186613f1b565b6144a36040830185614413565b6144b0606083018461400c565b95945050505050565b600060a0820190506144ce6000830188613f1b565b6144db6020830187613f1b565b6144e86040830186614413565b81810360608301526144fa8185614072565b9050614509608083018461402a565b9695505050505050565b600060a0820190506145286000830188613f1b565b614535602083018761400c565b6145426040830186613f1b565b61454f6060830185614413565b81810360808301526145618184614072565b90509695505050505050565b600060a0820190506145826000830188613f1b565b61458f602083018761402a565b61459c604083018661402a565b6145a96060830185614413565b81810360808301526145bb8184614072565b90509695505050505050565b600060a0820190506145dc6000830187613f1b565b6145e9602083018661402a565b6145f6604083018561402a565b6146036060830184614413565b81810360808301526146148161417d565b905095945050505050565b60006060820190506146346000830186613f1b565b614641602083018561402a565b61464e6040830184614413565b949350505050565b600060408201905061466b6000830185613f1b565b818103602083015261467d8184614072565b90509392505050565b600060608201905061469b6000830186613f1b565b81810360208301526146ad8185614072565b905081810360408301526146c18184614072565b9050949350505050565b60006080820190506146e06000830187613f1b565b81810360208301526146f28186614072565b905081810360408301526147068185614072565b9050818103606083015261471a8184614072565b905095945050505050565b600060408201905061473a6000830185613f1b565b6147476020830184614413565b9392505050565b60006060820190506147636000830186613f1b565b6147706020830185614413565b61477d604083018461400c565b949350505050565b60006101008201905061479b600083018b613f1b565b6147a8602083018a614413565b81810360408301526147ba8189614072565b905081810360608301526147ce8188614072565b90506147dd6080830187614413565b81810360a08301526147ef8186614072565b905081810360c08301526148038185614072565b905081810360e08301526148178184614072565b90509998505050505050505050565b600060208201905081810360008301526148408184613f88565b905092915050565b600060208201905081810360008301526148628184614072565b905092915050565b60006020820190508181036000830152614883816140ab565b9050919050565b600060208201905081810360008301526148a3816140ce565b9050919050565b600060208201905081810360008301526148c3816140f1565b9050919050565b600060208201905081810360008301526148e381614114565b9050919050565b6000602082019050818103600083015261490381614137565b9050919050565b600060208201905081810360008301526149238161415a565b9050919050565b60006020820190508181036000830152614944818461429d565b905092915050565b60006020820190508181036000830152614966818461439a565b905092915050565b60006020820190506149836000830184614413565b92915050565b600060408201905061499e6000830185614413565b6149ab6020830184613f1b565b9392505050565b60006060820190506149c76000830186614413565b81810360208301526149d98185614072565b90506149e86040830184613f1b565b949350505050565b60006149fa614a0b565b9050614a068282614bec565b919050565b6000604051905090565b600067ffffffffffffffff821115614a3057614a2f614c4c565b5b602082029050602081019050919050565b600067ffffffffffffffff821115614a5c57614a5b614c4c565b5b602082029050602081019050919050565b600067ffffffffffffffff821115614a8857614a87614c4c565b5b614a9182614c9e565b9050602081019050919050565b6000819050602082019050919050565b6000819050602082019050919050565b600081519050919050565b600081519050919050565b600081519050919050565b6000602082019050919050565b6000602082019050919050565b600082825260208201905092915050565b600082825260208201905092915050565b600082825260208201905092915050565b600082825260208201905092915050565b6000614b4882614b6e565b9050919050565b60008115159050919050565b6000819050614b6982614e66565b919050565b600073ffffffffffffffffffffffffffffffffffffffff82169050919050565b6000819050919050565b6000614ba382614b5b565b9050919050565b82818337600083830152505050565b60005b83811015614bd7578082015181840152602081019050614bbc565b83811115614be6576000848401525b50505050565b614bf582614c9e565b810181811067ffffffffffffffff82111715614c1457614c13614c4c565b5b80604052505050565b7f4e487b7100000000000000000000000000000000000000000000000000000000600052602160045260246000fd5b7f4e487b7100000000000000000000000000000000000000000000000000000000600052604160045260246000fd5b600080fd5b600080fd5b600080fd5b600080fd5b600080fd5b600080fd5b600080fd5b6000601f19601f8301169050919050565b7f4f776e61626c653a206e6577206f776e657220697320746865207a65726f206160008201527f6464726573730000000000000000000000000000000000000000000000000000602082015250565b7f536176446f633a204c612064656d616e6465206465206365727469666963617460008201527f696f6e206578697374652e000000000000000000000000000000000000000000602082015250565b7f446f634d616e616765723a204365747465207574696c69736174657572206e2760008201527f657869737465207061732e000000000000000000000000000000000000000000602082015250565b7f4f776e61626c653a2063616c6c6572206973206e6f7420746865206f776e6572600082015250565b7f546f6b656e4d616e616765723a20436574204e4654206e6520766f757320617060008201527f7061727469656e74207061732021000000000000000000000000000000000000602082015250565b7f536176446f633a204c612064656d616e6465206465206365727469666963617460008201527f696f6e206e27657869737465207061732e000000000000000000000000000000602082015250565b50565b60048110614e7757614e76614c1d565b5b50565b614e8381614b3d565b8114614e8e57600080fd5b50565b614e9a81614b4f565b8114614ea557600080fd5b50565b60048110614eb557600080fd5b50565b614ec181614b8e565b8114614ecc57600080fd5b5056fea264697066735822122081ca77c6ff01f19e0a318eba055dc692e127ef5001547554701cad79358cca8464736f6c63430008060033",
  "immutableReferences": {},
  "source": "//SPDX-License-Identifier: MIT\n\npragma solidity 0.8.6;\n\nimport \"./AccountManager.sol\";\nimport \"@openzeppelin/contracts/access/Ownable.sol\";\nimport \"./DocManager.sol\";\nimport \"./SaveDocToken.sol\";\nimport \"./SaveDocStruct.sol\";\n\n\ncontract SaveDoc is Ownable, SaveDocStruct\n{\n    mapping(address => mapping(uint256 => CertificationRequest)) private requests;\n    SaveDocToken private saveDocToken;\n    DocManager private docManager;\n    AccountManager private accountManager;\n\n\n    constructor(DocManager _docManager, SaveDocToken _saveDocToken, AccountManager _accountManager)\n    {\n        docManager = _docManager;\n        saveDocToken = _saveDocToken;\n        accountManager = _accountManager;\n    }\n\n    event Subscribe(address newUser, string name, string pubkey);\n    event SubscribeAuthority(address newUser, string pubkey);\n    event ChangeUsername(address user, string newUsername);\n    event Unsubcribe(address user);\n    event SecureDocument(address user, uint256 tokenID);\n    event DeleteDocumment(address ownerDoc, uint256 tokenID, bool forTransfer);\n    event TransferDocument(address from, address to, uint256 tokenID);\n    event ShareDoc(address from, address to, uint256 tokenID);\n    event AcceptTransferDoc(address newOwner, uint256 tokenID);\n    event DeleteMyDocCopy(address ownerDoc, uint256 tokenID);\n    event RequestCertification(address applicant, uint256 tokenID);\n    event AcceptCertificationRequest(address certifying, address applicant, uint256 tokenID, bool keepCopy);\n    event RejectCertificationRequest(address certifying, address applicant, uint256 tokenID);\n\n    modifier isMyToken(uint256 tokenID)\n    {\n        require(saveDocToken.ownerOf(tokenID) == msg.sender, \"TokenManager: Cet NFT ne vous appartient pas !\");\n        _;\n    }\n\n    modifier userExist(address addressUser)\n    {\n        require(accountManager.checkIfUserExist(addressUser), \"DocManager: Cette utilisateur n'existe pas.\");\n        _;\n    }\n\n    modifier requestExist(address _certifying, uint256 _tokenID)\n    {\n        require(requests[_certifying][_tokenID].exist, \"SavDoc: La demande de certification n'existe pas.\");\n        _;\n    }\n\n    modifier requestNotExist(address _certifying, uint256 _tokenID)\n    {\n        require(!requests[_certifying][_tokenID].exist, \"SavDoc: La demande de certification existe.\");\n        _;\n    }\n\n    function subscribe(string memory name, string memory pubKey, string memory passwordMaster) external\n    {\n        accountManager.addUser(msg.sender, name, pubKey, passwordMaster);\n        emit Subscribe(msg.sender, name, pubKey);\n    }\n\n    function subscribeAuthority(address authority,string memory name, string memory pubKey, string memory passwordMaster) onlyOwner() external\n    {\n        //TODO\n        accountManager.addUser(authority, name, pubKey, passwordMaster);\n        emit SubscribeAuthority(authority, pubKey);\n    }\n\n    function viewMyProfil() view external returns(User memory)\n    {\n        return accountManager.getUser(msg.sender);\n    }\n\n    function viewProfil(address _address) view external returns(User memory)\n    {\n        return accountManager.getUser(_address);\n    }\n\n    function getMyPasswordMaster() view external returns(string memory)\n    {\n        return accountManager.getPasswordMaster(msg.sender);\n    }\n\n    function changeMyName(string memory name) external\n    {\n        accountManager.setUser(msg.sender, name);\n        emit ChangeUsername(msg.sender, name);\n    }\n\n    function unsubscribe() external userExist(msg.sender)\n    {\n        // Voir comment supprimer tout ces fichiers\n        docManager.deleteAllDocs(msg.sender);\n        docManager.delAllCopyDoc(msg.sender);\n        accountManager.delUser(msg.sender);\n        emit Unsubcribe(msg.sender);\n    }\n\n    function secureDocument(string memory tokenName, string memory tokenURI, string memory tokenMime, uint256 tokenLength, string memory filePath, string memory passwordEncrypted, string memory hashNFT) userExist(msg.sender) external returns (Document memory)\n    {\n        uint256 tokenID;\n        Document memory document;\n\n        tokenID = saveDocToken.mint(msg.sender, tokenURI);\n        document = docManager.createDoc(msg.sender, tokenID, tokenName, tokenMime, tokenLength, filePath, passwordEncrypted, hashNFT);\n        emit SecureDocument(msg.sender, tokenID);\n\n       return document;\n    }\n\n    // TODO Review\n    function delMyDocument(uint256 tokenID, bool forTransfer) isMyToken(tokenID) public\n    {\n        docManager.deleteDoc(msg.sender, tokenID);\n\n        if (!forTransfer)\n        {\n            saveDocToken.burn(tokenID, msg.sender);\n        }\n        emit DeleteDocumment(msg.sender, tokenID, forTransfer);\n    }\n\n    function getTokenURI(uint256 tokenID) external view isMyToken(tokenID) returns(string memory)\n    {\n        return saveDocToken.tokenURI(tokenID);\n    }\n\n    function transferDoc(address to, uint256 tokenID, string memory tokenURITmp) isMyToken(tokenID) userExist(to) external\n    {\n        docManager.createCopyDoc(msg.sender, to, tokenID, tokenURITmp, TypeDoc.CopyPendingTransfer);\n        saveDocToken.transferFrom(msg.sender, to, tokenID);\n        delMyDocument(tokenID, true);\n        emit TransferDocument(msg.sender, to, tokenID);\n    }\n\n    function shareDoc(uint256 tokenID, address to, string memory tokenURI) isMyToken(tokenID) userExist(to) external\n    {\n        docManager.createCopyDoc(msg.sender, to, tokenID, tokenURI, TypeDoc.CopyShared);\n        emit ShareDoc(msg.sender, to, tokenID);\n    }\n\n    function acceptNewDoc(uint256 tokenID, string memory newTokenURI, string memory passwordEncrypted) isMyToken(tokenID) external\n    {\n        // check si msg.sender a bien dja une copie du Document\n        docManager.convertTypeDoc(msg.sender, TypeDoc.CopyPendingTransfer, TypeDoc.Original, tokenID, passwordEncrypted);\n        saveDocToken.setTokenURI(tokenID, newTokenURI, msg.sender);\n        emit AcceptTransferDoc(msg.sender, tokenID);\n    }\n\n    function delCopyDocShared(uint tokenID) external\n    {\n        docManager.delCopyDoc(msg.sender, TypeDoc.CopyShared, docManager.getIndexNFT(msg.sender, TypeDoc.CopyShared, tokenID));\n        emit DeleteMyDocCopy(msg.sender, tokenID);\n    }\n\n    function requestCertification(uint256 _tokenID, string memory _tokenURI, address _certifying) isMyToken(_tokenID) userExist(_certifying) requestNotExist(_certifying, _tokenID) external\n    {\n        docManager.createCopyDoc(msg.sender, _certifying, _tokenID, _tokenURI, TypeDoc.CopyCertified);\n\n        requests[_certifying][_tokenID].applicant = msg.sender;\n        requests[_certifying][_tokenID].tokenID = _tokenID;\n        requests[_certifying][_tokenID].exist = true;\n\n        emit RequestCertification(requests[_certifying][_tokenID].applicant, requests[_certifying][_tokenID].tokenID);\n    }\n\n    function viewMyDocs() view external returns(Document[] memory)\n    {\n        return docManager.getDocs(msg.sender);\n    }\n\n    function viewMyCopyDocs() view external returns(Document[] memory)\n    {\n        return docManager.getAllCopyShared(msg.sender);\n    }\n\n    function viewDocPendingTransfer() view external returns(Document[] memory)\n    {\n        return docManager.getAllCopyPendingTransfer(msg.sender);\n    }\n\n    function viewDocCertified() view external returns(Document[] memory)\n    {\n        return docManager.getAllCopyCertified(msg.sender);\n    }\n\n\n    function delRequest(address _certifying, uint256 _tokenID) private\n    {\n        delete requests[_certifying][_tokenID];\n    }\n\n    function certifyDocument(address applicant, uint256 tokenID, string memory hashNFT) private\n    {\n        bool isAuthority;\n\n        isAuthority = accountManager.isAuthority(msg.sender);\n        docManager.certify(msg.sender, isAuthority, applicant, tokenID, hashNFT);\n    }\n\n    function acceptCertificationRequest(uint256 _tokenID, string memory _hashNFT, bool _keepCopyDoc) requestExist(msg.sender, _tokenID) public\n    {\n        // check si msg.sender a bien dja une copie du Document\n        CertificationRequest memory request = requests[msg.sender][_tokenID];\n        certifyDocument(request.applicant, request.tokenID, _hashNFT);\n        delRequest(msg.sender, request.tokenID);\n\n        if (_keepCopyDoc) {\n            docManager.convertTypeDoc(msg.sender, TypeDoc.CopyCertified, TypeDoc.CopyShared, request.tokenID, \"\");\n        } else {\n            docManager.delCopyDoc(msg.sender, TypeDoc.CopyCertified, docManager.getIndexNFT(msg.sender, TypeDoc.CopyCertified, request.tokenID));\n        }\n\n        emit AcceptCertificationRequest(msg.sender, request.applicant, request.tokenID, _keepCopyDoc);\n    }\n\n    function rejectCertificationRequest(uint256 _tokenID) requestExist(msg.sender, _tokenID) external\n    {\n        // check si msg.sender  bien dja une copie du Document\n        CertificationRequest memory request = requests[msg.sender][_tokenID];\n        delRequest(msg.sender, _tokenID);\n        docManager.delCopyDoc(msg.sender, TypeDoc.CopyCertified, docManager.getIndexNFT(msg.sender, TypeDoc.CopyCertified, request.tokenID));\n\n        emit RejectCertificationRequest(msg.sender, request.applicant, request.tokenID);\n    }\n}\n",
  "sourcePath": "/home/oumar/projects/SAV-Doc/contracts/SaveDoc.sol",
  "compiler": {
    "name": "solc",
    "version": "0.8.6+commit.11564f7e.Emscripten.clang"
  },
  "schemaVersion": "3.4.1",
  "updatedAt": "2021-08-02T21:55:44.502Z",
  "networkType": "ethereum",
  "devdoc": {
    "kind": "dev",
    "methods": {
      "owner()": {
        "details": "Returns the address of the current owner."
      },
      "renounceOwnership()": {
        "details": "Leaves the contract without owner. It will not be possible to call `onlyOwner` functions anymore. Can only be called by the current owner. NOTE: Renouncing ownership will leave the contract without an owner, thereby removing any functionality that is only available to the owner."
      },
      "transferOwnership(address)": {
        "details": "Transfers ownership of the contract to a new account (`newOwner`). Can only be called by the current owner."
      }
    },
    "version": 1
  },
  "userdoc": {
    "kind": "user",
    "methods": {},
    "version": 1
  }
}