{
  "contractName": "SaveDoc",
  "abi": [
    {
      "inputs": [
        {
          "internalType": "contract DocManager",
          "name": "_docManager",
          "type": "address"
        },
        {
          "internalType": "contract SaveDocToken",
          "name": "_saveDocToken",
          "type": "address"
        },
        {
          "internalType": "contract AccountManager",
          "name": "_accountManager",
          "type": "address"
        }
      ],
      "stateMutability": "nonpayable",
      "type": "constructor"
    },
    {
      "anonymous": false,
      "inputs": [
        {
          "indexed": false,
          "internalType": "address",
          "name": "certifying",
          "type": "address"
        },
        {
          "indexed": false,
          "internalType": "address",
          "name": "applicant",
          "type": "address"
        },
        {
          "indexed": false,
          "internalType": "uint256",
          "name": "tokenID",
          "type": "uint256"
        },
        {
          "indexed": false,
          "internalType": "bool",
          "name": "keepCopy",
          "type": "bool"
        }
      ],
      "name": "AcceptCertificationRequest",
      "type": "event"
    },
    {
      "anonymous": false,
      "inputs": [
        {
          "indexed": false,
          "internalType": "address",
          "name": "newOwner",
          "type": "address"
        },
        {
          "indexed": false,
          "internalType": "uint256",
          "name": "tokenID",
          "type": "uint256"
        }
      ],
      "name": "AcceptTransferDoc",
      "type": "event"
    },
    {
      "anonymous": false,
      "inputs": [
        {
          "indexed": false,
          "internalType": "address",
          "name": "user",
          "type": "address"
        },
        {
          "indexed": false,
          "internalType": "string",
          "name": "newUsername",
          "type": "string"
        }
      ],
      "name": "ChangeUsername",
      "type": "event"
    },
    {
      "anonymous": false,
      "inputs": [
        {
          "indexed": false,
          "internalType": "address",
          "name": "ownerDoc",
          "type": "address"
        },
        {
          "indexed": false,
          "internalType": "uint256",
          "name": "tokenID",
          "type": "uint256"
        },
        {
          "indexed": false,
          "internalType": "bool",
          "name": "forTransfer",
          "type": "bool"
        }
      ],
      "name": "DeleteDocumment",
      "type": "event"
    },
    {
      "anonymous": false,
      "inputs": [
        {
          "indexed": false,
          "internalType": "address",
          "name": "ownerDoc",
          "type": "address"
        },
        {
          "indexed": false,
          "internalType": "uint256",
          "name": "tokenID",
          "type": "uint256"
        }
      ],
      "name": "DeleteMyDocCopy",
      "type": "event"
    },
    {
      "anonymous": false,
      "inputs": [
        {
          "indexed": true,
          "internalType": "address",
          "name": "previousOwner",
          "type": "address"
        },
        {
          "indexed": true,
          "internalType": "address",
          "name": "newOwner",
          "type": "address"
        }
      ],
      "name": "OwnershipTransferred",
      "type": "event"
    },
    {
      "anonymous": false,
      "inputs": [
        {
          "indexed": false,
          "internalType": "address",
          "name": "certifying",
          "type": "address"
        },
        {
          "indexed": false,
          "internalType": "address",
          "name": "applicant",
          "type": "address"
        },
        {
          "indexed": false,
          "internalType": "uint256",
          "name": "tokenID",
          "type": "uint256"
        }
      ],
      "name": "RejectCertificationRequest",
      "type": "event"
    },
    {
      "anonymous": false,
      "inputs": [
        {
          "indexed": false,
          "internalType": "address",
          "name": "applicant",
          "type": "address"
        },
        {
          "indexed": false,
          "internalType": "uint256",
          "name": "tokenID",
          "type": "uint256"
        }
      ],
      "name": "RequestCertification",
      "type": "event"
    },
    {
      "anonymous": false,
      "inputs": [
        {
          "indexed": false,
          "internalType": "address",
          "name": "user",
          "type": "address"
        },
        {
          "indexed": false,
          "internalType": "uint256",
          "name": "tokenID",
          "type": "uint256"
        }
      ],
      "name": "SecureDocument",
      "type": "event"
    },
    {
      "anonymous": false,
      "inputs": [
        {
          "indexed": false,
          "internalType": "address",
          "name": "from",
          "type": "address"
        },
        {
          "indexed": false,
          "internalType": "address",
          "name": "to",
          "type": "address"
        },
        {
          "indexed": false,
          "internalType": "uint256",
          "name": "tokenID",
          "type": "uint256"
        }
      ],
      "name": "ShareDoc",
      "type": "event"
    },
    {
      "anonymous": false,
      "inputs": [
        {
          "indexed": false,
          "internalType": "address",
          "name": "newUser",
          "type": "address"
        },
        {
          "indexed": false,
          "internalType": "string",
          "name": "name",
          "type": "string"
        },
        {
          "indexed": false,
          "internalType": "string",
          "name": "pubkey",
          "type": "string"
        }
      ],
      "name": "Subscribe",
      "type": "event"
    },
    {
      "anonymous": false,
      "inputs": [
        {
          "indexed": false,
          "internalType": "address",
          "name": "newUser",
          "type": "address"
        },
        {
          "indexed": false,
          "internalType": "string",
          "name": "pubkey",
          "type": "string"
        }
      ],
      "name": "SubscribeAuthority",
      "type": "event"
    },
    {
      "anonymous": false,
      "inputs": [
        {
          "indexed": false,
          "internalType": "address",
          "name": "from",
          "type": "address"
        },
        {
          "indexed": false,
          "internalType": "address",
          "name": "to",
          "type": "address"
        },
        {
          "indexed": false,
          "internalType": "uint256",
          "name": "tokenID",
          "type": "uint256"
        }
      ],
      "name": "TransferDocument",
      "type": "event"
    },
    {
      "anonymous": false,
      "inputs": [
        {
          "indexed": false,
          "internalType": "address",
          "name": "user",
          "type": "address"
        }
      ],
      "name": "Unsubcribe",
      "type": "event"
    },
    {
      "inputs": [],
      "name": "owner",
      "outputs": [
        {
          "internalType": "address",
          "name": "",
          "type": "address"
        }
      ],
      "stateMutability": "view",
      "type": "function",
      "constant": true
    },
    {
      "inputs": [],
      "name": "renounceOwnership",
      "outputs": [],
      "stateMutability": "nonpayable",
      "type": "function"
    },
    {
      "inputs": [
        {
          "internalType": "address",
          "name": "newOwner",
          "type": "address"
        }
      ],
      "name": "transferOwnership",
      "outputs": [],
      "stateMutability": "nonpayable",
      "type": "function"
    },
    {
      "inputs": [
        {
          "internalType": "string",
          "name": "name",
          "type": "string"
        },
        {
          "internalType": "string",
          "name": "pubKey",
          "type": "string"
        },
        {
          "internalType": "string",
          "name": "passwordMaster",
          "type": "string"
        }
      ],
      "name": "subscribe",
      "outputs": [],
      "stateMutability": "nonpayable",
      "type": "function"
    },
    {
      "inputs": [
        {
          "internalType": "address",
          "name": "authority",
          "type": "address"
        },
        {
          "internalType": "string",
          "name": "name",
          "type": "string"
        },
        {
          "internalType": "string",
          "name": "pubKey",
          "type": "string"
        },
        {
          "internalType": "string",
          "name": "passwordMaster",
          "type": "string"
        }
      ],
      "name": "subscribeAuthority",
      "outputs": [],
      "stateMutability": "nonpayable",
      "type": "function"
    },
    {
      "inputs": [],
      "name": "viewMyProfil",
      "outputs": [
        {
          "components": [
            {
              "internalType": "string",
              "name": "name",
              "type": "string"
            },
            {
              "internalType": "string",
              "name": "publicKey",
              "type": "string"
            },
            {
              "internalType": "bool",
              "name": "isAuthority",
              "type": "bool"
            },
            {
              "internalType": "bool",
              "name": "exist",
              "type": "bool"
            }
          ],
          "internalType": "struct SaveDocStruct.User",
          "name": "",
          "type": "tuple"
        }
      ],
      "stateMutability": "view",
      "type": "function",
      "constant": true
    },
    {
      "inputs": [
        {
          "internalType": "address",
          "name": "_address",
          "type": "address"
        }
      ],
      "name": "viewProfil",
      "outputs": [
        {
          "components": [
            {
              "internalType": "string",
              "name": "name",
              "type": "string"
            },
            {
              "internalType": "string",
              "name": "publicKey",
              "type": "string"
            },
            {
              "internalType": "bool",
              "name": "isAuthority",
              "type": "bool"
            },
            {
              "internalType": "bool",
              "name": "exist",
              "type": "bool"
            }
          ],
          "internalType": "struct SaveDocStruct.User",
          "name": "",
          "type": "tuple"
        }
      ],
      "stateMutability": "view",
      "type": "function",
      "constant": true
    },
    {
      "inputs": [],
      "name": "getMyPasswordMaster",
      "outputs": [
        {
          "internalType": "string",
          "name": "",
          "type": "string"
        }
      ],
      "stateMutability": "view",
      "type": "function",
      "constant": true
    },
    {
      "inputs": [
        {
          "internalType": "string",
          "name": "name",
          "type": "string"
        }
      ],
      "name": "changeMyName",
      "outputs": [],
      "stateMutability": "nonpayable",
      "type": "function"
    },
    {
      "inputs": [],
      "name": "unsubscribe",
      "outputs": [],
      "stateMutability": "nonpayable",
      "type": "function"
    },
    {
      "inputs": [
        {
          "internalType": "string",
          "name": "tokenName",
          "type": "string"
        },
        {
          "internalType": "string",
          "name": "tokenURI",
          "type": "string"
        },
        {
          "internalType": "string",
          "name": "tokenMime",
          "type": "string"
        },
        {
          "internalType": "uint256",
          "name": "tokenLength",
          "type": "uint256"
        },
        {
          "internalType": "string",
          "name": "filePath",
          "type": "string"
        },
        {
          "internalType": "string",
          "name": "passwordEncrypted",
          "type": "string"
        },
        {
          "internalType": "string",
          "name": "hashNFT",
          "type": "string"
        }
      ],
      "name": "secureDocument",
      "outputs": [
        {
          "components": [
            {
              "internalType": "uint256",
              "name": "tokenID",
              "type": "uint256"
            },
            {
              "internalType": "uint256",
              "name": "fileSize",
              "type": "uint256"
            },
            {
              "internalType": "string",
              "name": "filename",
              "type": "string"
            },
            {
              "internalType": "string",
              "name": "fileMimeType",
              "type": "string"
            },
            {
              "internalType": "uint256",
              "name": "dateAdd",
              "type": "uint256"
            },
            {
              "internalType": "string",
              "name": "filePath",
              "type": "string"
            },
            {
              "internalType": "address[]",
              "name": "certifying",
              "type": "address[]"
            },
            {
              "internalType": "string",
              "name": "tokenURI",
              "type": "string"
            },
            {
              "internalType": "string",
              "name": "passwordEncrypted",
              "type": "string"
            },
            {
              "internalType": "enum SaveDocStruct.TypeDoc",
              "name": "typeNft",
              "type": "uint8"
            }
          ],
          "internalType": "struct SaveDocStruct.Document",
          "name": "",
          "type": "tuple"
        }
      ],
      "stateMutability": "nonpayable",
      "type": "function"
    },
    {
      "inputs": [
        {
          "internalType": "uint256",
          "name": "tokenID",
          "type": "uint256"
        },
        {
          "internalType": "bool",
          "name": "forTransfer",
          "type": "bool"
        }
      ],
      "name": "delMyDocument",
      "outputs": [],
      "stateMutability": "nonpayable",
      "type": "function"
    },
    {
      "inputs": [
        {
          "internalType": "uint256",
          "name": "tokenID",
          "type": "uint256"
        }
      ],
      "name": "getTokenURI",
      "outputs": [
        {
          "internalType": "string",
          "name": "",
          "type": "string"
        }
      ],
      "stateMutability": "view",
      "type": "function",
      "constant": true
    },
    {
      "inputs": [
        {
          "internalType": "address",
          "name": "to",
          "type": "address"
        },
        {
          "internalType": "uint256",
          "name": "tokenID",
          "type": "uint256"
        },
        {
          "internalType": "string",
          "name": "tokenURITmp",
          "type": "string"
        }
      ],
      "name": "transferDoc",
      "outputs": [],
      "stateMutability": "nonpayable",
      "type": "function"
    },
    {
      "inputs": [
        {
          "internalType": "uint256",
          "name": "tokenID",
          "type": "uint256"
        },
        {
          "internalType": "address",
          "name": "to",
          "type": "address"
        },
        {
          "internalType": "string",
          "name": "tokenURI",
          "type": "string"
        }
      ],
      "name": "shareDoc",
      "outputs": [],
      "stateMutability": "nonpayable",
      "type": "function"
    },
    {
      "inputs": [
        {
          "internalType": "uint256",
          "name": "tokenID",
          "type": "uint256"
        },
        {
          "internalType": "string",
          "name": "newTokenURI",
          "type": "string"
        },
        {
          "internalType": "string",
          "name": "passwordEncrypted",
          "type": "string"
        }
      ],
      "name": "acceptNewDoc",
      "outputs": [],
      "stateMutability": "nonpayable",
      "type": "function"
    },
    {
      "inputs": [
        {
          "internalType": "uint256",
          "name": "tokenID",
          "type": "uint256"
        }
      ],
      "name": "delCopyDocShared",
      "outputs": [],
      "stateMutability": "nonpayable",
      "type": "function"
    },
    {
      "inputs": [
        {
          "internalType": "uint256",
          "name": "tokenID",
          "type": "uint256"
        },
        {
          "internalType": "string",
          "name": "tokenURI",
          "type": "string"
        },
        {
          "internalType": "address",
          "name": "certifying",
          "type": "address"
        }
      ],
      "name": "requestCertification",
      "outputs": [],
      "stateMutability": "nonpayable",
      "type": "function"
    },
    {
      "inputs": [],
      "name": "viewMyDocs",
      "outputs": [
        {
          "components": [
            {
              "internalType": "uint256",
              "name": "tokenID",
              "type": "uint256"
            },
            {
              "internalType": "uint256",
              "name": "fileSize",
              "type": "uint256"
            },
            {
              "internalType": "string",
              "name": "filename",
              "type": "string"
            },
            {
              "internalType": "string",
              "name": "fileMimeType",
              "type": "string"
            },
            {
              "internalType": "uint256",
              "name": "dateAdd",
              "type": "uint256"
            },
            {
              "internalType": "string",
              "name": "filePath",
              "type": "string"
            },
            {
              "internalType": "address[]",
              "name": "certifying",
              "type": "address[]"
            },
            {
              "internalType": "string",
              "name": "tokenURI",
              "type": "string"
            },
            {
              "internalType": "string",
              "name": "passwordEncrypted",
              "type": "string"
            },
            {
              "internalType": "enum SaveDocStruct.TypeDoc",
              "name": "typeNft",
              "type": "uint8"
            }
          ],
          "internalType": "struct SaveDocStruct.Document[]",
          "name": "",
          "type": "tuple[]"
        }
      ],
      "stateMutability": "view",
      "type": "function",
      "constant": true
    },
    {
      "inputs": [],
      "name": "viewMyCopyDocs",
      "outputs": [
        {
          "components": [
            {
              "internalType": "uint256",
              "name": "tokenID",
              "type": "uint256"
            },
            {
              "internalType": "uint256",
              "name": "fileSize",
              "type": "uint256"
            },
            {
              "internalType": "string",
              "name": "filename",
              "type": "string"
            },
            {
              "internalType": "string",
              "name": "fileMimeType",
              "type": "string"
            },
            {
              "internalType": "uint256",
              "name": "dateAdd",
              "type": "uint256"
            },
            {
              "internalType": "string",
              "name": "filePath",
              "type": "string"
            },
            {
              "internalType": "address[]",
              "name": "certifying",
              "type": "address[]"
            },
            {
              "internalType": "string",
              "name": "tokenURI",
              "type": "string"
            },
            {
              "internalType": "string",
              "name": "passwordEncrypted",
              "type": "string"
            },
            {
              "internalType": "enum SaveDocStruct.TypeDoc",
              "name": "typeNft",
              "type": "uint8"
            }
          ],
          "internalType": "struct SaveDocStruct.Document[]",
          "name": "",
          "type": "tuple[]"
        }
      ],
      "stateMutability": "view",
      "type": "function",
      "constant": true
    },
    {
      "inputs": [],
      "name": "viewDocPendingTransfer",
      "outputs": [
        {
          "components": [
            {
              "internalType": "uint256",
              "name": "tokenID",
              "type": "uint256"
            },
            {
              "internalType": "uint256",
              "name": "fileSize",
              "type": "uint256"
            },
            {
              "internalType": "string",
              "name": "filename",
              "type": "string"
            },
            {
              "internalType": "string",
              "name": "fileMimeType",
              "type": "string"
            },
            {
              "internalType": "uint256",
              "name": "dateAdd",
              "type": "uint256"
            },
            {
              "internalType": "string",
              "name": "filePath",
              "type": "string"
            },
            {
              "internalType": "address[]",
              "name": "certifying",
              "type": "address[]"
            },
            {
              "internalType": "string",
              "name": "tokenURI",
              "type": "string"
            },
            {
              "internalType": "string",
              "name": "passwordEncrypted",
              "type": "string"
            },
            {
              "internalType": "enum SaveDocStruct.TypeDoc",
              "name": "typeNft",
              "type": "uint8"
            }
          ],
          "internalType": "struct SaveDocStruct.Document[]",
          "name": "",
          "type": "tuple[]"
        }
      ],
      "stateMutability": "view",
      "type": "function",
      "constant": true
    },
    {
      "inputs": [],
      "name": "viewDocCertified",
      "outputs": [
        {
          "components": [
            {
              "internalType": "uint256",
              "name": "tokenID",
              "type": "uint256"
            },
            {
              "internalType": "uint256",
              "name": "fileSize",
              "type": "uint256"
            },
            {
              "internalType": "string",
              "name": "filename",
              "type": "string"
            },
            {
              "internalType": "string",
              "name": "fileMimeType",
              "type": "string"
            },
            {
              "internalType": "uint256",
              "name": "dateAdd",
              "type": "uint256"
            },
            {
              "internalType": "string",
              "name": "filePath",
              "type": "string"
            },
            {
              "internalType": "address[]",
              "name": "certifying",
              "type": "address[]"
            },
            {
              "internalType": "string",
              "name": "tokenURI",
              "type": "string"
            },
            {
              "internalType": "string",
              "name": "passwordEncrypted",
              "type": "string"
            },
            {
              "internalType": "enum SaveDocStruct.TypeDoc",
              "name": "typeNft",
              "type": "uint8"
            }
          ],
          "internalType": "struct SaveDocStruct.Document[]",
          "name": "",
          "type": "tuple[]"
        }
      ],
      "stateMutability": "view",
      "type": "function",
      "constant": true
    },
    {
      "inputs": [],
      "name": "viewCertificationRequest",
      "outputs": [
        {
          "components": [
            {
              "internalType": "address",
              "name": "applicant",
              "type": "address"
            },
            {
              "internalType": "uint256",
              "name": "tokenID",
              "type": "uint256"
            },
            {
              "internalType": "uint256",
              "name": "index",
              "type": "uint256"
            }
          ],
          "internalType": "struct SaveDocStruct.CertificationRequest[]",
          "name": "",
          "type": "tuple[]"
        }
      ],
      "stateMutability": "view",
      "type": "function",
      "constant": true
    },
    {
      "inputs": [
        {
          "components": [
            {
              "internalType": "address",
              "name": "applicant",
              "type": "address"
            },
            {
              "internalType": "uint256",
              "name": "tokenID",
              "type": "uint256"
            },
            {
              "internalType": "uint256",
              "name": "index",
              "type": "uint256"
            }
          ],
          "internalType": "struct SaveDocStruct.CertificationRequest",
          "name": "request",
          "type": "tuple"
        },
        {
          "internalType": "string",
          "name": "hashNFT",
          "type": "string"
        },
        {
          "internalType": "bool",
          "name": "keepCopyDoc",
          "type": "bool"
        }
      ],
      "name": "acceptCertificationRequest",
      "outputs": [],
      "stateMutability": "nonpayable",
      "type": "function"
    },
    {
      "inputs": [
        {
          "components": [
            {
              "internalType": "address",
              "name": "applicant",
              "type": "address"
            },
            {
              "internalType": "uint256",
              "name": "tokenID",
              "type": "uint256"
            },
            {
              "internalType": "uint256",
              "name": "index",
              "type": "uint256"
            }
          ],
          "internalType": "struct SaveDocStruct.CertificationRequest",
          "name": "request",
          "type": "tuple"
        }
      ],
      "name": "rejectCertificationRequest",
      "outputs": [],
      "stateMutability": "nonpayable",
      "type": "function"
    }
  ],
  "bytecode": "0x60806040523480156200001157600080fd5b50604051620052ae380380620052ae833981810160405281019062000037919062000234565b620000576200004b6200012360201b60201c565b6200012b60201b60201c565b82600360006101000a81548173ffffffffffffffffffffffffffffffffffffffff021916908373ffffffffffffffffffffffffffffffffffffffff16021790555081600260006101000a81548173ffffffffffffffffffffffffffffffffffffffff021916908373ffffffffffffffffffffffffffffffffffffffff16021790555080600460006101000a81548173ffffffffffffffffffffffffffffffffffffffff021916908373ffffffffffffffffffffffffffffffffffffffff16021790555050505062000353565b600033905090565b60008060009054906101000a900473ffffffffffffffffffffffffffffffffffffffff169050816000806101000a81548173ffffffffffffffffffffffffffffffffffffffff021916908373ffffffffffffffffffffffffffffffffffffffff1602179055508173ffffffffffffffffffffffffffffffffffffffff168173ffffffffffffffffffffffffffffffffffffffff167f8be0079c531659141344cd1fd0a4f28419497f9722a3daafe3b4186f6b6457e060405160405180910390a35050565b600081519050620002008162000305565b92915050565b60008151905062000217816200031f565b92915050565b6000815190506200022e8162000339565b92915050565b60008060006060848603121562000250576200024f62000300565b5b6000620002608682870162000206565b935050602062000273868287016200021d565b92505060406200028686828701620001ef565b9150509250925092565b60006200029d82620002e0565b9050919050565b6000620002b18262000290565b9050919050565b6000620002c58262000290565b9050919050565b6000620002d98262000290565b9050919050565b600073ffffffffffffffffffffffffffffffffffffffff82169050919050565b600080fd5b6200031081620002a4565b81146200031c57600080fd5b50565b6200032a81620002b8565b81146200033657600080fd5b50565b6200034481620002cc565b81146200035057600080fd5b50565b614f4b80620003636000396000f3fe608060405234801561001057600080fd5b50600436106101735760003560e01c806393eeaef0116100de578063c991607e11610097578063f260d41511610071578063f260d415146103fe578063f2fde38b1461041a578063f42a119e14610436578063fcae44841461045257610173565b8063c991607e14610392578063caed5560146103b0578063cfba8f91146103e057610173565b806393eeaef0146102d2578063940c1bc8146102ee578063b79962521461031e578063bf5665991461033c578063c7714c3414610358578063c7d8eaa31461037457610173565b80636fbf73fd116101305780636fbf73fd14610236578063715018a61461025457806375ece0dc1461025e5780638a5fd6061461027c5780638da5cb5b146102985780638fde68c5146102b657610173565b80632d5dbeb114610178578063357c2f54146101945780633bb3a24d146101b257806342cd7236146101e257806345f0abfe146101fe5780635c1ef4421461021a575b600080fd5b610192600480360381019061018d9190613deb565b61045c565b005b61019c6106dc565b6040516101a99190614850565b60405180910390f35b6101cc60048036038101906101c79190613c73565b610793565b6040516101d99190614872565b60405180910390f35b6101fc60048036038101906101f79190613b45565b610966565b005b61021860048036038101906102139190613ccd565b610aff565b005b610234600480360381019061022f9190613d3c565b610ddb565b005b61023e611079565b60405161024b9190614850565b60405180910390f35b61025c611130565b005b6102666111b8565b6040516102739190614850565b60405180910390f35b61029660048036038101906102919190613d7c565b61126f565b005b6102a0611695565b6040516102ad919061442a565b60405180910390f35b6102d060048036038101906102cb9190613722565b6116be565b005b6102ec60048036038101906102e79190613c73565b611832565b005b610308600480360381019061030391906139fb565b6119af565b6040516103159190614914565b60405180910390f35b610326611c69565b6040516103339190614850565b60405180910390f35b610356600480360381019061035191906138c2565b611d20565b005b610372600480360381019061036d9190613b72565b611e11565b005b61037c612066565b604051610389919061482e565b60405180910390f35b61039a61216c565b6040516103a79190614936565b60405180910390f35b6103ca60048036038101906103c591906136c8565b612229565b6040516103d79190614936565b60405180910390f35b6103e86122e8565b6040516103f59190614872565b60405180910390f35b61041860048036038101906104139190613954565b61239f565b005b610434600480360381019061042f91906136c8565b612498565b005b610450600480360381019061044b91906137dd565b612590565b005b61045a612908565b005b823373ffffffffffffffffffffffffffffffffffffffff16600260009054906101000a900473ffffffffffffffffffffffffffffffffffffffff1673ffffffffffffffffffffffffffffffffffffffff16636352211e836040518263ffffffff1660e01b81526004016104cf9190614958565b60206040518083038186803b1580156104e757600080fd5b505afa1580156104fb573d6000803e3d6000fd5b505050506040513d601f19601f8201168201806040525081019061051f91906136f5565b73ffffffffffffffffffffffffffffffffffffffff1614610575576040517f08c379a000000000000000000000000000000000000000000000000000000000815260040161056c906148f4565b60405180910390fd5b600360009054906101000a900473ffffffffffffffffffffffffffffffffffffffff1673ffffffffffffffffffffffffffffffffffffffff16638c6acc51336003600088876040518663ffffffff1660e01b81526004016105da959493929190614575565b600060405180830381600087803b1580156105f457600080fd5b505af1158015610608573d6000803e3d6000fd5b50505050600260009054906101000a900473ffffffffffffffffffffffffffffffffffffffff1673ffffffffffffffffffffffffffffffffffffffff16632682b0e48585336040518463ffffffff1660e01b815260040161066b9392919061499c565b600060405180830381600087803b15801561068557600080fd5b505af1158015610699573d6000803e3d6000fd5b505050507f41398dd25cfa0774990db425ab8dc3865eb456073501bdeb839bb236a135dba533856040516106ce92919061472d565b60405180910390a150505050565b6060600360009054906101000a900473ffffffffffffffffffffffffffffffffffffffff1673ffffffffffffffffffffffffffffffffffffffff166304e5b45c336040518263ffffffff1660e01b8152600401610739919061442a565b60006040518083038186803b15801561075157600080fd5b505afa158015610765573d6000803e3d6000fd5b505050506040513d6000823e3d601f19601f8201168201806040525081019061078e919061384c565b905090565b6060813373ffffffffffffffffffffffffffffffffffffffff16600260009054906101000a900473ffffffffffffffffffffffffffffffffffffffff1673ffffffffffffffffffffffffffffffffffffffff16636352211e836040518263ffffffff1660e01b81526004016108089190614958565b60206040518083038186803b15801561082057600080fd5b505afa158015610834573d6000803e3d6000fd5b505050506040513d601f19601f8201168201806040525081019061085891906136f5565b73ffffffffffffffffffffffffffffffffffffffff16146108ae576040517f08c379a00000000000000000000000000000000000000000000000000000000081526004016108a5906148f4565b60405180910390fd5b600260009054906101000a900473ffffffffffffffffffffffffffffffffffffffff1673ffffffffffffffffffffffffffffffffffffffff1663c87b56dd846040518263ffffffff1660e01b81526004016109099190614958565b60006040518083038186803b15801561092157600080fd5b505afa158015610935573d6000803e3d6000fd5b505050506040513d6000823e3d601f19601f8201168201806040525081019061095e919061390b565b915050919050565b610974338260400151612bd4565b600360009054906101000a900473ffffffffffffffffffffffffffffffffffffffff1673ffffffffffffffffffffffffffffffffffffffff16634531817d336002600360009054906101000a900473ffffffffffffffffffffffffffffffffffffffff1673ffffffffffffffffffffffffffffffffffffffff16637cc24f2d33600288602001516040518463ffffffff1660e01b8152600401610a1993929190614627565b60206040518083038186803b158015610a3157600080fd5b505afa158015610a45573d6000803e3d6000fd5b505050506040513d601f19601f82011682018060405250810190610a699190613ca0565b6040518463ffffffff1660e01b8152600401610a8793929190614627565b600060405180830381600087803b158015610aa157600080fd5b505af1158015610ab5573d6000803e3d6000fd5b505050507fa912d4fcf92fbf5ee375612c5bc2e36a389d851e05a910bf21e0beda6c8d89693382600001518360200151604051610af493929190614445565b60405180910390a150565b823373ffffffffffffffffffffffffffffffffffffffff16600260009054906101000a900473ffffffffffffffffffffffffffffffffffffffff1673ffffffffffffffffffffffffffffffffffffffff16636352211e836040518263ffffffff1660e01b8152600401610b729190614958565b60206040518083038186803b158015610b8a57600080fd5b505afa158015610b9e573d6000803e3d6000fd5b505050506040513d601f19601f82011682018060405250810190610bc291906136f5565b73ffffffffffffffffffffffffffffffffffffffff1614610c18576040517f08c379a0000000000000000000000000000000000000000000000000000000008152600401610c0f906148f4565b60405180910390fd5b82600460009054906101000a900473ffffffffffffffffffffffffffffffffffffffff1673ffffffffffffffffffffffffffffffffffffffff1663a1abffee826040518263ffffffff1660e01b8152600401610c74919061442a565b60206040518083038186803b158015610c8c57600080fd5b505afa158015610ca0573d6000803e3d6000fd5b505050506040513d601f19601f82011682018060405250810190610cc49190613895565b610d03576040517f08c379a0000000000000000000000000000000000000000000000000000000008152600401610cfa906148b4565b60405180910390fd5b600360009054906101000a900473ffffffffffffffffffffffffffffffffffffffff1673ffffffffffffffffffffffffffffffffffffffff166371499a7b3386888760016040518663ffffffff1660e01b8152600401610d679594939291906144c1565b600060405180830381600087803b158015610d8157600080fd5b505af1158015610d95573d6000803e3d6000fd5b505050507f30ef45173d7b3f0134eb34eed874d331ff64fe422f3a8881a8353f7fe27a98fd338587604051610dcc93929190614445565b60405180910390a15050505050565b813373ffffffffffffffffffffffffffffffffffffffff16600260009054906101000a900473ffffffffffffffffffffffffffffffffffffffff1673ffffffffffffffffffffffffffffffffffffffff16636352211e836040518263ffffffff1660e01b8152600401610e4e9190614958565b60206040518083038186803b158015610e6657600080fd5b505afa158015610e7a573d6000803e3d6000fd5b505050506040513d601f19601f82011682018060405250810190610e9e91906136f5565b73ffffffffffffffffffffffffffffffffffffffff1614610ef4576040517f08c379a0000000000000000000000000000000000000000000000000000000008152600401610eeb906148f4565b60405180910390fd5b600360009054906101000a900473ffffffffffffffffffffffffffffffffffffffff1673ffffffffffffffffffffffffffffffffffffffff166389ed5fa033856040518363ffffffff1660e01b8152600401610f5192919061472d565b602060405180830381600087803b158015610f6b57600080fd5b505af1158015610f7f573d6000803e3d6000fd5b505050506040513d601f19601f82011682018060405250810190610fa39190613895565b508161103957600260009054906101000a900473ffffffffffffffffffffffffffffffffffffffff1673ffffffffffffffffffffffffffffffffffffffff1663fcd3533c84336040518363ffffffff1660e01b8152600401611006929190614973565b600060405180830381600087803b15801561102057600080fd5b505af1158015611034573d6000803e3d6000fd5b505050505b7f25d4d887d1cdf2f4a7386b7e0d00aa319d66a6963a77083e69758fc3cb1ccebf33848460405161106c93929190614756565b60405180910390a1505050565b6060600360009054906101000a900473ffffffffffffffffffffffffffffffffffffffff1673ffffffffffffffffffffffffffffffffffffffff1663219e657b336040518263ffffffff1660e01b81526004016110d6919061442a565b60006040518083038186803b1580156110ee57600080fd5b505afa158015611102573d6000803e3d6000fd5b505050506040513d6000823e3d601f19601f8201168201806040525081019061112b919061384c565b905090565b611138612e6b565b73ffffffffffffffffffffffffffffffffffffffff16611156611695565b73ffffffffffffffffffffffffffffffffffffffff16146111ac576040517f08c379a00000000000000000000000000000000000000000000000000000000081526004016111a3906148d4565b60405180910390fd5b6111b66000612e73565b565b6060600360009054906101000a900473ffffffffffffffffffffffffffffffffffffffff1673ffffffffffffffffffffffffffffffffffffffff1663bbed9457336040518263ffffffff1660e01b8152600401611215919061442a565b60006040518083038186803b15801561122d57600080fd5b505afa158015611241573d6000803e3d6000fd5b505050506040513d6000823e3d601f19601f8201168201806040525081019061126a919061384c565b905090565b823373ffffffffffffffffffffffffffffffffffffffff16600260009054906101000a900473ffffffffffffffffffffffffffffffffffffffff1673ffffffffffffffffffffffffffffffffffffffff16636352211e836040518263ffffffff1660e01b81526004016112e29190614958565b60206040518083038186803b1580156112fa57600080fd5b505afa15801561130e573d6000803e3d6000fd5b505050506040513d601f19601f8201168201806040525081019061133291906136f5565b73ffffffffffffffffffffffffffffffffffffffff1614611388576040517f08c379a000000000000000000000000000000000000000000000000000000000815260040161137f906148f4565b60405180910390fd5b81600460009054906101000a900473ffffffffffffffffffffffffffffffffffffffff1673ffffffffffffffffffffffffffffffffffffffff1663a1abffee826040518263ffffffff1660e01b81526004016113e4919061442a565b60206040518083038186803b1580156113fc57600080fd5b505afa158015611410573d6000803e3d6000fd5b505050506040513d601f19601f820116820180604052508101906114349190613895565b611473576040517f08c379a000000000000000000000000000000000000000000000000000000000815260040161146a906148b4565b60405180910390fd5b61147b613081565b600360009054906101000a900473ffffffffffffffffffffffffffffffffffffffff1673ffffffffffffffffffffffffffffffffffffffff166371499a7b3386898960026040518663ffffffff1660e01b81526004016114df9594939291906144c1565b600060405180830381600087803b1580156114f957600080fd5b505af115801561150d573d6000803e3d6000fd5b5050505060405180606001604052803373ffffffffffffffffffffffffffffffffffffffff168152602001878152602001600160008773ffffffffffffffffffffffffffffffffffffffff1673ffffffffffffffffffffffffffffffffffffffff168152602001908152602001600020805490508152509050600160008573ffffffffffffffffffffffffffffffffffffffff1673ffffffffffffffffffffffffffffffffffffffff16815260200190815260200160002081908060018154018082558091505060019003906000526020600020906003020160009091909190915060008201518160000160006101000a81548173ffffffffffffffffffffffffffffffffffffffff021916908373ffffffffffffffffffffffffffffffffffffffff160217905550602082015181600101556040820151816002015550507fdcd8480bd34c91f1f2adc92afe46034c8808591541fd4d1fa5cbdcb152cc8fec8160000151826020015160405161168592919061472d565b60405180910390a1505050505050565b60008060009054906101000a900473ffffffffffffffffffffffffffffffffffffffff16905090565b6116c6612e6b565b73ffffffffffffffffffffffffffffffffffffffff166116e4611695565b73ffffffffffffffffffffffffffffffffffffffff161461173a576040517f08c379a0000000000000000000000000000000000000000000000000000000008152600401611731906148d4565b60405180910390fd5b600460009054906101000a900473ffffffffffffffffffffffffffffffffffffffff1673ffffffffffffffffffffffffffffffffffffffff1663c6361c22858585856040518563ffffffff1660e01b815260040161179b94939291906146d3565b600060405180830381600087803b1580156117b557600080fd5b505af11580156117c9573d6000803e3d6000fd5b505050506040513d6000823e3d601f19601f820116820180604052508101906117f29190613c2a565b507f8d9024430453f128ca4f7678ee38e6a2024a5f36fa204933588a69b8fe8cc0c0848360405161182492919061465e565b60405180910390a150505050565b600360009054906101000a900473ffffffffffffffffffffffffffffffffffffffff1673ffffffffffffffffffffffffffffffffffffffff16634531817d336001600360009054906101000a900473ffffffffffffffffffffffffffffffffffffffff1673ffffffffffffffffffffffffffffffffffffffff16637cc24f2d336001886040518463ffffffff1660e01b81526004016118d393929190614627565b60206040518083038186803b1580156118eb57600080fd5b505afa1580156118ff573d6000803e3d6000fd5b505050506040513d601f19601f820116820180604052508101906119239190613ca0565b6040518463ffffffff1660e01b815260040161194193929190614627565b600060405180830381600087803b15801561195b57600080fd5b505af115801561196f573d6000803e3d6000fd5b505050507fa19d981f41b819741b3955b6e01294e09d0e45d35bebad9b435a433adde2d55833826040516119a492919061472d565b60405180910390a150565b6119b76130b8565b33600460009054906101000a900473ffffffffffffffffffffffffffffffffffffffff1673ffffffffffffffffffffffffffffffffffffffff1663a1abffee826040518263ffffffff1660e01b8152600401611a13919061442a565b60206040518083038186803b158015611a2b57600080fd5b505afa158015611a3f573d6000803e3d6000fd5b505050506040513d601f19601f82011682018060405250810190611a639190613895565b611aa2576040517f08c379a0000000000000000000000000000000000000000000000000000000008152600401611a99906148b4565b60405180910390fd5b6000611aac6130b8565b600260009054906101000a900473ffffffffffffffffffffffffffffffffffffffff1673ffffffffffffffffffffffffffffffffffffffff1663d0def521338c6040518363ffffffff1660e01b8152600401611b0992919061465e565b602060405180830381600087803b158015611b2357600080fd5b505af1158015611b37573d6000803e3d6000fd5b505050506040513d601f19601f82011682018060405250810190611b5b9190613ca0565b9150600360009054906101000a900473ffffffffffffffffffffffffffffffffffffffff1673ffffffffffffffffffffffffffffffffffffffff16639643062c33848e8d8d8d8d8d6040518963ffffffff1660e01b8152600401611bc698979695949392919061478d565b600060405180830381600087803b158015611be057600080fd5b505af1158015611bf4573d6000803e3d6000fd5b505050506040513d6000823e3d601f19601f82011682018060405250810190611c1d9190613be1565b90507fba21b505ffad1eade4edf87dec4f6dae4552ba705cb5188e82041dc02171a7853383604051611c5092919061472d565b60405180910390a1809350505050979650505050505050565b6060600360009054906101000a900473ffffffffffffffffffffffffffffffffffffffff1673ffffffffffffffffffffffffffffffffffffffff1663d83e2027336040518263ffffffff1660e01b8152600401611cc6919061442a565b60006040518083038186803b158015611cde57600080fd5b505afa158015611cf2573d6000803e3d6000fd5b505050506040513d6000823e3d601f19601f82011682018060405250810190611d1b919061384c565b905090565b600460009054906101000a900473ffffffffffffffffffffffffffffffffffffffff1673ffffffffffffffffffffffffffffffffffffffff16633f1a51b833836040518363ffffffff1660e01b8152600401611d7d92919061465e565b600060405180830381600087803b158015611d9757600080fd5b505af1158015611dab573d6000803e3d6000fd5b505050506040513d6000823e3d601f19601f82011682018060405250810190611dd49190613c2a565b507f3510d9fd1bdaa96909e4f9fcd057c39ee3ee4647521258d952d64974a8e052a83382604051611e0692919061465e565b60405180910390a150565b611e248360000151846020015184612f37565b611e32338460400151612bd4565b8015611ed657600360009054906101000a900473ffffffffffffffffffffffffffffffffffffffff1673ffffffffffffffffffffffffffffffffffffffff16638c6acc51336002600187602001516040518563ffffffff1660e01b8152600401611e9f94939291906145cf565b600060405180830381600087803b158015611eb957600080fd5b505af1158015611ecd573d6000803e3d6000fd5b5050505061201c565b600360009054906101000a900473ffffffffffffffffffffffffffffffffffffffff1673ffffffffffffffffffffffffffffffffffffffff16634531817d336002600360009054906101000a900473ffffffffffffffffffffffffffffffffffffffff1673ffffffffffffffffffffffffffffffffffffffff16637cc24f2d3360028a602001516040518463ffffffff1660e01b8152600401611f7b93929190614627565b60206040518083038186803b158015611f9357600080fd5b505afa158015611fa7573d6000803e3d6000fd5b505050506040513d601f19601f82011682018060405250810190611fcb9190613ca0565b6040518463ffffffff1660e01b8152600401611fe993929190614627565b600060405180830381600087803b15801561200357600080fd5b505af1158015612017573d6000803e3d6000fd5b505050505b7ff0f8c7ba94a353f8e6a599551096a917b2c8e83503b929a736d549ca8b3fb184338460000151856020015184604051612059949392919061447c565b60405180910390a1505050565b6060600160003373ffffffffffffffffffffffffffffffffffffffff1673ffffffffffffffffffffffffffffffffffffffff168152602001908152602001600020805480602002602001604051908101604052809291908181526020016000905b8282101561216357838290600052602060002090600302016040518060600160405290816000820160009054906101000a900473ffffffffffffffffffffffffffffffffffffffff1673ffffffffffffffffffffffffffffffffffffffff1673ffffffffffffffffffffffffffffffffffffffff16815260200160018201548152602001600282015481525050815260200190600101906120c7565b50505050905090565b61217461311d565b600460009054906101000a900473ffffffffffffffffffffffffffffffffffffffff1673ffffffffffffffffffffffffffffffffffffffff16636f77926b336040518263ffffffff1660e01b81526004016121cf919061442a565b60006040518083038186803b1580156121e757600080fd5b505afa1580156121fb573d6000803e3d6000fd5b505050506040513d6000823e3d601f19601f820116820180604052508101906122249190613c2a565b905090565b61223161311d565b600460009054906101000a900473ffffffffffffffffffffffffffffffffffffffff1673ffffffffffffffffffffffffffffffffffffffff16636f77926b836040518263ffffffff1660e01b815260040161228c919061442a565b60006040518083038186803b1580156122a457600080fd5b505afa1580156122b8573d6000803e3d6000fd5b505050506040513d6000823e3d601f19601f820116820180604052508101906122e19190613c2a565b9050919050565b6060600460009054906101000a900473ffffffffffffffffffffffffffffffffffffffff1673ffffffffffffffffffffffffffffffffffffffff16636e2db3b0336040518263ffffffff1660e01b8152600401612345919061442a565b60006040518083038186803b15801561235d57600080fd5b505afa158015612371573d6000803e3d6000fd5b505050506040513d6000823e3d601f19601f8201168201806040525081019061239a919061390b565b905090565b600460009054906101000a900473ffffffffffffffffffffffffffffffffffffffff1673ffffffffffffffffffffffffffffffffffffffff1663c6361c22338585856040518563ffffffff1660e01b815260040161240094939291906146d3565b600060405180830381600087803b15801561241a57600080fd5b505af115801561242e573d6000803e3d6000fd5b505050506040513d6000823e3d601f19601f820116820180604052508101906124579190613c2a565b507ff9e22d0d90b1c23a58ab3faeb23fd4ac8ad47eccb5a435427069e65a22fb00d533848460405161248b9392919061468e565b60405180910390a1505050565b6124a0612e6b565b73ffffffffffffffffffffffffffffffffffffffff166124be611695565b73ffffffffffffffffffffffffffffffffffffffff1614612514576040517f08c379a000000000000000000000000000000000000000000000000000000000815260040161250b906148d4565b60405180910390fd5b600073ffffffffffffffffffffffffffffffffffffffff168173ffffffffffffffffffffffffffffffffffffffff161415612584576040517f08c379a000000000000000000000000000000000000000000000000000000000815260040161257b90614894565b60405180910390fd5b61258d81612e73565b50565b813373ffffffffffffffffffffffffffffffffffffffff16600260009054906101000a900473ffffffffffffffffffffffffffffffffffffffff1673ffffffffffffffffffffffffffffffffffffffff16636352211e836040518263ffffffff1660e01b81526004016126039190614958565b60206040518083038186803b15801561261b57600080fd5b505afa15801561262f573d6000803e3d6000fd5b505050506040513d601f19601f8201168201806040525081019061265391906136f5565b73ffffffffffffffffffffffffffffffffffffffff16146126a9576040517f08c379a00000000000000000000000000000000000000000000000000000000081526004016126a0906148f4565b60405180910390fd5b83600460009054906101000a900473ffffffffffffffffffffffffffffffffffffffff1673ffffffffffffffffffffffffffffffffffffffff1663a1abffee826040518263ffffffff1660e01b8152600401612705919061442a565b60206040518083038186803b15801561271d57600080fd5b505afa158015612731573d6000803e3d6000fd5b505050506040513d601f19601f820116820180604052508101906127559190613895565b612794576040517f08c379a000000000000000000000000000000000000000000000000000000000815260040161278b906148b4565b60405180910390fd5b600360009054906101000a900473ffffffffffffffffffffffffffffffffffffffff1673ffffffffffffffffffffffffffffffffffffffff166371499a7b3387878760036040518663ffffffff1660e01b81526004016127f89594939291906144c1565b600060405180830381600087803b15801561281257600080fd5b505af1158015612826573d6000803e3d6000fd5b50505050600260009054906101000a900473ffffffffffffffffffffffffffffffffffffffff1673ffffffffffffffffffffffffffffffffffffffff166323b872dd3387876040518463ffffffff1660e01b815260040161288993929190614445565b600060405180830381600087803b1580156128a357600080fd5b505af11580156128b7573d6000803e3d6000fd5b505050506128c6846001610ddb565b7f34f581da021a47386a4d5676be80c680ca6596579bd9f513f3d272b0460359fa3386866040516128f993929190614445565b60405180910390a15050505050565b33600460009054906101000a900473ffffffffffffffffffffffffffffffffffffffff1673ffffffffffffffffffffffffffffffffffffffff1663a1abffee826040518263ffffffff1660e01b8152600401612964919061442a565b60206040518083038186803b15801561297c57600080fd5b505afa158015612990573d6000803e3d6000fd5b505050506040513d601f19601f820116820180604052508101906129b49190613895565b6129f3576040517f08c379a00000000000000000000000000000000000000000000000000000000081526004016129ea906148b4565b60405180910390fd5b600360009054906101000a900473ffffffffffffffffffffffffffffffffffffffff1673ffffffffffffffffffffffffffffffffffffffff1663bd53176b336040518263ffffffff1660e01b8152600401612a4e919061442a565b600060405180830381600087803b158015612a6857600080fd5b505af1158015612a7c573d6000803e3d6000fd5b50505050600360009054906101000a900473ffffffffffffffffffffffffffffffffffffffff1673ffffffffffffffffffffffffffffffffffffffff166351685f35336040518263ffffffff1660e01b8152600401612adb919061442a565b600060405180830381600087803b158015612af557600080fd5b505af1158015612b09573d6000803e3d6000fd5b50505050600460009054906101000a900473ffffffffffffffffffffffffffffffffffffffff1673ffffffffffffffffffffffffffffffffffffffff1663f849f379336040518263ffffffff1660e01b8152600401612b68919061442a565b600060405180830381600087803b158015612b8257600080fd5b505af1158015612b96573d6000803e3d6000fd5b505050507fe5ca53020b6c0ff2116f624b9ca44e320913151f07ce0ac7186a67a5f6885e3633604051612bc9919061442a565b60405180910390a150565b612bdc613081565b600160008473ffffffffffffffffffffffffffffffffffffffff1673ffffffffffffffffffffffffffffffffffffffff16815260200190815260200160002060018060008673ffffffffffffffffffffffffffffffffffffffff1673ffffffffffffffffffffffffffffffffffffffff16815260200190815260200160002080549050612c699190614b60565b81548110612c7a57612c79614d01565b5b90600052602060002090600302016040518060600160405290816000820160009054906101000a900473ffffffffffffffffffffffffffffffffffffffff1673ffffffffffffffffffffffffffffffffffffffff1673ffffffffffffffffffffffffffffffffffffffff1681526020016001820154815260200160028201548152505090508181604001818152505080600160008573ffffffffffffffffffffffffffffffffffffffff1673ffffffffffffffffffffffffffffffffffffffff1681526020019081526020016000208381548110612d5b57612d5a614d01565b5b906000526020600020906003020160008201518160000160006101000a81548173ffffffffffffffffffffffffffffffffffffffff021916908373ffffffffffffffffffffffffffffffffffffffff1602179055506020820151816001015560408201518160020155905050600160008473ffffffffffffffffffffffffffffffffffffffff1673ffffffffffffffffffffffffffffffffffffffff168152602001908152602001600020805480612e1657612e15614cd2565b5b6001900381819060005260206000209060030201600080820160006101000a81549073ffffffffffffffffffffffffffffffffffffffff02191690556001820160009055600282016000905550509055505050565b600033905090565b60008060009054906101000a900473ffffffffffffffffffffffffffffffffffffffff169050816000806101000a81548173ffffffffffffffffffffffffffffffffffffffff021916908373ffffffffffffffffffffffffffffffffffffffff1602179055508173ffffffffffffffffffffffffffffffffffffffff168173ffffffffffffffffffffffffffffffffffffffff167f8be0079c531659141344cd1fd0a4f28419497f9722a3daafe3b4186f6b6457e060405160405180910390a35050565b6000600460009054906101000a900473ffffffffffffffffffffffffffffffffffffffff1673ffffffffffffffffffffffffffffffffffffffff16632330f247336040518263ffffffff1660e01b8152600401612f94919061442a565b60206040518083038186803b158015612fac57600080fd5b505afa158015612fc0573d6000803e3d6000fd5b505050506040513d601f19601f82011682018060405250810190612fe49190613895565b9050600360009054906101000a900473ffffffffffffffffffffffffffffffffffffffff1673ffffffffffffffffffffffffffffffffffffffff16635d1e792733838787876040518663ffffffff1660e01b815260040161304995949392919061451b565b600060405180830381600087803b15801561306357600080fd5b505af1158015613077573d6000803e3d6000fd5b5050505050505050565b6040518060600160405280600073ffffffffffffffffffffffffffffffffffffffff16815260200160008152602001600081525090565b6040518061014001604052806000815260200160008152602001606081526020016060815260200160008152602001606081526020016060815260200160608152602001606081526020016000600381111561311757613116614ca3565b5b81525090565b604051806080016040528060608152602001606081526020016000151581526020016000151581525090565b600061315c613157846149ff565b6149da565b9050808382526020820190508285602086028201111561317f5761317e614d6e565b5b60005b858110156131af578161319588826132e0565b845260208401935060208301925050600181019050613182565b5050509392505050565b60006131cc6131c784614a2b565b6149da565b905080838252602082019050828560208602820111156131ef576131ee614d6e565b5b60005b8581101561323d57815167ffffffffffffffff81111561321557613214614d5f565b5b8086016132228982613450565b855260208501945060208401935050506001810190506131f2565b5050509392505050565b600061325a61325584614a57565b6149da565b90508281526020810184848401111561327657613275614d73565b5b613281848285614c01565b509392505050565b600061329c61329784614a57565b6149da565b9050828152602081018484840111156132b8576132b7614d73565b5b6132c3848285614c10565b509392505050565b6000813590506132da81614ec0565b92915050565b6000815190506132ef81614ec0565b92915050565b600082601f83011261330a57613309614d5f565b5b815161331a848260208601613149565b91505092915050565b600082601f83011261333857613337614d5f565b5b81516133488482602086016131b9565b91505092915050565b60008135905061336081614ed7565b92915050565b60008151905061337581614ed7565b92915050565b60008151905061338a81614eee565b92915050565b600082601f8301126133a5576133a4614d5f565b5b81356133b5848260208601613247565b91505092915050565b600082601f8301126133d3576133d2614d5f565b5b81516133e3848260208601613289565b91505092915050565b60006060828403121561340257613401614d64565b5b61340c60606149da565b9050600061341c848285016132cb565b60008301525060206134308482850161369e565b60208301525060406134448482850161369e565b60408301525092915050565b6000610140828403121561346757613466614d64565b5b6134726101406149da565b90506000613482848285016136b3565b6000830152506020613496848285016136b3565b602083015250604082015167ffffffffffffffff8111156134ba576134b9614d69565b5b6134c6848285016133be565b604083015250606082015167ffffffffffffffff8111156134ea576134e9614d69565b5b6134f6848285016133be565b606083015250608061350a848285016136b3565b60808301525060a082015167ffffffffffffffff81111561352e5761352d614d69565b5b61353a848285016133be565b60a08301525060c082015167ffffffffffffffff81111561355e5761355d614d69565b5b61356a848285016132f5565b60c08301525060e082015167ffffffffffffffff81111561358e5761358d614d69565b5b61359a848285016133be565b60e08301525061010082015167ffffffffffffffff8111156135bf576135be614d69565b5b6135cb848285016133be565b610100830152506101206135e18482850161337b565b6101208301525092915050565b60006080828403121561360457613603614d64565b5b61360e60806149da565b9050600082015167ffffffffffffffff81111561362e5761362d614d69565b5b61363a848285016133be565b600083015250602082015167ffffffffffffffff81111561365e5761365d614d69565b5b61366a848285016133be565b602083015250604061367e84828501613366565b604083015250606061369284828501613366565b60608301525092915050565b6000813590506136ad81614efe565b92915050565b6000815190506136c281614efe565b92915050565b6000602082840312156136de576136dd614d7d565b5b60006136ec848285016132cb565b91505092915050565b60006020828403121561370b5761370a614d7d565b5b6000613719848285016132e0565b91505092915050565b6000806000806080858703121561373c5761373b614d7d565b5b600061374a878288016132cb565b945050602085013567ffffffffffffffff81111561376b5761376a614d78565b5b61377787828801613390565b935050604085013567ffffffffffffffff81111561379857613797614d78565b5b6137a487828801613390565b925050606085013567ffffffffffffffff8111156137c5576137c4614d78565b5b6137d187828801613390565b91505092959194509250565b6000806000606084860312156137f6576137f5614d7d565b5b6000613804868287016132cb565b93505060206138158682870161369e565b925050604084013567ffffffffffffffff81111561383657613835614d78565b5b61384286828701613390565b9150509250925092565b60006020828403121561386257613861614d7d565b5b600082015167ffffffffffffffff8111156138805761387f614d78565b5b61388c84828501613323565b91505092915050565b6000602082840312156138ab576138aa614d7d565b5b60006138b984828501613366565b91505092915050565b6000602082840312156138d8576138d7614d7d565b5b600082013567ffffffffffffffff8111156138f6576138f5614d78565b5b61390284828501613390565b91505092915050565b60006020828403121561392157613920614d7d565b5b600082015167ffffffffffffffff81111561393f5761393e614d78565b5b61394b848285016133be565b91505092915050565b60008060006060848603121561396d5761396c614d7d565b5b600084013567ffffffffffffffff81111561398b5761398a614d78565b5b61399786828701613390565b935050602084013567ffffffffffffffff8111156139b8576139b7614d78565b5b6139c486828701613390565b925050604084013567ffffffffffffffff8111156139e5576139e4614d78565b5b6139f186828701613390565b9150509250925092565b600080600080600080600060e0888a031215613a1a57613a19614d7d565b5b600088013567ffffffffffffffff811115613a3857613a37614d78565b5b613a448a828b01613390565b975050602088013567ffffffffffffffff811115613a6557613a64614d78565b5b613a718a828b01613390565b965050604088013567ffffffffffffffff811115613a9257613a91614d78565b5b613a9e8a828b01613390565b9550506060613aaf8a828b0161369e565b945050608088013567ffffffffffffffff811115613ad057613acf614d78565b5b613adc8a828b01613390565b93505060a088013567ffffffffffffffff811115613afd57613afc614d78565b5b613b098a828b01613390565b92505060c088013567ffffffffffffffff811115613b2a57613b29614d78565b5b613b368a828b01613390565b91505092959891949750929550565b600060608284031215613b5b57613b5a614d7d565b5b6000613b69848285016133ec565b91505092915050565b600080600060a08486031215613b8b57613b8a614d7d565b5b6000613b99868287016133ec565b935050606084013567ffffffffffffffff811115613bba57613bb9614d78565b5b613bc686828701613390565b9250506080613bd786828701613351565b9150509250925092565b600060208284031215613bf757613bf6614d7d565b5b600082015167ffffffffffffffff811115613c1557613c14614d78565b5b613c2184828501613450565b91505092915050565b600060208284031215613c4057613c3f614d7d565b5b600082015167ffffffffffffffff811115613c5e57613c5d614d78565b5b613c6a848285016135ee565b91505092915050565b600060208284031215613c8957613c88614d7d565b5b6000613c978482850161369e565b91505092915050565b600060208284031215613cb657613cb5614d7d565b5b6000613cc4848285016136b3565b91505092915050565b600080600060608486031215613ce657613ce5614d7d565b5b6000613cf48682870161369e565b9350506020613d05868287016132cb565b925050604084013567ffffffffffffffff811115613d2657613d25614d78565b5b613d3286828701613390565b9150509250925092565b60008060408385031215613d5357613d52614d7d565b5b6000613d618582860161369e565b9250506020613d7285828601613351565b9150509250929050565b600080600060608486031215613d9557613d94614d7d565b5b6000613da38682870161369e565b935050602084013567ffffffffffffffff811115613dc457613dc3614d78565b5b613dd086828701613390565b9250506040613de1868287016132cb565b9150509250925092565b600080600060608486031215613e0457613e03614d7d565b5b6000613e128682870161369e565b935050602084013567ffffffffffffffff811115613e3357613e32614d78565b5b613e3f86828701613390565b925050604084013567ffffffffffffffff811115613e6057613e5f614d78565b5b613e6c86828701613390565b9150509250925092565b6000613e828383613eba565b60208301905092915050565b6000613e9a8383614166565b60608301905092915050565b6000613eb283836141a8565b905092915050565b613ec381614b94565b82525050565b613ed281614b94565b82525050565b6000613ee382614ab8565b613eed8185614b0b565b9350613ef883614a88565b8060005b83811015613f29578151613f108882613e76565b9750613f1b83614ae4565b925050600181019050613efc565b5085935050505092915050565b6000613f4182614ac3565b613f4b8185614b1c565b9350613f5683614a98565b8060005b83811015613f87578151613f6e8882613e8e565b9750613f7983614af1565b925050600181019050613f5a565b5085935050505092915050565b6000613f9f82614ace565b613fa98185614b2d565b935083602082028501613fbb85614aa8565b8060005b85811015613ff75784840389528151613fd88582613ea6565b9450613fe383614afe565b925060208a01995050600181019050613fbf565b50829750879550505050505092915050565b61401281614ba6565b82525050565b61402181614ba6565b82525050565b61403081614bef565b82525050565b61403f81614bef565b82525050565b600061405082614ad9565b61405a8185614b3e565b935061406a818560208601614c10565b61407381614d82565b840191505092915050565b600061408982614ad9565b6140938185614b4f565b93506140a3818560208601614c10565b6140ac81614d82565b840191505092915050565b60006140c4602683614b4f565b91506140cf82614d93565b604082019050919050565b60006140e7602b83614b4f565b91506140f282614de2565b604082019050919050565b600061410a602083614b4f565b915061411582614e31565b602082019050919050565b600061412d602e83614b4f565b915061413882614e5a565b604082019050919050565b6000614150600083614b4f565b915061415b82614ea9565b600082019050919050565b60608201600082015161417c6000850182613eba565b50602082015161418f602085018261440c565b5060408201516141a2604085018261440c565b50505050565b6000610140830160008301516141c1600086018261440c565b5060208301516141d4602086018261440c565b50604083015184820360408601526141ec8282614045565b915050606083015184820360608601526142068282614045565b915050608083015161421b608086018261440c565b5060a083015184820360a08601526142338282614045565b91505060c083015184820360c086015261424d8282613ed8565b91505060e083015184820360e08601526142678282614045565b9150506101008301518482036101008601526142838282614045565b91505061012083015161429a610120860182614027565b508091505092915050565b6000610140830160008301516142be600086018261440c565b5060208301516142d1602086018261440c565b50604083015184820360408601526142e98282614045565b915050606083015184820360608601526143038282614045565b9150506080830151614318608086018261440c565b5060a083015184820360a08601526143308282614045565b91505060c083015184820360c086015261434a8282613ed8565b91505060e083015184820360e08601526143648282614045565b9150506101008301518482036101008601526143808282614045565b915050610120830151614397610120860182614027565b508091505092915050565b600060808301600083015184820360008601526143bf8282614045565b915050602083015184820360208601526143d98282614045565b91505060408301516143ee6040860182614009565b5060608301516144016060860182614009565b508091505092915050565b61441581614be5565b82525050565b61442481614be5565b82525050565b600060208201905061443f6000830184613ec9565b92915050565b600060608201905061445a6000830186613ec9565b6144676020830185613ec9565b614474604083018461441b565b949350505050565b60006080820190506144916000830187613ec9565b61449e6020830186613ec9565b6144ab604083018561441b565b6144b86060830184614018565b95945050505050565b600060a0820190506144d66000830188613ec9565b6144e36020830187613ec9565b6144f0604083018661441b565b8181036060830152614502818561407e565b90506145116080830184614036565b9695505050505050565b600060a0820190506145306000830188613ec9565b61453d6020830187614018565b61454a6040830186613ec9565b614557606083018561441b565b8181036080830152614569818461407e565b90509695505050505050565b600060a08201905061458a6000830188613ec9565b6145976020830187614036565b6145a46040830186614036565b6145b1606083018561441b565b81810360808301526145c3818461407e565b90509695505050505050565b600060a0820190506145e46000830187613ec9565b6145f16020830186614036565b6145fe6040830185614036565b61460b606083018461441b565b818103608083015261461c81614143565b905095945050505050565b600060608201905061463c6000830186613ec9565b6146496020830185614036565b614656604083018461441b565b949350505050565b60006040820190506146736000830185613ec9565b8181036020830152614685818461407e565b90509392505050565b60006060820190506146a36000830186613ec9565b81810360208301526146b5818561407e565b905081810360408301526146c9818461407e565b9050949350505050565b60006080820190506146e86000830187613ec9565b81810360208301526146fa818661407e565b9050818103604083015261470e818561407e565b90508181036060830152614722818461407e565b905095945050505050565b60006040820190506147426000830185613ec9565b61474f602083018461441b565b9392505050565b600060608201905061476b6000830186613ec9565b614778602083018561441b565b6147856040830184614018565b949350505050565b6000610100820190506147a3600083018b613ec9565b6147b0602083018a61441b565b81810360408301526147c2818961407e565b905081810360608301526147d6818861407e565b90506147e5608083018761441b565b81810360a08301526147f7818661407e565b905081810360c083015261480b818561407e565b905081810360e083015261481f818461407e565b90509998505050505050505050565b600060208201905081810360008301526148488184613f36565b905092915050565b6000602082019050818103600083015261486a8184613f94565b905092915050565b6000602082019050818103600083015261488c818461407e565b905092915050565b600060208201905081810360008301526148ad816140b7565b9050919050565b600060208201905081810360008301526148cd816140da565b9050919050565b600060208201905081810360008301526148ed816140fd565b9050919050565b6000602082019050818103600083015261490d81614120565b9050919050565b6000602082019050818103600083015261492e81846142a5565b905092915050565b6000602082019050818103600083015261495081846143a2565b905092915050565b600060208201905061496d600083018461441b565b92915050565b6000604082019050614988600083018561441b565b6149956020830184613ec9565b9392505050565b60006060820190506149b1600083018661441b565b81810360208301526149c3818561407e565b90506149d26040830184613ec9565b949350505050565b60006149e46149f5565b90506149f08282614c43565b919050565b6000604051905090565b600067ffffffffffffffff821115614a1a57614a19614d30565b5b602082029050602081019050919050565b600067ffffffffffffffff821115614a4657614a45614d30565b5b602082029050602081019050919050565b600067ffffffffffffffff821115614a7257614a71614d30565b5b614a7b82614d82565b9050602081019050919050565b6000819050602082019050919050565b6000819050602082019050919050565b6000819050602082019050919050565b600081519050919050565b600081519050919050565b600081519050919050565b600081519050919050565b6000602082019050919050565b6000602082019050919050565b6000602082019050919050565b600082825260208201905092915050565b600082825260208201905092915050565b600082825260208201905092915050565b600082825260208201905092915050565b600082825260208201905092915050565b6000614b6b82614be5565b9150614b7683614be5565b925082821015614b8957614b88614c74565b5b828203905092915050565b6000614b9f82614bc5565b9050919050565b60008115159050919050565b6000819050614bc082614eac565b919050565b600073ffffffffffffffffffffffffffffffffffffffff82169050919050565b6000819050919050565b6000614bfa82614bb2565b9050919050565b82818337600083830152505050565b60005b83811015614c2e578082015181840152602081019050614c13565b83811115614c3d576000848401525b50505050565b614c4c82614d82565b810181811067ffffffffffffffff82111715614c6b57614c6a614d30565b5b80604052505050565b7f4e487b7100000000000000000000000000000000000000000000000000000000600052601160045260246000fd5b7f4e487b7100000000000000000000000000000000000000000000000000000000600052602160045260246000fd5b7f4e487b7100000000000000000000000000000000000000000000000000000000600052603160045260246000fd5b7f4e487b7100000000000000000000000000000000000000000000000000000000600052603260045260246000fd5b7f4e487b7100000000000000000000000000000000000000000000000000000000600052604160045260246000fd5b600080fd5b600080fd5b600080fd5b600080fd5b600080fd5b600080fd5b600080fd5b6000601f19601f8301169050919050565b7f4f776e61626c653a206e6577206f776e657220697320746865207a65726f206160008201527f6464726573730000000000000000000000000000000000000000000000000000602082015250565b7f446f634d616e616765723a204365747465207574696c69736174657572206e2760008201527f657869737465207061732e000000000000000000000000000000000000000000602082015250565b7f4f776e61626c653a2063616c6c6572206973206e6f7420746865206f776e6572600082015250565b7f546f6b656e4d616e616765723a20436574204e4654206e6520766f757320617060008201527f7061727469656e74207061732021000000000000000000000000000000000000602082015250565b50565b60048110614ebd57614ebc614ca3565b5b50565b614ec981614b94565b8114614ed457600080fd5b50565b614ee081614ba6565b8114614eeb57600080fd5b50565b60048110614efb57600080fd5b50565b614f0781614be5565b8114614f1257600080fd5b5056fea26469706673582212202d061554046bf56d1766f55e945165a79c1b75d40616403e7404402870e0b2ec64736f6c63430008060033",
  "immutableReferences": {},
  "source": "//SPDX-License-Identifier: MIT\n\npragma solidity 0.8.6;\n\nimport \"./AccountManager.sol\";\nimport \"@openzeppelin/contracts/access/Ownable.sol\";\nimport \"./DocManager.sol\";\nimport \"./SaveDocToken.sol\";\nimport \"./SaveDocStruct.sol\";\n\n\ncontract SaveDoc is Ownable, SaveDocStruct\n{\n    mapping(address => CertificationRequest[]) private requests;\n    SaveDocToken private saveDocToken;\n    DocManager private docManager;\n    AccountManager private accountManager;\n\n\n    constructor(DocManager _docManager, SaveDocToken _saveDocToken, AccountManager _accountManager)\n    {\n        docManager = _docManager;\n        saveDocToken = _saveDocToken;\n        accountManager = _accountManager;\n    }\n\n    event Subscribe(address newUser, string name, string pubkey);\n    event SubscribeAuthority(address newUser, string pubkey);\n    event ChangeUsername(address user, string newUsername);\n    event Unsubcribe(address user);\n    event SecureDocument(address user, uint256 tokenID);\n    event DeleteDocumment(address ownerDoc, uint256 tokenID, bool forTransfer);\n    event TransferDocument(address from, address to, uint256 tokenID);\n    event ShareDoc(address from, address to, uint256 tokenID);\n    event AcceptTransferDoc(address newOwner, uint256 tokenID);\n    event DeleteMyDocCopy(address ownerDoc, uint256 tokenID);\n    event RequestCertification(address applicant, uint256 tokenID);\n    event AcceptCertificationRequest(address certifying, address applicant, uint256 tokenID, bool keepCopy);\n    event RejectCertificationRequest(address certifying, address applicant, uint256 tokenID);\n\n    modifier isMyToken(uint256 tokenID)\n    {\n        require(saveDocToken.ownerOf(tokenID) == msg.sender, \"TokenManager: Cet NFT ne vous appartient pas !\");\n        _;\n    }\n\n    modifier userExist(address addressUser)\n    {\n        require(accountManager.checkIfUserExist(addressUser), \"DocManager: Cette utilisateur n'existe pas.\");\n        _;\n    }\n\n    function subscribe(string memory name, string memory pubKey, string memory passwordMaster) external\n    {\n        accountManager.addUser(msg.sender, name, pubKey, passwordMaster);\n        emit Subscribe(msg.sender, name, pubKey);\n    }\n\n    function subscribeAuthority(address authority,string memory name, string memory pubKey, string memory passwordMaster) onlyOwner() external\n    {\n        //TODO\n        accountManager.addUser(authority, name, pubKey, passwordMaster);\n        emit SubscribeAuthority(authority, pubKey);\n    }\n\n    function viewMyProfil() view external returns(User memory)\n    {\n        return accountManager.getUser(msg.sender);\n    }\n\n    function viewProfil(address _address) view external returns(User memory)\n    {\n        return accountManager.getUser(_address);\n    }\n\n    function getMyPasswordMaster() view external returns(string memory)\n    {\n        return accountManager.getPasswordMaster(msg.sender);\n    }\n\n    function changeMyName(string memory name) external\n    {\n        accountManager.setUser(msg.sender, name);\n        emit ChangeUsername(msg.sender, name);\n    }\n\n    function unsubscribe() external userExist(msg.sender)\n    {\n        // Voir comment supprimer tout ces fichiers\n        docManager.deleteAllDocs(msg.sender);\n        docManager.delAllCopyDoc(msg.sender);\n        accountManager.delUser(msg.sender);\n        emit Unsubcribe(msg.sender);\n    }\n\n    function secureDocument(string memory tokenName, string memory tokenURI, string memory tokenMime, uint256 tokenLength, string memory filePath, string memory passwordEncrypted, string memory hashNFT) userExist(msg.sender) external returns (Document memory)\n    {\n        uint256 tokenID;\n        Document memory document;\n\n        tokenID = saveDocToken.mint(msg.sender, tokenURI);\n        document = docManager.createDoc(msg.sender, tokenID, tokenName, tokenMime, tokenLength, filePath, passwordEncrypted, hashNFT);\n        emit SecureDocument(msg.sender, tokenID);\n\n       return document;\n    }\n\n    // TODO Review\n    function delMyDocument(uint256 tokenID, bool forTransfer) isMyToken(tokenID) public\n    {\n        docManager.deleteDoc(msg.sender, tokenID);\n\n        if (!forTransfer)\n        {\n            saveDocToken.burn(tokenID, msg.sender);\n        }\n        emit DeleteDocumment(msg.sender, tokenID, forTransfer);\n    }\n\n    function getTokenURI(uint256 tokenID) external view isMyToken(tokenID) returns(string memory)\n    {\n        return saveDocToken.tokenURI(tokenID);\n    }\n\n    function transferDoc(address to, uint256 tokenID, string memory tokenURITmp) isMyToken(tokenID) userExist(to) external\n    {\n        docManager.createCopyDoc(msg.sender, to, tokenID, tokenURITmp, TypeDoc.CopyPendingTransfer);\n        saveDocToken.transferFrom(msg.sender, to, tokenID);\n        delMyDocument(tokenID, true);\n        emit TransferDocument(msg.sender, to, tokenID);\n    }\n\n    function shareDoc(uint256 tokenID, address to, string memory tokenURI) isMyToken(tokenID) userExist(to) external\n    {\n        docManager.createCopyDoc(msg.sender, to, tokenID, tokenURI, TypeDoc.CopyShared);\n        emit ShareDoc(msg.sender, to, tokenID);\n    }\n\n    function acceptNewDoc(uint256 tokenID, string memory newTokenURI, string memory passwordEncrypted) isMyToken(tokenID) external\n    {\n        // check si msg.sender a bien dja une copie du Document\n        docManager.convertTypeDoc(msg.sender, TypeDoc.CopyPendingTransfer, TypeDoc.Original, tokenID, passwordEncrypted);\n        saveDocToken.setTokenURI(tokenID, newTokenURI, msg.sender);\n        emit AcceptTransferDoc(msg.sender, tokenID);\n    }\n\n    function delCopyDocShared(uint tokenID) external\n    {\n        docManager.delCopyDoc(msg.sender, TypeDoc.CopyShared, docManager.getIndexNFT(msg.sender, TypeDoc.CopyShared, tokenID));\n        emit DeleteMyDocCopy(msg.sender, tokenID);\n    }\n\n    function requestCertification(uint256 tokenID, string memory tokenURI, address certifying) isMyToken(tokenID) userExist(certifying) external\n    {\n        CertificationRequest memory request;\n\n        docManager.createCopyDoc(msg.sender, certifying, tokenID, tokenURI, TypeDoc.CopyCertified);\n        request = CertificationRequest(msg.sender, tokenID, requests[certifying].length);\n        requests[certifying].push(request);\n        emit RequestCertification(request.applicant, request.tokenID);\n    }\n\n    function viewMyDocs() view external returns(Document[] memory)\n    {\n        return docManager.getDocs(msg.sender);\n    }\n\n    function viewMyCopyDocs() view external returns(Document[] memory)\n    {\n        return docManager.getAllCopyShared(msg.sender);\n    }\n\n    function viewDocPendingTransfer() view external returns(Document[] memory)\n    {\n        return docManager.getAllCopyPendingTransfer(msg.sender);\n    }\n\n    function viewDocCertified() view external returns(Document[] memory)\n    {\n        return docManager.getAllCopyCertified(msg.sender);\n    }\n\n    function viewCertificationRequest() external view returns(CertificationRequest[] memory)\n    {\n        return requests[msg.sender];\n    }\n\n    function delRequest(address certifying, uint256 index) private\n    {\n        CertificationRequest memory substitute;\n\n        substitute = requests[certifying][requests[certifying].length - 1];\n        substitute.index = index;\n        requests[certifying][index] = substitute;\n        requests[certifying].pop();\n    }\n\n    function certifyDocument(address applicant, uint256 tokenID, string memory hashNFT) private\n    {\n        bool isAuthority;\n\n        isAuthority = accountManager.isAuthority(msg.sender);\n        docManager.certify(msg.sender, isAuthority, applicant, tokenID, hashNFT);\n    }\n\n    function acceptCertificationRequest(CertificationRequest memory request, string memory hashNFT, bool keepCopyDoc) public\n    {\n        // check si msg.sender a bien dja une copie du Document\n        certifyDocument(request.applicant, request.tokenID, hashNFT);\n        delRequest(msg.sender, request.index);\n\n        if (keepCopyDoc)\n        {\n            docManager.convertTypeDoc(msg.sender, TypeDoc.CopyCertified, TypeDoc.CopyShared, request.tokenID, \"\");\n        }\n        else\n        {\n            docManager.delCopyDoc(msg.sender, TypeDoc.CopyCertified, docManager.getIndexNFT(msg.sender, TypeDoc.CopyCertified, request.tokenID));\n        }\n        emit AcceptCertificationRequest(msg.sender, request.applicant, request.tokenID, keepCopyDoc);\n    }\n\n    function rejectCertificationRequest(CertificationRequest memory request) external\n    {\n        // check si msg.sender  bien dja une copie du Document\n        delRequest(msg.sender, request.index);\n        docManager.delCopyDoc(msg.sender, TypeDoc.CopyCertified, docManager.getIndexNFT(msg.sender, TypeDoc.CopyCertified, request.tokenID));\n        emit RejectCertificationRequest(msg.sender, request.applicant, request.tokenID);\n    }\n}\n",
  "sourcePath": "/home/traore/projects/SAV-Doc/contracts/SaveDoc.sol",
  "compiler": {
    "name": "solc",
    "version": "0.8.6+commit.11564f7e.Emscripten.clang"
  },
  "schemaVersion": "3.4.1",
  "updatedAt": "2021-08-02T10:19:15.970Z",
  "networkType": "ethereum",
  "devdoc": {
    "kind": "dev",
    "methods": {
      "owner()": {
        "details": "Returns the address of the current owner."
      },
      "renounceOwnership()": {
        "details": "Leaves the contract without owner. It will not be possible to call `onlyOwner` functions anymore. Can only be called by the current owner. NOTE: Renouncing ownership will leave the contract without an owner, thereby removing any functionality that is only available to the owner."
      },
      "transferOwnership(address)": {
        "details": "Transfers ownership of the contract to a new account (`newOwner`). Can only be called by the current owner."
      }
    },
    "version": 1
  },
  "userdoc": {
    "kind": "user",
    "methods": {},
    "version": 1
  }
}