{
  "contractName": "SaveDoc",
  "abi": [
    {
      "inputs": [
        {
          "internalType": "contract DocManager",
          "name": "_docManager",
          "type": "address"
        },
        {
          "internalType": "contract SaveDocToken",
          "name": "_saveDocToken",
          "type": "address"
        },
        {
          "internalType": "contract AccountManager",
          "name": "_accountManager",
          "type": "address"
        }
      ],
      "stateMutability": "nonpayable",
      "type": "constructor"
    },
    {
      "anonymous": false,
      "inputs": [
        {
          "indexed": false,
          "internalType": "address",
          "name": "certifying",
          "type": "address"
        },
        {
          "indexed": false,
          "internalType": "address",
          "name": "applicant",
          "type": "address"
        },
        {
          "indexed": false,
          "internalType": "uint256",
          "name": "tokenID",
          "type": "uint256"
        },
        {
          "indexed": false,
          "internalType": "bool",
          "name": "keepCopy",
          "type": "bool"
        }
      ],
      "name": "AcceptCertificationRequest",
      "type": "event"
    },
    {
      "anonymous": false,
      "inputs": [
        {
          "indexed": false,
          "internalType": "address",
          "name": "newOwner",
          "type": "address"
        },
        {
          "indexed": false,
          "internalType": "uint256",
          "name": "tokenID",
          "type": "uint256"
        }
      ],
      "name": "AcceptTransferDoc",
      "type": "event"
    },
    {
      "anonymous": false,
      "inputs": [
        {
          "indexed": false,
          "internalType": "address",
          "name": "user",
          "type": "address"
        },
        {
          "indexed": false,
          "internalType": "string",
          "name": "newUsername",
          "type": "string"
        }
      ],
      "name": "ChangeUsername",
      "type": "event"
    },
    {
      "anonymous": false,
      "inputs": [
        {
          "indexed": false,
          "internalType": "address",
          "name": "ownerDoc",
          "type": "address"
        },
        {
          "indexed": false,
          "internalType": "uint256",
          "name": "tokenID",
          "type": "uint256"
        },
        {
          "indexed": false,
          "internalType": "bool",
          "name": "forTransfer",
          "type": "bool"
        }
      ],
      "name": "DeleteDocumment",
      "type": "event"
    },
    {
      "anonymous": false,
      "inputs": [
        {
          "indexed": false,
          "internalType": "address",
          "name": "ownerDoc",
          "type": "address"
        },
        {
          "indexed": false,
          "internalType": "uint256",
          "name": "tokenID",
          "type": "uint256"
        }
      ],
      "name": "DeleteMyDocCopy",
      "type": "event"
    },
    {
      "anonymous": false,
      "inputs": [
        {
          "indexed": true,
          "internalType": "address",
          "name": "previousOwner",
          "type": "address"
        },
        {
          "indexed": true,
          "internalType": "address",
          "name": "newOwner",
          "type": "address"
        }
      ],
      "name": "OwnershipTransferred",
      "type": "event"
    },
    {
      "anonymous": false,
      "inputs": [
        {
          "indexed": false,
          "internalType": "address",
          "name": "certifying",
          "type": "address"
        },
        {
          "indexed": false,
          "internalType": "address",
          "name": "applicant",
          "type": "address"
        },
        {
          "indexed": false,
          "internalType": "uint256",
          "name": "tokenID",
          "type": "uint256"
        }
      ],
      "name": "RejectCertificationRequest",
      "type": "event"
    },
    {
      "anonymous": false,
      "inputs": [
        {
          "indexed": false,
          "internalType": "address",
          "name": "applicant",
          "type": "address"
        },
        {
          "indexed": false,
          "internalType": "uint256",
          "name": "tokenID",
          "type": "uint256"
        }
      ],
      "name": "RequestCertification",
      "type": "event"
    },
    {
      "anonymous": false,
      "inputs": [
        {
          "indexed": false,
          "internalType": "address",
          "name": "user",
          "type": "address"
        },
        {
          "indexed": false,
          "internalType": "uint256",
          "name": "tokenID",
          "type": "uint256"
        }
      ],
      "name": "SecureDocument",
      "type": "event"
    },
    {
      "anonymous": false,
      "inputs": [
        {
          "indexed": false,
          "internalType": "address",
          "name": "from",
          "type": "address"
        },
        {
          "indexed": false,
          "internalType": "address",
          "name": "to",
          "type": "address"
        },
        {
          "indexed": false,
          "internalType": "uint256",
          "name": "tokenID",
          "type": "uint256"
        }
      ],
      "name": "ShareDoc",
      "type": "event"
    },
    {
      "anonymous": false,
      "inputs": [
        {
          "indexed": false,
          "internalType": "address",
          "name": "newUser",
          "type": "address"
        },
        {
          "indexed": false,
          "internalType": "string",
          "name": "name",
          "type": "string"
        },
        {
          "indexed": false,
          "internalType": "string",
          "name": "pubkey",
          "type": "string"
        }
      ],
      "name": "Subscribe",
      "type": "event"
    },
    {
      "anonymous": false,
      "inputs": [
        {
          "indexed": false,
          "internalType": "address",
          "name": "newUser",
          "type": "address"
        },
        {
          "indexed": false,
          "internalType": "string",
          "name": "pubkey",
          "type": "string"
        }
      ],
      "name": "SubscribeAuthority",
      "type": "event"
    },
    {
      "anonymous": false,
      "inputs": [
        {
          "indexed": false,
          "internalType": "address",
          "name": "from",
          "type": "address"
        },
        {
          "indexed": false,
          "internalType": "address",
          "name": "to",
          "type": "address"
        },
        {
          "indexed": false,
          "internalType": "uint256",
          "name": "tokenID",
          "type": "uint256"
        }
      ],
      "name": "TransferDocument",
      "type": "event"
    },
    {
      "anonymous": false,
      "inputs": [
        {
          "indexed": false,
          "internalType": "address",
          "name": "user",
          "type": "address"
        }
      ],
      "name": "Unsubcribe",
      "type": "event"
    },
    {
      "inputs": [],
      "name": "owner",
      "outputs": [
        {
          "internalType": "address",
          "name": "",
          "type": "address"
        }
      ],
      "stateMutability": "view",
      "type": "function",
      "constant": true
    },
    {
      "inputs": [],
      "name": "renounceOwnership",
      "outputs": [],
      "stateMutability": "nonpayable",
      "type": "function"
    },
    {
      "inputs": [
        {
          "internalType": "address",
          "name": "newOwner",
          "type": "address"
        }
      ],
      "name": "transferOwnership",
      "outputs": [],
      "stateMutability": "nonpayable",
      "type": "function"
    },
    {
      "inputs": [
        {
          "internalType": "string",
          "name": "name",
          "type": "string"
        },
        {
          "internalType": "string",
          "name": "pubKey",
          "type": "string"
        },
        {
          "internalType": "string",
          "name": "passwordMaster",
          "type": "string"
        }
      ],
      "name": "subscribe",
      "outputs": [],
      "stateMutability": "nonpayable",
      "type": "function"
    },
    {
      "inputs": [
        {
          "internalType": "address",
          "name": "authority",
          "type": "address"
        },
        {
          "internalType": "string",
          "name": "name",
          "type": "string"
        },
        {
          "internalType": "string",
          "name": "pubKey",
          "type": "string"
        },
        {
          "internalType": "string",
          "name": "passwordMaster",
          "type": "string"
        }
      ],
      "name": "subscribeAuthority",
      "outputs": [],
      "stateMutability": "nonpayable",
      "type": "function"
    },
    {
      "inputs": [],
      "name": "viewMyProfil",
      "outputs": [
        {
          "components": [
            {
              "internalType": "string",
              "name": "name",
              "type": "string"
            },
            {
              "internalType": "string",
              "name": "publicKey",
              "type": "string"
            },
            {
              "internalType": "bool",
              "name": "isAuthority",
              "type": "bool"
            },
            {
              "internalType": "bool",
              "name": "exist",
              "type": "bool"
            }
          ],
          "internalType": "struct SaveDocStruct.User",
          "name": "",
          "type": "tuple"
        }
      ],
      "stateMutability": "view",
      "type": "function",
      "constant": true
    },
    {
      "inputs": [
        {
          "internalType": "address",
          "name": "_address",
          "type": "address"
        }
      ],
      "name": "viewProfil",
      "outputs": [
        {
          "components": [
            {
              "internalType": "string",
              "name": "name",
              "type": "string"
            },
            {
              "internalType": "string",
              "name": "publicKey",
              "type": "string"
            },
            {
              "internalType": "bool",
              "name": "isAuthority",
              "type": "bool"
            },
            {
              "internalType": "bool",
              "name": "exist",
              "type": "bool"
            }
          ],
          "internalType": "struct SaveDocStruct.User",
          "name": "",
          "type": "tuple"
        }
      ],
      "stateMutability": "view",
      "type": "function",
      "constant": true
    },
    {
      "inputs": [],
      "name": "getMyPasswordMaster",
      "outputs": [
        {
          "internalType": "string",
          "name": "",
          "type": "string"
        }
      ],
      "stateMutability": "view",
      "type": "function",
      "constant": true
    },
    {
      "inputs": [
        {
          "internalType": "string",
          "name": "name",
          "type": "string"
        }
      ],
      "name": "changeMyName",
      "outputs": [],
      "stateMutability": "nonpayable",
      "type": "function"
    },
    {
      "inputs": [],
      "name": "unsubscribe",
      "outputs": [],
      "stateMutability": "nonpayable",
      "type": "function"
    },
    {
      "inputs": [
        {
          "internalType": "string",
          "name": "tokenName",
          "type": "string"
        },
        {
          "internalType": "string",
          "name": "tokenURI",
          "type": "string"
        },
        {
          "internalType": "string",
          "name": "tokenMime",
          "type": "string"
        },
        {
          "internalType": "uint256",
          "name": "tokenLength",
          "type": "uint256"
        },
        {
          "internalType": "string",
          "name": "filePath",
          "type": "string"
        },
        {
          "internalType": "string",
          "name": "passwordEncrypted",
          "type": "string"
        },
        {
          "internalType": "string",
          "name": "hashNFT",
          "type": "string"
        }
      ],
      "name": "secureDocument",
      "outputs": [
        {
          "components": [
            {
              "internalType": "uint256",
              "name": "tokenID",
              "type": "uint256"
            },
            {
              "internalType": "uint256",
              "name": "fileSize",
              "type": "uint256"
            },
            {
              "internalType": "string",
              "name": "filename",
              "type": "string"
            },
            {
              "internalType": "string",
              "name": "fileMimeType",
              "type": "string"
            },
            {
              "internalType": "uint256",
              "name": "dateAdd",
              "type": "uint256"
            },
            {
              "internalType": "string",
              "name": "filePath",
              "type": "string"
            },
            {
              "internalType": "address[]",
              "name": "certifying",
              "type": "address[]"
            },
            {
              "internalType": "string",
              "name": "tokenURI",
              "type": "string"
            },
            {
              "internalType": "string",
              "name": "passwordEncrypted",
              "type": "string"
            },
            {
              "internalType": "enum SaveDocStruct.TypeDoc",
              "name": "typeNft",
              "type": "uint8"
            }
          ],
          "internalType": "struct SaveDocStruct.Document",
          "name": "",
          "type": "tuple"
        }
      ],
      "stateMutability": "nonpayable",
      "type": "function"
    },
    {
      "inputs": [
        {
          "internalType": "uint256",
          "name": "tokenID",
          "type": "uint256"
        },
        {
          "internalType": "bool",
          "name": "forTransfer",
          "type": "bool"
        }
      ],
      "name": "delMyDocument",
      "outputs": [],
      "stateMutability": "nonpayable",
      "type": "function"
    },
    {
      "inputs": [
        {
          "internalType": "uint256",
          "name": "tokenID",
          "type": "uint256"
        }
      ],
      "name": "getTokenURI",
      "outputs": [
        {
          "internalType": "string",
          "name": "",
          "type": "string"
        }
      ],
      "stateMutability": "view",
      "type": "function",
      "constant": true
    },
    {
      "inputs": [
        {
          "internalType": "address",
          "name": "to",
          "type": "address"
        },
        {
          "internalType": "uint256",
          "name": "tokenID",
          "type": "uint256"
        },
        {
          "internalType": "string",
          "name": "tokenURITmp",
          "type": "string"
        }
      ],
      "name": "transferDoc",
      "outputs": [],
      "stateMutability": "nonpayable",
      "type": "function"
    },
    {
      "inputs": [
        {
          "internalType": "uint256",
          "name": "tokenID",
          "type": "uint256"
        },
        {
          "internalType": "address",
          "name": "to",
          "type": "address"
        },
        {
          "internalType": "string",
          "name": "tokenURI",
          "type": "string"
        }
      ],
      "name": "shareDoc",
      "outputs": [],
      "stateMutability": "nonpayable",
      "type": "function"
    },
    {
      "inputs": [
        {
          "internalType": "uint256",
          "name": "tokenID",
          "type": "uint256"
        },
        {
          "internalType": "string",
          "name": "newTokenURI",
          "type": "string"
        },
        {
          "internalType": "string",
          "name": "passwordEncrypted",
          "type": "string"
        }
      ],
      "name": "acceptNewDoc",
      "outputs": [],
      "stateMutability": "nonpayable",
      "type": "function"
    },
    {
      "inputs": [
        {
          "internalType": "uint256",
          "name": "tokenID",
          "type": "uint256"
        }
      ],
      "name": "delCopyDocShared",
      "outputs": [],
      "stateMutability": "nonpayable",
      "type": "function"
    },
    {
      "inputs": [
        {
          "internalType": "uint256",
          "name": "_tokenID",
          "type": "uint256"
        },
        {
          "internalType": "string",
          "name": "_tokenURI",
          "type": "string"
        },
        {
          "internalType": "address",
          "name": "_certifying",
          "type": "address"
        }
      ],
      "name": "requestCertification",
      "outputs": [],
      "stateMutability": "nonpayable",
      "type": "function"
    },
    {
      "inputs": [],
      "name": "viewMyDocs",
      "outputs": [
        {
          "components": [
            {
              "internalType": "uint256",
              "name": "tokenID",
              "type": "uint256"
            },
            {
              "internalType": "uint256",
              "name": "fileSize",
              "type": "uint256"
            },
            {
              "internalType": "string",
              "name": "filename",
              "type": "string"
            },
            {
              "internalType": "string",
              "name": "fileMimeType",
              "type": "string"
            },
            {
              "internalType": "uint256",
              "name": "dateAdd",
              "type": "uint256"
            },
            {
              "internalType": "string",
              "name": "filePath",
              "type": "string"
            },
            {
              "internalType": "address[]",
              "name": "certifying",
              "type": "address[]"
            },
            {
              "internalType": "string",
              "name": "tokenURI",
              "type": "string"
            },
            {
              "internalType": "string",
              "name": "passwordEncrypted",
              "type": "string"
            },
            {
              "internalType": "enum SaveDocStruct.TypeDoc",
              "name": "typeNft",
              "type": "uint8"
            }
          ],
          "internalType": "struct SaveDocStruct.Document[]",
          "name": "",
          "type": "tuple[]"
        }
      ],
      "stateMutability": "view",
      "type": "function",
      "constant": true
    },
    {
      "inputs": [],
      "name": "viewMyCopyDocs",
      "outputs": [
        {
          "components": [
            {
              "internalType": "uint256",
              "name": "tokenID",
              "type": "uint256"
            },
            {
              "internalType": "uint256",
              "name": "fileSize",
              "type": "uint256"
            },
            {
              "internalType": "string",
              "name": "filename",
              "type": "string"
            },
            {
              "internalType": "string",
              "name": "fileMimeType",
              "type": "string"
            },
            {
              "internalType": "uint256",
              "name": "dateAdd",
              "type": "uint256"
            },
            {
              "internalType": "string",
              "name": "filePath",
              "type": "string"
            },
            {
              "internalType": "address[]",
              "name": "certifying",
              "type": "address[]"
            },
            {
              "internalType": "string",
              "name": "tokenURI",
              "type": "string"
            },
            {
              "internalType": "string",
              "name": "passwordEncrypted",
              "type": "string"
            },
            {
              "internalType": "enum SaveDocStruct.TypeDoc",
              "name": "typeNft",
              "type": "uint8"
            }
          ],
          "internalType": "struct SaveDocStruct.Document[]",
          "name": "",
          "type": "tuple[]"
        }
      ],
      "stateMutability": "view",
      "type": "function",
      "constant": true
    },
    {
      "inputs": [],
      "name": "viewDocPendingTransfer",
      "outputs": [
        {
          "components": [
            {
              "internalType": "uint256",
              "name": "tokenID",
              "type": "uint256"
            },
            {
              "internalType": "uint256",
              "name": "fileSize",
              "type": "uint256"
            },
            {
              "internalType": "string",
              "name": "filename",
              "type": "string"
            },
            {
              "internalType": "string",
              "name": "fileMimeType",
              "type": "string"
            },
            {
              "internalType": "uint256",
              "name": "dateAdd",
              "type": "uint256"
            },
            {
              "internalType": "string",
              "name": "filePath",
              "type": "string"
            },
            {
              "internalType": "address[]",
              "name": "certifying",
              "type": "address[]"
            },
            {
              "internalType": "string",
              "name": "tokenURI",
              "type": "string"
            },
            {
              "internalType": "string",
              "name": "passwordEncrypted",
              "type": "string"
            },
            {
              "internalType": "enum SaveDocStruct.TypeDoc",
              "name": "typeNft",
              "type": "uint8"
            }
          ],
          "internalType": "struct SaveDocStruct.Document[]",
          "name": "",
          "type": "tuple[]"
        }
      ],
      "stateMutability": "view",
      "type": "function",
      "constant": true
    },
    {
      "inputs": [],
      "name": "viewDocCertified",
      "outputs": [
        {
          "components": [
            {
              "internalType": "uint256",
              "name": "tokenID",
              "type": "uint256"
            },
            {
              "internalType": "uint256",
              "name": "fileSize",
              "type": "uint256"
            },
            {
              "internalType": "string",
              "name": "filename",
              "type": "string"
            },
            {
              "internalType": "string",
              "name": "fileMimeType",
              "type": "string"
            },
            {
              "internalType": "uint256",
              "name": "dateAdd",
              "type": "uint256"
            },
            {
              "internalType": "string",
              "name": "filePath",
              "type": "string"
            },
            {
              "internalType": "address[]",
              "name": "certifying",
              "type": "address[]"
            },
            {
              "internalType": "string",
              "name": "tokenURI",
              "type": "string"
            },
            {
              "internalType": "string",
              "name": "passwordEncrypted",
              "type": "string"
            },
            {
              "internalType": "enum SaveDocStruct.TypeDoc",
              "name": "typeNft",
              "type": "uint8"
            }
          ],
          "internalType": "struct SaveDocStruct.Document[]",
          "name": "",
          "type": "tuple[]"
        }
      ],
      "stateMutability": "view",
      "type": "function",
      "constant": true
    },
    {
      "inputs": [
        {
          "internalType": "uint256",
          "name": "_tokenID",
          "type": "uint256"
        }
      ],
      "name": "viewCertificationRequest",
      "outputs": [
        {
          "components": [
            {
              "internalType": "address",
              "name": "applicant",
              "type": "address"
            },
            {
              "internalType": "uint256",
              "name": "tokenID",
              "type": "uint256"
            },
            {
              "internalType": "bool",
              "name": "exist",
              "type": "bool"
            }
          ],
          "internalType": "struct SaveDocStruct.CertificationRequest",
          "name": "",
          "type": "tuple"
        }
      ],
      "stateMutability": "view",
      "type": "function",
      "constant": true
    },
    {
      "inputs": [
        {
          "internalType": "uint256",
          "name": "_tokenID",
          "type": "uint256"
        },
        {
          "internalType": "string",
          "name": "_hashNFT",
          "type": "string"
        },
        {
          "internalType": "bool",
          "name": "_keepCopyDoc",
          "type": "bool"
        }
      ],
      "name": "acceptCertificationRequest",
      "outputs": [],
      "stateMutability": "nonpayable",
      "type": "function"
    },
    {
      "inputs": [
        {
          "internalType": "uint256",
          "name": "_tokenID",
          "type": "uint256"
        }
      ],
      "name": "rejectCertificationRequest",
      "outputs": [],
      "stateMutability": "nonpayable",
      "type": "function"
    },
    {
      "inputs": [
        {
          "internalType": "uint256",
          "name": "tokenID",
          "type": "uint256"
        }
      ],
      "name": "tokenExist",
      "outputs": [
        {
          "internalType": "bool",
          "name": "",
          "type": "bool"
        }
      ],
      "stateMutability": "view",
      "type": "function",
      "constant": true
    }
  ],
  "bytecode": "0x60806040523480156200001157600080fd5b5060405162005d6a38038062005d6a833981810160405281019062000037919062000234565b620000576200004b6200012360201b60201c565b6200012b60201b60201c565b82600360006101000a81548173ffffffffffffffffffffffffffffffffffffffff021916908373ffffffffffffffffffffffffffffffffffffffff16021790555081600260006101000a81548173ffffffffffffffffffffffffffffffffffffffff021916908373ffffffffffffffffffffffffffffffffffffffff16021790555080600460006101000a81548173ffffffffffffffffffffffffffffffffffffffff021916908373ffffffffffffffffffffffffffffffffffffffff16021790555050505062000353565b600033905090565b60008060009054906101000a900473ffffffffffffffffffffffffffffffffffffffff169050816000806101000a81548173ffffffffffffffffffffffffffffffffffffffff021916908373ffffffffffffffffffffffffffffffffffffffff1602179055508173ffffffffffffffffffffffffffffffffffffffff168173ffffffffffffffffffffffffffffffffffffffff167f8be0079c531659141344cd1fd0a4f28419497f9722a3daafe3b4186f6b6457e060405160405180910390a35050565b600081519050620002008162000305565b92915050565b60008151905062000217816200031f565b92915050565b6000815190506200022e8162000339565b92915050565b60008060006060848603121562000250576200024f62000300565b5b6000620002608682870162000206565b935050602062000273868287016200021d565b92505060406200028686828701620001ef565b9150509250925092565b60006200029d82620002e0565b9050919050565b6000620002b18262000290565b9050919050565b6000620002c58262000290565b9050919050565b6000620002d98262000290565b9050919050565b600073ffffffffffffffffffffffffffffffffffffffff82169050919050565b600080fd5b6200031081620002a4565b81146200031c57600080fd5b50565b6200032a81620002b8565b81146200033657600080fd5b50565b6200034481620002cc565b81146200035057600080fd5b50565b615a0780620003636000396000f3fe608060405234801561001057600080fd5b506004361061018e5760003560e01c80638fde68c5116100de578063caed556011610097578063f260d41511610071578063f260d4151461045b578063f2fde38b14610477578063f42a119e14610493578063fcae4484146104af5761018e565b8063caed5560146103dd578063cc0c52361461040d578063cfba8f911461043d5761018e565b80638fde68c51461031d57806393eeaef014610339578063940c1bc814610355578063b799625214610385578063bf566599146103a3578063c991607e146103bf5761018e565b80635c1ef4421161014b57806375ece0dc1161012557806375ece0dc146102955780638a5fd606146102b35780638da5cb5b146102cf5780638f2a0d3f146102ed5761018e565b80635c1ef442146102515780636fbf73fd1461026d578063715018a61461028b5761018e565b80631060a477146101935780632d5dbeb1146101af5780632e81cdda146101cb578063357c2f54146101e75780633bb3a24d1461020557806345f0abfe14610235575b600080fd5b6101ad60048036038101906101a891906147bd565b6104b9565b005b6101c960048036038101906101c4919061482c565b61097f565b005b6101e560048036038101906101e09190614645565b610bff565b005b6101ef610f19565b6040516101fc9190615262565b60405180910390f35b61021f600480360381019061021a9190614645565b6110bc565b60405161022c919061529f565b60405180910390f35b61024f600480360381019061024a919061469f565b61128f565b005b61026b6004803603810190610266919061470e565b61156b565b005b610275611694565b6040516102829190615262565b60405180910390f35b610293611837565b005b61029d6118bf565b6040516102aa9190615262565b60405180910390f35b6102cd60048036038101906102c8919061474e565b611a62565b005b6102d7611ffc565b6040516102e49190614e5e565b60405180910390f35b61030760048036038101906103029190614645565b612025565b60405161031491906153a1565b60405180910390f35b61033760048036038101906103329190614163565b6121ae565b005b610353600480360381019061034e9190614645565b612322565b005b61036f600480360381019061036a9190614469565b612507565b60405161037c91906153bc565b60405180910390f35b61038d6127c1565b60405161039a9190615262565b60405180910390f35b6103bd60048036038101906103b89190614330565b612964565b005b6103c7612a55565b6040516103d491906153de565b60405180910390f35b6103f760048036038101906103f29190614109565b612bfe565b60405161040491906153de565b60405180910390f35b61042760048036038101906104229190614645565b612cbd565b6040516104349190615284565b60405180910390f35b610445612ded565b604051610452919061529f565b60405180910390f35b610475600480360381019061047091906143c2565b612ea4565b005b610491600480360381019061048c9190614109565b612f9d565b005b6104ad60048036038101906104a8919061421e565b613095565b005b6104b761340e565b005b3383600160008373ffffffffffffffffffffffffffffffffffffffff1673ffffffffffffffffffffffffffffffffffffffff168152602001908152602001600020600082815260200190815260200160002060020160009054906101000a900460ff1661055b576040517f08c379a000000000000000000000000000000000000000000000000000000000815260040161055290615361565b60405180910390fd5b33600460009054906101000a900473ffffffffffffffffffffffffffffffffffffffff1673ffffffffffffffffffffffffffffffffffffffff1663a1abffee826040518263ffffffff1660e01b81526004016105b79190614e5e565b60206040518083038186803b1580156105cf57600080fd5b505afa1580156105e3573d6000803e3d6000fd5b505050506040513d601f19601f8201168201806040525081019061060791906142d6565b610646576040517f08c379a000000000000000000000000000000000000000000000000000000000815260040161063d906152c1565b60405180910390fd5b6000600160003373ffffffffffffffffffffffffffffffffffffffff1673ffffffffffffffffffffffffffffffffffffffff16815260200190815260200160002060008881526020019081526020016000206040518060600160405290816000820160009054906101000a900473ffffffffffffffffffffffffffffffffffffffff1673ffffffffffffffffffffffffffffffffffffffff1673ffffffffffffffffffffffffffffffffffffffff168152602001600182015481526020016002820160009054906101000a900460ff16151515158152505090506000600360009054906101000a900473ffffffffffffffffffffffffffffffffffffffff1673ffffffffffffffffffffffffffffffffffffffff16637cc24f2d33600285602001516040518463ffffffff1660e01b81526004016107869392919061505b565b60206040518083038186803b15801561079e57600080fd5b505afa1580156107b2573d6000803e3d6000fd5b505050506040513d601f19601f820116820180604052508101906107d69190614303565b90506107eb82600001518360200151896136da565b6107f9338360200151613824565b851561089d57600360009054906101000a900473ffffffffffffffffffffffffffffffffffffffff1673ffffffffffffffffffffffffffffffffffffffff16638c6acc51336002600186602001516040518563ffffffff1660e01b81526004016108669493929190615003565b600060405180830381600087803b15801561088057600080fd5b505af1158015610894573d6000803e3d6000fd5b50505050610930565b600360009054906101000a900473ffffffffffffffffffffffffffffffffffffffff1673ffffffffffffffffffffffffffffffffffffffff16634531817d336002846040518463ffffffff1660e01b81526004016108fd9392919061505b565b600060405180830381600087803b15801561091757600080fd5b505af115801561092b573d6000803e3d6000fd5b505050505b7ff0f8c7ba94a353f8e6a599551096a917b2c8e83503b929a736d549ca8b3fb18433836000015184602001518960405161096d9493929190614eb0565b60405180910390a15050505050505050565b823373ffffffffffffffffffffffffffffffffffffffff16600260009054906101000a900473ffffffffffffffffffffffffffffffffffffffff1673ffffffffffffffffffffffffffffffffffffffff16636352211e836040518263ffffffff1660e01b81526004016109f29190615400565b60206040518083038186803b158015610a0a57600080fd5b505afa158015610a1e573d6000803e3d6000fd5b505050506040513d601f19601f82011682018060405250810190610a429190614136565b73ffffffffffffffffffffffffffffffffffffffff1614610a98576040517f08c379a0000000000000000000000000000000000000000000000000000000008152600401610a8f90615381565b60405180910390fd5b600360009054906101000a900473ffffffffffffffffffffffffffffffffffffffff1673ffffffffffffffffffffffffffffffffffffffff16638c6acc51336003600088876040518663ffffffff1660e01b8152600401610afd959493929190614fa9565b600060405180830381600087803b158015610b1757600080fd5b505af1158015610b2b573d6000803e3d6000fd5b50505050600260009054906101000a900473ffffffffffffffffffffffffffffffffffffffff1673ffffffffffffffffffffffffffffffffffffffff16632682b0e48585336040518463ffffffff1660e01b8152600401610b8e93929190615444565b600060405180830381600087803b158015610ba857600080fd5b505af1158015610bbc573d6000803e3d6000fd5b505050507f41398dd25cfa0774990db425ab8dc3865eb456073501bdeb839bb236a135dba53385604051610bf1929190615161565b60405180910390a150505050565b3381600160008373ffffffffffffffffffffffffffffffffffffffff1673ffffffffffffffffffffffffffffffffffffffff168152602001908152602001600020600082815260200190815260200160002060020160009054906101000a900460ff16610ca1576040517f08c379a0000000000000000000000000000000000000000000000000000000008152600401610c9890615361565b60405180910390fd5b6000600160003373ffffffffffffffffffffffffffffffffffffffff1673ffffffffffffffffffffffffffffffffffffffff16815260200190815260200160002060008581526020019081526020016000206040518060600160405290816000820160009054906101000a900473ffffffffffffffffffffffffffffffffffffffff1673ffffffffffffffffffffffffffffffffffffffff1673ffffffffffffffffffffffffffffffffffffffff168152602001600182015481526020016002820160009054906101000a900460ff16151515158152505090506000600360009054906101000a900473ffffffffffffffffffffffffffffffffffffffff1673ffffffffffffffffffffffffffffffffffffffff16637cc24f2d33600285602001516040518463ffffffff1660e01b8152600401610de19392919061505b565b60206040518083038186803b158015610df957600080fd5b505afa158015610e0d573d6000803e3d6000fd5b505050506040513d601f19601f82011682018060405250810190610e319190614303565b9050610e3d3386613824565b600360009054906101000a900473ffffffffffffffffffffffffffffffffffffffff1673ffffffffffffffffffffffffffffffffffffffff16634531817d336002846040518463ffffffff1660e01b8152600401610e9d9392919061505b565b600060405180830381600087803b158015610eb757600080fd5b505af1158015610ecb573d6000803e3d6000fd5b505050507fa912d4fcf92fbf5ee375612c5bc2e36a389d851e05a910bf21e0beda6c8d89693383600001518460200151604051610f0a93929190614e79565b60405180910390a15050505050565b606033600460009054906101000a900473ffffffffffffffffffffffffffffffffffffffff1673ffffffffffffffffffffffffffffffffffffffff1663a1abffee826040518263ffffffff1660e01b8152600401610f779190614e5e565b60206040518083038186803b158015610f8f57600080fd5b505afa158015610fa3573d6000803e3d6000fd5b505050506040513d601f19601f82011682018060405250810190610fc791906142d6565b611006576040517f08c379a0000000000000000000000000000000000000000000000000000000008152600401610ffd906152c1565b60405180910390fd5b600360009054906101000a900473ffffffffffffffffffffffffffffffffffffffff1673ffffffffffffffffffffffffffffffffffffffff166304e5b45c336040518263ffffffff1660e01b81526004016110619190614e5e565b60006040518083038186803b15801561107957600080fd5b505afa15801561108d573d6000803e3d6000fd5b505050506040513d6000823e3d601f19601f820116820180604052508101906110b6919061428d565b91505090565b6060813373ffffffffffffffffffffffffffffffffffffffff16600260009054906101000a900473ffffffffffffffffffffffffffffffffffffffff1673ffffffffffffffffffffffffffffffffffffffff16636352211e836040518263ffffffff1660e01b81526004016111319190615400565b60206040518083038186803b15801561114957600080fd5b505afa15801561115d573d6000803e3d6000fd5b505050506040513d601f19601f820116820180604052508101906111819190614136565b73ffffffffffffffffffffffffffffffffffffffff16146111d7576040517f08c379a00000000000000000000000000000000000000000000000000000000081526004016111ce90615381565b60405180910390fd5b600260009054906101000a900473ffffffffffffffffffffffffffffffffffffffff1673ffffffffffffffffffffffffffffffffffffffff1663c87b56dd846040518263ffffffff1660e01b81526004016112329190615400565b60006040518083038186803b15801561124a57600080fd5b505afa15801561125e573d6000803e3d6000fd5b505050506040513d6000823e3d601f19601f820116820180604052508101906112879190614379565b915050919050565b823373ffffffffffffffffffffffffffffffffffffffff16600260009054906101000a900473ffffffffffffffffffffffffffffffffffffffff1673ffffffffffffffffffffffffffffffffffffffff16636352211e836040518263ffffffff1660e01b81526004016113029190615400565b60206040518083038186803b15801561131a57600080fd5b505afa15801561132e573d6000803e3d6000fd5b505050506040513d601f19601f820116820180604052508101906113529190614136565b73ffffffffffffffffffffffffffffffffffffffff16146113a8576040517f08c379a000000000000000000000000000000000000000000000000000000000815260040161139f90615381565b60405180910390fd5b82600460009054906101000a900473ffffffffffffffffffffffffffffffffffffffff1673ffffffffffffffffffffffffffffffffffffffff1663a1abffee826040518263ffffffff1660e01b81526004016114049190614e5e565b60206040518083038186803b15801561141c57600080fd5b505afa158015611430573d6000803e3d6000fd5b505050506040513d601f19601f8201168201806040525081019061145491906142d6565b611493576040517f08c379a000000000000000000000000000000000000000000000000000000000815260040161148a906152c1565b60405180910390fd5b600360009054906101000a900473ffffffffffffffffffffffffffffffffffffffff1673ffffffffffffffffffffffffffffffffffffffff166371499a7b3386888760016040518663ffffffff1660e01b81526004016114f7959493929190614ef5565b600060405180830381600087803b15801561151157600080fd5b505af1158015611525573d6000803e3d6000fd5b505050507f30ef45173d7b3f0134eb34eed874d331ff64fe422f3a8881a8353f7fe27a98fd33858760405161155c93929190614e79565b60405180910390a15050505050565b813373ffffffffffffffffffffffffffffffffffffffff16600260009054906101000a900473ffffffffffffffffffffffffffffffffffffffff1673ffffffffffffffffffffffffffffffffffffffff16636352211e836040518263ffffffff1660e01b81526004016115de9190615400565b60206040518083038186803b1580156115f657600080fd5b505afa15801561160a573d6000803e3d6000fd5b505050506040513d601f19601f8201168201806040525081019061162e9190614136565b73ffffffffffffffffffffffffffffffffffffffff1614611684576040517f08c379a000000000000000000000000000000000000000000000000000000000815260040161167b90615381565b60405180910390fd5b61168f3384846138be565b505050565b606033600460009054906101000a900473ffffffffffffffffffffffffffffffffffffffff1673ffffffffffffffffffffffffffffffffffffffff1663a1abffee826040518263ffffffff1660e01b81526004016116f29190614e5e565b60206040518083038186803b15801561170a57600080fd5b505afa15801561171e573d6000803e3d6000fd5b505050506040513d601f19601f8201168201806040525081019061174291906142d6565b611781576040517f08c379a0000000000000000000000000000000000000000000000000000000008152600401611778906152c1565b60405180910390fd5b600360009054906101000a900473ffffffffffffffffffffffffffffffffffffffff1673ffffffffffffffffffffffffffffffffffffffff1663219e657b336040518263ffffffff1660e01b81526004016117dc9190614e5e565b60006040518083038186803b1580156117f457600080fd5b505afa158015611808573d6000803e3d6000fd5b505050506040513d6000823e3d601f19601f82011682018060405250810190611831919061428d565b91505090565b61183f613a43565b73ffffffffffffffffffffffffffffffffffffffff1661185d611ffc565b73ffffffffffffffffffffffffffffffffffffffff16146118b3576040517f08c379a00000000000000000000000000000000000000000000000000000000081526004016118aa90615341565b60405180910390fd5b6118bd6000613a4b565b565b606033600460009054906101000a900473ffffffffffffffffffffffffffffffffffffffff1673ffffffffffffffffffffffffffffffffffffffff1663a1abffee826040518263ffffffff1660e01b815260040161191d9190614e5e565b60206040518083038186803b15801561193557600080fd5b505afa158015611949573d6000803e3d6000fd5b505050506040513d601f19601f8201168201806040525081019061196d91906142d6565b6119ac576040517f08c379a00000000000000000000000000000000000000000000000000000000081526004016119a3906152c1565b60405180910390fd5b600360009054906101000a900473ffffffffffffffffffffffffffffffffffffffff1673ffffffffffffffffffffffffffffffffffffffff1663bbed9457336040518263ffffffff1660e01b8152600401611a079190614e5e565b60006040518083038186803b158015611a1f57600080fd5b505afa158015611a33573d6000803e3d6000fd5b505050506040513d6000823e3d601f19601f82011682018060405250810190611a5c919061428d565b91505090565b823373ffffffffffffffffffffffffffffffffffffffff16600260009054906101000a900473ffffffffffffffffffffffffffffffffffffffff1673ffffffffffffffffffffffffffffffffffffffff16636352211e836040518263ffffffff1660e01b8152600401611ad59190615400565b60206040518083038186803b158015611aed57600080fd5b505afa158015611b01573d6000803e3d6000fd5b505050506040513d601f19601f82011682018060405250810190611b259190614136565b73ffffffffffffffffffffffffffffffffffffffff1614611b7b576040517f08c379a0000000000000000000000000000000000000000000000000000000008152600401611b7290615381565b60405180910390fd5b81600460009054906101000a900473ffffffffffffffffffffffffffffffffffffffff1673ffffffffffffffffffffffffffffffffffffffff1663a1abffee826040518263ffffffff1660e01b8152600401611bd79190614e5e565b60206040518083038186803b158015611bef57600080fd5b505afa158015611c03573d6000803e3d6000fd5b505050506040513d601f19601f82011682018060405250810190611c2791906142d6565b611c66576040517f08c379a0000000000000000000000000000000000000000000000000000000008152600401611c5d906152c1565b60405180910390fd5b8285600160008373ffffffffffffffffffffffffffffffffffffffff1673ffffffffffffffffffffffffffffffffffffffff168152602001908152602001600020600082815260200190815260200160002060020160009054906101000a900460ff1615611d09576040517f08c379a0000000000000000000000000000000000000000000000000000000008152600401611d0090615301565b60405180910390fd5b600360009054906101000a900473ffffffffffffffffffffffffffffffffffffffff1673ffffffffffffffffffffffffffffffffffffffff166371499a7b33878a8a60026040518663ffffffff1660e01b8152600401611d6d959493929190614ef5565b600060405180830381600087803b158015611d8757600080fd5b505af1158015611d9b573d6000803e3d6000fd5b5050505033600160008773ffffffffffffffffffffffffffffffffffffffff1673ffffffffffffffffffffffffffffffffffffffff168152602001908152602001600020600089815260200190815260200160002060000160006101000a81548173ffffffffffffffffffffffffffffffffffffffff021916908373ffffffffffffffffffffffffffffffffffffffff16021790555086600160008773ffffffffffffffffffffffffffffffffffffffff1673ffffffffffffffffffffffffffffffffffffffff16815260200190815260200160002060008981526020019081526020016000206001018190555060018060008773ffffffffffffffffffffffffffffffffffffffff1673ffffffffffffffffffffffffffffffffffffffff168152602001908152602001600020600089815260200190815260200160002060020160006101000a81548160ff0219169083151502179055507fdcd8480bd34c91f1f2adc92afe46034c8808591541fd4d1fa5cbdcb152cc8fec600160008773ffffffffffffffffffffffffffffffffffffffff1673ffffffffffffffffffffffffffffffffffffffff168152602001908152602001600020600089815260200190815260200160002060000160009054906101000a900473ffffffffffffffffffffffffffffffffffffffff16600160008873ffffffffffffffffffffffffffffffffffffffff1673ffffffffffffffffffffffffffffffffffffffff16815260200190815260200160002060008a815260200190815260200160002060010154604051611feb929190615161565b60405180910390a150505050505050565b60008060009054906101000a900473ffffffffffffffffffffffffffffffffffffffff16905090565b61202d613b0f565b3382600160008373ffffffffffffffffffffffffffffffffffffffff1673ffffffffffffffffffffffffffffffffffffffff168152602001908152602001600020600082815260200190815260200160002060020160009054906101000a900460ff166120cf576040517f08c379a00000000000000000000000000000000000000000000000000000000081526004016120c690615361565b60405180910390fd5b600160003373ffffffffffffffffffffffffffffffffffffffff1673ffffffffffffffffffffffffffffffffffffffff16815260200190815260200160002060008581526020019081526020016000206040518060600160405290816000820160009054906101000a900473ffffffffffffffffffffffffffffffffffffffff1673ffffffffffffffffffffffffffffffffffffffff1673ffffffffffffffffffffffffffffffffffffffff168152602001600182015481526020016002820160009054906101000a900460ff16151515158152505092505050919050565b6121b6613a43565b73ffffffffffffffffffffffffffffffffffffffff166121d4611ffc565b73ffffffffffffffffffffffffffffffffffffffff161461222a576040517f08c379a000000000000000000000000000000000000000000000000000000000815260040161222190615341565b60405180910390fd5b600460009054906101000a900473ffffffffffffffffffffffffffffffffffffffff1673ffffffffffffffffffffffffffffffffffffffff1663d1d6bc9c858585856040518563ffffffff1660e01b815260040161228b9493929190615107565b600060405180830381600087803b1580156122a557600080fd5b505af11580156122b9573d6000803e3d6000fd5b505050506040513d6000823e3d601f19601f820116820180604052508101906122e291906145fc565b507f8d9024430453f128ca4f7678ee38e6a2024a5f36fa204933588a69b8fe8cc0c08483604051612314929190615092565b60405180910390a150505050565b6000600360009054906101000a900473ffffffffffffffffffffffffffffffffffffffff1673ffffffffffffffffffffffffffffffffffffffff16637cc24f2d336001856040518463ffffffff1660e01b81526004016123849392919061505b565b60206040518083038186803b15801561239c57600080fd5b505afa1580156123b0573d6000803e3d6000fd5b505050506040513d601f19601f820116820180604052508101906123d49190614303565b90507fffffffffffffffffffffffffffffffffffffffffffffffffffffffffffffffff8113612438576040517f08c379a000000000000000000000000000000000000000000000000000000000815260040161242f90615321565b60405180910390fd5b600360009054906101000a900473ffffffffffffffffffffffffffffffffffffffff1673ffffffffffffffffffffffffffffffffffffffff16634531817d336001846040518463ffffffff1660e01b81526004016124989392919061505b565b600060405180830381600087803b1580156124b257600080fd5b505af11580156124c6573d6000803e3d6000fd5b505050507fa19d981f41b819741b3955b6e01294e09d0e45d35bebad9b435a433adde2d55833836040516124fb929190615161565b60405180910390a15050565b61250f613b48565b33600460009054906101000a900473ffffffffffffffffffffffffffffffffffffffff1673ffffffffffffffffffffffffffffffffffffffff1663a1abffee826040518263ffffffff1660e01b815260040161256b9190614e5e565b60206040518083038186803b15801561258357600080fd5b505afa158015612597573d6000803e3d6000fd5b505050506040513d601f19601f820116820180604052508101906125bb91906142d6565b6125fa576040517f08c379a00000000000000000000000000000000000000000000000000000000081526004016125f1906152c1565b60405180910390fd5b6000612604613b48565b600260009054906101000a900473ffffffffffffffffffffffffffffffffffffffff1673ffffffffffffffffffffffffffffffffffffffff1663d0def521338c6040518363ffffffff1660e01b8152600401612661929190615092565b602060405180830381600087803b15801561267b57600080fd5b505af115801561268f573d6000803e3d6000fd5b505050506040513d601f19601f820116820180604052508101906126b39190614672565b9150600360009054906101000a900473ffffffffffffffffffffffffffffffffffffffff1673ffffffffffffffffffffffffffffffffffffffff16639643062c33848e8d8d8d8d8d6040518963ffffffff1660e01b815260040161271e9897969594939291906151c1565b600060405180830381600087803b15801561273857600080fd5b505af115801561274c573d6000803e3d6000fd5b505050506040513d6000823e3d601f19601f8201168201806040525081019061277591906145b3565b90507fba21b505ffad1eade4edf87dec4f6dae4552ba705cb5188e82041dc02171a78533836040516127a8929190615161565b60405180910390a1809350505050979650505050505050565b606033600460009054906101000a900473ffffffffffffffffffffffffffffffffffffffff1673ffffffffffffffffffffffffffffffffffffffff1663a1abffee826040518263ffffffff1660e01b815260040161281f9190614e5e565b60206040518083038186803b15801561283757600080fd5b505afa15801561284b573d6000803e3d6000fd5b505050506040513d601f19601f8201168201806040525081019061286f91906142d6565b6128ae576040517f08c379a00000000000000000000000000000000000000000000000000000000081526004016128a5906152c1565b60405180910390fd5b600360009054906101000a900473ffffffffffffffffffffffffffffffffffffffff1673ffffffffffffffffffffffffffffffffffffffff1663d83e2027336040518263ffffffff1660e01b81526004016129099190614e5e565b60006040518083038186803b15801561292157600080fd5b505afa158015612935573d6000803e3d6000fd5b505050506040513d6000823e3d601f19601f8201168201806040525081019061295e919061428d565b91505090565b600460009054906101000a900473ffffffffffffffffffffffffffffffffffffffff1673ffffffffffffffffffffffffffffffffffffffff16633f1a51b833836040518363ffffffff1660e01b81526004016129c1929190615092565b600060405180830381600087803b1580156129db57600080fd5b505af11580156129ef573d6000803e3d6000fd5b505050506040513d6000823e3d601f19601f82011682018060405250810190612a1891906145fc565b507f3510d9fd1bdaa96909e4f9fcd057c39ee3ee4647521258d952d64974a8e052a83382604051612a4a929190615092565b60405180910390a150565b612a5d613bad565b33600460009054906101000a900473ffffffffffffffffffffffffffffffffffffffff1673ffffffffffffffffffffffffffffffffffffffff1663a1abffee826040518263ffffffff1660e01b8152600401612ab99190614e5e565b60206040518083038186803b158015612ad157600080fd5b505afa158015612ae5573d6000803e3d6000fd5b505050506040513d601f19601f82011682018060405250810190612b0991906142d6565b612b48576040517f08c379a0000000000000000000000000000000000000000000000000000000008152600401612b3f906152c1565b60405180910390fd5b600460009054906101000a900473ffffffffffffffffffffffffffffffffffffffff1673ffffffffffffffffffffffffffffffffffffffff16636f77926b336040518263ffffffff1660e01b8152600401612ba39190614e5e565b60006040518083038186803b158015612bbb57600080fd5b505afa158015612bcf573d6000803e3d6000fd5b505050506040513d6000823e3d601f19601f82011682018060405250810190612bf891906145fc565b91505090565b612c06613bad565b600460009054906101000a900473ffffffffffffffffffffffffffffffffffffffff1673ffffffffffffffffffffffffffffffffffffffff16636f77926b836040518263ffffffff1660e01b8152600401612c619190614e5e565b60006040518083038186803b158015612c7957600080fd5b505afa158015612c8d573d6000803e3d6000fd5b505050506040513d6000823e3d601f19601f82011682018060405250810190612cb691906145fc565b9050919050565b6000612cc7613a43565b73ffffffffffffffffffffffffffffffffffffffff16612ce5611ffc565b73ffffffffffffffffffffffffffffffffffffffff1614612d3b576040517f08c379a0000000000000000000000000000000000000000000000000000000008152600401612d3290615341565b60405180910390fd5b600260009054906101000a900473ffffffffffffffffffffffffffffffffffffffff1673ffffffffffffffffffffffffffffffffffffffff16634ebbc92a836040518263ffffffff1660e01b8152600401612d969190615400565b60206040518083038186803b158015612dae57600080fd5b505afa158015612dc2573d6000803e3d6000fd5b505050506040513d601f19601f82011682018060405250810190612de691906142d6565b9050919050565b6060600460009054906101000a900473ffffffffffffffffffffffffffffffffffffffff1673ffffffffffffffffffffffffffffffffffffffff16636e2db3b0336040518263ffffffff1660e01b8152600401612e4a9190614e5e565b60006040518083038186803b158015612e6257600080fd5b505afa158015612e76573d6000803e3d6000fd5b505050506040513d6000823e3d601f19601f82011682018060405250810190612e9f9190614379565b905090565b600460009054906101000a900473ffffffffffffffffffffffffffffffffffffffff1673ffffffffffffffffffffffffffffffffffffffff1663c6361c22338585856040518563ffffffff1660e01b8152600401612f059493929190615107565b600060405180830381600087803b158015612f1f57600080fd5b505af1158015612f33573d6000803e3d6000fd5b505050506040513d6000823e3d601f19601f82011682018060405250810190612f5c91906145fc565b507ff9e22d0d90b1c23a58ab3faeb23fd4ac8ad47eccb5a435427069e65a22fb00d5338484604051612f90939291906150c2565b60405180910390a1505050565b612fa5613a43565b73ffffffffffffffffffffffffffffffffffffffff16612fc3611ffc565b73ffffffffffffffffffffffffffffffffffffffff1614613019576040517f08c379a000000000000000000000000000000000000000000000000000000000815260040161301090615341565b60405180910390fd5b600073ffffffffffffffffffffffffffffffffffffffff168173ffffffffffffffffffffffffffffffffffffffff161415613089576040517f08c379a0000000000000000000000000000000000000000000000000000000008152600401613080906152e1565b60405180910390fd5b61309281613a4b565b50565b813373ffffffffffffffffffffffffffffffffffffffff16600260009054906101000a900473ffffffffffffffffffffffffffffffffffffffff1673ffffffffffffffffffffffffffffffffffffffff16636352211e836040518263ffffffff1660e01b81526004016131089190615400565b60206040518083038186803b15801561312057600080fd5b505afa158015613134573d6000803e3d6000fd5b505050506040513d601f19601f820116820180604052508101906131589190614136565b73ffffffffffffffffffffffffffffffffffffffff16146131ae576040517f08c379a00000000000000000000000000000000000000000000000000000000081526004016131a590615381565b60405180910390fd5b83600460009054906101000a900473ffffffffffffffffffffffffffffffffffffffff1673ffffffffffffffffffffffffffffffffffffffff1663a1abffee826040518263ffffffff1660e01b815260040161320a9190614e5e565b60206040518083038186803b15801561322257600080fd5b505afa158015613236573d6000803e3d6000fd5b505050506040513d601f19601f8201168201806040525081019061325a91906142d6565b613299576040517f08c379a0000000000000000000000000000000000000000000000000000000008152600401613290906152c1565b60405180910390fd5b600360009054906101000a900473ffffffffffffffffffffffffffffffffffffffff1673ffffffffffffffffffffffffffffffffffffffff166371499a7b3387878760036040518663ffffffff1660e01b81526004016132fd959493929190614ef5565b600060405180830381600087803b15801561331757600080fd5b505af115801561332b573d6000803e3d6000fd5b50505050600260009054906101000a900473ffffffffffffffffffffffffffffffffffffffff1673ffffffffffffffffffffffffffffffffffffffff1663beabacc83387876040518463ffffffff1660e01b815260040161338e93929190614e79565b600060405180830381600087803b1580156133a857600080fd5b505af11580156133bc573d6000803e3d6000fd5b505050506133cc338560016138be565b7f34f581da021a47386a4d5676be80c680ca6596579bd9f513f3d272b0460359fa3386866040516133ff93929190614e79565b60405180910390a15050505050565b33600460009054906101000a900473ffffffffffffffffffffffffffffffffffffffff1673ffffffffffffffffffffffffffffffffffffffff1663a1abffee826040518263ffffffff1660e01b815260040161346a9190614e5e565b60206040518083038186803b15801561348257600080fd5b505afa158015613496573d6000803e3d6000fd5b505050506040513d601f19601f820116820180604052508101906134ba91906142d6565b6134f9576040517f08c379a00000000000000000000000000000000000000000000000000000000081526004016134f0906152c1565b60405180910390fd5b600360009054906101000a900473ffffffffffffffffffffffffffffffffffffffff1673ffffffffffffffffffffffffffffffffffffffff1663bd53176b336040518263ffffffff1660e01b81526004016135549190614e5e565b600060405180830381600087803b15801561356e57600080fd5b505af1158015613582573d6000803e3d6000fd5b50505050600360009054906101000a900473ffffffffffffffffffffffffffffffffffffffff1673ffffffffffffffffffffffffffffffffffffffff166351685f35336040518263ffffffff1660e01b81526004016135e19190614e5e565b600060405180830381600087803b1580156135fb57600080fd5b505af115801561360f573d6000803e3d6000fd5b50505050600460009054906101000a900473ffffffffffffffffffffffffffffffffffffffff1673ffffffffffffffffffffffffffffffffffffffff1663f849f379336040518263ffffffff1660e01b815260040161366e9190614e5e565b600060405180830381600087803b15801561368857600080fd5b505af115801561369c573d6000803e3d6000fd5b505050507fe5ca53020b6c0ff2116f624b9ca44e320913151f07ce0ac7186a67a5f6885e36336040516136cf9190614e5e565b60405180910390a150565b6000600460009054906101000a900473ffffffffffffffffffffffffffffffffffffffff1673ffffffffffffffffffffffffffffffffffffffff16632330f247336040518263ffffffff1660e01b81526004016137379190614e5e565b60206040518083038186803b15801561374f57600080fd5b505afa158015613763573d6000803e3d6000fd5b505050506040513d601f19601f8201168201806040525081019061378791906142d6565b9050600360009054906101000a900473ffffffffffffffffffffffffffffffffffffffff1673ffffffffffffffffffffffffffffffffffffffff16635d1e792733838787876040518663ffffffff1660e01b81526004016137ec959493929190614f4f565b600060405180830381600087803b15801561380657600080fd5b505af115801561381a573d6000803e3d6000fd5b5050505050505050565b600160008373ffffffffffffffffffffffffffffffffffffffff1673ffffffffffffffffffffffffffffffffffffffff1681526020019081526020016000206000828152602001908152602001600020600080820160006101000a81549073ffffffffffffffffffffffffffffffffffffffff021916905560018201600090556002820160006101000a81549060ff021916905550505050565b600360009054906101000a900473ffffffffffffffffffffffffffffffffffffffff1673ffffffffffffffffffffffffffffffffffffffff166389ed5fa084846040518363ffffffff1660e01b815260040161391b929190615161565b602060405180830381600087803b15801561393557600080fd5b505af1158015613949573d6000803e3d6000fd5b505050506040513d601f19601f8201168201806040525081019061396d91906142d6565b5080613a0357600260009054906101000a900473ffffffffffffffffffffffffffffffffffffffff1673ffffffffffffffffffffffffffffffffffffffff1663fcd3533c83856040518363ffffffff1660e01b81526004016139d092919061541b565b600060405180830381600087803b1580156139ea57600080fd5b505af11580156139fe573d6000803e3d6000fd5b505050505b7f25d4d887d1cdf2f4a7386b7e0d00aa319d66a6963a77083e69758fc3cb1ccebf838383604051613a369392919061518a565b60405180910390a1505050565b600033905090565b60008060009054906101000a900473ffffffffffffffffffffffffffffffffffffffff169050816000806101000a81548173ffffffffffffffffffffffffffffffffffffffff021916908373ffffffffffffffffffffffffffffffffffffffff1602179055508173ffffffffffffffffffffffffffffffffffffffff168173ffffffffffffffffffffffffffffffffffffffff167f8be0079c531659141344cd1fd0a4f28419497f9722a3daafe3b4186f6b6457e060405160405180910390a35050565b6040518060600160405280600073ffffffffffffffffffffffffffffffffffffffff168152602001600081526020016000151581525090565b60405180610140016040528060008152602001600081526020016060815260200160608152602001600081526020016060815260200160608152602001606081526020016060815260200160006003811115613ba757613ba66156b9565b5b81525090565b604051806080016040528060608152602001606081526020016000151581526020016000151581525090565b6000613bec613be7846154a7565b615482565b90508083825260208201905082856020860282011115613c0f57613c0e615726565b5b60005b85811015613c3f5781613c258882613d70565b845260208401935060208301925050600181019050613c12565b5050509392505050565b6000613c5c613c57846154d3565b615482565b90508083825260208201905082856020860282011115613c7f57613c7e615726565b5b60005b85811015613ccd57815167ffffffffffffffff811115613ca557613ca4615717565b5b808601613cb28982613e91565b85526020850194506020840193505050600181019050613c82565b5050509392505050565b6000613cea613ce5846154ff565b615482565b905082815260208101848484011115613d0657613d0561572b565b5b613d11848285615646565b509392505050565b6000613d2c613d27846154ff565b615482565b905082815260208101848484011115613d4857613d4761572b565b5b613d53848285615655565b509392505050565b600081359050613d6a81615965565b92915050565b600081519050613d7f81615965565b92915050565b600082601f830112613d9a57613d99615717565b5b8151613daa848260208601613bd9565b91505092915050565b600082601f830112613dc857613dc7615717565b5b8151613dd8848260208601613c49565b91505092915050565b600081359050613df08161597c565b92915050565b600081519050613e058161597c565b92915050565b600081519050613e1a81615993565b92915050565b600081519050613e2f816159a3565b92915050565b600082601f830112613e4a57613e49615717565b5b8135613e5a848260208601613cd7565b91505092915050565b600082601f830112613e7857613e77615717565b5b8151613e88848260208601613d19565b91505092915050565b60006101408284031215613ea857613ea761571c565b5b613eb3610140615482565b90506000613ec3848285016140f4565b6000830152506020613ed7848285016140f4565b602083015250604082015167ffffffffffffffff811115613efb57613efa615721565b5b613f0784828501613e63565b604083015250606082015167ffffffffffffffff811115613f2b57613f2a615721565b5b613f3784828501613e63565b6060830152506080613f4b848285016140f4565b60808301525060a082015167ffffffffffffffff811115613f6f57613f6e615721565b5b613f7b84828501613e63565b60a08301525060c082015167ffffffffffffffff811115613f9f57613f9e615721565b5b613fab84828501613d85565b60c08301525060e082015167ffffffffffffffff811115613fcf57613fce615721565b5b613fdb84828501613e63565b60e08301525061010082015167ffffffffffffffff81111561400057613fff615721565b5b61400c84828501613e63565b6101008301525061012061402284828501613e0b565b6101208301525092915050565b6000608082840312156140455761404461571c565b5b61404f6080615482565b9050600082015167ffffffffffffffff81111561406f5761406e615721565b5b61407b84828501613e63565b600083015250602082015167ffffffffffffffff81111561409f5761409e615721565b5b6140ab84828501613e63565b60208301525060406140bf84828501613df6565b60408301525060606140d384828501613df6565b60608301525092915050565b6000813590506140ee816159ba565b92915050565b600081519050614103816159ba565b92915050565b60006020828403121561411f5761411e615735565b5b600061412d84828501613d5b565b91505092915050565b60006020828403121561414c5761414b615735565b5b600061415a84828501613d70565b91505092915050565b6000806000806080858703121561417d5761417c615735565b5b600061418b87828801613d5b565b945050602085013567ffffffffffffffff8111156141ac576141ab615730565b5b6141b887828801613e35565b935050604085013567ffffffffffffffff8111156141d9576141d8615730565b5b6141e587828801613e35565b925050606085013567ffffffffffffffff81111561420657614205615730565b5b61421287828801613e35565b91505092959194509250565b60008060006060848603121561423757614236615735565b5b600061424586828701613d5b565b9350506020614256868287016140df565b925050604084013567ffffffffffffffff81111561427757614276615730565b5b61428386828701613e35565b9150509250925092565b6000602082840312156142a3576142a2615735565b5b600082015167ffffffffffffffff8111156142c1576142c0615730565b5b6142cd84828501613db3565b91505092915050565b6000602082840312156142ec576142eb615735565b5b60006142fa84828501613df6565b91505092915050565b60006020828403121561431957614318615735565b5b600061432784828501613e20565b91505092915050565b60006020828403121561434657614345615735565b5b600082013567ffffffffffffffff81111561436457614363615730565b5b61437084828501613e35565b91505092915050565b60006020828403121561438f5761438e615735565b5b600082015167ffffffffffffffff8111156143ad576143ac615730565b5b6143b984828501613e63565b91505092915050565b6000806000606084860312156143db576143da615735565b5b600084013567ffffffffffffffff8111156143f9576143f8615730565b5b61440586828701613e35565b935050602084013567ffffffffffffffff81111561442657614425615730565b5b61443286828701613e35565b925050604084013567ffffffffffffffff81111561445357614452615730565b5b61445f86828701613e35565b9150509250925092565b600080600080600080600060e0888a03121561448857614487615735565b5b600088013567ffffffffffffffff8111156144a6576144a5615730565b5b6144b28a828b01613e35565b975050602088013567ffffffffffffffff8111156144d3576144d2615730565b5b6144df8a828b01613e35565b965050604088013567ffffffffffffffff811115614500576144ff615730565b5b61450c8a828b01613e35565b955050606061451d8a828b016140df565b945050608088013567ffffffffffffffff81111561453e5761453d615730565b5b61454a8a828b01613e35565b93505060a088013567ffffffffffffffff81111561456b5761456a615730565b5b6145778a828b01613e35565b92505060c088013567ffffffffffffffff81111561459857614597615730565b5b6145a48a828b01613e35565b91505092959891949750929550565b6000602082840312156145c9576145c8615735565b5b600082015167ffffffffffffffff8111156145e7576145e6615730565b5b6145f384828501613e91565b91505092915050565b60006020828403121561461257614611615735565b5b600082015167ffffffffffffffff8111156146305761462f615730565b5b61463c8482850161402f565b91505092915050565b60006020828403121561465b5761465a615735565b5b6000614669848285016140df565b91505092915050565b60006020828403121561468857614687615735565b5b6000614696848285016140f4565b91505092915050565b6000806000606084860312156146b8576146b7615735565b5b60006146c6868287016140df565b93505060206146d786828701613d5b565b925050604084013567ffffffffffffffff8111156146f8576146f7615730565b5b61470486828701613e35565b9150509250925092565b6000806040838503121561472557614724615735565b5b6000614733858286016140df565b925050602061474485828601613de1565b9150509250929050565b60008060006060848603121561476757614766615735565b5b6000614775868287016140df565b935050602084013567ffffffffffffffff81111561479657614795615730565b5b6147a286828701613e35565b92505060406147b386828701613d5b565b9150509250925092565b6000806000606084860312156147d6576147d5615735565b5b60006147e4868287016140df565b935050602084013567ffffffffffffffff81111561480557614804615730565b5b61481186828701613e35565b925050604061482286828701613de1565b9150509250925092565b60008060006060848603121561484557614844615735565b5b6000614853868287016140df565b935050602084013567ffffffffffffffff81111561487457614873615730565b5b61488086828701613e35565b925050604084013567ffffffffffffffff8111156148a1576148a0615730565b5b6148ad86828701613e35565b9150509250925092565b60006148c383836148e3565b60208301905092915050565b60006148db8383614bdc565b905092915050565b6148ec816155cf565b82525050565b6148fb816155cf565b82525050565b600061490c82615550565b614916818561558b565b935061492183615530565b8060005b8381101561495257815161493988826148b7565b975061494483615571565b925050600181019050614925565b5085935050505092915050565b600061496a8261555b565b614974818561559c565b93508360208202850161498685615540565b8060005b858110156149c257848403895281516149a385826148cf565b94506149ae8361557e565b925060208a0199505060018101905061498a565b50829750879550505050505092915050565b6149dd816155e1565b82525050565b6149ec816155e1565b82525050565b6149fb81615634565b82525050565b614a0a81615634565b82525050565b6000614a1b82615566565b614a2581856155ad565b9350614a35818560208601615655565b614a3e8161573a565b840191505092915050565b6000614a5482615566565b614a5e81856155be565b9350614a6e818560208601615655565b614a778161573a565b840191505092915050565b6000614a8f6028836155be565b9150614a9a8261574b565b604082019050919050565b6000614ab26026836155be565b9150614abd8261579a565b604082019050919050565b6000614ad5602b836155be565b9150614ae0826157e9565b604082019050919050565b6000614af8602d836155be565b9150614b0382615838565b604082019050919050565b6000614b1b6020836155be565b9150614b2682615887565b602082019050919050565b6000614b3e6031836155be565b9150614b49826158b0565b604082019050919050565b6000614b616000836155be565b9150614b6c826158ff565b600082019050919050565b6000614b846029836155be565b9150614b8f82615902565b604082019050919050565b606082016000820151614bb060008501826148e3565b506020820151614bc36020850182614e40565b506040820151614bd660408501826149d4565b50505050565b600061014083016000830151614bf56000860182614e40565b506020830151614c086020860182614e40565b5060408301518482036040860152614c208282614a10565b91505060608301518482036060860152614c3a8282614a10565b9150506080830151614c4f6080860182614e40565b5060a083015184820360a0860152614c678282614a10565b91505060c083015184820360c0860152614c818282614901565b91505060e083015184820360e0860152614c9b8282614a10565b915050610100830151848203610100860152614cb78282614a10565b915050610120830151614cce6101208601826149f2565b508091505092915050565b600061014083016000830151614cf26000860182614e40565b506020830151614d056020860182614e40565b5060408301518482036040860152614d1d8282614a10565b91505060608301518482036060860152614d378282614a10565b9150506080830151614d4c6080860182614e40565b5060a083015184820360a0860152614d648282614a10565b91505060c083015184820360c0860152614d7e8282614901565b91505060e083015184820360e0860152614d988282614a10565b915050610100830151848203610100860152614db48282614a10565b915050610120830151614dcb6101208601826149f2565b508091505092915050565b60006080830160008301518482036000860152614df38282614a10565b91505060208301518482036020860152614e0d8282614a10565b9150506040830151614e2260408601826149d4565b506060830151614e3560608601826149d4565b508091505092915050565b614e498161562a565b82525050565b614e588161562a565b82525050565b6000602082019050614e7360008301846148f2565b92915050565b6000606082019050614e8e60008301866148f2565b614e9b60208301856148f2565b614ea86040830184614e4f565b949350505050565b6000608082019050614ec560008301876148f2565b614ed260208301866148f2565b614edf6040830185614e4f565b614eec60608301846149e3565b95945050505050565b600060a082019050614f0a60008301886148f2565b614f1760208301876148f2565b614f246040830186614e4f565b8181036060830152614f368185614a49565b9050614f456080830184614a01565b9695505050505050565b600060a082019050614f6460008301886148f2565b614f7160208301876149e3565b614f7e60408301866148f2565b614f8b6060830185614e4f565b8181036080830152614f9d8184614a49565b90509695505050505050565b600060a082019050614fbe60008301886148f2565b614fcb6020830187614a01565b614fd86040830186614a01565b614fe56060830185614e4f565b8181036080830152614ff78184614a49565b90509695505050505050565b600060a08201905061501860008301876148f2565b6150256020830186614a01565b6150326040830185614a01565b61503f6060830184614e4f565b818103608083015261505081614b54565b905095945050505050565b600060608201905061507060008301866148f2565b61507d6020830185614a01565b61508a6040830184614e4f565b949350505050565b60006040820190506150a760008301856148f2565b81810360208301526150b98184614a49565b90509392505050565b60006060820190506150d760008301866148f2565b81810360208301526150e98185614a49565b905081810360408301526150fd8184614a49565b9050949350505050565b600060808201905061511c60008301876148f2565b818103602083015261512e8186614a49565b905081810360408301526151428185614a49565b905081810360608301526151568184614a49565b905095945050505050565b600060408201905061517660008301856148f2565b6151836020830184614e4f565b9392505050565b600060608201905061519f60008301866148f2565b6151ac6020830185614e4f565b6151b960408301846149e3565b949350505050565b6000610100820190506151d7600083018b6148f2565b6151e4602083018a614e4f565b81810360408301526151f68189614a49565b9050818103606083015261520a8188614a49565b90506152196080830187614e4f565b81810360a083015261522b8186614a49565b905081810360c083015261523f8185614a49565b905081810360e08301526152538184614a49565b90509998505050505050505050565b6000602082019050818103600083015261527c818461495f565b905092915050565b600060208201905061529960008301846149e3565b92915050565b600060208201905081810360008301526152b98184614a49565b905092915050565b600060208201905081810360008301526152da81614a82565b9050919050565b600060208201905081810360008301526152fa81614aa5565b9050919050565b6000602082019050818103600083015261531a81614ac8565b9050919050565b6000602082019050818103600083015261533a81614aeb565b9050919050565b6000602082019050818103600083015261535a81614b0e565b9050919050565b6000602082019050818103600083015261537a81614b31565b9050919050565b6000602082019050818103600083015261539a81614b77565b9050919050565b60006060820190506153b66000830184614b9a565b92915050565b600060208201905081810360008301526153d68184614cd9565b905092915050565b600060208201905081810360008301526153f88184614dd6565b905092915050565b60006020820190506154156000830184614e4f565b92915050565b60006040820190506154306000830185614e4f565b61543d60208301846148f2565b9392505050565b60006060820190506154596000830186614e4f565b818103602083015261546b8185614a49565b905061547a60408301846148f2565b949350505050565b600061548c61549d565b90506154988282615688565b919050565b6000604051905090565b600067ffffffffffffffff8211156154c2576154c16156e8565b5b602082029050602081019050919050565b600067ffffffffffffffff8211156154ee576154ed6156e8565b5b602082029050602081019050919050565b600067ffffffffffffffff82111561551a576155196156e8565b5b6155238261573a565b9050602081019050919050565b6000819050602082019050919050565b6000819050602082019050919050565b600081519050919050565b600081519050919050565b600081519050919050565b6000602082019050919050565b6000602082019050919050565b600082825260208201905092915050565b600082825260208201905092915050565b600082825260208201905092915050565b600082825260208201905092915050565b60006155da8261560a565b9050919050565b60008115159050919050565b60008190506155fb82615951565b919050565b6000819050919050565b600073ffffffffffffffffffffffffffffffffffffffff82169050919050565b6000819050919050565b600061563f826155ed565b9050919050565b82818337600083830152505050565b60005b83811015615673578082015181840152602081019050615658565b83811115615682576000848401525b50505050565b6156918261573a565b810181811067ffffffffffffffff821117156156b0576156af6156e8565b5b80604052505050565b7f4e487b7100000000000000000000000000000000000000000000000000000000600052602160045260246000fd5b7f4e487b7100000000000000000000000000000000000000000000000000000000600052604160045260246000fd5b600080fd5b600080fd5b600080fd5b600080fd5b600080fd5b600080fd5b600080fd5b6000601f19601f8301169050919050565b7f53617665446f633a204365747465207574696c69736174657572206e2765786960008201527f737465207061732e000000000000000000000000000000000000000000000000602082015250565b7f4f776e61626c653a206e6577206f776e657220697320746865207a65726f206160008201527f6464726573730000000000000000000000000000000000000000000000000000602082015250565b7f536176446f633a204c612064656d616e6465206465206365727469666963617460008201527f696f6e206578697374652e000000000000000000000000000000000000000000602082015250565b7f53617665446f633a20566f7573206e276176657a2070617320646520636f706960008201527f652061207375707072696d657200000000000000000000000000000000000000602082015250565b7f4f776e61626c653a2063616c6c6572206973206e6f7420746865206f776e6572600082015250565b7f536176446f633a204c612064656d616e6465206465206365727469666963617460008201527f696f6e206e27657869737465207061732e000000000000000000000000000000602082015250565b50565b7f53617665446f633a20436574204e4654206e6520766f7573206170706172746960008201527f656e742070617320210000000000000000000000000000000000000000000000602082015250565b60048110615962576159616156b9565b5b50565b61596e816155cf565b811461597957600080fd5b50565b615985816155e1565b811461599057600080fd5b50565b600481106159a057600080fd5b50565b6159ac81615600565b81146159b757600080fd5b50565b6159c38161562a565b81146159ce57600080fd5b5056fea2646970667358221220e1b24bb93cc4f779ea32bbefffdae510cc2924e6e6e3fcc87f678291fd630f2a64736f6c63430008060033",
  "immutableReferences": {},
  "source": "// SPDX-License-Identifier: MIT\npragma solidity 0.8.6;\n\nimport \"@openzeppelin/contracts/access/Ownable.sol\";\nimport \"./AccountManager.sol\";\nimport \"./DocManager.sol\";\nimport \"./SaveDocToken.sol\";\nimport \"./SaveDocStruct.sol\";\n\n/**\n * @title SAV Doc\n * @notice Contract used to secure, transfer, share and certify document\n * @dev Main contract of SAV Doc\n */\ncontract SaveDoc is Ownable, SaveDocStruct\n{\n    mapping(address => mapping(uint256 => CertificationRequest)) private requests;\n    SaveDocToken private saveDocToken;\n    DocManager private docManager;\n    AccountManager private accountManager;\n\n    /**\n     * @dev Create new Sav Doc contract\n     * @param _docManager address of DocManager contract\n     * @param _saveDocToken address of SaveDocToken contract\n     * @param _accountManager address of AccountManager contract\n     */\n    constructor(DocManager _docManager, SaveDocToken _saveDocToken, AccountManager _accountManager)\n    {\n        docManager = _docManager;\n        saveDocToken = _saveDocToken;\n        accountManager = _accountManager;\n    }\n\n    event Subscribe(address newUser, string name, string pubkey);\n    event SubscribeAuthority(address newUser, string pubkey);\n    event ChangeUsername(address user, string newUsername);\n    event Unsubcribe(address user);\n    event SecureDocument(address user, uint256 tokenID);\n    event DeleteDocumment(address ownerDoc, uint256 tokenID, bool forTransfer);\n    event TransferDocument(address from, address to, uint256 tokenID);\n    event ShareDoc(address from, address to, uint256 tokenID);\n    event AcceptTransferDoc(address newOwner, uint256 tokenID);\n    event DeleteMyDocCopy(address ownerDoc, uint256 tokenID);\n    event RequestCertification(address applicant, uint256 tokenID);\n    event AcceptCertificationRequest(address certifying, address applicant, uint256 tokenID, bool keepCopy);\n    event RejectCertificationRequest(address certifying, address applicant, uint256 tokenID);\n\n    /**\n     * @dev modifier to check if token is owned by sender\n     * @param tokenID ID of token\n     */\n    modifier isMyToken(uint256 tokenID)\n    {\n        require(saveDocToken.ownerOf(tokenID) == msg.sender, \"SaveDoc: Cet NFT ne vous appartient pas !\");\n        _;\n    }\n\n    /**\n     * @dev modifier to check if user exists\n     * @param addressUser address of user\n     */\n    modifier userExist(address addressUser)\n    {\n        require(accountManager.checkIfUserExist(addressUser), \"SaveDoc: Cette utilisateur n'existe pas.\");\n        _;\n    }\n\n    /**\n     * @dev modifier to check if `_certifying` already receive a certification request\n     * @param _certifying _certifying of document\n     * @param _tokenID ID of token\n     */\n    modifier requestExist(address _certifying, uint256 _tokenID)\n    {\n        require(requests[_certifying][_tokenID].exist, \"SavDoc: La demande de certification n'existe pas.\");\n        _;\n    }\n\n    /**\n     * @dev modifier to check if `_certifying` not already receive a certification request\n     * @param _certifying _certifying of document\n     * @param _tokenID ID of token\n     */\n    modifier requestNotExist(address _certifying, uint256 _tokenID)\n    {\n        require(!requests[_certifying][_tokenID].exist, \"SavDoc: La demande de certification existe.\");\n        _;\n    }\n\n    /**\n     * @notice Subscribe to SAV Doc as user\n     * @dev Create new user (emits a Subscribe event)\n     * @param name name of user\n     * @param pubKey public key of user\n     * @param passwordMaster password master of user\n     */\n    function subscribe(string memory name, string memory pubKey, string memory passwordMaster) external\n    {\n        accountManager.addUser(msg.sender, name, pubKey, passwordMaster);\n        emit Subscribe(msg.sender, name, pubKey);\n    }\n\n    /**\n     * @dev Create new authority (emits a SubscribeAuthority event)\n     * @param authority address of authority\n     * @param name name of authority\n     * @param pubKey public key of authority\n     * @param passwordMaster password master of authority\n     */\n    function subscribeAuthority(address authority,string memory name, string memory pubKey, string memory passwordMaster) onlyOwner() external\n    {\n        accountManager.addAuthority(authority, name, pubKey, passwordMaster);\n        emit SubscribeAuthority(authority, pubKey);\n    }\n\n    /**\n     * @notice View my informations\n     * @dev Get sender user informations\n     * @return user informations\n     */\n    function viewMyProfil() view external userExist(msg.sender) returns(User memory)\n    {\n        return accountManager.getUser(msg.sender);\n    }\n\n    /**\n     * @notice View informations of user by address\n     * @dev Get informations of user\n     * @param _address address of user\n     * @return user informations of `address`\n     */\n    function viewProfil(address _address) view external returns(User memory)\n    {\n        return accountManager.getUser(_address);\n    }\n\n    /**\n     * @notice Get my password master\n     * @dev Get password master of sender\n     * @return password master of sender\n     */\n    function getMyPasswordMaster() view external returns(string memory)\n    {\n        return accountManager.getPasswordMaster(msg.sender);\n    }\n\n    /**\n     * @notice Set my name\n     * @dev Set user name of sender (emits a ChangeUsername event)\n     * @param name new name of user\n     */\n    function changeMyName(string memory name) external\n    {\n        accountManager.setUser(msg.sender, name);\n        emit ChangeUsername(msg.sender, name);\n    }\n\n    /**\n     * @notice Delete my account\n     * @dev Remove account of sender (emits a Unsubcribe event)\n     */\n    function unsubscribe() external userExist(msg.sender)\n    {\n        docManager.deleteAllDocs(msg.sender);\n        docManager.delAllCopyDoc(msg.sender);\n        accountManager.delUser(msg.sender);\n        emit Unsubcribe(msg.sender);\n    }\n\n    /**\n     * @notice Secure a document\n     * @dev Secure a document (emits a SecureDocument event)\n     * @param tokenName name of document\n     * @param tokenURI URI of token\n     * @param tokenMime mime type of document\n     * @param tokenLength size (in bytes) of document\n     * @param filePath folder of document\n     * @param passwordEncrypted encrypted password of document\n     * @param hashNFT hash of document\n     * @return secured document informations\n     */\n    function secureDocument(string memory tokenName, string memory tokenURI, string memory tokenMime, uint256 tokenLength, string memory filePath, string memory passwordEncrypted, string memory hashNFT) external userExist(msg.sender) returns (Document memory)\n    {\n        uint256 tokenID;\n        Document memory document;\n\n        tokenID = saveDocToken.mint(msg.sender, tokenURI);\n        document = docManager.createDoc(msg.sender, tokenID, tokenName, tokenMime, tokenLength, filePath, passwordEncrypted, hashNFT);\n        emit SecureDocument(msg.sender, tokenID);\n\n       return document;\n    }\n\n    /**\n     * @notice Delete a secured document by tokenID\n     * @dev Delete a secured document of sender by tokenID (see _delMyDocument function) (emits a DeleteDocumment event)\n     * @param tokenID ID of token\n     * @param forTransfer true to burn token\n     */\n    function delMyDocument(uint256 tokenID, bool forTransfer) external isMyToken(tokenID)\n    {\n        _delMyDocument(msg.sender, tokenID, forTransfer);\n    }\n\n    /**\n     * @dev Delete a secured document of `ownerDoc` by tokenID (emits a DeleteDocumment event)\n     * @param ownerDoc owner of document\n     * @param tokenID ID of token\n     * @param forTransfer true to burn token\n     */\n    function _delMyDocument(address ownerDoc, uint256 tokenID, bool forTransfer) private\n    {\n        docManager.deleteDoc(ownerDoc, tokenID);\n\n        if (!forTransfer)\n        {\n            saveDocToken.burn(tokenID, ownerDoc);\n        }\n        emit DeleteDocumment(ownerDoc, tokenID, forTransfer);\n    }\n\n    /**\n     * @notice Get token URI of document\n     * @dev Get token URI of document\n     * @param tokenID ID of token\n     * @return token URI of document\n     */\n    function getTokenURI(uint256 tokenID) external view isMyToken(tokenID) returns(string memory)\n    {\n        return saveDocToken.tokenURI(tokenID);\n    }\n\n    /**\n     * @notice Transfer my secured document\n     * @dev Transfer a secured document (emits a TransferDocument event)\n     * @param to recipient of document\n     * @param tokenID ID of token\n     * @param tokenURITmp token URI to make the document visible by `to`\n     */\n    function transferDoc(address to, uint256 tokenID, string memory tokenURITmp) external isMyToken(tokenID) userExist(to)\n    {\n        docManager.createCopyDoc(msg.sender, to, tokenID, tokenURITmp, TypeDoc.CopyPendingTransfer);\n        saveDocToken.transfer(msg.sender, to, tokenID);\n        _delMyDocument(msg.sender, tokenID, true);\n        emit TransferDocument(msg.sender, to, tokenID);\n    }\n\n    /**\n     * @notice Share my secured document\n     * @dev Share a secured document (emits a ShareDoc event)\n     * @param tokenID ID of token\n     * @param to recipient of document\n     * @param tokenURI token URI to make the document visible by `to`\n     */\n    function shareDoc(uint256 tokenID, address to, string memory tokenURI) external isMyToken(tokenID) userExist(to)\n    {\n        docManager.createCopyDoc(msg.sender, to, tokenID, tokenURI, TypeDoc.CopyShared);\n        emit ShareDoc(msg.sender, to, tokenID);\n    }\n\n    /**\n     * @notice Accept a transfered document\n     * @dev Accept a transfered document (emits a AcceptTransferDoc event)\n     * @param tokenID ID of token\n     * @param newTokenURI URI of token\n     * @param passwordEncrypted encrypted password of document\n     */\n    function acceptNewDoc(uint256 tokenID, string memory newTokenURI, string memory passwordEncrypted) external isMyToken(tokenID)\n    {\n        docManager.convertTypeDoc(msg.sender, TypeDoc.CopyPendingTransfer, TypeDoc.Original, tokenID, passwordEncrypted);\n        saveDocToken.setTokenURI(tokenID, newTokenURI, msg.sender);\n        emit AcceptTransferDoc(msg.sender, tokenID);\n    }\n\n    /**\n     * @notice Delete a shared document\n     * @dev Delete a shared document (emits a DeleteMyDocCopy event)\n     * @param tokenID ID of token\n     */\n    function delCopyDocShared(uint tokenID) external\n    {\n        int256 index = docManager.getIndexNFT(msg.sender, TypeDoc.CopyShared, tokenID);\n        require(index > -1, \"SaveDoc: Vous n'avez pas de copie a supprimer\");\n\n        docManager.delCopyDoc(msg.sender, TypeDoc.CopyShared, uint256(index));\n        emit DeleteMyDocCopy(msg.sender, tokenID);\n    }\n\n    /**\n     * @notice Send nex certification request\n     * @dev Send nex certification request (emits a RequestCertification event)\n     * @param _tokenID ID of document\n     * @param _tokenURI URI of document\n     * @param _certifying recipent of request\n     */\n    function requestCertification(uint256 _tokenID, string memory _tokenURI, address _certifying) isMyToken(_tokenID) external userExist(_certifying) requestNotExist(_certifying, _tokenID)\n    {\n        docManager.createCopyDoc(msg.sender, _certifying, _tokenID, _tokenURI, TypeDoc.CopyCertified);\n\n        requests[_certifying][_tokenID].applicant = msg.sender;\n        requests[_certifying][_tokenID].tokenID = _tokenID;\n        requests[_certifying][_tokenID].exist = true;\n\n        emit RequestCertification(requests[_certifying][_tokenID].applicant, requests[_certifying][_tokenID].tokenID);\n    }\n\n    /**\n     * @notice View all my secured documents\n     * @dev get all secured document of sender\n     * @return secured documents\n     */\n    function viewMyDocs() view external userExist(msg.sender) returns(Document[] memory)\n    {\n        return docManager.getDocs(msg.sender);\n    }\n\n    /**\n     * @notice View all my shared documents\n     * @dev get all shared document of sender\n     * @return shared documents\n     */\n    function viewMyCopyDocs() view external userExist(msg.sender) returns(Document[] memory)\n    {\n        return docManager.getAllCopyShared(msg.sender);\n    }\n\n    /**\n     * @notice View all my documents being transferred\n     * @dev get all documents being transferred of sender\n     * @return documents being transferred\n     */\n    function viewDocPendingTransfer() view external userExist(msg.sender) returns(Document[] memory)\n    {\n        return docManager.getAllCopyPendingTransfer(msg.sender);\n    }\n\n    /**\n     * @notice View all my certified documents\n     * @dev get all certified document of sender\n     * @return certified documents\n     */\n    function viewDocCertified() view external userExist(msg.sender) returns(Document[] memory)\n    {\n        return docManager.getAllCopyCertified(msg.sender);\n    }\n\n    /**\n     * @notice View one of all certification requests of document\n     * @dev Get certification request of document by token ID\n     * @param _tokenID ID of token\n     * @return certification request\n     */\n    function viewCertificationRequest(uint256 _tokenID) requestExist(msg.sender, _tokenID) view external returns(CertificationRequest memory)\n    {\n        return requests[msg.sender][_tokenID];\n    }\n\n    /**\n     * @dev Delete certification request\n     * @param _certifying certifying of document\n     * @param _tokenID ID of token\n     */\n    function delRequest(address _certifying, uint256 _tokenID) private\n    {\n        delete requests[_certifying][_tokenID];\n    }\n\n    /**\n     * @dev Certify a document\n     * @param applicant owner of document\n     * @param tokenID ID of token\n     * @param hashNFT hash of document\n     */\n    function certifyDocument(address applicant, uint256 tokenID, string memory hashNFT) private\n    {\n        bool isAuthority;\n\n        isAuthority = accountManager.isAuthority(msg.sender);\n        docManager.certify(msg.sender, isAuthority, applicant, tokenID, hashNFT);\n    }\n\n    /**\n     * @notice Accept a certification request\n     * @dev Accept a certification request (emits a AcceptCertificationRequest event)\n     * @param _tokenID ID of token\n     * @param _hashNFT hash of document\n     * @param _keepCopyDoc true if sender want to keep a copy of document\n     */\n    function acceptCertificationRequest(uint256 _tokenID, string memory _hashNFT, bool _keepCopyDoc) requestExist(msg.sender, _tokenID) userExist(msg.sender) public\n    {\n        CertificationRequest memory request = requests[msg.sender][_tokenID];\n        int256 index = docManager.getIndexNFT(msg.sender, TypeDoc.CopyCertified, request.tokenID);\n        certifyDocument(request.applicant, request.tokenID, _hashNFT);\n        delRequest(msg.sender, request.tokenID);\n\n        if (_keepCopyDoc) {\n            docManager.convertTypeDoc(msg.sender, TypeDoc.CopyCertified, TypeDoc.CopyShared, request.tokenID, \"\");\n        } else {\n            docManager.delCopyDoc(msg.sender, TypeDoc.CopyCertified, uint256(index));\n        }\n\n        emit AcceptCertificationRequest(msg.sender, request.applicant, request.tokenID, _keepCopyDoc);\n    }\n\n    /**\n     * @notice Reject a certification request\n     * @dev Reject a certification request (emits a RejectCertificationRequest event)\n     * @param _tokenID ID of token\n     */\n    function rejectCertificationRequest(uint256 _tokenID) requestExist(msg.sender, _tokenID) external\n    {\n        CertificationRequest memory request = requests[msg.sender][_tokenID];\n        int256 index = docManager.getIndexNFT(msg.sender, TypeDoc.CopyCertified, request.tokenID);\n        delRequest(msg.sender, _tokenID);\n        docManager.delCopyDoc(msg.sender, TypeDoc.CopyCertified, uint256(index));\n\n        emit RejectCertificationRequest(msg.sender, request.applicant, request.tokenID);\n    }\n\n    /**\n     * @notice Check if token exist\n     * @dev Check if token exist\n     * @param tokenID ID of token\n     * @return true if token exists\n     */\n    function tokenExist(uint256 tokenID) view onlyOwner() public returns(bool)\n    {\n        return saveDocToken.exist(tokenID);\n    }\n}\n",
  "sourcePath": "/home/traore/projects/SAV-Doc/contracts/SaveDoc.sol",
  "compiler": {
    "name": "solc",
    "version": "0.8.6+commit.11564f7e.Emscripten.clang"
  },
  "schemaVersion": "3.4.1",
  "updatedAt": "2021-08-09T15:20:32.257Z",
  "networkType": "ethereum",
  "devdoc": {
    "details": "Main contract of SAV Doc",
    "kind": "dev",
    "methods": {
      "acceptCertificationRequest(uint256,string,bool)": {
        "details": "Accept a certification request (emits a AcceptCertificationRequest event)",
        "params": {
          "_hashNFT": "hash of document",
          "_keepCopyDoc": "true if sender want to keep a copy of document",
          "_tokenID": "ID of token"
        }
      },
      "acceptNewDoc(uint256,string,string)": {
        "details": "Accept a transfered document (emits a AcceptTransferDoc event)",
        "params": {
          "newTokenURI": "URI of token",
          "passwordEncrypted": "encrypted password of document",
          "tokenID": "ID of token"
        }
      },
      "changeMyName(string)": {
        "details": "Set user name of sender (emits a ChangeUsername event)",
        "params": {
          "name": "new name of user"
        }
      },
      "constructor": {
        "details": "Create new Sav Doc contract",
        "params": {
          "_accountManager": "address of AccountManager contract",
          "_docManager": "address of DocManager contract",
          "_saveDocToken": "address of SaveDocToken contract"
        }
      },
      "delCopyDocShared(uint256)": {
        "details": "Delete a shared document (emits a DeleteMyDocCopy event)",
        "params": {
          "tokenID": "ID of token"
        }
      },
      "delMyDocument(uint256,bool)": {
        "details": "Delete a secured document of sender by tokenID (see _delMyDocument function) (emits a DeleteDocumment event)",
        "params": {
          "forTransfer": "true to burn token",
          "tokenID": "ID of token"
        }
      },
      "getMyPasswordMaster()": {
        "details": "Get password master of sender",
        "returns": {
          "_0": "password master of sender"
        }
      },
      "getTokenURI(uint256)": {
        "details": "Get token URI of document",
        "params": {
          "tokenID": "ID of token"
        },
        "returns": {
          "_0": "token URI of document"
        }
      },
      "owner()": {
        "details": "Returns the address of the current owner."
      },
      "rejectCertificationRequest(uint256)": {
        "details": "Reject a certification request (emits a RejectCertificationRequest event)",
        "params": {
          "_tokenID": "ID of token"
        }
      },
      "renounceOwnership()": {
        "details": "Leaves the contract without owner. It will not be possible to call `onlyOwner` functions anymore. Can only be called by the current owner. NOTE: Renouncing ownership will leave the contract without an owner, thereby removing any functionality that is only available to the owner."
      },
      "requestCertification(uint256,string,address)": {
        "details": "Send nex certification request (emits a RequestCertification event)",
        "params": {
          "_certifying": "recipent of request",
          "_tokenID": "ID of document",
          "_tokenURI": "URI of document"
        }
      },
      "secureDocument(string,string,string,uint256,string,string,string)": {
        "details": "Secure a document (emits a SecureDocument event)",
        "params": {
          "filePath": "folder of document",
          "hashNFT": "hash of document",
          "passwordEncrypted": "encrypted password of document",
          "tokenLength": "size (in bytes) of document",
          "tokenMime": "mime type of document",
          "tokenName": "name of document",
          "tokenURI": "URI of token"
        },
        "returns": {
          "_0": "secured document informations"
        }
      },
      "shareDoc(uint256,address,string)": {
        "details": "Share a secured document (emits a ShareDoc event)",
        "params": {
          "to": "recipient of document",
          "tokenID": "ID of token",
          "tokenURI": "token URI to make the document visible by `to`"
        }
      },
      "subscribe(string,string,string)": {
        "details": "Create new user (emits a Subscribe event)",
        "params": {
          "name": "name of user",
          "passwordMaster": "password master of user",
          "pubKey": "public key of user"
        }
      },
      "subscribeAuthority(address,string,string,string)": {
        "details": "Create new authority (emits a SubscribeAuthority event)",
        "params": {
          "authority": "address of authority",
          "name": "name of authority",
          "passwordMaster": "password master of authority",
          "pubKey": "public key of authority"
        }
      },
      "tokenExist(uint256)": {
        "details": "Check if token exist",
        "params": {
          "tokenID": "ID of token"
        },
        "returns": {
          "_0": "true if token exists"
        }
      },
      "transferDoc(address,uint256,string)": {
        "details": "Transfer a secured document (emits a TransferDocument event)",
        "params": {
          "to": "recipient of document",
          "tokenID": "ID of token",
          "tokenURITmp": "token URI to make the document visible by `to`"
        }
      },
      "transferOwnership(address)": {
        "details": "Transfers ownership of the contract to a new account (`newOwner`). Can only be called by the current owner."
      },
      "unsubscribe()": {
        "details": "Remove account of sender (emits a Unsubcribe event)"
      },
      "viewCertificationRequest(uint256)": {
        "details": "Get certification request of document by token ID",
        "params": {
          "_tokenID": "ID of token"
        },
        "returns": {
          "_0": "certification request"
        }
      },
      "viewDocCertified()": {
        "details": "get all certified document of sender",
        "returns": {
          "_0": "certified documents"
        }
      },
      "viewDocPendingTransfer()": {
        "details": "get all documents being transferred of sender",
        "returns": {
          "_0": "documents being transferred"
        }
      },
      "viewMyCopyDocs()": {
        "details": "get all shared document of sender",
        "returns": {
          "_0": "shared documents"
        }
      },
      "viewMyDocs()": {
        "details": "get all secured document of sender",
        "returns": {
          "_0": "secured documents"
        }
      },
      "viewMyProfil()": {
        "details": "Get sender user informations",
        "returns": {
          "_0": "user informations"
        }
      },
      "viewProfil(address)": {
        "details": "Get informations of user",
        "params": {
          "_address": "address of user"
        },
        "returns": {
          "_0": "user informations of `address`"
        }
      }
    },
    "title": "SAV Doc",
    "version": 1
  },
  "userdoc": {
    "kind": "user",
    "methods": {
      "acceptCertificationRequest(uint256,string,bool)": {
        "notice": "Accept a certification request"
      },
      "acceptNewDoc(uint256,string,string)": {
        "notice": "Accept a transfered document"
      },
      "changeMyName(string)": {
        "notice": "Set my name"
      },
      "delCopyDocShared(uint256)": {
        "notice": "Delete a shared document"
      },
      "delMyDocument(uint256,bool)": {
        "notice": "Delete a secured document by tokenID"
      },
      "getMyPasswordMaster()": {
        "notice": "Get my password master"
      },
      "getTokenURI(uint256)": {
        "notice": "Get token URI of document"
      },
      "rejectCertificationRequest(uint256)": {
        "notice": "Reject a certification request"
      },
      "requestCertification(uint256,string,address)": {
        "notice": "Send nex certification request"
      },
      "secureDocument(string,string,string,uint256,string,string,string)": {
        "notice": "Secure a document"
      },
      "shareDoc(uint256,address,string)": {
        "notice": "Share my secured document"
      },
      "subscribe(string,string,string)": {
        "notice": "Subscribe to SAV Doc as user"
      },
      "tokenExist(uint256)": {
        "notice": "Check if token exist"
      },
      "transferDoc(address,uint256,string)": {
        "notice": "Transfer my secured document"
      },
      "unsubscribe()": {
        "notice": "Delete my account"
      },
      "viewCertificationRequest(uint256)": {
        "notice": "View one of all certification requests of document"
      },
      "viewDocCertified()": {
        "notice": "View all my certified documents"
      },
      "viewDocPendingTransfer()": {
        "notice": "View all my documents being transferred"
      },
      "viewMyCopyDocs()": {
        "notice": "View all my shared documents"
      },
      "viewMyDocs()": {
        "notice": "View all my secured documents"
      },
      "viewMyProfil()": {
        "notice": "View my informations"
      },
      "viewProfil(address)": {
        "notice": "View informations of user by address"
      }
    },
    "notice": "Contract used to secure, transfer, share and certify document",
    "version": 1
  }
}