{
  "contractName": "SaveDoc",
  "abi": [
    {
      "inputs": [
        {
          "internalType": "contract DocManager",
          "name": "_docManager",
          "type": "address"
        },
        {
          "internalType": "contract SaveDocToken",
          "name": "_saveDocToken",
          "type": "address"
        },
        {
          "internalType": "contract AccountManager",
          "name": "_accountManager",
          "type": "address"
        }
      ],
      "stateMutability": "nonpayable",
      "type": "constructor"
    },
    {
      "anonymous": false,
      "inputs": [
        {
          "indexed": false,
          "internalType": "address",
          "name": "certifying",
          "type": "address"
        },
        {
          "indexed": false,
          "internalType": "address",
          "name": "applicant",
          "type": "address"
        },
        {
          "indexed": false,
          "internalType": "uint256",
          "name": "tokenID",
          "type": "uint256"
        },
        {
          "indexed": false,
          "internalType": "bool",
          "name": "keepCopy",
          "type": "bool"
        }
      ],
      "name": "AcceptCertificationRequest",
      "type": "event"
    },
    {
      "anonymous": false,
      "inputs": [
        {
          "indexed": false,
          "internalType": "address",
          "name": "newOwner",
          "type": "address"
        },
        {
          "indexed": false,
          "internalType": "uint256",
          "name": "tokenID",
          "type": "uint256"
        }
      ],
      "name": "AcceptTransferDoc",
      "type": "event"
    },
    {
      "anonymous": false,
      "inputs": [
        {
          "indexed": false,
          "internalType": "address",
          "name": "user",
          "type": "address"
        },
        {
          "indexed": false,
          "internalType": "string",
          "name": "newUsername",
          "type": "string"
        }
      ],
      "name": "ChangeUsername",
      "type": "event"
    },
    {
      "anonymous": false,
      "inputs": [
        {
          "indexed": false,
          "internalType": "address",
          "name": "ownerDoc",
          "type": "address"
        },
        {
          "indexed": false,
          "internalType": "uint256",
          "name": "tokenID",
          "type": "uint256"
        },
        {
          "indexed": false,
          "internalType": "bool",
          "name": "forTransfer",
          "type": "bool"
        }
      ],
      "name": "DeleteDocumment",
      "type": "event"
    },
    {
      "anonymous": false,
      "inputs": [
        {
          "indexed": false,
          "internalType": "address",
          "name": "ownerDoc",
          "type": "address"
        },
        {
          "indexed": false,
          "internalType": "uint256",
          "name": "tokenID",
          "type": "uint256"
        }
      ],
      "name": "DeleteMyDocCopy",
      "type": "event"
    },
    {
      "anonymous": false,
      "inputs": [
        {
          "indexed": true,
          "internalType": "address",
          "name": "previousOwner",
          "type": "address"
        },
        {
          "indexed": true,
          "internalType": "address",
          "name": "newOwner",
          "type": "address"
        }
      ],
      "name": "OwnershipTransferred",
      "type": "event"
    },
    {
      "anonymous": false,
      "inputs": [
        {
          "indexed": false,
          "internalType": "address",
          "name": "certifying",
          "type": "address"
        },
        {
          "indexed": false,
          "internalType": "address",
          "name": "applicant",
          "type": "address"
        },
        {
          "indexed": false,
          "internalType": "uint256",
          "name": "tokenID",
          "type": "uint256"
        }
      ],
      "name": "RejectCertificationRequest",
      "type": "event"
    },
    {
      "anonymous": false,
      "inputs": [
        {
          "indexed": false,
          "internalType": "address",
          "name": "applicant",
          "type": "address"
        },
        {
          "indexed": false,
          "internalType": "uint256",
          "name": "tokenID",
          "type": "uint256"
        }
      ],
      "name": "RequestCertification",
      "type": "event"
    },
    {
      "anonymous": false,
      "inputs": [
        {
          "indexed": false,
          "internalType": "address",
          "name": "user",
          "type": "address"
        },
        {
          "indexed": false,
          "internalType": "uint256",
          "name": "tokenID",
          "type": "uint256"
        }
      ],
      "name": "SecureDocument",
      "type": "event"
    },
    {
      "anonymous": false,
      "inputs": [
        {
          "indexed": false,
          "internalType": "address",
          "name": "from",
          "type": "address"
        },
        {
          "indexed": false,
          "internalType": "address",
          "name": "to",
          "type": "address"
        },
        {
          "indexed": false,
          "internalType": "uint256",
          "name": "tokenID",
          "type": "uint256"
        }
      ],
      "name": "ShareDoc",
      "type": "event"
    },
    {
      "anonymous": false,
      "inputs": [
        {
          "indexed": false,
          "internalType": "address",
          "name": "newUser",
          "type": "address"
        },
        {
          "indexed": false,
          "internalType": "string",
          "name": "name",
          "type": "string"
        },
        {
          "indexed": false,
          "internalType": "string",
          "name": "pubkey",
          "type": "string"
        }
      ],
      "name": "Subscribe",
      "type": "event"
    },
    {
      "anonymous": false,
      "inputs": [
        {
          "indexed": false,
          "internalType": "address",
          "name": "newUser",
          "type": "address"
        },
        {
          "indexed": false,
          "internalType": "string",
          "name": "pubkey",
          "type": "string"
        }
      ],
      "name": "SubscribeAuthority",
      "type": "event"
    },
    {
      "anonymous": false,
      "inputs": [
        {
          "indexed": false,
          "internalType": "address",
          "name": "from",
          "type": "address"
        },
        {
          "indexed": false,
          "internalType": "address",
          "name": "to",
          "type": "address"
        },
        {
          "indexed": false,
          "internalType": "uint256",
          "name": "tokenID",
          "type": "uint256"
        }
      ],
      "name": "TransferDocument",
      "type": "event"
    },
    {
      "anonymous": false,
      "inputs": [
        {
          "indexed": false,
          "internalType": "address",
          "name": "user",
          "type": "address"
        }
      ],
      "name": "Unsubcribe",
      "type": "event"
    },
    {
      "inputs": [],
      "name": "owner",
      "outputs": [
        {
          "internalType": "address",
          "name": "",
          "type": "address"
        }
      ],
      "stateMutability": "view",
      "type": "function"
    },
    {
      "inputs": [],
      "name": "renounceOwnership",
      "outputs": [],
      "stateMutability": "nonpayable",
      "type": "function"
    },
    {
      "inputs": [
        {
          "internalType": "address",
          "name": "newOwner",
          "type": "address"
        }
      ],
      "name": "transferOwnership",
      "outputs": [],
      "stateMutability": "nonpayable",
      "type": "function"
    },
    {
      "inputs": [
        {
          "internalType": "string",
          "name": "name",
          "type": "string"
        },
        {
          "internalType": "string",
          "name": "pubKey",
          "type": "string"
        },
        {
          "internalType": "string",
          "name": "passwordMaster",
          "type": "string"
        }
      ],
      "name": "subscribe",
      "outputs": [],
      "stateMutability": "nonpayable",
      "type": "function"
    },
    {
      "inputs": [
        {
          "internalType": "address",
          "name": "authority",
          "type": "address"
        },
        {
          "internalType": "string",
          "name": "name",
          "type": "string"
        },
        {
          "internalType": "string",
          "name": "pubKey",
          "type": "string"
        },
        {
          "internalType": "string",
          "name": "passwordMaster",
          "type": "string"
        }
      ],
      "name": "subscribeAuthority",
      "outputs": [],
      "stateMutability": "nonpayable",
      "type": "function"
    },
    {
      "inputs": [],
      "name": "viewMyProfil",
      "outputs": [
        {
          "components": [
            {
              "internalType": "string",
              "name": "name",
              "type": "string"
            },
            {
              "internalType": "string",
              "name": "publicKey",
              "type": "string"
            },
            {
              "internalType": "bool",
              "name": "isAuthority",
              "type": "bool"
            },
            {
              "internalType": "bool",
              "name": "exist",
              "type": "bool"
            }
          ],
          "internalType": "struct SaveDocStruct.User",
          "name": "",
          "type": "tuple"
        }
      ],
      "stateMutability": "view",
      "type": "function"
    },
    {
      "inputs": [
        {
          "internalType": "address",
          "name": "_address",
          "type": "address"
        }
      ],
      "name": "viewProfil",
      "outputs": [
        {
          "components": [
            {
              "internalType": "string",
              "name": "name",
              "type": "string"
            },
            {
              "internalType": "string",
              "name": "publicKey",
              "type": "string"
            },
            {
              "internalType": "bool",
              "name": "isAuthority",
              "type": "bool"
            },
            {
              "internalType": "bool",
              "name": "exist",
              "type": "bool"
            }
          ],
          "internalType": "struct SaveDocStruct.User",
          "name": "",
          "type": "tuple"
        }
      ],
      "stateMutability": "view",
      "type": "function"
    },
    {
      "inputs": [],
      "name": "getMyPasswordMaster",
      "outputs": [
        {
          "internalType": "string",
          "name": "",
          "type": "string"
        }
      ],
      "stateMutability": "view",
      "type": "function"
    },
    {
      "inputs": [
        {
          "internalType": "string",
          "name": "name",
          "type": "string"
        }
      ],
      "name": "changeMyName",
      "outputs": [],
      "stateMutability": "nonpayable",
      "type": "function"
    },
    {
      "inputs": [],
      "name": "unsubscribe",
      "outputs": [],
      "stateMutability": "nonpayable",
      "type": "function"
    },
    {
      "inputs": [
        {
          "internalType": "string",
          "name": "tokenName",
          "type": "string"
        },
        {
          "internalType": "string",
          "name": "tokenURI",
          "type": "string"
        },
        {
          "internalType": "string",
          "name": "tokenMime",
          "type": "string"
        },
        {
          "internalType": "uint256",
          "name": "tokenLength",
          "type": "uint256"
        },
        {
          "internalType": "string",
          "name": "filePath",
          "type": "string"
        },
        {
          "internalType": "string",
          "name": "passwordEncrypted",
          "type": "string"
        },
        {
          "internalType": "string",
          "name": "hashNFT",
          "type": "string"
        }
      ],
      "name": "secureDocument",
      "outputs": [
        {
          "components": [
            {
              "internalType": "uint256",
              "name": "tokenID",
              "type": "uint256"
            },
            {
              "internalType": "uint256",
              "name": "fileSize",
              "type": "uint256"
            },
            {
              "internalType": "string",
              "name": "filename",
              "type": "string"
            },
            {
              "internalType": "string",
              "name": "fileMimeType",
              "type": "string"
            },
            {
              "internalType": "uint256",
              "name": "dateAdd",
              "type": "uint256"
            },
            {
              "internalType": "string",
              "name": "filePath",
              "type": "string"
            },
            {
              "internalType": "address[]",
              "name": "certifying",
              "type": "address[]"
            },
            {
              "internalType": "string",
              "name": "tokenURI",
              "type": "string"
            },
            {
              "internalType": "string",
              "name": "passwordEncrypted",
              "type": "string"
            },
            {
              "internalType": "enum SaveDocStruct.TypeDoc",
              "name": "typeNft",
              "type": "uint8"
            }
          ],
          "internalType": "struct SaveDocStruct.Document",
          "name": "",
          "type": "tuple"
        }
      ],
      "stateMutability": "nonpayable",
      "type": "function"
    },
    {
      "inputs": [
        {
          "internalType": "uint256",
          "name": "tokenID",
          "type": "uint256"
        },
        {
          "internalType": "bool",
          "name": "forTransfer",
          "type": "bool"
        }
      ],
      "name": "delMyDocument",
      "outputs": [],
      "stateMutability": "nonpayable",
      "type": "function"
    },
    {
      "inputs": [
        {
          "internalType": "uint256",
          "name": "tokenID",
          "type": "uint256"
        }
      ],
      "name": "getTokenURI",
      "outputs": [
        {
          "internalType": "string",
          "name": "",
          "type": "string"
        }
      ],
      "stateMutability": "view",
      "type": "function"
    },
    {
      "inputs": [
        {
          "internalType": "address",
          "name": "to",
          "type": "address"
        },
        {
          "internalType": "uint256",
          "name": "tokenID",
          "type": "uint256"
        },
        {
          "internalType": "string",
          "name": "tokenURITmp",
          "type": "string"
        }
      ],
      "name": "transferDoc",
      "outputs": [],
      "stateMutability": "nonpayable",
      "type": "function"
    },
    {
      "inputs": [
        {
          "internalType": "uint256",
          "name": "tokenID",
          "type": "uint256"
        },
        {
          "internalType": "address",
          "name": "to",
          "type": "address"
        },
        {
          "internalType": "string",
          "name": "tokenURI",
          "type": "string"
        }
      ],
      "name": "shareDoc",
      "outputs": [],
      "stateMutability": "nonpayable",
      "type": "function"
    },
    {
      "inputs": [
        {
          "internalType": "uint256",
          "name": "tokenID",
          "type": "uint256"
        },
        {
          "internalType": "string",
          "name": "newTokenURI",
          "type": "string"
        },
        {
          "internalType": "string",
          "name": "passwordEncrypted",
          "type": "string"
        }
      ],
      "name": "acceptNewDoc",
      "outputs": [],
      "stateMutability": "nonpayable",
      "type": "function"
    },
    {
      "inputs": [
        {
          "internalType": "uint256",
          "name": "tokenID",
          "type": "uint256"
        }
      ],
      "name": "delCopyDocShared",
      "outputs": [],
      "stateMutability": "nonpayable",
      "type": "function"
    },
    {
      "inputs": [
        {
          "internalType": "uint256",
          "name": "_tokenID",
          "type": "uint256"
        },
        {
          "internalType": "string",
          "name": "_tokenURI",
          "type": "string"
        },
        {
          "internalType": "address",
          "name": "_certifying",
          "type": "address"
        }
      ],
      "name": "requestCertification",
      "outputs": [],
      "stateMutability": "nonpayable",
      "type": "function"
    },
    {
      "inputs": [],
      "name": "viewMyDocs",
      "outputs": [
        {
          "components": [
            {
              "internalType": "uint256",
              "name": "tokenID",
              "type": "uint256"
            },
            {
              "internalType": "uint256",
              "name": "fileSize",
              "type": "uint256"
            },
            {
              "internalType": "string",
              "name": "filename",
              "type": "string"
            },
            {
              "internalType": "string",
              "name": "fileMimeType",
              "type": "string"
            },
            {
              "internalType": "uint256",
              "name": "dateAdd",
              "type": "uint256"
            },
            {
              "internalType": "string",
              "name": "filePath",
              "type": "string"
            },
            {
              "internalType": "address[]",
              "name": "certifying",
              "type": "address[]"
            },
            {
              "internalType": "string",
              "name": "tokenURI",
              "type": "string"
            },
            {
              "internalType": "string",
              "name": "passwordEncrypted",
              "type": "string"
            },
            {
              "internalType": "enum SaveDocStruct.TypeDoc",
              "name": "typeNft",
              "type": "uint8"
            }
          ],
          "internalType": "struct SaveDocStruct.Document[]",
          "name": "",
          "type": "tuple[]"
        }
      ],
      "stateMutability": "view",
      "type": "function"
    },
    {
      "inputs": [],
      "name": "viewMyCopyDocs",
      "outputs": [
        {
          "components": [
            {
              "internalType": "uint256",
              "name": "tokenID",
              "type": "uint256"
            },
            {
              "internalType": "uint256",
              "name": "fileSize",
              "type": "uint256"
            },
            {
              "internalType": "string",
              "name": "filename",
              "type": "string"
            },
            {
              "internalType": "string",
              "name": "fileMimeType",
              "type": "string"
            },
            {
              "internalType": "uint256",
              "name": "dateAdd",
              "type": "uint256"
            },
            {
              "internalType": "string",
              "name": "filePath",
              "type": "string"
            },
            {
              "internalType": "address[]",
              "name": "certifying",
              "type": "address[]"
            },
            {
              "internalType": "string",
              "name": "tokenURI",
              "type": "string"
            },
            {
              "internalType": "string",
              "name": "passwordEncrypted",
              "type": "string"
            },
            {
              "internalType": "enum SaveDocStruct.TypeDoc",
              "name": "typeNft",
              "type": "uint8"
            }
          ],
          "internalType": "struct SaveDocStruct.Document[]",
          "name": "",
          "type": "tuple[]"
        }
      ],
      "stateMutability": "view",
      "type": "function"
    },
    {
      "inputs": [],
      "name": "viewDocPendingTransfer",
      "outputs": [
        {
          "components": [
            {
              "internalType": "uint256",
              "name": "tokenID",
              "type": "uint256"
            },
            {
              "internalType": "uint256",
              "name": "fileSize",
              "type": "uint256"
            },
            {
              "internalType": "string",
              "name": "filename",
              "type": "string"
            },
            {
              "internalType": "string",
              "name": "fileMimeType",
              "type": "string"
            },
            {
              "internalType": "uint256",
              "name": "dateAdd",
              "type": "uint256"
            },
            {
              "internalType": "string",
              "name": "filePath",
              "type": "string"
            },
            {
              "internalType": "address[]",
              "name": "certifying",
              "type": "address[]"
            },
            {
              "internalType": "string",
              "name": "tokenURI",
              "type": "string"
            },
            {
              "internalType": "string",
              "name": "passwordEncrypted",
              "type": "string"
            },
            {
              "internalType": "enum SaveDocStruct.TypeDoc",
              "name": "typeNft",
              "type": "uint8"
            }
          ],
          "internalType": "struct SaveDocStruct.Document[]",
          "name": "",
          "type": "tuple[]"
        }
      ],
      "stateMutability": "view",
      "type": "function"
    },
    {
      "inputs": [],
      "name": "viewDocCertified",
      "outputs": [
        {
          "components": [
            {
              "internalType": "uint256",
              "name": "tokenID",
              "type": "uint256"
            },
            {
              "internalType": "uint256",
              "name": "fileSize",
              "type": "uint256"
            },
            {
              "internalType": "string",
              "name": "filename",
              "type": "string"
            },
            {
              "internalType": "string",
              "name": "fileMimeType",
              "type": "string"
            },
            {
              "internalType": "uint256",
              "name": "dateAdd",
              "type": "uint256"
            },
            {
              "internalType": "string",
              "name": "filePath",
              "type": "string"
            },
            {
              "internalType": "address[]",
              "name": "certifying",
              "type": "address[]"
            },
            {
              "internalType": "string",
              "name": "tokenURI",
              "type": "string"
            },
            {
              "internalType": "string",
              "name": "passwordEncrypted",
              "type": "string"
            },
            {
              "internalType": "enum SaveDocStruct.TypeDoc",
              "name": "typeNft",
              "type": "uint8"
            }
          ],
          "internalType": "struct SaveDocStruct.Document[]",
          "name": "",
          "type": "tuple[]"
        }
      ],
      "stateMutability": "view",
      "type": "function"
    },
    {
      "inputs": [
        {
          "internalType": "uint256",
          "name": "_tokenID",
          "type": "uint256"
        },
        {
          "internalType": "string",
          "name": "_hashNFT",
          "type": "string"
        },
        {
          "internalType": "bool",
          "name": "_keepCopyDoc",
          "type": "bool"
        }
      ],
      "name": "acceptCertificationRequest",
      "outputs": [],
      "stateMutability": "nonpayable",
      "type": "function"
    },
    {
      "inputs": [
        {
          "internalType": "uint256",
          "name": "_tokenID",
          "type": "uint256"
        }
      ],
      "name": "rejectCertificationRequest",
      "outputs": [],
      "stateMutability": "nonpayable",
      "type": "function"
    },
    {
      "inputs": [
        {
          "internalType": "uint256",
          "name": "tokenID",
          "type": "uint256"
        }
      ],
      "name": "tokenExist",
      "outputs": [
        {
          "internalType": "bool",
          "name": "",
          "type": "bool"
        }
      ],
      "stateMutability": "view",
      "type": "function"
    }
  ],
  "bytecode": "0x60806040523480156200001157600080fd5b506040516200558438038062005584833981810160405281019062000037919062000234565b620000576200004b6200012360201b60201c565b6200012b60201b60201c565b82600360006101000a81548173ffffffffffffffffffffffffffffffffffffffff021916908373ffffffffffffffffffffffffffffffffffffffff16021790555081600260006101000a81548173ffffffffffffffffffffffffffffffffffffffff021916908373ffffffffffffffffffffffffffffffffffffffff16021790555080600460006101000a81548173ffffffffffffffffffffffffffffffffffffffff021916908373ffffffffffffffffffffffffffffffffffffffff16021790555050505062000353565b600033905090565b60008060009054906101000a900473ffffffffffffffffffffffffffffffffffffffff169050816000806101000a81548173ffffffffffffffffffffffffffffffffffffffff021916908373ffffffffffffffffffffffffffffffffffffffff1602179055508173ffffffffffffffffffffffffffffffffffffffff168173ffffffffffffffffffffffffffffffffffffffff167f8be0079c531659141344cd1fd0a4f28419497f9722a3daafe3b4186f6b6457e060405160405180910390a35050565b600081519050620002008162000305565b92915050565b60008151905062000217816200031f565b92915050565b6000815190506200022e8162000339565b92915050565b60008060006060848603121562000250576200024f62000300565b5b6000620002608682870162000206565b935050602062000273868287016200021d565b92505060406200028686828701620001ef565b9150509250925092565b60006200029d82620002e0565b9050919050565b6000620002b18262000290565b9050919050565b6000620002c58262000290565b9050919050565b6000620002d98262000290565b9050919050565b600073ffffffffffffffffffffffffffffffffffffffff82169050919050565b600080fd5b6200031081620002a4565b81146200031c57600080fd5b50565b6200032a81620002b8565b81146200033657600080fd5b50565b6200034481620002cc565b81146200035057600080fd5b50565b61522180620003636000396000f3fe608060405234801561001057600080fd5b50600436106101735760003560e01c80638fde68c5116100de578063caed556011610097578063f260d41511610071578063f260d41514610410578063f2fde38b1461042c578063f42a119e14610448578063fcae44841461046457610173565b8063caed556014610392578063cc0c5236146103c2578063cfba8f91146103f257610173565b80638fde68c5146102d257806393eeaef0146102ee578063940c1bc81461030a578063b79962521461033a578063bf56659914610358578063c991607e1461037457610173565b80635c1ef442116101305780635c1ef442146102365780636fbf73fd14610252578063715018a61461027057806375ece0dc1461027a5780638a5fd606146102985780638da5cb5b146102b457610173565b80631060a477146101785780632d5dbeb1146101945780632e81cdda146101b0578063357c2f54146101cc5780633bb3a24d146101ea57806345f0abfe1461021a575b600080fd5b610192600480360381019061018d91906140e7565b61046e565b005b6101ae60048036038101906101a99190614156565b610842565b005b6101ca60048036038101906101c59190613f6f565b610ac2565b005b6101d4610dd6565b6040516101e19190614b27565b60405180910390f35b61020460048036038101906101ff9190613f6f565b610e8d565b6040516102119190614b64565b60405180910390f35b610234600480360381019061022f9190613fc9565b611060565b005b610250600480360381019061024b9190614038565b61133c565b005b61025a6115da565b6040516102679190614b27565b60405180910390f35b610278611691565b005b610282611719565b60405161028f9190614b27565b60405180910390f35b6102b260048036038101906102ad9190614078565b6117d0565b005b6102bc611d6a565b6040516102c99190614723565b60405180910390f35b6102ec60048036038101906102e79190613aba565b611d93565b005b61030860048036038101906103039190613f6f565b611f07565b005b610324600480360381019061031f9190613d93565b612084565b6040516103319190614c46565b60405180910390f35b61034261233e565b60405161034f9190614b27565b60405180910390f35b610372600480360381019061036d9190613c5a565b6123f5565b005b61037c6124e6565b6040516103899190614c68565b60405180910390f35b6103ac60048036038101906103a79190613a60565b6125a3565b6040516103b99190614c68565b60405180910390f35b6103dc60048036038101906103d79190613f6f565b612662565b6040516103e99190614b49565b60405180910390f35b6103fa612792565b6040516104079190614b64565b60405180910390f35b61042a60048036038101906104259190613cec565b612849565b005b61044660048036038101906104419190613a60565b612942565b005b610462600480360381019061045d9190613b75565b612a3a565b005b61046c612db3565b005b3383600160008373ffffffffffffffffffffffffffffffffffffffff1673ffffffffffffffffffffffffffffffffffffffff168152602001908152602001600020600082815260200190815260200160002060020160009054906101000a900460ff16610510576040517f08c379a000000000000000000000000000000000000000000000000000000000815260040161050790614c06565b60405180910390fd5b6000600160003373ffffffffffffffffffffffffffffffffffffffff1673ffffffffffffffffffffffffffffffffffffffff16815260200190815260200160002060008781526020019081526020016000206040518060600160405290816000820160009054906101000a900473ffffffffffffffffffffffffffffffffffffffff1673ffffffffffffffffffffffffffffffffffffffff1673ffffffffffffffffffffffffffffffffffffffff168152602001600182015481526020016002820160009054906101000a900460ff16151515158152505090506105fd816000015182602001518761307f565b61060b3382602001516131c9565b83156106af57600360009054906101000a900473ffffffffffffffffffffffffffffffffffffffff1673ffffffffffffffffffffffffffffffffffffffff16638c6acc51336002600185602001516040518563ffffffff1660e01b815260040161067894939291906148c8565b600060405180830381600087803b15801561069257600080fd5b505af11580156106a6573d6000803e3d6000fd5b505050506107f5565b600360009054906101000a900473ffffffffffffffffffffffffffffffffffffffff1673ffffffffffffffffffffffffffffffffffffffff16634531817d336002600360009054906101000a900473ffffffffffffffffffffffffffffffffffffffff1673ffffffffffffffffffffffffffffffffffffffff16637cc24f2d33600288602001516040518463ffffffff1660e01b815260040161075493929190614920565b60206040518083038186803b15801561076c57600080fd5b505afa158015610780573d6000803e3d6000fd5b505050506040513d601f19601f820116820180604052508101906107a49190613f9c565b6040518463ffffffff1660e01b81526004016107c293929190614920565b600060405180830381600087803b1580156107dc57600080fd5b505af11580156107f0573d6000803e3d6000fd5b505050505b7ff0f8c7ba94a353f8e6a599551096a917b2c8e83503b929a736d549ca8b3fb1843382600001518360200151876040516108329493929190614775565b60405180910390a1505050505050565b823373ffffffffffffffffffffffffffffffffffffffff16600260009054906101000a900473ffffffffffffffffffffffffffffffffffffffff1673ffffffffffffffffffffffffffffffffffffffff16636352211e836040518263ffffffff1660e01b81526004016108b59190614c8a565b60206040518083038186803b1580156108cd57600080fd5b505afa1580156108e1573d6000803e3d6000fd5b505050506040513d601f19601f820116820180604052508101906109059190613a8d565b73ffffffffffffffffffffffffffffffffffffffff161461095b576040517f08c379a000000000000000000000000000000000000000000000000000000000815260040161095290614c26565b60405180910390fd5b600360009054906101000a900473ffffffffffffffffffffffffffffffffffffffff1673ffffffffffffffffffffffffffffffffffffffff16638c6acc51336003600088876040518663ffffffff1660e01b81526004016109c095949392919061486e565b600060405180830381600087803b1580156109da57600080fd5b505af11580156109ee573d6000803e3d6000fd5b50505050600260009054906101000a900473ffffffffffffffffffffffffffffffffffffffff1673ffffffffffffffffffffffffffffffffffffffff16632682b0e48585336040518463ffffffff1660e01b8152600401610a5193929190614cce565b600060405180830381600087803b158015610a6b57600080fd5b505af1158015610a7f573d6000803e3d6000fd5b505050507f41398dd25cfa0774990db425ab8dc3865eb456073501bdeb839bb236a135dba53385604051610ab4929190614a26565b60405180910390a150505050565b3381600160008373ffffffffffffffffffffffffffffffffffffffff1673ffffffffffffffffffffffffffffffffffffffff168152602001908152602001600020600082815260200190815260200160002060020160009054906101000a900460ff16610b64576040517f08c379a0000000000000000000000000000000000000000000000000000000008152600401610b5b90614c06565b60405180910390fd5b6000600160003373ffffffffffffffffffffffffffffffffffffffff1673ffffffffffffffffffffffffffffffffffffffff16815260200190815260200160002060008581526020019081526020016000206040518060600160405290816000820160009054906101000a900473ffffffffffffffffffffffffffffffffffffffff1673ffffffffffffffffffffffffffffffffffffffff1673ffffffffffffffffffffffffffffffffffffffff168152602001600182015481526020016002820160009054906101000a900460ff1615151515815250509050610c4833856131c9565b600360009054906101000a900473ffffffffffffffffffffffffffffffffffffffff1673ffffffffffffffffffffffffffffffffffffffff16634531817d336002600360009054906101000a900473ffffffffffffffffffffffffffffffffffffffff1673ffffffffffffffffffffffffffffffffffffffff16637cc24f2d33600288602001516040518463ffffffff1660e01b8152600401610ced93929190614920565b60206040518083038186803b158015610d0557600080fd5b505afa158015610d19573d6000803e3d6000fd5b505050506040513d601f19601f82011682018060405250810190610d3d9190613f9c565b6040518463ffffffff1660e01b8152600401610d5b93929190614920565b600060405180830381600087803b158015610d7557600080fd5b505af1158015610d89573d6000803e3d6000fd5b505050507fa912d4fcf92fbf5ee375612c5bc2e36a389d851e05a910bf21e0beda6c8d89693382600001518360200151604051610dc89392919061473e565b60405180910390a150505050565b6060600360009054906101000a900473ffffffffffffffffffffffffffffffffffffffff1673ffffffffffffffffffffffffffffffffffffffff166304e5b45c336040518263ffffffff1660e01b8152600401610e339190614723565b60006040518083038186803b158015610e4b57600080fd5b505afa158015610e5f573d6000803e3d6000fd5b505050506040513d6000823e3d601f19601f82011682018060405250810190610e889190613be4565b905090565b6060813373ffffffffffffffffffffffffffffffffffffffff16600260009054906101000a900473ffffffffffffffffffffffffffffffffffffffff1673ffffffffffffffffffffffffffffffffffffffff16636352211e836040518263ffffffff1660e01b8152600401610f029190614c8a565b60206040518083038186803b158015610f1a57600080fd5b505afa158015610f2e573d6000803e3d6000fd5b505050506040513d601f19601f82011682018060405250810190610f529190613a8d565b73ffffffffffffffffffffffffffffffffffffffff1614610fa8576040517f08c379a0000000000000000000000000000000000000000000000000000000008152600401610f9f90614c26565b60405180910390fd5b600260009054906101000a900473ffffffffffffffffffffffffffffffffffffffff1673ffffffffffffffffffffffffffffffffffffffff1663c87b56dd846040518263ffffffff1660e01b81526004016110039190614c8a565b60006040518083038186803b15801561101b57600080fd5b505afa15801561102f573d6000803e3d6000fd5b505050506040513d6000823e3d601f19601f820116820180604052508101906110589190613ca3565b915050919050565b823373ffffffffffffffffffffffffffffffffffffffff16600260009054906101000a900473ffffffffffffffffffffffffffffffffffffffff1673ffffffffffffffffffffffffffffffffffffffff16636352211e836040518263ffffffff1660e01b81526004016110d39190614c8a565b60206040518083038186803b1580156110eb57600080fd5b505afa1580156110ff573d6000803e3d6000fd5b505050506040513d601f19601f820116820180604052508101906111239190613a8d565b73ffffffffffffffffffffffffffffffffffffffff1614611179576040517f08c379a000000000000000000000000000000000000000000000000000000000815260040161117090614c26565b60405180910390fd5b82600460009054906101000a900473ffffffffffffffffffffffffffffffffffffffff1673ffffffffffffffffffffffffffffffffffffffff1663a1abffee826040518263ffffffff1660e01b81526004016111d59190614723565b60206040518083038186803b1580156111ed57600080fd5b505afa158015611201573d6000803e3d6000fd5b505050506040513d601f19601f820116820180604052508101906112259190613c2d565b611264576040517f08c379a000000000000000000000000000000000000000000000000000000000815260040161125b90614b86565b60405180910390fd5b600360009054906101000a900473ffffffffffffffffffffffffffffffffffffffff1673ffffffffffffffffffffffffffffffffffffffff166371499a7b3386888760016040518663ffffffff1660e01b81526004016112c89594939291906147ba565b600060405180830381600087803b1580156112e257600080fd5b505af11580156112f6573d6000803e3d6000fd5b505050507f30ef45173d7b3f0134eb34eed874d331ff64fe422f3a8881a8353f7fe27a98fd33858760405161132d9392919061473e565b60405180910390a15050505050565b813373ffffffffffffffffffffffffffffffffffffffff16600260009054906101000a900473ffffffffffffffffffffffffffffffffffffffff1673ffffffffffffffffffffffffffffffffffffffff16636352211e836040518263ffffffff1660e01b81526004016113af9190614c8a565b60206040518083038186803b1580156113c757600080fd5b505afa1580156113db573d6000803e3d6000fd5b505050506040513d601f19601f820116820180604052508101906113ff9190613a8d565b73ffffffffffffffffffffffffffffffffffffffff1614611455576040517f08c379a000000000000000000000000000000000000000000000000000000000815260040161144c90614c26565b60405180910390fd5b600360009054906101000a900473ffffffffffffffffffffffffffffffffffffffff1673ffffffffffffffffffffffffffffffffffffffff166389ed5fa033856040518363ffffffff1660e01b81526004016114b2929190614a26565b602060405180830381600087803b1580156114cc57600080fd5b505af11580156114e0573d6000803e3d6000fd5b505050506040513d601f19601f820116820180604052508101906115049190613c2d565b508161159a57600260009054906101000a900473ffffffffffffffffffffffffffffffffffffffff1673ffffffffffffffffffffffffffffffffffffffff1663fcd3533c84336040518363ffffffff1660e01b8152600401611567929190614ca5565b600060405180830381600087803b15801561158157600080fd5b505af1158015611595573d6000803e3d6000fd5b505050505b7f25d4d887d1cdf2f4a7386b7e0d00aa319d66a6963a77083e69758fc3cb1ccebf3384846040516115cd93929190614a4f565b60405180910390a1505050565b6060600360009054906101000a900473ffffffffffffffffffffffffffffffffffffffff1673ffffffffffffffffffffffffffffffffffffffff1663219e657b336040518263ffffffff1660e01b81526004016116379190614723565b60006040518083038186803b15801561164f57600080fd5b505afa158015611663573d6000803e3d6000fd5b505050506040513d6000823e3d601f19601f8201168201806040525081019061168c9190613be4565b905090565b611699613263565b73ffffffffffffffffffffffffffffffffffffffff166116b7611d6a565b73ffffffffffffffffffffffffffffffffffffffff161461170d576040517f08c379a000000000000000000000000000000000000000000000000000000000815260040161170490614be6565b60405180910390fd5b611717600061326b565b565b6060600360009054906101000a900473ffffffffffffffffffffffffffffffffffffffff1673ffffffffffffffffffffffffffffffffffffffff1663bbed9457336040518263ffffffff1660e01b81526004016117769190614723565b60006040518083038186803b15801561178e57600080fd5b505afa1580156117a2573d6000803e3d6000fd5b505050506040513d6000823e3d601f19601f820116820180604052508101906117cb9190613be4565b905090565b823373ffffffffffffffffffffffffffffffffffffffff16600260009054906101000a900473ffffffffffffffffffffffffffffffffffffffff1673ffffffffffffffffffffffffffffffffffffffff16636352211e836040518263ffffffff1660e01b81526004016118439190614c8a565b60206040518083038186803b15801561185b57600080fd5b505afa15801561186f573d6000803e3d6000fd5b505050506040513d601f19601f820116820180604052508101906118939190613a8d565b73ffffffffffffffffffffffffffffffffffffffff16146118e9576040517f08c379a00000000000000000000000000000000000000000000000000000000081526004016118e090614c26565b60405180910390fd5b81600460009054906101000a900473ffffffffffffffffffffffffffffffffffffffff1673ffffffffffffffffffffffffffffffffffffffff1663a1abffee826040518263ffffffff1660e01b81526004016119459190614723565b60206040518083038186803b15801561195d57600080fd5b505afa158015611971573d6000803e3d6000fd5b505050506040513d601f19601f820116820180604052508101906119959190613c2d565b6119d4576040517f08c379a00000000000000000000000000000000000000000000000000000000081526004016119cb90614b86565b60405180910390fd5b8285600160008373ffffffffffffffffffffffffffffffffffffffff1673ffffffffffffffffffffffffffffffffffffffff168152602001908152602001600020600082815260200190815260200160002060020160009054906101000a900460ff1615611a77576040517f08c379a0000000000000000000000000000000000000000000000000000000008152600401611a6e90614bc6565b60405180910390fd5b600360009054906101000a900473ffffffffffffffffffffffffffffffffffffffff1673ffffffffffffffffffffffffffffffffffffffff166371499a7b33878a8a60026040518663ffffffff1660e01b8152600401611adb9594939291906147ba565b600060405180830381600087803b158015611af557600080fd5b505af1158015611b09573d6000803e3d6000fd5b5050505033600160008773ffffffffffffffffffffffffffffffffffffffff1673ffffffffffffffffffffffffffffffffffffffff168152602001908152602001600020600089815260200190815260200160002060000160006101000a81548173ffffffffffffffffffffffffffffffffffffffff021916908373ffffffffffffffffffffffffffffffffffffffff16021790555086600160008773ffffffffffffffffffffffffffffffffffffffff1673ffffffffffffffffffffffffffffffffffffffff16815260200190815260200160002060008981526020019081526020016000206001018190555060018060008773ffffffffffffffffffffffffffffffffffffffff1673ffffffffffffffffffffffffffffffffffffffff168152602001908152602001600020600089815260200190815260200160002060020160006101000a81548160ff0219169083151502179055507fdcd8480bd34c91f1f2adc92afe46034c8808591541fd4d1fa5cbdcb152cc8fec600160008773ffffffffffffffffffffffffffffffffffffffff1673ffffffffffffffffffffffffffffffffffffffff168152602001908152602001600020600089815260200190815260200160002060000160009054906101000a900473ffffffffffffffffffffffffffffffffffffffff16600160008873ffffffffffffffffffffffffffffffffffffffff1673ffffffffffffffffffffffffffffffffffffffff16815260200190815260200160002060008a815260200190815260200160002060010154604051611d59929190614a26565b60405180910390a150505050505050565b60008060009054906101000a900473ffffffffffffffffffffffffffffffffffffffff16905090565b611d9b613263565b73ffffffffffffffffffffffffffffffffffffffff16611db9611d6a565b73ffffffffffffffffffffffffffffffffffffffff1614611e0f576040517f08c379a0000000000000000000000000000000000000000000000000000000008152600401611e0690614be6565b60405180910390fd5b600460009054906101000a900473ffffffffffffffffffffffffffffffffffffffff1673ffffffffffffffffffffffffffffffffffffffff1663c6361c22858585856040518563ffffffff1660e01b8152600401611e7094939291906149cc565b600060405180830381600087803b158015611e8a57600080fd5b505af1158015611e9e573d6000803e3d6000fd5b505050506040513d6000823e3d601f19601f82011682018060405250810190611ec79190613f26565b507f8d9024430453f128ca4f7678ee38e6a2024a5f36fa204933588a69b8fe8cc0c08483604051611ef9929190614957565b60405180910390a150505050565b600360009054906101000a900473ffffffffffffffffffffffffffffffffffffffff1673ffffffffffffffffffffffffffffffffffffffff16634531817d336001600360009054906101000a900473ffffffffffffffffffffffffffffffffffffffff1673ffffffffffffffffffffffffffffffffffffffff16637cc24f2d336001886040518463ffffffff1660e01b8152600401611fa893929190614920565b60206040518083038186803b158015611fc057600080fd5b505afa158015611fd4573d6000803e3d6000fd5b505050506040513d601f19601f82011682018060405250810190611ff89190613f9c565b6040518463ffffffff1660e01b815260040161201693929190614920565b600060405180830381600087803b15801561203057600080fd5b505af1158015612044573d6000803e3d6000fd5b505050507fa19d981f41b819741b3955b6e01294e09d0e45d35bebad9b435a433adde2d5583382604051612079929190614a26565b60405180910390a150565b61208c6134b4565b33600460009054906101000a900473ffffffffffffffffffffffffffffffffffffffff1673ffffffffffffffffffffffffffffffffffffffff1663a1abffee826040518263ffffffff1660e01b81526004016120e89190614723565b60206040518083038186803b15801561210057600080fd5b505afa158015612114573d6000803e3d6000fd5b505050506040513d601f19601f820116820180604052508101906121389190613c2d565b612177576040517f08c379a000000000000000000000000000000000000000000000000000000000815260040161216e90614b86565b60405180910390fd5b60006121816134b4565b600260009054906101000a900473ffffffffffffffffffffffffffffffffffffffff1673ffffffffffffffffffffffffffffffffffffffff1663d0def521338c6040518363ffffffff1660e01b81526004016121de929190614957565b602060405180830381600087803b1580156121f857600080fd5b505af115801561220c573d6000803e3d6000fd5b505050506040513d601f19601f820116820180604052508101906122309190613f9c565b9150600360009054906101000a900473ffffffffffffffffffffffffffffffffffffffff1673ffffffffffffffffffffffffffffffffffffffff16639643062c33848e8d8d8d8d8d6040518963ffffffff1660e01b815260040161229b989796959493929190614a86565b600060405180830381600087803b1580156122b557600080fd5b505af11580156122c9573d6000803e3d6000fd5b505050506040513d6000823e3d601f19601f820116820180604052508101906122f29190613edd565b90507fba21b505ffad1eade4edf87dec4f6dae4552ba705cb5188e82041dc02171a7853383604051612325929190614a26565b60405180910390a1809350505050979650505050505050565b6060600360009054906101000a900473ffffffffffffffffffffffffffffffffffffffff1673ffffffffffffffffffffffffffffffffffffffff1663d83e2027336040518263ffffffff1660e01b815260040161239b9190614723565b60006040518083038186803b1580156123b357600080fd5b505afa1580156123c7573d6000803e3d6000fd5b505050506040513d6000823e3d601f19601f820116820180604052508101906123f09190613be4565b905090565b600460009054906101000a900473ffffffffffffffffffffffffffffffffffffffff1673ffffffffffffffffffffffffffffffffffffffff16633f1a51b833836040518363ffffffff1660e01b8152600401612452929190614957565b600060405180830381600087803b15801561246c57600080fd5b505af1158015612480573d6000803e3d6000fd5b505050506040513d6000823e3d601f19601f820116820180604052508101906124a99190613f26565b507f3510d9fd1bdaa96909e4f9fcd057c39ee3ee4647521258d952d64974a8e052a833826040516124db929190614957565b60405180910390a150565b6124ee613519565b600460009054906101000a900473ffffffffffffffffffffffffffffffffffffffff1673ffffffffffffffffffffffffffffffffffffffff16636f77926b336040518263ffffffff1660e01b81526004016125499190614723565b60006040518083038186803b15801561256157600080fd5b505afa158015612575573d6000803e3d6000fd5b505050506040513d6000823e3d601f19601f8201168201806040525081019061259e9190613f26565b905090565b6125ab613519565b600460009054906101000a900473ffffffffffffffffffffffffffffffffffffffff1673ffffffffffffffffffffffffffffffffffffffff16636f77926b836040518263ffffffff1660e01b81526004016126069190614723565b60006040518083038186803b15801561261e57600080fd5b505afa158015612632573d6000803e3d6000fd5b505050506040513d6000823e3d601f19601f8201168201806040525081019061265b9190613f26565b9050919050565b600061266c613263565b73ffffffffffffffffffffffffffffffffffffffff1661268a611d6a565b73ffffffffffffffffffffffffffffffffffffffff16146126e0576040517f08c379a00000000000000000000000000000000000000000000000000000000081526004016126d790614be6565b60405180910390fd5b600260009054906101000a900473ffffffffffffffffffffffffffffffffffffffff1673ffffffffffffffffffffffffffffffffffffffff16634ebbc92a836040518263ffffffff1660e01b815260040161273b9190614c8a565b60206040518083038186803b15801561275357600080fd5b505afa158015612767573d6000803e3d6000fd5b505050506040513d601f19601f8201168201806040525081019061278b9190613c2d565b9050919050565b6060600460009054906101000a900473ffffffffffffffffffffffffffffffffffffffff1673ffffffffffffffffffffffffffffffffffffffff16636e2db3b0336040518263ffffffff1660e01b81526004016127ef9190614723565b60006040518083038186803b15801561280757600080fd5b505afa15801561281b573d6000803e3d6000fd5b505050506040513d6000823e3d601f19601f820116820180604052508101906128449190613ca3565b905090565b600460009054906101000a900473ffffffffffffffffffffffffffffffffffffffff1673ffffffffffffffffffffffffffffffffffffffff1663c6361c22338585856040518563ffffffff1660e01b81526004016128aa94939291906149cc565b600060405180830381600087803b1580156128c457600080fd5b505af11580156128d8573d6000803e3d6000fd5b505050506040513d6000823e3d601f19601f820116820180604052508101906129019190613f26565b507ff9e22d0d90b1c23a58ab3faeb23fd4ac8ad47eccb5a435427069e65a22fb00d533848460405161293593929190614987565b60405180910390a1505050565b61294a613263565b73ffffffffffffffffffffffffffffffffffffffff16612968611d6a565b73ffffffffffffffffffffffffffffffffffffffff16146129be576040517f08c379a00000000000000000000000000000000000000000000000000000000081526004016129b590614be6565b60405180910390fd5b600073ffffffffffffffffffffffffffffffffffffffff168173ffffffffffffffffffffffffffffffffffffffff161415612a2e576040517f08c379a0000000000000000000000000000000000000000000000000000000008152600401612a2590614ba6565b60405180910390fd5b612a378161326b565b50565b813373ffffffffffffffffffffffffffffffffffffffff16600260009054906101000a900473ffffffffffffffffffffffffffffffffffffffff1673ffffffffffffffffffffffffffffffffffffffff16636352211e836040518263ffffffff1660e01b8152600401612aad9190614c8a565b60206040518083038186803b158015612ac557600080fd5b505afa158015612ad9573d6000803e3d6000fd5b505050506040513d601f19601f82011682018060405250810190612afd9190613a8d565b73ffffffffffffffffffffffffffffffffffffffff1614612b53576040517f08c379a0000000000000000000000000000000000000000000000000000000008152600401612b4a90614c26565b60405180910390fd5b83600460009054906101000a900473ffffffffffffffffffffffffffffffffffffffff1673ffffffffffffffffffffffffffffffffffffffff1663a1abffee826040518263ffffffff1660e01b8152600401612baf9190614723565b60206040518083038186803b158015612bc757600080fd5b505afa158015612bdb573d6000803e3d6000fd5b505050506040513d601f19601f82011682018060405250810190612bff9190613c2d565b612c3e576040517f08c379a0000000000000000000000000000000000000000000000000000000008152600401612c3590614b86565b60405180910390fd5b600360009054906101000a900473ffffffffffffffffffffffffffffffffffffffff1673ffffffffffffffffffffffffffffffffffffffff166371499a7b3387878760036040518663ffffffff1660e01b8152600401612ca29594939291906147ba565b600060405180830381600087803b158015612cbc57600080fd5b505af1158015612cd0573d6000803e3d6000fd5b50505050600260009054906101000a900473ffffffffffffffffffffffffffffffffffffffff1673ffffffffffffffffffffffffffffffffffffffff1663beabacc83387876040518463ffffffff1660e01b8152600401612d339392919061473e565b600060405180830381600087803b158015612d4d57600080fd5b505af1158015612d61573d6000803e3d6000fd5b50505050612d713385600161332f565b7f34f581da021a47386a4d5676be80c680ca6596579bd9f513f3d272b0460359fa338686604051612da49392919061473e565b60405180910390a15050505050565b33600460009054906101000a900473ffffffffffffffffffffffffffffffffffffffff1673ffffffffffffffffffffffffffffffffffffffff1663a1abffee826040518263ffffffff1660e01b8152600401612e0f9190614723565b60206040518083038186803b158015612e2757600080fd5b505afa158015612e3b573d6000803e3d6000fd5b505050506040513d601f19601f82011682018060405250810190612e5f9190613c2d565b612e9e576040517f08c379a0000000000000000000000000000000000000000000000000000000008152600401612e9590614b86565b60405180910390fd5b600360009054906101000a900473ffffffffffffffffffffffffffffffffffffffff1673ffffffffffffffffffffffffffffffffffffffff1663bd53176b336040518263ffffffff1660e01b8152600401612ef99190614723565b600060405180830381600087803b158015612f1357600080fd5b505af1158015612f27573d6000803e3d6000fd5b50505050600360009054906101000a900473ffffffffffffffffffffffffffffffffffffffff1673ffffffffffffffffffffffffffffffffffffffff166351685f35336040518263ffffffff1660e01b8152600401612f869190614723565b600060405180830381600087803b158015612fa057600080fd5b505af1158015612fb4573d6000803e3d6000fd5b50505050600460009054906101000a900473ffffffffffffffffffffffffffffffffffffffff1673ffffffffffffffffffffffffffffffffffffffff1663f849f379336040518263ffffffff1660e01b81526004016130139190614723565b600060405180830381600087803b15801561302d57600080fd5b505af1158015613041573d6000803e3d6000fd5b505050507fe5ca53020b6c0ff2116f624b9ca44e320913151f07ce0ac7186a67a5f6885e36336040516130749190614723565b60405180910390a150565b6000600460009054906101000a900473ffffffffffffffffffffffffffffffffffffffff1673ffffffffffffffffffffffffffffffffffffffff16632330f247336040518263ffffffff1660e01b81526004016130dc9190614723565b60206040518083038186803b1580156130f457600080fd5b505afa158015613108573d6000803e3d6000fd5b505050506040513d601f19601f8201168201806040525081019061312c9190613c2d565b9050600360009054906101000a900473ffffffffffffffffffffffffffffffffffffffff1673ffffffffffffffffffffffffffffffffffffffff16635d1e792733838787876040518663ffffffff1660e01b8152600401613191959493929190614814565b600060405180830381600087803b1580156131ab57600080fd5b505af11580156131bf573d6000803e3d6000fd5b5050505050505050565b600160008373ffffffffffffffffffffffffffffffffffffffff1673ffffffffffffffffffffffffffffffffffffffff1681526020019081526020016000206000828152602001908152602001600020600080820160006101000a81549073ffffffffffffffffffffffffffffffffffffffff021916905560018201600090556002820160006101000a81549060ff021916905550505050565b600033905090565b60008060009054906101000a900473ffffffffffffffffffffffffffffffffffffffff169050816000806101000a81548173ffffffffffffffffffffffffffffffffffffffff021916908373ffffffffffffffffffffffffffffffffffffffff1602179055508173ffffffffffffffffffffffffffffffffffffffff168173ffffffffffffffffffffffffffffffffffffffff167f8be0079c531659141344cd1fd0a4f28419497f9722a3daafe3b4186f6b6457e060405160405180910390a35050565b600360009054906101000a900473ffffffffffffffffffffffffffffffffffffffff1673ffffffffffffffffffffffffffffffffffffffff166389ed5fa084846040518363ffffffff1660e01b815260040161338c929190614a26565b602060405180830381600087803b1580156133a657600080fd5b505af11580156133ba573d6000803e3d6000fd5b505050506040513d601f19601f820116820180604052508101906133de9190613c2d565b508061347457600260009054906101000a900473ffffffffffffffffffffffffffffffffffffffff1673ffffffffffffffffffffffffffffffffffffffff1663fcd3533c83856040518363ffffffff1660e01b8152600401613441929190614ca5565b600060405180830381600087803b15801561345b57600080fd5b505af115801561346f573d6000803e3d6000fd5b505050505b7f25d4d887d1cdf2f4a7386b7e0d00aa319d66a6963a77083e69758fc3cb1ccebf8383836040516134a793929190614a4f565b60405180910390a1505050565b6040518061014001604052806000815260200160008152602001606081526020016060815260200160008152602001606081526020016060815260200160608152602001606081526020016000600381111561351357613512614f39565b5b81525090565b604051806080016040528060608152602001606081526020016000151581526020016000151581525090565b600061355861355384614d31565b614d0c565b9050808382526020820190508285602086028201111561357b5761357a614fa6565b5b60005b858110156135ab578161359188826136dc565b84526020840193506020830192505060018101905061357e565b5050509392505050565b60006135c86135c384614d5d565b614d0c565b905080838252602082019050828560208602820111156135eb576135ea614fa6565b5b60005b8581101561363957815167ffffffffffffffff81111561361157613610614f97565b5b80860161361e89826137e8565b855260208501945060208401935050506001810190506135ee565b5050509392505050565b600061365661365184614d89565b614d0c565b90508281526020810184848401111561367257613671614fab565b5b61367d848285614ec6565b509392505050565b600061369861369384614d89565b614d0c565b9050828152602081018484840111156136b4576136b3614fab565b5b6136bf848285614ed5565b509392505050565b6000813590506136d681615196565b92915050565b6000815190506136eb81615196565b92915050565b600082601f83011261370657613705614f97565b5b8151613716848260208601613545565b91505092915050565b600082601f83011261373457613733614f97565b5b81516137448482602086016135b5565b91505092915050565b60008135905061375c816151ad565b92915050565b600081519050613771816151ad565b92915050565b600081519050613786816151c4565b92915050565b600082601f8301126137a1576137a0614f97565b5b81356137b1848260208601613643565b91505092915050565b600082601f8301126137cf576137ce614f97565b5b81516137df848260208601613685565b91505092915050565b600061014082840312156137ff576137fe614f9c565b5b61380a610140614d0c565b9050600061381a84828501613a4b565b600083015250602061382e84828501613a4b565b602083015250604082015167ffffffffffffffff81111561385257613851614fa1565b5b61385e848285016137ba565b604083015250606082015167ffffffffffffffff81111561388257613881614fa1565b5b61388e848285016137ba565b60608301525060806138a284828501613a4b565b60808301525060a082015167ffffffffffffffff8111156138c6576138c5614fa1565b5b6138d2848285016137ba565b60a08301525060c082015167ffffffffffffffff8111156138f6576138f5614fa1565b5b613902848285016136f1565b60c08301525060e082015167ffffffffffffffff81111561392657613925614fa1565b5b613932848285016137ba565b60e08301525061010082015167ffffffffffffffff81111561395757613956614fa1565b5b613963848285016137ba565b6101008301525061012061397984828501613777565b6101208301525092915050565b60006080828403121561399c5761399b614f9c565b5b6139a66080614d0c565b9050600082015167ffffffffffffffff8111156139c6576139c5614fa1565b5b6139d2848285016137ba565b600083015250602082015167ffffffffffffffff8111156139f6576139f5614fa1565b5b613a02848285016137ba565b6020830152506040613a1684828501613762565b6040830152506060613a2a84828501613762565b60608301525092915050565b600081359050613a45816151d4565b92915050565b600081519050613a5a816151d4565b92915050565b600060208284031215613a7657613a75614fb5565b5b6000613a84848285016136c7565b91505092915050565b600060208284031215613aa357613aa2614fb5565b5b6000613ab1848285016136dc565b91505092915050565b60008060008060808587031215613ad457613ad3614fb5565b5b6000613ae2878288016136c7565b945050602085013567ffffffffffffffff811115613b0357613b02614fb0565b5b613b0f8782880161378c565b935050604085013567ffffffffffffffff811115613b3057613b2f614fb0565b5b613b3c8782880161378c565b925050606085013567ffffffffffffffff811115613b5d57613b5c614fb0565b5b613b698782880161378c565b91505092959194509250565b600080600060608486031215613b8e57613b8d614fb5565b5b6000613b9c868287016136c7565b9350506020613bad86828701613a36565b925050604084013567ffffffffffffffff811115613bce57613bcd614fb0565b5b613bda8682870161378c565b9150509250925092565b600060208284031215613bfa57613bf9614fb5565b5b600082015167ffffffffffffffff811115613c1857613c17614fb0565b5b613c248482850161371f565b91505092915050565b600060208284031215613c4357613c42614fb5565b5b6000613c5184828501613762565b91505092915050565b600060208284031215613c7057613c6f614fb5565b5b600082013567ffffffffffffffff811115613c8e57613c8d614fb0565b5b613c9a8482850161378c565b91505092915050565b600060208284031215613cb957613cb8614fb5565b5b600082015167ffffffffffffffff811115613cd757613cd6614fb0565b5b613ce3848285016137ba565b91505092915050565b600080600060608486031215613d0557613d04614fb5565b5b600084013567ffffffffffffffff811115613d2357613d22614fb0565b5b613d2f8682870161378c565b935050602084013567ffffffffffffffff811115613d5057613d4f614fb0565b5b613d5c8682870161378c565b925050604084013567ffffffffffffffff811115613d7d57613d7c614fb0565b5b613d898682870161378c565b9150509250925092565b600080600080600080600060e0888a031215613db257613db1614fb5565b5b600088013567ffffffffffffffff811115613dd057613dcf614fb0565b5b613ddc8a828b0161378c565b975050602088013567ffffffffffffffff811115613dfd57613dfc614fb0565b5b613e098a828b0161378c565b965050604088013567ffffffffffffffff811115613e2a57613e29614fb0565b5b613e368a828b0161378c565b9550506060613e478a828b01613a36565b945050608088013567ffffffffffffffff811115613e6857613e67614fb0565b5b613e748a828b0161378c565b93505060a088013567ffffffffffffffff811115613e9557613e94614fb0565b5b613ea18a828b0161378c565b92505060c088013567ffffffffffffffff811115613ec257613ec1614fb0565b5b613ece8a828b0161378c565b91505092959891949750929550565b600060208284031215613ef357613ef2614fb5565b5b600082015167ffffffffffffffff811115613f1157613f10614fb0565b5b613f1d848285016137e8565b91505092915050565b600060208284031215613f3c57613f3b614fb5565b5b600082015167ffffffffffffffff811115613f5a57613f59614fb0565b5b613f6684828501613986565b91505092915050565b600060208284031215613f8557613f84614fb5565b5b6000613f9384828501613a36565b91505092915050565b600060208284031215613fb257613fb1614fb5565b5b6000613fc084828501613a4b565b91505092915050565b600080600060608486031215613fe257613fe1614fb5565b5b6000613ff086828701613a36565b9350506020614001868287016136c7565b925050604084013567ffffffffffffffff81111561402257614021614fb0565b5b61402e8682870161378c565b9150509250925092565b6000806040838503121561404f5761404e614fb5565b5b600061405d85828601613a36565b925050602061406e8582860161374d565b9150509250929050565b60008060006060848603121561409157614090614fb5565b5b600061409f86828701613a36565b935050602084013567ffffffffffffffff8111156140c0576140bf614fb0565b5b6140cc8682870161378c565b92505060406140dd868287016136c7565b9150509250925092565b600080600060608486031215614100576140ff614fb5565b5b600061410e86828701613a36565b935050602084013567ffffffffffffffff81111561412f5761412e614fb0565b5b61413b8682870161378c565b925050604061414c8682870161374d565b9150509250925092565b60008060006060848603121561416f5761416e614fb5565b5b600061417d86828701613a36565b935050602084013567ffffffffffffffff81111561419e5761419d614fb0565b5b6141aa8682870161378c565b925050604084013567ffffffffffffffff8111156141cb576141ca614fb0565b5b6141d78682870161378c565b9150509250925092565b60006141ed838361420d565b60208301905092915050565b600061420583836144a1565b905092915050565b61421681614e59565b82525050565b61422581614e59565b82525050565b600061423682614dda565b6142408185614e15565b935061424b83614dba565b8060005b8381101561427c57815161426388826141e1565b975061426e83614dfb565b92505060018101905061424f565b5085935050505092915050565b600061429482614de5565b61429e8185614e26565b9350836020820285016142b085614dca565b8060005b858110156142ec57848403895281516142cd85826141f9565b94506142d883614e08565b925060208a019950506001810190506142b4565b50829750879550505050505092915050565b61430781614e6b565b82525050565b61431681614e6b565b82525050565b61432581614eb4565b82525050565b61433481614eb4565b82525050565b600061434582614df0565b61434f8185614e37565b935061435f818560208601614ed5565b61436881614fba565b840191505092915050565b600061437e82614df0565b6143888185614e48565b9350614398818560208601614ed5565b6143a181614fba565b840191505092915050565b60006143b9602883614e48565b91506143c482614fcb565b604082019050919050565b60006143dc602683614e48565b91506143e78261501a565b604082019050919050565b60006143ff602b83614e48565b915061440a82615069565b604082019050919050565b6000614422602083614e48565b915061442d826150b8565b602082019050919050565b6000614445603183614e48565b9150614450826150e1565b604082019050919050565b6000614468600083614e48565b915061447382615130565b600082019050919050565b600061448b602983614e48565b915061449682615133565b604082019050919050565b6000610140830160008301516144ba6000860182614705565b5060208301516144cd6020860182614705565b50604083015184820360408601526144e5828261433a565b915050606083015184820360608601526144ff828261433a565b91505060808301516145146080860182614705565b5060a083015184820360a086015261452c828261433a565b91505060c083015184820360c0860152614546828261422b565b91505060e083015184820360e0860152614560828261433a565b91505061010083015184820361010086015261457c828261433a565b91505061012083015161459361012086018261431c565b508091505092915050565b6000610140830160008301516145b76000860182614705565b5060208301516145ca6020860182614705565b50604083015184820360408601526145e2828261433a565b915050606083015184820360608601526145fc828261433a565b91505060808301516146116080860182614705565b5060a083015184820360a0860152614629828261433a565b91505060c083015184820360c0860152614643828261422b565b91505060e083015184820360e086015261465d828261433a565b915050610100830151848203610100860152614679828261433a565b91505061012083015161469061012086018261431c565b508091505092915050565b600060808301600083015184820360008601526146b8828261433a565b915050602083015184820360208601526146d2828261433a565b91505060408301516146e760408601826142fe565b5060608301516146fa60608601826142fe565b508091505092915050565b61470e81614eaa565b82525050565b61471d81614eaa565b82525050565b6000602082019050614738600083018461421c565b92915050565b6000606082019050614753600083018661421c565b614760602083018561421c565b61476d6040830184614714565b949350505050565b600060808201905061478a600083018761421c565b614797602083018661421c565b6147a46040830185614714565b6147b1606083018461430d565b95945050505050565b600060a0820190506147cf600083018861421c565b6147dc602083018761421c565b6147e96040830186614714565b81810360608301526147fb8185614373565b905061480a608083018461432b565b9695505050505050565b600060a082019050614829600083018861421c565b614836602083018761430d565b614843604083018661421c565b6148506060830185614714565b81810360808301526148628184614373565b90509695505050505050565b600060a082019050614883600083018861421c565b614890602083018761432b565b61489d604083018661432b565b6148aa6060830185614714565b81810360808301526148bc8184614373565b90509695505050505050565b600060a0820190506148dd600083018761421c565b6148ea602083018661432b565b6148f7604083018561432b565b6149046060830184614714565b81810360808301526149158161445b565b905095945050505050565b6000606082019050614935600083018661421c565b614942602083018561432b565b61494f6040830184614714565b949350505050565b600060408201905061496c600083018561421c565b818103602083015261497e8184614373565b90509392505050565b600060608201905061499c600083018661421c565b81810360208301526149ae8185614373565b905081810360408301526149c28184614373565b9050949350505050565b60006080820190506149e1600083018761421c565b81810360208301526149f38186614373565b90508181036040830152614a078185614373565b90508181036060830152614a1b8184614373565b905095945050505050565b6000604082019050614a3b600083018561421c565b614a486020830184614714565b9392505050565b6000606082019050614a64600083018661421c565b614a716020830185614714565b614a7e604083018461430d565b949350505050565b600061010082019050614a9c600083018b61421c565b614aa9602083018a614714565b8181036040830152614abb8189614373565b90508181036060830152614acf8188614373565b9050614ade6080830187614714565b81810360a0830152614af08186614373565b905081810360c0830152614b048185614373565b905081810360e0830152614b188184614373565b90509998505050505050505050565b60006020820190508181036000830152614b418184614289565b905092915050565b6000602082019050614b5e600083018461430d565b92915050565b60006020820190508181036000830152614b7e8184614373565b905092915050565b60006020820190508181036000830152614b9f816143ac565b9050919050565b60006020820190508181036000830152614bbf816143cf565b9050919050565b60006020820190508181036000830152614bdf816143f2565b9050919050565b60006020820190508181036000830152614bff81614415565b9050919050565b60006020820190508181036000830152614c1f81614438565b9050919050565b60006020820190508181036000830152614c3f8161447e565b9050919050565b60006020820190508181036000830152614c60818461459e565b905092915050565b60006020820190508181036000830152614c82818461469b565b905092915050565b6000602082019050614c9f6000830184614714565b92915050565b6000604082019050614cba6000830185614714565b614cc7602083018461421c565b9392505050565b6000606082019050614ce36000830186614714565b8181036020830152614cf58185614373565b9050614d04604083018461421c565b949350505050565b6000614d16614d27565b9050614d228282614f08565b919050565b6000604051905090565b600067ffffffffffffffff821115614d4c57614d4b614f68565b5b602082029050602081019050919050565b600067ffffffffffffffff821115614d7857614d77614f68565b5b602082029050602081019050919050565b600067ffffffffffffffff821115614da457614da3614f68565b5b614dad82614fba565b9050602081019050919050565b6000819050602082019050919050565b6000819050602082019050919050565b600081519050919050565b600081519050919050565b600081519050919050565b6000602082019050919050565b6000602082019050919050565b600082825260208201905092915050565b600082825260208201905092915050565b600082825260208201905092915050565b600082825260208201905092915050565b6000614e6482614e8a565b9050919050565b60008115159050919050565b6000819050614e8582615182565b919050565b600073ffffffffffffffffffffffffffffffffffffffff82169050919050565b6000819050919050565b6000614ebf82614e77565b9050919050565b82818337600083830152505050565b60005b83811015614ef3578082015181840152602081019050614ed8565b83811115614f02576000848401525b50505050565b614f1182614fba565b810181811067ffffffffffffffff82111715614f3057614f2f614f68565b5b80604052505050565b7f4e487b7100000000000000000000000000000000000000000000000000000000600052602160045260246000fd5b7f4e487b7100000000000000000000000000000000000000000000000000000000600052604160045260246000fd5b600080fd5b600080fd5b600080fd5b600080fd5b600080fd5b600080fd5b600080fd5b6000601f19601f8301169050919050565b7f53617665446f633a204365747465207574696c69736174657572206e2765786960008201527f737465207061732e000000000000000000000000000000000000000000000000602082015250565b7f4f776e61626c653a206e6577206f776e657220697320746865207a65726f206160008201527f6464726573730000000000000000000000000000000000000000000000000000602082015250565b7f536176446f633a204c612064656d616e6465206465206365727469666963617460008201527f696f6e206578697374652e000000000000000000000000000000000000000000602082015250565b7f4f776e61626c653a2063616c6c6572206973206e6f7420746865206f776e6572600082015250565b7f536176446f633a204c612064656d616e6465206465206365727469666963617460008201527f696f6e206e27657869737465207061732e000000000000000000000000000000602082015250565b50565b7f53617665446f633a20436574204e4654206e6520766f7573206170706172746960008201527f656e742070617320210000000000000000000000000000000000000000000000602082015250565b6004811061519357615192614f39565b5b50565b61519f81614e59565b81146151aa57600080fd5b50565b6151b681614e6b565b81146151c157600080fd5b50565b600481106151d157600080fd5b50565b6151dd81614eaa565b81146151e857600080fd5b5056fea2646970667358221220f1e5231af365f4f18f391c795fe035b3c65681f0e06cf2e832fe2b970a04f0bb64736f6c63430008060033",
  "immutableReferences": {},
  "source": "//SPDX-License-Identifier: MIT\n\npragma solidity 0.8.6;\n\nimport \"./AccountManager.sol\";\nimport \"@openzeppelin/contracts/access/Ownable.sol\";\nimport \"./DocManager.sol\";\nimport \"./SaveDocToken.sol\";\nimport \"./SaveDocStruct.sol\";\n\n\ncontract SaveDoc is Ownable, SaveDocStruct\n{\n    mapping(address => mapping(uint256 => CertificationRequest)) private requests;\n    SaveDocToken private saveDocToken;\n    DocManager private docManager;\n    AccountManager private accountManager;\n\n\n    constructor(DocManager _docManager, SaveDocToken _saveDocToken, AccountManager _accountManager)\n    {\n        docManager = _docManager;\n        saveDocToken = _saveDocToken;\n        accountManager = _accountManager;\n    }\n\n    event Subscribe(address newUser, string name, string pubkey);\n    event SubscribeAuthority(address newUser, string pubkey);\n    event ChangeUsername(address user, string newUsername);\n    event Unsubcribe(address user);\n    event SecureDocument(address user, uint256 tokenID);\n    event DeleteDocumment(address ownerDoc, uint256 tokenID, bool forTransfer);\n    event TransferDocument(address from, address to, uint256 tokenID);\n    event ShareDoc(address from, address to, uint256 tokenID);\n    event AcceptTransferDoc(address newOwner, uint256 tokenID);\n    event DeleteMyDocCopy(address ownerDoc, uint256 tokenID);\n    event RequestCertification(address applicant, uint256 tokenID);\n    event AcceptCertificationRequest(address certifying, address applicant, uint256 tokenID, bool keepCopy);\n    event RejectCertificationRequest(address certifying, address applicant, uint256 tokenID);\n\n    modifier isMyToken(uint256 tokenID)\n    {\n        require(saveDocToken.ownerOf(tokenID) == msg.sender, \"SaveDoc: Cet NFT ne vous appartient pas !\");\n        _;\n    }\n\n    modifier userExist(address addressUser)\n    {\n        require(accountManager.checkIfUserExist(addressUser), \"SaveDoc: Cette utilisateur n'existe pas.\");\n        _;\n    }\n\n    modifier requestExist(address _certifying, uint256 _tokenID)\n    {\n        require(requests[_certifying][_tokenID].exist, \"SavDoc: La demande de certification n'existe pas.\");\n        _;\n    }\n\n    modifier requestNotExist(address _certifying, uint256 _tokenID)\n    {\n        require(!requests[_certifying][_tokenID].exist, \"SavDoc: La demande de certification existe.\");\n        _;\n    }\n\n    function subscribe(string memory name, string memory pubKey, string memory passwordMaster) external\n    {\n        accountManager.addUser(msg.sender, name, pubKey, passwordMaster);\n        emit Subscribe(msg.sender, name, pubKey);\n    }\n\n    function subscribeAuthority(address authority,string memory name, string memory pubKey, string memory passwordMaster) onlyOwner() external\n    {\n        //TODO\n        accountManager.addUser(authority, name, pubKey, passwordMaster);\n        emit SubscribeAuthority(authority, pubKey);\n    }\n\n    function viewMyProfil() view external returns(User memory)\n    {\n        return accountManager.getUser(msg.sender);\n    }\n\n    function viewProfil(address _address) view external returns(User memory)\n    {\n        return accountManager.getUser(_address);\n    }\n\n    function getMyPasswordMaster() view external returns(string memory)\n    {\n        return accountManager.getPasswordMaster(msg.sender);\n    }\n\n    function changeMyName(string memory name) external\n    {\n        accountManager.setUser(msg.sender, name);\n        emit ChangeUsername(msg.sender, name);\n    }\n\n    function unsubscribe() external userExist(msg.sender)\n    {\n        // Voir comment supprimer tout ces fichiers\n        docManager.deleteAllDocs(msg.sender);\n        docManager.delAllCopyDoc(msg.sender);\n        accountManager.delUser(msg.sender);\n        emit Unsubcribe(msg.sender);\n    }\n\n    function secureDocument(string memory tokenName, string memory tokenURI, string memory tokenMime, uint256 tokenLength, string memory filePath, string memory passwordEncrypted, string memory hashNFT) userExist(msg.sender) external returns (Document memory)\n    {\n        uint256 tokenID;\n        Document memory document;\n\n        tokenID = saveDocToken.mint(msg.sender, tokenURI);\n        document = docManager.createDoc(msg.sender, tokenID, tokenName, tokenMime, tokenLength, filePath, passwordEncrypted, hashNFT);\n        emit SecureDocument(msg.sender, tokenID);\n\n       return document;\n    }\n\n    function delMyDocument(uint256 tokenID, bool forTransfer) external isMyToken(tokenID)\n    {\n        docManager.deleteDoc(msg.sender, tokenID);\n\n        if (!forTransfer)\n        {\n            saveDocToken.burn(tokenID, msg.sender);\n        }\n        emit DeleteDocumment(msg.sender, tokenID, forTransfer);\n    }\n\n    function delMyDocument(address ownerDoc, uint256 tokenID, bool forTransfer) private\n    {\n        docManager.deleteDoc(ownerDoc, tokenID);\n\n        if (!forTransfer)\n        {\n            saveDocToken.burn(tokenID, ownerDoc);\n        }\n        emit DeleteDocumment(ownerDoc, tokenID, forTransfer);\n    }\n\n    function getTokenURI(uint256 tokenID) external view isMyToken(tokenID) returns(string memory)\n    {\n        return saveDocToken.tokenURI(tokenID);\n    }\n\n    function transferDoc(address to, uint256 tokenID, string memory tokenURITmp) external isMyToken(tokenID) userExist(to)\n    {\n        docManager.createCopyDoc(msg.sender, to, tokenID, tokenURITmp, TypeDoc.CopyPendingTransfer);\n        saveDocToken.transfer(msg.sender, to, tokenID);\n        delMyDocument(msg.sender, tokenID, true);\n        emit TransferDocument(msg.sender, to, tokenID);\n    }\n\n    function shareDoc(uint256 tokenID, address to, string memory tokenURI) isMyToken(tokenID) external userExist(to)\n    {\n        docManager.createCopyDoc(msg.sender, to, tokenID, tokenURI, TypeDoc.CopyShared);\n        emit ShareDoc(msg.sender, to, tokenID);\n    }\n\n    function acceptNewDoc(uint256 tokenID, string memory newTokenURI, string memory passwordEncrypted) external isMyToken(tokenID)\n    {\n        // check si msg.sender a bien dja une copie du Document\n        docManager.convertTypeDoc(msg.sender, TypeDoc.CopyPendingTransfer, TypeDoc.Original, tokenID, passwordEncrypted);\n        saveDocToken.setTokenURI(tokenID, newTokenURI, msg.sender);\n        emit AcceptTransferDoc(msg.sender, tokenID);\n    }\n\n    function delCopyDocShared(uint tokenID) external\n    {\n        docManager.delCopyDoc(msg.sender, TypeDoc.CopyShared, docManager.getIndexNFT(msg.sender, TypeDoc.CopyShared, tokenID));\n        emit DeleteMyDocCopy(msg.sender, tokenID);\n    }\n\n    function requestCertification(uint256 _tokenID, string memory _tokenURI, address _certifying) isMyToken(_tokenID) external userExist(_certifying) requestNotExist(_certifying, _tokenID)\n    {\n        docManager.createCopyDoc(msg.sender, _certifying, _tokenID, _tokenURI, TypeDoc.CopyCertified);\n\n        requests[_certifying][_tokenID].applicant = msg.sender;\n        requests[_certifying][_tokenID].tokenID = _tokenID;\n        requests[_certifying][_tokenID].exist = true;\n\n        emit RequestCertification(requests[_certifying][_tokenID].applicant, requests[_certifying][_tokenID].tokenID);\n    }\n\n    function viewMyDocs() view external returns(Document[] memory)\n    {\n        return docManager.getDocs(msg.sender);\n    }\n\n    function viewMyCopyDocs() view external returns(Document[] memory)\n    {\n        return docManager.getAllCopyShared(msg.sender);\n    }\n\n    function viewDocPendingTransfer() view external returns(Document[] memory)\n    {\n        return docManager.getAllCopyPendingTransfer(msg.sender);\n    }\n\n    function viewDocCertified() view external returns(Document[] memory)\n    {\n        return docManager.getAllCopyCertified(msg.sender);\n    }\n\n\n    function delRequest(address _certifying, uint256 _tokenID) private\n    {\n        delete requests[_certifying][_tokenID];\n    }\n\n    function certifyDocument(address applicant, uint256 tokenID, string memory hashNFT) private\n    {\n        bool isAuthority;\n\n        isAuthority = accountManager.isAuthority(msg.sender);\n        docManager.certify(msg.sender, isAuthority, applicant, tokenID, hashNFT);\n    }\n\n    function acceptCertificationRequest(uint256 _tokenID, string memory _hashNFT, bool _keepCopyDoc) requestExist(msg.sender, _tokenID) public\n    {\n        // check si msg.sender a bien dja une copie du Document\n        CertificationRequest memory request = requests[msg.sender][_tokenID];\n        certifyDocument(request.applicant, request.tokenID, _hashNFT);\n        delRequest(msg.sender, request.tokenID);\n\n        if (_keepCopyDoc) {\n            docManager.convertTypeDoc(msg.sender, TypeDoc.CopyCertified, TypeDoc.CopyShared, request.tokenID, \"\");\n        } else {\n            docManager.delCopyDoc(msg.sender, TypeDoc.CopyCertified, docManager.getIndexNFT(msg.sender, TypeDoc.CopyCertified, request.tokenID));\n        }\n\n        emit AcceptCertificationRequest(msg.sender, request.applicant, request.tokenID, _keepCopyDoc);\n    }\n\n    function rejectCertificationRequest(uint256 _tokenID) requestExist(msg.sender, _tokenID) external\n    {\n        // check si msg.sender  bien dja une copie du Document\n        CertificationRequest memory request = requests[msg.sender][_tokenID];\n        delRequest(msg.sender, _tokenID);\n        docManager.delCopyDoc(msg.sender, TypeDoc.CopyCertified, docManager.getIndexNFT(msg.sender, TypeDoc.CopyCertified, request.tokenID));\n\n        emit RejectCertificationRequest(msg.sender, request.applicant, request.tokenID);\n    }\n\n    function tokenExist(uint256 tokenID) view onlyOwner() public returns(bool)\n    {\n        return saveDocToken.exist(tokenID);\n    }\n}\n",
  "sourcePath": "/home/jg/Alyra/SAV-Doc/contracts/SaveDoc.sol",
  "compiler": {
    "name": "solc",
    "version": "0.8.6+commit.11564f7e.Emscripten.clang"
  },
  "schemaVersion": "3.4.1",
  "updatedAt": "2021-08-08T20:39:18.542Z",
  "devdoc": {
    "kind": "dev",
    "methods": {
      "owner()": {
        "details": "Returns the address of the current owner."
      },
      "renounceOwnership()": {
        "details": "Leaves the contract without owner. It will not be possible to call `onlyOwner` functions anymore. Can only be called by the current owner. NOTE: Renouncing ownership will leave the contract without an owner, thereby removing any functionality that is only available to the owner."
      },
      "transferOwnership(address)": {
        "details": "Transfers ownership of the contract to a new account (`newOwner`). Can only be called by the current owner."
      }
    },
    "version": 1
  },
  "userdoc": {
    "kind": "user",
    "methods": {},
    "version": 1
  }
}