{
  "contractName": "SaveMyDoc",
  "abi": [
    {
      "inputs": [
        {
          "internalType": "contract DocManager",
          "name": "_docManager",
          "type": "address"
        },
        {
          "internalType": "contract SaveDocToken",
          "name": "_saveDocToken",
          "type": "address"
        },
        {
          "internalType": "contract AccountManager",
          "name": "_accountManager",
          "type": "address"
        }
      ],
      "stateMutability": "nonpayable",
      "type": "constructor"
    },
    {
      "anonymous": false,
      "inputs": [
        {
          "indexed": true,
          "internalType": "address",
          "name": "previousOwner",
          "type": "address"
        },
        {
          "indexed": true,
          "internalType": "address",
          "name": "newOwner",
          "type": "address"
        }
      ],
      "name": "OwnershipTransferred",
      "type": "event"
    },
    {
      "inputs": [],
      "name": "owner",
      "outputs": [
        {
          "internalType": "address",
          "name": "",
          "type": "address"
        }
      ],
      "stateMutability": "view",
      "type": "function"
    },
    {
      "inputs": [],
      "name": "renounceOwnership",
      "outputs": [],
      "stateMutability": "nonpayable",
      "type": "function"
    },
    {
      "inputs": [
        {
          "internalType": "address",
          "name": "newOwner",
          "type": "address"
        }
      ],
      "name": "transferOwnership",
      "outputs": [],
      "stateMutability": "nonpayable",
      "type": "function"
    },
    {
      "inputs": [
        {
          "internalType": "string",
          "name": "name",
          "type": "string"
        },
        {
          "internalType": "string",
          "name": "pubKey",
          "type": "string"
        },
        {
          "internalType": "string",
          "name": "passwordMaster",
          "type": "string"
        }
      ],
      "name": "subscribe",
      "outputs": [],
      "stateMutability": "nonpayable",
      "type": "function"
    },
    {
      "inputs": [
        {
          "internalType": "string",
          "name": "name",
          "type": "string"
        },
        {
          "internalType": "string",
          "name": "pubKey",
          "type": "string"
        },
        {
          "internalType": "string",
          "name": "passwordMaster",
          "type": "string"
        }
      ],
      "name": "subscribeAuthority",
      "outputs": [],
      "stateMutability": "nonpayable",
      "type": "function"
    },
    {
      "inputs": [],
      "name": "viewMyProfil",
      "outputs": [
        {
          "components": [
            {
              "internalType": "string",
              "name": "name",
              "type": "string"
            },
            {
              "internalType": "string",
              "name": "publicKey",
              "type": "string"
            },
            {
              "internalType": "bool",
              "name": "isAuthority",
              "type": "bool"
            },
            {
              "internalType": "bool",
              "name": "exist",
              "type": "bool"
            }
          ],
          "internalType": "struct SaveDocStruct.User",
          "name": "",
          "type": "tuple"
        }
      ],
      "stateMutability": "view",
      "type": "function"
    },
    {
      "inputs": [],
      "name": "getMyPasswordMaster",
      "outputs": [
        {
          "internalType": "string",
          "name": "",
          "type": "string"
        }
      ],
      "stateMutability": "view",
      "type": "function"
    },
    {
      "inputs": [
        {
          "internalType": "string",
          "name": "name",
          "type": "string"
        }
      ],
      "name": "changeMyName",
      "outputs": [],
      "stateMutability": "nonpayable",
      "type": "function"
    },
    {
      "inputs": [],
      "name": "unsubscribe",
      "outputs": [],
      "stateMutability": "nonpayable",
      "type": "function"
    },
    {
      "inputs": [
        {
          "internalType": "string",
          "name": "tokenName",
          "type": "string"
        },
        {
          "internalType": "string",
          "name": "tokenURI",
          "type": "string"
        },
        {
          "internalType": "string",
          "name": "tokenMime",
          "type": "string"
        },
        {
          "internalType": "uint256",
          "name": "tokenLength",
          "type": "uint256"
        },
        {
          "internalType": "string",
          "name": "filePath",
          "type": "string"
        },
        {
          "internalType": "string",
          "name": "passwordEncrypted",
          "type": "string"
        },
        {
          "internalType": "string",
          "name": "hashNFT",
          "type": "string"
        }
      ],
      "name": "secureDocument",
      "outputs": [
        {
          "components": [
            {
              "internalType": "uint256",
              "name": "tokenID",
              "type": "uint256"
            },
            {
              "internalType": "uint256",
              "name": "fileSize",
              "type": "uint256"
            },
            {
              "internalType": "string",
              "name": "filename",
              "type": "string"
            },
            {
              "internalType": "string",
              "name": "fileMimeType",
              "type": "string"
            },
            {
              "internalType": "uint256",
              "name": "dateAdd",
              "type": "uint256"
            },
            {
              "internalType": "string",
              "name": "filePath",
              "type": "string"
            },
            {
              "internalType": "address[]",
              "name": "certifying",
              "type": "address[]"
            },
            {
              "internalType": "string",
              "name": "tokenURI",
              "type": "string"
            },
            {
              "internalType": "string",
              "name": "passwordEncrypted",
              "type": "string"
            },
            {
              "internalType": "enum SaveDocStruct.TypeDoc",
              "name": "typeNft",
              "type": "uint8"
            }
          ],
          "internalType": "struct SaveDocStruct.Document",
          "name": "",
          "type": "tuple"
        }
      ],
      "stateMutability": "nonpayable",
      "type": "function"
    },
    {
      "inputs": [
        {
          "internalType": "uint256",
          "name": "tokenID",
          "type": "uint256"
        },
        {
          "internalType": "bool",
          "name": "forTransfer",
          "type": "bool"
        }
      ],
      "name": "delMyDocument",
      "outputs": [],
      "stateMutability": "nonpayable",
      "type": "function"
    },
    {
      "inputs": [
        {
          "internalType": "uint256",
          "name": "tokenID",
          "type": "uint256"
        }
      ],
      "name": "getTokenURI",
      "outputs": [
        {
          "internalType": "string",
          "name": "",
          "type": "string"
        }
      ],
      "stateMutability": "view",
      "type": "function"
    },
    {
      "inputs": [
        {
          "internalType": "address",
          "name": "to",
          "type": "address"
        },
        {
          "internalType": "uint256",
          "name": "tokenID",
          "type": "uint256"
        },
        {
          "internalType": "string",
          "name": "tokenURITmp",
          "type": "string"
        }
      ],
      "name": "transferDoc",
      "outputs": [],
      "stateMutability": "nonpayable",
      "type": "function"
    },
    {
      "inputs": [
        {
          "internalType": "uint256",
          "name": "tokenID",
          "type": "uint256"
        },
        {
          "internalType": "address",
          "name": "to",
          "type": "address"
        },
        {
          "internalType": "string",
          "name": "tokenURI",
          "type": "string"
        }
      ],
      "name": "shareDoc",
      "outputs": [],
      "stateMutability": "nonpayable",
      "type": "function"
    },
    {
      "inputs": [
        {
          "internalType": "uint256",
          "name": "tokenID",
          "type": "uint256"
        },
        {
          "internalType": "string",
          "name": "newTokenURI",
          "type": "string"
        },
        {
          "internalType": "string",
          "name": "passwordEncrypted",
          "type": "string"
        }
      ],
      "name": "acceptNewDoc",
      "outputs": [],
      "stateMutability": "nonpayable",
      "type": "function"
    },
    {
      "inputs": [
        {
          "internalType": "uint256",
          "name": "tokenID",
          "type": "uint256"
        }
      ],
      "name": "delCopyDocShared",
      "outputs": [],
      "stateMutability": "nonpayable",
      "type": "function"
    },
    {
      "inputs": [
        {
          "internalType": "uint256",
          "name": "tokenID",
          "type": "uint256"
        },
        {
          "internalType": "string",
          "name": "tokenURI",
          "type": "string"
        },
        {
          "internalType": "address",
          "name": "certifying",
          "type": "address"
        }
      ],
      "name": "requestCertification",
      "outputs": [],
      "stateMutability": "nonpayable",
      "type": "function"
    },
    {
      "inputs": [],
      "name": "viewMyDocs",
      "outputs": [
        {
          "components": [
            {
              "internalType": "uint256",
              "name": "tokenID",
              "type": "uint256"
            },
            {
              "internalType": "uint256",
              "name": "fileSize",
              "type": "uint256"
            },
            {
              "internalType": "string",
              "name": "filename",
              "type": "string"
            },
            {
              "internalType": "string",
              "name": "fileMimeType",
              "type": "string"
            },
            {
              "internalType": "uint256",
              "name": "dateAdd",
              "type": "uint256"
            },
            {
              "internalType": "string",
              "name": "filePath",
              "type": "string"
            },
            {
              "internalType": "address[]",
              "name": "certifying",
              "type": "address[]"
            },
            {
              "internalType": "string",
              "name": "tokenURI",
              "type": "string"
            },
            {
              "internalType": "string",
              "name": "passwordEncrypted",
              "type": "string"
            },
            {
              "internalType": "enum SaveDocStruct.TypeDoc",
              "name": "typeNft",
              "type": "uint8"
            }
          ],
          "internalType": "struct SaveDocStruct.Document[]",
          "name": "",
          "type": "tuple[]"
        }
      ],
      "stateMutability": "view",
      "type": "function"
    },
    {
      "inputs": [],
      "name": "viewMyCopyDocs",
      "outputs": [
        {
          "components": [
            {
              "internalType": "uint256",
              "name": "tokenID",
              "type": "uint256"
            },
            {
              "internalType": "uint256",
              "name": "fileSize",
              "type": "uint256"
            },
            {
              "internalType": "string",
              "name": "filename",
              "type": "string"
            },
            {
              "internalType": "string",
              "name": "fileMimeType",
              "type": "string"
            },
            {
              "internalType": "uint256",
              "name": "dateAdd",
              "type": "uint256"
            },
            {
              "internalType": "string",
              "name": "filePath",
              "type": "string"
            },
            {
              "internalType": "address[]",
              "name": "certifying",
              "type": "address[]"
            },
            {
              "internalType": "string",
              "name": "tokenURI",
              "type": "string"
            },
            {
              "internalType": "string",
              "name": "passwordEncrypted",
              "type": "string"
            },
            {
              "internalType": "enum SaveDocStruct.TypeDoc",
              "name": "typeNft",
              "type": "uint8"
            }
          ],
          "internalType": "struct SaveDocStruct.Document[]",
          "name": "",
          "type": "tuple[]"
        }
      ],
      "stateMutability": "view",
      "type": "function"
    },
    {
      "inputs": [],
      "name": "viewDocPendingTransfer",
      "outputs": [
        {
          "components": [
            {
              "internalType": "uint256",
              "name": "tokenID",
              "type": "uint256"
            },
            {
              "internalType": "uint256",
              "name": "fileSize",
              "type": "uint256"
            },
            {
              "internalType": "string",
              "name": "filename",
              "type": "string"
            },
            {
              "internalType": "string",
              "name": "fileMimeType",
              "type": "string"
            },
            {
              "internalType": "uint256",
              "name": "dateAdd",
              "type": "uint256"
            },
            {
              "internalType": "string",
              "name": "filePath",
              "type": "string"
            },
            {
              "internalType": "address[]",
              "name": "certifying",
              "type": "address[]"
            },
            {
              "internalType": "string",
              "name": "tokenURI",
              "type": "string"
            },
            {
              "internalType": "string",
              "name": "passwordEncrypted",
              "type": "string"
            },
            {
              "internalType": "enum SaveDocStruct.TypeDoc",
              "name": "typeNft",
              "type": "uint8"
            }
          ],
          "internalType": "struct SaveDocStruct.Document[]",
          "name": "",
          "type": "tuple[]"
        }
      ],
      "stateMutability": "view",
      "type": "function"
    },
    {
      "inputs": [],
      "name": "viewDocCertified",
      "outputs": [
        {
          "components": [
            {
              "internalType": "uint256",
              "name": "tokenID",
              "type": "uint256"
            },
            {
              "internalType": "uint256",
              "name": "fileSize",
              "type": "uint256"
            },
            {
              "internalType": "string",
              "name": "filename",
              "type": "string"
            },
            {
              "internalType": "string",
              "name": "fileMimeType",
              "type": "string"
            },
            {
              "internalType": "uint256",
              "name": "dateAdd",
              "type": "uint256"
            },
            {
              "internalType": "string",
              "name": "filePath",
              "type": "string"
            },
            {
              "internalType": "address[]",
              "name": "certifying",
              "type": "address[]"
            },
            {
              "internalType": "string",
              "name": "tokenURI",
              "type": "string"
            },
            {
              "internalType": "string",
              "name": "passwordEncrypted",
              "type": "string"
            },
            {
              "internalType": "enum SaveDocStruct.TypeDoc",
              "name": "typeNft",
              "type": "uint8"
            }
          ],
          "internalType": "struct SaveDocStruct.Document[]",
          "name": "",
          "type": "tuple[]"
        }
      ],
      "stateMutability": "view",
      "type": "function"
    },
    {
      "inputs": [],
      "name": "viewCertificationRequest",
      "outputs": [
        {
          "components": [
            {
              "internalType": "address",
              "name": "applicant",
              "type": "address"
            },
            {
              "internalType": "uint256",
              "name": "tokenID",
              "type": "uint256"
            },
            {
              "internalType": "uint256",
              "name": "index",
              "type": "uint256"
            }
          ],
          "internalType": "struct SaveDocStruct.CertificationRequest[]",
          "name": "",
          "type": "tuple[]"
        }
      ],
      "stateMutability": "view",
      "type": "function"
    },
    {
      "inputs": [
        {
          "components": [
            {
              "internalType": "address",
              "name": "applicant",
              "type": "address"
            },
            {
              "internalType": "uint256",
              "name": "tokenID",
              "type": "uint256"
            },
            {
              "internalType": "uint256",
              "name": "index",
              "type": "uint256"
            }
          ],
          "internalType": "struct SaveDocStruct.CertificationRequest",
          "name": "request",
          "type": "tuple"
        },
        {
          "internalType": "string",
          "name": "hashNFT",
          "type": "string"
        },
        {
          "internalType": "bool",
          "name": "keepCopyDoc",
          "type": "bool"
        }
      ],
      "name": "acceptCertificationRequest",
      "outputs": [],
      "stateMutability": "nonpayable",
      "type": "function"
    },
    {
      "inputs": [
        {
          "components": [
            {
              "internalType": "address",
              "name": "applicant",
              "type": "address"
            },
            {
              "internalType": "uint256",
              "name": "tokenID",
              "type": "uint256"
            },
            {
              "internalType": "uint256",
              "name": "index",
              "type": "uint256"
            }
          ],
          "internalType": "struct SaveDocStruct.CertificationRequest",
          "name": "request",
          "type": "tuple"
        }
      ],
      "name": "rejectCertificationRequest",
      "outputs": [],
      "stateMutability": "nonpayable",
      "type": "function"
    }
  ],
  "bytecode": "0x60806040523480156200001157600080fd5b5060405162004d4c38038062004d4c833981810160405281019062000037919062000234565b620000576200004b6200012360201b60201c565b6200012b60201b60201c565b82600360006101000a81548173ffffffffffffffffffffffffffffffffffffffff021916908373ffffffffffffffffffffffffffffffffffffffff16021790555081600260006101000a81548173ffffffffffffffffffffffffffffffffffffffff021916908373ffffffffffffffffffffffffffffffffffffffff16021790555080600460006101000a81548173ffffffffffffffffffffffffffffffffffffffff021916908373ffffffffffffffffffffffffffffffffffffffff16021790555050505062000353565b600033905090565b60008060009054906101000a900473ffffffffffffffffffffffffffffffffffffffff169050816000806101000a81548173ffffffffffffffffffffffffffffffffffffffff021916908373ffffffffffffffffffffffffffffffffffffffff1602179055508173ffffffffffffffffffffffffffffffffffffffff168173ffffffffffffffffffffffffffffffffffffffff167f8be0079c531659141344cd1fd0a4f28419497f9722a3daafe3b4186f6b6457e060405160405180910390a35050565b600081519050620002008162000305565b92915050565b60008151905062000217816200031f565b92915050565b6000815190506200022e8162000339565b92915050565b60008060006060848603121562000250576200024f62000300565b5b6000620002608682870162000206565b935050602062000273868287016200021d565b92505060406200028686828701620001ef565b9150509250925092565b60006200029d82620002e0565b9050919050565b6000620002b18262000290565b9050919050565b6000620002c58262000290565b9050919050565b6000620002d98262000290565b9050919050565b600073ffffffffffffffffffffffffffffffffffffffff82169050919050565b600080fd5b6200031081620002a4565b81146200031c57600080fd5b50565b6200032a81620002b8565b81146200033657600080fd5b50565b6200034481620002cc565b81146200035057600080fd5b50565b6149e980620003636000396000f3fe608060405234801561001057600080fd5b50600436106101585760003560e01c806393eeaef0116100c3578063c991607e1161007c578063c991607e14610377578063cfba8f9114610395578063f260d415146103b3578063f2fde38b146103cf578063f42a119e146103eb578063fcae44841461040757610158565b806393eeaef0146102b7578063940c1bc8146102d3578063b799625214610303578063bf56659914610321578063c7714c341461033d578063c7d8eaa31461035957610158565b80635c1ef442116101155780635c1ef4421461021b5780636fbf73fd14610237578063715018a61461025557806375ece0dc1461025f5780638a5fd6061461027d5780638da5cb5b1461029957610158565b806304df2ab71461015d5780632d5dbeb114610179578063357c2f54146101955780633bb3a24d146101b357806342cd7236146101e357806345f0abfe146101ff575b600080fd5b610177600480360381019061017291906134b3565b610411565b005b610193600480360381019061018e919061394a565b61054b565b005b61019d610792565b6040516101aa91906142ee565b60405180910390f35b6101cd60048036038101906101c891906137d2565b610849565b6040516101da9190614310565b60405180910390f35b6101fd60048036038101906101f891906136a4565b610a1c565b005b6102196004803603810190610214919061382c565b610b72565b005b6102356004803603810190610230919061389b565b610e13565b005b61023f611076565b60405161024c91906142ee565b60405180910390f35b61025d61112d565b005b6102676111b5565b60405161027491906142ee565b60405180910390f35b610297600480360381019061029291906138db565b61126c565b005b6102a1611651565b6040516102ae9190613f89565b60405180910390f35b6102d160048036038101906102cc91906137d2565b61167a565b005b6102ed60048036038101906102e8919061355a565b6118d8565b6040516102fa91906143b2565b60405180910390f35b61030b611a6d565b60405161031891906142ee565b60405180910390f35b61033b60048036038101906103369190613421565b611b24565b005b610357600480360381019061035291906136d1565b611bdc565b005b610361611dec565b60405161036e91906142cc565b60405180910390f35b61037f611ef2565b60405161038c91906143d4565b60405180910390f35b61039d611faf565b6040516103aa9190614310565b60405180910390f35b6103cd60048036038101906103c891906134b3565b612066565b005b6103e960048036038101906103e491906132e2565b612124565b005b6104056004803603810190610400919061333c565b61221c565b005b61040f612559565b005b6104196127ee565b73ffffffffffffffffffffffffffffffffffffffff16610437611651565b73ffffffffffffffffffffffffffffffffffffffff161461048d576040517f08c379a000000000000000000000000000000000000000000000000000000000815260040161048490614372565b60405180910390fd5b600460009054906101000a900473ffffffffffffffffffffffffffffffffffffffff1673ffffffffffffffffffffffffffffffffffffffff1663c6361c22338585856040518563ffffffff1660e01b81526004016104ee94939291906141a8565b600060405180830381600087803b15801561050857600080fd5b505af115801561051c573d6000803e3d6000fd5b505050506040513d6000823e3d601f19601f820116820180604052508101906105459190613789565b50505050565b823373ffffffffffffffffffffffffffffffffffffffff16600260009054906101000a900473ffffffffffffffffffffffffffffffffffffffff1673ffffffffffffffffffffffffffffffffffffffff16636352211e836040518263ffffffff1660e01b81526004016105be91906143f6565b60206040518083038186803b1580156105d657600080fd5b505afa1580156105ea573d6000803e3d6000fd5b505050506040513d601f19601f8201168201806040525081019061060e919061330f565b73ffffffffffffffffffffffffffffffffffffffff1614610664576040517f08c379a000000000000000000000000000000000000000000000000000000000815260040161065b90614392565b60405180910390fd5b600360009054906101000a900473ffffffffffffffffffffffffffffffffffffffff1673ffffffffffffffffffffffffffffffffffffffff16638c6acc51336003600088876040518663ffffffff1660e01b81526004016106c995949392919061408f565b600060405180830381600087803b1580156106e357600080fd5b505af11580156106f7573d6000803e3d6000fd5b50505050600260009054906101000a900473ffffffffffffffffffffffffffffffffffffffff1673ffffffffffffffffffffffffffffffffffffffff16632682b0e48585336040518463ffffffff1660e01b815260040161075a9392919061443a565b600060405180830381600087803b15801561077457600080fd5b505af1158015610788573d6000803e3d6000fd5b5050505050505050565b6060600360009054906101000a900473ffffffffffffffffffffffffffffffffffffffff1673ffffffffffffffffffffffffffffffffffffffff166304e5b45c336040518263ffffffff1660e01b81526004016107ef9190613f89565b60006040518083038186803b15801561080757600080fd5b505afa15801561081b573d6000803e3d6000fd5b505050506040513d6000823e3d601f19601f8201168201806040525081019061084491906133ab565b905090565b6060813373ffffffffffffffffffffffffffffffffffffffff16600260009054906101000a900473ffffffffffffffffffffffffffffffffffffffff1673ffffffffffffffffffffffffffffffffffffffff16636352211e836040518263ffffffff1660e01b81526004016108be91906143f6565b60206040518083038186803b1580156108d657600080fd5b505afa1580156108ea573d6000803e3d6000fd5b505050506040513d601f19601f8201168201806040525081019061090e919061330f565b73ffffffffffffffffffffffffffffffffffffffff1614610964576040517f08c379a000000000000000000000000000000000000000000000000000000000815260040161095b90614392565b60405180910390fd5b600260009054906101000a900473ffffffffffffffffffffffffffffffffffffffff1673ffffffffffffffffffffffffffffffffffffffff1663c87b56dd846040518263ffffffff1660e01b81526004016109bf91906143f6565b60006040518083038186803b1580156109d757600080fd5b505afa1580156109eb573d6000803e3d6000fd5b505050506040513d6000823e3d601f19601f82011682018060405250810190610a14919061346a565b915050919050565b610a2a3382604001516127f6565b600360009054906101000a900473ffffffffffffffffffffffffffffffffffffffff1673ffffffffffffffffffffffffffffffffffffffff16634531817d336002600360009054906101000a900473ffffffffffffffffffffffffffffffffffffffff1673ffffffffffffffffffffffffffffffffffffffff16637cc24f2d33600288602001516040518463ffffffff1660e01b8152600401610acf93929190614141565b60206040518083038186803b158015610ae757600080fd5b505afa158015610afb573d6000803e3d6000fd5b505050506040513d601f19601f82011682018060405250810190610b1f91906137ff565b6040518463ffffffff1660e01b8152600401610b3d93929190614141565b600060405180830381600087803b158015610b5757600080fd5b505af1158015610b6b573d6000803e3d6000fd5b5050505050565b823373ffffffffffffffffffffffffffffffffffffffff16600260009054906101000a900473ffffffffffffffffffffffffffffffffffffffff1673ffffffffffffffffffffffffffffffffffffffff16636352211e836040518263ffffffff1660e01b8152600401610be591906143f6565b60206040518083038186803b158015610bfd57600080fd5b505afa158015610c11573d6000803e3d6000fd5b505050506040513d601f19601f82011682018060405250810190610c35919061330f565b73ffffffffffffffffffffffffffffffffffffffff1614610c8b576040517f08c379a0000000000000000000000000000000000000000000000000000000008152600401610c8290614392565b60405180910390fd5b82600460009054906101000a900473ffffffffffffffffffffffffffffffffffffffff1673ffffffffffffffffffffffffffffffffffffffff1663a1abffee826040518263ffffffff1660e01b8152600401610ce79190613f89565b60206040518083038186803b158015610cff57600080fd5b505afa158015610d13573d6000803e3d6000fd5b505050506040513d601f19601f82011682018060405250810190610d3791906133f4565b610d76576040517f08c379a0000000000000000000000000000000000000000000000000000000008152600401610d6d90614352565b60405180910390fd5b600360009054906101000a900473ffffffffffffffffffffffffffffffffffffffff1673ffffffffffffffffffffffffffffffffffffffff166371499a7b3386888760016040518663ffffffff1660e01b8152600401610dda959493929190613fdb565b600060405180830381600087803b158015610df457600080fd5b505af1158015610e08573d6000803e3d6000fd5b505050505050505050565b813373ffffffffffffffffffffffffffffffffffffffff16600260009054906101000a900473ffffffffffffffffffffffffffffffffffffffff1673ffffffffffffffffffffffffffffffffffffffff16636352211e836040518263ffffffff1660e01b8152600401610e8691906143f6565b60206040518083038186803b158015610e9e57600080fd5b505afa158015610eb2573d6000803e3d6000fd5b505050506040513d601f19601f82011682018060405250810190610ed6919061330f565b73ffffffffffffffffffffffffffffffffffffffff1614610f2c576040517f08c379a0000000000000000000000000000000000000000000000000000000008152600401610f2390614392565b60405180910390fd5b600360009054906101000a900473ffffffffffffffffffffffffffffffffffffffff1673ffffffffffffffffffffffffffffffffffffffff166389ed5fa033856040518363ffffffff1660e01b8152600401610f89929190614202565b602060405180830381600087803b158015610fa357600080fd5b505af1158015610fb7573d6000803e3d6000fd5b505050506040513d601f19601f82011682018060405250810190610fdb91906133f4565b508161107157600260009054906101000a900473ffffffffffffffffffffffffffffffffffffffff1673ffffffffffffffffffffffffffffffffffffffff1663fcd3533c84336040518363ffffffff1660e01b815260040161103e929190614411565b600060405180830381600087803b15801561105857600080fd5b505af115801561106c573d6000803e3d6000fd5b505050505b505050565b6060600360009054906101000a900473ffffffffffffffffffffffffffffffffffffffff1673ffffffffffffffffffffffffffffffffffffffff1663219e657b336040518263ffffffff1660e01b81526004016110d39190613f89565b60006040518083038186803b1580156110eb57600080fd5b505afa1580156110ff573d6000803e3d6000fd5b505050506040513d6000823e3d601f19601f8201168201806040525081019061112891906133ab565b905090565b6111356127ee565b73ffffffffffffffffffffffffffffffffffffffff16611153611651565b73ffffffffffffffffffffffffffffffffffffffff16146111a9576040517f08c379a00000000000000000000000000000000000000000000000000000000081526004016111a090614372565b60405180910390fd5b6111b36000612a8d565b565b6060600360009054906101000a900473ffffffffffffffffffffffffffffffffffffffff1673ffffffffffffffffffffffffffffffffffffffff1663bbed9457336040518263ffffffff1660e01b81526004016112129190613f89565b60006040518083038186803b15801561122a57600080fd5b505afa15801561123e573d6000803e3d6000fd5b505050506040513d6000823e3d601f19601f8201168201806040525081019061126791906133ab565b905090565b823373ffffffffffffffffffffffffffffffffffffffff16600260009054906101000a900473ffffffffffffffffffffffffffffffffffffffff1673ffffffffffffffffffffffffffffffffffffffff16636352211e836040518263ffffffff1660e01b81526004016112df91906143f6565b60206040518083038186803b1580156112f757600080fd5b505afa15801561130b573d6000803e3d6000fd5b505050506040513d601f19601f8201168201806040525081019061132f919061330f565b73ffffffffffffffffffffffffffffffffffffffff1614611385576040517f08c379a000000000000000000000000000000000000000000000000000000000815260040161137c90614392565b60405180910390fd5b81600460009054906101000a900473ffffffffffffffffffffffffffffffffffffffff1673ffffffffffffffffffffffffffffffffffffffff1663a1abffee826040518263ffffffff1660e01b81526004016113e19190613f89565b60206040518083038186803b1580156113f957600080fd5b505afa15801561140d573d6000803e3d6000fd5b505050506040513d601f19601f8201168201806040525081019061143191906133f4565b611470576040517f08c379a000000000000000000000000000000000000000000000000000000000815260040161146790614352565b60405180910390fd5b611478612c9b565b600360009054906101000a900473ffffffffffffffffffffffffffffffffffffffff1673ffffffffffffffffffffffffffffffffffffffff166371499a7b3386898960026040518663ffffffff1660e01b81526004016114dc959493929190613fdb565b600060405180830381600087803b1580156114f657600080fd5b505af115801561150a573d6000803e3d6000fd5b5050505060405180606001604052803373ffffffffffffffffffffffffffffffffffffffff168152602001878152602001600160008773ffffffffffffffffffffffffffffffffffffffff1673ffffffffffffffffffffffffffffffffffffffff168152602001908152602001600020805490508152509050600160008573ffffffffffffffffffffffffffffffffffffffff1673ffffffffffffffffffffffffffffffffffffffff16815260200190815260200160002081908060018154018082558091505060019003906000526020600020906003020160009091909190915060008201518160000160006101000a81548173ffffffffffffffffffffffffffffffffffffffff021916908373ffffffffffffffffffffffffffffffffffffffff16021790555060208201518160010155604082015181600201555050505050505050565b60008060009054906101000a900473ffffffffffffffffffffffffffffffffffffffff16905090565b803373ffffffffffffffffffffffffffffffffffffffff16600260009054906101000a900473ffffffffffffffffffffffffffffffffffffffff1673ffffffffffffffffffffffffffffffffffffffff16636352211e836040518263ffffffff1660e01b81526004016116ed91906143f6565b60206040518083038186803b15801561170557600080fd5b505afa158015611719573d6000803e3d6000fd5b505050506040513d601f19601f8201168201806040525081019061173d919061330f565b73ffffffffffffffffffffffffffffffffffffffff1614611793576040517f08c379a000000000000000000000000000000000000000000000000000000000815260040161178a90614392565b60405180910390fd5b600360009054906101000a900473ffffffffffffffffffffffffffffffffffffffff1673ffffffffffffffffffffffffffffffffffffffff16634531817d336001600360009054906101000a900473ffffffffffffffffffffffffffffffffffffffff1673ffffffffffffffffffffffffffffffffffffffff16637cc24f2d336001896040518463ffffffff1660e01b815260040161183493929190614141565b60206040518083038186803b15801561184c57600080fd5b505afa158015611860573d6000803e3d6000fd5b505050506040513d601f19601f8201168201806040525081019061188491906137ff565b6040518463ffffffff1660e01b81526004016118a293929190614141565b600060405180830381600087803b1580156118bc57600080fd5b505af11580156118d0573d6000803e3d6000fd5b505050505050565b6118e0612cd2565b60006118ea612cd2565b600260009054906101000a900473ffffffffffffffffffffffffffffffffffffffff1673ffffffffffffffffffffffffffffffffffffffff1663d0def521338b6040518363ffffffff1660e01b8152600401611947929190614178565b602060405180830381600087803b15801561196157600080fd5b505af1158015611975573d6000803e3d6000fd5b505050506040513d601f19601f8201168201806040525081019061199991906137ff565b9150600360009054906101000a900473ffffffffffffffffffffffffffffffffffffffff1673ffffffffffffffffffffffffffffffffffffffff16639643062c33848d8c8c8c8c8c6040518963ffffffff1660e01b8152600401611a0498979695949392919061422b565b600060405180830381600087803b158015611a1e57600080fd5b505af1158015611a32573d6000803e3d6000fd5b505050506040513d6000823e3d601f19601f82011682018060405250810190611a5b9190613740565b90508092505050979650505050505050565b6060600360009054906101000a900473ffffffffffffffffffffffffffffffffffffffff1673ffffffffffffffffffffffffffffffffffffffff1663d83e2027336040518263ffffffff1660e01b8152600401611aca9190613f89565b60006040518083038186803b158015611ae257600080fd5b505afa158015611af6573d6000803e3d6000fd5b505050506040513d6000823e3d601f19601f82011682018060405250810190611b1f91906133ab565b905090565b600460009054906101000a900473ffffffffffffffffffffffffffffffffffffffff1673ffffffffffffffffffffffffffffffffffffffff16633f1a51b833836040518363ffffffff1660e01b8152600401611b81929190614178565b600060405180830381600087803b158015611b9b57600080fd5b505af1158015611baf573d6000803e3d6000fd5b505050506040513d6000823e3d601f19601f82011682018060405250810190611bd89190613789565b5050565b611bef8360000151846020015184612b51565b611bfd3384604001516127f6565b8015611ca157600360009054906101000a900473ffffffffffffffffffffffffffffffffffffffff1673ffffffffffffffffffffffffffffffffffffffff16638c6acc51336002600187602001516040518563ffffffff1660e01b8152600401611c6a94939291906140e9565b600060405180830381600087803b158015611c8457600080fd5b505af1158015611c98573d6000803e3d6000fd5b50505050611de7565b600360009054906101000a900473ffffffffffffffffffffffffffffffffffffffff1673ffffffffffffffffffffffffffffffffffffffff16634531817d336002600360009054906101000a900473ffffffffffffffffffffffffffffffffffffffff1673ffffffffffffffffffffffffffffffffffffffff16637cc24f2d3360028a602001516040518463ffffffff1660e01b8152600401611d4693929190614141565b60206040518083038186803b158015611d5e57600080fd5b505afa158015611d72573d6000803e3d6000fd5b505050506040513d601f19601f82011682018060405250810190611d9691906137ff565b6040518463ffffffff1660e01b8152600401611db493929190614141565b600060405180830381600087803b158015611dce57600080fd5b505af1158015611de2573d6000803e3d6000fd5b505050505b505050565b6060600160003373ffffffffffffffffffffffffffffffffffffffff1673ffffffffffffffffffffffffffffffffffffffff168152602001908152602001600020805480602002602001604051908101604052809291908181526020016000905b82821015611ee957838290600052602060002090600302016040518060600160405290816000820160009054906101000a900473ffffffffffffffffffffffffffffffffffffffff1673ffffffffffffffffffffffffffffffffffffffff1673ffffffffffffffffffffffffffffffffffffffff1681526020016001820154815260200160028201548152505081526020019060010190611e4d565b50505050905090565b611efa612d37565b600460009054906101000a900473ffffffffffffffffffffffffffffffffffffffff1673ffffffffffffffffffffffffffffffffffffffff16636f77926b336040518263ffffffff1660e01b8152600401611f559190613f89565b60006040518083038186803b158015611f6d57600080fd5b505afa158015611f81573d6000803e3d6000fd5b505050506040513d6000823e3d601f19601f82011682018060405250810190611faa9190613789565b905090565b6060600460009054906101000a900473ffffffffffffffffffffffffffffffffffffffff1673ffffffffffffffffffffffffffffffffffffffff16636e2db3b0336040518263ffffffff1660e01b815260040161200c9190613f89565b60006040518083038186803b15801561202457600080fd5b505afa158015612038573d6000803e3d6000fd5b505050506040513d6000823e3d601f19601f82011682018060405250810190612061919061346a565b905090565b600460009054906101000a900473ffffffffffffffffffffffffffffffffffffffff1673ffffffffffffffffffffffffffffffffffffffff1663c6361c22338585856040518563ffffffff1660e01b81526004016120c794939291906141a8565b600060405180830381600087803b1580156120e157600080fd5b505af11580156120f5573d6000803e3d6000fd5b505050506040513d6000823e3d601f19601f8201168201806040525081019061211e9190613789565b50505050565b61212c6127ee565b73ffffffffffffffffffffffffffffffffffffffff1661214a611651565b73ffffffffffffffffffffffffffffffffffffffff16146121a0576040517f08c379a000000000000000000000000000000000000000000000000000000000815260040161219790614372565b60405180910390fd5b600073ffffffffffffffffffffffffffffffffffffffff168173ffffffffffffffffffffffffffffffffffffffff161415612210576040517f08c379a000000000000000000000000000000000000000000000000000000000815260040161220790614332565b60405180910390fd5b61221981612a8d565b50565b813373ffffffffffffffffffffffffffffffffffffffff16600260009054906101000a900473ffffffffffffffffffffffffffffffffffffffff1673ffffffffffffffffffffffffffffffffffffffff16636352211e836040518263ffffffff1660e01b815260040161228f91906143f6565b60206040518083038186803b1580156122a757600080fd5b505afa1580156122bb573d6000803e3d6000fd5b505050506040513d601f19601f820116820180604052508101906122df919061330f565b73ffffffffffffffffffffffffffffffffffffffff1614612335576040517f08c379a000000000000000000000000000000000000000000000000000000000815260040161232c90614392565b60405180910390fd5b83600460009054906101000a900473ffffffffffffffffffffffffffffffffffffffff1673ffffffffffffffffffffffffffffffffffffffff1663a1abffee826040518263ffffffff1660e01b81526004016123919190613f89565b60206040518083038186803b1580156123a957600080fd5b505afa1580156123bd573d6000803e3d6000fd5b505050506040513d601f19601f820116820180604052508101906123e191906133f4565b612420576040517f08c379a000000000000000000000000000000000000000000000000000000000815260040161241790614352565b60405180910390fd5b600360009054906101000a900473ffffffffffffffffffffffffffffffffffffffff1673ffffffffffffffffffffffffffffffffffffffff166371499a7b3387878760036040518663ffffffff1660e01b8152600401612484959493929190613fdb565b600060405180830381600087803b15801561249e57600080fd5b505af11580156124b2573d6000803e3d6000fd5b50505050600260009054906101000a900473ffffffffffffffffffffffffffffffffffffffff1673ffffffffffffffffffffffffffffffffffffffff166323b872dd3387876040518463ffffffff1660e01b815260040161251593929190613fa4565b600060405180830381600087803b15801561252f57600080fd5b505af1158015612543573d6000803e3d6000fd5b50505050612552846001610e13565b5050505050565b33600460009054906101000a900473ffffffffffffffffffffffffffffffffffffffff1673ffffffffffffffffffffffffffffffffffffffff1663a1abffee826040518263ffffffff1660e01b81526004016125b59190613f89565b60206040518083038186803b1580156125cd57600080fd5b505afa1580156125e1573d6000803e3d6000fd5b505050506040513d601f19601f8201168201806040525081019061260591906133f4565b612644576040517f08c379a000000000000000000000000000000000000000000000000000000000815260040161263b90614352565b60405180910390fd5b600360009054906101000a900473ffffffffffffffffffffffffffffffffffffffff1673ffffffffffffffffffffffffffffffffffffffff1663bd53176b336040518263ffffffff1660e01b815260040161269f9190613f89565b600060405180830381600087803b1580156126b957600080fd5b505af11580156126cd573d6000803e3d6000fd5b50505050600360009054906101000a900473ffffffffffffffffffffffffffffffffffffffff1673ffffffffffffffffffffffffffffffffffffffff166351685f35336040518263ffffffff1660e01b815260040161272c9190613f89565b600060405180830381600087803b15801561274657600080fd5b505af115801561275a573d6000803e3d6000fd5b50505050600460009054906101000a900473ffffffffffffffffffffffffffffffffffffffff1673ffffffffffffffffffffffffffffffffffffffff1663f849f379336040518263ffffffff1660e01b81526004016127b99190613f89565b600060405180830381600087803b1580156127d357600080fd5b505af11580156127e7573d6000803e3d6000fd5b5050505050565b600033905090565b6127fe612c9b565b600160008473ffffffffffffffffffffffffffffffffffffffff1673ffffffffffffffffffffffffffffffffffffffff16815260200190815260200160002060018060008673ffffffffffffffffffffffffffffffffffffffff1673ffffffffffffffffffffffffffffffffffffffff1681526020019081526020016000208054905061288b91906145fe565b8154811061289c5761289b61479f565b5b90600052602060002090600302016040518060600160405290816000820160009054906101000a900473ffffffffffffffffffffffffffffffffffffffff1673ffffffffffffffffffffffffffffffffffffffff1673ffffffffffffffffffffffffffffffffffffffff1681526020016001820154815260200160028201548152505090508181604001818152505080600160008573ffffffffffffffffffffffffffffffffffffffff1673ffffffffffffffffffffffffffffffffffffffff168152602001908152602001600020838154811061297d5761297c61479f565b5b906000526020600020906003020160008201518160000160006101000a81548173ffffffffffffffffffffffffffffffffffffffff021916908373ffffffffffffffffffffffffffffffffffffffff1602179055506020820151816001015560408201518160020155905050600160008473ffffffffffffffffffffffffffffffffffffffff1673ffffffffffffffffffffffffffffffffffffffff168152602001908152602001600020805480612a3857612a37614770565b5b6001900381819060005260206000209060030201600080820160006101000a81549073ffffffffffffffffffffffffffffffffffffffff02191690556001820160009055600282016000905550509055505050565b60008060009054906101000a900473ffffffffffffffffffffffffffffffffffffffff169050816000806101000a81548173ffffffffffffffffffffffffffffffffffffffff021916908373ffffffffffffffffffffffffffffffffffffffff1602179055508173ffffffffffffffffffffffffffffffffffffffff168173ffffffffffffffffffffffffffffffffffffffff167f8be0079c531659141344cd1fd0a4f28419497f9722a3daafe3b4186f6b6457e060405160405180910390a35050565b6000600460009054906101000a900473ffffffffffffffffffffffffffffffffffffffff1673ffffffffffffffffffffffffffffffffffffffff16632330f247336040518263ffffffff1660e01b8152600401612bae9190613f89565b60206040518083038186803b158015612bc657600080fd5b505afa158015612bda573d6000803e3d6000fd5b505050506040513d601f19601f82011682018060405250810190612bfe91906133f4565b9050600360009054906101000a900473ffffffffffffffffffffffffffffffffffffffff1673ffffffffffffffffffffffffffffffffffffffff16635d1e792733838787876040518663ffffffff1660e01b8152600401612c63959493929190614035565b600060405180830381600087803b158015612c7d57600080fd5b505af1158015612c91573d6000803e3d6000fd5b5050505050505050565b6040518060600160405280600073ffffffffffffffffffffffffffffffffffffffff16815260200160008152602001600081525090565b60405180610140016040528060008152602001600081526020016060815260200160608152602001600081526020016060815260200160608152602001606081526020016060815260200160006003811115612d3157612d30614741565b5b81525090565b604051806080016040528060608152602001606081526020016000151581526020016000151581525090565b6000612d76612d718461449d565b614478565b90508083825260208201905082856020860282011115612d9957612d9861480c565b5b60005b85811015612dc95781612daf8882612efa565b845260208401935060208301925050600181019050612d9c565b5050509392505050565b6000612de6612de1846144c9565b614478565b90508083825260208201905082856020860282011115612e0957612e0861480c565b5b60005b85811015612e5757815167ffffffffffffffff811115612e2f57612e2e6147fd565b5b808601612e3c898261306a565b85526020850194506020840193505050600181019050612e0c565b5050509392505050565b6000612e74612e6f846144f5565b614478565b905082815260208101848484011115612e9057612e8f614811565b5b612e9b84828561469f565b509392505050565b6000612eb6612eb1846144f5565b614478565b905082815260208101848484011115612ed257612ed1614811565b5b612edd8482856146ae565b509392505050565b600081359050612ef48161495e565b92915050565b600081519050612f098161495e565b92915050565b600082601f830112612f2457612f236147fd565b5b8151612f34848260208601612d63565b91505092915050565b600082601f830112612f5257612f516147fd565b5b8151612f62848260208601612dd3565b91505092915050565b600081359050612f7a81614975565b92915050565b600081519050612f8f81614975565b92915050565b600081519050612fa48161498c565b92915050565b600082601f830112612fbf57612fbe6147fd565b5b8135612fcf848260208601612e61565b91505092915050565b600082601f830112612fed57612fec6147fd565b5b8151612ffd848260208601612ea3565b91505092915050565b60006060828403121561301c5761301b614802565b5b6130266060614478565b9050600061303684828501612ee5565b600083015250602061304a848285016132b8565b602083015250604061305e848285016132b8565b60408301525092915050565b6000610140828403121561308157613080614802565b5b61308c610140614478565b9050600061309c848285016132cd565b60008301525060206130b0848285016132cd565b602083015250604082015167ffffffffffffffff8111156130d4576130d3614807565b5b6130e084828501612fd8565b604083015250606082015167ffffffffffffffff81111561310457613103614807565b5b61311084828501612fd8565b6060830152506080613124848285016132cd565b60808301525060a082015167ffffffffffffffff81111561314857613147614807565b5b61315484828501612fd8565b60a08301525060c082015167ffffffffffffffff81111561317857613177614807565b5b61318484828501612f0f565b60c08301525060e082015167ffffffffffffffff8111156131a8576131a7614807565b5b6131b484828501612fd8565b60e08301525061010082015167ffffffffffffffff8111156131d9576131d8614807565b5b6131e584828501612fd8565b610100830152506101206131fb84828501612f95565b6101208301525092915050565b60006080828403121561321e5761321d614802565b5b6132286080614478565b9050600082015167ffffffffffffffff81111561324857613247614807565b5b61325484828501612fd8565b600083015250602082015167ffffffffffffffff81111561327857613277614807565b5b61328484828501612fd8565b602083015250604061329884828501612f80565b60408301525060606132ac84828501612f80565b60608301525092915050565b6000813590506132c78161499c565b92915050565b6000815190506132dc8161499c565b92915050565b6000602082840312156132f8576132f761481b565b5b600061330684828501612ee5565b91505092915050565b6000602082840312156133255761332461481b565b5b600061333384828501612efa565b91505092915050565b6000806000606084860312156133555761335461481b565b5b600061336386828701612ee5565b9350506020613374868287016132b8565b925050604084013567ffffffffffffffff81111561339557613394614816565b5b6133a186828701612faa565b9150509250925092565b6000602082840312156133c1576133c061481b565b5b600082015167ffffffffffffffff8111156133df576133de614816565b5b6133eb84828501612f3d565b91505092915050565b60006020828403121561340a5761340961481b565b5b600061341884828501612f80565b91505092915050565b6000602082840312156134375761343661481b565b5b600082013567ffffffffffffffff81111561345557613454614816565b5b61346184828501612faa565b91505092915050565b6000602082840312156134805761347f61481b565b5b600082015167ffffffffffffffff81111561349e5761349d614816565b5b6134aa84828501612fd8565b91505092915050565b6000806000606084860312156134cc576134cb61481b565b5b600084013567ffffffffffffffff8111156134ea576134e9614816565b5b6134f686828701612faa565b935050602084013567ffffffffffffffff81111561351757613516614816565b5b61352386828701612faa565b925050604084013567ffffffffffffffff81111561354457613543614816565b5b61355086828701612faa565b9150509250925092565b600080600080600080600060e0888a0312156135795761357861481b565b5b600088013567ffffffffffffffff81111561359757613596614816565b5b6135a38a828b01612faa565b975050602088013567ffffffffffffffff8111156135c4576135c3614816565b5b6135d08a828b01612faa565b965050604088013567ffffffffffffffff8111156135f1576135f0614816565b5b6135fd8a828b01612faa565b955050606061360e8a828b016132b8565b945050608088013567ffffffffffffffff81111561362f5761362e614816565b5b61363b8a828b01612faa565b93505060a088013567ffffffffffffffff81111561365c5761365b614816565b5b6136688a828b01612faa565b92505060c088013567ffffffffffffffff81111561368957613688614816565b5b6136958a828b01612faa565b91505092959891949750929550565b6000606082840312156136ba576136b961481b565b5b60006136c884828501613006565b91505092915050565b600080600060a084860312156136ea576136e961481b565b5b60006136f886828701613006565b935050606084013567ffffffffffffffff81111561371957613718614816565b5b61372586828701612faa565b925050608061373686828701612f6b565b9150509250925092565b6000602082840312156137565761375561481b565b5b600082015167ffffffffffffffff81111561377457613773614816565b5b6137808482850161306a565b91505092915050565b60006020828403121561379f5761379e61481b565b5b600082015167ffffffffffffffff8111156137bd576137bc614816565b5b6137c984828501613208565b91505092915050565b6000602082840312156137e8576137e761481b565b5b60006137f6848285016132b8565b91505092915050565b6000602082840312156138155761381461481b565b5b6000613823848285016132cd565b91505092915050565b6000806000606084860312156138455761384461481b565b5b6000613853868287016132b8565b935050602061386486828701612ee5565b925050604084013567ffffffffffffffff81111561388557613884614816565b5b61389186828701612faa565b9150509250925092565b600080604083850312156138b2576138b161481b565b5b60006138c0858286016132b8565b92505060206138d185828601612f6b565b9150509250929050565b6000806000606084860312156138f4576138f361481b565b5b6000613902868287016132b8565b935050602084013567ffffffffffffffff81111561392357613922614816565b5b61392f86828701612faa565b925050604061394086828701612ee5565b9150509250925092565b6000806000606084860312156139635761396261481b565b5b6000613971868287016132b8565b935050602084013567ffffffffffffffff81111561399257613991614816565b5b61399e86828701612faa565b925050604084013567ffffffffffffffff8111156139bf576139be614816565b5b6139cb86828701612faa565b9150509250925092565b60006139e18383613a19565b60208301905092915050565b60006139f98383613cc5565b60608301905092915050565b6000613a118383613d07565b905092915050565b613a2281614632565b82525050565b613a3181614632565b82525050565b6000613a4282614556565b613a4c81856145a9565b9350613a5783614526565b8060005b83811015613a88578151613a6f88826139d5565b9750613a7a83614582565b925050600181019050613a5b565b5085935050505092915050565b6000613aa082614561565b613aaa81856145ba565b9350613ab583614536565b8060005b83811015613ae6578151613acd88826139ed565b9750613ad88361458f565b925050600181019050613ab9565b5085935050505092915050565b6000613afe8261456c565b613b0881856145cb565b935083602082028501613b1a85614546565b8060005b85811015613b565784840389528151613b378582613a05565b9450613b428361459c565b925060208a01995050600181019050613b1e565b50829750879550505050505092915050565b613b7181614644565b82525050565b613b8081614644565b82525050565b613b8f8161468d565b82525050565b613b9e8161468d565b82525050565b6000613baf82614577565b613bb981856145dc565b9350613bc98185602086016146ae565b613bd281614820565b840191505092915050565b6000613be882614577565b613bf281856145ed565b9350613c028185602086016146ae565b613c0b81614820565b840191505092915050565b6000613c236026836145ed565b9150613c2e82614831565b604082019050919050565b6000613c46602b836145ed565b9150613c5182614880565b604082019050919050565b6000613c696020836145ed565b9150613c74826148cf565b602082019050919050565b6000613c8c602e836145ed565b9150613c97826148f8565b604082019050919050565b6000613caf6000836145ed565b9150613cba82614947565b600082019050919050565b606082016000820151613cdb6000850182613a19565b506020820151613cee6020850182613f6b565b506040820151613d016040850182613f6b565b50505050565b600061014083016000830151613d206000860182613f6b565b506020830151613d336020860182613f6b565b5060408301518482036040860152613d4b8282613ba4565b91505060608301518482036060860152613d658282613ba4565b9150506080830151613d7a6080860182613f6b565b5060a083015184820360a0860152613d928282613ba4565b91505060c083015184820360c0860152613dac8282613a37565b91505060e083015184820360e0860152613dc68282613ba4565b915050610100830151848203610100860152613de28282613ba4565b915050610120830151613df9610120860182613b86565b508091505092915050565b600061014083016000830151613e1d6000860182613f6b565b506020830151613e306020860182613f6b565b5060408301518482036040860152613e488282613ba4565b91505060608301518482036060860152613e628282613ba4565b9150506080830151613e776080860182613f6b565b5060a083015184820360a0860152613e8f8282613ba4565b91505060c083015184820360c0860152613ea98282613a37565b91505060e083015184820360e0860152613ec38282613ba4565b915050610100830151848203610100860152613edf8282613ba4565b915050610120830151613ef6610120860182613b86565b508091505092915050565b60006080830160008301518482036000860152613f1e8282613ba4565b91505060208301518482036020860152613f388282613ba4565b9150506040830151613f4d6040860182613b68565b506060830151613f606060860182613b68565b508091505092915050565b613f7481614683565b82525050565b613f8381614683565b82525050565b6000602082019050613f9e6000830184613a28565b92915050565b6000606082019050613fb96000830186613a28565b613fc66020830185613a28565b613fd36040830184613f7a565b949350505050565b600060a082019050613ff06000830188613a28565b613ffd6020830187613a28565b61400a6040830186613f7a565b818103606083015261401c8185613bdd565b905061402b6080830184613b95565b9695505050505050565b600060a08201905061404a6000830188613a28565b6140576020830187613b77565b6140646040830186613a28565b6140716060830185613f7a565b81810360808301526140838184613bdd565b90509695505050505050565b600060a0820190506140a46000830188613a28565b6140b16020830187613b95565b6140be6040830186613b95565b6140cb6060830185613f7a565b81810360808301526140dd8184613bdd565b90509695505050505050565b600060a0820190506140fe6000830187613a28565b61410b6020830186613b95565b6141186040830185613b95565b6141256060830184613f7a565b818103608083015261413681613ca2565b905095945050505050565b60006060820190506141566000830186613a28565b6141636020830185613b95565b6141706040830184613f7a565b949350505050565b600060408201905061418d6000830185613a28565b818103602083015261419f8184613bdd565b90509392505050565b60006080820190506141bd6000830187613a28565b81810360208301526141cf8186613bdd565b905081810360408301526141e38185613bdd565b905081810360608301526141f78184613bdd565b905095945050505050565b60006040820190506142176000830185613a28565b6142246020830184613f7a565b9392505050565b600061010082019050614241600083018b613a28565b61424e602083018a613f7a565b81810360408301526142608189613bdd565b905081810360608301526142748188613bdd565b90506142836080830187613f7a565b81810360a08301526142958186613bdd565b905081810360c08301526142a98185613bdd565b905081810360e08301526142bd8184613bdd565b90509998505050505050505050565b600060208201905081810360008301526142e68184613a95565b905092915050565b600060208201905081810360008301526143088184613af3565b905092915050565b6000602082019050818103600083015261432a8184613bdd565b905092915050565b6000602082019050818103600083015261434b81613c16565b9050919050565b6000602082019050818103600083015261436b81613c39565b9050919050565b6000602082019050818103600083015261438b81613c5c565b9050919050565b600060208201905081810360008301526143ab81613c7f565b9050919050565b600060208201905081810360008301526143cc8184613e04565b905092915050565b600060208201905081810360008301526143ee8184613f01565b905092915050565b600060208201905061440b6000830184613f7a565b92915050565b60006040820190506144266000830185613f7a565b6144336020830184613a28565b9392505050565b600060608201905061444f6000830186613f7a565b81810360208301526144618185613bdd565b90506144706040830184613a28565b949350505050565b6000614482614493565b905061448e82826146e1565b919050565b6000604051905090565b600067ffffffffffffffff8211156144b8576144b76147ce565b5b602082029050602081019050919050565b600067ffffffffffffffff8211156144e4576144e36147ce565b5b602082029050602081019050919050565b600067ffffffffffffffff8211156145105761450f6147ce565b5b61451982614820565b9050602081019050919050565b6000819050602082019050919050565b6000819050602082019050919050565b6000819050602082019050919050565b600081519050919050565b600081519050919050565b600081519050919050565b600081519050919050565b6000602082019050919050565b6000602082019050919050565b6000602082019050919050565b600082825260208201905092915050565b600082825260208201905092915050565b600082825260208201905092915050565b600082825260208201905092915050565b600082825260208201905092915050565b600061460982614683565b915061461483614683565b92508282101561462757614626614712565b5b828203905092915050565b600061463d82614663565b9050919050565b60008115159050919050565b600081905061465e8261494a565b919050565b600073ffffffffffffffffffffffffffffffffffffffff82169050919050565b6000819050919050565b600061469882614650565b9050919050565b82818337600083830152505050565b60005b838110156146cc5780820151818401526020810190506146b1565b838111156146db576000848401525b50505050565b6146ea82614820565b810181811067ffffffffffffffff82111715614709576147086147ce565b5b80604052505050565b7f4e487b7100000000000000000000000000000000000000000000000000000000600052601160045260246000fd5b7f4e487b7100000000000000000000000000000000000000000000000000000000600052602160045260246000fd5b7f4e487b7100000000000000000000000000000000000000000000000000000000600052603160045260246000fd5b7f4e487b7100000000000000000000000000000000000000000000000000000000600052603260045260246000fd5b7f4e487b7100000000000000000000000000000000000000000000000000000000600052604160045260246000fd5b600080fd5b600080fd5b600080fd5b600080fd5b600080fd5b600080fd5b600080fd5b6000601f19601f8301169050919050565b7f4f776e61626c653a206e6577206f776e657220697320746865207a65726f206160008201527f6464726573730000000000000000000000000000000000000000000000000000602082015250565b7f446f634d616e616765723a204365747465207574696c69736174657572206e2760008201527f657869737465207061732e000000000000000000000000000000000000000000602082015250565b7f4f776e61626c653a2063616c6c6572206973206e6f7420746865206f776e6572600082015250565b7f546f6b656e4d616e616765723a20436574204e4654206e6520766f757320617060008201527f7061727469656e74207061732021000000000000000000000000000000000000602082015250565b50565b6004811061495b5761495a614741565b5b50565b61496781614632565b811461497257600080fd5b50565b61497e81614644565b811461498957600080fd5b50565b6004811061499957600080fd5b50565b6149a581614683565b81146149b057600080fd5b5056fea26469706673582212209e05b4dd51456f482cf7dcf106ae3c85412067910d0bc8bd9ecc0fb775898dd364736f6c63430008060033",
  "immutableReferences": {},
  "source": "//SPDX-License-Identifier: MIT\n\npragma solidity 0.8.6;\n\nimport \"./AccountManager.sol\";\nimport \"@openzeppelin/contracts/access/Ownable.sol\";\nimport \"./DocManager.sol\";\nimport \"./SaveDocToken.sol\";\nimport \"./SaveDocStruct.sol\";\n\n\ncontract SaveMyDoc is Ownable, SaveDocStruct\n{\n    mapping(address => CertificationRequest[]) private requests;\n    SaveDocToken private saveDocToken;\n    DocManager private docManager;\n    AccountManager private accountManager;\n\n\n    constructor(DocManager _docManager, SaveDocToken _saveDocToken, AccountManager _accountManager)\n    {\n        docManager = _docManager;\n        saveDocToken = _saveDocToken;\n        accountManager = _accountManager;\n    }\n\n    modifier isMyToken(uint256 tokenID)\n    {\n        require(saveDocToken.ownerOf(tokenID) == msg.sender, \"TokenManager: Cet NFT ne vous appartient pas !\");\n        _;\n    }\n\n    modifier userExist(address addressUser)\n    {\n        require(accountManager.checkIfUserExist(addressUser), \"DocManager: Cette utilisateur n'existe pas.\");\n        _;\n    }\n\n    function subscribe(string memory name, string memory pubKey, string memory passwordMaster) external\n    {\n        accountManager.addUser(msg.sender, name, pubKey, passwordMaster);\n    }\n\n    function subscribeAuthority(string memory name, string memory pubKey, string memory passwordMaster) onlyOwner() external\n    {\n        accountManager.addUser(msg.sender, name, pubKey, passwordMaster);\n    }\n\n    function viewMyProfil() view external returns(User memory)\n    {\n        return accountManager.getUser(msg.sender);\n    }\n\n    function getMyPasswordMaster() view external returns(string memory)\n    {\n        return accountManager.getPasswordMaster(msg.sender);\n    }\n\n    function changeMyName(string memory name) external\n    {\n        accountManager.setUser(msg.sender, name);\n    }\n\n    function unsubscribe() external userExist(msg.sender)\n    {\n        // Voir comment supprimer tout ces fichiers\n        docManager.deleteAllDocs(msg.sender);\n        docManager.delAllCopyDoc(msg.sender);\n        accountManager.delUser(msg.sender);\n    }\n\n    function secureDocument(string memory tokenName, string memory tokenURI, string memory tokenMime, uint256 tokenLength, string memory filePath, string memory passwordEncrypted, string memory hashNFT) external returns (Document memory)\n    {\n       uint256 tokenID;\n       Document memory document;\n\n       tokenID = saveDocToken.mint(msg.sender, tokenURI);\n       document = docManager.createDoc(msg.sender, tokenID, tokenName, tokenMime, tokenLength, filePath, passwordEncrypted, hashNFT);\n\n       return document;\n    }\n\n    // TODO Review\n    function delMyDocument(uint256 tokenID, bool forTransfer) isMyToken(tokenID) public\n    {\n        docManager.deleteDoc(msg.sender, tokenID);\n\n        if (!forTransfer)\n        {\n            saveDocToken.burn(tokenID, msg.sender);\n        }\n    }\n\n\n    function getTokenURI(uint256 tokenID) external view isMyToken(tokenID) returns(string memory)\n    {\n        return saveDocToken.tokenURI(tokenID);\n    }\n\n    function transferDoc(address to, uint256 tokenID, string memory tokenURITmp) isMyToken(tokenID) userExist(to) external\n    {\n        docManager.createCopyDoc(msg.sender, to, tokenID, tokenURITmp, TypeDoc.CopyPendingTransfer);\n        saveDocToken.transferFrom(msg.sender, to, tokenID);\n        delMyDocument(tokenID, true);\n    }\n\n    function shareDoc(uint256 tokenID, address to, string memory tokenURI) isMyToken(tokenID) userExist(to) external\n    {\n        docManager.createCopyDoc(msg.sender, to, tokenID, tokenURI, TypeDoc.CopyShared);\n    }\n\n    function acceptNewDoc(uint256 tokenID, string memory newTokenURI, string memory passwordEncrypted) isMyToken(tokenID) external\n    {\n        // check si msg.sender a bien dja une copie du Document\n        docManager.convertTypeDoc(msg.sender, TypeDoc.CopyPendingTransfer, TypeDoc.Original, tokenID, passwordEncrypted);\n        saveDocToken.setTokenURI(tokenID, newTokenURI, msg.sender);\n    }\n\n\n    function delCopyDocShared(uint tokenID) external isMyToken(tokenID)\n    {\n        docManager.delCopyDoc(msg.sender, TypeDoc.CopyShared, docManager.getIndexNFT(msg.sender, TypeDoc.CopyShared, tokenID));\n    }\n\n    function requestCertification(uint256 tokenID, string memory tokenURI, address certifying) isMyToken(tokenID) userExist(certifying) external\n    {\n        CertificationRequest memory request;\n\n        docManager.createCopyDoc(msg.sender, certifying, tokenID, tokenURI, TypeDoc.CopyCertified);\n        request = CertificationRequest(msg.sender, tokenID, requests[certifying].length);\n        requests[certifying].push(request);\n    }\n\n    function viewMyDocs() view external returns(Document[] memory)\n    {\n        return docManager.getDocs(msg.sender);\n    }\n\n    function viewMyCopyDocs() view external returns(Document[] memory)\n    {\n        return docManager.getAllCopyShared(msg.sender);\n    }\n\n    function viewDocPendingTransfer() view external returns(Document[] memory)\n    {\n        return docManager.getAllCopyPendingTransfer(msg.sender);\n    }\n\n    function viewDocCertified() view external returns(Document[] memory)\n    {\n        return docManager.getAllCopyCertified(msg.sender);\n    }\n\n    function viewCertificationRequest() external view returns(CertificationRequest[] memory)\n    {\n        return requests[msg.sender];\n    }\n\n    function delRequest(address owner, uint256 index) private\n    {\n        CertificationRequest memory substitute;\n\n        substitute = requests[owner][requests[owner].length - 1];\n        substitute.index = index;\n        requests[owner][index] = substitute;\n        requests[owner].pop();\n    }\n\n    function certifyDocument(address applicant, uint256 tokenID, string memory hashNFT) private\n    {\n        bool isAuthority;\n\n        isAuthority = accountManager.isAuthority(msg.sender);\n        docManager.certify(msg.sender, isAuthority, applicant, tokenID, hashNFT);\n    }\n\n    function acceptCertificationRequest(CertificationRequest memory request, string memory hashNFT, bool keepCopyDoc) public\n    {\n        // check si msg.sender a bien dja une copie du Document\n        certifyDocument(request.applicant, request.tokenID, hashNFT);\n        delRequest(msg.sender, request.index);\n\n        if (keepCopyDoc)\n        {\n            docManager.convertTypeDoc(msg.sender, TypeDoc.CopyCertified, TypeDoc.CopyShared, request.tokenID, \"\");\n        }\n        else\n        {\n            docManager.delCopyDoc(msg.sender, TypeDoc.CopyCertified, docManager.getIndexNFT(msg.sender, TypeDoc.CopyCertified, request.tokenID));\n        }\n    }\n\n    function rejectCertificationRequest(CertificationRequest memory request) external\n    {\n        // check si msg.sender  bien dja une copie du Document\n        delRequest(msg.sender, request.index);\n        docManager.delCopyDoc(msg.sender, TypeDoc.CopyCertified, docManager.getIndexNFT(msg.sender, TypeDoc.CopyCertified, request.tokenID));\n    }\n}\n",
  "sourcePath": "/home/jg/Alyra/SAV-Doc/contracts/SaveDoc.sol",
  "compiler": {
    "name": "solc",
    "version": "0.8.6+commit.11564f7e.Emscripten.clang"
  },
  "schemaVersion": "3.4.1",
  "updatedAt": "2021-07-30T12:20:23.415Z",
  "devdoc": {
    "kind": "dev",
    "methods": {
      "owner()": {
        "details": "Returns the address of the current owner."
      },
      "renounceOwnership()": {
        "details": "Leaves the contract without owner. It will not be possible to call `onlyOwner` functions anymore. Can only be called by the current owner. NOTE: Renouncing ownership will leave the contract without an owner, thereby removing any functionality that is only available to the owner."
      },
      "transferOwnership(address)": {
        "details": "Transfers ownership of the contract to a new account (`newOwner`). Can only be called by the current owner."
      }
    },
    "version": 1
  },
  "userdoc": {
    "kind": "user",
    "methods": {},
    "version": 1
  }
}