{
  "contractName": "SaveDoc",
  "abi": [
    {
      "inputs": [
        {
          "internalType": "contract DocManager",
          "name": "_docManager",
          "type": "address"
        },
        {
          "internalType": "contract SaveDocToken",
          "name": "_saveDocToken",
          "type": "address"
        },
        {
          "internalType": "contract AccountManager",
          "name": "_accountManager",
          "type": "address"
        }
      ],
      "stateMutability": "nonpayable",
      "type": "constructor"
    },
    {
      "anonymous": false,
      "inputs": [
        {
          "indexed": false,
          "internalType": "address",
          "name": "certifying",
          "type": "address"
        },
        {
          "indexed": false,
          "internalType": "address",
          "name": "applicant",
          "type": "address"
        },
        {
          "indexed": false,
          "internalType": "uint256",
          "name": "tokenID",
          "type": "uint256"
        },
        {
          "indexed": false,
          "internalType": "bool",
          "name": "keepCopy",
          "type": "bool"
        }
      ],
      "name": "AcceptCertificationRequest",
      "type": "event"
    },
    {
      "anonymous": false,
      "inputs": [
        {
          "indexed": false,
          "internalType": "address",
          "name": "newOwner",
          "type": "address"
        },
        {
          "indexed": false,
          "internalType": "uint256",
          "name": "tokenID",
          "type": "uint256"
        }
      ],
      "name": "AcceptTransferDoc",
      "type": "event"
    },
    {
      "anonymous": false,
      "inputs": [
        {
          "indexed": false,
          "internalType": "address",
          "name": "user",
          "type": "address"
        },
        {
          "indexed": false,
          "internalType": "string",
          "name": "newUsername",
          "type": "string"
        }
      ],
      "name": "ChangeUsername",
      "type": "event"
    },
    {
      "anonymous": false,
      "inputs": [
        {
          "indexed": false,
          "internalType": "address",
          "name": "ownerDoc",
          "type": "address"
        },
        {
          "indexed": false,
          "internalType": "uint256",
          "name": "tokenID",
          "type": "uint256"
        },
        {
          "indexed": false,
          "internalType": "bool",
          "name": "forTransfer",
          "type": "bool"
        }
      ],
      "name": "DeleteDocumment",
      "type": "event"
    },
    {
      "anonymous": false,
      "inputs": [
        {
          "indexed": false,
          "internalType": "address",
          "name": "ownerDoc",
          "type": "address"
        },
        {
          "indexed": false,
          "internalType": "uint256",
          "name": "tokenID",
          "type": "uint256"
        }
      ],
      "name": "DeleteMyDocCopy",
      "type": "event"
    },
    {
      "anonymous": false,
      "inputs": [
        {
          "indexed": true,
          "internalType": "address",
          "name": "previousOwner",
          "type": "address"
        },
        {
          "indexed": true,
          "internalType": "address",
          "name": "newOwner",
          "type": "address"
        }
      ],
      "name": "OwnershipTransferred",
      "type": "event"
    },
    {
      "anonymous": false,
      "inputs": [
        {
          "indexed": false,
          "internalType": "address",
          "name": "certifying",
          "type": "address"
        },
        {
          "indexed": false,
          "internalType": "address",
          "name": "applicant",
          "type": "address"
        },
        {
          "indexed": false,
          "internalType": "uint256",
          "name": "tokenID",
          "type": "uint256"
        }
      ],
      "name": "RejectCertificationRequest",
      "type": "event"
    },
    {
      "anonymous": false,
      "inputs": [
        {
          "indexed": false,
          "internalType": "address",
          "name": "applicant",
          "type": "address"
        },
        {
          "indexed": false,
          "internalType": "uint256",
          "name": "tokenID",
          "type": "uint256"
        }
      ],
      "name": "RequestCertification",
      "type": "event"
    },
    {
      "anonymous": false,
      "inputs": [
        {
          "indexed": false,
          "internalType": "address",
          "name": "user",
          "type": "address"
        },
        {
          "indexed": false,
          "internalType": "uint256",
          "name": "tokenID",
          "type": "uint256"
        }
      ],
      "name": "SecureDocument",
      "type": "event"
    },
    {
      "anonymous": false,
      "inputs": [
        {
          "indexed": false,
          "internalType": "address",
          "name": "from",
          "type": "address"
        },
        {
          "indexed": false,
          "internalType": "address",
          "name": "to",
          "type": "address"
        },
        {
          "indexed": false,
          "internalType": "uint256",
          "name": "tokenID",
          "type": "uint256"
        }
      ],
      "name": "ShareDoc",
      "type": "event"
    },
    {
      "anonymous": false,
      "inputs": [
        {
          "indexed": false,
          "internalType": "address",
          "name": "newUser",
          "type": "address"
        },
        {
          "indexed": false,
          "internalType": "string",
          "name": "name",
          "type": "string"
        },
        {
          "indexed": false,
          "internalType": "string",
          "name": "pubkey",
          "type": "string"
        }
      ],
      "name": "Subscribe",
      "type": "event"
    },
    {
      "anonymous": false,
      "inputs": [
        {
          "indexed": false,
          "internalType": "address",
          "name": "newUser",
          "type": "address"
        },
        {
          "indexed": false,
          "internalType": "string",
          "name": "pubkey",
          "type": "string"
        }
      ],
      "name": "SubscribeAuthority",
      "type": "event"
    },
    {
      "anonymous": false,
      "inputs": [
        {
          "indexed": false,
          "internalType": "address",
          "name": "from",
          "type": "address"
        },
        {
          "indexed": false,
          "internalType": "address",
          "name": "to",
          "type": "address"
        },
        {
          "indexed": false,
          "internalType": "uint256",
          "name": "tokenID",
          "type": "uint256"
        }
      ],
      "name": "TransferDocument",
      "type": "event"
    },
    {
      "anonymous": false,
      "inputs": [
        {
          "indexed": false,
          "internalType": "address",
          "name": "user",
          "type": "address"
        }
      ],
      "name": "Unsubcribe",
      "type": "event"
    },
    {
      "inputs": [],
      "name": "owner",
      "outputs": [
        {
          "internalType": "address",
          "name": "",
          "type": "address"
        }
      ],
      "stateMutability": "view",
      "type": "function",
      "constant": true
    },
    {
      "inputs": [],
      "name": "renounceOwnership",
      "outputs": [],
      "stateMutability": "nonpayable",
      "type": "function"
    },
    {
      "inputs": [
        {
          "internalType": "address",
          "name": "newOwner",
          "type": "address"
        }
      ],
      "name": "transferOwnership",
      "outputs": [],
      "stateMutability": "nonpayable",
      "type": "function"
    },
    {
      "inputs": [
        {
          "internalType": "string",
          "name": "name",
          "type": "string"
        },
        {
          "internalType": "string",
          "name": "pubKey",
          "type": "string"
        },
        {
          "internalType": "string",
          "name": "passwordMaster",
          "type": "string"
        }
      ],
      "name": "subscribe",
      "outputs": [],
      "stateMutability": "nonpayable",
      "type": "function"
    },
    {
      "inputs": [
        {
          "internalType": "address",
          "name": "authority",
          "type": "address"
        },
        {
          "internalType": "string",
          "name": "name",
          "type": "string"
        },
        {
          "internalType": "string",
          "name": "pubKey",
          "type": "string"
        },
        {
          "internalType": "string",
          "name": "passwordMaster",
          "type": "string"
        }
      ],
      "name": "subscribeAuthority",
      "outputs": [],
      "stateMutability": "nonpayable",
      "type": "function"
    },
    {
      "inputs": [],
      "name": "viewMyProfil",
      "outputs": [
        {
          "components": [
            {
              "internalType": "string",
              "name": "name",
              "type": "string"
            },
            {
              "internalType": "string",
              "name": "publicKey",
              "type": "string"
            },
            {
              "internalType": "bool",
              "name": "isAuthority",
              "type": "bool"
            },
            {
              "internalType": "bool",
              "name": "exist",
              "type": "bool"
            }
          ],
          "internalType": "struct SaveDocStruct.User",
          "name": "",
          "type": "tuple"
        }
      ],
      "stateMutability": "view",
      "type": "function",
      "constant": true
    },
    {
      "inputs": [],
      "name": "getMyPasswordMaster",
      "outputs": [
        {
          "internalType": "string",
          "name": "",
          "type": "string"
        }
      ],
      "stateMutability": "view",
      "type": "function",
      "constant": true
    },
    {
      "inputs": [
        {
          "internalType": "string",
          "name": "name",
          "type": "string"
        }
      ],
      "name": "changeMyName",
      "outputs": [],
      "stateMutability": "nonpayable",
      "type": "function"
    },
    {
      "inputs": [],
      "name": "unsubscribe",
      "outputs": [],
      "stateMutability": "nonpayable",
      "type": "function"
    },
    {
      "inputs": [
        {
          "internalType": "string",
          "name": "tokenName",
          "type": "string"
        },
        {
          "internalType": "string",
          "name": "tokenURI",
          "type": "string"
        },
        {
          "internalType": "string",
          "name": "tokenMime",
          "type": "string"
        },
        {
          "internalType": "uint256",
          "name": "tokenLength",
          "type": "uint256"
        },
        {
          "internalType": "string",
          "name": "filePath",
          "type": "string"
        },
        {
          "internalType": "string",
          "name": "passwordEncrypted",
          "type": "string"
        },
        {
          "internalType": "string",
          "name": "hashNFT",
          "type": "string"
        }
      ],
      "name": "secureDocument",
      "outputs": [
        {
          "components": [
            {
              "internalType": "uint256",
              "name": "tokenID",
              "type": "uint256"
            },
            {
              "internalType": "uint256",
              "name": "fileSize",
              "type": "uint256"
            },
            {
              "internalType": "string",
              "name": "filename",
              "type": "string"
            },
            {
              "internalType": "string",
              "name": "fileMimeType",
              "type": "string"
            },
            {
              "internalType": "uint256",
              "name": "dateAdd",
              "type": "uint256"
            },
            {
              "internalType": "string",
              "name": "filePath",
              "type": "string"
            },
            {
              "internalType": "address[]",
              "name": "certifying",
              "type": "address[]"
            },
            {
              "internalType": "string",
              "name": "tokenURI",
              "type": "string"
            },
            {
              "internalType": "string",
              "name": "passwordEncrypted",
              "type": "string"
            },
            {
              "internalType": "enum SaveDocStruct.TypeDoc",
              "name": "typeNft",
              "type": "uint8"
            }
          ],
          "internalType": "struct SaveDocStruct.Document",
          "name": "",
          "type": "tuple"
        }
      ],
      "stateMutability": "nonpayable",
      "type": "function"
    },
    {
      "inputs": [
        {
          "internalType": "uint256",
          "name": "tokenID",
          "type": "uint256"
        },
        {
          "internalType": "bool",
          "name": "forTransfer",
          "type": "bool"
        }
      ],
      "name": "delMyDocument",
      "outputs": [],
      "stateMutability": "nonpayable",
      "type": "function"
    },
    {
      "inputs": [
        {
          "internalType": "uint256",
          "name": "tokenID",
          "type": "uint256"
        }
      ],
      "name": "getTokenURI",
      "outputs": [
        {
          "internalType": "string",
          "name": "",
          "type": "string"
        }
      ],
      "stateMutability": "view",
      "type": "function",
      "constant": true
    },
    {
      "inputs": [
        {
          "internalType": "address",
          "name": "to",
          "type": "address"
        },
        {
          "internalType": "uint256",
          "name": "tokenID",
          "type": "uint256"
        },
        {
          "internalType": "string",
          "name": "tokenURITmp",
          "type": "string"
        }
      ],
      "name": "transferDoc",
      "outputs": [],
      "stateMutability": "nonpayable",
      "type": "function"
    },
    {
      "inputs": [
        {
          "internalType": "uint256",
          "name": "tokenID",
          "type": "uint256"
        },
        {
          "internalType": "address",
          "name": "to",
          "type": "address"
        },
        {
          "internalType": "string",
          "name": "tokenURI",
          "type": "string"
        }
      ],
      "name": "shareDoc",
      "outputs": [],
      "stateMutability": "nonpayable",
      "type": "function"
    },
    {
      "inputs": [
        {
          "internalType": "uint256",
          "name": "tokenID",
          "type": "uint256"
        },
        {
          "internalType": "string",
          "name": "newTokenURI",
          "type": "string"
        },
        {
          "internalType": "string",
          "name": "passwordEncrypted",
          "type": "string"
        }
      ],
      "name": "acceptNewDoc",
      "outputs": [],
      "stateMutability": "nonpayable",
      "type": "function"
    },
    {
      "inputs": [
        {
          "internalType": "uint256",
          "name": "tokenID",
          "type": "uint256"
        }
      ],
      "name": "delCopyDocShared",
      "outputs": [],
      "stateMutability": "nonpayable",
      "type": "function"
    },
    {
      "inputs": [
        {
          "internalType": "uint256",
          "name": "tokenID",
          "type": "uint256"
        },
        {
          "internalType": "string",
          "name": "tokenURI",
          "type": "string"
        },
        {
          "internalType": "address",
          "name": "certifying",
          "type": "address"
        }
      ],
      "name": "requestCertification",
      "outputs": [],
      "stateMutability": "nonpayable",
      "type": "function"
    },
    {
      "inputs": [],
      "name": "viewMyDocs",
      "outputs": [
        {
          "components": [
            {
              "internalType": "uint256",
              "name": "tokenID",
              "type": "uint256"
            },
            {
              "internalType": "uint256",
              "name": "fileSize",
              "type": "uint256"
            },
            {
              "internalType": "string",
              "name": "filename",
              "type": "string"
            },
            {
              "internalType": "string",
              "name": "fileMimeType",
              "type": "string"
            },
            {
              "internalType": "uint256",
              "name": "dateAdd",
              "type": "uint256"
            },
            {
              "internalType": "string",
              "name": "filePath",
              "type": "string"
            },
            {
              "internalType": "address[]",
              "name": "certifying",
              "type": "address[]"
            },
            {
              "internalType": "string",
              "name": "tokenURI",
              "type": "string"
            },
            {
              "internalType": "string",
              "name": "passwordEncrypted",
              "type": "string"
            },
            {
              "internalType": "enum SaveDocStruct.TypeDoc",
              "name": "typeNft",
              "type": "uint8"
            }
          ],
          "internalType": "struct SaveDocStruct.Document[]",
          "name": "",
          "type": "tuple[]"
        }
      ],
      "stateMutability": "view",
      "type": "function",
      "constant": true
    },
    {
      "inputs": [],
      "name": "viewMyCopyDocs",
      "outputs": [
        {
          "components": [
            {
              "internalType": "uint256",
              "name": "tokenID",
              "type": "uint256"
            },
            {
              "internalType": "uint256",
              "name": "fileSize",
              "type": "uint256"
            },
            {
              "internalType": "string",
              "name": "filename",
              "type": "string"
            },
            {
              "internalType": "string",
              "name": "fileMimeType",
              "type": "string"
            },
            {
              "internalType": "uint256",
              "name": "dateAdd",
              "type": "uint256"
            },
            {
              "internalType": "string",
              "name": "filePath",
              "type": "string"
            },
            {
              "internalType": "address[]",
              "name": "certifying",
              "type": "address[]"
            },
            {
              "internalType": "string",
              "name": "tokenURI",
              "type": "string"
            },
            {
              "internalType": "string",
              "name": "passwordEncrypted",
              "type": "string"
            },
            {
              "internalType": "enum SaveDocStruct.TypeDoc",
              "name": "typeNft",
              "type": "uint8"
            }
          ],
          "internalType": "struct SaveDocStruct.Document[]",
          "name": "",
          "type": "tuple[]"
        }
      ],
      "stateMutability": "view",
      "type": "function",
      "constant": true
    },
    {
      "inputs": [],
      "name": "viewDocPendingTransfer",
      "outputs": [
        {
          "components": [
            {
              "internalType": "uint256",
              "name": "tokenID",
              "type": "uint256"
            },
            {
              "internalType": "uint256",
              "name": "fileSize",
              "type": "uint256"
            },
            {
              "internalType": "string",
              "name": "filename",
              "type": "string"
            },
            {
              "internalType": "string",
              "name": "fileMimeType",
              "type": "string"
            },
            {
              "internalType": "uint256",
              "name": "dateAdd",
              "type": "uint256"
            },
            {
              "internalType": "string",
              "name": "filePath",
              "type": "string"
            },
            {
              "internalType": "address[]",
              "name": "certifying",
              "type": "address[]"
            },
            {
              "internalType": "string",
              "name": "tokenURI",
              "type": "string"
            },
            {
              "internalType": "string",
              "name": "passwordEncrypted",
              "type": "string"
            },
            {
              "internalType": "enum SaveDocStruct.TypeDoc",
              "name": "typeNft",
              "type": "uint8"
            }
          ],
          "internalType": "struct SaveDocStruct.Document[]",
          "name": "",
          "type": "tuple[]"
        }
      ],
      "stateMutability": "view",
      "type": "function",
      "constant": true
    },
    {
      "inputs": [],
      "name": "viewDocCertified",
      "outputs": [
        {
          "components": [
            {
              "internalType": "uint256",
              "name": "tokenID",
              "type": "uint256"
            },
            {
              "internalType": "uint256",
              "name": "fileSize",
              "type": "uint256"
            },
            {
              "internalType": "string",
              "name": "filename",
              "type": "string"
            },
            {
              "internalType": "string",
              "name": "fileMimeType",
              "type": "string"
            },
            {
              "internalType": "uint256",
              "name": "dateAdd",
              "type": "uint256"
            },
            {
              "internalType": "string",
              "name": "filePath",
              "type": "string"
            },
            {
              "internalType": "address[]",
              "name": "certifying",
              "type": "address[]"
            },
            {
              "internalType": "string",
              "name": "tokenURI",
              "type": "string"
            },
            {
              "internalType": "string",
              "name": "passwordEncrypted",
              "type": "string"
            },
            {
              "internalType": "enum SaveDocStruct.TypeDoc",
              "name": "typeNft",
              "type": "uint8"
            }
          ],
          "internalType": "struct SaveDocStruct.Document[]",
          "name": "",
          "type": "tuple[]"
        }
      ],
      "stateMutability": "view",
      "type": "function",
      "constant": true
    },
    {
      "inputs": [],
      "name": "viewCertificationRequest",
      "outputs": [
        {
          "components": [
            {
              "internalType": "address",
              "name": "applicant",
              "type": "address"
            },
            {
              "internalType": "uint256",
              "name": "tokenID",
              "type": "uint256"
            },
            {
              "internalType": "uint256",
              "name": "index",
              "type": "uint256"
            }
          ],
          "internalType": "struct SaveDocStruct.CertificationRequest[]",
          "name": "",
          "type": "tuple[]"
        }
      ],
      "stateMutability": "view",
      "type": "function",
      "constant": true
    },
    {
      "inputs": [
        {
          "components": [
            {
              "internalType": "address",
              "name": "applicant",
              "type": "address"
            },
            {
              "internalType": "uint256",
              "name": "tokenID",
              "type": "uint256"
            },
            {
              "internalType": "uint256",
              "name": "index",
              "type": "uint256"
            }
          ],
          "internalType": "struct SaveDocStruct.CertificationRequest",
          "name": "request",
          "type": "tuple"
        },
        {
          "internalType": "string",
          "name": "hashNFT",
          "type": "string"
        },
        {
          "internalType": "bool",
          "name": "keepCopyDoc",
          "type": "bool"
        }
      ],
      "name": "acceptCertificationRequest",
      "outputs": [],
      "stateMutability": "nonpayable",
      "type": "function"
    },
    {
      "inputs": [
        {
          "components": [
            {
              "internalType": "address",
              "name": "applicant",
              "type": "address"
            },
            {
              "internalType": "uint256",
              "name": "tokenID",
              "type": "uint256"
            },
            {
              "internalType": "uint256",
              "name": "index",
              "type": "uint256"
            }
          ],
          "internalType": "struct SaveDocStruct.CertificationRequest",
          "name": "request",
          "type": "tuple"
        }
      ],
      "name": "rejectCertificationRequest",
      "outputs": [],
      "stateMutability": "nonpayable",
      "type": "function"
    }
  ],
  "bytecode": "0x60806040523480156200001157600080fd5b50604051620052be380380620052be833981810160405281019062000037919062000234565b620000576200004b6200012360201b60201c565b6200012b60201b60201c565b82600360006101000a81548173ffffffffffffffffffffffffffffffffffffffff021916908373ffffffffffffffffffffffffffffffffffffffff16021790555081600260006101000a81548173ffffffffffffffffffffffffffffffffffffffff021916908373ffffffffffffffffffffffffffffffffffffffff16021790555080600460006101000a81548173ffffffffffffffffffffffffffffffffffffffff021916908373ffffffffffffffffffffffffffffffffffffffff16021790555050505062000353565b600033905090565b60008060009054906101000a900473ffffffffffffffffffffffffffffffffffffffff169050816000806101000a81548173ffffffffffffffffffffffffffffffffffffffff021916908373ffffffffffffffffffffffffffffffffffffffff1602179055508173ffffffffffffffffffffffffffffffffffffffff168173ffffffffffffffffffffffffffffffffffffffff167f8be0079c531659141344cd1fd0a4f28419497f9722a3daafe3b4186f6b6457e060405160405180910390a35050565b600081519050620002008162000305565b92915050565b60008151905062000217816200031f565b92915050565b6000815190506200022e8162000339565b92915050565b60008060006060848603121562000250576200024f62000300565b5b6000620002608682870162000206565b935050602062000273868287016200021d565b92505060406200028686828701620001ef565b9150509250925092565b60006200029d82620002e0565b9050919050565b6000620002b18262000290565b9050919050565b6000620002c58262000290565b9050919050565b6000620002d98262000290565b9050919050565b600073ffffffffffffffffffffffffffffffffffffffff82169050919050565b600080fd5b6200031081620002a4565b81146200031c57600080fd5b50565b6200032a81620002b8565b81146200033657600080fd5b50565b6200034481620002cc565b81146200035057600080fd5b50565b614f5b80620003636000396000f3fe608060405234801561001057600080fd5b50600436106101585760003560e01c806393eeaef0116100c3578063c991607e1161007c578063c991607e14610377578063cfba8f9114610395578063f260d415146103b3578063f2fde38b146103cf578063f42a119e146103eb578063fcae44841461040757610158565b806393eeaef0146102b7578063940c1bc8146102d3578063b799625214610303578063bf56659914610321578063c7714c341461033d578063c7d8eaa31461035957610158565b80636fbf73fd116101155780636fbf73fd1461021b578063715018a61461023957806375ece0dc146102435780638a5fd606146102615780638da5cb5b1461027d5780638fde68c51461029b57610158565b80632d5dbeb11461015d578063357c2f54146101795780633bb3a24d1461019757806342cd7236146101c757806345f0abfe146101e35780635c1ef442146101ff575b600080fd5b61017760048036038101906101729190613dfb565b610411565b005b610181610691565b60405161018e9190614860565b60405180910390f35b6101b160048036038101906101ac9190613c83565b610748565b6040516101be9190614882565b60405180910390f35b6101e160048036038101906101dc9190613b55565b61091b565b005b6101fd60048036038101906101f89190613cdd565b610ab4565b005b61021960048036038101906102149190613d4c565b610d90565b005b61022361102e565b6040516102309190614860565b60405180910390f35b6102416110e5565b005b61024b61116d565b6040516102589190614860565b60405180910390f35b61027b60048036038101906102769190613d8c565b611224565b005b61028561164a565b604051610292919061443a565b60405180910390f35b6102b560048036038101906102b09190613732565b611673565b005b6102d160048036038101906102cc9190613c83565b6117e7565b005b6102ed60048036038101906102e89190613a0b565b611a7e565b6040516102fa9190614924565b60405180910390f35b61030b611d38565b6040516103189190614860565b60405180910390f35b61033b600480360381019061033691906138d2565b611def565b005b61035760048036038101906103529190613b82565b611ee0565b005b610361612135565b60405161036e919061483e565b60405180910390f35b61037f61223b565b60405161038c9190614946565b60405180910390f35b61039d6122f8565b6040516103aa9190614882565b60405180910390f35b6103cd60048036038101906103c89190613964565b6123af565b005b6103e960048036038101906103e491906136d8565b6124a8565b005b610405600480360381019061040091906137ed565b6125a0565b005b61040f612918565b005b823373ffffffffffffffffffffffffffffffffffffffff16600260009054906101000a900473ffffffffffffffffffffffffffffffffffffffff1673ffffffffffffffffffffffffffffffffffffffff16636352211e836040518263ffffffff1660e01b81526004016104849190614968565b60206040518083038186803b15801561049c57600080fd5b505afa1580156104b0573d6000803e3d6000fd5b505050506040513d601f19601f820116820180604052508101906104d49190613705565b73ffffffffffffffffffffffffffffffffffffffff161461052a576040517f08c379a000000000000000000000000000000000000000000000000000000000815260040161052190614904565b60405180910390fd5b600360009054906101000a900473ffffffffffffffffffffffffffffffffffffffff1673ffffffffffffffffffffffffffffffffffffffff16638c6acc51336003600088876040518663ffffffff1660e01b815260040161058f959493929190614585565b600060405180830381600087803b1580156105a957600080fd5b505af11580156105bd573d6000803e3d6000fd5b50505050600260009054906101000a900473ffffffffffffffffffffffffffffffffffffffff1673ffffffffffffffffffffffffffffffffffffffff16632682b0e48585336040518463ffffffff1660e01b8152600401610620939291906149ac565b600060405180830381600087803b15801561063a57600080fd5b505af115801561064e573d6000803e3d6000fd5b505050507f41398dd25cfa0774990db425ab8dc3865eb456073501bdeb839bb236a135dba5338560405161068392919061473d565b60405180910390a150505050565b6060600360009054906101000a900473ffffffffffffffffffffffffffffffffffffffff1673ffffffffffffffffffffffffffffffffffffffff166304e5b45c336040518263ffffffff1660e01b81526004016106ee919061443a565b60006040518083038186803b15801561070657600080fd5b505afa15801561071a573d6000803e3d6000fd5b505050506040513d6000823e3d601f19601f82011682018060405250810190610743919061385c565b905090565b6060813373ffffffffffffffffffffffffffffffffffffffff16600260009054906101000a900473ffffffffffffffffffffffffffffffffffffffff1673ffffffffffffffffffffffffffffffffffffffff16636352211e836040518263ffffffff1660e01b81526004016107bd9190614968565b60206040518083038186803b1580156107d557600080fd5b505afa1580156107e9573d6000803e3d6000fd5b505050506040513d601f19601f8201168201806040525081019061080d9190613705565b73ffffffffffffffffffffffffffffffffffffffff1614610863576040517f08c379a000000000000000000000000000000000000000000000000000000000815260040161085a90614904565b60405180910390fd5b600260009054906101000a900473ffffffffffffffffffffffffffffffffffffffff1673ffffffffffffffffffffffffffffffffffffffff1663c87b56dd846040518263ffffffff1660e01b81526004016108be9190614968565b60006040518083038186803b1580156108d657600080fd5b505afa1580156108ea573d6000803e3d6000fd5b505050506040513d6000823e3d601f19601f82011682018060405250810190610913919061391b565b915050919050565b610929338260400151612be4565b600360009054906101000a900473ffffffffffffffffffffffffffffffffffffffff1673ffffffffffffffffffffffffffffffffffffffff16634531817d336002600360009054906101000a900473ffffffffffffffffffffffffffffffffffffffff1673ffffffffffffffffffffffffffffffffffffffff16637cc24f2d33600288602001516040518463ffffffff1660e01b81526004016109ce93929190614637565b60206040518083038186803b1580156109e657600080fd5b505afa1580156109fa573d6000803e3d6000fd5b505050506040513d601f19601f82011682018060405250810190610a1e9190613cb0565b6040518463ffffffff1660e01b8152600401610a3c93929190614637565b600060405180830381600087803b158015610a5657600080fd5b505af1158015610a6a573d6000803e3d6000fd5b505050507fa912d4fcf92fbf5ee375612c5bc2e36a389d851e05a910bf21e0beda6c8d89693382600001518360200151604051610aa993929190614455565b60405180910390a150565b823373ffffffffffffffffffffffffffffffffffffffff16600260009054906101000a900473ffffffffffffffffffffffffffffffffffffffff1673ffffffffffffffffffffffffffffffffffffffff16636352211e836040518263ffffffff1660e01b8152600401610b279190614968565b60206040518083038186803b158015610b3f57600080fd5b505afa158015610b53573d6000803e3d6000fd5b505050506040513d601f19601f82011682018060405250810190610b779190613705565b73ffffffffffffffffffffffffffffffffffffffff1614610bcd576040517f08c379a0000000000000000000000000000000000000000000000000000000008152600401610bc490614904565b60405180910390fd5b82600460009054906101000a900473ffffffffffffffffffffffffffffffffffffffff1673ffffffffffffffffffffffffffffffffffffffff1663a1abffee826040518263ffffffff1660e01b8152600401610c29919061443a565b60206040518083038186803b158015610c4157600080fd5b505afa158015610c55573d6000803e3d6000fd5b505050506040513d601f19601f82011682018060405250810190610c7991906138a5565b610cb8576040517f08c379a0000000000000000000000000000000000000000000000000000000008152600401610caf906148c4565b60405180910390fd5b600360009054906101000a900473ffffffffffffffffffffffffffffffffffffffff1673ffffffffffffffffffffffffffffffffffffffff166371499a7b3386888760016040518663ffffffff1660e01b8152600401610d1c9594939291906144d1565b600060405180830381600087803b158015610d3657600080fd5b505af1158015610d4a573d6000803e3d6000fd5b505050507f30ef45173d7b3f0134eb34eed874d331ff64fe422f3a8881a8353f7fe27a98fd338587604051610d8193929190614455565b60405180910390a15050505050565b813373ffffffffffffffffffffffffffffffffffffffff16600260009054906101000a900473ffffffffffffffffffffffffffffffffffffffff1673ffffffffffffffffffffffffffffffffffffffff16636352211e836040518263ffffffff1660e01b8152600401610e039190614968565b60206040518083038186803b158015610e1b57600080fd5b505afa158015610e2f573d6000803e3d6000fd5b505050506040513d601f19601f82011682018060405250810190610e539190613705565b73ffffffffffffffffffffffffffffffffffffffff1614610ea9576040517f08c379a0000000000000000000000000000000000000000000000000000000008152600401610ea090614904565b60405180910390fd5b600360009054906101000a900473ffffffffffffffffffffffffffffffffffffffff1673ffffffffffffffffffffffffffffffffffffffff166389ed5fa033856040518363ffffffff1660e01b8152600401610f0692919061473d565b602060405180830381600087803b158015610f2057600080fd5b505af1158015610f34573d6000803e3d6000fd5b505050506040513d601f19601f82011682018060405250810190610f5891906138a5565b5081610fee57600260009054906101000a900473ffffffffffffffffffffffffffffffffffffffff1673ffffffffffffffffffffffffffffffffffffffff1663fcd3533c84336040518363ffffffff1660e01b8152600401610fbb929190614983565b600060405180830381600087803b158015610fd557600080fd5b505af1158015610fe9573d6000803e3d6000fd5b505050505b7f25d4d887d1cdf2f4a7386b7e0d00aa319d66a6963a77083e69758fc3cb1ccebf33848460405161102193929190614766565b60405180910390a1505050565b6060600360009054906101000a900473ffffffffffffffffffffffffffffffffffffffff1673ffffffffffffffffffffffffffffffffffffffff1663219e657b336040518263ffffffff1660e01b815260040161108b919061443a565b60006040518083038186803b1580156110a357600080fd5b505afa1580156110b7573d6000803e3d6000fd5b505050506040513d6000823e3d601f19601f820116820180604052508101906110e0919061385c565b905090565b6110ed612e7b565b73ffffffffffffffffffffffffffffffffffffffff1661110b61164a565b73ffffffffffffffffffffffffffffffffffffffff1614611161576040517f08c379a0000000000000000000000000000000000000000000000000000000008152600401611158906148e4565b60405180910390fd5b61116b6000612e83565b565b6060600360009054906101000a900473ffffffffffffffffffffffffffffffffffffffff1673ffffffffffffffffffffffffffffffffffffffff1663bbed9457336040518263ffffffff1660e01b81526004016111ca919061443a565b60006040518083038186803b1580156111e257600080fd5b505afa1580156111f6573d6000803e3d6000fd5b505050506040513d6000823e3d601f19601f8201168201806040525081019061121f919061385c565b905090565b823373ffffffffffffffffffffffffffffffffffffffff16600260009054906101000a900473ffffffffffffffffffffffffffffffffffffffff1673ffffffffffffffffffffffffffffffffffffffff16636352211e836040518263ffffffff1660e01b81526004016112979190614968565b60206040518083038186803b1580156112af57600080fd5b505afa1580156112c3573d6000803e3d6000fd5b505050506040513d601f19601f820116820180604052508101906112e79190613705565b73ffffffffffffffffffffffffffffffffffffffff161461133d576040517f08c379a000000000000000000000000000000000000000000000000000000000815260040161133490614904565b60405180910390fd5b81600460009054906101000a900473ffffffffffffffffffffffffffffffffffffffff1673ffffffffffffffffffffffffffffffffffffffff1663a1abffee826040518263ffffffff1660e01b8152600401611399919061443a565b60206040518083038186803b1580156113b157600080fd5b505afa1580156113c5573d6000803e3d6000fd5b505050506040513d601f19601f820116820180604052508101906113e991906138a5565b611428576040517f08c379a000000000000000000000000000000000000000000000000000000000815260040161141f906148c4565b60405180910390fd5b611430613091565b600360009054906101000a900473ffffffffffffffffffffffffffffffffffffffff1673ffffffffffffffffffffffffffffffffffffffff166371499a7b3386898960026040518663ffffffff1660e01b81526004016114949594939291906144d1565b600060405180830381600087803b1580156114ae57600080fd5b505af11580156114c2573d6000803e3d6000fd5b5050505060405180606001604052803373ffffffffffffffffffffffffffffffffffffffff168152602001878152602001600160008773ffffffffffffffffffffffffffffffffffffffff1673ffffffffffffffffffffffffffffffffffffffff168152602001908152602001600020805490508152509050600160008573ffffffffffffffffffffffffffffffffffffffff1673ffffffffffffffffffffffffffffffffffffffff16815260200190815260200160002081908060018154018082558091505060019003906000526020600020906003020160009091909190915060008201518160000160006101000a81548173ffffffffffffffffffffffffffffffffffffffff021916908373ffffffffffffffffffffffffffffffffffffffff160217905550602082015181600101556040820151816002015550507fdcd8480bd34c91f1f2adc92afe46034c8808591541fd4d1fa5cbdcb152cc8fec8160000151826020015160405161163a92919061473d565b60405180910390a1505050505050565b60008060009054906101000a900473ffffffffffffffffffffffffffffffffffffffff16905090565b61167b612e7b565b73ffffffffffffffffffffffffffffffffffffffff1661169961164a565b73ffffffffffffffffffffffffffffffffffffffff16146116ef576040517f08c379a00000000000000000000000000000000000000000000000000000000081526004016116e6906148e4565b60405180910390fd5b600460009054906101000a900473ffffffffffffffffffffffffffffffffffffffff1673ffffffffffffffffffffffffffffffffffffffff1663c6361c22858585856040518563ffffffff1660e01b815260040161175094939291906146e3565b600060405180830381600087803b15801561176a57600080fd5b505af115801561177e573d6000803e3d6000fd5b505050506040513d6000823e3d601f19601f820116820180604052508101906117a79190613c3a565b507f8d9024430453f128ca4f7678ee38e6a2024a5f36fa204933588a69b8fe8cc0c084836040516117d992919061466e565b60405180910390a150505050565b803373ffffffffffffffffffffffffffffffffffffffff16600260009054906101000a900473ffffffffffffffffffffffffffffffffffffffff1673ffffffffffffffffffffffffffffffffffffffff16636352211e836040518263ffffffff1660e01b815260040161185a9190614968565b60206040518083038186803b15801561187257600080fd5b505afa158015611886573d6000803e3d6000fd5b505050506040513d601f19601f820116820180604052508101906118aa9190613705565b73ffffffffffffffffffffffffffffffffffffffff1614611900576040517f08c379a00000000000000000000000000000000000000000000000000000000081526004016118f790614904565b60405180910390fd5b600360009054906101000a900473ffffffffffffffffffffffffffffffffffffffff1673ffffffffffffffffffffffffffffffffffffffff16634531817d336001600360009054906101000a900473ffffffffffffffffffffffffffffffffffffffff1673ffffffffffffffffffffffffffffffffffffffff16637cc24f2d336001896040518463ffffffff1660e01b81526004016119a193929190614637565b60206040518083038186803b1580156119b957600080fd5b505afa1580156119cd573d6000803e3d6000fd5b505050506040513d601f19601f820116820180604052508101906119f19190613cb0565b6040518463ffffffff1660e01b8152600401611a0f93929190614637565b600060405180830381600087803b158015611a2957600080fd5b505af1158015611a3d573d6000803e3d6000fd5b505050507fa19d981f41b819741b3955b6e01294e09d0e45d35bebad9b435a433adde2d5583383604051611a7292919061473d565b60405180910390a15050565b611a866130c8565b33600460009054906101000a900473ffffffffffffffffffffffffffffffffffffffff1673ffffffffffffffffffffffffffffffffffffffff1663a1abffee826040518263ffffffff1660e01b8152600401611ae2919061443a565b60206040518083038186803b158015611afa57600080fd5b505afa158015611b0e573d6000803e3d6000fd5b505050506040513d601f19601f82011682018060405250810190611b3291906138a5565b611b71576040517f08c379a0000000000000000000000000000000000000000000000000000000008152600401611b68906148c4565b60405180910390fd5b6000611b7b6130c8565b600260009054906101000a900473ffffffffffffffffffffffffffffffffffffffff1673ffffffffffffffffffffffffffffffffffffffff1663d0def521338c6040518363ffffffff1660e01b8152600401611bd892919061466e565b602060405180830381600087803b158015611bf257600080fd5b505af1158015611c06573d6000803e3d6000fd5b505050506040513d601f19601f82011682018060405250810190611c2a9190613cb0565b9150600360009054906101000a900473ffffffffffffffffffffffffffffffffffffffff1673ffffffffffffffffffffffffffffffffffffffff16639643062c33848e8d8d8d8d8d6040518963ffffffff1660e01b8152600401611c9598979695949392919061479d565b600060405180830381600087803b158015611caf57600080fd5b505af1158015611cc3573d6000803e3d6000fd5b505050506040513d6000823e3d601f19601f82011682018060405250810190611cec9190613bf1565b90507fba21b505ffad1eade4edf87dec4f6dae4552ba705cb5188e82041dc02171a7853383604051611d1f92919061473d565b60405180910390a1809350505050979650505050505050565b6060600360009054906101000a900473ffffffffffffffffffffffffffffffffffffffff1673ffffffffffffffffffffffffffffffffffffffff1663d83e2027336040518263ffffffff1660e01b8152600401611d95919061443a565b60006040518083038186803b158015611dad57600080fd5b505afa158015611dc1573d6000803e3d6000fd5b505050506040513d6000823e3d601f19601f82011682018060405250810190611dea919061385c565b905090565b600460009054906101000a900473ffffffffffffffffffffffffffffffffffffffff1673ffffffffffffffffffffffffffffffffffffffff16633f1a51b833836040518363ffffffff1660e01b8152600401611e4c92919061466e565b600060405180830381600087803b158015611e6657600080fd5b505af1158015611e7a573d6000803e3d6000fd5b505050506040513d6000823e3d601f19601f82011682018060405250810190611ea39190613c3a565b507f3510d9fd1bdaa96909e4f9fcd057c39ee3ee4647521258d952d64974a8e052a83382604051611ed592919061466e565b60405180910390a150565b611ef38360000151846020015184612f47565b611f01338460400151612be4565b8015611fa557600360009054906101000a900473ffffffffffffffffffffffffffffffffffffffff1673ffffffffffffffffffffffffffffffffffffffff16638c6acc51336002600187602001516040518563ffffffff1660e01b8152600401611f6e94939291906145df565b600060405180830381600087803b158015611f8857600080fd5b505af1158015611f9c573d6000803e3d6000fd5b505050506120eb565b600360009054906101000a900473ffffffffffffffffffffffffffffffffffffffff1673ffffffffffffffffffffffffffffffffffffffff16634531817d336002600360009054906101000a900473ffffffffffffffffffffffffffffffffffffffff1673ffffffffffffffffffffffffffffffffffffffff16637cc24f2d3360028a602001516040518463ffffffff1660e01b815260040161204a93929190614637565b60206040518083038186803b15801561206257600080fd5b505afa158015612076573d6000803e3d6000fd5b505050506040513d601f19601f8201168201806040525081019061209a9190613cb0565b6040518463ffffffff1660e01b81526004016120b893929190614637565b600060405180830381600087803b1580156120d257600080fd5b505af11580156120e6573d6000803e3d6000fd5b505050505b7ff0f8c7ba94a353f8e6a599551096a917b2c8e83503b929a736d549ca8b3fb184338460000151856020015184604051612128949392919061448c565b60405180910390a1505050565b6060600160003373ffffffffffffffffffffffffffffffffffffffff1673ffffffffffffffffffffffffffffffffffffffff168152602001908152602001600020805480602002602001604051908101604052809291908181526020016000905b8282101561223257838290600052602060002090600302016040518060600160405290816000820160009054906101000a900473ffffffffffffffffffffffffffffffffffffffff1673ffffffffffffffffffffffffffffffffffffffff1673ffffffffffffffffffffffffffffffffffffffff1681526020016001820154815260200160028201548152505081526020019060010190612196565b50505050905090565b61224361312d565b600460009054906101000a900473ffffffffffffffffffffffffffffffffffffffff1673ffffffffffffffffffffffffffffffffffffffff16636f77926b336040518263ffffffff1660e01b815260040161229e919061443a565b60006040518083038186803b1580156122b657600080fd5b505afa1580156122ca573d6000803e3d6000fd5b505050506040513d6000823e3d601f19601f820116820180604052508101906122f39190613c3a565b905090565b6060600460009054906101000a900473ffffffffffffffffffffffffffffffffffffffff1673ffffffffffffffffffffffffffffffffffffffff16636e2db3b0336040518263ffffffff1660e01b8152600401612355919061443a565b60006040518083038186803b15801561236d57600080fd5b505afa158015612381573d6000803e3d6000fd5b505050506040513d6000823e3d601f19601f820116820180604052508101906123aa919061391b565b905090565b600460009054906101000a900473ffffffffffffffffffffffffffffffffffffffff1673ffffffffffffffffffffffffffffffffffffffff1663c6361c22338585856040518563ffffffff1660e01b815260040161241094939291906146e3565b600060405180830381600087803b15801561242a57600080fd5b505af115801561243e573d6000803e3d6000fd5b505050506040513d6000823e3d601f19601f820116820180604052508101906124679190613c3a565b507ff9e22d0d90b1c23a58ab3faeb23fd4ac8ad47eccb5a435427069e65a22fb00d533848460405161249b9392919061469e565b60405180910390a1505050565b6124b0612e7b565b73ffffffffffffffffffffffffffffffffffffffff166124ce61164a565b73ffffffffffffffffffffffffffffffffffffffff1614612524576040517f08c379a000000000000000000000000000000000000000000000000000000000815260040161251b906148e4565b60405180910390fd5b600073ffffffffffffffffffffffffffffffffffffffff168173ffffffffffffffffffffffffffffffffffffffff161415612594576040517f08c379a000000000000000000000000000000000000000000000000000000000815260040161258b906148a4565b60405180910390fd5b61259d81612e83565b50565b813373ffffffffffffffffffffffffffffffffffffffff16600260009054906101000a900473ffffffffffffffffffffffffffffffffffffffff1673ffffffffffffffffffffffffffffffffffffffff16636352211e836040518263ffffffff1660e01b81526004016126139190614968565b60206040518083038186803b15801561262b57600080fd5b505afa15801561263f573d6000803e3d6000fd5b505050506040513d601f19601f820116820180604052508101906126639190613705565b73ffffffffffffffffffffffffffffffffffffffff16146126b9576040517f08c379a00000000000000000000000000000000000000000000000000000000081526004016126b090614904565b60405180910390fd5b83600460009054906101000a900473ffffffffffffffffffffffffffffffffffffffff1673ffffffffffffffffffffffffffffffffffffffff1663a1abffee826040518263ffffffff1660e01b8152600401612715919061443a565b60206040518083038186803b15801561272d57600080fd5b505afa158015612741573d6000803e3d6000fd5b505050506040513d601f19601f8201168201806040525081019061276591906138a5565b6127a4576040517f08c379a000000000000000000000000000000000000000000000000000000000815260040161279b906148c4565b60405180910390fd5b600360009054906101000a900473ffffffffffffffffffffffffffffffffffffffff1673ffffffffffffffffffffffffffffffffffffffff166371499a7b3387878760036040518663ffffffff1660e01b81526004016128089594939291906144d1565b600060405180830381600087803b15801561282257600080fd5b505af1158015612836573d6000803e3d6000fd5b50505050600260009054906101000a900473ffffffffffffffffffffffffffffffffffffffff1673ffffffffffffffffffffffffffffffffffffffff166323b872dd3387876040518463ffffffff1660e01b815260040161289993929190614455565b600060405180830381600087803b1580156128b357600080fd5b505af11580156128c7573d6000803e3d6000fd5b505050506128d6846001610d90565b7f34f581da021a47386a4d5676be80c680ca6596579bd9f513f3d272b0460359fa33868660405161290993929190614455565b60405180910390a15050505050565b33600460009054906101000a900473ffffffffffffffffffffffffffffffffffffffff1673ffffffffffffffffffffffffffffffffffffffff1663a1abffee826040518263ffffffff1660e01b8152600401612974919061443a565b60206040518083038186803b15801561298c57600080fd5b505afa1580156129a0573d6000803e3d6000fd5b505050506040513d601f19601f820116820180604052508101906129c491906138a5565b612a03576040517f08c379a00000000000000000000000000000000000000000000000000000000081526004016129fa906148c4565b60405180910390fd5b600360009054906101000a900473ffffffffffffffffffffffffffffffffffffffff1673ffffffffffffffffffffffffffffffffffffffff1663bd53176b336040518263ffffffff1660e01b8152600401612a5e919061443a565b600060405180830381600087803b158015612a7857600080fd5b505af1158015612a8c573d6000803e3d6000fd5b50505050600360009054906101000a900473ffffffffffffffffffffffffffffffffffffffff1673ffffffffffffffffffffffffffffffffffffffff166351685f35336040518263ffffffff1660e01b8152600401612aeb919061443a565b600060405180830381600087803b158015612b0557600080fd5b505af1158015612b19573d6000803e3d6000fd5b50505050600460009054906101000a900473ffffffffffffffffffffffffffffffffffffffff1673ffffffffffffffffffffffffffffffffffffffff1663f849f379336040518263ffffffff1660e01b8152600401612b78919061443a565b600060405180830381600087803b158015612b9257600080fd5b505af1158015612ba6573d6000803e3d6000fd5b505050507fe5ca53020b6c0ff2116f624b9ca44e320913151f07ce0ac7186a67a5f6885e3633604051612bd9919061443a565b60405180910390a150565b612bec613091565b600160008473ffffffffffffffffffffffffffffffffffffffff1673ffffffffffffffffffffffffffffffffffffffff16815260200190815260200160002060018060008673ffffffffffffffffffffffffffffffffffffffff1673ffffffffffffffffffffffffffffffffffffffff16815260200190815260200160002080549050612c799190614b70565b81548110612c8a57612c89614d11565b5b90600052602060002090600302016040518060600160405290816000820160009054906101000a900473ffffffffffffffffffffffffffffffffffffffff1673ffffffffffffffffffffffffffffffffffffffff1673ffffffffffffffffffffffffffffffffffffffff1681526020016001820154815260200160028201548152505090508181604001818152505080600160008573ffffffffffffffffffffffffffffffffffffffff1673ffffffffffffffffffffffffffffffffffffffff1681526020019081526020016000208381548110612d6b57612d6a614d11565b5b906000526020600020906003020160008201518160000160006101000a81548173ffffffffffffffffffffffffffffffffffffffff021916908373ffffffffffffffffffffffffffffffffffffffff1602179055506020820151816001015560408201518160020155905050600160008473ffffffffffffffffffffffffffffffffffffffff1673ffffffffffffffffffffffffffffffffffffffff168152602001908152602001600020805480612e2657612e25614ce2565b5b6001900381819060005260206000209060030201600080820160006101000a81549073ffffffffffffffffffffffffffffffffffffffff02191690556001820160009055600282016000905550509055505050565b600033905090565b60008060009054906101000a900473ffffffffffffffffffffffffffffffffffffffff169050816000806101000a81548173ffffffffffffffffffffffffffffffffffffffff021916908373ffffffffffffffffffffffffffffffffffffffff1602179055508173ffffffffffffffffffffffffffffffffffffffff168173ffffffffffffffffffffffffffffffffffffffff167f8be0079c531659141344cd1fd0a4f28419497f9722a3daafe3b4186f6b6457e060405160405180910390a35050565b6000600460009054906101000a900473ffffffffffffffffffffffffffffffffffffffff1673ffffffffffffffffffffffffffffffffffffffff16632330f247336040518263ffffffff1660e01b8152600401612fa4919061443a565b60206040518083038186803b158015612fbc57600080fd5b505afa158015612fd0573d6000803e3d6000fd5b505050506040513d601f19601f82011682018060405250810190612ff491906138a5565b9050600360009054906101000a900473ffffffffffffffffffffffffffffffffffffffff1673ffffffffffffffffffffffffffffffffffffffff16635d1e792733838787876040518663ffffffff1660e01b815260040161305995949392919061452b565b600060405180830381600087803b15801561307357600080fd5b505af1158015613087573d6000803e3d6000fd5b5050505050505050565b6040518060600160405280600073ffffffffffffffffffffffffffffffffffffffff16815260200160008152602001600081525090565b6040518061014001604052806000815260200160008152602001606081526020016060815260200160008152602001606081526020016060815260200160608152602001606081526020016000600381111561312757613126614cb3565b5b81525090565b604051806080016040528060608152602001606081526020016000151581526020016000151581525090565b600061316c61316784614a0f565b6149ea565b9050808382526020820190508285602086028201111561318f5761318e614d7e565b5b60005b858110156131bf57816131a588826132f0565b845260208401935060208301925050600181019050613192565b5050509392505050565b60006131dc6131d784614a3b565b6149ea565b905080838252602082019050828560208602820111156131ff576131fe614d7e565b5b60005b8581101561324d57815167ffffffffffffffff81111561322557613224614d6f565b5b8086016132328982613460565b85526020850194506020840193505050600181019050613202565b5050509392505050565b600061326a61326584614a67565b6149ea565b90508281526020810184848401111561328657613285614d83565b5b613291848285614c11565b509392505050565b60006132ac6132a784614a67565b6149ea565b9050828152602081018484840111156132c8576132c7614d83565b5b6132d3848285614c20565b509392505050565b6000813590506132ea81614ed0565b92915050565b6000815190506132ff81614ed0565b92915050565b600082601f83011261331a57613319614d6f565b5b815161332a848260208601613159565b91505092915050565b600082601f83011261334857613347614d6f565b5b81516133588482602086016131c9565b91505092915050565b60008135905061337081614ee7565b92915050565b60008151905061338581614ee7565b92915050565b60008151905061339a81614efe565b92915050565b600082601f8301126133b5576133b4614d6f565b5b81356133c5848260208601613257565b91505092915050565b600082601f8301126133e3576133e2614d6f565b5b81516133f3848260208601613299565b91505092915050565b60006060828403121561341257613411614d74565b5b61341c60606149ea565b9050600061342c848285016132db565b6000830152506020613440848285016136ae565b6020830152506040613454848285016136ae565b60408301525092915050565b6000610140828403121561347757613476614d74565b5b6134826101406149ea565b90506000613492848285016136c3565b60008301525060206134a6848285016136c3565b602083015250604082015167ffffffffffffffff8111156134ca576134c9614d79565b5b6134d6848285016133ce565b604083015250606082015167ffffffffffffffff8111156134fa576134f9614d79565b5b613506848285016133ce565b606083015250608061351a848285016136c3565b60808301525060a082015167ffffffffffffffff81111561353e5761353d614d79565b5b61354a848285016133ce565b60a08301525060c082015167ffffffffffffffff81111561356e5761356d614d79565b5b61357a84828501613305565b60c08301525060e082015167ffffffffffffffff81111561359e5761359d614d79565b5b6135aa848285016133ce565b60e08301525061010082015167ffffffffffffffff8111156135cf576135ce614d79565b5b6135db848285016133ce565b610100830152506101206135f18482850161338b565b6101208301525092915050565b60006080828403121561361457613613614d74565b5b61361e60806149ea565b9050600082015167ffffffffffffffff81111561363e5761363d614d79565b5b61364a848285016133ce565b600083015250602082015167ffffffffffffffff81111561366e5761366d614d79565b5b61367a848285016133ce565b602083015250604061368e84828501613376565b60408301525060606136a284828501613376565b60608301525092915050565b6000813590506136bd81614f0e565b92915050565b6000815190506136d281614f0e565b92915050565b6000602082840312156136ee576136ed614d8d565b5b60006136fc848285016132db565b91505092915050565b60006020828403121561371b5761371a614d8d565b5b6000613729848285016132f0565b91505092915050565b6000806000806080858703121561374c5761374b614d8d565b5b600061375a878288016132db565b945050602085013567ffffffffffffffff81111561377b5761377a614d88565b5b613787878288016133a0565b935050604085013567ffffffffffffffff8111156137a8576137a7614d88565b5b6137b4878288016133a0565b925050606085013567ffffffffffffffff8111156137d5576137d4614d88565b5b6137e1878288016133a0565b91505092959194509250565b60008060006060848603121561380657613805614d8d565b5b6000613814868287016132db565b9350506020613825868287016136ae565b925050604084013567ffffffffffffffff81111561384657613845614d88565b5b613852868287016133a0565b9150509250925092565b60006020828403121561387257613871614d8d565b5b600082015167ffffffffffffffff8111156138905761388f614d88565b5b61389c84828501613333565b91505092915050565b6000602082840312156138bb576138ba614d8d565b5b60006138c984828501613376565b91505092915050565b6000602082840312156138e8576138e7614d8d565b5b600082013567ffffffffffffffff81111561390657613905614d88565b5b613912848285016133a0565b91505092915050565b60006020828403121561393157613930614d8d565b5b600082015167ffffffffffffffff81111561394f5761394e614d88565b5b61395b848285016133ce565b91505092915050565b60008060006060848603121561397d5761397c614d8d565b5b600084013567ffffffffffffffff81111561399b5761399a614d88565b5b6139a7868287016133a0565b935050602084013567ffffffffffffffff8111156139c8576139c7614d88565b5b6139d4868287016133a0565b925050604084013567ffffffffffffffff8111156139f5576139f4614d88565b5b613a01868287016133a0565b9150509250925092565b600080600080600080600060e0888a031215613a2a57613a29614d8d565b5b600088013567ffffffffffffffff811115613a4857613a47614d88565b5b613a548a828b016133a0565b975050602088013567ffffffffffffffff811115613a7557613a74614d88565b5b613a818a828b016133a0565b965050604088013567ffffffffffffffff811115613aa257613aa1614d88565b5b613aae8a828b016133a0565b9550506060613abf8a828b016136ae565b945050608088013567ffffffffffffffff811115613ae057613adf614d88565b5b613aec8a828b016133a0565b93505060a088013567ffffffffffffffff811115613b0d57613b0c614d88565b5b613b198a828b016133a0565b92505060c088013567ffffffffffffffff811115613b3a57613b39614d88565b5b613b468a828b016133a0565b91505092959891949750929550565b600060608284031215613b6b57613b6a614d8d565b5b6000613b79848285016133fc565b91505092915050565b600080600060a08486031215613b9b57613b9a614d8d565b5b6000613ba9868287016133fc565b935050606084013567ffffffffffffffff811115613bca57613bc9614d88565b5b613bd6868287016133a0565b9250506080613be786828701613361565b9150509250925092565b600060208284031215613c0757613c06614d8d565b5b600082015167ffffffffffffffff811115613c2557613c24614d88565b5b613c3184828501613460565b91505092915050565b600060208284031215613c5057613c4f614d8d565b5b600082015167ffffffffffffffff811115613c6e57613c6d614d88565b5b613c7a848285016135fe565b91505092915050565b600060208284031215613c9957613c98614d8d565b5b6000613ca7848285016136ae565b91505092915050565b600060208284031215613cc657613cc5614d8d565b5b6000613cd4848285016136c3565b91505092915050565b600080600060608486031215613cf657613cf5614d8d565b5b6000613d04868287016136ae565b9350506020613d15868287016132db565b925050604084013567ffffffffffffffff811115613d3657613d35614d88565b5b613d42868287016133a0565b9150509250925092565b60008060408385031215613d6357613d62614d8d565b5b6000613d71858286016136ae565b9250506020613d8285828601613361565b9150509250929050565b600080600060608486031215613da557613da4614d8d565b5b6000613db3868287016136ae565b935050602084013567ffffffffffffffff811115613dd457613dd3614d88565b5b613de0868287016133a0565b9250506040613df1868287016132db565b9150509250925092565b600080600060608486031215613e1457613e13614d8d565b5b6000613e22868287016136ae565b935050602084013567ffffffffffffffff811115613e4357613e42614d88565b5b613e4f868287016133a0565b925050604084013567ffffffffffffffff811115613e7057613e6f614d88565b5b613e7c868287016133a0565b9150509250925092565b6000613e928383613eca565b60208301905092915050565b6000613eaa8383614176565b60608301905092915050565b6000613ec283836141b8565b905092915050565b613ed381614ba4565b82525050565b613ee281614ba4565b82525050565b6000613ef382614ac8565b613efd8185614b1b565b9350613f0883614a98565b8060005b83811015613f39578151613f208882613e86565b9750613f2b83614af4565b925050600181019050613f0c565b5085935050505092915050565b6000613f5182614ad3565b613f5b8185614b2c565b9350613f6683614aa8565b8060005b83811015613f97578151613f7e8882613e9e565b9750613f8983614b01565b925050600181019050613f6a565b5085935050505092915050565b6000613faf82614ade565b613fb98185614b3d565b935083602082028501613fcb85614ab8565b8060005b858110156140075784840389528151613fe88582613eb6565b9450613ff383614b0e565b925060208a01995050600181019050613fcf565b50829750879550505050505092915050565b61402281614bb6565b82525050565b61403181614bb6565b82525050565b61404081614bff565b82525050565b61404f81614bff565b82525050565b600061406082614ae9565b61406a8185614b4e565b935061407a818560208601614c20565b61408381614d92565b840191505092915050565b600061409982614ae9565b6140a38185614b5f565b93506140b3818560208601614c20565b6140bc81614d92565b840191505092915050565b60006140d4602683614b5f565b91506140df82614da3565b604082019050919050565b60006140f7602b83614b5f565b915061410282614df2565b604082019050919050565b600061411a602083614b5f565b915061412582614e41565b602082019050919050565b600061413d602e83614b5f565b915061414882614e6a565b604082019050919050565b6000614160600083614b5f565b915061416b82614eb9565b600082019050919050565b60608201600082015161418c6000850182613eca565b50602082015161419f602085018261441c565b5060408201516141b2604085018261441c565b50505050565b6000610140830160008301516141d1600086018261441c565b5060208301516141e4602086018261441c565b50604083015184820360408601526141fc8282614055565b915050606083015184820360608601526142168282614055565b915050608083015161422b608086018261441c565b5060a083015184820360a08601526142438282614055565b91505060c083015184820360c086015261425d8282613ee8565b91505060e083015184820360e08601526142778282614055565b9150506101008301518482036101008601526142938282614055565b9150506101208301516142aa610120860182614037565b508091505092915050565b6000610140830160008301516142ce600086018261441c565b5060208301516142e1602086018261441c565b50604083015184820360408601526142f98282614055565b915050606083015184820360608601526143138282614055565b9150506080830151614328608086018261441c565b5060a083015184820360a08601526143408282614055565b91505060c083015184820360c086015261435a8282613ee8565b91505060e083015184820360e08601526143748282614055565b9150506101008301518482036101008601526143908282614055565b9150506101208301516143a7610120860182614037565b508091505092915050565b600060808301600083015184820360008601526143cf8282614055565b915050602083015184820360208601526143e98282614055565b91505060408301516143fe6040860182614019565b5060608301516144116060860182614019565b508091505092915050565b61442581614bf5565b82525050565b61443481614bf5565b82525050565b600060208201905061444f6000830184613ed9565b92915050565b600060608201905061446a6000830186613ed9565b6144776020830185613ed9565b614484604083018461442b565b949350505050565b60006080820190506144a16000830187613ed9565b6144ae6020830186613ed9565b6144bb604083018561442b565b6144c86060830184614028565b95945050505050565b600060a0820190506144e66000830188613ed9565b6144f36020830187613ed9565b614500604083018661442b565b8181036060830152614512818561408e565b90506145216080830184614046565b9695505050505050565b600060a0820190506145406000830188613ed9565b61454d6020830187614028565b61455a6040830186613ed9565b614567606083018561442b565b8181036080830152614579818461408e565b90509695505050505050565b600060a08201905061459a6000830188613ed9565b6145a76020830187614046565b6145b46040830186614046565b6145c1606083018561442b565b81810360808301526145d3818461408e565b90509695505050505050565b600060a0820190506145f46000830187613ed9565b6146016020830186614046565b61460e6040830185614046565b61461b606083018461442b565b818103608083015261462c81614153565b905095945050505050565b600060608201905061464c6000830186613ed9565b6146596020830185614046565b614666604083018461442b565b949350505050565b60006040820190506146836000830185613ed9565b8181036020830152614695818461408e565b90509392505050565b60006060820190506146b36000830186613ed9565b81810360208301526146c5818561408e565b905081810360408301526146d9818461408e565b9050949350505050565b60006080820190506146f86000830187613ed9565b818103602083015261470a818661408e565b9050818103604083015261471e818561408e565b90508181036060830152614732818461408e565b905095945050505050565b60006040820190506147526000830185613ed9565b61475f602083018461442b565b9392505050565b600060608201905061477b6000830186613ed9565b614788602083018561442b565b6147956040830184614028565b949350505050565b6000610100820190506147b3600083018b613ed9565b6147c0602083018a61442b565b81810360408301526147d2818961408e565b905081810360608301526147e6818861408e565b90506147f5608083018761442b565b81810360a0830152614807818661408e565b905081810360c083015261481b818561408e565b905081810360e083015261482f818461408e565b90509998505050505050505050565b600060208201905081810360008301526148588184613f46565b905092915050565b6000602082019050818103600083015261487a8184613fa4565b905092915050565b6000602082019050818103600083015261489c818461408e565b905092915050565b600060208201905081810360008301526148bd816140c7565b9050919050565b600060208201905081810360008301526148dd816140ea565b9050919050565b600060208201905081810360008301526148fd8161410d565b9050919050565b6000602082019050818103600083015261491d81614130565b9050919050565b6000602082019050818103600083015261493e81846142b5565b905092915050565b6000602082019050818103600083015261496081846143b2565b905092915050565b600060208201905061497d600083018461442b565b92915050565b6000604082019050614998600083018561442b565b6149a56020830184613ed9565b9392505050565b60006060820190506149c1600083018661442b565b81810360208301526149d3818561408e565b90506149e26040830184613ed9565b949350505050565b60006149f4614a05565b9050614a008282614c53565b919050565b6000604051905090565b600067ffffffffffffffff821115614a2a57614a29614d40565b5b602082029050602081019050919050565b600067ffffffffffffffff821115614a5657614a55614d40565b5b602082029050602081019050919050565b600067ffffffffffffffff821115614a8257614a81614d40565b5b614a8b82614d92565b9050602081019050919050565b6000819050602082019050919050565b6000819050602082019050919050565b6000819050602082019050919050565b600081519050919050565b600081519050919050565b600081519050919050565b600081519050919050565b6000602082019050919050565b6000602082019050919050565b6000602082019050919050565b600082825260208201905092915050565b600082825260208201905092915050565b600082825260208201905092915050565b600082825260208201905092915050565b600082825260208201905092915050565b6000614b7b82614bf5565b9150614b8683614bf5565b925082821015614b9957614b98614c84565b5b828203905092915050565b6000614baf82614bd5565b9050919050565b60008115159050919050565b6000819050614bd082614ebc565b919050565b600073ffffffffffffffffffffffffffffffffffffffff82169050919050565b6000819050919050565b6000614c0a82614bc2565b9050919050565b82818337600083830152505050565b60005b83811015614c3e578082015181840152602081019050614c23565b83811115614c4d576000848401525b50505050565b614c5c82614d92565b810181811067ffffffffffffffff82111715614c7b57614c7a614d40565b5b80604052505050565b7f4e487b7100000000000000000000000000000000000000000000000000000000600052601160045260246000fd5b7f4e487b7100000000000000000000000000000000000000000000000000000000600052602160045260246000fd5b7f4e487b7100000000000000000000000000000000000000000000000000000000600052603160045260246000fd5b7f4e487b7100000000000000000000000000000000000000000000000000000000600052603260045260246000fd5b7f4e487b7100000000000000000000000000000000000000000000000000000000600052604160045260246000fd5b600080fd5b600080fd5b600080fd5b600080fd5b600080fd5b600080fd5b600080fd5b6000601f19601f8301169050919050565b7f4f776e61626c653a206e6577206f776e657220697320746865207a65726f206160008201527f6464726573730000000000000000000000000000000000000000000000000000602082015250565b7f446f634d616e616765723a204365747465207574696c69736174657572206e2760008201527f657869737465207061732e000000000000000000000000000000000000000000602082015250565b7f4f776e61626c653a2063616c6c6572206973206e6f7420746865206f776e6572600082015250565b7f546f6b656e4d616e616765723a20436574204e4654206e6520766f757320617060008201527f7061727469656e74207061732021000000000000000000000000000000000000602082015250565b50565b60048110614ecd57614ecc614cb3565b5b50565b614ed981614ba4565b8114614ee457600080fd5b50565b614ef081614bb6565b8114614efb57600080fd5b50565b60048110614f0b57600080fd5b50565b614f1781614bf5565b8114614f2257600080fd5b5056fea26469706673582212207b1057f787148eda68ef9c99e388cfde6c61d2182dd974a036ee3114a615152d64736f6c63430008060033",
  "immutableReferences": {},
  "source": "//SPDX-License-Identifier: MIT\n\npragma solidity 0.8.6;\n\nimport \"./AccountManager.sol\";\nimport \"@openzeppelin/contracts/access/Ownable.sol\";\nimport \"./DocManager.sol\";\nimport \"./SaveDocToken.sol\";\nimport \"./SaveDocStruct.sol\";\n\n\ncontract SaveDoc is Ownable, SaveDocStruct\n{\n    mapping(address => CertificationRequest[]) private requests;\n    SaveDocToken private saveDocToken;\n    DocManager private docManager;\n    AccountManager private accountManager;\n\n\n    constructor(DocManager _docManager, SaveDocToken _saveDocToken, AccountManager _accountManager)\n    {\n        docManager = _docManager;\n        saveDocToken = _saveDocToken;\n        accountManager = _accountManager;\n    }\n\n    event Subscribe(address newUser, string name, string pubkey);\n    event SubscribeAuthority(address newUser, string pubkey);\n    event ChangeUsername(address user, string newUsername);\n    event Unsubcribe(address user);\n    event SecureDocument(address user, uint256 tokenID);\n    event DeleteDocumment(address ownerDoc, uint256 tokenID, bool forTransfer);\n    event TransferDocument(address from, address to, uint256 tokenID);\n    event ShareDoc(address from, address to, uint256 tokenID);\n    event AcceptTransferDoc(address newOwner, uint256 tokenID);\n    event DeleteMyDocCopy(address ownerDoc, uint256 tokenID);\n    event RequestCertification(address applicant, uint256 tokenID);\n    event AcceptCertificationRequest(address certifying, address applicant, uint256 tokenID, bool keepCopy);\n    event RejectCertificationRequest(address certifying, address applicant, uint256 tokenID);\n\n    modifier isMyToken(uint256 tokenID)\n    {\n        require(saveDocToken.ownerOf(tokenID) == msg.sender, \"TokenManager: Cet NFT ne vous appartient pas !\");\n        _;\n    }\n\n    modifier userExist(address addressUser)\n    {\n        require(accountManager.checkIfUserExist(addressUser), \"DocManager: Cette utilisateur n'existe pas.\");\n        _;\n    }\n\n    function subscribe(string memory name, string memory pubKey, string memory passwordMaster) external\n    {\n        accountManager.addUser(msg.sender, name, pubKey, passwordMaster);\n        emit Subscribe(msg.sender, name, pubKey);\n    }\n\n    function subscribeAuthority(address authority,string memory name, string memory pubKey, string memory passwordMaster) onlyOwner() external\n    {\n        //TODO\n        accountManager.addUser(authority, name, pubKey, passwordMaster);\n        emit SubscribeAuthority(authority, pubKey);\n    }\n\n    function viewMyProfil() view external returns(User memory)\n    {\n        return accountManager.getUser(msg.sender);\n    }\n\n    function getMyPasswordMaster() view external returns(string memory)\n    {\n        return accountManager.getPasswordMaster(msg.sender);\n    }\n\n    function changeMyName(string memory name) external\n    {\n        accountManager.setUser(msg.sender, name);\n        emit ChangeUsername(msg.sender, name);\n    }\n\n    function unsubscribe() external userExist(msg.sender)\n    {\n        // Voir comment supprimer tout ces fichiers\n        docManager.deleteAllDocs(msg.sender);\n        docManager.delAllCopyDoc(msg.sender);\n        accountManager.delUser(msg.sender);\n        emit Unsubcribe(msg.sender);\n    }\n\n    function secureDocument(string memory tokenName, string memory tokenURI, string memory tokenMime, uint256 tokenLength, string memory filePath, string memory passwordEncrypted, string memory hashNFT) userExist(msg.sender) external returns (Document memory)\n    {\n        uint256 tokenID;\n        Document memory document;\n\n        tokenID = saveDocToken.mint(msg.sender, tokenURI);\n        document = docManager.createDoc(msg.sender, tokenID, tokenName, tokenMime, tokenLength, filePath, passwordEncrypted, hashNFT);\n        emit SecureDocument(msg.sender, tokenID);\n\n       return document;\n    }\n\n    // TODO Review\n    function delMyDocument(uint256 tokenID, bool forTransfer) isMyToken(tokenID) public\n    {\n        docManager.deleteDoc(msg.sender, tokenID);\n\n        if (!forTransfer)\n        {\n            saveDocToken.burn(tokenID, msg.sender);\n        }\n        emit DeleteDocumment(msg.sender, tokenID, forTransfer);\n    }\n\n    function getTokenURI(uint256 tokenID) external view isMyToken(tokenID) returns(string memory)\n    {\n        return saveDocToken.tokenURI(tokenID);\n    }\n\n    function transferDoc(address to, uint256 tokenID, string memory tokenURITmp) isMyToken(tokenID) userExist(to) external\n    {\n        docManager.createCopyDoc(msg.sender, to, tokenID, tokenURITmp, TypeDoc.CopyPendingTransfer);\n        saveDocToken.transferFrom(msg.sender, to, tokenID);\n        delMyDocument(tokenID, true);\n        emit TransferDocument(msg.sender, to, tokenID);\n    }\n\n    function shareDoc(uint256 tokenID, address to, string memory tokenURI) isMyToken(tokenID) userExist(to) external\n    {\n        docManager.createCopyDoc(msg.sender, to, tokenID, tokenURI, TypeDoc.CopyShared);\n        emit ShareDoc(msg.sender, to, tokenID);\n    }\n\n    function acceptNewDoc(uint256 tokenID, string memory newTokenURI, string memory passwordEncrypted) isMyToken(tokenID) external\n    {\n        // check si msg.sender a bien dja une copie du Document\n        docManager.convertTypeDoc(msg.sender, TypeDoc.CopyPendingTransfer, TypeDoc.Original, tokenID, passwordEncrypted);\n        saveDocToken.setTokenURI(tokenID, newTokenURI, msg.sender);\n        emit AcceptTransferDoc(msg.sender, tokenID);\n    }\n\n    function delCopyDocShared(uint tokenID) external isMyToken(tokenID)\n    {\n        docManager.delCopyDoc(msg.sender, TypeDoc.CopyShared, docManager.getIndexNFT(msg.sender, TypeDoc.CopyShared, tokenID));\n        emit DeleteMyDocCopy(msg.sender, tokenID);\n    }\n\n    function requestCertification(uint256 tokenID, string memory tokenURI, address certifying) isMyToken(tokenID) userExist(certifying) external\n    {\n        CertificationRequest memory request;\n\n        docManager.createCopyDoc(msg.sender, certifying, tokenID, tokenURI, TypeDoc.CopyCertified);\n        request = CertificationRequest(msg.sender, tokenID, requests[certifying].length);\n        requests[certifying].push(request);\n        emit RequestCertification(request.applicant, request.tokenID);\n    }\n\n    function viewMyDocs() view external returns(Document[] memory)\n    {\n        return docManager.getDocs(msg.sender);\n    }\n\n    function viewMyCopyDocs() view external returns(Document[] memory)\n    {\n        return docManager.getAllCopyShared(msg.sender);\n    }\n\n    function viewDocPendingTransfer() view external returns(Document[] memory)\n    {\n        return docManager.getAllCopyPendingTransfer(msg.sender);\n    }\n\n    function viewDocCertified() view external returns(Document[] memory)\n    {\n        return docManager.getAllCopyCertified(msg.sender);\n    }\n\n    function viewCertificationRequest() external view returns(CertificationRequest[] memory)\n    {\n        return requests[msg.sender];\n    }\n\n    function delRequest(address certifying, uint256 index) private\n    {\n        CertificationRequest memory substitute;\n\n        substitute = requests[certifying][requests[certifying].length - 1];\n        substitute.index = index;\n        requests[certifying][index] = substitute;\n        requests[certifying].pop();\n    }\n\n    function certifyDocument(address applicant, uint256 tokenID, string memory hashNFT) private\n    {\n        bool isAuthority;\n\n        isAuthority = accountManager.isAuthority(msg.sender);\n        docManager.certify(msg.sender, isAuthority, applicant, tokenID, hashNFT);\n    }\n\n    function acceptCertificationRequest(CertificationRequest memory request, string memory hashNFT, bool keepCopyDoc) public\n    {\n        // check si msg.sender a bien dja une copie du Document\n        certifyDocument(request.applicant, request.tokenID, hashNFT);\n        delRequest(msg.sender, request.index);\n\n        if (keepCopyDoc)\n        {\n            docManager.convertTypeDoc(msg.sender, TypeDoc.CopyCertified, TypeDoc.CopyShared, request.tokenID, \"\");\n        }\n        else\n        {\n            docManager.delCopyDoc(msg.sender, TypeDoc.CopyCertified, docManager.getIndexNFT(msg.sender, TypeDoc.CopyCertified, request.tokenID));\n        }\n        emit AcceptCertificationRequest(msg.sender, request.applicant, request.tokenID, keepCopyDoc);\n    }\n\n    function rejectCertificationRequest(CertificationRequest memory request) external\n    {\n        // check si msg.sender  bien dja une copie du Document\n        delRequest(msg.sender, request.index);\n        docManager.delCopyDoc(msg.sender, TypeDoc.CopyCertified, docManager.getIndexNFT(msg.sender, TypeDoc.CopyCertified, request.tokenID));\n        emit RejectCertificationRequest(msg.sender, request.applicant, request.tokenID);\n    }\n}\n",
  "sourcePath": "/home/oumar/projects/SAV-Doc/contracts/SaveDoc.sol",
  "compiler": {
    "name": "solc",
    "version": "0.8.6+commit.11564f7e.Emscripten.clang"
  },
  "schemaVersion": "3.4.1",
  "updatedAt": "2021-07-31T14:30:07.249Z",
  "networkType": "ethereum",
  "devdoc": {
    "kind": "dev",
    "methods": {
      "owner()": {
        "details": "Returns the address of the current owner."
      },
      "renounceOwnership()": {
        "details": "Leaves the contract without owner. It will not be possible to call `onlyOwner` functions anymore. Can only be called by the current owner. NOTE: Renouncing ownership will leave the contract without an owner, thereby removing any functionality that is only available to the owner."
      },
      "transferOwnership(address)": {
        "details": "Transfers ownership of the contract to a new account (`newOwner`). Can only be called by the current owner."
      }
    },
    "version": 1
  },
  "userdoc": {
    "kind": "user",
    "methods": {},
    "version": 1
  }
}