{
  "contractName": "SaveMyDoc",
  "abi": [
    {
      "inputs": [
        {
          "internalType": "contract DocManager",
          "name": "_docManager",
          "type": "address"
        },
        {
          "internalType": "contract SaveDocToken",
          "name": "_saveDocToken",
          "type": "address"
        }
      ],
      "stateMutability": "nonpayable",
      "type": "constructor"
    },
    {
      "inputs": [
        {
          "internalType": "string",
          "name": "tokenName",
          "type": "string"
        },
        {
          "internalType": "string",
          "name": "tokenURI",
          "type": "string"
        },
        {
          "internalType": "string",
          "name": "tokenMime",
          "type": "string"
        },
        {
          "internalType": "uint256",
          "name": "tokenLength",
          "type": "uint256"
        },
        {
          "internalType": "string",
          "name": "filePath",
          "type": "string"
        },
        {
          "internalType": "string",
          "name": "passwordEncrypted",
          "type": "string"
        },
        {
          "internalType": "string",
          "name": "hashNFT",
          "type": "string"
        }
      ],
      "name": "secureDocument",
      "outputs": [
        {
          "components": [
            {
              "internalType": "uint256",
              "name": "tokenID",
              "type": "uint256"
            },
            {
              "internalType": "uint256",
              "name": "fileSize",
              "type": "uint256"
            },
            {
              "internalType": "string",
              "name": "filename",
              "type": "string"
            },
            {
              "internalType": "string",
              "name": "fileMimeType",
              "type": "string"
            },
            {
              "internalType": "uint256",
              "name": "dateAdd",
              "type": "uint256"
            },
            {
              "internalType": "string",
              "name": "filePath",
              "type": "string"
            },
            {
              "internalType": "address[]",
              "name": "certifying",
              "type": "address[]"
            },
            {
              "internalType": "string",
              "name": "tokenURI",
              "type": "string"
            },
            {
              "internalType": "string",
              "name": "passwordEncrypted",
              "type": "string"
            },
            {
              "internalType": "enum NFT.TypeDoc",
              "name": "typeNft",
              "type": "uint8"
            }
          ],
          "internalType": "struct NFT.Document",
          "name": "",
          "type": "tuple"
        }
      ],
      "stateMutability": "nonpayable",
      "type": "function"
    },
    {
      "inputs": [
        {
          "internalType": "address",
          "name": "to",
          "type": "address"
        },
        {
          "internalType": "uint256",
          "name": "tokenID",
          "type": "uint256"
        },
        {
          "internalType": "string",
          "name": "tokenURITmp",
          "type": "string"
        }
      ],
      "name": "transferNFT",
      "outputs": [],
      "stateMutability": "nonpayable",
      "type": "function"
    },
    {
      "inputs": [
        {
          "internalType": "uint256",
          "name": "tokenID",
          "type": "uint256"
        },
        {
          "internalType": "string",
          "name": "newTokenURI",
          "type": "string"
        },
        {
          "internalType": "string",
          "name": "passwordEncrypted",
          "type": "string"
        }
      ],
      "name": "acceptNewNFT",
      "outputs": [],
      "stateMutability": "nonpayable",
      "type": "function"
    },
    {
      "inputs": [
        {
          "internalType": "uint256",
          "name": "tokenID",
          "type": "uint256"
        },
        {
          "internalType": "address",
          "name": "to",
          "type": "address"
        },
        {
          "internalType": "string",
          "name": "tokenURI",
          "type": "string"
        }
      ],
      "name": "shareNFT",
      "outputs": [],
      "stateMutability": "nonpayable",
      "type": "function"
    },
    {
      "inputs": [
        {
          "internalType": "uint256",
          "name": "tokenID",
          "type": "uint256"
        },
        {
          "internalType": "string",
          "name": "tokenURI",
          "type": "string"
        },
        {
          "internalType": "address",
          "name": "certifying",
          "type": "address"
        }
      ],
      "name": "requestCertification",
      "outputs": [],
      "stateMutability": "nonpayable",
      "type": "function"
    },
    {
      "inputs": [],
      "name": "getRequests",
      "outputs": [
        {
          "components": [
            {
              "internalType": "address",
              "name": "applicant",
              "type": "address"
            },
            {
              "internalType": "uint256",
              "name": "tokenID",
              "type": "uint256"
            },
            {
              "internalType": "uint256",
              "name": "index",
              "type": "uint256"
            }
          ],
          "internalType": "struct SaveMyDoc.CertificationRequest[]",
          "name": "",
          "type": "tuple[]"
        }
      ],
      "stateMutability": "view",
      "type": "function",
      "constant": true
    },
    {
      "inputs": [
        {
          "components": [
            {
              "internalType": "address",
              "name": "applicant",
              "type": "address"
            },
            {
              "internalType": "uint256",
              "name": "tokenID",
              "type": "uint256"
            },
            {
              "internalType": "uint256",
              "name": "index",
              "type": "uint256"
            }
          ],
          "internalType": "struct SaveMyDoc.CertificationRequest",
          "name": "request",
          "type": "tuple"
        },
        {
          "internalType": "string",
          "name": "hashNFT",
          "type": "string"
        }
      ],
      "name": "acceptCertificationRequest",
      "outputs": [],
      "stateMutability": "nonpayable",
      "type": "function"
    },
    {
      "inputs": [
        {
          "components": [
            {
              "internalType": "address",
              "name": "applicant",
              "type": "address"
            },
            {
              "internalType": "uint256",
              "name": "tokenID",
              "type": "uint256"
            },
            {
              "internalType": "uint256",
              "name": "index",
              "type": "uint256"
            }
          ],
          "internalType": "struct SaveMyDoc.CertificationRequest",
          "name": "request",
          "type": "tuple"
        }
      ],
      "name": "rejectCertificationRequest",
      "outputs": [],
      "stateMutability": "nonpayable",
      "type": "function"
    },
    {
      "inputs": [
        {
          "internalType": "uint256",
          "name": "tokenID",
          "type": "uint256"
        }
      ],
      "name": "getTokenURI",
      "outputs": [
        {
          "internalType": "string",
          "name": "",
          "type": "string"
        }
      ],
      "stateMutability": "view",
      "type": "function",
      "constant": true
    },
    {
      "inputs": [
        {
          "internalType": "uint256",
          "name": "tokenID",
          "type": "uint256"
        },
        {
          "internalType": "bool",
          "name": "isCopyDoc",
          "type": "bool"
        }
      ],
      "name": "deleteDoc",
      "outputs": [],
      "stateMutability": "nonpayable",
      "type": "function"
    }
  ],
  "bytecode": "0x60806040523480156200001157600080fd5b5060405162002826380380620028268339818101604052810190620000379190620000ef565b81600260006101000a81548173ffffffffffffffffffffffffffffffffffffffff021916908373ffffffffffffffffffffffffffffffffffffffff16021790555080600160006101000a81548173ffffffffffffffffffffffffffffffffffffffff021916908373ffffffffffffffffffffffffffffffffffffffff1602179055505050620001cb565b600081519050620000d28162000197565b92915050565b600081519050620000e981620001b1565b92915050565b6000806040838503121562000109576200010862000192565b5b60006200011985828601620000c1565b92505060206200012c85828601620000d8565b9150509250929050565b6000620001438262000172565b9050919050565b6000620001578262000136565b9050919050565b60006200016b8262000136565b9050919050565b600073ffffffffffffffffffffffffffffffffffffffff82169050919050565b600080fd5b620001a2816200014a565b8114620001ae57600080fd5b50565b620001bc816200015e565b8114620001c857600080fd5b50565b61264b80620001db6000396000f3fe608060405234801561001057600080fd5b506004361061009e5760003560e01c8063940c1bc811610066578063940c1bc814610145578063dbcf28a714610175578063e975276e14610191578063f9028754146101ad578063f907aa19146101c95761009e565b80633bb3a24d146100a357806342cd7236146100d357806343e57225146100ef5780638813ce121461010b5780638a5fd60614610129575b600080fd5b6100bd60048036038101906100b89190611996565b6101e5565b6040516100ca919061214c565b60405180910390f35b6100ed60048036038101906100e891906118c4565b6103b6565b005b610109600480360381019061010491906118f1565b61050b565b005b6101136106fc565b604051610120919061212a565b60405180910390f35b610143600480360381019061013e9190611a9f565b610801565b005b61015f600480360381019061015a919061177a565b6109de565b60405161016c919061218e565b60405180910390f35b61018f600480360381019061018a91906119f0565b610b73565b005b6101ab60048036038101906101a69190611695565b610c0e565b005b6101c760048036038101906101c29190611a5f565b610d45565b005b6101e360048036038101906101de9190611b0e565b610dfb565b005b60603373ffffffffffffffffffffffffffffffffffffffff16600260009054906101000a900473ffffffffffffffffffffffffffffffffffffffff1673ffffffffffffffffffffffffffffffffffffffff1663a543a717846040518263ffffffff1660e01b815260040161025991906121b0565b60206040518083038186803b15801561027157600080fd5b505afa158015610285573d6000803e3d6000fd5b505050506040513d601f19601f820116820180604052508101906102a99190611668565b73ffffffffffffffffffffffffffffffffffffffff16146102ff576040517f08c379a00000000000000000000000000000000000000000000000000000000081526004016102f69061216e565b60405180910390fd5b600160009054906101000a900473ffffffffffffffffffffffffffffffffffffffff1673ffffffffffffffffffffffffffffffffffffffff1663c87b56dd836040518263ffffffff1660e01b815260040161035a91906121b0565b60006040518083038186803b15801561037257600080fd5b505afa158015610386573d6000803e3d6000fd5b505050506040513d6000823e3d601f19601f820116820180604052508101906103af9190611731565b9050919050565b6103c4338260400151610f25565b600260009054906101000a900473ffffffffffffffffffffffffffffffffffffffff1673ffffffffffffffffffffffffffffffffffffffff16634531817d3360028060009054906101000a900473ffffffffffffffffffffffffffffffffffffffff1673ffffffffffffffffffffffffffffffffffffffff16637cc24f2d33600288602001516040518463ffffffff1660e01b815260040161046893929190611feb565b60206040518083038186803b15801561048057600080fd5b505afa158015610494573d6000803e3d6000fd5b505050506040513d601f19601f820116820180604052508101906104b891906119c3565b6040518463ffffffff1660e01b81526004016104d693929190611feb565b600060405180830381600087803b1580156104f057600080fd5b505af1158015610504573d6000803e3d6000fd5b5050505050565b600260009054906101000a900473ffffffffffffffffffffffffffffffffffffffff1673ffffffffffffffffffffffffffffffffffffffff1663b5b4cb353384600001518560200151856040518563ffffffff1660e01b81526004016105749493929190611ef9565b600060405180830381600087803b15801561058e57600080fd5b505af11580156105a2573d6000803e3d6000fd5b505050506105b4338360400151610f25565b600260009054906101000a900473ffffffffffffffffffffffffffffffffffffffff1673ffffffffffffffffffffffffffffffffffffffff16634531817d3360028060009054906101000a900473ffffffffffffffffffffffffffffffffffffffff1673ffffffffffffffffffffffffffffffffffffffff16637cc24f2d33600289602001516040518463ffffffff1660e01b815260040161065893929190611feb565b60206040518083038186803b15801561067057600080fd5b505afa158015610684573d6000803e3d6000fd5b505050506040513d601f19601f820116820180604052508101906106a891906119c3565b6040518463ffffffff1660e01b81526004016106c693929190611feb565b600060405180830381600087803b1580156106e057600080fd5b505af11580156106f4573d6000803e3d6000fd5b505050505050565b60606000803373ffffffffffffffffffffffffffffffffffffffff1673ffffffffffffffffffffffffffffffffffffffff168152602001908152602001600020805480602002602001604051908101604052809291908181526020016000905b828210156107f857838290600052602060002090600302016040518060600160405290816000820160009054906101000a900473ffffffffffffffffffffffffffffffffffffffff1673ffffffffffffffffffffffffffffffffffffffff1673ffffffffffffffffffffffffffffffffffffffff168152602001600182015481526020016002820154815250508152602001906001019061075c565b50505050905090565b6108096111b9565b600260009054906101000a900473ffffffffffffffffffffffffffffffffffffffff1673ffffffffffffffffffffffffffffffffffffffff166371499a7b3384878760026040518663ffffffff1660e01b815260040161086d959493929190611f45565b600060405180830381600087803b15801561088757600080fd5b505af115801561089b573d6000803e3d6000fd5b5050505060405180606001604052803373ffffffffffffffffffffffffffffffffffffffff1681526020018581526020016000808573ffffffffffffffffffffffffffffffffffffffff1673ffffffffffffffffffffffffffffffffffffffff1681526020019081526020016000208054905081525090506000808373ffffffffffffffffffffffffffffffffffffffff1673ffffffffffffffffffffffffffffffffffffffff16815260200190815260200160002081908060018154018082558091505060019003906000526020600020906003020160009091909190915060008201518160000160006101000a81548173ffffffffffffffffffffffffffffffffffffffff021916908373ffffffffffffffffffffffffffffffffffffffff1602179055506020820151816001015560408201518160020155505050505050565b6109e66111f0565b60006109f06111f0565b600160009054906101000a900473ffffffffffffffffffffffffffffffffffffffff1673ffffffffffffffffffffffffffffffffffffffff1663d0def521338b6040518363ffffffff1660e01b8152600401610a4d929190612022565b602060405180830381600087803b158015610a6757600080fd5b505af1158015610a7b573d6000803e3d6000fd5b505050506040513d601f19601f82011682018060405250810190610a9f91906119c3565b9150600260009054906101000a900473ffffffffffffffffffffffffffffffffffffffff1673ffffffffffffffffffffffffffffffffffffffff16639643062c33848d8c8c8c8c8c6040518963ffffffff1660e01b8152600401610b0a989796959493929190612089565b600060405180830381600087803b158015610b2457600080fd5b505af1158015610b38573d6000803e3d6000fd5b505050506040513d6000823e3d601f19601f82011682018060405250810190610b61919061194d565b90508092505050979650505050505050565b600260009054906101000a900473ffffffffffffffffffffffffffffffffffffffff1673ffffffffffffffffffffffffffffffffffffffff166371499a7b3384868560016040518663ffffffff1660e01b8152600401610bd7959493929190611f45565b600060405180830381600087803b158015610bf157600080fd5b505af1158015610c05573d6000803e3d6000fd5b50505050505050565b600260009054906101000a900473ffffffffffffffffffffffffffffffffffffffff1673ffffffffffffffffffffffffffffffffffffffff166371499a7b3385858560036040518663ffffffff1660e01b8152600401610c72959493929190611f45565b600060405180830381600087803b158015610c8c57600080fd5b505af1158015610ca0573d6000803e3d6000fd5b50505050600160009054906101000a900473ffffffffffffffffffffffffffffffffffffffff1673ffffffffffffffffffffffffffffffffffffffff166323b872dd3385856040518463ffffffff1660e01b8152600401610d0393929190611ec2565b600060405180830381600087803b158015610d1d57600080fd5b505af1158015610d31573d6000803e3d6000fd5b50505050610d40826001610d45565b505050565b600260009054906101000a900473ffffffffffffffffffffffffffffffffffffffff1673ffffffffffffffffffffffffffffffffffffffff166314676a1b3384846040518463ffffffff1660e01b8152600401610da493929190612052565b602060405180830381600087803b158015610dbe57600080fd5b505af1158015610dd2573d6000803e3d6000fd5b505050506040513d601f19601f82011682018060405250810190610df69190611704565b505050565b600260009054906101000a900473ffffffffffffffffffffffffffffffffffffffff1673ffffffffffffffffffffffffffffffffffffffff16635359954b33600384876040518563ffffffff1660e01b8152600401610e5d9493929190611f9f565b600060405180830381600087803b158015610e7757600080fd5b505af1158015610e8b573d6000803e3d6000fd5b50505050600160009054906101000a900473ffffffffffffffffffffffffffffffffffffffff1673ffffffffffffffffffffffffffffffffffffffff16632682b0e48484336040518463ffffffff1660e01b8152600401610eee939291906121cb565b600060405180830381600087803b158015610f0857600080fd5b505af1158015610f1c573d6000803e3d6000fd5b50505050505050565b610f2d6111b9565b6000808473ffffffffffffffffffffffffffffffffffffffff1673ffffffffffffffffffffffffffffffffffffffff16815260200190815260200160002060016000808673ffffffffffffffffffffffffffffffffffffffff1673ffffffffffffffffffffffffffffffffffffffff16815260200190815260200160002080549050610fb9919061232a565b81548110610fca57610fc96124cb565b5b90600052602060002090600302016040518060600160405290816000820160009054906101000a900473ffffffffffffffffffffffffffffffffffffffff1673ffffffffffffffffffffffffffffffffffffffff1673ffffffffffffffffffffffffffffffffffffffff16815260200160018201548152602001600282015481525050905081816040018181525050806000808573ffffffffffffffffffffffffffffffffffffffff1673ffffffffffffffffffffffffffffffffffffffff16815260200190815260200160002083815481106110aa576110a96124cb565b5b906000526020600020906003020160008201518160000160006101000a81548173ffffffffffffffffffffffffffffffffffffffff021916908373ffffffffffffffffffffffffffffffffffffffff16021790555060208201518160010155604082015181600201559050506000808473ffffffffffffffffffffffffffffffffffffffff1673ffffffffffffffffffffffffffffffffffffffff1681526020019081526020016000208054806111645761116361249c565b5b6001900381819060005260206000209060030201600080820160006101000a81549073ffffffffffffffffffffffffffffffffffffffff02191690556001820160009055600282016000905550509055505050565b6040518060600160405280600073ffffffffffffffffffffffffffffffffffffffff16815260200160008152602001600081525090565b6040518061014001604052806000815260200160008152602001606081526020016060815260200160008152602001606081526020016060815260200160608152602001606081526020016000600381111561124f5761124e61246d565b5b81525090565b60006112686112638461222e565b612209565b9050808382526020820190508285602086028201111561128b5761128a612538565b5b60005b858110156112bb57816112a1888261135e565b84526020840193506020830192505060018101905061128e565b5050509392505050565b60006112d86112d38461225a565b612209565b9050828152602081018484840111156112f4576112f361253d565b5b6112ff8482856123cb565b509392505050565b600061131a6113158461225a565b612209565b9050828152602081018484840111156113365761133561253d565b5b6113418482856123da565b509392505050565b600081359050611358816125c0565b92915050565b60008151905061136d816125c0565b92915050565b600082601f83011261138857611387612529565b5b8151611398848260208601611255565b91505092915050565b6000813590506113b0816125d7565b92915050565b6000815190506113c5816125d7565b92915050565b6000815190506113da816125ee565b92915050565b600082601f8301126113f5576113f4612529565b5b81356114058482602086016112c5565b91505092915050565b600082601f83011261142357611422612529565b5b8151611433848260208601611307565b91505092915050565b6000606082840312156114525761145161252e565b5b61145c6060612209565b9050600061146c84828501611349565b60008301525060206114808482850161163e565b60208301525060406114948482850161163e565b60408301525092915050565b600061014082840312156114b7576114b661252e565b5b6114c2610140612209565b905060006114d284828501611653565b60008301525060206114e684828501611653565b602083015250604082015167ffffffffffffffff81111561150a57611509612533565b5b6115168482850161140e565b604083015250606082015167ffffffffffffffff81111561153a57611539612533565b5b6115468482850161140e565b606083015250608061155a84828501611653565b60808301525060a082015167ffffffffffffffff81111561157e5761157d612533565b5b61158a8482850161140e565b60a08301525060c082015167ffffffffffffffff8111156115ae576115ad612533565b5b6115ba84828501611373565b60c08301525060e082015167ffffffffffffffff8111156115de576115dd612533565b5b6115ea8482850161140e565b60e08301525061010082015167ffffffffffffffff81111561160f5761160e612533565b5b61161b8482850161140e565b61010083015250610120611631848285016113cb565b6101208301525092915050565b60008135905061164d816125fe565b92915050565b600081519050611662816125fe565b92915050565b60006020828403121561167e5761167d612547565b5b600061168c8482850161135e565b91505092915050565b6000806000606084860312156116ae576116ad612547565b5b60006116bc86828701611349565b93505060206116cd8682870161163e565b925050604084013567ffffffffffffffff8111156116ee576116ed612542565b5b6116fa868287016113e0565b9150509250925092565b60006020828403121561171a57611719612547565b5b6000611728848285016113b6565b91505092915050565b60006020828403121561174757611746612547565b5b600082015167ffffffffffffffff81111561176557611764612542565b5b6117718482850161140e565b91505092915050565b600080600080600080600060e0888a03121561179957611798612547565b5b600088013567ffffffffffffffff8111156117b7576117b6612542565b5b6117c38a828b016113e0565b975050602088013567ffffffffffffffff8111156117e4576117e3612542565b5b6117f08a828b016113e0565b965050604088013567ffffffffffffffff81111561181157611810612542565b5b61181d8a828b016113e0565b955050606061182e8a828b0161163e565b945050608088013567ffffffffffffffff81111561184f5761184e612542565b5b61185b8a828b016113e0565b93505060a088013567ffffffffffffffff81111561187c5761187b612542565b5b6118888a828b016113e0565b92505060c088013567ffffffffffffffff8111156118a9576118a8612542565b5b6118b58a828b016113e0565b91505092959891949750929550565b6000606082840312156118da576118d9612547565b5b60006118e88482850161143c565b91505092915050565b6000806080838503121561190857611907612547565b5b60006119168582860161143c565b925050606083013567ffffffffffffffff81111561193757611936612542565b5b611943858286016113e0565b9150509250929050565b60006020828403121561196357611962612547565b5b600082015167ffffffffffffffff81111561198157611980612542565b5b61198d848285016114a0565b91505092915050565b6000602082840312156119ac576119ab612547565b5b60006119ba8482850161163e565b91505092915050565b6000602082840312156119d9576119d8612547565b5b60006119e784828501611653565b91505092915050565b600080600060608486031215611a0957611a08612547565b5b6000611a178682870161163e565b9350506020611a2886828701611349565b925050604084013567ffffffffffffffff811115611a4957611a48612542565b5b611a55868287016113e0565b9150509250925092565b60008060408385031215611a7657611a75612547565b5b6000611a848582860161163e565b9250506020611a95858286016113a1565b9150509250929050565b600080600060608486031215611ab857611ab7612547565b5b6000611ac68682870161163e565b935050602084013567ffffffffffffffff811115611ae757611ae6612542565b5b611af3868287016113e0565b9250506040611b0486828701611349565b9150509250925092565b600080600060608486031215611b2757611b26612547565b5b6000611b358682870161163e565b935050602084013567ffffffffffffffff811115611b5657611b55612542565b5b611b62868287016113e0565b925050604084013567ffffffffffffffff811115611b8357611b82612542565b5b611b8f868287016113e0565b9150509250925092565b6000611ba58383611bc9565b60208301905092915050565b6000611bbd8383611d65565b60608301905092915050565b611bd28161235e565b82525050565b611be18161235e565b82525050565b6000611bf2826122ab565b611bfc81856122e6565b9350611c078361228b565b8060005b83811015611c38578151611c1f8882611b99565b9750611c2a836122cc565b925050600181019050611c0b565b5085935050505092915050565b6000611c50826122b6565b611c5a81856122f7565b9350611c658361229b565b8060005b83811015611c96578151611c7d8882611bb1565b9750611c88836122d9565b925050600181019050611c69565b5085935050505092915050565b611cac81612370565b82525050565b611cbb816123b9565b82525050565b611cca816123b9565b82525050565b6000611cdb826122c1565b611ce58185612308565b9350611cf58185602086016123da565b611cfe8161254c565b840191505092915050565b6000611d14826122c1565b611d1e8185612319565b9350611d2e8185602086016123da565b611d378161254c565b840191505092915050565b6000611d4f602b83612319565b9150611d5a8261255d565b604082019050919050565b606082016000820151611d7b6000850182611bc9565b506020820151611d8e6020850182611ea4565b506040820151611da16040850182611ea4565b50505050565b600061014083016000830151611dc06000860182611ea4565b506020830151611dd36020860182611ea4565b5060408301518482036040860152611deb8282611cd0565b91505060608301518482036060860152611e058282611cd0565b9150506080830151611e1a6080860182611ea4565b5060a083015184820360a0860152611e328282611cd0565b91505060c083015184820360c0860152611e4c8282611be7565b91505060e083015184820360e0860152611e668282611cd0565b915050610100830151848203610100860152611e828282611cd0565b915050610120830151611e99610120860182611cb2565b508091505092915050565b611ead816123af565b82525050565b611ebc816123af565b82525050565b6000606082019050611ed76000830186611bd8565b611ee46020830185611bd8565b611ef16040830184611eb3565b949350505050565b6000608082019050611f0e6000830187611bd8565b611f1b6020830186611bd8565b611f286040830185611eb3565b8181036060830152611f3a8184611d09565b905095945050505050565b600060a082019050611f5a6000830188611bd8565b611f676020830187611bd8565b611f746040830186611eb3565b8181036060830152611f868185611d09565b9050611f956080830184611cc1565b9695505050505050565b6000608082019050611fb46000830187611bd8565b611fc16020830186611cc1565b8181036040830152611fd38185611d09565b9050611fe26060830184611eb3565b95945050505050565b60006060820190506120006000830186611bd8565b61200d6020830185611cc1565b61201a6040830184611eb3565b949350505050565b60006040820190506120376000830185611bd8565b81810360208301526120498184611d09565b90509392505050565b60006060820190506120676000830186611bd8565b6120746020830185611eb3565b6120816040830184611ca3565b949350505050565b60006101008201905061209f600083018b611bd8565b6120ac602083018a611eb3565b81810360408301526120be8189611d09565b905081810360608301526120d28188611d09565b90506120e16080830187611eb3565b81810360a08301526120f38186611d09565b905081810360c08301526121078185611d09565b905081810360e083015261211b8184611d09565b90509998505050505050505050565b600060208201905081810360008301526121448184611c45565b905092915050565b600060208201905081810360008301526121668184611d09565b905092915050565b6000602082019050818103600083015261218781611d42565b9050919050565b600060208201905081810360008301526121a88184611da7565b905092915050565b60006020820190506121c56000830184611eb3565b92915050565b60006060820190506121e06000830186611eb3565b81810360208301526121f28185611d09565b90506122016040830184611bd8565b949350505050565b6000612213612224565b905061221f828261240d565b919050565b6000604051905090565b600067ffffffffffffffff821115612249576122486124fa565b5b602082029050602081019050919050565b600067ffffffffffffffff821115612275576122746124fa565b5b61227e8261254c565b9050602081019050919050565b6000819050602082019050919050565b6000819050602082019050919050565b600081519050919050565b600081519050919050565b600081519050919050565b6000602082019050919050565b6000602082019050919050565b600082825260208201905092915050565b600082825260208201905092915050565b600082825260208201905092915050565b600082825260208201905092915050565b6000612335826123af565b9150612340836123af565b9250828210156123535761235261243e565b5b828203905092915050565b60006123698261238f565b9050919050565b60008115159050919050565b600081905061238a826125ac565b919050565b600073ffffffffffffffffffffffffffffffffffffffff82169050919050565b6000819050919050565b60006123c48261237c565b9050919050565b82818337600083830152505050565b60005b838110156123f85780820151818401526020810190506123dd565b83811115612407576000848401525b50505050565b6124168261254c565b810181811067ffffffffffffffff82111715612435576124346124fa565b5b80604052505050565b7f4e487b7100000000000000000000000000000000000000000000000000000000600052601160045260246000fd5b7f4e487b7100000000000000000000000000000000000000000000000000000000600052602160045260246000fd5b7f4e487b7100000000000000000000000000000000000000000000000000000000600052603160045260246000fd5b7f4e487b7100000000000000000000000000000000000000000000000000000000600052603260045260246000fd5b7f4e487b7100000000000000000000000000000000000000000000000000000000600052604160045260246000fd5b600080fd5b600080fd5b600080fd5b600080fd5b600080fd5b600080fd5b600080fd5b6000601f19601f8301169050919050565b7f536176654d79446f633a20436574204e4654206e6520766f757320617070617260008201527f7469656e74207061732021000000000000000000000000000000000000000000602082015250565b600481106125bd576125bc61246d565b5b50565b6125c98161235e565b81146125d457600080fd5b50565b6125e081612370565b81146125eb57600080fd5b50565b600481106125fb57600080fd5b50565b612607816123af565b811461261257600080fd5b5056fea264697066735822122044b740411b73e34717adfad565b05d0dd5281726bd5d09e6ce9096e9a8716c3164736f6c63430008060033",
  "immutableReferences": {},
  "source": "//SPDX-License-Identifier: MIT\n\npragma solidity 0.8.6;\n\nimport \"./DocManager.sol\";\nimport \"./SaveDocToken.sol\";\nimport \"./NFT.sol\";\n\n\ncontract SaveMyDoc is NFT\n{\n    mapping(address => CertificationRequest[]) private requests;\n    SaveDocToken private saveDocToken;\n    DocManager private docManager;\n\n\n    constructor(DocManager _docManager, SaveDocToken _saveDocToken)\n    {\n        docManager = _docManager;\n        saveDocToken = _saveDocToken;\n    }\n\n    struct CertificationRequest\n    {\n        address applicant;\n        uint256 tokenID;\n        uint256 index;\n    }\n\n    function secureDocument(string memory tokenName, string memory tokenURI, string memory tokenMime, uint256 tokenLength, string memory filePath, string memory passwordEncrypted, string memory hashNFT) public returns (Document memory)\n    {\n       uint256 tokenID;\n       Document memory document;\n\n       tokenID = saveDocToken.mint(msg.sender, tokenURI);\n       document = docManager.createDoc(msg.sender, tokenID, tokenName, tokenMime, tokenLength, filePath, passwordEncrypted, hashNFT);\n\n       return document;\n    }\n\n    function transferNFT(address to, uint256 tokenID, string memory tokenURITmp) public\n    {\n        docManager.createCopyDoc(msg.sender, to, tokenID, tokenURITmp, TypeDoc.CopyPendingTransfer);\n        saveDocToken.transferFrom(msg.sender, to, tokenID);\n        deleteDoc(tokenID, true);\n    }\n\n    function acceptNewNFT(uint256 tokenID, string memory newTokenURI, string memory passwordEncrypted) public\n    {\n        // check si msg.sender a bien dja une copie du Document\n        docManager.copyDocToOriginal(msg.sender, TypeDoc.CopyPendingTransfer, passwordEncrypted, tokenID);\n        saveDocToken.setTokenURI(tokenID, newTokenURI, msg.sender);\n    }\n\n    function shareNFT(uint256 tokenID, address to, string memory tokenURI) public\n    {\n        docManager.createCopyDoc(msg.sender, to, tokenID, tokenURI, TypeDoc.CopyShared);\n    }\n\n    function requestCertification(uint256 tokenID, string memory tokenURI, address certifying) public\n    {\n        CertificationRequest memory request;\n\n        docManager.createCopyDoc(msg.sender, certifying, tokenID, tokenURI, TypeDoc.CopyCertified);\n        request = CertificationRequest(msg.sender, tokenID, requests[certifying].length);\n        requests[certifying].push(request);\n    }\n\n    function getRequests() public view returns(CertificationRequest[] memory)\n    {\n        return requests[msg.sender];\n    }\n\n    function delRequest(address owner, uint256 index) private\n    {\n        CertificationRequest memory substitute;\n\n        substitute = requests[owner][requests[owner].length - 1];\n        substitute.index = index;\n        requests[owner][index] = substitute;\n        requests[owner].pop();\n    }\n\n    function acceptCertificationRequest(CertificationRequest memory request, string memory hashNFT) public\n    {\n        // check si msg.sender a bien dja une copie du Document\n        docManager.certify(msg.sender, request.applicant, request.tokenID, hashNFT);\n        delRequest(msg.sender, request.index);\n        docManager.delCopyDoc(msg.sender, TypeDoc.CopyCertified, docManager.getIndexNFT(msg.sender, TypeDoc.CopyCertified, request.tokenID));\n    }\n\n    function rejectCertificationRequest(CertificationRequest memory request) public\n    {\n        // check si msg.sender  bien dja une copie du Document\n        delRequest(msg.sender, request.index);\n        docManager.delCopyDoc(msg.sender, TypeDoc.CopyCertified, docManager.getIndexNFT(msg.sender, TypeDoc.CopyCertified, request.tokenID));\n    }\n\n    function getTokenURI(uint256 tokenID) public view returns(string memory)\n    {\n        require(docManager.getOwnerToken(tokenID) == msg.sender, \"SaveMyDoc: Cet NFT ne vous appartient pas !\");\n        return saveDocToken.tokenURI(tokenID);\n    }\n\n    function deleteDoc(uint256 tokenID, bool isCopyDoc) public\n    {\n        docManager.deleteDoc(msg.sender, tokenID, isCopyDoc);\n    }\n}\n",
  "sourcePath": "/home/traore/projects/SAV-Doc/contracts/SaveDoc.sol",
  "compiler": {
    "name": "solc",
    "version": "0.8.6+commit.11564f7e.Emscripten.clang"
  },
  "schemaVersion": "3.4.1",
  "updatedAt": "2021-07-29T13:21:06.613Z",
  "networkType": "ethereum",
  "devdoc": {
    "kind": "dev",
    "methods": {},
    "version": 1
  },
  "userdoc": {
    "kind": "user",
    "methods": {},
    "version": 1
  }
}