{
  "contractName": "SaveMyDoc",
  "abi": [
    {
      "inputs": [
        {
          "internalType": "contract DocManager",
          "name": "_docManager",
          "type": "address"
        },
        {
          "internalType": "contract SaveDocToken",
          "name": "_saveDocToken",
          "type": "address"
        }
      ],
      "stateMutability": "nonpayable",
      "type": "constructor"
    },
    {
      "inputs": [
        {
          "internalType": "address",
          "name": "to",
          "type": "address"
        },
        {
          "internalType": "uint256",
          "name": "tokenID",
          "type": "uint256"
        },
        {
          "internalType": "string",
          "name": "tokenURITmp",
          "type": "string"
        }
      ],
      "name": "transferNFT",
      "outputs": [],
      "stateMutability": "nonpayable",
      "type": "function"
    },
    {
      "inputs": [
        {
          "internalType": "uint256",
          "name": "tokenID",
          "type": "uint256"
        },
        {
          "internalType": "string",
          "name": "newTokenURI",
          "type": "string"
        },
        {
          "internalType": "string",
          "name": "passwordEncrypted",
          "type": "string"
        }
      ],
      "name": "acceptNewNFT",
      "outputs": [],
      "stateMutability": "nonpayable",
      "type": "function"
    },
    {
      "inputs": [
        {
          "internalType": "uint256",
          "name": "tokenID",
          "type": "uint256"
        },
        {
          "internalType": "address",
          "name": "to",
          "type": "address"
        },
        {
          "internalType": "string",
          "name": "tokenURI",
          "type": "string"
        }
      ],
      "name": "shareNFT",
      "outputs": [],
      "stateMutability": "nonpayable",
      "type": "function"
    },
    {
      "inputs": [
        {
          "internalType": "uint256",
          "name": "tokenID",
          "type": "uint256"
        },
        {
          "internalType": "string",
          "name": "tokenURI",
          "type": "string"
        },
        {
          "internalType": "address",
          "name": "certifying",
          "type": "address"
        }
      ],
      "name": "requestCertification",
      "outputs": [],
      "stateMutability": "nonpayable",
      "type": "function"
    },
    {
      "inputs": [],
      "name": "getRequests",
      "outputs": [
        {
          "components": [
            {
              "internalType": "address",
              "name": "applicant",
              "type": "address"
            },
            {
              "internalType": "uint256",
              "name": "tokenID",
              "type": "uint256"
            },
            {
              "internalType": "uint256",
              "name": "index",
              "type": "uint256"
            }
          ],
          "internalType": "struct SaveMyDoc.CertificationRequest[]",
          "name": "",
          "type": "tuple[]"
        }
      ],
      "stateMutability": "view",
      "type": "function",
      "constant": true
    },
    {
      "inputs": [
        {
          "components": [
            {
              "internalType": "address",
              "name": "applicant",
              "type": "address"
            },
            {
              "internalType": "uint256",
              "name": "tokenID",
              "type": "uint256"
            },
            {
              "internalType": "uint256",
              "name": "index",
              "type": "uint256"
            }
          ],
          "internalType": "struct SaveMyDoc.CertificationRequest",
          "name": "request",
          "type": "tuple"
        },
        {
          "internalType": "string",
          "name": "hashNFT",
          "type": "string"
        }
      ],
      "name": "acceptCertificationRequest",
      "outputs": [],
      "stateMutability": "nonpayable",
      "type": "function"
    },
    {
      "inputs": [
        {
          "components": [
            {
              "internalType": "address",
              "name": "applicant",
              "type": "address"
            },
            {
              "internalType": "uint256",
              "name": "tokenID",
              "type": "uint256"
            },
            {
              "internalType": "uint256",
              "name": "index",
              "type": "uint256"
            }
          ],
          "internalType": "struct SaveMyDoc.CertificationRequest",
          "name": "request",
          "type": "tuple"
        }
      ],
      "name": "rejectCertificationRequest",
      "outputs": [],
      "stateMutability": "nonpayable",
      "type": "function"
    },
    {
      "inputs": [
        {
          "internalType": "uint256",
          "name": "tokenID",
          "type": "uint256"
        }
      ],
      "name": "getTokenURI",
      "outputs": [
        {
          "internalType": "string",
          "name": "",
          "type": "string"
        }
      ],
      "stateMutability": "view",
      "type": "function",
      "constant": true
    },
    {
      "inputs": [
        {
          "internalType": "uint256",
          "name": "tokenID",
          "type": "uint256"
        },
        {
          "internalType": "bool",
          "name": "isCopyDoc",
          "type": "bool"
        }
      ],
      "name": "deleteDoc",
      "outputs": [],
      "stateMutability": "nonpayable",
      "type": "function"
    }
  ],
  "bytecode": "0x60806040523480156200001157600080fd5b5060405162001ecf38038062001ecf8339818101604052810190620000379190620000ef565b81600260006101000a81548173ffffffffffffffffffffffffffffffffffffffff021916908373ffffffffffffffffffffffffffffffffffffffff16021790555080600160006101000a81548173ffffffffffffffffffffffffffffffffffffffff021916908373ffffffffffffffffffffffffffffffffffffffff1602179055505050620001cb565b600081519050620000d28162000197565b92915050565b600081519050620000e981620001b1565b92915050565b6000806040838503121562000109576200010862000192565b5b60006200011985828601620000c1565b92505060206200012c85828601620000d8565b9150509250929050565b6000620001438262000172565b9050919050565b6000620001578262000136565b9050919050565b60006200016b8262000136565b9050919050565b600073ffffffffffffffffffffffffffffffffffffffff82169050919050565b600080fd5b620001a2816200014a565b8114620001ae57600080fd5b50565b620001bc816200015e565b8114620001c857600080fd5b50565b611cf480620001db6000396000f3fe608060405234801561001057600080fd5b50600436106100935760003560e01c80638a5fd606116100665780638a5fd6061461011e578063dbcf28a71461013a578063e975276e14610156578063f902875414610172578063f907aa191461018e57610093565b80633bb3a24d1461009857806342cd7236146100c857806343e57225146100e45780638813ce1214610100575b600080fd5b6100b260048036038101906100ad919061137d565b6101aa565b6040516100bf91906118a7565b60405180910390f35b6100e260048036038101906100dd91906112f4565b61037b565b005b6100fe60048036038101906100f99190611321565b6104d0565b005b6101086106c1565b6040516101159190611885565b60405180910390f35b61013860048036038101906101339190611486565b6107c6565b005b610154600480360381019061014f91906113d7565b6109a3565b005b610170600480360381019061016b919061120f565b610a3e565b005b61018c60048036038101906101879190611446565b610b75565b005b6101a860048036038101906101a391906114f5565b610c2b565b005b60603373ffffffffffffffffffffffffffffffffffffffff16600260009054906101000a900473ffffffffffffffffffffffffffffffffffffffff1673ffffffffffffffffffffffffffffffffffffffff1663a543a717846040518263ffffffff1660e01b815260040161021e91906118e9565b60206040518083038186803b15801561023657600080fd5b505afa15801561024a573d6000803e3d6000fd5b505050506040513d601f19601f8201168201806040525081019061026e91906111e2565b73ffffffffffffffffffffffffffffffffffffffff16146102c4576040517f08c379a00000000000000000000000000000000000000000000000000000000081526004016102bb906118c9565b60405180910390fd5b600160009054906101000a900473ffffffffffffffffffffffffffffffffffffffff1673ffffffffffffffffffffffffffffffffffffffff1663c87b56dd836040518263ffffffff1660e01b815260040161031f91906118e9565b60006040518083038186803b15801561033757600080fd5b505afa15801561034b573d6000803e3d6000fd5b505050506040513d6000823e3d601f19601f8201168201806040525081019061037491906112ab565b9050919050565b610389338260400151610d55565b600260009054906101000a900473ffffffffffffffffffffffffffffffffffffffff1673ffffffffffffffffffffffffffffffffffffffff16634531817d3360028060009054906101000a900473ffffffffffffffffffffffffffffffffffffffff1673ffffffffffffffffffffffffffffffffffffffff16637cc24f2d33600288602001516040518463ffffffff1660e01b815260040161042d93929190611817565b60206040518083038186803b15801561044557600080fd5b505afa158015610459573d6000803e3d6000fd5b505050506040513d601f19601f8201168201806040525081019061047d91906113aa565b6040518463ffffffff1660e01b815260040161049b93929190611817565b600060405180830381600087803b1580156104b557600080fd5b505af11580156104c9573d6000803e3d6000fd5b5050505050565b600260009054906101000a900473ffffffffffffffffffffffffffffffffffffffff1673ffffffffffffffffffffffffffffffffffffffff1663b5b4cb353384600001518560200151856040518563ffffffff1660e01b81526004016105399493929190611725565b600060405180830381600087803b15801561055357600080fd5b505af1158015610567573d6000803e3d6000fd5b50505050610579338360400151610d55565b600260009054906101000a900473ffffffffffffffffffffffffffffffffffffffff1673ffffffffffffffffffffffffffffffffffffffff16634531817d3360028060009054906101000a900473ffffffffffffffffffffffffffffffffffffffff1673ffffffffffffffffffffffffffffffffffffffff16637cc24f2d33600289602001516040518463ffffffff1660e01b815260040161061d93929190611817565b60206040518083038186803b15801561063557600080fd5b505afa158015610649573d6000803e3d6000fd5b505050506040513d601f19601f8201168201806040525081019061066d91906113aa565b6040518463ffffffff1660e01b815260040161068b93929190611817565b600060405180830381600087803b1580156106a557600080fd5b505af11580156106b9573d6000803e3d6000fd5b505050505050565b60606000803373ffffffffffffffffffffffffffffffffffffffff1673ffffffffffffffffffffffffffffffffffffffff168152602001908152602001600020805480602002602001604051908101604052809291908181526020016000905b828210156107bd57838290600052602060002090600302016040518060600160405290816000820160009054906101000a900473ffffffffffffffffffffffffffffffffffffffff1673ffffffffffffffffffffffffffffffffffffffff1673ffffffffffffffffffffffffffffffffffffffff1681526020016001820154815260200160028201548152505081526020019060010190610721565b50505050905090565b6107ce610fe9565b600260009054906101000a900473ffffffffffffffffffffffffffffffffffffffff1673ffffffffffffffffffffffffffffffffffffffff166371499a7b3384878760026040518663ffffffff1660e01b8152600401610832959493929190611771565b600060405180830381600087803b15801561084c57600080fd5b505af1158015610860573d6000803e3d6000fd5b5050505060405180606001604052803373ffffffffffffffffffffffffffffffffffffffff1681526020018581526020016000808573ffffffffffffffffffffffffffffffffffffffff1673ffffffffffffffffffffffffffffffffffffffff1681526020019081526020016000208054905081525090506000808373ffffffffffffffffffffffffffffffffffffffff1673ffffffffffffffffffffffffffffffffffffffff16815260200190815260200160002081908060018154018082558091505060019003906000526020600020906003020160009091909190915060008201518160000160006101000a81548173ffffffffffffffffffffffffffffffffffffffff021916908373ffffffffffffffffffffffffffffffffffffffff1602179055506020820151816001015560408201518160020155505050505050565b600260009054906101000a900473ffffffffffffffffffffffffffffffffffffffff1673ffffffffffffffffffffffffffffffffffffffff166371499a7b3384868560016040518663ffffffff1660e01b8152600401610a07959493929190611771565b600060405180830381600087803b158015610a2157600080fd5b505af1158015610a35573d6000803e3d6000fd5b50505050505050565b600260009054906101000a900473ffffffffffffffffffffffffffffffffffffffff1673ffffffffffffffffffffffffffffffffffffffff166371499a7b3385858560036040518663ffffffff1660e01b8152600401610aa2959493929190611771565b600060405180830381600087803b158015610abc57600080fd5b505af1158015610ad0573d6000803e3d6000fd5b50505050600160009054906101000a900473ffffffffffffffffffffffffffffffffffffffff1673ffffffffffffffffffffffffffffffffffffffff166323b872dd3385856040518463ffffffff1660e01b8152600401610b33939291906116ee565b600060405180830381600087803b158015610b4d57600080fd5b505af1158015610b61573d6000803e3d6000fd5b50505050610b70826001610b75565b505050565b600260009054906101000a900473ffffffffffffffffffffffffffffffffffffffff1673ffffffffffffffffffffffffffffffffffffffff166314676a1b3384846040518463ffffffff1660e01b8152600401610bd49392919061184e565b602060405180830381600087803b158015610bee57600080fd5b505af1158015610c02573d6000803e3d6000fd5b505050506040513d601f19601f82011682018060405250810190610c26919061127e565b505050565b600260009054906101000a900473ffffffffffffffffffffffffffffffffffffffff1673ffffffffffffffffffffffffffffffffffffffff16635359954b33600384876040518563ffffffff1660e01b8152600401610c8d94939291906117cb565b600060405180830381600087803b158015610ca757600080fd5b505af1158015610cbb573d6000803e3d6000fd5b50505050600160009054906101000a900473ffffffffffffffffffffffffffffffffffffffff1673ffffffffffffffffffffffffffffffffffffffff16632682b0e48484336040518463ffffffff1660e01b8152600401610d1e93929190611904565b600060405180830381600087803b158015610d3857600080fd5b505af1158015610d4c573d6000803e3d6000fd5b50505050505050565b610d5d610fe9565b6000808473ffffffffffffffffffffffffffffffffffffffff1673ffffffffffffffffffffffffffffffffffffffff16815260200190815260200160002060016000808673ffffffffffffffffffffffffffffffffffffffff1673ffffffffffffffffffffffffffffffffffffffff16815260200190815260200160002080549050610de991906119ed565b81548110610dfa57610df9611b8e565b5b90600052602060002090600302016040518060600160405290816000820160009054906101000a900473ffffffffffffffffffffffffffffffffffffffff1673ffffffffffffffffffffffffffffffffffffffff1673ffffffffffffffffffffffffffffffffffffffff16815260200160018201548152602001600282015481525050905081816040018181525050806000808573ffffffffffffffffffffffffffffffffffffffff1673ffffffffffffffffffffffffffffffffffffffff1681526020019081526020016000208381548110610eda57610ed9611b8e565b5b906000526020600020906003020160008201518160000160006101000a81548173ffffffffffffffffffffffffffffffffffffffff021916908373ffffffffffffffffffffffffffffffffffffffff16021790555060208201518160010155604082015181600201559050506000808473ffffffffffffffffffffffffffffffffffffffff1673ffffffffffffffffffffffffffffffffffffffff168152602001908152602001600020805480610f9457610f93611b5f565b5b6001900381819060005260206000209060030201600080820160006101000a81549073ffffffffffffffffffffffffffffffffffffffff02191690556001820160009055600282016000905550509055505050565b6040518060600160405280600073ffffffffffffffffffffffffffffffffffffffff16815260200160008152602001600081525090565b600061103361102e84611967565b611942565b90508281526020810184848401111561104f5761104e611bf6565b5b61105a848285611a8e565b509392505050565b600061107561107084611967565b611942565b90508281526020810184848401111561109157611090611bf6565b5b61109c848285611a9d565b509392505050565b6000813590506110b381611c79565b92915050565b6000815190506110c881611c79565b92915050565b6000813590506110dd81611c90565b92915050565b6000815190506110f281611c90565b92915050565b600082601f83011261110d5761110c611bec565b5b813561111d848260208601611020565b91505092915050565b600082601f83011261113b5761113a611bec565b5b815161114b848260208601611062565b91505092915050565b60006060828403121561116a57611169611bf1565b5b6111746060611942565b90506000611184848285016110a4565b6000830152506020611198848285016111b8565b60208301525060406111ac848285016111b8565b60408301525092915050565b6000813590506111c781611ca7565b92915050565b6000815190506111dc81611ca7565b92915050565b6000602082840312156111f8576111f7611c00565b5b6000611206848285016110b9565b91505092915050565b60008060006060848603121561122857611227611c00565b5b6000611236868287016110a4565b9350506020611247868287016111b8565b925050604084013567ffffffffffffffff81111561126857611267611bfb565b5b611274868287016110f8565b9150509250925092565b60006020828403121561129457611293611c00565b5b60006112a2848285016110e3565b91505092915050565b6000602082840312156112c1576112c0611c00565b5b600082015167ffffffffffffffff8111156112df576112de611bfb565b5b6112eb84828501611126565b91505092915050565b60006060828403121561130a57611309611c00565b5b600061131884828501611154565b91505092915050565b6000806080838503121561133857611337611c00565b5b600061134685828601611154565b925050606083013567ffffffffffffffff81111561136757611366611bfb565b5b611373858286016110f8565b9150509250929050565b60006020828403121561139357611392611c00565b5b60006113a1848285016111b8565b91505092915050565b6000602082840312156113c0576113bf611c00565b5b60006113ce848285016111cd565b91505092915050565b6000806000606084860312156113f0576113ef611c00565b5b60006113fe868287016111b8565b935050602061140f868287016110a4565b925050604084013567ffffffffffffffff8111156114305761142f611bfb565b5b61143c868287016110f8565b9150509250925092565b6000806040838503121561145d5761145c611c00565b5b600061146b858286016111b8565b925050602061147c858286016110ce565b9150509250929050565b60008060006060848603121561149f5761149e611c00565b5b60006114ad868287016111b8565b935050602084013567ffffffffffffffff8111156114ce576114cd611bfb565b5b6114da868287016110f8565b92505060406114eb868287016110a4565b9150509250925092565b60008060006060848603121561150e5761150d611c00565b5b600061151c868287016111b8565b935050602084013567ffffffffffffffff81111561153d5761153c611bfb565b5b611549868287016110f8565b925050604084013567ffffffffffffffff81111561156a57611569611bfb565b5b611576868287016110f8565b9150509250925092565b600061158c838361168e565b60608301905092915050565b6115a181611a21565b82525050565b6115b081611a21565b82525050565b60006115c1826119a8565b6115cb81856119cb565b93506115d683611998565b8060005b838110156116075781516115ee8882611580565b97506115f9836119be565b9250506001810190506115da565b5085935050505092915050565b61161d81611a33565b82525050565b61162c81611a7c565b82525050565b600061163d826119b3565b61164781856119dc565b9350611657818560208601611a9d565b61166081611c05565b840191505092915050565b6000611678602b836119dc565b915061168382611c16565b604082019050919050565b6060820160008201516116a46000850182611598565b5060208201516116b760208501826116d0565b5060408201516116ca60408501826116d0565b50505050565b6116d981611a72565b82525050565b6116e881611a72565b82525050565b600060608201905061170360008301866115a7565b61171060208301856115a7565b61171d60408301846116df565b949350505050565b600060808201905061173a60008301876115a7565b61174760208301866115a7565b61175460408301856116df565b81810360608301526117668184611632565b905095945050505050565b600060a08201905061178660008301886115a7565b61179360208301876115a7565b6117a060408301866116df565b81810360608301526117b28185611632565b90506117c16080830184611623565b9695505050505050565b60006080820190506117e060008301876115a7565b6117ed6020830186611623565b81810360408301526117ff8185611632565b905061180e60608301846116df565b95945050505050565b600060608201905061182c60008301866115a7565b6118396020830185611623565b61184660408301846116df565b949350505050565b600060608201905061186360008301866115a7565b61187060208301856116df565b61187d6040830184611614565b949350505050565b6000602082019050818103600083015261189f81846115b6565b905092915050565b600060208201905081810360008301526118c18184611632565b905092915050565b600060208201905081810360008301526118e28161166b565b9050919050565b60006020820190506118fe60008301846116df565b92915050565b600060608201905061191960008301866116df565b818103602083015261192b8185611632565b905061193a60408301846115a7565b949350505050565b600061194c61195d565b90506119588282611ad0565b919050565b6000604051905090565b600067ffffffffffffffff82111561198257611981611bbd565b5b61198b82611c05565b9050602081019050919050565b6000819050602082019050919050565b600081519050919050565b600081519050919050565b6000602082019050919050565b600082825260208201905092915050565b600082825260208201905092915050565b60006119f882611a72565b9150611a0383611a72565b925082821015611a1657611a15611b01565b5b828203905092915050565b6000611a2c82611a52565b9050919050565b60008115159050919050565b6000819050611a4d82611c65565b919050565b600073ffffffffffffffffffffffffffffffffffffffff82169050919050565b6000819050919050565b6000611a8782611a3f565b9050919050565b82818337600083830152505050565b60005b83811015611abb578082015181840152602081019050611aa0565b83811115611aca576000848401525b50505050565b611ad982611c05565b810181811067ffffffffffffffff82111715611af857611af7611bbd565b5b80604052505050565b7f4e487b7100000000000000000000000000000000000000000000000000000000600052601160045260246000fd5b7f4e487b7100000000000000000000000000000000000000000000000000000000600052602160045260246000fd5b7f4e487b7100000000000000000000000000000000000000000000000000000000600052603160045260246000fd5b7f4e487b7100000000000000000000000000000000000000000000000000000000600052603260045260246000fd5b7f4e487b7100000000000000000000000000000000000000000000000000000000600052604160045260246000fd5b600080fd5b600080fd5b600080fd5b600080fd5b600080fd5b6000601f19601f8301169050919050565b7f536176654d79446f633a20436574204e4654206e6520766f757320617070617260008201527f7469656e74207061732021000000000000000000000000000000000000000000602082015250565b60048110611c7657611c75611b30565b5b50565b611c8281611a21565b8114611c8d57600080fd5b50565b611c9981611a33565b8114611ca457600080fd5b50565b611cb081611a72565b8114611cbb57600080fd5b5056fea2646970667358221220b4221764607423bd9b65a2c4734c0d1c10eaca9a1b0489c5e7197fec9a398d4164736f6c63430008060033",
  "immutableReferences": {},
  "source": "//SPDX-License-Identifier: MIT\n\npragma solidity 0.8.6;\n\nimport \"./DocManager.sol\";\nimport \"./SaveDocToken.sol\";\nimport \"./NFT.sol\";\n\n\ncontract SaveMyDoc is NFT\n{\n    mapping(address => CertificationRequest[]) private requests;\n    SaveDocToken private saveDocToken;\n    DocManager private docManager;\n\n\n    constructor(DocManager _docManager, SaveDocToken _saveDocToken)\n    {\n        docManager = _docManager;\n        saveDocToken = _saveDocToken;\n    }\n\n    struct CertificationRequest\n    {\n        address applicant;\n        uint256 tokenID;\n        uint256 index;\n    }\n\n    function transferNFT(address to, uint256 tokenID, string memory tokenURITmp) public\n    {\n        docManager.createCopyDoc(msg.sender, to, tokenID, tokenURITmp, TypeDoc.CopyPendingTransfer);\n        saveDocToken.transferFrom(msg.sender, to, tokenID);\n        deleteDoc(tokenID, true);\n    }\n\n    function acceptNewNFT(uint256 tokenID, string memory newTokenURI, string memory passwordEncrypted) public\n    {\n        // check si msg.sender a bien dja une copie du Document\n        docManager.copyDocToOriginal(msg.sender, TypeDoc.CopyPendingTransfer, passwordEncrypted, tokenID);\n        saveDocToken.setTokenURI(tokenID, newTokenURI, msg.sender);\n    }\n\n    function shareNFT(uint256 tokenID, address to, string memory tokenURI) public\n    {\n        docManager.createCopyDoc(msg.sender, to, tokenID, tokenURI, TypeDoc.CopyShared);\n    }\n\n    function requestCertification(uint256 tokenID, string memory tokenURI, address certifying) public\n    {\n        CertificationRequest memory request;\n\n        docManager.createCopyDoc(msg.sender, certifying, tokenID, tokenURI, TypeDoc.CopyCertified);\n        request = CertificationRequest(msg.sender, tokenID, requests[certifying].length);\n        requests[certifying].push(request);\n    }\n\n    function getRequests() public view returns(CertificationRequest[] memory)\n    {\n        return requests[msg.sender];\n    }\n\n    function delRequest(address owner, uint256 index) private\n    {\n        CertificationRequest memory substitute;\n\n        substitute = requests[owner][requests[owner].length - 1];\n        substitute.index = index;\n        requests[owner][index] = substitute;\n        requests[owner].pop();\n    }\n\n    function acceptCertificationRequest(CertificationRequest memory request, string memory hashNFT) public\n    {\n        // check si msg.sender a bien dja une copie du Document\n        docManager.certify(msg.sender, request.applicant, request.tokenID, hashNFT);\n        delRequest(msg.sender, request.index);\n        docManager.delCopyDoc(msg.sender, TypeDoc.CopyCertified, docManager.getIndexNFT(msg.sender, TypeDoc.CopyCertified, request.tokenID));\n    }\n\n    function rejectCertificationRequest(CertificationRequest memory request) public\n    {\n        // check si msg.sender  bien dja une copie du Document\n        delRequest(msg.sender, request.index);\n        docManager.delCopyDoc(msg.sender, TypeDoc.CopyCertified, docManager.getIndexNFT(msg.sender, TypeDoc.CopyCertified, request.tokenID));\n    }\n\n    function getTokenURI(uint256 tokenID) public view returns(string memory)\n    {\n        require(docManager.getOwnerToken(tokenID) == msg.sender, \"SaveMyDoc: Cet NFT ne vous appartient pas !\");\n        return saveDocToken.tokenURI(tokenID);\n    }\n\n    function deleteDoc(uint256 tokenID, bool isCopyDoc) public\n    {\n        docManager.deleteDoc(msg.sender, tokenID, isCopyDoc);\n    }\n}\n",
  "sourcePath": "/home/traore/projects/SAV-Doc/contracts/SaveDoc.sol",
  "compiler": {
    "name": "solc",
    "version": "0.8.6+commit.11564f7e.Emscripten.clang"
  },
  "schemaVersion": "3.4.1",
  "updatedAt": "2021-07-29T07:46:22.901Z",
  "networkType": "ethereum",
  "devdoc": {
    "kind": "dev",
    "methods": {},
    "version": 1
  },
  "userdoc": {
    "kind": "user",
    "methods": {},
    "version": 1
  }
}