{
  "contractName": "SaveDoc",
  "abi": [
    {
      "inputs": [
        {
          "internalType": "contract DocManager",
          "name": "_docManager",
          "type": "address"
        },
        {
          "internalType": "contract SaveDocToken",
          "name": "_saveDocToken",
          "type": "address"
        },
        {
          "internalType": "contract AccountManager",
          "name": "_accountManager",
          "type": "address"
        }
      ],
      "stateMutability": "nonpayable",
      "type": "constructor"
    },
    {
      "anonymous": false,
      "inputs": [
        {
          "indexed": false,
          "internalType": "address",
          "name": "certifying",
          "type": "address"
        },
        {
          "indexed": false,
          "internalType": "address",
          "name": "applicant",
          "type": "address"
        },
        {
          "indexed": false,
          "internalType": "uint256",
          "name": "tokenID",
          "type": "uint256"
        },
        {
          "indexed": false,
          "internalType": "bool",
          "name": "keepCopy",
          "type": "bool"
        }
      ],
      "name": "AcceptCertificationRequest",
      "type": "event"
    },
    {
      "anonymous": false,
      "inputs": [
        {
          "indexed": false,
          "internalType": "address",
          "name": "newOwner",
          "type": "address"
        },
        {
          "indexed": false,
          "internalType": "uint256",
          "name": "tokenID",
          "type": "uint256"
        }
      ],
      "name": "AcceptTransferDoc",
      "type": "event"
    },
    {
      "anonymous": false,
      "inputs": [
        {
          "indexed": false,
          "internalType": "address",
          "name": "user",
          "type": "address"
        },
        {
          "indexed": false,
          "internalType": "string",
          "name": "newUsername",
          "type": "string"
        }
      ],
      "name": "ChangeUsername",
      "type": "event"
    },
    {
      "anonymous": false,
      "inputs": [
        {
          "indexed": false,
          "internalType": "address",
          "name": "ownerDoc",
          "type": "address"
        },
        {
          "indexed": false,
          "internalType": "uint256",
          "name": "tokenID",
          "type": "uint256"
        },
        {
          "indexed": false,
          "internalType": "bool",
          "name": "forTransfer",
          "type": "bool"
        }
      ],
      "name": "DeleteDocumment",
      "type": "event"
    },
    {
      "anonymous": false,
      "inputs": [
        {
          "indexed": false,
          "internalType": "address",
          "name": "ownerDoc",
          "type": "address"
        },
        {
          "indexed": false,
          "internalType": "uint256",
          "name": "tokenID",
          "type": "uint256"
        }
      ],
      "name": "DeleteMyDocCopy",
      "type": "event"
    },
    {
      "anonymous": false,
      "inputs": [
        {
          "indexed": true,
          "internalType": "address",
          "name": "previousOwner",
          "type": "address"
        },
        {
          "indexed": true,
          "internalType": "address",
          "name": "newOwner",
          "type": "address"
        }
      ],
      "name": "OwnershipTransferred",
      "type": "event"
    },
    {
      "anonymous": false,
      "inputs": [
        {
          "indexed": false,
          "internalType": "address",
          "name": "certifying",
          "type": "address"
        },
        {
          "indexed": false,
          "internalType": "address",
          "name": "applicant",
          "type": "address"
        },
        {
          "indexed": false,
          "internalType": "uint256",
          "name": "tokenID",
          "type": "uint256"
        }
      ],
      "name": "RejectCertificationRequest",
      "type": "event"
    },
    {
      "anonymous": false,
      "inputs": [
        {
          "indexed": false,
          "internalType": "address",
          "name": "applicant",
          "type": "address"
        },
        {
          "indexed": false,
          "internalType": "uint256",
          "name": "tokenID",
          "type": "uint256"
        }
      ],
      "name": "RequestCertification",
      "type": "event"
    },
    {
      "anonymous": false,
      "inputs": [
        {
          "indexed": false,
          "internalType": "address",
          "name": "user",
          "type": "address"
        },
        {
          "indexed": false,
          "internalType": "uint256",
          "name": "tokenID",
          "type": "uint256"
        }
      ],
      "name": "SecureDocument",
      "type": "event"
    },
    {
      "anonymous": false,
      "inputs": [
        {
          "indexed": false,
          "internalType": "address",
          "name": "from",
          "type": "address"
        },
        {
          "indexed": false,
          "internalType": "address",
          "name": "to",
          "type": "address"
        },
        {
          "indexed": false,
          "internalType": "uint256",
          "name": "tokenID",
          "type": "uint256"
        }
      ],
      "name": "ShareDoc",
      "type": "event"
    },
    {
      "anonymous": false,
      "inputs": [
        {
          "indexed": false,
          "internalType": "address",
          "name": "newUser",
          "type": "address"
        },
        {
          "indexed": false,
          "internalType": "string",
          "name": "name",
          "type": "string"
        },
        {
          "indexed": false,
          "internalType": "string",
          "name": "pubkey",
          "type": "string"
        }
      ],
      "name": "Subscribe",
      "type": "event"
    },
    {
      "anonymous": false,
      "inputs": [
        {
          "indexed": false,
          "internalType": "address",
          "name": "newUser",
          "type": "address"
        },
        {
          "indexed": false,
          "internalType": "string",
          "name": "pubkey",
          "type": "string"
        }
      ],
      "name": "SubscribeAuthority",
      "type": "event"
    },
    {
      "anonymous": false,
      "inputs": [
        {
          "indexed": false,
          "internalType": "address",
          "name": "from",
          "type": "address"
        },
        {
          "indexed": false,
          "internalType": "address",
          "name": "to",
          "type": "address"
        },
        {
          "indexed": false,
          "internalType": "uint256",
          "name": "tokenID",
          "type": "uint256"
        }
      ],
      "name": "TransferDocument",
      "type": "event"
    },
    {
      "anonymous": false,
      "inputs": [
        {
          "indexed": false,
          "internalType": "address",
          "name": "user",
          "type": "address"
        }
      ],
      "name": "Unsubcribe",
      "type": "event"
    },
    {
      "inputs": [],
      "name": "owner",
      "outputs": [
        {
          "internalType": "address",
          "name": "",
          "type": "address"
        }
      ],
      "stateMutability": "view",
      "type": "function"
    },
    {
      "inputs": [],
      "name": "renounceOwnership",
      "outputs": [],
      "stateMutability": "nonpayable",
      "type": "function"
    },
    {
      "inputs": [
        {
          "internalType": "address",
          "name": "newOwner",
          "type": "address"
        }
      ],
      "name": "transferOwnership",
      "outputs": [],
      "stateMutability": "nonpayable",
      "type": "function"
    },
    {
      "inputs": [
        {
          "internalType": "string",
          "name": "name",
          "type": "string"
        },
        {
          "internalType": "string",
          "name": "pubKey",
          "type": "string"
        },
        {
          "internalType": "string",
          "name": "passwordMaster",
          "type": "string"
        }
      ],
      "name": "subscribe",
      "outputs": [],
      "stateMutability": "nonpayable",
      "type": "function"
    },
    {
      "inputs": [
        {
          "internalType": "address",
          "name": "authority",
          "type": "address"
        },
        {
          "internalType": "string",
          "name": "name",
          "type": "string"
        },
        {
          "internalType": "string",
          "name": "pubKey",
          "type": "string"
        },
        {
          "internalType": "string",
          "name": "passwordMaster",
          "type": "string"
        }
      ],
      "name": "subscribeAuthority",
      "outputs": [],
      "stateMutability": "nonpayable",
      "type": "function"
    },
    {
      "inputs": [],
      "name": "viewMyProfil",
      "outputs": [
        {
          "components": [
            {
              "internalType": "string",
              "name": "name",
              "type": "string"
            },
            {
              "internalType": "string",
              "name": "publicKey",
              "type": "string"
            },
            {
              "internalType": "bool",
              "name": "isAuthority",
              "type": "bool"
            },
            {
              "internalType": "bool",
              "name": "exist",
              "type": "bool"
            }
          ],
          "internalType": "struct SaveDocStruct.User",
          "name": "",
          "type": "tuple"
        }
      ],
      "stateMutability": "view",
      "type": "function"
    },
    {
      "inputs": [
        {
          "internalType": "address",
          "name": "_address",
          "type": "address"
        }
      ],
      "name": "viewProfil",
      "outputs": [
        {
          "components": [
            {
              "internalType": "string",
              "name": "name",
              "type": "string"
            },
            {
              "internalType": "string",
              "name": "publicKey",
              "type": "string"
            },
            {
              "internalType": "bool",
              "name": "isAuthority",
              "type": "bool"
            },
            {
              "internalType": "bool",
              "name": "exist",
              "type": "bool"
            }
          ],
          "internalType": "struct SaveDocStruct.User",
          "name": "",
          "type": "tuple"
        }
      ],
      "stateMutability": "view",
      "type": "function"
    },
    {
      "inputs": [],
      "name": "getMyPasswordMaster",
      "outputs": [
        {
          "internalType": "string",
          "name": "",
          "type": "string"
        }
      ],
      "stateMutability": "view",
      "type": "function"
    },
    {
      "inputs": [
        {
          "internalType": "string",
          "name": "name",
          "type": "string"
        }
      ],
      "name": "changeMyName",
      "outputs": [],
      "stateMutability": "nonpayable",
      "type": "function"
    },
    {
      "inputs": [],
      "name": "unsubscribe",
      "outputs": [],
      "stateMutability": "nonpayable",
      "type": "function"
    },
    {
      "inputs": [
        {
          "internalType": "string",
          "name": "tokenName",
          "type": "string"
        },
        {
          "internalType": "string",
          "name": "tokenURI",
          "type": "string"
        },
        {
          "internalType": "string",
          "name": "tokenMime",
          "type": "string"
        },
        {
          "internalType": "uint256",
          "name": "tokenLength",
          "type": "uint256"
        },
        {
          "internalType": "string",
          "name": "filePath",
          "type": "string"
        },
        {
          "internalType": "string",
          "name": "passwordEncrypted",
          "type": "string"
        },
        {
          "internalType": "string",
          "name": "hashNFT",
          "type": "string"
        }
      ],
      "name": "secureDocument",
      "outputs": [
        {
          "components": [
            {
              "internalType": "uint256",
              "name": "tokenID",
              "type": "uint256"
            },
            {
              "internalType": "uint256",
              "name": "fileSize",
              "type": "uint256"
            },
            {
              "internalType": "string",
              "name": "filename",
              "type": "string"
            },
            {
              "internalType": "string",
              "name": "fileMimeType",
              "type": "string"
            },
            {
              "internalType": "uint256",
              "name": "dateAdd",
              "type": "uint256"
            },
            {
              "internalType": "string",
              "name": "filePath",
              "type": "string"
            },
            {
              "internalType": "address[]",
              "name": "certifying",
              "type": "address[]"
            },
            {
              "internalType": "string",
              "name": "tokenURI",
              "type": "string"
            },
            {
              "internalType": "string",
              "name": "passwordEncrypted",
              "type": "string"
            },
            {
              "internalType": "enum SaveDocStruct.TypeDoc",
              "name": "typeNft",
              "type": "uint8"
            }
          ],
          "internalType": "struct SaveDocStruct.Document",
          "name": "",
          "type": "tuple"
        }
      ],
      "stateMutability": "nonpayable",
      "type": "function"
    },
    {
      "inputs": [
        {
          "internalType": "uint256",
          "name": "tokenID",
          "type": "uint256"
        },
        {
          "internalType": "bool",
          "name": "forTransfer",
          "type": "bool"
        }
      ],
      "name": "delMyDocument",
      "outputs": [],
      "stateMutability": "nonpayable",
      "type": "function"
    },
    {
      "inputs": [
        {
          "internalType": "uint256",
          "name": "tokenID",
          "type": "uint256"
        }
      ],
      "name": "getTokenURI",
      "outputs": [
        {
          "internalType": "string",
          "name": "",
          "type": "string"
        }
      ],
      "stateMutability": "view",
      "type": "function"
    },
    {
      "inputs": [
        {
          "internalType": "address",
          "name": "to",
          "type": "address"
        },
        {
          "internalType": "uint256",
          "name": "tokenID",
          "type": "uint256"
        },
        {
          "internalType": "string",
          "name": "tokenURITmp",
          "type": "string"
        }
      ],
      "name": "transferDoc",
      "outputs": [],
      "stateMutability": "nonpayable",
      "type": "function"
    },
    {
      "inputs": [
        {
          "internalType": "uint256",
          "name": "tokenID",
          "type": "uint256"
        },
        {
          "internalType": "address",
          "name": "to",
          "type": "address"
        },
        {
          "internalType": "string",
          "name": "tokenURI",
          "type": "string"
        }
      ],
      "name": "shareDoc",
      "outputs": [],
      "stateMutability": "nonpayable",
      "type": "function"
    },
    {
      "inputs": [
        {
          "internalType": "uint256",
          "name": "tokenID",
          "type": "uint256"
        },
        {
          "internalType": "string",
          "name": "newTokenURI",
          "type": "string"
        },
        {
          "internalType": "string",
          "name": "passwordEncrypted",
          "type": "string"
        }
      ],
      "name": "acceptNewDoc",
      "outputs": [],
      "stateMutability": "nonpayable",
      "type": "function"
    },
    {
      "inputs": [
        {
          "internalType": "uint256",
          "name": "tokenID",
          "type": "uint256"
        }
      ],
      "name": "delCopyDocShared",
      "outputs": [],
      "stateMutability": "nonpayable",
      "type": "function"
    },
    {
      "inputs": [
        {
          "internalType": "uint256",
          "name": "_tokenID",
          "type": "uint256"
        },
        {
          "internalType": "string",
          "name": "_tokenURI",
          "type": "string"
        },
        {
          "internalType": "address",
          "name": "_certifying",
          "type": "address"
        }
      ],
      "name": "requestCertification",
      "outputs": [],
      "stateMutability": "nonpayable",
      "type": "function"
    },
    {
      "inputs": [],
      "name": "viewMyDocs",
      "outputs": [
        {
          "components": [
            {
              "internalType": "uint256",
              "name": "tokenID",
              "type": "uint256"
            },
            {
              "internalType": "uint256",
              "name": "fileSize",
              "type": "uint256"
            },
            {
              "internalType": "string",
              "name": "filename",
              "type": "string"
            },
            {
              "internalType": "string",
              "name": "fileMimeType",
              "type": "string"
            },
            {
              "internalType": "uint256",
              "name": "dateAdd",
              "type": "uint256"
            },
            {
              "internalType": "string",
              "name": "filePath",
              "type": "string"
            },
            {
              "internalType": "address[]",
              "name": "certifying",
              "type": "address[]"
            },
            {
              "internalType": "string",
              "name": "tokenURI",
              "type": "string"
            },
            {
              "internalType": "string",
              "name": "passwordEncrypted",
              "type": "string"
            },
            {
              "internalType": "enum SaveDocStruct.TypeDoc",
              "name": "typeNft",
              "type": "uint8"
            }
          ],
          "internalType": "struct SaveDocStruct.Document[]",
          "name": "",
          "type": "tuple[]"
        }
      ],
      "stateMutability": "view",
      "type": "function"
    },
    {
      "inputs": [],
      "name": "viewMyCopyDocs",
      "outputs": [
        {
          "components": [
            {
              "internalType": "uint256",
              "name": "tokenID",
              "type": "uint256"
            },
            {
              "internalType": "uint256",
              "name": "fileSize",
              "type": "uint256"
            },
            {
              "internalType": "string",
              "name": "filename",
              "type": "string"
            },
            {
              "internalType": "string",
              "name": "fileMimeType",
              "type": "string"
            },
            {
              "internalType": "uint256",
              "name": "dateAdd",
              "type": "uint256"
            },
            {
              "internalType": "string",
              "name": "filePath",
              "type": "string"
            },
            {
              "internalType": "address[]",
              "name": "certifying",
              "type": "address[]"
            },
            {
              "internalType": "string",
              "name": "tokenURI",
              "type": "string"
            },
            {
              "internalType": "string",
              "name": "passwordEncrypted",
              "type": "string"
            },
            {
              "internalType": "enum SaveDocStruct.TypeDoc",
              "name": "typeNft",
              "type": "uint8"
            }
          ],
          "internalType": "struct SaveDocStruct.Document[]",
          "name": "",
          "type": "tuple[]"
        }
      ],
      "stateMutability": "view",
      "type": "function"
    },
    {
      "inputs": [],
      "name": "viewDocPendingTransfer",
      "outputs": [
        {
          "components": [
            {
              "internalType": "uint256",
              "name": "tokenID",
              "type": "uint256"
            },
            {
              "internalType": "uint256",
              "name": "fileSize",
              "type": "uint256"
            },
            {
              "internalType": "string",
              "name": "filename",
              "type": "string"
            },
            {
              "internalType": "string",
              "name": "fileMimeType",
              "type": "string"
            },
            {
              "internalType": "uint256",
              "name": "dateAdd",
              "type": "uint256"
            },
            {
              "internalType": "string",
              "name": "filePath",
              "type": "string"
            },
            {
              "internalType": "address[]",
              "name": "certifying",
              "type": "address[]"
            },
            {
              "internalType": "string",
              "name": "tokenURI",
              "type": "string"
            },
            {
              "internalType": "string",
              "name": "passwordEncrypted",
              "type": "string"
            },
            {
              "internalType": "enum SaveDocStruct.TypeDoc",
              "name": "typeNft",
              "type": "uint8"
            }
          ],
          "internalType": "struct SaveDocStruct.Document[]",
          "name": "",
          "type": "tuple[]"
        }
      ],
      "stateMutability": "view",
      "type": "function"
    },
    {
      "inputs": [],
      "name": "viewDocCertified",
      "outputs": [
        {
          "components": [
            {
              "internalType": "uint256",
              "name": "tokenID",
              "type": "uint256"
            },
            {
              "internalType": "uint256",
              "name": "fileSize",
              "type": "uint256"
            },
            {
              "internalType": "string",
              "name": "filename",
              "type": "string"
            },
            {
              "internalType": "string",
              "name": "fileMimeType",
              "type": "string"
            },
            {
              "internalType": "uint256",
              "name": "dateAdd",
              "type": "uint256"
            },
            {
              "internalType": "string",
              "name": "filePath",
              "type": "string"
            },
            {
              "internalType": "address[]",
              "name": "certifying",
              "type": "address[]"
            },
            {
              "internalType": "string",
              "name": "tokenURI",
              "type": "string"
            },
            {
              "internalType": "string",
              "name": "passwordEncrypted",
              "type": "string"
            },
            {
              "internalType": "enum SaveDocStruct.TypeDoc",
              "name": "typeNft",
              "type": "uint8"
            }
          ],
          "internalType": "struct SaveDocStruct.Document[]",
          "name": "",
          "type": "tuple[]"
        }
      ],
      "stateMutability": "view",
      "type": "function"
    },
    {
      "inputs": [
        {
          "internalType": "uint256",
          "name": "_tokenID",
          "type": "uint256"
        },
        {
          "internalType": "string",
          "name": "_hashNFT",
          "type": "string"
        },
        {
          "internalType": "bool",
          "name": "_keepCopyDoc",
          "type": "bool"
        }
      ],
      "name": "acceptCertificationRequest",
      "outputs": [],
      "stateMutability": "nonpayable",
      "type": "function"
    },
    {
      "inputs": [
        {
          "internalType": "uint256",
          "name": "_tokenID",
          "type": "uint256"
        }
      ],
      "name": "rejectCertificationRequest",
      "outputs": [],
      "stateMutability": "nonpayable",
      "type": "function"
    },
    {
      "inputs": [
        {
          "internalType": "uint256",
          "name": "tokenID",
          "type": "uint256"
        }
      ],
      "name": "tokenExist",
      "outputs": [
        {
          "internalType": "bool",
          "name": "",
          "type": "bool"
        }
      ],
      "stateMutability": "view",
      "type": "function"
    }
  ],
  "bytecode": "0x60806040523480156200001157600080fd5b5060405162005c7538038062005c75833981810160405281019062000037919062000234565b620000576200004b6200012360201b60201c565b6200012b60201b60201c565b82600360006101000a81548173ffffffffffffffffffffffffffffffffffffffff021916908373ffffffffffffffffffffffffffffffffffffffff16021790555081600260006101000a81548173ffffffffffffffffffffffffffffffffffffffff021916908373ffffffffffffffffffffffffffffffffffffffff16021790555080600460006101000a81548173ffffffffffffffffffffffffffffffffffffffff021916908373ffffffffffffffffffffffffffffffffffffffff16021790555050505062000353565b600033905090565b60008060009054906101000a900473ffffffffffffffffffffffffffffffffffffffff169050816000806101000a81548173ffffffffffffffffffffffffffffffffffffffff021916908373ffffffffffffffffffffffffffffffffffffffff1602179055508173ffffffffffffffffffffffffffffffffffffffff168173ffffffffffffffffffffffffffffffffffffffff167f8be0079c531659141344cd1fd0a4f28419497f9722a3daafe3b4186f6b6457e060405160405180910390a35050565b600081519050620002008162000305565b92915050565b60008151905062000217816200031f565b92915050565b6000815190506200022e8162000339565b92915050565b60008060006060848603121562000250576200024f62000300565b5b6000620002608682870162000206565b935050602062000273868287016200021d565b92505060406200028686828701620001ef565b9150509250925092565b60006200029d82620002e0565b9050919050565b6000620002b18262000290565b9050919050565b6000620002c58262000290565b9050919050565b6000620002d98262000290565b9050919050565b600073ffffffffffffffffffffffffffffffffffffffff82169050919050565b600080fd5b6200031081620002a4565b81146200031c57600080fd5b50565b6200032a81620002b8565b81146200033657600080fd5b50565b6200034481620002cc565b81146200035057600080fd5b50565b61591280620003636000396000f3fe608060405234801561001057600080fd5b50600436106101735760003560e01c80638fde68c5116100de578063caed556011610097578063f260d41511610071578063f260d41514610410578063f2fde38b1461042c578063f42a119e14610448578063fcae44841461046457610173565b8063caed556014610392578063cc0c5236146103c2578063cfba8f91146103f257610173565b80638fde68c5146102d257806393eeaef0146102ee578063940c1bc81461030a578063b79962521461033a578063bf56659914610358578063c991607e1461037457610173565b80635c1ef442116101305780635c1ef442146102365780636fbf73fd14610252578063715018a61461027057806375ece0dc1461027a5780638a5fd606146102985780638da5cb5b146102b457610173565b80631060a477146101785780632d5dbeb1146101945780632e81cdda146101b0578063357c2f54146101cc5780633bb3a24d146101ea57806345f0abfe1461021a575b600080fd5b610192600480360381019061018d9190614725565b61046e565b005b6101ae60048036038101906101a99190614794565b610934565b005b6101ca60048036038101906101c591906145ad565b610bb4565b005b6101d4610ece565b6040516101e19190615188565b60405180910390f35b61020460048036038101906101ff91906145ad565b611071565b60405161021191906151c5565b60405180910390f35b610234600480360381019061022f9190614607565b611244565b005b610250600480360381019061024b9190614676565b611520565b005b61025a6117be565b6040516102679190615188565b60405180910390f35b610278611961565b005b6102826119e9565b60405161028f9190615188565b60405180910390f35b6102b260048036038101906102ad91906146b6565b611b8c565b005b6102bc612126565b6040516102c99190614d84565b60405180910390f35b6102ec60048036038101906102e791906140cb565b61214f565b005b610308600480360381019061030391906145ad565b6122c3565b005b610324600480360381019061031f91906143d1565b6124a8565b60405161033191906152c7565b60405180910390f35b610342612762565b60405161034f9190615188565b60405180910390f35b610372600480360381019061036d9190614298565b612905565b005b61037c6129f6565b60405161038991906152e9565b60405180910390f35b6103ac60048036038101906103a79190614071565b612b9f565b6040516103b991906152e9565b60405180910390f35b6103dc60048036038101906103d791906145ad565b612c5e565b6040516103e991906151aa565b60405180910390f35b6103fa612d8e565b60405161040791906151c5565b60405180910390f35b61042a6004803603810190610425919061432a565b612e45565b005b61044660048036038101906104419190614071565b612f3e565b005b610462600480360381019061045d9190614186565b613036565b005b61046c6133af565b005b3383600160008373ffffffffffffffffffffffffffffffffffffffff1673ffffffffffffffffffffffffffffffffffffffff168152602001908152602001600020600082815260200190815260200160002060020160009054906101000a900460ff16610510576040517f08c379a000000000000000000000000000000000000000000000000000000000815260040161050790615287565b60405180910390fd5b33600460009054906101000a900473ffffffffffffffffffffffffffffffffffffffff1673ffffffffffffffffffffffffffffffffffffffff1663a1abffee826040518263ffffffff1660e01b815260040161056c9190614d84565b60206040518083038186803b15801561058457600080fd5b505afa158015610598573d6000803e3d6000fd5b505050506040513d601f19601f820116820180604052508101906105bc919061423e565b6105fb576040517f08c379a00000000000000000000000000000000000000000000000000000000081526004016105f2906151e7565b60405180910390fd5b6000600160003373ffffffffffffffffffffffffffffffffffffffff1673ffffffffffffffffffffffffffffffffffffffff16815260200190815260200160002060008881526020019081526020016000206040518060600160405290816000820160009054906101000a900473ffffffffffffffffffffffffffffffffffffffff1673ffffffffffffffffffffffffffffffffffffffff1673ffffffffffffffffffffffffffffffffffffffff168152602001600182015481526020016002820160009054906101000a900460ff16151515158152505090506000600360009054906101000a900473ffffffffffffffffffffffffffffffffffffffff1673ffffffffffffffffffffffffffffffffffffffff16637cc24f2d33600285602001516040518463ffffffff1660e01b815260040161073b93929190614f81565b60206040518083038186803b15801561075357600080fd5b505afa158015610767573d6000803e3d6000fd5b505050506040513d601f19601f8201168201806040525081019061078b919061426b565b90506107a0826000015183602001518961367b565b6107ae3383602001516137c5565b851561085257600360009054906101000a900473ffffffffffffffffffffffffffffffffffffffff1673ffffffffffffffffffffffffffffffffffffffff16638c6acc51336002600186602001516040518563ffffffff1660e01b815260040161081b9493929190614f29565b600060405180830381600087803b15801561083557600080fd5b505af1158015610849573d6000803e3d6000fd5b505050506108e5565b600360009054906101000a900473ffffffffffffffffffffffffffffffffffffffff1673ffffffffffffffffffffffffffffffffffffffff16634531817d336002846040518463ffffffff1660e01b81526004016108b293929190614f81565b600060405180830381600087803b1580156108cc57600080fd5b505af11580156108e0573d6000803e3d6000fd5b505050505b7ff0f8c7ba94a353f8e6a599551096a917b2c8e83503b929a736d549ca8b3fb1843383600001518460200151896040516109229493929190614dd6565b60405180910390a15050505050505050565b823373ffffffffffffffffffffffffffffffffffffffff16600260009054906101000a900473ffffffffffffffffffffffffffffffffffffffff1673ffffffffffffffffffffffffffffffffffffffff16636352211e836040518263ffffffff1660e01b81526004016109a7919061530b565b60206040518083038186803b1580156109bf57600080fd5b505afa1580156109d3573d6000803e3d6000fd5b505050506040513d601f19601f820116820180604052508101906109f7919061409e565b73ffffffffffffffffffffffffffffffffffffffff1614610a4d576040517f08c379a0000000000000000000000000000000000000000000000000000000008152600401610a44906152a7565b60405180910390fd5b600360009054906101000a900473ffffffffffffffffffffffffffffffffffffffff1673ffffffffffffffffffffffffffffffffffffffff16638c6acc51336003600088876040518663ffffffff1660e01b8152600401610ab2959493929190614ecf565b600060405180830381600087803b158015610acc57600080fd5b505af1158015610ae0573d6000803e3d6000fd5b50505050600260009054906101000a900473ffffffffffffffffffffffffffffffffffffffff1673ffffffffffffffffffffffffffffffffffffffff16632682b0e48585336040518463ffffffff1660e01b8152600401610b439392919061534f565b600060405180830381600087803b158015610b5d57600080fd5b505af1158015610b71573d6000803e3d6000fd5b505050507f41398dd25cfa0774990db425ab8dc3865eb456073501bdeb839bb236a135dba53385604051610ba6929190615087565b60405180910390a150505050565b3381600160008373ffffffffffffffffffffffffffffffffffffffff1673ffffffffffffffffffffffffffffffffffffffff168152602001908152602001600020600082815260200190815260200160002060020160009054906101000a900460ff16610c56576040517f08c379a0000000000000000000000000000000000000000000000000000000008152600401610c4d90615287565b60405180910390fd5b6000600160003373ffffffffffffffffffffffffffffffffffffffff1673ffffffffffffffffffffffffffffffffffffffff16815260200190815260200160002060008581526020019081526020016000206040518060600160405290816000820160009054906101000a900473ffffffffffffffffffffffffffffffffffffffff1673ffffffffffffffffffffffffffffffffffffffff1673ffffffffffffffffffffffffffffffffffffffff168152602001600182015481526020016002820160009054906101000a900460ff16151515158152505090506000600360009054906101000a900473ffffffffffffffffffffffffffffffffffffffff1673ffffffffffffffffffffffffffffffffffffffff16637cc24f2d33600285602001516040518463ffffffff1660e01b8152600401610d9693929190614f81565b60206040518083038186803b158015610dae57600080fd5b505afa158015610dc2573d6000803e3d6000fd5b505050506040513d601f19601f82011682018060405250810190610de6919061426b565b9050610df233866137c5565b600360009054906101000a900473ffffffffffffffffffffffffffffffffffffffff1673ffffffffffffffffffffffffffffffffffffffff16634531817d336002846040518463ffffffff1660e01b8152600401610e5293929190614f81565b600060405180830381600087803b158015610e6c57600080fd5b505af1158015610e80573d6000803e3d6000fd5b505050507fa912d4fcf92fbf5ee375612c5bc2e36a389d851e05a910bf21e0beda6c8d89693383600001518460200151604051610ebf93929190614d9f565b60405180910390a15050505050565b606033600460009054906101000a900473ffffffffffffffffffffffffffffffffffffffff1673ffffffffffffffffffffffffffffffffffffffff1663a1abffee826040518263ffffffff1660e01b8152600401610f2c9190614d84565b60206040518083038186803b158015610f4457600080fd5b505afa158015610f58573d6000803e3d6000fd5b505050506040513d601f19601f82011682018060405250810190610f7c919061423e565b610fbb576040517f08c379a0000000000000000000000000000000000000000000000000000000008152600401610fb2906151e7565b60405180910390fd5b600360009054906101000a900473ffffffffffffffffffffffffffffffffffffffff1673ffffffffffffffffffffffffffffffffffffffff166304e5b45c336040518263ffffffff1660e01b81526004016110169190614d84565b60006040518083038186803b15801561102e57600080fd5b505afa158015611042573d6000803e3d6000fd5b505050506040513d6000823e3d601f19601f8201168201806040525081019061106b91906141f5565b91505090565b6060813373ffffffffffffffffffffffffffffffffffffffff16600260009054906101000a900473ffffffffffffffffffffffffffffffffffffffff1673ffffffffffffffffffffffffffffffffffffffff16636352211e836040518263ffffffff1660e01b81526004016110e6919061530b565b60206040518083038186803b1580156110fe57600080fd5b505afa158015611112573d6000803e3d6000fd5b505050506040513d601f19601f82011682018060405250810190611136919061409e565b73ffffffffffffffffffffffffffffffffffffffff161461118c576040517f08c379a0000000000000000000000000000000000000000000000000000000008152600401611183906152a7565b60405180910390fd5b600260009054906101000a900473ffffffffffffffffffffffffffffffffffffffff1673ffffffffffffffffffffffffffffffffffffffff1663c87b56dd846040518263ffffffff1660e01b81526004016111e7919061530b565b60006040518083038186803b1580156111ff57600080fd5b505afa158015611213573d6000803e3d6000fd5b505050506040513d6000823e3d601f19601f8201168201806040525081019061123c91906142e1565b915050919050565b823373ffffffffffffffffffffffffffffffffffffffff16600260009054906101000a900473ffffffffffffffffffffffffffffffffffffffff1673ffffffffffffffffffffffffffffffffffffffff16636352211e836040518263ffffffff1660e01b81526004016112b7919061530b565b60206040518083038186803b1580156112cf57600080fd5b505afa1580156112e3573d6000803e3d6000fd5b505050506040513d601f19601f82011682018060405250810190611307919061409e565b73ffffffffffffffffffffffffffffffffffffffff161461135d576040517f08c379a0000000000000000000000000000000000000000000000000000000008152600401611354906152a7565b60405180910390fd5b82600460009054906101000a900473ffffffffffffffffffffffffffffffffffffffff1673ffffffffffffffffffffffffffffffffffffffff1663a1abffee826040518263ffffffff1660e01b81526004016113b99190614d84565b60206040518083038186803b1580156113d157600080fd5b505afa1580156113e5573d6000803e3d6000fd5b505050506040513d601f19601f82011682018060405250810190611409919061423e565b611448576040517f08c379a000000000000000000000000000000000000000000000000000000000815260040161143f906151e7565b60405180910390fd5b600360009054906101000a900473ffffffffffffffffffffffffffffffffffffffff1673ffffffffffffffffffffffffffffffffffffffff166371499a7b3386888760016040518663ffffffff1660e01b81526004016114ac959493929190614e1b565b600060405180830381600087803b1580156114c657600080fd5b505af11580156114da573d6000803e3d6000fd5b505050507f30ef45173d7b3f0134eb34eed874d331ff64fe422f3a8881a8353f7fe27a98fd33858760405161151193929190614d9f565b60405180910390a15050505050565b813373ffffffffffffffffffffffffffffffffffffffff16600260009054906101000a900473ffffffffffffffffffffffffffffffffffffffff1673ffffffffffffffffffffffffffffffffffffffff16636352211e836040518263ffffffff1660e01b8152600401611593919061530b565b60206040518083038186803b1580156115ab57600080fd5b505afa1580156115bf573d6000803e3d6000fd5b505050506040513d601f19601f820116820180604052508101906115e3919061409e565b73ffffffffffffffffffffffffffffffffffffffff1614611639576040517f08c379a0000000000000000000000000000000000000000000000000000000008152600401611630906152a7565b60405180910390fd5b600360009054906101000a900473ffffffffffffffffffffffffffffffffffffffff1673ffffffffffffffffffffffffffffffffffffffff166389ed5fa033856040518363ffffffff1660e01b8152600401611696929190615087565b602060405180830381600087803b1580156116b057600080fd5b505af11580156116c4573d6000803e3d6000fd5b505050506040513d601f19601f820116820180604052508101906116e8919061423e565b508161177e57600260009054906101000a900473ffffffffffffffffffffffffffffffffffffffff1673ffffffffffffffffffffffffffffffffffffffff1663fcd3533c84336040518363ffffffff1660e01b815260040161174b929190615326565b600060405180830381600087803b15801561176557600080fd5b505af1158015611779573d6000803e3d6000fd5b505050505b7f25d4d887d1cdf2f4a7386b7e0d00aa319d66a6963a77083e69758fc3cb1ccebf3384846040516117b1939291906150b0565b60405180910390a1505050565b606033600460009054906101000a900473ffffffffffffffffffffffffffffffffffffffff1673ffffffffffffffffffffffffffffffffffffffff1663a1abffee826040518263ffffffff1660e01b815260040161181c9190614d84565b60206040518083038186803b15801561183457600080fd5b505afa158015611848573d6000803e3d6000fd5b505050506040513d601f19601f8201168201806040525081019061186c919061423e565b6118ab576040517f08c379a00000000000000000000000000000000000000000000000000000000081526004016118a2906151e7565b60405180910390fd5b600360009054906101000a900473ffffffffffffffffffffffffffffffffffffffff1673ffffffffffffffffffffffffffffffffffffffff1663219e657b336040518263ffffffff1660e01b81526004016119069190614d84565b60006040518083038186803b15801561191e57600080fd5b505afa158015611932573d6000803e3d6000fd5b505050506040513d6000823e3d601f19601f8201168201806040525081019061195b91906141f5565b91505090565b61196961385f565b73ffffffffffffffffffffffffffffffffffffffff16611987612126565b73ffffffffffffffffffffffffffffffffffffffff16146119dd576040517f08c379a00000000000000000000000000000000000000000000000000000000081526004016119d490615267565b60405180910390fd5b6119e76000613867565b565b606033600460009054906101000a900473ffffffffffffffffffffffffffffffffffffffff1673ffffffffffffffffffffffffffffffffffffffff1663a1abffee826040518263ffffffff1660e01b8152600401611a479190614d84565b60206040518083038186803b158015611a5f57600080fd5b505afa158015611a73573d6000803e3d6000fd5b505050506040513d601f19601f82011682018060405250810190611a97919061423e565b611ad6576040517f08c379a0000000000000000000000000000000000000000000000000000000008152600401611acd906151e7565b60405180910390fd5b600360009054906101000a900473ffffffffffffffffffffffffffffffffffffffff1673ffffffffffffffffffffffffffffffffffffffff1663bbed9457336040518263ffffffff1660e01b8152600401611b319190614d84565b60006040518083038186803b158015611b4957600080fd5b505afa158015611b5d573d6000803e3d6000fd5b505050506040513d6000823e3d601f19601f82011682018060405250810190611b8691906141f5565b91505090565b823373ffffffffffffffffffffffffffffffffffffffff16600260009054906101000a900473ffffffffffffffffffffffffffffffffffffffff1673ffffffffffffffffffffffffffffffffffffffff16636352211e836040518263ffffffff1660e01b8152600401611bff919061530b565b60206040518083038186803b158015611c1757600080fd5b505afa158015611c2b573d6000803e3d6000fd5b505050506040513d601f19601f82011682018060405250810190611c4f919061409e565b73ffffffffffffffffffffffffffffffffffffffff1614611ca5576040517f08c379a0000000000000000000000000000000000000000000000000000000008152600401611c9c906152a7565b60405180910390fd5b81600460009054906101000a900473ffffffffffffffffffffffffffffffffffffffff1673ffffffffffffffffffffffffffffffffffffffff1663a1abffee826040518263ffffffff1660e01b8152600401611d019190614d84565b60206040518083038186803b158015611d1957600080fd5b505afa158015611d2d573d6000803e3d6000fd5b505050506040513d601f19601f82011682018060405250810190611d51919061423e565b611d90576040517f08c379a0000000000000000000000000000000000000000000000000000000008152600401611d87906151e7565b60405180910390fd5b8285600160008373ffffffffffffffffffffffffffffffffffffffff1673ffffffffffffffffffffffffffffffffffffffff168152602001908152602001600020600082815260200190815260200160002060020160009054906101000a900460ff1615611e33576040517f08c379a0000000000000000000000000000000000000000000000000000000008152600401611e2a90615227565b60405180910390fd5b600360009054906101000a900473ffffffffffffffffffffffffffffffffffffffff1673ffffffffffffffffffffffffffffffffffffffff166371499a7b33878a8a60026040518663ffffffff1660e01b8152600401611e97959493929190614e1b565b600060405180830381600087803b158015611eb157600080fd5b505af1158015611ec5573d6000803e3d6000fd5b5050505033600160008773ffffffffffffffffffffffffffffffffffffffff1673ffffffffffffffffffffffffffffffffffffffff168152602001908152602001600020600089815260200190815260200160002060000160006101000a81548173ffffffffffffffffffffffffffffffffffffffff021916908373ffffffffffffffffffffffffffffffffffffffff16021790555086600160008773ffffffffffffffffffffffffffffffffffffffff1673ffffffffffffffffffffffffffffffffffffffff16815260200190815260200160002060008981526020019081526020016000206001018190555060018060008773ffffffffffffffffffffffffffffffffffffffff1673ffffffffffffffffffffffffffffffffffffffff168152602001908152602001600020600089815260200190815260200160002060020160006101000a81548160ff0219169083151502179055507fdcd8480bd34c91f1f2adc92afe46034c8808591541fd4d1fa5cbdcb152cc8fec600160008773ffffffffffffffffffffffffffffffffffffffff1673ffffffffffffffffffffffffffffffffffffffff168152602001908152602001600020600089815260200190815260200160002060000160009054906101000a900473ffffffffffffffffffffffffffffffffffffffff16600160008873ffffffffffffffffffffffffffffffffffffffff1673ffffffffffffffffffffffffffffffffffffffff16815260200190815260200160002060008a815260200190815260200160002060010154604051612115929190615087565b60405180910390a150505050505050565b60008060009054906101000a900473ffffffffffffffffffffffffffffffffffffffff16905090565b61215761385f565b73ffffffffffffffffffffffffffffffffffffffff16612175612126565b73ffffffffffffffffffffffffffffffffffffffff16146121cb576040517f08c379a00000000000000000000000000000000000000000000000000000000081526004016121c290615267565b60405180910390fd5b600460009054906101000a900473ffffffffffffffffffffffffffffffffffffffff1673ffffffffffffffffffffffffffffffffffffffff1663d1d6bc9c858585856040518563ffffffff1660e01b815260040161222c949392919061502d565b600060405180830381600087803b15801561224657600080fd5b505af115801561225a573d6000803e3d6000fd5b505050506040513d6000823e3d601f19601f820116820180604052508101906122839190614564565b507f8d9024430453f128ca4f7678ee38e6a2024a5f36fa204933588a69b8fe8cc0c084836040516122b5929190614fb8565b60405180910390a150505050565b6000600360009054906101000a900473ffffffffffffffffffffffffffffffffffffffff1673ffffffffffffffffffffffffffffffffffffffff16637cc24f2d336001856040518463ffffffff1660e01b815260040161232593929190614f81565b60206040518083038186803b15801561233d57600080fd5b505afa158015612351573d6000803e3d6000fd5b505050506040513d601f19601f82011682018060405250810190612375919061426b565b90507fffffffffffffffffffffffffffffffffffffffffffffffffffffffffffffffff81136123d9576040517f08c379a00000000000000000000000000000000000000000000000000000000081526004016123d090615247565b60405180910390fd5b600360009054906101000a900473ffffffffffffffffffffffffffffffffffffffff1673ffffffffffffffffffffffffffffffffffffffff16634531817d336001846040518463ffffffff1660e01b815260040161243993929190614f81565b600060405180830381600087803b15801561245357600080fd5b505af1158015612467573d6000803e3d6000fd5b505050507fa19d981f41b819741b3955b6e01294e09d0e45d35bebad9b435a433adde2d558338360405161249c929190615087565b60405180910390a15050565b6124b0613ab0565b33600460009054906101000a900473ffffffffffffffffffffffffffffffffffffffff1673ffffffffffffffffffffffffffffffffffffffff1663a1abffee826040518263ffffffff1660e01b815260040161250c9190614d84565b60206040518083038186803b15801561252457600080fd5b505afa158015612538573d6000803e3d6000fd5b505050506040513d601f19601f8201168201806040525081019061255c919061423e565b61259b576040517f08c379a0000000000000000000000000000000000000000000000000000000008152600401612592906151e7565b60405180910390fd5b60006125a5613ab0565b600260009054906101000a900473ffffffffffffffffffffffffffffffffffffffff1673ffffffffffffffffffffffffffffffffffffffff1663d0def521338c6040518363ffffffff1660e01b8152600401612602929190614fb8565b602060405180830381600087803b15801561261c57600080fd5b505af1158015612630573d6000803e3d6000fd5b505050506040513d601f19601f8201168201806040525081019061265491906145da565b9150600360009054906101000a900473ffffffffffffffffffffffffffffffffffffffff1673ffffffffffffffffffffffffffffffffffffffff16639643062c33848e8d8d8d8d8d6040518963ffffffff1660e01b81526004016126bf9897969594939291906150e7565b600060405180830381600087803b1580156126d957600080fd5b505af11580156126ed573d6000803e3d6000fd5b505050506040513d6000823e3d601f19601f82011682018060405250810190612716919061451b565b90507fba21b505ffad1eade4edf87dec4f6dae4552ba705cb5188e82041dc02171a7853383604051612749929190615087565b60405180910390a1809350505050979650505050505050565b606033600460009054906101000a900473ffffffffffffffffffffffffffffffffffffffff1673ffffffffffffffffffffffffffffffffffffffff1663a1abffee826040518263ffffffff1660e01b81526004016127c09190614d84565b60206040518083038186803b1580156127d857600080fd5b505afa1580156127ec573d6000803e3d6000fd5b505050506040513d601f19601f82011682018060405250810190612810919061423e565b61284f576040517f08c379a0000000000000000000000000000000000000000000000000000000008152600401612846906151e7565b60405180910390fd5b600360009054906101000a900473ffffffffffffffffffffffffffffffffffffffff1673ffffffffffffffffffffffffffffffffffffffff1663d83e2027336040518263ffffffff1660e01b81526004016128aa9190614d84565b60006040518083038186803b1580156128c257600080fd5b505afa1580156128d6573d6000803e3d6000fd5b505050506040513d6000823e3d601f19601f820116820180604052508101906128ff91906141f5565b91505090565b600460009054906101000a900473ffffffffffffffffffffffffffffffffffffffff1673ffffffffffffffffffffffffffffffffffffffff16633f1a51b833836040518363ffffffff1660e01b8152600401612962929190614fb8565b600060405180830381600087803b15801561297c57600080fd5b505af1158015612990573d6000803e3d6000fd5b505050506040513d6000823e3d601f19601f820116820180604052508101906129b99190614564565b507f3510d9fd1bdaa96909e4f9fcd057c39ee3ee4647521258d952d64974a8e052a833826040516129eb929190614fb8565b60405180910390a150565b6129fe613b15565b33600460009054906101000a900473ffffffffffffffffffffffffffffffffffffffff1673ffffffffffffffffffffffffffffffffffffffff1663a1abffee826040518263ffffffff1660e01b8152600401612a5a9190614d84565b60206040518083038186803b158015612a7257600080fd5b505afa158015612a86573d6000803e3d6000fd5b505050506040513d601f19601f82011682018060405250810190612aaa919061423e565b612ae9576040517f08c379a0000000000000000000000000000000000000000000000000000000008152600401612ae0906151e7565b60405180910390fd5b600460009054906101000a900473ffffffffffffffffffffffffffffffffffffffff1673ffffffffffffffffffffffffffffffffffffffff16636f77926b336040518263ffffffff1660e01b8152600401612b449190614d84565b60006040518083038186803b158015612b5c57600080fd5b505afa158015612b70573d6000803e3d6000fd5b505050506040513d6000823e3d601f19601f82011682018060405250810190612b999190614564565b91505090565b612ba7613b15565b600460009054906101000a900473ffffffffffffffffffffffffffffffffffffffff1673ffffffffffffffffffffffffffffffffffffffff16636f77926b836040518263ffffffff1660e01b8152600401612c029190614d84565b60006040518083038186803b158015612c1a57600080fd5b505afa158015612c2e573d6000803e3d6000fd5b505050506040513d6000823e3d601f19601f82011682018060405250810190612c579190614564565b9050919050565b6000612c6861385f565b73ffffffffffffffffffffffffffffffffffffffff16612c86612126565b73ffffffffffffffffffffffffffffffffffffffff1614612cdc576040517f08c379a0000000000000000000000000000000000000000000000000000000008152600401612cd390615267565b60405180910390fd5b600260009054906101000a900473ffffffffffffffffffffffffffffffffffffffff1673ffffffffffffffffffffffffffffffffffffffff16634ebbc92a836040518263ffffffff1660e01b8152600401612d37919061530b565b60206040518083038186803b158015612d4f57600080fd5b505afa158015612d63573d6000803e3d6000fd5b505050506040513d601f19601f82011682018060405250810190612d87919061423e565b9050919050565b6060600460009054906101000a900473ffffffffffffffffffffffffffffffffffffffff1673ffffffffffffffffffffffffffffffffffffffff16636e2db3b0336040518263ffffffff1660e01b8152600401612deb9190614d84565b60006040518083038186803b158015612e0357600080fd5b505afa158015612e17573d6000803e3d6000fd5b505050506040513d6000823e3d601f19601f82011682018060405250810190612e4091906142e1565b905090565b600460009054906101000a900473ffffffffffffffffffffffffffffffffffffffff1673ffffffffffffffffffffffffffffffffffffffff1663c6361c22338585856040518563ffffffff1660e01b8152600401612ea6949392919061502d565b600060405180830381600087803b158015612ec057600080fd5b505af1158015612ed4573d6000803e3d6000fd5b505050506040513d6000823e3d601f19601f82011682018060405250810190612efd9190614564565b507ff9e22d0d90b1c23a58ab3faeb23fd4ac8ad47eccb5a435427069e65a22fb00d5338484604051612f3193929190614fe8565b60405180910390a1505050565b612f4661385f565b73ffffffffffffffffffffffffffffffffffffffff16612f64612126565b73ffffffffffffffffffffffffffffffffffffffff1614612fba576040517f08c379a0000000000000000000000000000000000000000000000000000000008152600401612fb190615267565b60405180910390fd5b600073ffffffffffffffffffffffffffffffffffffffff168173ffffffffffffffffffffffffffffffffffffffff16141561302a576040517f08c379a000000000000000000000000000000000000000000000000000000000815260040161302190615207565b60405180910390fd5b61303381613867565b50565b813373ffffffffffffffffffffffffffffffffffffffff16600260009054906101000a900473ffffffffffffffffffffffffffffffffffffffff1673ffffffffffffffffffffffffffffffffffffffff16636352211e836040518263ffffffff1660e01b81526004016130a9919061530b565b60206040518083038186803b1580156130c157600080fd5b505afa1580156130d5573d6000803e3d6000fd5b505050506040513d601f19601f820116820180604052508101906130f9919061409e565b73ffffffffffffffffffffffffffffffffffffffff161461314f576040517f08c379a0000000000000000000000000000000000000000000000000000000008152600401613146906152a7565b60405180910390fd5b83600460009054906101000a900473ffffffffffffffffffffffffffffffffffffffff1673ffffffffffffffffffffffffffffffffffffffff1663a1abffee826040518263ffffffff1660e01b81526004016131ab9190614d84565b60206040518083038186803b1580156131c357600080fd5b505afa1580156131d7573d6000803e3d6000fd5b505050506040513d601f19601f820116820180604052508101906131fb919061423e565b61323a576040517f08c379a0000000000000000000000000000000000000000000000000000000008152600401613231906151e7565b60405180910390fd5b600360009054906101000a900473ffffffffffffffffffffffffffffffffffffffff1673ffffffffffffffffffffffffffffffffffffffff166371499a7b3387878760036040518663ffffffff1660e01b815260040161329e959493929190614e1b565b600060405180830381600087803b1580156132b857600080fd5b505af11580156132cc573d6000803e3d6000fd5b50505050600260009054906101000a900473ffffffffffffffffffffffffffffffffffffffff1673ffffffffffffffffffffffffffffffffffffffff1663beabacc83387876040518463ffffffff1660e01b815260040161332f93929190614d9f565b600060405180830381600087803b15801561334957600080fd5b505af115801561335d573d6000803e3d6000fd5b5050505061336d3385600161392b565b7f34f581da021a47386a4d5676be80c680ca6596579bd9f513f3d272b0460359fa3386866040516133a093929190614d9f565b60405180910390a15050505050565b33600460009054906101000a900473ffffffffffffffffffffffffffffffffffffffff1673ffffffffffffffffffffffffffffffffffffffff1663a1abffee826040518263ffffffff1660e01b815260040161340b9190614d84565b60206040518083038186803b15801561342357600080fd5b505afa158015613437573d6000803e3d6000fd5b505050506040513d601f19601f8201168201806040525081019061345b919061423e565b61349a576040517f08c379a0000000000000000000000000000000000000000000000000000000008152600401613491906151e7565b60405180910390fd5b600360009054906101000a900473ffffffffffffffffffffffffffffffffffffffff1673ffffffffffffffffffffffffffffffffffffffff1663bd53176b336040518263ffffffff1660e01b81526004016134f59190614d84565b600060405180830381600087803b15801561350f57600080fd5b505af1158015613523573d6000803e3d6000fd5b50505050600360009054906101000a900473ffffffffffffffffffffffffffffffffffffffff1673ffffffffffffffffffffffffffffffffffffffff166351685f35336040518263ffffffff1660e01b81526004016135829190614d84565b600060405180830381600087803b15801561359c57600080fd5b505af11580156135b0573d6000803e3d6000fd5b50505050600460009054906101000a900473ffffffffffffffffffffffffffffffffffffffff1673ffffffffffffffffffffffffffffffffffffffff1663f849f379336040518263ffffffff1660e01b815260040161360f9190614d84565b600060405180830381600087803b15801561362957600080fd5b505af115801561363d573d6000803e3d6000fd5b505050507fe5ca53020b6c0ff2116f624b9ca44e320913151f07ce0ac7186a67a5f6885e36336040516136709190614d84565b60405180910390a150565b6000600460009054906101000a900473ffffffffffffffffffffffffffffffffffffffff1673ffffffffffffffffffffffffffffffffffffffff16632330f247336040518263ffffffff1660e01b81526004016136d89190614d84565b60206040518083038186803b1580156136f057600080fd5b505afa158015613704573d6000803e3d6000fd5b505050506040513d601f19601f82011682018060405250810190613728919061423e565b9050600360009054906101000a900473ffffffffffffffffffffffffffffffffffffffff1673ffffffffffffffffffffffffffffffffffffffff16635d1e792733838787876040518663ffffffff1660e01b815260040161378d959493929190614e75565b600060405180830381600087803b1580156137a757600080fd5b505af11580156137bb573d6000803e3d6000fd5b5050505050505050565b600160008373ffffffffffffffffffffffffffffffffffffffff1673ffffffffffffffffffffffffffffffffffffffff1681526020019081526020016000206000828152602001908152602001600020600080820160006101000a81549073ffffffffffffffffffffffffffffffffffffffff021916905560018201600090556002820160006101000a81549060ff021916905550505050565b600033905090565b60008060009054906101000a900473ffffffffffffffffffffffffffffffffffffffff169050816000806101000a81548173ffffffffffffffffffffffffffffffffffffffff021916908373ffffffffffffffffffffffffffffffffffffffff1602179055508173ffffffffffffffffffffffffffffffffffffffff168173ffffffffffffffffffffffffffffffffffffffff167f8be0079c531659141344cd1fd0a4f28419497f9722a3daafe3b4186f6b6457e060405160405180910390a35050565b600360009054906101000a900473ffffffffffffffffffffffffffffffffffffffff1673ffffffffffffffffffffffffffffffffffffffff166389ed5fa084846040518363ffffffff1660e01b8152600401613988929190615087565b602060405180830381600087803b1580156139a257600080fd5b505af11580156139b6573d6000803e3d6000fd5b505050506040513d601f19601f820116820180604052508101906139da919061423e565b5080613a7057600260009054906101000a900473ffffffffffffffffffffffffffffffffffffffff1673ffffffffffffffffffffffffffffffffffffffff1663fcd3533c83856040518363ffffffff1660e01b8152600401613a3d929190615326565b600060405180830381600087803b158015613a5757600080fd5b505af1158015613a6b573d6000803e3d6000fd5b505050505b7f25d4d887d1cdf2f4a7386b7e0d00aa319d66a6963a77083e69758fc3cb1ccebf838383604051613aa3939291906150b0565b60405180910390a1505050565b60405180610140016040528060008152602001600081526020016060815260200160608152602001600081526020016060815260200160608152602001606081526020016060815260200160006003811115613b0f57613b0e6155c4565b5b81525090565b604051806080016040528060608152602001606081526020016000151581526020016000151581525090565b6000613b54613b4f846153b2565b61538d565b90508083825260208201905082856020860282011115613b7757613b76615631565b5b60005b85811015613ba75781613b8d8882613cd8565b845260208401935060208301925050600181019050613b7a565b5050509392505050565b6000613bc4613bbf846153de565b61538d565b90508083825260208201905082856020860282011115613be757613be6615631565b5b60005b85811015613c3557815167ffffffffffffffff811115613c0d57613c0c615622565b5b808601613c1a8982613df9565b85526020850194506020840193505050600181019050613bea565b5050509392505050565b6000613c52613c4d8461540a565b61538d565b905082815260208101848484011115613c6e57613c6d615636565b5b613c79848285615551565b509392505050565b6000613c94613c8f8461540a565b61538d565b905082815260208101848484011115613cb057613caf615636565b5b613cbb848285615560565b509392505050565b600081359050613cd281615870565b92915050565b600081519050613ce781615870565b92915050565b600082601f830112613d0257613d01615622565b5b8151613d12848260208601613b41565b91505092915050565b600082601f830112613d3057613d2f615622565b5b8151613d40848260208601613bb1565b91505092915050565b600081359050613d5881615887565b92915050565b600081519050613d6d81615887565b92915050565b600081519050613d828161589e565b92915050565b600081519050613d97816158ae565b92915050565b600082601f830112613db257613db1615622565b5b8135613dc2848260208601613c3f565b91505092915050565b600082601f830112613de057613ddf615622565b5b8151613df0848260208601613c81565b91505092915050565b60006101408284031215613e1057613e0f615627565b5b613e1b61014061538d565b90506000613e2b8482850161405c565b6000830152506020613e3f8482850161405c565b602083015250604082015167ffffffffffffffff811115613e6357613e6261562c565b5b613e6f84828501613dcb565b604083015250606082015167ffffffffffffffff811115613e9357613e9261562c565b5b613e9f84828501613dcb565b6060830152506080613eb38482850161405c565b60808301525060a082015167ffffffffffffffff811115613ed757613ed661562c565b5b613ee384828501613dcb565b60a08301525060c082015167ffffffffffffffff811115613f0757613f0661562c565b5b613f1384828501613ced565b60c08301525060e082015167ffffffffffffffff811115613f3757613f3661562c565b5b613f4384828501613dcb565b60e08301525061010082015167ffffffffffffffff811115613f6857613f6761562c565b5b613f7484828501613dcb565b61010083015250610120613f8a84828501613d73565b6101208301525092915050565b600060808284031215613fad57613fac615627565b5b613fb7608061538d565b9050600082015167ffffffffffffffff811115613fd757613fd661562c565b5b613fe384828501613dcb565b600083015250602082015167ffffffffffffffff8111156140075761400661562c565b5b61401384828501613dcb565b602083015250604061402784828501613d5e565b604083015250606061403b84828501613d5e565b60608301525092915050565b600081359050614056816158c5565b92915050565b60008151905061406b816158c5565b92915050565b60006020828403121561408757614086615640565b5b600061409584828501613cc3565b91505092915050565b6000602082840312156140b4576140b3615640565b5b60006140c284828501613cd8565b91505092915050565b600080600080608085870312156140e5576140e4615640565b5b60006140f387828801613cc3565b945050602085013567ffffffffffffffff8111156141145761411361563b565b5b61412087828801613d9d565b935050604085013567ffffffffffffffff8111156141415761414061563b565b5b61414d87828801613d9d565b925050606085013567ffffffffffffffff81111561416e5761416d61563b565b5b61417a87828801613d9d565b91505092959194509250565b60008060006060848603121561419f5761419e615640565b5b60006141ad86828701613cc3565b93505060206141be86828701614047565b925050604084013567ffffffffffffffff8111156141df576141de61563b565b5b6141eb86828701613d9d565b9150509250925092565b60006020828403121561420b5761420a615640565b5b600082015167ffffffffffffffff8111156142295761422861563b565b5b61423584828501613d1b565b91505092915050565b60006020828403121561425457614253615640565b5b600061426284828501613d5e565b91505092915050565b60006020828403121561428157614280615640565b5b600061428f84828501613d88565b91505092915050565b6000602082840312156142ae576142ad615640565b5b600082013567ffffffffffffffff8111156142cc576142cb61563b565b5b6142d884828501613d9d565b91505092915050565b6000602082840312156142f7576142f6615640565b5b600082015167ffffffffffffffff8111156143155761431461563b565b5b61432184828501613dcb565b91505092915050565b60008060006060848603121561434357614342615640565b5b600084013567ffffffffffffffff8111156143615761436061563b565b5b61436d86828701613d9d565b935050602084013567ffffffffffffffff81111561438e5761438d61563b565b5b61439a86828701613d9d565b925050604084013567ffffffffffffffff8111156143bb576143ba61563b565b5b6143c786828701613d9d565b9150509250925092565b600080600080600080600060e0888a0312156143f0576143ef615640565b5b600088013567ffffffffffffffff81111561440e5761440d61563b565b5b61441a8a828b01613d9d565b975050602088013567ffffffffffffffff81111561443b5761443a61563b565b5b6144478a828b01613d9d565b965050604088013567ffffffffffffffff8111156144685761446761563b565b5b6144748a828b01613d9d565b95505060606144858a828b01614047565b945050608088013567ffffffffffffffff8111156144a6576144a561563b565b5b6144b28a828b01613d9d565b93505060a088013567ffffffffffffffff8111156144d3576144d261563b565b5b6144df8a828b01613d9d565b92505060c088013567ffffffffffffffff811115614500576144ff61563b565b5b61450c8a828b01613d9d565b91505092959891949750929550565b60006020828403121561453157614530615640565b5b600082015167ffffffffffffffff81111561454f5761454e61563b565b5b61455b84828501613df9565b91505092915050565b60006020828403121561457a57614579615640565b5b600082015167ffffffffffffffff8111156145985761459761563b565b5b6145a484828501613f97565b91505092915050565b6000602082840312156145c3576145c2615640565b5b60006145d184828501614047565b91505092915050565b6000602082840312156145f0576145ef615640565b5b60006145fe8482850161405c565b91505092915050565b6000806000606084860312156146205761461f615640565b5b600061462e86828701614047565b935050602061463f86828701613cc3565b925050604084013567ffffffffffffffff8111156146605761465f61563b565b5b61466c86828701613d9d565b9150509250925092565b6000806040838503121561468d5761468c615640565b5b600061469b85828601614047565b92505060206146ac85828601613d49565b9150509250929050565b6000806000606084860312156146cf576146ce615640565b5b60006146dd86828701614047565b935050602084013567ffffffffffffffff8111156146fe576146fd61563b565b5b61470a86828701613d9d565b925050604061471b86828701613cc3565b9150509250925092565b60008060006060848603121561473e5761473d615640565b5b600061474c86828701614047565b935050602084013567ffffffffffffffff81111561476d5761476c61563b565b5b61477986828701613d9d565b925050604061478a86828701613d49565b9150509250925092565b6000806000606084860312156147ad576147ac615640565b5b60006147bb86828701614047565b935050602084013567ffffffffffffffff8111156147dc576147db61563b565b5b6147e886828701613d9d565b925050604084013567ffffffffffffffff8111156148095761480861563b565b5b61481586828701613d9d565b9150509250925092565b600061482b838361484b565b60208301905092915050565b60006148438383614b02565b905092915050565b614854816154da565b82525050565b614863816154da565b82525050565b60006148748261545b565b61487e8185615496565b93506148898361543b565b8060005b838110156148ba5781516148a1888261481f565b97506148ac8361547c565b92505060018101905061488d565b5085935050505092915050565b60006148d282615466565b6148dc81856154a7565b9350836020820285016148ee8561544b565b8060005b8581101561492a578484038952815161490b8582614837565b945061491683615489565b925060208a019950506001810190506148f2565b50829750879550505050505092915050565b614945816154ec565b82525050565b614954816154ec565b82525050565b6149638161553f565b82525050565b6149728161553f565b82525050565b600061498382615471565b61498d81856154b8565b935061499d818560208601615560565b6149a681615645565b840191505092915050565b60006149bc82615471565b6149c681856154c9565b93506149d6818560208601615560565b6149df81615645565b840191505092915050565b60006149f76028836154c9565b9150614a0282615656565b604082019050919050565b6000614a1a6026836154c9565b9150614a25826156a5565b604082019050919050565b6000614a3d602b836154c9565b9150614a48826156f4565b604082019050919050565b6000614a60602d836154c9565b9150614a6b82615743565b604082019050919050565b6000614a836020836154c9565b9150614a8e82615792565b602082019050919050565b6000614aa66031836154c9565b9150614ab1826157bb565b604082019050919050565b6000614ac96000836154c9565b9150614ad48261580a565b600082019050919050565b6000614aec6029836154c9565b9150614af78261580d565b604082019050919050565b600061014083016000830151614b1b6000860182614d66565b506020830151614b2e6020860182614d66565b5060408301518482036040860152614b468282614978565b91505060608301518482036060860152614b608282614978565b9150506080830151614b756080860182614d66565b5060a083015184820360a0860152614b8d8282614978565b91505060c083015184820360c0860152614ba78282614869565b91505060e083015184820360e0860152614bc18282614978565b915050610100830151848203610100860152614bdd8282614978565b915050610120830151614bf461012086018261495a565b508091505092915050565b600061014083016000830151614c186000860182614d66565b506020830151614c2b6020860182614d66565b5060408301518482036040860152614c438282614978565b91505060608301518482036060860152614c5d8282614978565b9150506080830151614c726080860182614d66565b5060a083015184820360a0860152614c8a8282614978565b91505060c083015184820360c0860152614ca48282614869565b91505060e083015184820360e0860152614cbe8282614978565b915050610100830151848203610100860152614cda8282614978565b915050610120830151614cf161012086018261495a565b508091505092915050565b60006080830160008301518482036000860152614d198282614978565b91505060208301518482036020860152614d338282614978565b9150506040830151614d48604086018261493c565b506060830151614d5b606086018261493c565b508091505092915050565b614d6f81615535565b82525050565b614d7e81615535565b82525050565b6000602082019050614d99600083018461485a565b92915050565b6000606082019050614db4600083018661485a565b614dc1602083018561485a565b614dce6040830184614d75565b949350505050565b6000608082019050614deb600083018761485a565b614df8602083018661485a565b614e056040830185614d75565b614e12606083018461494b565b95945050505050565b600060a082019050614e30600083018861485a565b614e3d602083018761485a565b614e4a6040830186614d75565b8181036060830152614e5c81856149b1565b9050614e6b6080830184614969565b9695505050505050565b600060a082019050614e8a600083018861485a565b614e97602083018761494b565b614ea4604083018661485a565b614eb16060830185614d75565b8181036080830152614ec381846149b1565b90509695505050505050565b600060a082019050614ee4600083018861485a565b614ef16020830187614969565b614efe6040830186614969565b614f0b6060830185614d75565b8181036080830152614f1d81846149b1565b90509695505050505050565b600060a082019050614f3e600083018761485a565b614f4b6020830186614969565b614f586040830185614969565b614f656060830184614d75565b8181036080830152614f7681614abc565b905095945050505050565b6000606082019050614f96600083018661485a565b614fa36020830185614969565b614fb06040830184614d75565b949350505050565b6000604082019050614fcd600083018561485a565b8181036020830152614fdf81846149b1565b90509392505050565b6000606082019050614ffd600083018661485a565b818103602083015261500f81856149b1565b9050818103604083015261502381846149b1565b9050949350505050565b6000608082019050615042600083018761485a565b818103602083015261505481866149b1565b9050818103604083015261506881856149b1565b9050818103606083015261507c81846149b1565b905095945050505050565b600060408201905061509c600083018561485a565b6150a96020830184614d75565b9392505050565b60006060820190506150c5600083018661485a565b6150d26020830185614d75565b6150df604083018461494b565b949350505050565b6000610100820190506150fd600083018b61485a565b61510a602083018a614d75565b818103604083015261511c81896149b1565b9050818103606083015261513081886149b1565b905061513f6080830187614d75565b81810360a083015261515181866149b1565b905081810360c083015261516581856149b1565b905081810360e083015261517981846149b1565b90509998505050505050505050565b600060208201905081810360008301526151a281846148c7565b905092915050565b60006020820190506151bf600083018461494b565b92915050565b600060208201905081810360008301526151df81846149b1565b905092915050565b60006020820190508181036000830152615200816149ea565b9050919050565b6000602082019050818103600083015261522081614a0d565b9050919050565b6000602082019050818103600083015261524081614a30565b9050919050565b6000602082019050818103600083015261526081614a53565b9050919050565b6000602082019050818103600083015261528081614a76565b9050919050565b600060208201905081810360008301526152a081614a99565b9050919050565b600060208201905081810360008301526152c081614adf565b9050919050565b600060208201905081810360008301526152e18184614bff565b905092915050565b600060208201905081810360008301526153038184614cfc565b905092915050565b60006020820190506153206000830184614d75565b92915050565b600060408201905061533b6000830185614d75565b615348602083018461485a565b9392505050565b60006060820190506153646000830186614d75565b818103602083015261537681856149b1565b9050615385604083018461485a565b949350505050565b60006153976153a8565b90506153a38282615593565b919050565b6000604051905090565b600067ffffffffffffffff8211156153cd576153cc6155f3565b5b602082029050602081019050919050565b600067ffffffffffffffff8211156153f9576153f86155f3565b5b602082029050602081019050919050565b600067ffffffffffffffff821115615425576154246155f3565b5b61542e82615645565b9050602081019050919050565b6000819050602082019050919050565b6000819050602082019050919050565b600081519050919050565b600081519050919050565b600081519050919050565b6000602082019050919050565b6000602082019050919050565b600082825260208201905092915050565b600082825260208201905092915050565b600082825260208201905092915050565b600082825260208201905092915050565b60006154e582615515565b9050919050565b60008115159050919050565b60008190506155068261585c565b919050565b6000819050919050565b600073ffffffffffffffffffffffffffffffffffffffff82169050919050565b6000819050919050565b600061554a826154f8565b9050919050565b82818337600083830152505050565b60005b8381101561557e578082015181840152602081019050615563565b8381111561558d576000848401525b50505050565b61559c82615645565b810181811067ffffffffffffffff821117156155bb576155ba6155f3565b5b80604052505050565b7f4e487b7100000000000000000000000000000000000000000000000000000000600052602160045260246000fd5b7f4e487b7100000000000000000000000000000000000000000000000000000000600052604160045260246000fd5b600080fd5b600080fd5b600080fd5b600080fd5b600080fd5b600080fd5b600080fd5b6000601f19601f8301169050919050565b7f53617665446f633a204365747465207574696c69736174657572206e2765786960008201527f737465207061732e000000000000000000000000000000000000000000000000602082015250565b7f4f776e61626c653a206e6577206f776e657220697320746865207a65726f206160008201527f6464726573730000000000000000000000000000000000000000000000000000602082015250565b7f536176446f633a204c612064656d616e6465206465206365727469666963617460008201527f696f6e206578697374652e000000000000000000000000000000000000000000602082015250565b7f53617665446f633a20566f7573206e276176657a2070617320646520636f706960008201527f652061207375707072696d657200000000000000000000000000000000000000602082015250565b7f4f776e61626c653a2063616c6c6572206973206e6f7420746865206f776e6572600082015250565b7f536176446f633a204c612064656d616e6465206465206365727469666963617460008201527f696f6e206e27657869737465207061732e000000000000000000000000000000602082015250565b50565b7f53617665446f633a20436574204e4654206e6520766f7573206170706172746960008201527f656e742070617320210000000000000000000000000000000000000000000000602082015250565b6004811061586d5761586c6155c4565b5b50565b615879816154da565b811461588457600080fd5b50565b615890816154ec565b811461589b57600080fd5b50565b600481106158ab57600080fd5b50565b6158b78161550b565b81146158c257600080fd5b50565b6158ce81615535565b81146158d957600080fd5b5056fea26469706673582212203d3594dd8fc8fcf3ca56217e0e0ebca3fddbe1b97ac8d4fe3a2f2eb96a76777d64736f6c63430008060033",
  "immutableReferences": {},
  "source": "//SPDX-License-Identifier: MIT\n\npragma solidity 0.8.6;\n\nimport \"./AccountManager.sol\";\nimport \"@openzeppelin/contracts/access/Ownable.sol\";\nimport \"./DocManager.sol\";\nimport \"./SaveDocToken.sol\";\nimport \"./SaveDocStruct.sol\";\n\n\ncontract SaveDoc is Ownable, SaveDocStruct\n{\n    mapping(address => mapping(uint256 => CertificationRequest)) private requests;\n    SaveDocToken private saveDocToken;\n    DocManager private docManager;\n    AccountManager private accountManager;\n\n\n    constructor(DocManager _docManager, SaveDocToken _saveDocToken, AccountManager _accountManager)\n    {\n        docManager = _docManager;\n        saveDocToken = _saveDocToken;\n        accountManager = _accountManager;\n    }\n\n    event Subscribe(address newUser, string name, string pubkey);\n    event SubscribeAuthority(address newUser, string pubkey);\n    event ChangeUsername(address user, string newUsername);\n    event Unsubcribe(address user);\n    event SecureDocument(address user, uint256 tokenID);\n    event DeleteDocumment(address ownerDoc, uint256 tokenID, bool forTransfer);\n    event TransferDocument(address from, address to, uint256 tokenID);\n    event ShareDoc(address from, address to, uint256 tokenID);\n    event AcceptTransferDoc(address newOwner, uint256 tokenID);\n    event DeleteMyDocCopy(address ownerDoc, uint256 tokenID);\n    event RequestCertification(address applicant, uint256 tokenID);\n    event AcceptCertificationRequest(address certifying, address applicant, uint256 tokenID, bool keepCopy);\n    event RejectCertificationRequest(address certifying, address applicant, uint256 tokenID);\n\n    modifier isMyToken(uint256 tokenID)\n    {\n        require(saveDocToken.ownerOf(tokenID) == msg.sender, \"SaveDoc: Cet NFT ne vous appartient pas !\");\n        _;\n    }\n\n    modifier userExist(address addressUser)\n    {\n        require(accountManager.checkIfUserExist(addressUser), \"SaveDoc: Cette utilisateur n'existe pas.\");\n        _;\n    }\n\n    modifier requestExist(address _certifying, uint256 _tokenID)\n    {\n        require(requests[_certifying][_tokenID].exist, \"SavDoc: La demande de certification n'existe pas.\");\n        _;\n    }\n\n    modifier requestNotExist(address _certifying, uint256 _tokenID)\n    {\n        require(!requests[_certifying][_tokenID].exist, \"SavDoc: La demande de certification existe.\");\n        _;\n    }\n\n    function subscribe(string memory name, string memory pubKey, string memory passwordMaster) external\n    {\n        accountManager.addUser(msg.sender, name, pubKey, passwordMaster);\n        emit Subscribe(msg.sender, name, pubKey);\n    }\n\n    function subscribeAuthority(address authority,string memory name, string memory pubKey, string memory passwordMaster) onlyOwner() external\n    {\n        accountManager.addAuthority(authority, name, pubKey, passwordMaster);\n        emit SubscribeAuthority(authority, pubKey);\n    }\n\n    function viewMyProfil() view external userExist(msg.sender) returns(User memory)\n    {\n        return accountManager.getUser(msg.sender);\n    }\n\n    function viewProfil(address _address) view external returns(User memory)\n    {\n        return accountManager.getUser(_address);\n    }\n\n    function getMyPasswordMaster() view external returns(string memory)\n    {\n        return accountManager.getPasswordMaster(msg.sender);\n    }\n\n    function changeMyName(string memory name) external\n    {\n        accountManager.setUser(msg.sender, name);\n        emit ChangeUsername(msg.sender, name);\n    }\n\n    function unsubscribe() external userExist(msg.sender)\n    {\n        docManager.deleteAllDocs(msg.sender);\n        docManager.delAllCopyDoc(msg.sender);\n        accountManager.delUser(msg.sender);\n        emit Unsubcribe(msg.sender);\n    }\n\n    function secureDocument(string memory tokenName, string memory tokenURI, string memory tokenMime, uint256 tokenLength, string memory filePath, string memory passwordEncrypted, string memory hashNFT) external userExist(msg.sender) returns (Document memory)\n    {\n        uint256 tokenID;\n        Document memory document;\n\n        tokenID = saveDocToken.mint(msg.sender, tokenURI);\n        document = docManager.createDoc(msg.sender, tokenID, tokenName, tokenMime, tokenLength, filePath, passwordEncrypted, hashNFT);\n        emit SecureDocument(msg.sender, tokenID);\n\n       return document;\n    }\n\n    function delMyDocument(uint256 tokenID, bool forTransfer) external isMyToken(tokenID)\n    {\n        docManager.deleteDoc(msg.sender, tokenID);\n\n        if (!forTransfer)\n        {\n            saveDocToken.burn(tokenID, msg.sender);\n        }\n        emit DeleteDocumment(msg.sender, tokenID, forTransfer);\n    }\n\n    function delMyDocument(address ownerDoc, uint256 tokenID, bool forTransfer) private\n    {\n        docManager.deleteDoc(ownerDoc, tokenID);\n\n        if (!forTransfer)\n        {\n            saveDocToken.burn(tokenID, ownerDoc);\n        }\n        emit DeleteDocumment(ownerDoc, tokenID, forTransfer);\n    }\n\n    function getTokenURI(uint256 tokenID) external view isMyToken(tokenID) returns(string memory)\n    {\n        return saveDocToken.tokenURI(tokenID);\n    }\n\n    function transferDoc(address to, uint256 tokenID, string memory tokenURITmp) external isMyToken(tokenID) userExist(to)\n    {\n        docManager.createCopyDoc(msg.sender, to, tokenID, tokenURITmp, TypeDoc.CopyPendingTransfer);\n        saveDocToken.transfer(msg.sender, to, tokenID);\n        delMyDocument(msg.sender, tokenID, true);\n        emit TransferDocument(msg.sender, to, tokenID);\n    }\n\n    function shareDoc(uint256 tokenID, address to, string memory tokenURI) external isMyToken(tokenID) userExist(to)\n    {\n        docManager.createCopyDoc(msg.sender, to, tokenID, tokenURI, TypeDoc.CopyShared);\n        emit ShareDoc(msg.sender, to, tokenID);\n    }\n\n    function acceptNewDoc(uint256 tokenID, string memory newTokenURI, string memory passwordEncrypted) external isMyToken(tokenID)\n    {\n        // check si msg.sender a bien dja une copie du Document\n        docManager.convertTypeDoc(msg.sender, TypeDoc.CopyPendingTransfer, TypeDoc.Original, tokenID, passwordEncrypted);\n        saveDocToken.setTokenURI(tokenID, newTokenURI, msg.sender);\n        emit AcceptTransferDoc(msg.sender, tokenID);\n    }\n\n    function delCopyDocShared(uint tokenID) external\n    {\n        int256 index = docManager.getIndexNFT(msg.sender, TypeDoc.CopyShared, tokenID);\n        require(index > -1, \"SaveDoc: Vous n'avez pas de copie a supprimer\");\n\n        docManager.delCopyDoc(msg.sender, TypeDoc.CopyShared, uint256(index));\n        emit DeleteMyDocCopy(msg.sender, tokenID);\n    }\n\n    function requestCertification(uint256 _tokenID, string memory _tokenURI, address _certifying) isMyToken(_tokenID) external userExist(_certifying) requestNotExist(_certifying, _tokenID)\n    {\n        docManager.createCopyDoc(msg.sender, _certifying, _tokenID, _tokenURI, TypeDoc.CopyCertified);\n\n        requests[_certifying][_tokenID].applicant = msg.sender;\n        requests[_certifying][_tokenID].tokenID = _tokenID;\n        requests[_certifying][_tokenID].exist = true;\n\n        emit RequestCertification(requests[_certifying][_tokenID].applicant, requests[_certifying][_tokenID].tokenID);\n    }\n\n    function viewMyDocs() view external userExist(msg.sender) returns(Document[] memory)\n    {\n        return docManager.getDocs(msg.sender);\n    }\n\n    function viewMyCopyDocs() view external userExist(msg.sender) returns(Document[] memory)\n    {\n        return docManager.getAllCopyShared(msg.sender);\n    }\n\n    function viewDocPendingTransfer() view external userExist(msg.sender) returns(Document[] memory)\n    {\n        return docManager.getAllCopyPendingTransfer(msg.sender);\n    }\n\n    function viewDocCertified() view external userExist(msg.sender) returns(Document[] memory)\n    {\n        return docManager.getAllCopyCertified(msg.sender);\n    }\n\n\n    function delRequest(address _certifying, uint256 _tokenID) private\n    {\n        delete requests[_certifying][_tokenID];\n    }\n\n    function certifyDocument(address applicant, uint256 tokenID, string memory hashNFT) private\n    {\n        bool isAuthority;\n\n        isAuthority = accountManager.isAuthority(msg.sender);\n        docManager.certify(msg.sender, isAuthority, applicant, tokenID, hashNFT);\n    }\n\n    function acceptCertificationRequest(uint256 _tokenID, string memory _hashNFT, bool _keepCopyDoc) requestExist(msg.sender, _tokenID) userExist(msg.sender) public\n    {\n        CertificationRequest memory request = requests[msg.sender][_tokenID];\n        int256 index = docManager.getIndexNFT(msg.sender, TypeDoc.CopyCertified, request.tokenID);\n        certifyDocument(request.applicant, request.tokenID, _hashNFT);\n        delRequest(msg.sender, request.tokenID);\n\n        if (_keepCopyDoc) {\n            docManager.convertTypeDoc(msg.sender, TypeDoc.CopyCertified, TypeDoc.CopyShared, request.tokenID, \"\");\n        } else {\n            docManager.delCopyDoc(msg.sender, TypeDoc.CopyCertified, uint256(index));\n        }\n\n        emit AcceptCertificationRequest(msg.sender, request.applicant, request.tokenID, _keepCopyDoc);\n    }\n\n    function rejectCertificationRequest(uint256 _tokenID) requestExist(msg.sender, _tokenID) external\n    {\n        CertificationRequest memory request = requests[msg.sender][_tokenID];\n        int256 index = docManager.getIndexNFT(msg.sender, TypeDoc.CopyCertified, request.tokenID);\n        delRequest(msg.sender, _tokenID);\n        docManager.delCopyDoc(msg.sender, TypeDoc.CopyCertified, uint256(index));\n\n        emit RejectCertificationRequest(msg.sender, request.applicant, request.tokenID);\n    }\n\n    function tokenExist(uint256 tokenID) view onlyOwner() public returns(bool)\n    {\n        return saveDocToken.exist(tokenID);\n    }\n}\n",
  "sourcePath": "/home/jg/Alyra/SAV-Doc/contracts/SaveDoc.sol",
  "compiler": {
    "name": "solc",
    "version": "0.8.6+commit.11564f7e.Emscripten.clang"
  },
  "schemaVersion": "3.4.1",
  "updatedAt": "2021-08-09T09:41:36.154Z",
  "devdoc": {
    "kind": "dev",
    "methods": {
      "owner()": {
        "details": "Returns the address of the current owner."
      },
      "renounceOwnership()": {
        "details": "Leaves the contract without owner. It will not be possible to call `onlyOwner` functions anymore. Can only be called by the current owner. NOTE: Renouncing ownership will leave the contract without an owner, thereby removing any functionality that is only available to the owner."
      },
      "transferOwnership(address)": {
        "details": "Transfers ownership of the contract to a new account (`newOwner`). Can only be called by the current owner."
      }
    },
    "version": 1
  },
  "userdoc": {
    "kind": "user",
    "methods": {},
    "version": 1
  }
}