{
  "contractName": "SaveDoc",
  "abi": [
    {
      "inputs": [
        {
          "internalType": "contract DocManager",
          "name": "_docManager",
          "type": "address"
        },
        {
          "internalType": "contract SaveDocToken",
          "name": "_saveDocToken",
          "type": "address"
        },
        {
          "internalType": "contract AccountManager",
          "name": "_accountManager",
          "type": "address"
        }
      ],
      "stateMutability": "nonpayable",
      "type": "constructor"
    },
    {
      "anonymous": false,
      "inputs": [
        {
          "indexed": false,
          "internalType": "address",
          "name": "certifying",
          "type": "address"
        },
        {
          "indexed": false,
          "internalType": "address",
          "name": "applicant",
          "type": "address"
        },
        {
          "indexed": false,
          "internalType": "uint256",
          "name": "tokenID",
          "type": "uint256"
        },
        {
          "indexed": false,
          "internalType": "bool",
          "name": "keepCopy",
          "type": "bool"
        }
      ],
      "name": "AcceptCertificationRequest",
      "type": "event"
    },
    {
      "anonymous": false,
      "inputs": [
        {
          "indexed": false,
          "internalType": "address",
          "name": "newOwner",
          "type": "address"
        },
        {
          "indexed": false,
          "internalType": "uint256",
          "name": "tokenID",
          "type": "uint256"
        }
      ],
      "name": "AcceptTransferDoc",
      "type": "event"
    },
    {
      "anonymous": false,
      "inputs": [
        {
          "indexed": false,
          "internalType": "address",
          "name": "user",
          "type": "address"
        },
        {
          "indexed": false,
          "internalType": "string",
          "name": "newUsername",
          "type": "string"
        }
      ],
      "name": "ChangeUsername",
      "type": "event"
    },
    {
      "anonymous": false,
      "inputs": [
        {
          "indexed": false,
          "internalType": "address",
          "name": "ownerDoc",
          "type": "address"
        },
        {
          "indexed": false,
          "internalType": "uint256",
          "name": "tokenID",
          "type": "uint256"
        },
        {
          "indexed": false,
          "internalType": "bool",
          "name": "forTransfer",
          "type": "bool"
        }
      ],
      "name": "DeleteDocumment",
      "type": "event"
    },
    {
      "anonymous": false,
      "inputs": [
        {
          "indexed": false,
          "internalType": "address",
          "name": "ownerDoc",
          "type": "address"
        },
        {
          "indexed": false,
          "internalType": "uint256",
          "name": "tokenID",
          "type": "uint256"
        }
      ],
      "name": "DeleteMyDocCopy",
      "type": "event"
    },
    {
      "anonymous": false,
      "inputs": [
        {
          "indexed": true,
          "internalType": "address",
          "name": "previousOwner",
          "type": "address"
        },
        {
          "indexed": true,
          "internalType": "address",
          "name": "newOwner",
          "type": "address"
        }
      ],
      "name": "OwnershipTransferred",
      "type": "event"
    },
    {
      "anonymous": false,
      "inputs": [
        {
          "indexed": false,
          "internalType": "address",
          "name": "certifying",
          "type": "address"
        },
        {
          "indexed": false,
          "internalType": "address",
          "name": "applicant",
          "type": "address"
        },
        {
          "indexed": false,
          "internalType": "uint256",
          "name": "tokenID",
          "type": "uint256"
        }
      ],
      "name": "RejectCertificationRequest",
      "type": "event"
    },
    {
      "anonymous": false,
      "inputs": [
        {
          "indexed": false,
          "internalType": "address",
          "name": "applicant",
          "type": "address"
        },
        {
          "indexed": false,
          "internalType": "uint256",
          "name": "tokenID",
          "type": "uint256"
        }
      ],
      "name": "RequestCertification",
      "type": "event"
    },
    {
      "anonymous": false,
      "inputs": [
        {
          "indexed": false,
          "internalType": "address",
          "name": "user",
          "type": "address"
        },
        {
          "indexed": false,
          "internalType": "uint256",
          "name": "tokenID",
          "type": "uint256"
        }
      ],
      "name": "SecureDocument",
      "type": "event"
    },
    {
      "anonymous": false,
      "inputs": [
        {
          "indexed": false,
          "internalType": "address",
          "name": "from",
          "type": "address"
        },
        {
          "indexed": false,
          "internalType": "address",
          "name": "to",
          "type": "address"
        },
        {
          "indexed": false,
          "internalType": "uint256",
          "name": "tokenID",
          "type": "uint256"
        }
      ],
      "name": "ShareDoc",
      "type": "event"
    },
    {
      "anonymous": false,
      "inputs": [
        {
          "indexed": false,
          "internalType": "address",
          "name": "newUser",
          "type": "address"
        },
        {
          "indexed": false,
          "internalType": "string",
          "name": "name",
          "type": "string"
        },
        {
          "indexed": false,
          "internalType": "string",
          "name": "pubkey",
          "type": "string"
        }
      ],
      "name": "Subscribe",
      "type": "event"
    },
    {
      "anonymous": false,
      "inputs": [
        {
          "indexed": false,
          "internalType": "address",
          "name": "newUser",
          "type": "address"
        },
        {
          "indexed": false,
          "internalType": "string",
          "name": "pubkey",
          "type": "string"
        }
      ],
      "name": "SubscribeAuthority",
      "type": "event"
    },
    {
      "anonymous": false,
      "inputs": [
        {
          "indexed": false,
          "internalType": "address",
          "name": "from",
          "type": "address"
        },
        {
          "indexed": false,
          "internalType": "address",
          "name": "to",
          "type": "address"
        },
        {
          "indexed": false,
          "internalType": "uint256",
          "name": "tokenID",
          "type": "uint256"
        }
      ],
      "name": "TransferDocument",
      "type": "event"
    },
    {
      "anonymous": false,
      "inputs": [
        {
          "indexed": false,
          "internalType": "address",
          "name": "user",
          "type": "address"
        }
      ],
      "name": "Unsubcribe",
      "type": "event"
    },
    {
      "inputs": [],
      "name": "owner",
      "outputs": [
        {
          "internalType": "address",
          "name": "",
          "type": "address"
        }
      ],
      "stateMutability": "view",
      "type": "function",
      "constant": true
    },
    {
      "inputs": [],
      "name": "renounceOwnership",
      "outputs": [],
      "stateMutability": "nonpayable",
      "type": "function"
    },
    {
      "inputs": [
        {
          "internalType": "address",
          "name": "newOwner",
          "type": "address"
        }
      ],
      "name": "transferOwnership",
      "outputs": [],
      "stateMutability": "nonpayable",
      "type": "function"
    },
    {
      "inputs": [
        {
          "internalType": "string",
          "name": "name",
          "type": "string"
        },
        {
          "internalType": "string",
          "name": "pubKey",
          "type": "string"
        },
        {
          "internalType": "string",
          "name": "passwordMaster",
          "type": "string"
        }
      ],
      "name": "subscribe",
      "outputs": [],
      "stateMutability": "nonpayable",
      "type": "function"
    },
    {
      "inputs": [
        {
          "internalType": "address",
          "name": "authority",
          "type": "address"
        },
        {
          "internalType": "string",
          "name": "name",
          "type": "string"
        },
        {
          "internalType": "string",
          "name": "pubKey",
          "type": "string"
        },
        {
          "internalType": "string",
          "name": "passwordMaster",
          "type": "string"
        }
      ],
      "name": "subscribeAuthority",
      "outputs": [],
      "stateMutability": "nonpayable",
      "type": "function"
    },
    {
      "inputs": [],
      "name": "viewMyProfil",
      "outputs": [
        {
          "components": [
            {
              "internalType": "string",
              "name": "name",
              "type": "string"
            },
            {
              "internalType": "string",
              "name": "publicKey",
              "type": "string"
            },
            {
              "internalType": "bool",
              "name": "isAuthority",
              "type": "bool"
            },
            {
              "internalType": "bool",
              "name": "exist",
              "type": "bool"
            }
          ],
          "internalType": "struct SaveDocStruct.User",
          "name": "",
          "type": "tuple"
        }
      ],
      "stateMutability": "view",
      "type": "function",
      "constant": true
    },
    {
      "inputs": [
        {
          "internalType": "address",
          "name": "_address",
          "type": "address"
        }
      ],
      "name": "viewProfil",
      "outputs": [
        {
          "components": [
            {
              "internalType": "string",
              "name": "name",
              "type": "string"
            },
            {
              "internalType": "string",
              "name": "publicKey",
              "type": "string"
            },
            {
              "internalType": "bool",
              "name": "isAuthority",
              "type": "bool"
            },
            {
              "internalType": "bool",
              "name": "exist",
              "type": "bool"
            }
          ],
          "internalType": "struct SaveDocStruct.User",
          "name": "",
          "type": "tuple"
        }
      ],
      "stateMutability": "view",
      "type": "function",
      "constant": true
    },
    {
      "inputs": [],
      "name": "getMyPasswordMaster",
      "outputs": [
        {
          "internalType": "string",
          "name": "",
          "type": "string"
        }
      ],
      "stateMutability": "view",
      "type": "function",
      "constant": true
    },
    {
      "inputs": [
        {
          "internalType": "string",
          "name": "name",
          "type": "string"
        }
      ],
      "name": "changeMyName",
      "outputs": [],
      "stateMutability": "nonpayable",
      "type": "function"
    },
    {
      "inputs": [],
      "name": "unsubscribe",
      "outputs": [],
      "stateMutability": "nonpayable",
      "type": "function"
    },
    {
      "inputs": [
        {
          "internalType": "string",
          "name": "tokenName",
          "type": "string"
        },
        {
          "internalType": "string",
          "name": "tokenURI",
          "type": "string"
        },
        {
          "internalType": "string",
          "name": "tokenMime",
          "type": "string"
        },
        {
          "internalType": "uint256",
          "name": "tokenLength",
          "type": "uint256"
        },
        {
          "internalType": "string",
          "name": "filePath",
          "type": "string"
        },
        {
          "internalType": "string",
          "name": "passwordEncrypted",
          "type": "string"
        },
        {
          "internalType": "string",
          "name": "hashNFT",
          "type": "string"
        }
      ],
      "name": "secureDocument",
      "outputs": [
        {
          "components": [
            {
              "internalType": "uint256",
              "name": "tokenID",
              "type": "uint256"
            },
            {
              "internalType": "uint256",
              "name": "fileSize",
              "type": "uint256"
            },
            {
              "internalType": "string",
              "name": "filename",
              "type": "string"
            },
            {
              "internalType": "string",
              "name": "fileMimeType",
              "type": "string"
            },
            {
              "internalType": "uint256",
              "name": "dateAdd",
              "type": "uint256"
            },
            {
              "internalType": "string",
              "name": "filePath",
              "type": "string"
            },
            {
              "internalType": "address[]",
              "name": "certifying",
              "type": "address[]"
            },
            {
              "internalType": "string",
              "name": "tokenURI",
              "type": "string"
            },
            {
              "internalType": "string",
              "name": "passwordEncrypted",
              "type": "string"
            },
            {
              "internalType": "enum SaveDocStruct.TypeDoc",
              "name": "typeNft",
              "type": "uint8"
            }
          ],
          "internalType": "struct SaveDocStruct.Document",
          "name": "",
          "type": "tuple"
        }
      ],
      "stateMutability": "nonpayable",
      "type": "function"
    },
    {
      "inputs": [
        {
          "internalType": "uint256",
          "name": "tokenID",
          "type": "uint256"
        },
        {
          "internalType": "bool",
          "name": "forTransfer",
          "type": "bool"
        }
      ],
      "name": "delMyDocument",
      "outputs": [],
      "stateMutability": "nonpayable",
      "type": "function"
    },
    {
      "inputs": [
        {
          "internalType": "uint256",
          "name": "tokenID",
          "type": "uint256"
        }
      ],
      "name": "getTokenURI",
      "outputs": [
        {
          "internalType": "string",
          "name": "",
          "type": "string"
        }
      ],
      "stateMutability": "view",
      "type": "function",
      "constant": true
    },
    {
      "inputs": [
        {
          "internalType": "address",
          "name": "to",
          "type": "address"
        },
        {
          "internalType": "uint256",
          "name": "tokenID",
          "type": "uint256"
        },
        {
          "internalType": "string",
          "name": "tokenURITmp",
          "type": "string"
        }
      ],
      "name": "transferDoc",
      "outputs": [],
      "stateMutability": "nonpayable",
      "type": "function"
    },
    {
      "inputs": [
        {
          "internalType": "uint256",
          "name": "tokenID",
          "type": "uint256"
        },
        {
          "internalType": "address",
          "name": "to",
          "type": "address"
        },
        {
          "internalType": "string",
          "name": "tokenURI",
          "type": "string"
        }
      ],
      "name": "shareDoc",
      "outputs": [],
      "stateMutability": "nonpayable",
      "type": "function"
    },
    {
      "inputs": [
        {
          "internalType": "uint256",
          "name": "tokenID",
          "type": "uint256"
        },
        {
          "internalType": "string",
          "name": "newTokenURI",
          "type": "string"
        },
        {
          "internalType": "string",
          "name": "passwordEncrypted",
          "type": "string"
        }
      ],
      "name": "acceptNewDoc",
      "outputs": [],
      "stateMutability": "nonpayable",
      "type": "function"
    },
    {
      "inputs": [
        {
          "internalType": "uint256",
          "name": "tokenID",
          "type": "uint256"
        }
      ],
      "name": "delCopyDocShared",
      "outputs": [],
      "stateMutability": "nonpayable",
      "type": "function"
    },
    {
      "inputs": [
        {
          "internalType": "uint256",
          "name": "tokenID",
          "type": "uint256"
        },
        {
          "internalType": "string",
          "name": "tokenURI",
          "type": "string"
        },
        {
          "internalType": "address",
          "name": "certifying",
          "type": "address"
        }
      ],
      "name": "requestCertification",
      "outputs": [],
      "stateMutability": "nonpayable",
      "type": "function"
    },
    {
      "inputs": [],
      "name": "viewMyDocs",
      "outputs": [
        {
          "components": [
            {
              "internalType": "uint256",
              "name": "tokenID",
              "type": "uint256"
            },
            {
              "internalType": "uint256",
              "name": "fileSize",
              "type": "uint256"
            },
            {
              "internalType": "string",
              "name": "filename",
              "type": "string"
            },
            {
              "internalType": "string",
              "name": "fileMimeType",
              "type": "string"
            },
            {
              "internalType": "uint256",
              "name": "dateAdd",
              "type": "uint256"
            },
            {
              "internalType": "string",
              "name": "filePath",
              "type": "string"
            },
            {
              "internalType": "address[]",
              "name": "certifying",
              "type": "address[]"
            },
            {
              "internalType": "string",
              "name": "tokenURI",
              "type": "string"
            },
            {
              "internalType": "string",
              "name": "passwordEncrypted",
              "type": "string"
            },
            {
              "internalType": "enum SaveDocStruct.TypeDoc",
              "name": "typeNft",
              "type": "uint8"
            }
          ],
          "internalType": "struct SaveDocStruct.Document[]",
          "name": "",
          "type": "tuple[]"
        }
      ],
      "stateMutability": "view",
      "type": "function",
      "constant": true
    },
    {
      "inputs": [],
      "name": "viewMyCopyDocs",
      "outputs": [
        {
          "components": [
            {
              "internalType": "uint256",
              "name": "tokenID",
              "type": "uint256"
            },
            {
              "internalType": "uint256",
              "name": "fileSize",
              "type": "uint256"
            },
            {
              "internalType": "string",
              "name": "filename",
              "type": "string"
            },
            {
              "internalType": "string",
              "name": "fileMimeType",
              "type": "string"
            },
            {
              "internalType": "uint256",
              "name": "dateAdd",
              "type": "uint256"
            },
            {
              "internalType": "string",
              "name": "filePath",
              "type": "string"
            },
            {
              "internalType": "address[]",
              "name": "certifying",
              "type": "address[]"
            },
            {
              "internalType": "string",
              "name": "tokenURI",
              "type": "string"
            },
            {
              "internalType": "string",
              "name": "passwordEncrypted",
              "type": "string"
            },
            {
              "internalType": "enum SaveDocStruct.TypeDoc",
              "name": "typeNft",
              "type": "uint8"
            }
          ],
          "internalType": "struct SaveDocStruct.Document[]",
          "name": "",
          "type": "tuple[]"
        }
      ],
      "stateMutability": "view",
      "type": "function",
      "constant": true
    },
    {
      "inputs": [],
      "name": "viewDocPendingTransfer",
      "outputs": [
        {
          "components": [
            {
              "internalType": "uint256",
              "name": "tokenID",
              "type": "uint256"
            },
            {
              "internalType": "uint256",
              "name": "fileSize",
              "type": "uint256"
            },
            {
              "internalType": "string",
              "name": "filename",
              "type": "string"
            },
            {
              "internalType": "string",
              "name": "fileMimeType",
              "type": "string"
            },
            {
              "internalType": "uint256",
              "name": "dateAdd",
              "type": "uint256"
            },
            {
              "internalType": "string",
              "name": "filePath",
              "type": "string"
            },
            {
              "internalType": "address[]",
              "name": "certifying",
              "type": "address[]"
            },
            {
              "internalType": "string",
              "name": "tokenURI",
              "type": "string"
            },
            {
              "internalType": "string",
              "name": "passwordEncrypted",
              "type": "string"
            },
            {
              "internalType": "enum SaveDocStruct.TypeDoc",
              "name": "typeNft",
              "type": "uint8"
            }
          ],
          "internalType": "struct SaveDocStruct.Document[]",
          "name": "",
          "type": "tuple[]"
        }
      ],
      "stateMutability": "view",
      "type": "function",
      "constant": true
    },
    {
      "inputs": [],
      "name": "viewDocCertified",
      "outputs": [
        {
          "components": [
            {
              "internalType": "uint256",
              "name": "tokenID",
              "type": "uint256"
            },
            {
              "internalType": "uint256",
              "name": "fileSize",
              "type": "uint256"
            },
            {
              "internalType": "string",
              "name": "filename",
              "type": "string"
            },
            {
              "internalType": "string",
              "name": "fileMimeType",
              "type": "string"
            },
            {
              "internalType": "uint256",
              "name": "dateAdd",
              "type": "uint256"
            },
            {
              "internalType": "string",
              "name": "filePath",
              "type": "string"
            },
            {
              "internalType": "address[]",
              "name": "certifying",
              "type": "address[]"
            },
            {
              "internalType": "string",
              "name": "tokenURI",
              "type": "string"
            },
            {
              "internalType": "string",
              "name": "passwordEncrypted",
              "type": "string"
            },
            {
              "internalType": "enum SaveDocStruct.TypeDoc",
              "name": "typeNft",
              "type": "uint8"
            }
          ],
          "internalType": "struct SaveDocStruct.Document[]",
          "name": "",
          "type": "tuple[]"
        }
      ],
      "stateMutability": "view",
      "type": "function",
      "constant": true
    },
    {
      "inputs": [],
      "name": "viewCertificationRequest",
      "outputs": [
        {
          "components": [
            {
              "internalType": "address",
              "name": "applicant",
              "type": "address"
            },
            {
              "internalType": "uint256",
              "name": "tokenID",
              "type": "uint256"
            },
            {
              "internalType": "uint256",
              "name": "index",
              "type": "uint256"
            }
          ],
          "internalType": "struct SaveDocStruct.CertificationRequest[]",
          "name": "",
          "type": "tuple[]"
        }
      ],
      "stateMutability": "view",
      "type": "function",
      "constant": true
    },
    {
      "inputs": [
        {
          "components": [
            {
              "internalType": "address",
              "name": "applicant",
              "type": "address"
            },
            {
              "internalType": "uint256",
              "name": "tokenID",
              "type": "uint256"
            },
            {
              "internalType": "uint256",
              "name": "index",
              "type": "uint256"
            }
          ],
          "internalType": "struct SaveDocStruct.CertificationRequest",
          "name": "request",
          "type": "tuple"
        },
        {
          "internalType": "string",
          "name": "hashNFT",
          "type": "string"
        },
        {
          "internalType": "bool",
          "name": "keepCopyDoc",
          "type": "bool"
        }
      ],
      "name": "acceptCertificationRequest",
      "outputs": [],
      "stateMutability": "nonpayable",
      "type": "function"
    },
    {
      "inputs": [
        {
          "components": [
            {
              "internalType": "address",
              "name": "applicant",
              "type": "address"
            },
            {
              "internalType": "uint256",
              "name": "tokenID",
              "type": "uint256"
            },
            {
              "internalType": "uint256",
              "name": "index",
              "type": "uint256"
            }
          ],
          "internalType": "struct SaveDocStruct.CertificationRequest",
          "name": "request",
          "type": "tuple"
        }
      ],
      "name": "rejectCertificationRequest",
      "outputs": [],
      "stateMutability": "nonpayable",
      "type": "function"
    }
  ],
  "bytecode": "0x60806040523480156200001157600080fd5b50604051620053c8380380620053c8833981810160405281019062000037919062000234565b620000576200004b6200012360201b60201c565b6200012b60201b60201c565b82600360006101000a81548173ffffffffffffffffffffffffffffffffffffffff021916908373ffffffffffffffffffffffffffffffffffffffff16021790555081600260006101000a81548173ffffffffffffffffffffffffffffffffffffffff021916908373ffffffffffffffffffffffffffffffffffffffff16021790555080600460006101000a81548173ffffffffffffffffffffffffffffffffffffffff021916908373ffffffffffffffffffffffffffffffffffffffff16021790555050505062000353565b600033905090565b60008060009054906101000a900473ffffffffffffffffffffffffffffffffffffffff169050816000806101000a81548173ffffffffffffffffffffffffffffffffffffffff021916908373ffffffffffffffffffffffffffffffffffffffff1602179055508173ffffffffffffffffffffffffffffffffffffffff168173ffffffffffffffffffffffffffffffffffffffff167f8be0079c531659141344cd1fd0a4f28419497f9722a3daafe3b4186f6b6457e060405160405180910390a35050565b600081519050620002008162000305565b92915050565b60008151905062000217816200031f565b92915050565b6000815190506200022e8162000339565b92915050565b60008060006060848603121562000250576200024f62000300565b5b6000620002608682870162000206565b935050602062000273868287016200021d565b92505060406200028686828701620001ef565b9150509250925092565b60006200029d82620002e0565b9050919050565b6000620002b18262000290565b9050919050565b6000620002c58262000290565b9050919050565b6000620002d98262000290565b9050919050565b600073ffffffffffffffffffffffffffffffffffffffff82169050919050565b600080fd5b6200031081620002a4565b81146200031c57600080fd5b50565b6200032a81620002b8565b81146200033657600080fd5b50565b6200034481620002cc565b81146200035057600080fd5b50565b61506580620003636000396000f3fe608060405234801561001057600080fd5b50600436106101735760003560e01c806393eeaef0116100de578063c991607e11610097578063f260d41511610071578063f260d415146103fe578063f2fde38b1461041a578063f42a119e14610436578063fcae44841461045257610173565b8063c991607e14610392578063caed5560146103b0578063cfba8f91146103e057610173565b806393eeaef0146102d2578063940c1bc8146102ee578063b79962521461031e578063bf5665991461033c578063c7714c3414610358578063c7d8eaa31461037457610173565b80636fbf73fd116101305780636fbf73fd14610236578063715018a61461025457806375ece0dc1461025e5780638a5fd6061461027c5780638da5cb5b146102985780638fde68c5146102b657610173565b80632d5dbeb114610178578063357c2f54146101945780633bb3a24d146101b257806342cd7236146101e257806345f0abfe146101fe5780635c1ef4421461021a575b600080fd5b610192600480360381019061018d9190613f05565b61045c565b005b61019c6106dc565b6040516101a9919061496a565b60405180910390f35b6101cc60048036038101906101c79190613d8d565b610793565b6040516101d9919061498c565b60405180910390f35b6101fc60048036038101906101f79190613c5f565b610966565b005b61021860048036038101906102139190613de7565b610aff565b005b610234600480360381019061022f9190613e56565b610ddb565b005b61023e611079565b60405161024b919061496a565b60405180910390f35b61025c611130565b005b6102666111b8565b604051610273919061496a565b60405180910390f35b61029660048036038101906102919190613e96565b61126f565b005b6102a0611695565b6040516102ad9190614544565b60405180910390f35b6102d060048036038101906102cb919061383c565b6116be565b005b6102ec60048036038101906102e79190613d8d565b611832565b005b61030860048036038101906103039190613b15565b611ac9565b6040516103159190614a2e565b60405180910390f35b610326611d83565b604051610333919061496a565b60405180910390f35b610356600480360381019061035191906139dc565b611e3a565b005b610372600480360381019061036d9190613c8c565b611f2b565b005b61037c612180565b6040516103899190614948565b60405180910390f35b61039a612286565b6040516103a79190614a50565b60405180910390f35b6103ca60048036038101906103c591906137e2565b612343565b6040516103d79190614a50565b60405180910390f35b6103e8612402565b6040516103f5919061498c565b60405180910390f35b61041860048036038101906104139190613a6e565b6124b9565b005b610434600480360381019061042f91906137e2565b6125b2565b005b610450600480360381019061044b91906138f7565b6126aa565b005b61045a612a22565b005b823373ffffffffffffffffffffffffffffffffffffffff16600260009054906101000a900473ffffffffffffffffffffffffffffffffffffffff1673ffffffffffffffffffffffffffffffffffffffff16636352211e836040518263ffffffff1660e01b81526004016104cf9190614a72565b60206040518083038186803b1580156104e757600080fd5b505afa1580156104fb573d6000803e3d6000fd5b505050506040513d601f19601f8201168201806040525081019061051f919061380f565b73ffffffffffffffffffffffffffffffffffffffff1614610575576040517f08c379a000000000000000000000000000000000000000000000000000000000815260040161056c90614a0e565b60405180910390fd5b600360009054906101000a900473ffffffffffffffffffffffffffffffffffffffff1673ffffffffffffffffffffffffffffffffffffffff16638c6acc51336003600088876040518663ffffffff1660e01b81526004016105da95949392919061468f565b600060405180830381600087803b1580156105f457600080fd5b505af1158015610608573d6000803e3d6000fd5b50505050600260009054906101000a900473ffffffffffffffffffffffffffffffffffffffff1673ffffffffffffffffffffffffffffffffffffffff16632682b0e48585336040518463ffffffff1660e01b815260040161066b93929190614ab6565b600060405180830381600087803b15801561068557600080fd5b505af1158015610699573d6000803e3d6000fd5b505050507f41398dd25cfa0774990db425ab8dc3865eb456073501bdeb839bb236a135dba533856040516106ce929190614847565b60405180910390a150505050565b6060600360009054906101000a900473ffffffffffffffffffffffffffffffffffffffff1673ffffffffffffffffffffffffffffffffffffffff166304e5b45c336040518263ffffffff1660e01b81526004016107399190614544565b60006040518083038186803b15801561075157600080fd5b505afa158015610765573d6000803e3d6000fd5b505050506040513d6000823e3d601f19601f8201168201806040525081019061078e9190613966565b905090565b6060813373ffffffffffffffffffffffffffffffffffffffff16600260009054906101000a900473ffffffffffffffffffffffffffffffffffffffff1673ffffffffffffffffffffffffffffffffffffffff16636352211e836040518263ffffffff1660e01b81526004016108089190614a72565b60206040518083038186803b15801561082057600080fd5b505afa158015610834573d6000803e3d6000fd5b505050506040513d601f19601f82011682018060405250810190610858919061380f565b73ffffffffffffffffffffffffffffffffffffffff16146108ae576040517f08c379a00000000000000000000000000000000000000000000000000000000081526004016108a590614a0e565b60405180910390fd5b600260009054906101000a900473ffffffffffffffffffffffffffffffffffffffff1673ffffffffffffffffffffffffffffffffffffffff1663c87b56dd846040518263ffffffff1660e01b81526004016109099190614a72565b60006040518083038186803b15801561092157600080fd5b505afa158015610935573d6000803e3d6000fd5b505050506040513d6000823e3d601f19601f8201168201806040525081019061095e9190613a25565b915050919050565b610974338260400151612cee565b600360009054906101000a900473ffffffffffffffffffffffffffffffffffffffff1673ffffffffffffffffffffffffffffffffffffffff16634531817d336002600360009054906101000a900473ffffffffffffffffffffffffffffffffffffffff1673ffffffffffffffffffffffffffffffffffffffff16637cc24f2d33600288602001516040518463ffffffff1660e01b8152600401610a1993929190614741565b60206040518083038186803b158015610a3157600080fd5b505afa158015610a45573d6000803e3d6000fd5b505050506040513d601f19601f82011682018060405250810190610a699190613dba565b6040518463ffffffff1660e01b8152600401610a8793929190614741565b600060405180830381600087803b158015610aa157600080fd5b505af1158015610ab5573d6000803e3d6000fd5b505050507fa912d4fcf92fbf5ee375612c5bc2e36a389d851e05a910bf21e0beda6c8d89693382600001518360200151604051610af49392919061455f565b60405180910390a150565b823373ffffffffffffffffffffffffffffffffffffffff16600260009054906101000a900473ffffffffffffffffffffffffffffffffffffffff1673ffffffffffffffffffffffffffffffffffffffff16636352211e836040518263ffffffff1660e01b8152600401610b729190614a72565b60206040518083038186803b158015610b8a57600080fd5b505afa158015610b9e573d6000803e3d6000fd5b505050506040513d601f19601f82011682018060405250810190610bc2919061380f565b73ffffffffffffffffffffffffffffffffffffffff1614610c18576040517f08c379a0000000000000000000000000000000000000000000000000000000008152600401610c0f90614a0e565b60405180910390fd5b82600460009054906101000a900473ffffffffffffffffffffffffffffffffffffffff1673ffffffffffffffffffffffffffffffffffffffff1663a1abffee826040518263ffffffff1660e01b8152600401610c749190614544565b60206040518083038186803b158015610c8c57600080fd5b505afa158015610ca0573d6000803e3d6000fd5b505050506040513d601f19601f82011682018060405250810190610cc491906139af565b610d03576040517f08c379a0000000000000000000000000000000000000000000000000000000008152600401610cfa906149ce565b60405180910390fd5b600360009054906101000a900473ffffffffffffffffffffffffffffffffffffffff1673ffffffffffffffffffffffffffffffffffffffff166371499a7b3386888760016040518663ffffffff1660e01b8152600401610d679594939291906145db565b600060405180830381600087803b158015610d8157600080fd5b505af1158015610d95573d6000803e3d6000fd5b505050507f30ef45173d7b3f0134eb34eed874d331ff64fe422f3a8881a8353f7fe27a98fd338587604051610dcc9392919061455f565b60405180910390a15050505050565b813373ffffffffffffffffffffffffffffffffffffffff16600260009054906101000a900473ffffffffffffffffffffffffffffffffffffffff1673ffffffffffffffffffffffffffffffffffffffff16636352211e836040518263ffffffff1660e01b8152600401610e4e9190614a72565b60206040518083038186803b158015610e6657600080fd5b505afa158015610e7a573d6000803e3d6000fd5b505050506040513d601f19601f82011682018060405250810190610e9e919061380f565b73ffffffffffffffffffffffffffffffffffffffff1614610ef4576040517f08c379a0000000000000000000000000000000000000000000000000000000008152600401610eeb90614a0e565b60405180910390fd5b600360009054906101000a900473ffffffffffffffffffffffffffffffffffffffff1673ffffffffffffffffffffffffffffffffffffffff166389ed5fa033856040518363ffffffff1660e01b8152600401610f51929190614847565b602060405180830381600087803b158015610f6b57600080fd5b505af1158015610f7f573d6000803e3d6000fd5b505050506040513d601f19601f82011682018060405250810190610fa391906139af565b508161103957600260009054906101000a900473ffffffffffffffffffffffffffffffffffffffff1673ffffffffffffffffffffffffffffffffffffffff1663fcd3533c84336040518363ffffffff1660e01b8152600401611006929190614a8d565b600060405180830381600087803b15801561102057600080fd5b505af1158015611034573d6000803e3d6000fd5b505050505b7f25d4d887d1cdf2f4a7386b7e0d00aa319d66a6963a77083e69758fc3cb1ccebf33848460405161106c93929190614870565b60405180910390a1505050565b6060600360009054906101000a900473ffffffffffffffffffffffffffffffffffffffff1673ffffffffffffffffffffffffffffffffffffffff1663219e657b336040518263ffffffff1660e01b81526004016110d69190614544565b60006040518083038186803b1580156110ee57600080fd5b505afa158015611102573d6000803e3d6000fd5b505050506040513d6000823e3d601f19601f8201168201806040525081019061112b9190613966565b905090565b611138612f85565b73ffffffffffffffffffffffffffffffffffffffff16611156611695565b73ffffffffffffffffffffffffffffffffffffffff16146111ac576040517f08c379a00000000000000000000000000000000000000000000000000000000081526004016111a3906149ee565b60405180910390fd5b6111b66000612f8d565b565b6060600360009054906101000a900473ffffffffffffffffffffffffffffffffffffffff1673ffffffffffffffffffffffffffffffffffffffff1663bbed9457336040518263ffffffff1660e01b81526004016112159190614544565b60006040518083038186803b15801561122d57600080fd5b505afa158015611241573d6000803e3d6000fd5b505050506040513d6000823e3d601f19601f8201168201806040525081019061126a9190613966565b905090565b823373ffffffffffffffffffffffffffffffffffffffff16600260009054906101000a900473ffffffffffffffffffffffffffffffffffffffff1673ffffffffffffffffffffffffffffffffffffffff16636352211e836040518263ffffffff1660e01b81526004016112e29190614a72565b60206040518083038186803b1580156112fa57600080fd5b505afa15801561130e573d6000803e3d6000fd5b505050506040513d601f19601f82011682018060405250810190611332919061380f565b73ffffffffffffffffffffffffffffffffffffffff1614611388576040517f08c379a000000000000000000000000000000000000000000000000000000000815260040161137f90614a0e565b60405180910390fd5b81600460009054906101000a900473ffffffffffffffffffffffffffffffffffffffff1673ffffffffffffffffffffffffffffffffffffffff1663a1abffee826040518263ffffffff1660e01b81526004016113e49190614544565b60206040518083038186803b1580156113fc57600080fd5b505afa158015611410573d6000803e3d6000fd5b505050506040513d601f19601f8201168201806040525081019061143491906139af565b611473576040517f08c379a000000000000000000000000000000000000000000000000000000000815260040161146a906149ce565b60405180910390fd5b61147b61319b565b600360009054906101000a900473ffffffffffffffffffffffffffffffffffffffff1673ffffffffffffffffffffffffffffffffffffffff166371499a7b3386898960026040518663ffffffff1660e01b81526004016114df9594939291906145db565b600060405180830381600087803b1580156114f957600080fd5b505af115801561150d573d6000803e3d6000fd5b5050505060405180606001604052803373ffffffffffffffffffffffffffffffffffffffff168152602001878152602001600160008773ffffffffffffffffffffffffffffffffffffffff1673ffffffffffffffffffffffffffffffffffffffff168152602001908152602001600020805490508152509050600160008573ffffffffffffffffffffffffffffffffffffffff1673ffffffffffffffffffffffffffffffffffffffff16815260200190815260200160002081908060018154018082558091505060019003906000526020600020906003020160009091909190915060008201518160000160006101000a81548173ffffffffffffffffffffffffffffffffffffffff021916908373ffffffffffffffffffffffffffffffffffffffff160217905550602082015181600101556040820151816002015550507fdcd8480bd34c91f1f2adc92afe46034c8808591541fd4d1fa5cbdcb152cc8fec81600001518260200151604051611685929190614847565b60405180910390a1505050505050565b60008060009054906101000a900473ffffffffffffffffffffffffffffffffffffffff16905090565b6116c6612f85565b73ffffffffffffffffffffffffffffffffffffffff166116e4611695565b73ffffffffffffffffffffffffffffffffffffffff161461173a576040517f08c379a0000000000000000000000000000000000000000000000000000000008152600401611731906149ee565b60405180910390fd5b600460009054906101000a900473ffffffffffffffffffffffffffffffffffffffff1673ffffffffffffffffffffffffffffffffffffffff1663c6361c22858585856040518563ffffffff1660e01b815260040161179b94939291906147ed565b600060405180830381600087803b1580156117b557600080fd5b505af11580156117c9573d6000803e3d6000fd5b505050506040513d6000823e3d601f19601f820116820180604052508101906117f29190613d44565b507f8d9024430453f128ca4f7678ee38e6a2024a5f36fa204933588a69b8fe8cc0c08483604051611824929190614778565b60405180910390a150505050565b803373ffffffffffffffffffffffffffffffffffffffff16600260009054906101000a900473ffffffffffffffffffffffffffffffffffffffff1673ffffffffffffffffffffffffffffffffffffffff16636352211e836040518263ffffffff1660e01b81526004016118a59190614a72565b60206040518083038186803b1580156118bd57600080fd5b505afa1580156118d1573d6000803e3d6000fd5b505050506040513d601f19601f820116820180604052508101906118f5919061380f565b73ffffffffffffffffffffffffffffffffffffffff161461194b576040517f08c379a000000000000000000000000000000000000000000000000000000000815260040161194290614a0e565b60405180910390fd5b600360009054906101000a900473ffffffffffffffffffffffffffffffffffffffff1673ffffffffffffffffffffffffffffffffffffffff16634531817d336001600360009054906101000a900473ffffffffffffffffffffffffffffffffffffffff1673ffffffffffffffffffffffffffffffffffffffff16637cc24f2d336001896040518463ffffffff1660e01b81526004016119ec93929190614741565b60206040518083038186803b158015611a0457600080fd5b505afa158015611a18573d6000803e3d6000fd5b505050506040513d601f19601f82011682018060405250810190611a3c9190613dba565b6040518463ffffffff1660e01b8152600401611a5a93929190614741565b600060405180830381600087803b158015611a7457600080fd5b505af1158015611a88573d6000803e3d6000fd5b505050507fa19d981f41b819741b3955b6e01294e09d0e45d35bebad9b435a433adde2d5583383604051611abd929190614847565b60405180910390a15050565b611ad16131d2565b33600460009054906101000a900473ffffffffffffffffffffffffffffffffffffffff1673ffffffffffffffffffffffffffffffffffffffff1663a1abffee826040518263ffffffff1660e01b8152600401611b2d9190614544565b60206040518083038186803b158015611b4557600080fd5b505afa158015611b59573d6000803e3d6000fd5b505050506040513d601f19601f82011682018060405250810190611b7d91906139af565b611bbc576040517f08c379a0000000000000000000000000000000000000000000000000000000008152600401611bb3906149ce565b60405180910390fd5b6000611bc66131d2565b600260009054906101000a900473ffffffffffffffffffffffffffffffffffffffff1673ffffffffffffffffffffffffffffffffffffffff1663d0def521338c6040518363ffffffff1660e01b8152600401611c23929190614778565b602060405180830381600087803b158015611c3d57600080fd5b505af1158015611c51573d6000803e3d6000fd5b505050506040513d601f19601f82011682018060405250810190611c759190613dba565b9150600360009054906101000a900473ffffffffffffffffffffffffffffffffffffffff1673ffffffffffffffffffffffffffffffffffffffff16639643062c33848e8d8d8d8d8d6040518963ffffffff1660e01b8152600401611ce09897969594939291906148a7565b600060405180830381600087803b158015611cfa57600080fd5b505af1158015611d0e573d6000803e3d6000fd5b505050506040513d6000823e3d601f19601f82011682018060405250810190611d379190613cfb565b90507fba21b505ffad1eade4edf87dec4f6dae4552ba705cb5188e82041dc02171a7853383604051611d6a929190614847565b60405180910390a1809350505050979650505050505050565b6060600360009054906101000a900473ffffffffffffffffffffffffffffffffffffffff1673ffffffffffffffffffffffffffffffffffffffff1663d83e2027336040518263ffffffff1660e01b8152600401611de09190614544565b60006040518083038186803b158015611df857600080fd5b505afa158015611e0c573d6000803e3d6000fd5b505050506040513d6000823e3d601f19601f82011682018060405250810190611e359190613966565b905090565b600460009054906101000a900473ffffffffffffffffffffffffffffffffffffffff1673ffffffffffffffffffffffffffffffffffffffff16633f1a51b833836040518363ffffffff1660e01b8152600401611e97929190614778565b600060405180830381600087803b158015611eb157600080fd5b505af1158015611ec5573d6000803e3d6000fd5b505050506040513d6000823e3d601f19601f82011682018060405250810190611eee9190613d44565b507f3510d9fd1bdaa96909e4f9fcd057c39ee3ee4647521258d952d64974a8e052a83382604051611f20929190614778565b60405180910390a150565b611f3e8360000151846020015184613051565b611f4c338460400151612cee565b8015611ff057600360009054906101000a900473ffffffffffffffffffffffffffffffffffffffff1673ffffffffffffffffffffffffffffffffffffffff16638c6acc51336002600187602001516040518563ffffffff1660e01b8152600401611fb994939291906146e9565b600060405180830381600087803b158015611fd357600080fd5b505af1158015611fe7573d6000803e3d6000fd5b50505050612136565b600360009054906101000a900473ffffffffffffffffffffffffffffffffffffffff1673ffffffffffffffffffffffffffffffffffffffff16634531817d336002600360009054906101000a900473ffffffffffffffffffffffffffffffffffffffff1673ffffffffffffffffffffffffffffffffffffffff16637cc24f2d3360028a602001516040518463ffffffff1660e01b815260040161209593929190614741565b60206040518083038186803b1580156120ad57600080fd5b505afa1580156120c1573d6000803e3d6000fd5b505050506040513d601f19601f820116820180604052508101906120e59190613dba565b6040518463ffffffff1660e01b815260040161210393929190614741565b600060405180830381600087803b15801561211d57600080fd5b505af1158015612131573d6000803e3d6000fd5b505050505b7ff0f8c7ba94a353f8e6a599551096a917b2c8e83503b929a736d549ca8b3fb1843384600001518560200151846040516121739493929190614596565b60405180910390a1505050565b6060600160003373ffffffffffffffffffffffffffffffffffffffff1673ffffffffffffffffffffffffffffffffffffffff168152602001908152602001600020805480602002602001604051908101604052809291908181526020016000905b8282101561227d57838290600052602060002090600302016040518060600160405290816000820160009054906101000a900473ffffffffffffffffffffffffffffffffffffffff1673ffffffffffffffffffffffffffffffffffffffff1673ffffffffffffffffffffffffffffffffffffffff16815260200160018201548152602001600282015481525050815260200190600101906121e1565b50505050905090565b61228e613237565b600460009054906101000a900473ffffffffffffffffffffffffffffffffffffffff1673ffffffffffffffffffffffffffffffffffffffff16636f77926b336040518263ffffffff1660e01b81526004016122e99190614544565b60006040518083038186803b15801561230157600080fd5b505afa158015612315573d6000803e3d6000fd5b505050506040513d6000823e3d601f19601f8201168201806040525081019061233e9190613d44565b905090565b61234b613237565b600460009054906101000a900473ffffffffffffffffffffffffffffffffffffffff1673ffffffffffffffffffffffffffffffffffffffff16636f77926b836040518263ffffffff1660e01b81526004016123a69190614544565b60006040518083038186803b1580156123be57600080fd5b505afa1580156123d2573d6000803e3d6000fd5b505050506040513d6000823e3d601f19601f820116820180604052508101906123fb9190613d44565b9050919050565b6060600460009054906101000a900473ffffffffffffffffffffffffffffffffffffffff1673ffffffffffffffffffffffffffffffffffffffff16636e2db3b0336040518263ffffffff1660e01b815260040161245f9190614544565b60006040518083038186803b15801561247757600080fd5b505afa15801561248b573d6000803e3d6000fd5b505050506040513d6000823e3d601f19601f820116820180604052508101906124b49190613a25565b905090565b600460009054906101000a900473ffffffffffffffffffffffffffffffffffffffff1673ffffffffffffffffffffffffffffffffffffffff1663c6361c22338585856040518563ffffffff1660e01b815260040161251a94939291906147ed565b600060405180830381600087803b15801561253457600080fd5b505af1158015612548573d6000803e3d6000fd5b505050506040513d6000823e3d601f19601f820116820180604052508101906125719190613d44565b507ff9e22d0d90b1c23a58ab3faeb23fd4ac8ad47eccb5a435427069e65a22fb00d53384846040516125a5939291906147a8565b60405180910390a1505050565b6125ba612f85565b73ffffffffffffffffffffffffffffffffffffffff166125d8611695565b73ffffffffffffffffffffffffffffffffffffffff161461262e576040517f08c379a0000000000000000000000000000000000000000000000000000000008152600401612625906149ee565b60405180910390fd5b600073ffffffffffffffffffffffffffffffffffffffff168173ffffffffffffffffffffffffffffffffffffffff16141561269e576040517f08c379a0000000000000000000000000000000000000000000000000000000008152600401612695906149ae565b60405180910390fd5b6126a781612f8d565b50565b813373ffffffffffffffffffffffffffffffffffffffff16600260009054906101000a900473ffffffffffffffffffffffffffffffffffffffff1673ffffffffffffffffffffffffffffffffffffffff16636352211e836040518263ffffffff1660e01b815260040161271d9190614a72565b60206040518083038186803b15801561273557600080fd5b505afa158015612749573d6000803e3d6000fd5b505050506040513d601f19601f8201168201806040525081019061276d919061380f565b73ffffffffffffffffffffffffffffffffffffffff16146127c3576040517f08c379a00000000000000000000000000000000000000000000000000000000081526004016127ba90614a0e565b60405180910390fd5b83600460009054906101000a900473ffffffffffffffffffffffffffffffffffffffff1673ffffffffffffffffffffffffffffffffffffffff1663a1abffee826040518263ffffffff1660e01b815260040161281f9190614544565b60206040518083038186803b15801561283757600080fd5b505afa15801561284b573d6000803e3d6000fd5b505050506040513d601f19601f8201168201806040525081019061286f91906139af565b6128ae576040517f08c379a00000000000000000000000000000000000000000000000000000000081526004016128a5906149ce565b60405180910390fd5b600360009054906101000a900473ffffffffffffffffffffffffffffffffffffffff1673ffffffffffffffffffffffffffffffffffffffff166371499a7b3387878760036040518663ffffffff1660e01b81526004016129129594939291906145db565b600060405180830381600087803b15801561292c57600080fd5b505af1158015612940573d6000803e3d6000fd5b50505050600260009054906101000a900473ffffffffffffffffffffffffffffffffffffffff1673ffffffffffffffffffffffffffffffffffffffff166323b872dd3387876040518463ffffffff1660e01b81526004016129a39392919061455f565b600060405180830381600087803b1580156129bd57600080fd5b505af11580156129d1573d6000803e3d6000fd5b505050506129e0846001610ddb565b7f34f581da021a47386a4d5676be80c680ca6596579bd9f513f3d272b0460359fa338686604051612a139392919061455f565b60405180910390a15050505050565b33600460009054906101000a900473ffffffffffffffffffffffffffffffffffffffff1673ffffffffffffffffffffffffffffffffffffffff1663a1abffee826040518263ffffffff1660e01b8152600401612a7e9190614544565b60206040518083038186803b158015612a9657600080fd5b505afa158015612aaa573d6000803e3d6000fd5b505050506040513d601f19601f82011682018060405250810190612ace91906139af565b612b0d576040517f08c379a0000000000000000000000000000000000000000000000000000000008152600401612b04906149ce565b60405180910390fd5b600360009054906101000a900473ffffffffffffffffffffffffffffffffffffffff1673ffffffffffffffffffffffffffffffffffffffff1663bd53176b336040518263ffffffff1660e01b8152600401612b689190614544565b600060405180830381600087803b158015612b8257600080fd5b505af1158015612b96573d6000803e3d6000fd5b50505050600360009054906101000a900473ffffffffffffffffffffffffffffffffffffffff1673ffffffffffffffffffffffffffffffffffffffff166351685f35336040518263ffffffff1660e01b8152600401612bf59190614544565b600060405180830381600087803b158015612c0f57600080fd5b505af1158015612c23573d6000803e3d6000fd5b50505050600460009054906101000a900473ffffffffffffffffffffffffffffffffffffffff1673ffffffffffffffffffffffffffffffffffffffff1663f849f379336040518263ffffffff1660e01b8152600401612c829190614544565b600060405180830381600087803b158015612c9c57600080fd5b505af1158015612cb0573d6000803e3d6000fd5b505050507fe5ca53020b6c0ff2116f624b9ca44e320913151f07ce0ac7186a67a5f6885e3633604051612ce39190614544565b60405180910390a150565b612cf661319b565b600160008473ffffffffffffffffffffffffffffffffffffffff1673ffffffffffffffffffffffffffffffffffffffff16815260200190815260200160002060018060008673ffffffffffffffffffffffffffffffffffffffff1673ffffffffffffffffffffffffffffffffffffffff16815260200190815260200160002080549050612d839190614c7a565b81548110612d9457612d93614e1b565b5b90600052602060002090600302016040518060600160405290816000820160009054906101000a900473ffffffffffffffffffffffffffffffffffffffff1673ffffffffffffffffffffffffffffffffffffffff1673ffffffffffffffffffffffffffffffffffffffff1681526020016001820154815260200160028201548152505090508181604001818152505080600160008573ffffffffffffffffffffffffffffffffffffffff1673ffffffffffffffffffffffffffffffffffffffff1681526020019081526020016000208381548110612e7557612e74614e1b565b5b906000526020600020906003020160008201518160000160006101000a81548173ffffffffffffffffffffffffffffffffffffffff021916908373ffffffffffffffffffffffffffffffffffffffff1602179055506020820151816001015560408201518160020155905050600160008473ffffffffffffffffffffffffffffffffffffffff1673ffffffffffffffffffffffffffffffffffffffff168152602001908152602001600020805480612f3057612f2f614dec565b5b6001900381819060005260206000209060030201600080820160006101000a81549073ffffffffffffffffffffffffffffffffffffffff02191690556001820160009055600282016000905550509055505050565b600033905090565b60008060009054906101000a900473ffffffffffffffffffffffffffffffffffffffff169050816000806101000a81548173ffffffffffffffffffffffffffffffffffffffff021916908373ffffffffffffffffffffffffffffffffffffffff1602179055508173ffffffffffffffffffffffffffffffffffffffff168173ffffffffffffffffffffffffffffffffffffffff167f8be0079c531659141344cd1fd0a4f28419497f9722a3daafe3b4186f6b6457e060405160405180910390a35050565b6000600460009054906101000a900473ffffffffffffffffffffffffffffffffffffffff1673ffffffffffffffffffffffffffffffffffffffff16632330f247336040518263ffffffff1660e01b81526004016130ae9190614544565b60206040518083038186803b1580156130c657600080fd5b505afa1580156130da573d6000803e3d6000fd5b505050506040513d601f19601f820116820180604052508101906130fe91906139af565b9050600360009054906101000a900473ffffffffffffffffffffffffffffffffffffffff1673ffffffffffffffffffffffffffffffffffffffff16635d1e792733838787876040518663ffffffff1660e01b8152600401613163959493929190614635565b600060405180830381600087803b15801561317d57600080fd5b505af1158015613191573d6000803e3d6000fd5b5050505050505050565b6040518060600160405280600073ffffffffffffffffffffffffffffffffffffffff16815260200160008152602001600081525090565b6040518061014001604052806000815260200160008152602001606081526020016060815260200160008152602001606081526020016060815260200160608152602001606081526020016000600381111561323157613230614dbd565b5b81525090565b604051806080016040528060608152602001606081526020016000151581526020016000151581525090565b600061327661327184614b19565b614af4565b9050808382526020820190508285602086028201111561329957613298614e88565b5b60005b858110156132c957816132af88826133fa565b84526020840193506020830192505060018101905061329c565b5050509392505050565b60006132e66132e184614b45565b614af4565b9050808382526020820190508285602086028201111561330957613308614e88565b5b60005b8581101561335757815167ffffffffffffffff81111561332f5761332e614e79565b5b80860161333c898261356a565b8552602085019450602084019350505060018101905061330c565b5050509392505050565b600061337461336f84614b71565b614af4565b9050828152602081018484840111156133905761338f614e8d565b5b61339b848285614d1b565b509392505050565b60006133b66133b184614b71565b614af4565b9050828152602081018484840111156133d2576133d1614e8d565b5b6133dd848285614d2a565b509392505050565b6000813590506133f481614fda565b92915050565b60008151905061340981614fda565b92915050565b600082601f83011261342457613423614e79565b5b8151613434848260208601613263565b91505092915050565b600082601f83011261345257613451614e79565b5b81516134628482602086016132d3565b91505092915050565b60008135905061347a81614ff1565b92915050565b60008151905061348f81614ff1565b92915050565b6000815190506134a481615008565b92915050565b600082601f8301126134bf576134be614e79565b5b81356134cf848260208601613361565b91505092915050565b600082601f8301126134ed576134ec614e79565b5b81516134fd8482602086016133a3565b91505092915050565b60006060828403121561351c5761351b614e7e565b5b6135266060614af4565b90506000613536848285016133e5565b600083015250602061354a848285016137b8565b602083015250604061355e848285016137b8565b60408301525092915050565b6000610140828403121561358157613580614e7e565b5b61358c610140614af4565b9050600061359c848285016137cd565b60008301525060206135b0848285016137cd565b602083015250604082015167ffffffffffffffff8111156135d4576135d3614e83565b5b6135e0848285016134d8565b604083015250606082015167ffffffffffffffff81111561360457613603614e83565b5b613610848285016134d8565b6060830152506080613624848285016137cd565b60808301525060a082015167ffffffffffffffff81111561364857613647614e83565b5b613654848285016134d8565b60a08301525060c082015167ffffffffffffffff81111561367857613677614e83565b5b6136848482850161340f565b60c08301525060e082015167ffffffffffffffff8111156136a8576136a7614e83565b5b6136b4848285016134d8565b60e08301525061010082015167ffffffffffffffff8111156136d9576136d8614e83565b5b6136e5848285016134d8565b610100830152506101206136fb84828501613495565b6101208301525092915050565b60006080828403121561371e5761371d614e7e565b5b6137286080614af4565b9050600082015167ffffffffffffffff81111561374857613747614e83565b5b613754848285016134d8565b600083015250602082015167ffffffffffffffff81111561377857613777614e83565b5b613784848285016134d8565b602083015250604061379884828501613480565b60408301525060606137ac84828501613480565b60608301525092915050565b6000813590506137c781615018565b92915050565b6000815190506137dc81615018565b92915050565b6000602082840312156137f8576137f7614e97565b5b6000613806848285016133e5565b91505092915050565b60006020828403121561382557613824614e97565b5b6000613833848285016133fa565b91505092915050565b6000806000806080858703121561385657613855614e97565b5b6000613864878288016133e5565b945050602085013567ffffffffffffffff81111561388557613884614e92565b5b613891878288016134aa565b935050604085013567ffffffffffffffff8111156138b2576138b1614e92565b5b6138be878288016134aa565b925050606085013567ffffffffffffffff8111156138df576138de614e92565b5b6138eb878288016134aa565b91505092959194509250565b6000806000606084860312156139105761390f614e97565b5b600061391e868287016133e5565b935050602061392f868287016137b8565b925050604084013567ffffffffffffffff8111156139505761394f614e92565b5b61395c868287016134aa565b9150509250925092565b60006020828403121561397c5761397b614e97565b5b600082015167ffffffffffffffff81111561399a57613999614e92565b5b6139a68482850161343d565b91505092915050565b6000602082840312156139c5576139c4614e97565b5b60006139d384828501613480565b91505092915050565b6000602082840312156139f2576139f1614e97565b5b600082013567ffffffffffffffff811115613a1057613a0f614e92565b5b613a1c848285016134aa565b91505092915050565b600060208284031215613a3b57613a3a614e97565b5b600082015167ffffffffffffffff811115613a5957613a58614e92565b5b613a65848285016134d8565b91505092915050565b600080600060608486031215613a8757613a86614e97565b5b600084013567ffffffffffffffff811115613aa557613aa4614e92565b5b613ab1868287016134aa565b935050602084013567ffffffffffffffff811115613ad257613ad1614e92565b5b613ade868287016134aa565b925050604084013567ffffffffffffffff811115613aff57613afe614e92565b5b613b0b868287016134aa565b9150509250925092565b600080600080600080600060e0888a031215613b3457613b33614e97565b5b600088013567ffffffffffffffff811115613b5257613b51614e92565b5b613b5e8a828b016134aa565b975050602088013567ffffffffffffffff811115613b7f57613b7e614e92565b5b613b8b8a828b016134aa565b965050604088013567ffffffffffffffff811115613bac57613bab614e92565b5b613bb88a828b016134aa565b9550506060613bc98a828b016137b8565b945050608088013567ffffffffffffffff811115613bea57613be9614e92565b5b613bf68a828b016134aa565b93505060a088013567ffffffffffffffff811115613c1757613c16614e92565b5b613c238a828b016134aa565b92505060c088013567ffffffffffffffff811115613c4457613c43614e92565b5b613c508a828b016134aa565b91505092959891949750929550565b600060608284031215613c7557613c74614e97565b5b6000613c8384828501613506565b91505092915050565b600080600060a08486031215613ca557613ca4614e97565b5b6000613cb386828701613506565b935050606084013567ffffffffffffffff811115613cd457613cd3614e92565b5b613ce0868287016134aa565b9250506080613cf18682870161346b565b9150509250925092565b600060208284031215613d1157613d10614e97565b5b600082015167ffffffffffffffff811115613d2f57613d2e614e92565b5b613d3b8482850161356a565b91505092915050565b600060208284031215613d5a57613d59614e97565b5b600082015167ffffffffffffffff811115613d7857613d77614e92565b5b613d8484828501613708565b91505092915050565b600060208284031215613da357613da2614e97565b5b6000613db1848285016137b8565b91505092915050565b600060208284031215613dd057613dcf614e97565b5b6000613dde848285016137cd565b91505092915050565b600080600060608486031215613e0057613dff614e97565b5b6000613e0e868287016137b8565b9350506020613e1f868287016133e5565b925050604084013567ffffffffffffffff811115613e4057613e3f614e92565b5b613e4c868287016134aa565b9150509250925092565b60008060408385031215613e6d57613e6c614e97565b5b6000613e7b858286016137b8565b9250506020613e8c8582860161346b565b9150509250929050565b600080600060608486031215613eaf57613eae614e97565b5b6000613ebd868287016137b8565b935050602084013567ffffffffffffffff811115613ede57613edd614e92565b5b613eea868287016134aa565b9250506040613efb868287016133e5565b9150509250925092565b600080600060608486031215613f1e57613f1d614e97565b5b6000613f2c868287016137b8565b935050602084013567ffffffffffffffff811115613f4d57613f4c614e92565b5b613f59868287016134aa565b925050604084013567ffffffffffffffff811115613f7a57613f79614e92565b5b613f86868287016134aa565b9150509250925092565b6000613f9c8383613fd4565b60208301905092915050565b6000613fb48383614280565b60608301905092915050565b6000613fcc83836142c2565b905092915050565b613fdd81614cae565b82525050565b613fec81614cae565b82525050565b6000613ffd82614bd2565b6140078185614c25565b935061401283614ba2565b8060005b8381101561404357815161402a8882613f90565b975061403583614bfe565b925050600181019050614016565b5085935050505092915050565b600061405b82614bdd565b6140658185614c36565b935061407083614bb2565b8060005b838110156140a15781516140888882613fa8565b975061409383614c0b565b925050600181019050614074565b5085935050505092915050565b60006140b982614be8565b6140c38185614c47565b9350836020820285016140d585614bc2565b8060005b8581101561411157848403895281516140f28582613fc0565b94506140fd83614c18565b925060208a019950506001810190506140d9565b50829750879550505050505092915050565b61412c81614cc0565b82525050565b61413b81614cc0565b82525050565b61414a81614d09565b82525050565b61415981614d09565b82525050565b600061416a82614bf3565b6141748185614c58565b9350614184818560208601614d2a565b61418d81614e9c565b840191505092915050565b60006141a382614bf3565b6141ad8185614c69565b93506141bd818560208601614d2a565b6141c681614e9c565b840191505092915050565b60006141de602683614c69565b91506141e982614ead565b604082019050919050565b6000614201602b83614c69565b915061420c82614efc565b604082019050919050565b6000614224602083614c69565b915061422f82614f4b565b602082019050919050565b6000614247602e83614c69565b915061425282614f74565b604082019050919050565b600061426a600083614c69565b915061427582614fc3565b600082019050919050565b6060820160008201516142966000850182613fd4565b5060208201516142a96020850182614526565b5060408201516142bc6040850182614526565b50505050565b6000610140830160008301516142db6000860182614526565b5060208301516142ee6020860182614526565b5060408301518482036040860152614306828261415f565b91505060608301518482036060860152614320828261415f565b91505060808301516143356080860182614526565b5060a083015184820360a086015261434d828261415f565b91505060c083015184820360c08601526143678282613ff2565b91505060e083015184820360e0860152614381828261415f565b91505061010083015184820361010086015261439d828261415f565b9150506101208301516143b4610120860182614141565b508091505092915050565b6000610140830160008301516143d86000860182614526565b5060208301516143eb6020860182614526565b5060408301518482036040860152614403828261415f565b9150506060830151848203606086015261441d828261415f565b91505060808301516144326080860182614526565b5060a083015184820360a086015261444a828261415f565b91505060c083015184820360c08601526144648282613ff2565b91505060e083015184820360e086015261447e828261415f565b91505061010083015184820361010086015261449a828261415f565b9150506101208301516144b1610120860182614141565b508091505092915050565b600060808301600083015184820360008601526144d9828261415f565b915050602083015184820360208601526144f3828261415f565b91505060408301516145086040860182614123565b50606083015161451b6060860182614123565b508091505092915050565b61452f81614cff565b82525050565b61453e81614cff565b82525050565b60006020820190506145596000830184613fe3565b92915050565b60006060820190506145746000830186613fe3565b6145816020830185613fe3565b61458e6040830184614535565b949350505050565b60006080820190506145ab6000830187613fe3565b6145b86020830186613fe3565b6145c56040830185614535565b6145d26060830184614132565b95945050505050565b600060a0820190506145f06000830188613fe3565b6145fd6020830187613fe3565b61460a6040830186614535565b818103606083015261461c8185614198565b905061462b6080830184614150565b9695505050505050565b600060a08201905061464a6000830188613fe3565b6146576020830187614132565b6146646040830186613fe3565b6146716060830185614535565b81810360808301526146838184614198565b90509695505050505050565b600060a0820190506146a46000830188613fe3565b6146b16020830187614150565b6146be6040830186614150565b6146cb6060830185614535565b81810360808301526146dd8184614198565b90509695505050505050565b600060a0820190506146fe6000830187613fe3565b61470b6020830186614150565b6147186040830185614150565b6147256060830184614535565b81810360808301526147368161425d565b905095945050505050565b60006060820190506147566000830186613fe3565b6147636020830185614150565b6147706040830184614535565b949350505050565b600060408201905061478d6000830185613fe3565b818103602083015261479f8184614198565b90509392505050565b60006060820190506147bd6000830186613fe3565b81810360208301526147cf8185614198565b905081810360408301526147e38184614198565b9050949350505050565b60006080820190506148026000830187613fe3565b81810360208301526148148186614198565b905081810360408301526148288185614198565b9050818103606083015261483c8184614198565b905095945050505050565b600060408201905061485c6000830185613fe3565b6148696020830184614535565b9392505050565b60006060820190506148856000830186613fe3565b6148926020830185614535565b61489f6040830184614132565b949350505050565b6000610100820190506148bd600083018b613fe3565b6148ca602083018a614535565b81810360408301526148dc8189614198565b905081810360608301526148f08188614198565b90506148ff6080830187614535565b81810360a08301526149118186614198565b905081810360c08301526149258185614198565b905081810360e08301526149398184614198565b90509998505050505050505050565b600060208201905081810360008301526149628184614050565b905092915050565b6000602082019050818103600083015261498481846140ae565b905092915050565b600060208201905081810360008301526149a68184614198565b905092915050565b600060208201905081810360008301526149c7816141d1565b9050919050565b600060208201905081810360008301526149e7816141f4565b9050919050565b60006020820190508181036000830152614a0781614217565b9050919050565b60006020820190508181036000830152614a278161423a565b9050919050565b60006020820190508181036000830152614a4881846143bf565b905092915050565b60006020820190508181036000830152614a6a81846144bc565b905092915050565b6000602082019050614a876000830184614535565b92915050565b6000604082019050614aa26000830185614535565b614aaf6020830184613fe3565b9392505050565b6000606082019050614acb6000830186614535565b8181036020830152614add8185614198565b9050614aec6040830184613fe3565b949350505050565b6000614afe614b0f565b9050614b0a8282614d5d565b919050565b6000604051905090565b600067ffffffffffffffff821115614b3457614b33614e4a565b5b602082029050602081019050919050565b600067ffffffffffffffff821115614b6057614b5f614e4a565b5b602082029050602081019050919050565b600067ffffffffffffffff821115614b8c57614b8b614e4a565b5b614b9582614e9c565b9050602081019050919050565b6000819050602082019050919050565b6000819050602082019050919050565b6000819050602082019050919050565b600081519050919050565b600081519050919050565b600081519050919050565b600081519050919050565b6000602082019050919050565b6000602082019050919050565b6000602082019050919050565b600082825260208201905092915050565b600082825260208201905092915050565b600082825260208201905092915050565b600082825260208201905092915050565b600082825260208201905092915050565b6000614c8582614cff565b9150614c9083614cff565b925082821015614ca357614ca2614d8e565b5b828203905092915050565b6000614cb982614cdf565b9050919050565b60008115159050919050565b6000819050614cda82614fc6565b919050565b600073ffffffffffffffffffffffffffffffffffffffff82169050919050565b6000819050919050565b6000614d1482614ccc565b9050919050565b82818337600083830152505050565b60005b83811015614d48578082015181840152602081019050614d2d565b83811115614d57576000848401525b50505050565b614d6682614e9c565b810181811067ffffffffffffffff82111715614d8557614d84614e4a565b5b80604052505050565b7f4e487b7100000000000000000000000000000000000000000000000000000000600052601160045260246000fd5b7f4e487b7100000000000000000000000000000000000000000000000000000000600052602160045260246000fd5b7f4e487b7100000000000000000000000000000000000000000000000000000000600052603160045260246000fd5b7f4e487b7100000000000000000000000000000000000000000000000000000000600052603260045260246000fd5b7f4e487b7100000000000000000000000000000000000000000000000000000000600052604160045260246000fd5b600080fd5b600080fd5b600080fd5b600080fd5b600080fd5b600080fd5b600080fd5b6000601f19601f8301169050919050565b7f4f776e61626c653a206e6577206f776e657220697320746865207a65726f206160008201527f6464726573730000000000000000000000000000000000000000000000000000602082015250565b7f446f634d616e616765723a204365747465207574696c69736174657572206e2760008201527f657869737465207061732e000000000000000000000000000000000000000000602082015250565b7f4f776e61626c653a2063616c6c6572206973206e6f7420746865206f776e6572600082015250565b7f546f6b656e4d616e616765723a20436574204e4654206e6520766f757320617060008201527f7061727469656e74207061732021000000000000000000000000000000000000602082015250565b50565b60048110614fd757614fd6614dbd565b5b50565b614fe381614cae565b8114614fee57600080fd5b50565b614ffa81614cc0565b811461500557600080fd5b50565b6004811061501557600080fd5b50565b61502181614cff565b811461502c57600080fd5b5056fea264697066735822122092635c113ccc3387baaaee159e33b829a4e9f3355f459e7f405e1b8bb03a459664736f6c63430008060033",
  "immutableReferences": {},
  "source": "//SPDX-License-Identifier: MIT\n\npragma solidity 0.8.6;\n\nimport \"./AccountManager.sol\";\nimport \"@openzeppelin/contracts/access/Ownable.sol\";\nimport \"./DocManager.sol\";\nimport \"./SaveDocToken.sol\";\nimport \"./SaveDocStruct.sol\";\n\n\ncontract SaveDoc is Ownable, SaveDocStruct\n{\n    mapping(address => CertificationRequest[]) private requests;\n    SaveDocToken private saveDocToken;\n    DocManager private docManager;\n    AccountManager private accountManager;\n\n\n    constructor(DocManager _docManager, SaveDocToken _saveDocToken, AccountManager _accountManager)\n    {\n        docManager = _docManager;\n        saveDocToken = _saveDocToken;\n        accountManager = _accountManager;\n    }\n\n    event Subscribe(address newUser, string name, string pubkey);\n    event SubscribeAuthority(address newUser, string pubkey);\n    event ChangeUsername(address user, string newUsername);\n    event Unsubcribe(address user);\n    event SecureDocument(address user, uint256 tokenID);\n    event DeleteDocumment(address ownerDoc, uint256 tokenID, bool forTransfer);\n    event TransferDocument(address from, address to, uint256 tokenID);\n    event ShareDoc(address from, address to, uint256 tokenID);\n    event AcceptTransferDoc(address newOwner, uint256 tokenID);\n    event DeleteMyDocCopy(address ownerDoc, uint256 tokenID);\n    event RequestCertification(address applicant, uint256 tokenID);\n    event AcceptCertificationRequest(address certifying, address applicant, uint256 tokenID, bool keepCopy);\n    event RejectCertificationRequest(address certifying, address applicant, uint256 tokenID);\n\n    modifier isMyToken(uint256 tokenID)\n    {\n        require(saveDocToken.ownerOf(tokenID) == msg.sender, \"TokenManager: Cet NFT ne vous appartient pas !\");\n        _;\n    }\n\n    modifier userExist(address addressUser)\n    {\n        require(accountManager.checkIfUserExist(addressUser), \"DocManager: Cette utilisateur n'existe pas.\");\n        _;\n    }\n\n    function subscribe(string memory name, string memory pubKey, string memory passwordMaster) external\n    {\n        accountManager.addUser(msg.sender, name, pubKey, passwordMaster);\n        emit Subscribe(msg.sender, name, pubKey);\n    }\n\n    function subscribeAuthority(address authority,string memory name, string memory pubKey, string memory passwordMaster) onlyOwner() external\n    {\n        //TODO\n        accountManager.addUser(authority, name, pubKey, passwordMaster);\n        emit SubscribeAuthority(authority, pubKey);\n    }\n\n    function viewMyProfil() view external returns(User memory)\n    {\n        return accountManager.getUser(msg.sender);\n    }\n\n    function viewProfil(address _address) view external returns(User memory)\n    {\n        return accountManager.getUser(_address);\n    }\n\n    function getMyPasswordMaster() view external returns(string memory)\n    {\n        return accountManager.getPasswordMaster(msg.sender);\n    }\n\n    function changeMyName(string memory name) external\n    {\n        accountManager.setUser(msg.sender, name);\n        emit ChangeUsername(msg.sender, name);\n    }\n\n    function unsubscribe() external userExist(msg.sender)\n    {\n        // Voir comment supprimer tout ces fichiers\n        docManager.deleteAllDocs(msg.sender);\n        docManager.delAllCopyDoc(msg.sender);\n        accountManager.delUser(msg.sender);\n        emit Unsubcribe(msg.sender);\n    }\n\n    function secureDocument(string memory tokenName, string memory tokenURI, string memory tokenMime, uint256 tokenLength, string memory filePath, string memory passwordEncrypted, string memory hashNFT) userExist(msg.sender) external returns (Document memory)\n    {\n        uint256 tokenID;\n        Document memory document;\n\n        tokenID = saveDocToken.mint(msg.sender, tokenURI);\n        document = docManager.createDoc(msg.sender, tokenID, tokenName, tokenMime, tokenLength, filePath, passwordEncrypted, hashNFT);\n        emit SecureDocument(msg.sender, tokenID);\n\n       return document;\n    }\n\n    // TODO Review\n    function delMyDocument(uint256 tokenID, bool forTransfer) isMyToken(tokenID) public\n    {\n        docManager.deleteDoc(msg.sender, tokenID);\n\n        if (!forTransfer)\n        {\n            saveDocToken.burn(tokenID, msg.sender);\n        }\n        emit DeleteDocumment(msg.sender, tokenID, forTransfer);\n    }\n\n    function getTokenURI(uint256 tokenID) external view isMyToken(tokenID) returns(string memory)\n    {\n        return saveDocToken.tokenURI(tokenID);\n    }\n\n    function transferDoc(address to, uint256 tokenID, string memory tokenURITmp) isMyToken(tokenID) userExist(to) external\n    {\n        docManager.createCopyDoc(msg.sender, to, tokenID, tokenURITmp, TypeDoc.CopyPendingTransfer);\n        saveDocToken.transferFrom(msg.sender, to, tokenID);\n        delMyDocument(tokenID, true);\n        emit TransferDocument(msg.sender, to, tokenID);\n    }\n\n    function shareDoc(uint256 tokenID, address to, string memory tokenURI) isMyToken(tokenID) userExist(to) external\n    {\n        docManager.createCopyDoc(msg.sender, to, tokenID, tokenURI, TypeDoc.CopyShared);\n        emit ShareDoc(msg.sender, to, tokenID);\n    }\n\n    function acceptNewDoc(uint256 tokenID, string memory newTokenURI, string memory passwordEncrypted) isMyToken(tokenID) external\n    {\n        // check si msg.sender a bien dja une copie du Document\n        docManager.convertTypeDoc(msg.sender, TypeDoc.CopyPendingTransfer, TypeDoc.Original, tokenID, passwordEncrypted);\n        saveDocToken.setTokenURI(tokenID, newTokenURI, msg.sender);\n        emit AcceptTransferDoc(msg.sender, tokenID);\n    }\n\n    function delCopyDocShared(uint tokenID) external isMyToken(tokenID)\n    {\n        docManager.delCopyDoc(msg.sender, TypeDoc.CopyShared, docManager.getIndexNFT(msg.sender, TypeDoc.CopyShared, tokenID));\n        emit DeleteMyDocCopy(msg.sender, tokenID);\n    }\n\n    function requestCertification(uint256 tokenID, string memory tokenURI, address certifying) isMyToken(tokenID) userExist(certifying) external\n    {\n        CertificationRequest memory request;\n\n        docManager.createCopyDoc(msg.sender, certifying, tokenID, tokenURI, TypeDoc.CopyCertified);\n        request = CertificationRequest(msg.sender, tokenID, requests[certifying].length);\n        requests[certifying].push(request);\n        emit RequestCertification(request.applicant, request.tokenID);\n    }\n\n    function viewMyDocs() view external returns(Document[] memory)\n    {\n        return docManager.getDocs(msg.sender);\n    }\n\n    function viewMyCopyDocs() view external returns(Document[] memory)\n    {\n        return docManager.getAllCopyShared(msg.sender);\n    }\n\n    function viewDocPendingTransfer() view external returns(Document[] memory)\n    {\n        return docManager.getAllCopyPendingTransfer(msg.sender);\n    }\n\n    function viewDocCertified() view external returns(Document[] memory)\n    {\n        return docManager.getAllCopyCertified(msg.sender);\n    }\n\n    function viewCertificationRequest() external view returns(CertificationRequest[] memory)\n    {\n        return requests[msg.sender];\n    }\n\n    function delRequest(address certifying, uint256 index) private\n    {\n        CertificationRequest memory substitute;\n\n        substitute = requests[certifying][requests[certifying].length - 1];\n        substitute.index = index;\n        requests[certifying][index] = substitute;\n        requests[certifying].pop();\n    }\n\n    function certifyDocument(address applicant, uint256 tokenID, string memory hashNFT) private\n    {\n        bool isAuthority;\n\n        isAuthority = accountManager.isAuthority(msg.sender);\n        docManager.certify(msg.sender, isAuthority, applicant, tokenID, hashNFT);\n    }\n\n    function acceptCertificationRequest(CertificationRequest memory request, string memory hashNFT, bool keepCopyDoc) public\n    {\n        // check si msg.sender a bien dja une copie du Document\n        certifyDocument(request.applicant, request.tokenID, hashNFT);\n        delRequest(msg.sender, request.index);\n\n        if (keepCopyDoc)\n        {\n            docManager.convertTypeDoc(msg.sender, TypeDoc.CopyCertified, TypeDoc.CopyShared, request.tokenID, \"\");\n        }\n        else\n        {\n            docManager.delCopyDoc(msg.sender, TypeDoc.CopyCertified, docManager.getIndexNFT(msg.sender, TypeDoc.CopyCertified, request.tokenID));\n        }\n        emit AcceptCertificationRequest(msg.sender, request.applicant, request.tokenID, keepCopyDoc);\n    }\n\n    function rejectCertificationRequest(CertificationRequest memory request) external\n    {\n        // check si msg.sender  bien dja une copie du Document\n        delRequest(msg.sender, request.index);\n        docManager.delCopyDoc(msg.sender, TypeDoc.CopyCertified, docManager.getIndexNFT(msg.sender, TypeDoc.CopyCertified, request.tokenID));\n        emit RejectCertificationRequest(msg.sender, request.applicant, request.tokenID);\n    }\n}\n",
  "sourcePath": "/home/oumar/projects/SAV-Doc/contracts/SaveDoc.sol",
  "compiler": {
    "name": "solc",
    "version": "0.8.6+commit.11564f7e.Emscripten.clang"
  },
  "schemaVersion": "3.4.1",
  "updatedAt": "2021-08-01T09:53:24.074Z",
  "networkType": "ethereum",
  "devdoc": {
    "kind": "dev",
    "methods": {
      "owner()": {
        "details": "Returns the address of the current owner."
      },
      "renounceOwnership()": {
        "details": "Leaves the contract without owner. It will not be possible to call `onlyOwner` functions anymore. Can only be called by the current owner. NOTE: Renouncing ownership will leave the contract without an owner, thereby removing any functionality that is only available to the owner."
      },
      "transferOwnership(address)": {
        "details": "Transfers ownership of the contract to a new account (`newOwner`). Can only be called by the current owner."
      }
    },
    "version": 1
  },
  "userdoc": {
    "kind": "user",
    "methods": {},
    "version": 1
  }
}