{
  "contractName": "SecMyDocToken",
  "abi": [
    {
      "inputs": [],
      "stateMutability": "nonpayable",
      "type": "constructor"
    },
    {
      "anonymous": false,
      "inputs": [
        {
          "indexed": true,
          "internalType": "address",
          "name": "owner",
          "type": "address"
        },
        {
          "indexed": true,
          "internalType": "address",
          "name": "approved",
          "type": "address"
        },
        {
          "indexed": true,
          "internalType": "uint256",
          "name": "tokenId",
          "type": "uint256"
        }
      ],
      "name": "Approval",
      "type": "event"
    },
    {
      "anonymous": false,
      "inputs": [
        {
          "indexed": true,
          "internalType": "address",
          "name": "owner",
          "type": "address"
        },
        {
          "indexed": true,
          "internalType": "address",
          "name": "operator",
          "type": "address"
        },
        {
          "indexed": false,
          "internalType": "bool",
          "name": "approved",
          "type": "bool"
        }
      ],
      "name": "ApprovalForAll",
      "type": "event"
    },
    {
      "anonymous": false,
      "inputs": [
        {
          "indexed": true,
          "internalType": "address",
          "name": "from",
          "type": "address"
        },
        {
          "indexed": true,
          "internalType": "address",
          "name": "to",
          "type": "address"
        },
        {
          "indexed": true,
          "internalType": "uint256",
          "name": "tokenId",
          "type": "uint256"
        }
      ],
      "name": "Transfer",
      "type": "event"
    },
    {
      "inputs": [],
      "name": "_tokenIDs",
      "outputs": [
        {
          "internalType": "uint256",
          "name": "_value",
          "type": "uint256"
        }
      ],
      "stateMutability": "view",
      "type": "function",
      "constant": true
    },
    {
      "inputs": [
        {
          "internalType": "address",
          "name": "to",
          "type": "address"
        },
        {
          "internalType": "uint256",
          "name": "tokenId",
          "type": "uint256"
        }
      ],
      "name": "approve",
      "outputs": [],
      "stateMutability": "nonpayable",
      "type": "function"
    },
    {
      "inputs": [
        {
          "internalType": "address",
          "name": "owner",
          "type": "address"
        }
      ],
      "name": "balanceOf",
      "outputs": [
        {
          "internalType": "uint256",
          "name": "",
          "type": "uint256"
        }
      ],
      "stateMutability": "view",
      "type": "function",
      "constant": true
    },
    {
      "inputs": [
        {
          "internalType": "uint256",
          "name": "tokenId",
          "type": "uint256"
        }
      ],
      "name": "getApproved",
      "outputs": [
        {
          "internalType": "address",
          "name": "",
          "type": "address"
        }
      ],
      "stateMutability": "view",
      "type": "function",
      "constant": true
    },
    {
      "inputs": [
        {
          "internalType": "address",
          "name": "owner",
          "type": "address"
        },
        {
          "internalType": "address",
          "name": "operator",
          "type": "address"
        }
      ],
      "name": "isApprovedForAll",
      "outputs": [
        {
          "internalType": "bool",
          "name": "",
          "type": "bool"
        }
      ],
      "stateMutability": "view",
      "type": "function",
      "constant": true
    },
    {
      "inputs": [],
      "name": "name",
      "outputs": [
        {
          "internalType": "string",
          "name": "",
          "type": "string"
        }
      ],
      "stateMutability": "view",
      "type": "function",
      "constant": true
    },
    {
      "inputs": [
        {
          "internalType": "uint256",
          "name": "tokenId",
          "type": "uint256"
        }
      ],
      "name": "ownerOf",
      "outputs": [
        {
          "internalType": "address",
          "name": "",
          "type": "address"
        }
      ],
      "stateMutability": "view",
      "type": "function",
      "constant": true
    },
    {
      "inputs": [
        {
          "internalType": "address",
          "name": "from",
          "type": "address"
        },
        {
          "internalType": "address",
          "name": "to",
          "type": "address"
        },
        {
          "internalType": "uint256",
          "name": "tokenId",
          "type": "uint256"
        }
      ],
      "name": "safeTransferFrom",
      "outputs": [],
      "stateMutability": "nonpayable",
      "type": "function"
    },
    {
      "inputs": [
        {
          "internalType": "address",
          "name": "from",
          "type": "address"
        },
        {
          "internalType": "address",
          "name": "to",
          "type": "address"
        },
        {
          "internalType": "uint256",
          "name": "tokenId",
          "type": "uint256"
        },
        {
          "internalType": "bytes",
          "name": "_data",
          "type": "bytes"
        }
      ],
      "name": "safeTransferFrom",
      "outputs": [],
      "stateMutability": "nonpayable",
      "type": "function"
    },
    {
      "inputs": [
        {
          "internalType": "address",
          "name": "operator",
          "type": "address"
        },
        {
          "internalType": "bool",
          "name": "approved",
          "type": "bool"
        }
      ],
      "name": "setApprovalForAll",
      "outputs": [],
      "stateMutability": "nonpayable",
      "type": "function"
    },
    {
      "inputs": [
        {
          "internalType": "bytes4",
          "name": "interfaceId",
          "type": "bytes4"
        }
      ],
      "name": "supportsInterface",
      "outputs": [
        {
          "internalType": "bool",
          "name": "",
          "type": "bool"
        }
      ],
      "stateMutability": "view",
      "type": "function",
      "constant": true
    },
    {
      "inputs": [],
      "name": "symbol",
      "outputs": [
        {
          "internalType": "string",
          "name": "",
          "type": "string"
        }
      ],
      "stateMutability": "view",
      "type": "function",
      "constant": true
    },
    {
      "inputs": [
        {
          "internalType": "uint256",
          "name": "tokenId",
          "type": "uint256"
        }
      ],
      "name": "tokenURI",
      "outputs": [
        {
          "internalType": "string",
          "name": "",
          "type": "string"
        }
      ],
      "stateMutability": "view",
      "type": "function",
      "constant": true
    },
    {
      "inputs": [
        {
          "internalType": "address",
          "name": "from",
          "type": "address"
        },
        {
          "internalType": "address",
          "name": "to",
          "type": "address"
        },
        {
          "internalType": "uint256",
          "name": "tokenId",
          "type": "uint256"
        }
      ],
      "name": "transferFrom",
      "outputs": [],
      "stateMutability": "nonpayable",
      "type": "function"
    },
    {
      "inputs": [
        {
          "internalType": "address",
          "name": "owner",
          "type": "address"
        },
        {
          "internalType": "string",
          "name": "tokenURI",
          "type": "string"
        }
      ],
      "name": "addItem",
      "outputs": [
        {
          "internalType": "uint256",
          "name": "",
          "type": "uint256"
        }
      ],
      "stateMutability": "nonpayable",
      "type": "function"
    },
    {
      "inputs": [
        {
          "internalType": "uint256",
          "name": "tokenID",
          "type": "uint256"
        },
        {
          "internalType": "address",
          "name": "owner",
          "type": "address"
        }
      ],
      "name": "delItem",
      "outputs": [
        {
          "internalType": "bool",
          "name": "",
          "type": "bool"
        }
      ],
      "stateMutability": "nonpayable",
      "type": "function"
    }
  ],
  "bytecode": "0x60806040523480156200001157600080fd5b506040518060400160405280600881526020017f5365634d79446f630000000000000000000000000000000000000000000000008152506040518060400160405280600381526020017f534d440000000000000000000000000000000000000000000000000000000000815250816000908051906020019062000096929190620000b8565b508060019080519060200190620000af929190620000b8565b505050620001cd565b828054620000c69062000168565b90600052602060002090601f016020900481019282620000ea576000855562000136565b82601f106200010557805160ff191683800117855562000136565b8280016001018555821562000136579182015b828111156200013557825182559160200191906001019062000118565b5b50905062000145919062000149565b5090565b5b80821115620001645760008160009055506001016200014a565b5090565b600060028204905060018216806200018157607f821691505b602082108114156200019857620001976200019e565b5b50919050565b7f4e487b7100000000000000000000000000000000000000000000000000000000600052602260045260246000fd5b612eee80620001dd6000396000f3fe608060405234801561001057600080fd5b50600436106101005760003560e01c806342842e0e11610097578063a22cb46511610066578063a22cb465146102d3578063b88d4fde146102ef578063c87b56dd1461030b578063e985e9c51461033b57610100565b806342842e0e146102395780636352211e1461025557806370a082311461028557806395d89b41146102b557610100565b8063095ea7b3116100d3578063095ea7b3146101b357806323b872dd146101cf57806336e0271d146101eb5780633f9bbc4f1461021b57610100565b806301ffc9a714610105578063028e985a1461013557806306fdde0314610165578063081812fc14610183575b600080fd5b61011f600480360381019061011a9190611ea0565b61036b565b60405161012c9190612315565b60405180910390f35b61014f600480360381019061014a9190611f27565b61044d565b60405161015c9190612315565b60405180910390f35b61016d6104d8565b60405161017a9190612330565b60405180910390f35b61019d60048036038101906101989190611efa565b61056a565b6040516101aa91906122ae565b60405180910390f35b6101cd60048036038101906101c89190611e60565b6105ef565b005b6101e960048036038101906101e49190611cee565b610707565b005b61020560048036038101906102009190611e04565b610767565b6040516102129190612572565b60405180910390f35b61022361079f565b6040516102309190612572565b60405180910390f35b610253600480360381019061024e9190611cee565b6107ab565b005b61026f600480360381019061026a9190611efa565b6107cb565b60405161027c91906122ae565b60405180910390f35b61029f600480360381019061029a9190611c81565b61087d565b6040516102ac9190612572565b60405180910390f35b6102bd610935565b6040516102ca9190612330565b60405180910390f35b6102ed60048036038101906102e89190611dc4565b6109c7565b005b61030960048036038101906103049190611d41565b610b48565b005b61032560048036038101906103209190611efa565b610baa565b6040516103329190612330565b60405180910390f35b61035560048036038101906103509190611cae565b610cfc565b6040516103629190612315565b60405180910390f35b60007f80ac58cd000000000000000000000000000000000000000000000000000000007bffffffffffffffffffffffffffffffffffffffffffffffffffffffff1916827bffffffffffffffffffffffffffffffffffffffffffffffffffffffff1916148061043657507f5b5e139f000000000000000000000000000000000000000000000000000000007bffffffffffffffffffffffffffffffffffffffffffffffffffffffff1916827bffffffffffffffffffffffffffffffffffffffffffffffffffffffff1916145b80610446575061044582610d90565b5b9050919050565b60008173ffffffffffffffffffffffffffffffffffffffff1661046f846107cb565b73ffffffffffffffffffffffffffffffffffffffff16146104c5576040517f08c379a00000000000000000000000000000000000000000000000000000000081526004016104bc90612552565b60405180910390fd5b6104ce83610dfa565b6001905092915050565b6060600080546104e7906127c8565b80601f0160208091040260200160405190810160405280929190818152602001828054610513906127c8565b80156105605780601f1061053557610100808354040283529160200191610560565b820191906000526020600020905b81548152906001019060200180831161054357829003601f168201915b5050505050905090565b600061057582610e4d565b6105b4576040517f08c379a00000000000000000000000000000000000000000000000000000000081526004016105ab906124b2565b60405180910390fd5b6004600083815260200190815260200160002060009054906101000a900473ffffffffffffffffffffffffffffffffffffffff169050919050565b60006105fa826107cb565b90508073ffffffffffffffffffffffffffffffffffffffff168373ffffffffffffffffffffffffffffffffffffffff16141561066b576040517f08c379a000000000000000000000000000000000000000000000000000000000815260040161066290612512565b60405180910390fd5b8073ffffffffffffffffffffffffffffffffffffffff1661068a610eb9565b73ffffffffffffffffffffffffffffffffffffffff1614806106b957506106b8816106b3610eb9565b610cfc565b5b6106f8576040517f08c379a00000000000000000000000000000000000000000000000000000000081526004016106ef906123f2565b60405180910390fd5b6107028383610ec1565b505050565b610718610712610eb9565b82610f7a565b610757576040517f08c379a000000000000000000000000000000000000000000000000000000000815260040161074e90612532565b60405180910390fd5b610762838383611058565b505050565b600061077360076112b4565b600061077f60076112ca565b905061078b84826112d8565b61079581846114a6565b8091505092915050565b60078060000154905081565b6107c683838360405180602001604052806000815250610b48565b505050565b6000806002600084815260200190815260200160002060009054906101000a900473ffffffffffffffffffffffffffffffffffffffff169050600073ffffffffffffffffffffffffffffffffffffffff168173ffffffffffffffffffffffffffffffffffffffff161415610874576040517f08c379a000000000000000000000000000000000000000000000000000000000815260040161086b90612432565b60405180910390fd5b80915050919050565b60008073ffffffffffffffffffffffffffffffffffffffff168273ffffffffffffffffffffffffffffffffffffffff1614156108ee576040517f08c379a00000000000000000000000000000000000000000000000000000000081526004016108e590612412565b60405180910390fd5b600360008373ffffffffffffffffffffffffffffffffffffffff1673ffffffffffffffffffffffffffffffffffffffff168152602001908152602001600020549050919050565b606060018054610944906127c8565b80601f0160208091040260200160405190810160405280929190818152602001828054610970906127c8565b80156109bd5780601f10610992576101008083540402835291602001916109bd565b820191906000526020600020905b8154815290600101906020018083116109a057829003601f168201915b5050505050905090565b6109cf610eb9565b73ffffffffffffffffffffffffffffffffffffffff168273ffffffffffffffffffffffffffffffffffffffff161415610a3d576040517f08c379a0000000000000000000000000000000000000000000000000000000008152600401610a34906123b2565b60405180910390fd5b8060056000610a4a610eb9565b73ffffffffffffffffffffffffffffffffffffffff1673ffffffffffffffffffffffffffffffffffffffff16815260200190815260200160002060008473ffffffffffffffffffffffffffffffffffffffff1673ffffffffffffffffffffffffffffffffffffffff16815260200190815260200160002060006101000a81548160ff0219169083151502179055508173ffffffffffffffffffffffffffffffffffffffff16610af7610eb9565b73ffffffffffffffffffffffffffffffffffffffff167f17307eab39ab6107e8899845ad3d59bd9653f200f220920489ca2b5937696c3183604051610b3c9190612315565b60405180910390a35050565b610b59610b53610eb9565b83610f7a565b610b98576040517f08c379a0000000000000000000000000000000000000000000000000000000008152600401610b8f90612532565b60405180910390fd5b610ba48484848461151a565b50505050565b6060610bb582610e4d565b610bf4576040517f08c379a0000000000000000000000000000000000000000000000000000000008152600401610beb90612492565b60405180910390fd5b6000600660008481526020019081526020016000208054610c14906127c8565b80601f0160208091040260200160405190810160405280929190818152602001828054610c40906127c8565b8015610c8d5780601f10610c6257610100808354040283529160200191610c8d565b820191906000526020600020905b815481529060010190602001808311610c7057829003601f168201915b505050505090506000610c9e611576565b9050600081511415610cb4578192505050610cf7565b600082511115610ce9578082604051602001610cd192919061228a565b60405160208183030381529060405292505050610cf7565b610cf28461158d565b925050505b919050565b6000600560008473ffffffffffffffffffffffffffffffffffffffff1673ffffffffffffffffffffffffffffffffffffffff16815260200190815260200160002060008373ffffffffffffffffffffffffffffffffffffffff1673ffffffffffffffffffffffffffffffffffffffff16815260200190815260200160002060009054906101000a900460ff16905092915050565b60007f01ffc9a7000000000000000000000000000000000000000000000000000000007bffffffffffffffffffffffffffffffffffffffffffffffffffffffff1916827bffffffffffffffffffffffffffffffffffffffffffffffffffffffff1916149050919050565b610e0381611634565b6000600660008381526020019081526020016000208054610e23906127c8565b905014610e4a57600660008281526020019081526020016000206000610e499190611a55565b5b50565b60008073ffffffffffffffffffffffffffffffffffffffff166002600084815260200190815260200160002060009054906101000a900473ffffffffffffffffffffffffffffffffffffffff1673ffffffffffffffffffffffffffffffffffffffff1614159050919050565b600033905090565b816004600083815260200190815260200160002060006101000a81548173ffffffffffffffffffffffffffffffffffffffff021916908373ffffffffffffffffffffffffffffffffffffffff160217905550808273ffffffffffffffffffffffffffffffffffffffff16610f34836107cb565b73ffffffffffffffffffffffffffffffffffffffff167f8c5be1e5ebec7d5bd14f71427d1e84f3dd0314c0f7b2291e5b200ac8c7c3b92560405160405180910390a45050565b6000610f8582610e4d565b610fc4576040517f08c379a0000000000000000000000000000000000000000000000000000000008152600401610fbb906123d2565b60405180910390fd5b6000610fcf836107cb565b90508073ffffffffffffffffffffffffffffffffffffffff168473ffffffffffffffffffffffffffffffffffffffff16148061103e57508373ffffffffffffffffffffffffffffffffffffffff166110268461056a565b73ffffffffffffffffffffffffffffffffffffffff16145b8061104f575061104e8185610cfc565b5b91505092915050565b8273ffffffffffffffffffffffffffffffffffffffff16611078826107cb565b73ffffffffffffffffffffffffffffffffffffffff16146110ce576040517f08c379a00000000000000000000000000000000000000000000000000000000081526004016110c5906124d2565b60405180910390fd5b600073ffffffffffffffffffffffffffffffffffffffff168273ffffffffffffffffffffffffffffffffffffffff16141561113e576040517f08c379a000000000000000000000000000000000000000000000000000000000815260040161113590612392565b60405180910390fd5b611149838383611745565b611154600082610ec1565b6001600360008573ffffffffffffffffffffffffffffffffffffffff1673ffffffffffffffffffffffffffffffffffffffff16815260200190815260200160002060008282546111a491906126de565b925050819055506001600360008473ffffffffffffffffffffffffffffffffffffffff1673ffffffffffffffffffffffffffffffffffffffff16815260200190815260200160002060008282546111fb9190612657565b92505081905550816002600083815260200190815260200160002060006101000a81548173ffffffffffffffffffffffffffffffffffffffff021916908373ffffffffffffffffffffffffffffffffffffffff160217905550808273ffffffffffffffffffffffffffffffffffffffff168473ffffffffffffffffffffffffffffffffffffffff167fddf252ad1be2c89b69c2b068fc378daa952ba7f163c4a11628f55a4df523b3ef60405160405180910390a4505050565b6001816000016000828254019250508190555050565b600081600001549050919050565b600073ffffffffffffffffffffffffffffffffffffffff168273ffffffffffffffffffffffffffffffffffffffff161415611348576040517f08c379a000000000000000000000000000000000000000000000000000000000815260040161133f90612472565b60405180910390fd5b61135181610e4d565b15611391576040517f08c379a000000000000000000000000000000000000000000000000000000000815260040161138890612372565b60405180910390fd5b61139d60008383611745565b6001600360008473ffffffffffffffffffffffffffffffffffffffff1673ffffffffffffffffffffffffffffffffffffffff16815260200190815260200160002060008282546113ed9190612657565b92505081905550816002600083815260200190815260200160002060006101000a81548173ffffffffffffffffffffffffffffffffffffffff021916908373ffffffffffffffffffffffffffffffffffffffff160217905550808273ffffffffffffffffffffffffffffffffffffffff16600073ffffffffffffffffffffffffffffffffffffffff167fddf252ad1be2c89b69c2b068fc378daa952ba7f163c4a11628f55a4df523b3ef60405160405180910390a45050565b6114af82610e4d565b6114ee576040517f08c379a00000000000000000000000000000000000000000000000000000000081526004016114e590612452565b60405180910390fd5b80600660008481526020019081526020016000209080519060200190611515929190611a95565b505050565b611525848484611058565b6115318484848461174a565b611570576040517f08c379a000000000000000000000000000000000000000000000000000000000815260040161156790612352565b60405180910390fd5b50505050565b606060405180602001604052806000815250905090565b606061159882610e4d565b6115d7576040517f08c379a00000000000000000000000000000000000000000000000000000000081526004016115ce906124f2565b60405180910390fd5b60006115e1611576565b90506000815111611601576040518060200160405280600081525061162c565b8061160b846118e1565b60405160200161161c92919061228a565b6040516020818303038152906040525b915050919050565b600061163f826107cb565b905061164d81600084611745565b611658600083610ec1565b6001600360008373ffffffffffffffffffffffffffffffffffffffff1673ffffffffffffffffffffffffffffffffffffffff16815260200190815260200160002060008282546116a891906126de565b925050819055506002600083815260200190815260200160002060006101000a81549073ffffffffffffffffffffffffffffffffffffffff021916905581600073ffffffffffffffffffffffffffffffffffffffff168273ffffffffffffffffffffffffffffffffffffffff167fddf252ad1be2c89b69c2b068fc378daa952ba7f163c4a11628f55a4df523b3ef60405160405180910390a45050565b505050565b600061176b8473ffffffffffffffffffffffffffffffffffffffff16611a42565b156118d4578373ffffffffffffffffffffffffffffffffffffffff1663150b7a02611794610eb9565b8786866040518563ffffffff1660e01b81526004016117b694939291906122c9565b602060405180830381600087803b1580156117d057600080fd5b505af192505050801561180157506040513d601f19601f820116820180604052508101906117fe9190611ecd565b60015b611884573d8060008114611831576040519150601f19603f3d011682016040523d82523d6000602084013e611836565b606091505b5060008151141561187c576040517f08c379a000000000000000000000000000000000000000000000000000000000815260040161187390612352565b60405180910390fd5b805181602001fd5b63150b7a0260e01b7bffffffffffffffffffffffffffffffffffffffffffffffffffffffff1916817bffffffffffffffffffffffffffffffffffffffffffffffffffffffff1916149150506118d9565b600190505b949350505050565b60606000821415611929576040518060400160405280600181526020017f30000000000000000000000000000000000000000000000000000000000000008152509050611a3d565b600082905060005b6000821461195b5780806119449061282b565b915050600a8261195491906126ad565b9150611931565b60008167ffffffffffffffff81111561197757611976612961565b5b6040519080825280601f01601f1916602001820160405280156119a95781602001600182028036833780820191505090505b5090505b60008514611a36576001826119c291906126de565b9150600a856119d19190612874565b60306119dd9190612657565b60f81b8183815181106119f3576119f2612932565b5b60200101907effffffffffffffffffffffffffffffffffffffffffffffffffffffffffffff1916908160001a905350600a85611a2f91906126ad565b94506119ad565b8093505050505b919050565b600080823b905060008111915050919050565b508054611a61906127c8565b6000825580601f10611a735750611a92565b601f016020900490600052602060002090810190611a919190611b1b565b5b50565b828054611aa1906127c8565b90600052602060002090601f016020900481019282611ac35760008555611b0a565b82601f10611adc57805160ff1916838001178555611b0a565b82800160010185558215611b0a579182015b82811115611b09578251825591602001919060010190611aee565b5b509050611b179190611b1b565b5090565b5b80821115611b34576000816000905550600101611b1c565b5090565b6000611b4b611b46846125b2565b61258d565b905082815260208101848484011115611b6757611b66612995565b5b611b72848285612786565b509392505050565b6000611b8d611b88846125e3565b61258d565b905082815260208101848484011115611ba957611ba8612995565b5b611bb4848285612786565b509392505050565b600081359050611bcb81612e5c565b92915050565b600081359050611be081612e73565b92915050565b600081359050611bf581612e8a565b92915050565b600081519050611c0a81612e8a565b92915050565b600082601f830112611c2557611c24612990565b5b8135611c35848260208601611b38565b91505092915050565b600082601f830112611c5357611c52612990565b5b8135611c63848260208601611b7a565b91505092915050565b600081359050611c7b81612ea1565b92915050565b600060208284031215611c9757611c9661299f565b5b6000611ca584828501611bbc565b91505092915050565b60008060408385031215611cc557611cc461299f565b5b6000611cd385828601611bbc565b9250506020611ce485828601611bbc565b9150509250929050565b600080600060608486031215611d0757611d0661299f565b5b6000611d1586828701611bbc565b9350506020611d2686828701611bbc565b9250506040611d3786828701611c6c565b9150509250925092565b60008060008060808587031215611d5b57611d5a61299f565b5b6000611d6987828801611bbc565b9450506020611d7a87828801611bbc565b9350506040611d8b87828801611c6c565b925050606085013567ffffffffffffffff811115611dac57611dab61299a565b5b611db887828801611c10565b91505092959194509250565b60008060408385031215611ddb57611dda61299f565b5b6000611de985828601611bbc565b9250506020611dfa85828601611bd1565b9150509250929050565b60008060408385031215611e1b57611e1a61299f565b5b6000611e2985828601611bbc565b925050602083013567ffffffffffffffff811115611e4a57611e4961299a565b5b611e5685828601611c3e565b9150509250929050565b60008060408385031215611e7757611e7661299f565b5b6000611e8585828601611bbc565b9250506020611e9685828601611c6c565b9150509250929050565b600060208284031215611eb657611eb561299f565b5b6000611ec484828501611be6565b91505092915050565b600060208284031215611ee357611ee261299f565b5b6000611ef184828501611bfb565b91505092915050565b600060208284031215611f1057611f0f61299f565b5b6000611f1e84828501611c6c565b91505092915050565b60008060408385031215611f3e57611f3d61299f565b5b6000611f4c85828601611c6c565b9250506020611f5d85828601611bbc565b9150509250929050565b611f7081612712565b82525050565b611f7f81612724565b82525050565b6000611f9082612614565b611f9a818561262a565b9350611faa818560208601612795565b611fb3816129a4565b840191505092915050565b6000611fc98261261f565b611fd3818561263b565b9350611fe3818560208601612795565b611fec816129a4565b840191505092915050565b60006120028261261f565b61200c818561264c565b935061201c818560208601612795565b80840191505092915050565b600061203560328361263b565b9150612040826129b5565b604082019050919050565b6000612058601c8361263b565b915061206382612a04565b602082019050919050565b600061207b60248361263b565b915061208682612a2d565b604082019050919050565b600061209e60198361263b565b91506120a982612a7c565b602082019050919050565b60006120c1602c8361263b565b91506120cc82612aa5565b604082019050919050565b60006120e460388361263b565b91506120ef82612af4565b604082019050919050565b6000612107602a8361263b565b915061211282612b43565b604082019050919050565b600061212a60298361263b565b915061213582612b92565b604082019050919050565b600061214d602e8361263b565b915061215882612be1565b604082019050919050565b600061217060208361263b565b915061217b82612c30565b602082019050919050565b600061219360318361263b565b915061219e82612c59565b604082019050919050565b60006121b6602c8361263b565b91506121c182612ca8565b604082019050919050565b60006121d960298361263b565b91506121e482612cf7565b604082019050919050565b60006121fc602f8361263b565b915061220782612d46565b604082019050919050565b600061221f60218361263b565b915061222a82612d95565b604082019050919050565b600061224260318361263b565b915061224d82612de4565b604082019050919050565b600061226560208361263b565b915061227082612e33565b602082019050919050565b6122848161277c565b82525050565b60006122968285611ff7565b91506122a28284611ff7565b91508190509392505050565b60006020820190506122c36000830184611f67565b92915050565b60006080820190506122de6000830187611f67565b6122eb6020830186611f67565b6122f8604083018561227b565b818103606083015261230a8184611f85565b905095945050505050565b600060208201905061232a6000830184611f76565b92915050565b6000602082019050818103600083015261234a8184611fbe565b905092915050565b6000602082019050818103600083015261236b81612028565b9050919050565b6000602082019050818103600083015261238b8161204b565b9050919050565b600060208201905081810360008301526123ab8161206e565b9050919050565b600060208201905081810360008301526123cb81612091565b9050919050565b600060208201905081810360008301526123eb816120b4565b9050919050565b6000602082019050818103600083015261240b816120d7565b9050919050565b6000602082019050818103600083015261242b816120fa565b9050919050565b6000602082019050818103600083015261244b8161211d565b9050919050565b6000602082019050818103600083015261246b81612140565b9050919050565b6000602082019050818103600083015261248b81612163565b9050919050565b600060208201905081810360008301526124ab81612186565b9050919050565b600060208201905081810360008301526124cb816121a9565b9050919050565b600060208201905081810360008301526124eb816121cc565b9050919050565b6000602082019050818103600083015261250b816121ef565b9050919050565b6000602082019050818103600083015261252b81612212565b9050919050565b6000602082019050818103600083015261254b81612235565b9050919050565b6000602082019050818103600083015261256b81612258565b9050919050565b6000602082019050612587600083018461227b565b92915050565b60006125976125a8565b90506125a382826127fa565b919050565b6000604051905090565b600067ffffffffffffffff8211156125cd576125cc612961565b5b6125d6826129a4565b9050602081019050919050565b600067ffffffffffffffff8211156125fe576125fd612961565b5b612607826129a4565b9050602081019050919050565b600081519050919050565b600081519050919050565b600082825260208201905092915050565b600082825260208201905092915050565b600081905092915050565b60006126628261277c565b915061266d8361277c565b9250827fffffffffffffffffffffffffffffffffffffffffffffffffffffffffffffffff038211156126a2576126a16128a5565b5b828201905092915050565b60006126b88261277c565b91506126c38361277c565b9250826126d3576126d26128d4565b5b828204905092915050565b60006126e98261277c565b91506126f48361277c565b925082821015612707576127066128a5565b5b828203905092915050565b600061271d8261275c565b9050919050565b60008115159050919050565b60007fffffffff0000000000000000000000000000000000000000000000000000000082169050919050565b600073ffffffffffffffffffffffffffffffffffffffff82169050919050565b6000819050919050565b82818337600083830152505050565b60005b838110156127b3578082015181840152602081019050612798565b838111156127c2576000848401525b50505050565b600060028204905060018216806127e057607f821691505b602082108114156127f4576127f3612903565b5b50919050565b612803826129a4565b810181811067ffffffffffffffff8211171561282257612821612961565b5b80604052505050565b60006128368261277c565b91507fffffffffffffffffffffffffffffffffffffffffffffffffffffffffffffffff821415612869576128686128a5565b5b600182019050919050565b600061287f8261277c565b915061288a8361277c565b92508261289a576128996128d4565b5b828206905092915050565b7f4e487b7100000000000000000000000000000000000000000000000000000000600052601160045260246000fd5b7f4e487b7100000000000000000000000000000000000000000000000000000000600052601260045260246000fd5b7f4e487b7100000000000000000000000000000000000000000000000000000000600052602260045260246000fd5b7f4e487b7100000000000000000000000000000000000000000000000000000000600052603260045260246000fd5b7f4e487b7100000000000000000000000000000000000000000000000000000000600052604160045260246000fd5b600080fd5b600080fd5b600080fd5b600080fd5b6000601f19601f8301169050919050565b7f4552433732313a207472616e7366657220746f206e6f6e20455243373231526560008201527f63656976657220696d706c656d656e7465720000000000000000000000000000602082015250565b7f4552433732313a20746f6b656e20616c7265616479206d696e74656400000000600082015250565b7f4552433732313a207472616e7366657220746f20746865207a65726f2061646460008201527f7265737300000000000000000000000000000000000000000000000000000000602082015250565b7f4552433732313a20617070726f766520746f2063616c6c657200000000000000600082015250565b7f4552433732313a206f70657261746f7220717565727920666f72206e6f6e657860008201527f697374656e7420746f6b656e0000000000000000000000000000000000000000602082015250565b7f4552433732313a20617070726f76652063616c6c6572206973206e6f74206f7760008201527f6e6572206e6f7220617070726f76656420666f7220616c6c0000000000000000602082015250565b7f4552433732313a2062616c616e636520717565727920666f7220746865207a6560008201527f726f206164647265737300000000000000000000000000000000000000000000602082015250565b7f4552433732313a206f776e657220717565727920666f72206e6f6e657869737460008201527f656e7420746f6b656e0000000000000000000000000000000000000000000000602082015250565b7f45524337323155524953746f726167653a2055524920736574206f66206e6f6e60008201527f6578697374656e7420746f6b656e000000000000000000000000000000000000602082015250565b7f4552433732313a206d696e7420746f20746865207a65726f2061646472657373600082015250565b7f45524337323155524953746f726167653a2055524920717565727920666f722060008201527f6e6f6e6578697374656e7420746f6b656e000000000000000000000000000000602082015250565b7f4552433732313a20617070726f76656420717565727920666f72206e6f6e657860008201527f697374656e7420746f6b656e0000000000000000000000000000000000000000602082015250565b7f4552433732313a207472616e73666572206f6620746f6b656e2074686174206960008201527f73206e6f74206f776e0000000000000000000000000000000000000000000000602082015250565b7f4552433732314d657461646174613a2055524920717565727920666f72206e6f60008201527f6e6578697374656e7420746f6b656e0000000000000000000000000000000000602082015250565b7f4552433732313a20617070726f76616c20746f2063757272656e74206f776e6560008201527f7200000000000000000000000000000000000000000000000000000000000000602082015250565b7f4552433732313a207472616e736665722063616c6c6572206973206e6f74206f60008201527f776e6572206e6f7220617070726f766564000000000000000000000000000000602082015250565b7f436574204e4654206e6520766f75732061707061727469656e74207061732021600082015250565b612e6581612712565b8114612e7057600080fd5b50565b612e7c81612724565b8114612e8757600080fd5b50565b612e9381612730565b8114612e9e57600080fd5b50565b612eaa8161277c565b8114612eb557600080fd5b5056fea26469706673582212205bfdafc49a9ddce3ac5fa3c9271b87aef1769caec2fa62215e657d8ad1649dfc64736f6c63430008060033",
  "immutableReferences": {},
  "source": "//SPDX-License-Identifier: MIT\n\npragma solidity 0.8.6;\n\nimport \"@openzeppelin/contracts/token/ERC721/extensions/ERC721URIStorage.sol\";\nimport \"@openzeppelin/contracts/utils/Counters.sol\";\n\ncontract SecMyDocToken is ERC721URIStorage\n{\n    using Counters for Counters.Counter;\n    Counters.Counter public _tokenIDs;\n\n    constructor() ERC721(\"SecMyDoc\", \"SMD\") {}\n\n    function addItem(address owner, string memory tokenURI) public returns(uint)\n    {\n        _tokenIDs.increment();\n        uint256 newItemID = _tokenIDs.current();\n        _mint(owner, newItemID);\n        _setTokenURI(newItemID, tokenURI);\n\n        return newItemID;\n    }\n\n    function delItem(uint256 tokenID, address owner) public returns(bool)\n    {\n        require(ownerOf(tokenID) == owner, \"Cet NFT ne vous appartient pas !\");\n        _burn(tokenID);\n        return true;\n    }\n}\n",
  "sourcePath": "/home/oumar/projects/SAV-Doc/contracts/ERC721Token.sol",
  "compiler": {
    "name": "solc",
    "version": "0.8.6+commit.11564f7e.Emscripten.clang"
  },
  "schemaVersion": "3.4.1",
  "updatedAt": "2021-07-22T16:57:02.863Z",
  "networkType": "ethereum",
  "devdoc": {
    "kind": "dev",
    "methods": {
      "approve(address,uint256)": {
        "details": "See {IERC721-approve}."
      },
      "balanceOf(address)": {
        "details": "See {IERC721-balanceOf}."
      },
      "getApproved(uint256)": {
        "details": "See {IERC721-getApproved}."
      },
      "isApprovedForAll(address,address)": {
        "details": "See {IERC721-isApprovedForAll}."
      },
      "name()": {
        "details": "See {IERC721Metadata-name}."
      },
      "ownerOf(uint256)": {
        "details": "See {IERC721-ownerOf}."
      },
      "safeTransferFrom(address,address,uint256)": {
        "details": "See {IERC721-safeTransferFrom}."
      },
      "safeTransferFrom(address,address,uint256,bytes)": {
        "details": "See {IERC721-safeTransferFrom}."
      },
      "setApprovalForAll(address,bool)": {
        "details": "See {IERC721-setApprovalForAll}."
      },
      "supportsInterface(bytes4)": {
        "details": "See {IERC165-supportsInterface}."
      },
      "symbol()": {
        "details": "See {IERC721Metadata-symbol}."
      },
      "tokenURI(uint256)": {
        "details": "See {IERC721Metadata-tokenURI}."
      },
      "transferFrom(address,address,uint256)": {
        "details": "See {IERC721-transferFrom}."
      }
    },
    "version": 1
  },
  "userdoc": {
    "kind": "user",
    "methods": {},
    "version": 1
  }
}