{
  "contractName": "SecMyDoc",
  "abi": [
    {
      "inputs": [
        {
          "internalType": "contract SecMyDocToken",
          "name": "_token",
          "type": "address"
        }
      ],
      "stateMutability": "nonpayable",
      "type": "constructor"
    },
    {
      "anonymous": false,
      "inputs": [
        {
          "indexed": true,
          "internalType": "address",
          "name": "previousOwner",
          "type": "address"
        },
        {
          "indexed": true,
          "internalType": "address",
          "name": "newOwner",
          "type": "address"
        }
      ],
      "name": "OwnershipTransferred",
      "type": "event"
    },
    {
      "inputs": [
        {
          "internalType": "address",
          "name": "_address",
          "type": "address"
        },
        {
          "internalType": "string",
          "name": "name",
          "type": "string"
        },
        {
          "internalType": "string",
          "name": "pubKey",
          "type": "string"
        }
      ],
      "name": "addAuthority",
      "outputs": [
        {
          "components": [
            {
              "internalType": "string",
              "name": "name",
              "type": "string"
            },
            {
              "internalType": "string",
              "name": "publicKey",
              "type": "string"
            },
            {
              "internalType": "bool",
              "name": "isAuthority",
              "type": "bool"
            },
            {
              "internalType": "bool",
              "name": "exist",
              "type": "bool"
            }
          ],
          "internalType": "struct AccountManager.User",
          "name": "",
          "type": "tuple"
        }
      ],
      "stateMutability": "nonpayable",
      "type": "function"
    },
    {
      "inputs": [
        {
          "internalType": "uint256",
          "name": "tokenID",
          "type": "uint256"
        },
        {
          "internalType": "string",
          "name": "encryptedPassword",
          "type": "string"
        }
      ],
      "name": "addEncryptedPasswords",
      "outputs": [
        {
          "internalType": "bool",
          "name": "",
          "type": "bool"
        }
      ],
      "stateMutability": "nonpayable",
      "type": "function"
    },
    {
      "inputs": [
        {
          "internalType": "string",
          "name": "hashPasswordMaster",
          "type": "string"
        }
      ],
      "name": "addPasswordMaster",
      "outputs": [
        {
          "internalType": "bool",
          "name": "",
          "type": "bool"
        }
      ],
      "stateMutability": "nonpayable",
      "type": "function"
    },
    {
      "inputs": [
        {
          "internalType": "address",
          "name": "_address",
          "type": "address"
        },
        {
          "internalType": "string",
          "name": "name",
          "type": "string"
        },
        {
          "internalType": "string",
          "name": "pubKey",
          "type": "string"
        }
      ],
      "name": "addUser",
      "outputs": [
        {
          "components": [
            {
              "internalType": "string",
              "name": "name",
              "type": "string"
            },
            {
              "internalType": "string",
              "name": "publicKey",
              "type": "string"
            },
            {
              "internalType": "bool",
              "name": "isAuthority",
              "type": "bool"
            },
            {
              "internalType": "bool",
              "name": "exist",
              "type": "bool"
            }
          ],
          "internalType": "struct AccountManager.User",
          "name": "",
          "type": "tuple"
        }
      ],
      "stateMutability": "nonpayable",
      "type": "function"
    },
    {
      "inputs": [
        {
          "internalType": "uint256",
          "name": "tokenID",
          "type": "uint256"
        }
      ],
      "name": "delEncryptedPassword",
      "outputs": [
        {
          "internalType": "bool",
          "name": "",
          "type": "bool"
        }
      ],
      "stateMutability": "nonpayable",
      "type": "function"
    },
    {
      "inputs": [
        {
          "internalType": "address",
          "name": "_address",
          "type": "address"
        }
      ],
      "name": "delUser",
      "outputs": [
        {
          "internalType": "bool",
          "name": "",
          "type": "bool"
        }
      ],
      "stateMutability": "nonpayable",
      "type": "function"
    },
    {
      "inputs": [
        {
          "internalType": "uint256",
          "name": "tokenID",
          "type": "uint256"
        }
      ],
      "name": "getEncryptedPassword",
      "outputs": [
        {
          "internalType": "string",
          "name": "",
          "type": "string"
        }
      ],
      "stateMutability": "view",
      "type": "function",
      "constant": true
    },
    {
      "inputs": [],
      "name": "getPasswordMaster",
      "outputs": [
        {
          "internalType": "string",
          "name": "",
          "type": "string"
        }
      ],
      "stateMutability": "view",
      "type": "function",
      "constant": true
    },
    {
      "inputs": [
        {
          "internalType": "address",
          "name": "_address",
          "type": "address"
        }
      ],
      "name": "getUser",
      "outputs": [
        {
          "components": [
            {
              "internalType": "string",
              "name": "name",
              "type": "string"
            },
            {
              "internalType": "string",
              "name": "publicKey",
              "type": "string"
            },
            {
              "internalType": "bool",
              "name": "isAuthority",
              "type": "bool"
            },
            {
              "internalType": "bool",
              "name": "exist",
              "type": "bool"
            }
          ],
          "internalType": "struct AccountManager.User",
          "name": "",
          "type": "tuple"
        }
      ],
      "stateMutability": "view",
      "type": "function",
      "constant": true
    },
    {
      "inputs": [
        {
          "internalType": "address",
          "name": "_address",
          "type": "address"
        }
      ],
      "name": "isAuthority",
      "outputs": [
        {
          "internalType": "bool",
          "name": "",
          "type": "bool"
        }
      ],
      "stateMutability": "view",
      "type": "function",
      "constant": true
    },
    {
      "inputs": [],
      "name": "owner",
      "outputs": [
        {
          "internalType": "address",
          "name": "",
          "type": "address"
        }
      ],
      "stateMutability": "view",
      "type": "function",
      "constant": true
    },
    {
      "inputs": [],
      "name": "renounceOwnership",
      "outputs": [],
      "stateMutability": "nonpayable",
      "type": "function"
    },
    {
      "inputs": [
        {
          "internalType": "address",
          "name": "newOwner",
          "type": "address"
        }
      ],
      "name": "transferOwnership",
      "outputs": [],
      "stateMutability": "nonpayable",
      "type": "function"
    },
    {
      "inputs": [],
      "name": "getCountNFT",
      "outputs": [
        {
          "internalType": "uint256",
          "name": "",
          "type": "uint256"
        }
      ],
      "stateMutability": "view",
      "type": "function",
      "constant": true
    },
    {
      "inputs": [
        {
          "internalType": "string",
          "name": "tokenName",
          "type": "string"
        },
        {
          "internalType": "string",
          "name": "tokenURI",
          "type": "string"
        },
        {
          "internalType": "string",
          "name": "tokenMime",
          "type": "string"
        },
        {
          "internalType": "uint256",
          "name": "tokenLength",
          "type": "uint256"
        },
        {
          "internalType": "string",
          "name": "filePath",
          "type": "string"
        }
      ],
      "name": "createNFT",
      "outputs": [
        {
          "components": [
            {
              "internalType": "uint256",
              "name": "tokenID",
              "type": "uint256"
            },
            {
              "internalType": "uint256",
              "name": "tokenLength",
              "type": "uint256"
            },
            {
              "internalType": "string",
              "name": "tokenName",
              "type": "string"
            },
            {
              "internalType": "string",
              "name": "tokenMime",
              "type": "string"
            },
            {
              "internalType": "uint256",
              "name": "dateAdd",
              "type": "uint256"
            },
            {
              "internalType": "string",
              "name": "filePath",
              "type": "string"
            },
            {
              "internalType": "bool",
              "name": "isCertified",
              "type": "bool"
            },
            {
              "internalType": "address",
              "name": "certifying",
              "type": "address"
            }
          ],
          "internalType": "struct SecMyDoc.Nft",
          "name": "",
          "type": "tuple"
        }
      ],
      "stateMutability": "nonpayable",
      "type": "function"
    },
    {
      "inputs": [
        {
          "internalType": "string",
          "name": "tokenName",
          "type": "string"
        },
        {
          "internalType": "string",
          "name": "tokenURI",
          "type": "string"
        },
        {
          "internalType": "string",
          "name": "tokenMime",
          "type": "string"
        },
        {
          "internalType": "uint256",
          "name": "tokenLength",
          "type": "uint256"
        },
        {
          "internalType": "string",
          "name": "filePath",
          "type": "string"
        }
      ],
      "name": "createNFTCertified",
      "outputs": [
        {
          "components": [
            {
              "internalType": "uint256",
              "name": "tokenID",
              "type": "uint256"
            },
            {
              "internalType": "uint256",
              "name": "tokenLength",
              "type": "uint256"
            },
            {
              "internalType": "string",
              "name": "tokenName",
              "type": "string"
            },
            {
              "internalType": "string",
              "name": "tokenMime",
              "type": "string"
            },
            {
              "internalType": "uint256",
              "name": "dateAdd",
              "type": "uint256"
            },
            {
              "internalType": "string",
              "name": "filePath",
              "type": "string"
            },
            {
              "internalType": "bool",
              "name": "isCertified",
              "type": "bool"
            },
            {
              "internalType": "address",
              "name": "certifying",
              "type": "address"
            }
          ],
          "internalType": "struct SecMyDoc.Nft",
          "name": "",
          "type": "tuple"
        }
      ],
      "stateMutability": "nonpayable",
      "type": "function"
    },
    {
      "inputs": [],
      "name": "getNFTs",
      "outputs": [
        {
          "components": [
            {
              "internalType": "uint256",
              "name": "tokenID",
              "type": "uint256"
            },
            {
              "internalType": "uint256",
              "name": "tokenLength",
              "type": "uint256"
            },
            {
              "internalType": "string",
              "name": "tokenName",
              "type": "string"
            },
            {
              "internalType": "string",
              "name": "tokenMime",
              "type": "string"
            },
            {
              "internalType": "uint256",
              "name": "dateAdd",
              "type": "uint256"
            },
            {
              "internalType": "string",
              "name": "filePath",
              "type": "string"
            },
            {
              "internalType": "bool",
              "name": "isCertified",
              "type": "bool"
            },
            {
              "internalType": "address",
              "name": "certifying",
              "type": "address"
            }
          ],
          "internalType": "struct SecMyDoc.Nft[]",
          "name": "",
          "type": "tuple[]"
        }
      ],
      "stateMutability": "view",
      "type": "function",
      "constant": true
    },
    {
      "inputs": [
        {
          "internalType": "uint256",
          "name": "index",
          "type": "uint256"
        }
      ],
      "name": "getNFT",
      "outputs": [
        {
          "components": [
            {
              "internalType": "uint256",
              "name": "tokenID",
              "type": "uint256"
            },
            {
              "internalType": "uint256",
              "name": "tokenLength",
              "type": "uint256"
            },
            {
              "internalType": "string",
              "name": "tokenName",
              "type": "string"
            },
            {
              "internalType": "string",
              "name": "tokenMime",
              "type": "string"
            },
            {
              "internalType": "uint256",
              "name": "dateAdd",
              "type": "uint256"
            },
            {
              "internalType": "string",
              "name": "filePath",
              "type": "string"
            },
            {
              "internalType": "bool",
              "name": "isCertified",
              "type": "bool"
            },
            {
              "internalType": "address",
              "name": "certifying",
              "type": "address"
            }
          ],
          "internalType": "struct SecMyDoc.Nft",
          "name": "",
          "type": "tuple"
        }
      ],
      "stateMutability": "view",
      "type": "function",
      "constant": true
    },
    {
      "inputs": [
        {
          "internalType": "uint256",
          "name": "tokenID",
          "type": "uint256"
        }
      ],
      "name": "getTokenURI",
      "outputs": [
        {
          "internalType": "string",
          "name": "",
          "type": "string"
        }
      ],
      "stateMutability": "view",
      "type": "function",
      "constant": true
    },
    {
      "inputs": [
        {
          "internalType": "uint256",
          "name": "tokenID",
          "type": "uint256"
        }
      ],
      "name": "deleteNFT",
      "outputs": [
        {
          "internalType": "bool",
          "name": "",
          "type": "bool"
        }
      ],
      "stateMutability": "nonpayable",
      "type": "function"
    },
    {
      "inputs": [
        {
          "internalType": "uint256",
          "name": "tokenID",
          "type": "uint256"
        },
        {
          "internalType": "address",
          "name": "certifying",
          "type": "address"
        }
      ],
      "name": "requestCertification",
      "outputs": [
        {
          "internalType": "bool",
          "name": "",
          "type": "bool"
        }
      ],
      "stateMutability": "nonpayable",
      "type": "function"
    },
    {
      "inputs": [],
      "name": "getRequests",
      "outputs": [
        {
          "components": [
            {
              "internalType": "address",
              "name": "applicant",
              "type": "address"
            },
            {
              "internalType": "uint256",
              "name": "tokenID",
              "type": "uint256"
            },
            {
              "internalType": "uint256",
              "name": "index",
              "type": "uint256"
            }
          ],
          "internalType": "struct SecMyDoc.Request[]",
          "name": "",
          "type": "tuple[]"
        }
      ],
      "stateMutability": "view",
      "type": "function",
      "constant": true
    },
    {
      "inputs": [
        {
          "components": [
            {
              "internalType": "address",
              "name": "applicant",
              "type": "address"
            },
            {
              "internalType": "uint256",
              "name": "tokenID",
              "type": "uint256"
            },
            {
              "internalType": "uint256",
              "name": "index",
              "type": "uint256"
            }
          ],
          "internalType": "struct SecMyDoc.Request",
          "name": "request",
          "type": "tuple"
        }
      ],
      "name": "acceptRequest",
      "outputs": [
        {
          "components": [
            {
              "internalType": "uint256",
              "name": "tokenID",
              "type": "uint256"
            },
            {
              "internalType": "uint256",
              "name": "tokenLength",
              "type": "uint256"
            },
            {
              "internalType": "string",
              "name": "tokenName",
              "type": "string"
            },
            {
              "internalType": "string",
              "name": "tokenMime",
              "type": "string"
            },
            {
              "internalType": "uint256",
              "name": "dateAdd",
              "type": "uint256"
            },
            {
              "internalType": "string",
              "name": "filePath",
              "type": "string"
            },
            {
              "internalType": "bool",
              "name": "isCertified",
              "type": "bool"
            },
            {
              "internalType": "address",
              "name": "certifying",
              "type": "address"
            }
          ],
          "internalType": "struct SecMyDoc.Nft",
          "name": "",
          "type": "tuple"
        }
      ],
      "stateMutability": "nonpayable",
      "type": "function"
    }
  ],
  "bytecode": "0x60806040523480156200001157600080fd5b5060405162004b1a38038062004b1a833981810160405281019062000037919062000182565b620000576200004b6200009f60201b60201c565b620000a760201b60201c565b80600460006101000a81548173ffffffffffffffffffffffffffffffffffffffff021916908373ffffffffffffffffffffffffffffffffffffffff160217905550506200021b565b600033905090565b60008060009054906101000a900473ffffffffffffffffffffffffffffffffffffffff169050816000806101000a81548173ffffffffffffffffffffffffffffffffffffffff021916908373ffffffffffffffffffffffffffffffffffffffff1602179055508173ffffffffffffffffffffffffffffffffffffffff168173ffffffffffffffffffffffffffffffffffffffff167f8be0079c531659141344cd1fd0a4f28419497f9722a3daafe3b4186f6b6457e060405160405180910390a35050565b6000815190506200017c8162000201565b92915050565b6000602082840312156200019b576200019a620001fc565b5b6000620001ab848285016200016b565b91505092915050565b6000620001c182620001dc565b9050919050565b6000620001d582620001b4565b9050919050565b600073ffffffffffffffffffffffffffffffffffffffff82169050919050565b600080fd5b6200020c81620001c8565b81146200021857600080fd5b50565b6148ef806200022b6000396000f3fe608060405234801561001057600080fd5b506004361061014d5760003560e01c8063715018a6116100c3578063d7554a681161007c578063d7554a6814610402578063da2c092b14610432578063f2fde38b14610462578063f5d686981461047e578063f687ed57146104ae578063f849f379146104de5761014d565b8063715018a61461032c57806377266f551461033657806381a4f68b146103665780638813ce12146103965780638da5cb5b146103b4578063a63d6042146103d25761014d565b80633bb3a24d116101155780633bb3a24d1461021e57806341d5e2451461024e57806343ee1c4f1461027e57806351ca6bd51461029c578063576f7ea7146102cc5780636f77926b146102fc5761014d565b806310edb2cb14610152578063227212f2146101705780632330f2471461018e578063254e9c8a146101be578063282c4254146101ee575b600080fd5b61015a61050e565b6040516101679190614045565b60405180910390f35b6101786105dd565b6040516101859190613fe6565b60405180910390f35b6101a860048036038101906101a39190613675565b610944565b6040516101b5919061402a565b60405180910390f35b6101d860048036038101906101d39190613931565b61099d565b6040516101e59190614045565b60405180910390f35b610208600480360381019061020391906139cb565b610a7f565b604051610215919061402a565b60405180910390f35b61023860048036038101906102339190613931565b610b33565b6040516102459190614045565b60405180910390f35b61026860048036038101906102639190613819565b610d06565b60405161027591906141c7565b60405180910390f35b610286610f74565b604051610293919061420b565b60405180910390f35b6102b660048036038101906102b19190613787565b611026565b6040516102c3919061402a565b60405180910390f35b6102e660048036038101906102e19190613931565b611085565b6040516102f391906141c7565b60405180910390f35b61031660048036038101906103119190613675565b611453565b60405161032391906141e9565b60405180910390f35b610334611606565b005b610350600480360381019061034b9190613931565b61168e565b60405161035d919061402a565b60405180910390f35b610380600480360381019061037b9190613819565b6116f5565b60405161038d91906141c7565b60405180910390f35b61039e6119b6565b6040516103ab9190614008565b60405180910390f35b6103bc611b95565b6040516103c99190613f9b565b60405180910390f35b6103ec60048036038101906103e7919061398b565b611bbe565b6040516103f9919061402a565b60405180910390f35b61041c600480360381019061041791906136cf565b61206b565b60405161042991906141e9565b60405180910390f35b61044c600480360381019061044791906136cf565b612248565b60405161045991906141e9565b60405180910390f35b61047c60048036038101906104779190613675565b612431565b005b61049860048036038101906104939190613904565b612529565b6040516104a591906141c7565b60405180910390f35b6104c860048036038101906104c39190613931565b612751565b6040516104d5919061402a565b60405180910390f35b6104f860048036038101906104f39190613675565b612c40565b604051610505919061402a565b60405180910390f35b6060600360003373ffffffffffffffffffffffffffffffffffffffff1673ffffffffffffffffffffffffffffffffffffffff168152602001908152602001600020805461055a90614458565b80601f016020809104026020016040519081016040528092919081815260200182805461058690614458565b80156105d35780601f106105a8576101008083540402835291602001916105d3565b820191906000526020600020905b8154815290600101906020018083116105b657829003601f168201915b5050505050905090565b60606000600560003373ffffffffffffffffffffffffffffffffffffffff1673ffffffffffffffffffffffffffffffffffffffff1681526020019081526020016000208054905011610664576040517f08c379a000000000000000000000000000000000000000000000000000000000815260040161065b90614127565b60405180910390fd5b600560003373ffffffffffffffffffffffffffffffffffffffff1673ffffffffffffffffffffffffffffffffffffffff168152602001908152602001600020805480602002602001604051908101604052809291908181526020016000905b8282101561093b578382906000526020600020906007020160405180610100016040529081600082015481526020016001820154815260200160028201805461070b90614458565b80601f016020809104026020016040519081016040528092919081815260200182805461073790614458565b80156107845780601f1061075957610100808354040283529160200191610784565b820191906000526020600020905b81548152906001019060200180831161076757829003601f168201915b5050505050815260200160038201805461079d90614458565b80601f01602080910402602001604051908101604052809291908181526020018280546107c990614458565b80156108165780601f106107eb57610100808354040283529160200191610816565b820191906000526020600020905b8154815290600101906020018083116107f957829003601f168201915b505050505081526020016004820154815260200160058201805461083990614458565b80601f016020809104026020016040519081016040528092919081815260200182805461086590614458565b80156108b25780601f10610887576101008083540402835291602001916108b2565b820191906000526020600020905b81548152906001019060200180831161089557829003601f168201915b505050505081526020016006820160009054906101000a900460ff161515151581526020016006820160019054906101000a900473ffffffffffffffffffffffffffffffffffffffff1673ffffffffffffffffffffffffffffffffffffffff1673ffffffffffffffffffffffffffffffffffffffff1681525050815260200190600101906106c3565b50505050905090565b6000600160008373ffffffffffffffffffffffffffffffffffffffff1673ffffffffffffffffffffffffffffffffffffffff16815260200190815260200160002060020160009054906101000a900460ff169050919050565b6060600260003373ffffffffffffffffffffffffffffffffffffffff1673ffffffffffffffffffffffffffffffffffffffff168152602001908152602001600020600083815260200190815260200160002080546109fa90614458565b80601f0160208091040260200160405190810160405280929190818152602001828054610a2690614458565b8015610a735780601f10610a4857610100808354040283529160200191610a73565b820191906000526020600020905b815481529060010190602001808311610a5657829003601f168201915b50505050509050919050565b600080831415610ac4576040517f08c379a0000000000000000000000000000000000000000000000000000000008152600401610abb90614147565b60405180910390fd5b81600260003373ffffffffffffffffffffffffffffffffffffffff1673ffffffffffffffffffffffffffffffffffffffff16815260200190815260200160002060008581526020019081526020016000209080519060200190610b28929190613298565b506001905092915050565b6060813373ffffffffffffffffffffffffffffffffffffffff16600460009054906101000a900473ffffffffffffffffffffffffffffffffffffffff1673ffffffffffffffffffffffffffffffffffffffff16636352211e836040518263ffffffff1660e01b8152600401610ba8919061420b565b60206040518083038186803b158015610bc057600080fd5b505afa158015610bd4573d6000803e3d6000fd5b505050506040513d601f19601f82011682018060405250810190610bf891906136a2565b73ffffffffffffffffffffffffffffffffffffffff1614610c4e576040517f08c379a0000000000000000000000000000000000000000000000000000000008152600401610c45906141a7565b60405180910390fd5b600460009054906101000a900473ffffffffffffffffffffffffffffffffffffffff1673ffffffffffffffffffffffffffffffffffffffff1663c87b56dd846040518263ffffffff1660e01b8152600401610ca9919061420b565b60006040518083038186803b158015610cc157600080fd5b505afa158015610cd5573d6000803e3d6000fd5b505050506040513d6000823e3d601f19601f82011682018060405250810190610cfe91906137d0565b915050919050565b610d0e61331e565b6000610d1861331e565b600460009054906101000a900473ffffffffffffffffffffffffffffffffffffffff1673ffffffffffffffffffffffffffffffffffffffff166336e0271d33896040518363ffffffff1660e01b8152600401610d75929190613fb6565b602060405180830381600087803b158015610d8f57600080fd5b505af1158015610da3573d6000803e3d6000fd5b505050506040513d601f19601f82011682018060405250810190610dc7919061395e565b9150604051806101000160405280838152602001868152602001898152602001878152602001428152602001858152602001600015158152602001600073ffffffffffffffffffffffffffffffffffffffff168152509050600560003373ffffffffffffffffffffffffffffffffffffffff1673ffffffffffffffffffffffffffffffffffffffff16815260200190815260200160002081908060018154018082558091505060019003906000526020600020906007020160009091909190915060008201518160000155602082015181600101556040820151816002019080519060200190610eb8929190613298565b506060820151816003019080519060200190610ed5929190613298565b506080820151816004015560a0820151816005019080519060200190610efc929190613298565b5060c08201518160060160006101000a81548160ff02191690831515021790555060e08201518160060160016101000a81548173ffffffffffffffffffffffffffffffffffffffff021916908373ffffffffffffffffffffffffffffffffffffffff1602179055505050809250505095945050505050565b6000600460009054906101000a900473ffffffffffffffffffffffffffffffffffffffff1673ffffffffffffffffffffffffffffffffffffffff166370a08231336040518263ffffffff1660e01b8152600401610fd19190613f9b565b60206040518083038186803b158015610fe957600080fd5b505afa158015610ffd573d6000803e3d6000fd5b505050506040513d601f19601f82011682018060405250810190611021919061395e565b905090565b600081600360003373ffffffffffffffffffffffffffffffffffffffff1673ffffffffffffffffffffffffffffffffffffffff168152602001908152602001600020908051906020019061107b929190613298565b5060019050919050565b61108d61331e565b6000600560003373ffffffffffffffffffffffffffffffffffffffff1673ffffffffffffffffffffffffffffffffffffffff1681526020019081526020016000208054905011611112576040517f08c379a000000000000000000000000000000000000000000000000000000000815260040161110990614127565b60405180910390fd5b600560003373ffffffffffffffffffffffffffffffffffffffff1673ffffffffffffffffffffffffffffffffffffffff168152602001908152602001600020805490508210611196576040517f08c379a000000000000000000000000000000000000000000000000000000000815260040161118d90614107565b60405180910390fd5b6000600560003373ffffffffffffffffffffffffffffffffffffffff1673ffffffffffffffffffffffffffffffffffffffff16815260200190815260200160002083815481106111e9576111e8614591565b5b906000526020600020906007020160405180610100016040529081600082015481526020016001820154815260200160028201805461122790614458565b80601f016020809104026020016040519081016040528092919081815260200182805461125390614458565b80156112a05780601f10611275576101008083540402835291602001916112a0565b820191906000526020600020905b81548152906001019060200180831161128357829003601f168201915b505050505081526020016003820180546112b990614458565b80601f01602080910402602001604051908101604052809291908181526020018280546112e590614458565b80156113325780601f1061130757610100808354040283529160200191611332565b820191906000526020600020905b81548152906001019060200180831161131557829003601f168201915b505050505081526020016004820154815260200160058201805461135590614458565b80601f016020809104026020016040519081016040528092919081815260200182805461138190614458565b80156113ce5780601f106113a3576101008083540402835291602001916113ce565b820191906000526020600020905b8154815290600101906020018083116113b157829003601f168201915b505050505081526020016006820160009054906101000a900460ff161515151581526020016006820160019054906101000a900473ffffffffffffffffffffffffffffffffffffffff1673ffffffffffffffffffffffffffffffffffffffff1673ffffffffffffffffffffffffffffffffffffffff1681525050905080915050919050565b61145b61337b565b600160008373ffffffffffffffffffffffffffffffffffffffff1673ffffffffffffffffffffffffffffffffffffffff1681526020019081526020016000206040518060800160405290816000820180546114b590614458565b80601f01602080910402602001604051908101604052809291908181526020018280546114e190614458565b801561152e5780601f106115035761010080835404028352916020019161152e565b820191906000526020600020905b81548152906001019060200180831161151157829003601f168201915b5050505050815260200160018201805461154790614458565b80601f016020809104026020016040519081016040528092919081815260200182805461157390614458565b80156115c05780601f10611595576101008083540402835291602001916115c0565b820191906000526020600020905b8154815290600101906020018083116115a357829003601f168201915b505050505081526020016002820160009054906101000a900460ff161515151581526020016002820160019054906101000a900460ff1615151515815250509050919050565b61160e612dc3565b73ffffffffffffffffffffffffffffffffffffffff1661162c611b95565b73ffffffffffffffffffffffffffffffffffffffff1614611682576040517f08c379a0000000000000000000000000000000000000000000000000000000008152600401611679906140e7565b60405180910390fd5b61168c6000612dcb565b565b6000600260003373ffffffffffffffffffffffffffffffffffffffff1673ffffffffffffffffffffffffffffffffffffffff168152602001908152602001600020600083815260200190815260200160002060006116ec91906133a7565b60019050919050565b6116fd61331e565b33600061170982611453565b9050806040015161174f576040517f08c379a0000000000000000000000000000000000000000000000000000000008152600401611746906140a7565b60405180910390fd5b600061175961331e565b600460009054906101000a900473ffffffffffffffffffffffffffffffffffffffff1673ffffffffffffffffffffffffffffffffffffffff166336e0271d338b6040518363ffffffff1660e01b81526004016117b6929190613fb6565b602060405180830381600087803b1580156117d057600080fd5b505af11580156117e4573d6000803e3d6000fd5b505050506040513d601f19601f82011682018060405250810190611808919061395e565b91506040518061010001604052808381526020018881526020018b81526020018981526020014281526020018781526020016001151581526020013373ffffffffffffffffffffffffffffffffffffffff168152509050600560003373ffffffffffffffffffffffffffffffffffffffff1673ffffffffffffffffffffffffffffffffffffffff168152602001908152602001600020819080600181540180825580915050600190039060005260206000209060070201600090919091909150600082015181600001556020820151816001015560408201518160020190805190602001906118f8929190613298565b506060820151816003019080519060200190611915929190613298565b506080820151816004015560a082015181600501908051906020019061193c929190613298565b5060c08201518160060160006101000a81548160ff02191690831515021790555060e08201518160060160016101000a81548173ffffffffffffffffffffffffffffffffffffffff021916908373ffffffffffffffffffffffffffffffffffffffff16021790555050508094505050505095945050505050565b60603360006119c482611453565b90508060400151611a0a576040517f08c379a0000000000000000000000000000000000000000000000000000000008152600401611a01906140a7565b60405180910390fd5b6000600660003373ffffffffffffffffffffffffffffffffffffffff1673ffffffffffffffffffffffffffffffffffffffff1681526020019081526020016000208054905011611a8f576040517f08c379a0000000000000000000000000000000000000000000000000000000008152600401611a8690614087565b60405180910390fd5b600660003373ffffffffffffffffffffffffffffffffffffffff1673ffffffffffffffffffffffffffffffffffffffff168152602001908152602001600020805480602002602001604051908101604052809291908181526020016000905b82821015611b8a57838290600052602060002090600302016040518060600160405290816000820160009054906101000a900473ffffffffffffffffffffffffffffffffffffffff1673ffffffffffffffffffffffffffffffffffffffff1673ffffffffffffffffffffffffffffffffffffffff1681526020016001820154815260200160028201548152505081526020019060010190611aee565b505050509250505090565b60008060009054906101000a900473ffffffffffffffffffffffffffffffffffffffff16905090565b6000816000600160008373ffffffffffffffffffffffffffffffffffffffff1673ffffffffffffffffffffffffffffffffffffffff168152602001908152602001600020604051806080016040529081600082018054611c1d90614458565b80601f0160208091040260200160405190810160405280929190818152602001828054611c4990614458565b8015611c965780601f10611c6b57610100808354040283529160200191611c96565b820191906000526020600020905b815481529060010190602001808311611c7957829003601f168201915b50505050508152602001600182018054611caf90614458565b80601f0160208091040260200160405190810160405280929190818152602001828054611cdb90614458565b8015611d285780601f10611cfd57610100808354040283529160200191611d28565b820191906000526020600020905b815481529060010190602001808311611d0b57829003601f168201915b505050505081526020016002820160009054906101000a900460ff161515151581526020016002820160019054906101000a900460ff16151515158152505090508060600151611dad576040517f08c379a0000000000000000000000000000000000000000000000000000000008152600401611da4906140c7565b60405180910390fd5b843373ffffffffffffffffffffffffffffffffffffffff16600460009054906101000a900473ffffffffffffffffffffffffffffffffffffffff1673ffffffffffffffffffffffffffffffffffffffff16636352211e836040518263ffffffff1660e01b8152600401611e20919061420b565b60206040518083038186803b158015611e3857600080fd5b505afa158015611e4c573d6000803e3d6000fd5b505050506040513d601f19601f82011682018060405250810190611e7091906136a2565b73ffffffffffffffffffffffffffffffffffffffff1614611ec6576040517f08c379a0000000000000000000000000000000000000000000000000000000008152600401611ebd906141a7565b60405180910390fd5b611ecf85610944565b611f0e576040517f08c379a0000000000000000000000000000000000000000000000000000000008152600401611f0590614187565b60405180910390fd5b611f166133e7565b60405180606001604052803373ffffffffffffffffffffffffffffffffffffffff1681526020018881526020016001600660008a73ffffffffffffffffffffffffffffffffffffffff1673ffffffffffffffffffffffffffffffffffffffff16815260200190815260200160002080549050611f929190614344565b8152509050600660008773ffffffffffffffffffffffffffffffffffffffff1673ffffffffffffffffffffffffffffffffffffffff16815260200190815260200160002081908060018154018082558091505060019003906000526020600020906003020160009091909190915060008201518160000160006101000a81548173ffffffffffffffffffffffffffffffffffffffff021916908373ffffffffffffffffffffffffffffffffffffffff16021790555060208201518160010155604082015181600201555050600194505050505092915050565b61207361337b565b83600073ffffffffffffffffffffffffffffffffffffffff168173ffffffffffffffffffffffffffffffffffffffff1614156120e4576040517f08c379a00000000000000000000000000000000000000000000000000000000081526004016120db90614167565b60405180910390fd5b600073ffffffffffffffffffffffffffffffffffffffff168573ffffffffffffffffffffffffffffffffffffffff161415612154576040517f08c379a000000000000000000000000000000000000000000000000000000000815260040161214b90614167565b60405180910390fd5b6000604051806080016040528086815260200185815260200160001515815260200160011515815250905080600160008873ffffffffffffffffffffffffffffffffffffffff1673ffffffffffffffffffffffffffffffffffffffff16815260200190815260200160002060008201518160000190805190602001906121db929190613298565b5060208201518160010190805190602001906121f8929190613298565b5060408201518160020160006101000a81548160ff02191690831515021790555060608201518160020160016101000a81548160ff02191690831515021790555090505080925050509392505050565b61225061337b565b612258612dc3565b73ffffffffffffffffffffffffffffffffffffffff16612276611b95565b73ffffffffffffffffffffffffffffffffffffffff16146122cc576040517f08c379a00000000000000000000000000000000000000000000000000000000081526004016122c3906140e7565b60405180910390fd5b83600073ffffffffffffffffffffffffffffffffffffffff168173ffffffffffffffffffffffffffffffffffffffff16141561233d576040517f08c379a000000000000000000000000000000000000000000000000000000000815260040161233490614167565b60405180910390fd5b6000604051806080016040528086815260200185815260200160011515815260200160011515815250905080600160008873ffffffffffffffffffffffffffffffffffffffff1673ffffffffffffffffffffffffffffffffffffffff16815260200190815260200160002060008201518160000190805190602001906123c4929190613298565b5060208201518160010190805190602001906123e1929190613298565b5060408201518160020160006101000a81548160ff02191690831515021790555060608201518160020160016101000a81548160ff02191690831515021790555090505080925050509392505050565b612439612dc3565b73ffffffffffffffffffffffffffffffffffffffff16612457611b95565b73ffffffffffffffffffffffffffffffffffffffff16146124ad576040517f08c379a00000000000000000000000000000000000000000000000000000000081526004016124a4906140e7565b60405180910390fd5b600073ffffffffffffffffffffffffffffffffffffffff168173ffffffffffffffffffffffffffffffffffffffff16141561251d576040517f08c379a000000000000000000000000000000000000000000000000000000000815260040161251490614067565b60405180910390fd5b61252681612dcb565b50565b61253161331e565b33600061253d82611453565b90508060400151612583576040517f08c379a000000000000000000000000000000000000000000000000000000000815260040161257a906140a7565b60405180910390fd5b61258b61331e565b600061259a8660200151612e8f565b90506125a581611085565b915060018260c0019015159081151581525050338260e0019073ffffffffffffffffffffffffffffffffffffffff16908173ffffffffffffffffffffffffffffffffffffffff16815250508160056000886000015173ffffffffffffffffffffffffffffffffffffffff1673ffffffffffffffffffffffffffffffffffffffff168152602001908152602001600020828154811061264657612645614591565b5b906000526020600020906007020160008201518160000155602082015181600101556040820151816002019080519060200190612684929190613298565b5060608201518160030190805190602001906126a1929190613298565b506080820151816004015560a08201518160050190805190602001906126c8929190613298565b5060c08201518160060160006101000a81548160ff02191690831515021790555060e08201518160060160016101000a81548173ffffffffffffffffffffffffffffffffffffffff021916908373ffffffffffffffffffffffffffffffffffffffff16021790555090505060006127428760400151612ff9565b90508295505050505050919050565b6000813373ffffffffffffffffffffffffffffffffffffffff16600460009054906101000a900473ffffffffffffffffffffffffffffffffffffffff1673ffffffffffffffffffffffffffffffffffffffff16636352211e836040518263ffffffff1660e01b81526004016127c6919061420b565b60206040518083038186803b1580156127de57600080fd5b505afa1580156127f2573d6000803e3d6000fd5b505050506040513d601f19601f8201168201806040525081019061281691906136a2565b73ffffffffffffffffffffffffffffffffffffffff161461286c576040517f08c379a0000000000000000000000000000000000000000000000000000000008152600401612863906141a7565b60405180910390fd5b600061287784612e8f565b9050600560003373ffffffffffffffffffffffffffffffffffffffff1673ffffffffffffffffffffffffffffffffffffffff1681526020019081526020016000206001600560003373ffffffffffffffffffffffffffffffffffffffff1673ffffffffffffffffffffffffffffffffffffffff16815260200190815260200160002080549050612907919061439a565b8154811061291857612917614591565b5b9060005260206000209060070201600560003373ffffffffffffffffffffffffffffffffffffffff1673ffffffffffffffffffffffffffffffffffffffff168152602001908152602001600020828154811061297757612976614591565b5b9060005260206000209060070201600082015481600001556001820154816001015560028201816002019080546129ad90614458565b6129b892919061341e565b5060038201816003019080546129cd90614458565b6129d892919061341e565b506004820154816004015560058201816005019080546129f790614458565b612a0292919061341e565b506006820160009054906101000a900460ff168160060160006101000a81548160ff0219169083151502179055506006820160019054906101000a900473ffffffffffffffffffffffffffffffffffffffff168160060160016101000a81548173ffffffffffffffffffffffffffffffffffffffff021916908373ffffffffffffffffffffffffffffffffffffffff160217905550905050600560003373ffffffffffffffffffffffffffffffffffffffff1673ffffffffffffffffffffffffffffffffffffffff168152602001908152602001600020805480612ae957612ae8614562565b5b60019003818190600052602060002090600702016000808201600090556001820160009055600282016000612b1e91906133a7565b600382016000612b2e91906133a7565b6004820160009055600582016000612b4691906133a7565b6006820160006101000a81549060ff02191690556006820160016101000a81549073ffffffffffffffffffffffffffffffffffffffff021916905550509055600460009054906101000a900473ffffffffffffffffffffffffffffffffffffffff1673ffffffffffffffffffffffffffffffffffffffff1663028e985a85336040518363ffffffff1660e01b8152600401612be2929190614226565b602060405180830381600087803b158015612bfc57600080fd5b505af1158015612c10573d6000803e3d6000fd5b505050506040513d601f19601f82011682018060405250810190612c34919061375a565b50600192505050919050565b6000612c4a612dc3565b73ffffffffffffffffffffffffffffffffffffffff16612c68611b95565b73ffffffffffffffffffffffffffffffffffffffff1614612cbe576040517f08c379a0000000000000000000000000000000000000000000000000000000008152600401612cb5906140e7565b60405180910390fd5b81600073ffffffffffffffffffffffffffffffffffffffff168173ffffffffffffffffffffffffffffffffffffffff161415612d2f576040517f08c379a0000000000000000000000000000000000000000000000000000000008152600401612d2690614167565b60405180910390fd5b600160008473ffffffffffffffffffffffffffffffffffffffff1673ffffffffffffffffffffffffffffffffffffffff16815260200190815260200160002060008082016000612d7f91906133a7565b600182016000612d8f91906133a7565b6002820160006101000a81549060ff02191690556002820160016101000a81549060ff021916905550506001915050919050565b600033905090565b60008060009054906101000a900473ffffffffffffffffffffffffffffffffffffffff169050816000806101000a81548173ffffffffffffffffffffffffffffffffffffffff021916908373ffffffffffffffffffffffffffffffffffffffff1602179055508173ffffffffffffffffffffffffffffffffffffffff168173ffffffffffffffffffffffffffffffffffffffff167f8be0079c531659141344cd1fd0a4f28419497f9722a3daafe3b4186f6b6457e060405160405180910390a35050565b600080600080600090505b600560003373ffffffffffffffffffffffffffffffffffffffff1673ffffffffffffffffffffffffffffffffffffffff16815260200190815260200160002080549050811015612fae57600560003373ffffffffffffffffffffffffffffffffffffffff1673ffffffffffffffffffffffffffffffffffffffff1681526020019081526020016000208181548110612f3557612f34614591565b5b906000526020600020906007020160000154851415612f9b5780915060019250600560003373ffffffffffffffffffffffffffffffffffffffff1673ffffffffffffffffffffffffffffffffffffffff1681526020019081526020016000208054905090505b8080612fa6906144bb565b915050612e9a565b5081612fef576040517f08c379a0000000000000000000000000000000000000000000000000000000008152600401612fe6906141a7565b60405180910390fd5b8092505050919050565b60006130036133e7565b600660003373ffffffffffffffffffffffffffffffffffffffff1673ffffffffffffffffffffffffffffffffffffffff1681526020019081526020016000206001600660003373ffffffffffffffffffffffffffffffffffffffff1673ffffffffffffffffffffffffffffffffffffffff16815260200190815260200160002080549050613091919061439a565b815481106130a2576130a1614591565b5b90600052602060002090600302016040518060600160405290816000820160009054906101000a900473ffffffffffffffffffffffffffffffffffffffff1673ffffffffffffffffffffffffffffffffffffffff1673ffffffffffffffffffffffffffffffffffffffff1681526020016001820154815260200160028201548152505090508281604001818152505080600660003373ffffffffffffffffffffffffffffffffffffffff1673ffffffffffffffffffffffffffffffffffffffff168152602001908152602001600020848154811061318357613182614591565b5b906000526020600020906003020160008201518160000160006101000a81548173ffffffffffffffffffffffffffffffffffffffff021916908373ffffffffffffffffffffffffffffffffffffffff1602179055506020820151816001015560408201518160020155905050600660003373ffffffffffffffffffffffffffffffffffffffff1673ffffffffffffffffffffffffffffffffffffffff16815260200190815260200160002080548061323e5761323d614562565b5b6001900381819060005260206000209060030201600080820160006101000a81549073ffffffffffffffffffffffffffffffffffffffff021916905560018201600090556002820160009055505090556001915050919050565b8280546132a490614458565b90600052602060002090601f0160209004810192826132c6576000855561330d565b82601f106132df57805160ff191683800117855561330d565b8280016001018555821561330d579182015b8281111561330c5782518255916020019190600101906132f1565b5b50905061331a91906134ab565b5090565b604051806101000160405280600081526020016000815260200160608152602001606081526020016000815260200160608152602001600015158152602001600073ffffffffffffffffffffffffffffffffffffffff1681525090565b604051806080016040528060608152602001606081526020016000151581526020016000151581525090565b5080546133b390614458565b6000825580601f106133c557506133e4565b601f0160209004906000526020600020908101906133e391906134ab565b5b50565b6040518060600160405280600073ffffffffffffffffffffffffffffffffffffffff16815260200160008152602001600081525090565b82805461342a90614458565b90600052602060002090601f01602090048101928261344c576000855561349a565b82601f1061345d578054855561349a565b8280016001018555821561349a57600052602060002091601f016020900482015b8281111561349957825482559160010191906001019061347e565b5b5090506134a791906134ab565b5090565b5b808211156134c45760008160009055506001016134ac565b5090565b60006134db6134d684614274565b61424f565b9050828152602081018484840111156134f7576134f66145f9565b5b613502848285614416565b509392505050565b600061351d61351884614274565b61424f565b905082815260208101848484011115613539576135386145f9565b5b613544848285614425565b509392505050565b60008135905061355b81614874565b92915050565b60008151905061357081614874565b92915050565b6000815190506135858161488b565b92915050565b600082601f8301126135a05761359f6145ef565b5b81356135b08482602086016134c8565b91505092915050565b600082601f8301126135ce576135cd6145ef565b5b81516135de84826020860161350a565b91505092915050565b6000606082840312156135fd576135fc6145f4565b5b613607606061424f565b905060006136178482850161354c565b600083015250602061362b8482850161364b565b602083015250604061363f8482850161364b565b60408301525092915050565b60008135905061365a816148a2565b92915050565b60008151905061366f816148a2565b92915050565b60006020828403121561368b5761368a614603565b5b60006136998482850161354c565b91505092915050565b6000602082840312156136b8576136b7614603565b5b60006136c684828501613561565b91505092915050565b6000806000606084860312156136e8576136e7614603565b5b60006136f68682870161354c565b935050602084013567ffffffffffffffff811115613717576137166145fe565b5b6137238682870161358b565b925050604084013567ffffffffffffffff811115613744576137436145fe565b5b6137508682870161358b565b9150509250925092565b6000602082840312156137705761376f614603565b5b600061377e84828501613576565b91505092915050565b60006020828403121561379d5761379c614603565b5b600082013567ffffffffffffffff8111156137bb576137ba6145fe565b5b6137c78482850161358b565b91505092915050565b6000602082840312156137e6576137e5614603565b5b600082015167ffffffffffffffff811115613804576138036145fe565b5b613810848285016135b9565b91505092915050565b600080600080600060a0868803121561383557613834614603565b5b600086013567ffffffffffffffff811115613853576138526145fe565b5b61385f8882890161358b565b955050602086013567ffffffffffffffff8111156138805761387f6145fe565b5b61388c8882890161358b565b945050604086013567ffffffffffffffff8111156138ad576138ac6145fe565b5b6138b98882890161358b565b93505060606138ca8882890161364b565b925050608086013567ffffffffffffffff8111156138eb576138ea6145fe565b5b6138f78882890161358b565b9150509295509295909350565b60006060828403121561391a57613919614603565b5b6000613928848285016135e7565b91505092915050565b60006020828403121561394757613946614603565b5b60006139558482850161364b565b91505092915050565b60006020828403121561397457613973614603565b5b600061398284828501613660565b91505092915050565b600080604083850312156139a2576139a1614603565b5b60006139b08582860161364b565b92505060206139c18582860161354c565b9150509250929050565b600080604083850312156139e2576139e1614603565b5b60006139f08582860161364b565b925050602083013567ffffffffffffffff811115613a1157613a106145fe565b5b613a1d8582860161358b565b9150509250929050565b6000613a338383613d55565b905092915050565b6000613a478383613ed1565b60608301905092915050565b613a5c816143ce565b82525050565b613a6b816143ce565b82525050565b6000613a7c826142c5565b613a868185614300565b935083602082028501613a98856142a5565b8060005b85811015613ad45784840389528151613ab58582613a27565b9450613ac0836142e6565b925060208a01995050600181019050613a9c565b50829750879550505050505092915050565b6000613af1826142d0565b613afb8185614311565b9350613b06836142b5565b8060005b83811015613b37578151613b1e8882613a3b565b9750613b29836142f3565b925050600181019050613b0a565b5085935050505092915050565b613b4d816143e0565b82525050565b613b5c816143e0565b82525050565b6000613b6d826142db565b613b778185614322565b9350613b87818560208601614425565b613b9081614608565b840191505092915050565b6000613ba6826142db565b613bb08185614333565b9350613bc0818560208601614425565b613bc981614608565b840191505092915050565b6000613be1602683614333565b9150613bec82614619565b604082019050919050565b6000613c04602a83614333565b9150613c0f82614668565b604082019050919050565b6000613c27603283614333565b9150613c32826146b7565b604082019050919050565b6000613c4a601883614333565b9150613c5582614706565b602082019050919050565b6000613c6d602083614333565b9150613c788261472f565b602082019050919050565b6000613c90601e83614333565b9150613c9b82614758565b602082019050919050565b6000613cb3601883614333565b9150613cbe82614781565b602082019050919050565b6000613cd6601783614333565b9150613ce1826147aa565b602082019050919050565b6000613cf9601d83614333565b9150613d04826147d3565b602082019050919050565b6000613d1c602e83614333565b9150613d27826147fc565b604082019050919050565b6000613d3f602083614333565b9150613d4a8261484b565b602082019050919050565b600061010083016000830151613d6e6000860182613f7d565b506020830151613d816020860182613f7d565b5060408301518482036040860152613d998282613b62565b91505060608301518482036060860152613db38282613b62565b9150506080830151613dc86080860182613f7d565b5060a083015184820360a0860152613de08282613b62565b91505060c0830151613df560c0860182613b44565b5060e0830151613e0860e0860182613a53565b508091505092915050565b600061010083016000830151613e2c6000860182613f7d565b506020830151613e3f6020860182613f7d565b5060408301518482036040860152613e578282613b62565b91505060608301518482036060860152613e718282613b62565b9150506080830151613e866080860182613f7d565b5060a083015184820360a0860152613e9e8282613b62565b91505060c0830151613eb360c0860182613b44565b5060e0830151613ec660e0860182613a53565b508091505092915050565b606082016000820151613ee76000850182613a53565b506020820151613efa6020850182613f7d565b506040820151613f0d6040850182613f7d565b50505050565b60006080830160008301518482036000860152613f308282613b62565b91505060208301518482036020860152613f4a8282613b62565b9150506040830151613f5f6040860182613b44565b506060830151613f726060860182613b44565b508091505092915050565b613f868161440c565b82525050565b613f958161440c565b82525050565b6000602082019050613fb06000830184613a62565b92915050565b6000604082019050613fcb6000830185613a62565b8181036020830152613fdd8184613b9b565b90509392505050565b600060208201905081810360008301526140008184613a71565b905092915050565b600060208201905081810360008301526140228184613ae6565b905092915050565b600060208201905061403f6000830184613b53565b92915050565b6000602082019050818103600083015261405f8184613b9b565b905092915050565b6000602082019050818103600083015261408081613bd4565b9050919050565b600060208201905081810360008301526140a081613bf7565b9050919050565b600060208201905081810360008301526140c081613c1a565b9050919050565b600060208201905081810360008301526140e081613c3d565b9050919050565b6000602082019050818103600083015261410081613c60565b9050919050565b6000602082019050818103600083015261412081613c83565b9050919050565b6000602082019050818103600083015261414081613ca6565b9050919050565b6000602082019050818103600083015261416081613cc9565b9050919050565b6000602082019050818103600083015261418081613cec565b9050919050565b600060208201905081810360008301526141a081613d0f565b9050919050565b600060208201905081810360008301526141c081613d32565b9050919050565b600060208201905081810360008301526141e18184613e13565b905092915050565b600060208201905081810360008301526142038184613f13565b905092915050565b60006020820190506142206000830184613f8c565b92915050565b600060408201905061423b6000830185613f8c565b6142486020830184613a62565b9392505050565b600061425961426a565b9050614265828261448a565b919050565b6000604051905090565b600067ffffffffffffffff82111561428f5761428e6145c0565b5b61429882614608565b9050602081019050919050565b6000819050602082019050919050565b6000819050602082019050919050565b600081519050919050565b600081519050919050565b600081519050919050565b6000602082019050919050565b6000602082019050919050565b600082825260208201905092915050565b600082825260208201905092915050565b600082825260208201905092915050565b600082825260208201905092915050565b600061434f8261440c565b915061435a8361440c565b9250827fffffffffffffffffffffffffffffffffffffffffffffffffffffffffffffffff0382111561438f5761438e614504565b5b828201905092915050565b60006143a58261440c565b91506143b08361440c565b9250828210156143c3576143c2614504565b5b828203905092915050565b60006143d9826143ec565b9050919050565b60008115159050919050565b600073ffffffffffffffffffffffffffffffffffffffff82169050919050565b6000819050919050565b82818337600083830152505050565b60005b83811015614443578082015181840152602081019050614428565b83811115614452576000848401525b50505050565b6000600282049050600182168061447057607f821691505b6020821081141561448457614483614533565b5b50919050565b61449382614608565b810181811067ffffffffffffffff821117156144b2576144b16145c0565b5b80604052505050565b60006144c68261440c565b91507fffffffffffffffffffffffffffffffffffffffffffffffffffffffffffffffff8214156144f9576144f8614504565b5b600182019050919050565b7f4e487b7100000000000000000000000000000000000000000000000000000000600052601160045260246000fd5b7f4e487b7100000000000000000000000000000000000000000000000000000000600052602260045260246000fd5b7f4e487b7100000000000000000000000000000000000000000000000000000000600052603160045260246000fd5b7f4e487b7100000000000000000000000000000000000000000000000000000000600052603260045260246000fd5b7f4e487b7100000000000000000000000000000000000000000000000000000000600052604160045260246000fd5b600080fd5b600080fd5b600080fd5b600080fd5b600080fd5b6000601f19601f8301169050919050565b7f4f776e61626c653a206e6577206f776e657220697320746865207a65726f206160008201527f6464726573730000000000000000000000000000000000000000000000000000602082015250565b7f566f7573206e276176657a20617563756e652064656d616e646520646520636560008201527f72696669636174696f6e00000000000000000000000000000000000000000000602082015250565b7f566f7573206e276176657a20706173206c652064726f69742064277574696c6960008201527f73657220636574746520666f6e6374696f6e0000000000000000000000000000602082015250565b7f436520636f6d707465206e276578697374652070617320210000000000000000600082015250565b7f4f776e61626c653a2063616c6c6572206973206e6f7420746865206f776e6572600082015250565b7f4c65204e4654206465206c27696e646578206e27657869737465207061730000600082015250565b7f566f7573206e276176657a20706173206465204e465420210000000000000000600082015250565b7f436520746f6b656e206e27657869737465207061732021000000000000000000600082015250565b7f4365747465206164647265737365206e27657869737465207061732021000000600082015250565b7f4c652063657274696669616e74206e652070657574207061732063657274696660008201527f69657220766f747265204e46542e000000000000000000000000000000000000602082015250565b7f436574204e4654206e6520766f75732061707061727469656e74207061732021600082015250565b61487d816143ce565b811461488857600080fd5b50565b614894816143e0565b811461489f57600080fd5b50565b6148ab8161440c565b81146148b657600080fd5b5056fea2646970667358221220eb95dfccd71c5b26b008a6e24e37e2740e32f603ce27c1442d621143d22b401e64736f6c63430008060033",
  "immutableReferences": {},
  "source": "//SPDX-License-Identifier: MIT\n\npragma solidity 0.8.6;\n\nimport \"./ERC721Token.sol\";\nimport \"./AccountManager.sol\";\nimport \"./PasswordManager.sol\";\n\ncontract SecMyDoc is AccountManager, PasswordManager\n{\n    SecMyDocToken private token;\n    mapping(address => Nft[]) private balance;\n    mapping(address => Request[]) private requests;\n\n    constructor(SecMyDocToken _token)\n    {\n        token = _token;\n    }\n\n    struct Nft\n    {\n       uint256 tokenID;\n       uint256 tokenLength;\n       string tokenName;\n       string tokenMime;\n       uint256 dateAdd;\n       string filePath;\n       bool isCertified;\n       address certifying;\n       //address 2 certifiant => type de document\n       //address 1 certifiant => type de document\n       //address 0 certifiant => type de document\n    }\n\n    struct Request\n    {\n        address applicant;\n        uint256 tokenID;\n        uint256 index;\n    }\n\n    modifier isMyToken(uint256 tokenID)\n    {\n        require(token.ownerOf(tokenID) == msg.sender, \"Cet NFT ne vous appartient pas !\");\n        _;\n    }\n\n    function getIndexNFT(uint tokenID) private view returns(uint)\n    {\n        bool found;\n        uint256 index;\n\n        for (uint256 i = 0; i < balance[msg.sender].length; i++)\n        {\n            if (tokenID == balance[msg.sender][i].tokenID)\n            {\n                index = i;\n                found = true;\n                i = balance[msg.sender].length;\n            }\n        }\n\n        require(found, \"Cet NFT ne vous appartient pas !\");\n        return index;\n    }\n\n\n    function getCountNFT() public view returns(uint256)\n    {\n        return token.balanceOf(msg.sender);\n    }\n\n    function createNFT(string memory tokenName, string memory tokenURI, string memory tokenMime, uint256 tokenLength, string memory filePath) public returns (Nft memory)\n    {\n       uint256 tokenID;\n       Nft memory nft;\n\n       tokenID = token.addItem(msg.sender, tokenURI);\n       nft = Nft(tokenID, tokenLength, tokenName, tokenMime, block.timestamp, filePath, false, address(0));\n\n       balance[msg.sender].push(nft);\n       return nft;\n    }\n\n    function createNFTCertified(string memory tokenName, string memory tokenURI, string memory tokenMime, uint256 tokenLength, string memory filePath) public onlyAuthority(msg.sender) returns(Nft memory)\n    {\n       uint256 tokenID;\n       Nft memory nft;\n\n       tokenID = token.addItem(msg.sender, tokenURI);\n       nft = Nft(tokenID, tokenLength, tokenName, tokenMime, block.timestamp, filePath, true, msg.sender);\n\n       balance[msg.sender].push(nft);\n\n       return nft;\n    }\n\n    function getNFTs() public view returns(Nft[] memory)\n    {\n      require(balance[msg.sender].length > 0 , \"Vous n'avez pas de NFT !\");\n      return balance[msg.sender];\n    }\n\n    function getNFT(uint256 index) public view returns(Nft memory)\n    {\n        require(balance[msg.sender].length > 0 , \"Vous n'avez pas de NFT !\");\n        require(index < balance[msg.sender].length, \"Le NFT de l'index n'existe pas\");\n\n        Nft memory nft = balance[msg.sender][index];\n\n        return nft;\n    }\n\n    function getTokenURI(uint256 tokenID) public view isMyToken(tokenID) returns(string memory)\n    {\n        return token.tokenURI(tokenID);\n    }\n\n    function deleteNFT(uint256 tokenID) public isMyToken(tokenID) returns(bool)\n    {\n        uint256 index = getIndexNFT(tokenID);\n\n        balance[msg.sender][index] = balance[msg.sender][balance[msg.sender].length - 1];\n        balance[msg.sender].pop();\n\n        token.delItem(tokenID, msg.sender);\n        return true;\n    }\n\n    function requestCertification(uint256 tokenID, address certifying) public userExist(certifying) isMyToken(tokenID) returns(bool)\n    {\n        require(isAuthority(certifying), \"Le certifiant ne peut pas certifier votre NFT.\");\n        Request memory request;\n\n        request = Request(msg.sender, tokenID, requests[certifying].length + 1);\n        requests[certifying].push(request);\n\n        return true;\n    }\n\n    function getRequests() public view onlyAuthority(msg.sender) returns(Request[] memory)\n    {\n        require(requests[msg.sender].length > 0, \"Vous n'avez aucune demande de cerification\");\n        return requests[msg.sender];\n    }\n\n    function delRequest(uint256 index) private returns(bool)\n    {\n        Request memory substitute;\n\n        substitute = requests[msg.sender][requests[msg.sender].length - 1];\n        substitute.index = index;\n        requests[msg.sender][index] = substitute;\n        requests[msg.sender].pop();\n\n        return true;\n    }\n\n    function acceptRequest(Request memory request) public onlyAuthority(msg.sender) returns(Nft memory)\n    {\n        Nft memory nft;\n        uint256 index;\n\n        index = getIndexNFT(request.tokenID);\n        nft = getNFT(index);\n        nft.isCertified = true;\n        nft.certifying = msg.sender;\n\n        balance[request.applicant][index] = nft;\n        (bool success) = delRequest(request.index);\n\n        return nft;\n    }\n}\n",
  "sourcePath": "/home/traore/projects/SAV-Doc/contracts/SecMyDoc.sol",
  "compiler": {
    "name": "solc",
    "version": "0.8.6+commit.11564f7e.Emscripten.clang"
  },
  "schemaVersion": "3.4.1",
  "updatedAt": "2021-07-22T13:58:09.365Z",
  "networkType": "ethereum",
  "devdoc": {
    "kind": "dev",
    "methods": {
      "owner()": {
        "details": "Returns the address of the current owner."
      },
      "renounceOwnership()": {
        "details": "Leaves the contract without owner. It will not be possible to call `onlyOwner` functions anymore. Can only be called by the current owner. NOTE: Renouncing ownership will leave the contract without an owner, thereby removing any functionality that is only available to the owner."
      },
      "transferOwnership(address)": {
        "details": "Transfers ownership of the contract to a new account (`newOwner`). Can only be called by the current owner."
      }
    },
    "version": 1
  },
  "userdoc": {
    "kind": "user",
    "methods": {},
    "version": 1
  }
}